{"abi":[{"type":"constructor","inputs":[{"name":"_initialPrice","type":"int256","internalType":"int256"}],"stateMutability":"nonpayable"},{"type":"function","name":"decimals","inputs":[],"outputs":[{"name":"","type":"uint8","internalType":"uint8"}],"stateMutability":"view"},{"type":"function","name":"description","inputs":[],"outputs":[{"name":"","type":"string","internalType":"string"}],"stateMutability":"view"},{"type":"function","name":"getRoundData","inputs":[{"name":"_roundId","type":"uint80","internalType":"uint80"}],"outputs":[{"name":"roundId","type":"uint80","internalType":"uint80"},{"name":"answer","type":"int256","internalType":"int256"},{"name":"startedAt","type":"uint256","internalType":"uint256"},{"name":"updatedAt","type":"uint256","internalType":"uint256"},{"name":"answeredInRound","type":"uint80","internalType":"uint80"}],"stateMutability":"view"},{"type":"function","name":"latestRoundData","inputs":[],"outputs":[{"name":"roundId","type":"uint80","internalType":"uint80"},{"name":"answer","type":"int256","internalType":"int256"},{"name":"startedAt","type":"uint256","internalType":"uint256"},{"name":"updatedAt","type":"uint256","internalType":"uint256"},{"name":"answeredInRound","type":"uint80","internalType":"uint80"}],"stateMutability":"view"},{"type":"function","name":"price","inputs":[],"outputs":[{"name":"","type":"int256","internalType":"int256"}],"stateMutability":"view"},{"type":"function","name":"setPrice","inputs":[{"name":"_price","type":"int256","internalType":"int256"}],"outputs":[],"stateMutability":"nonpayable"},{"type":"function","name":"version","inputs":[],"outputs":[{"name":"","type":"uint256","internalType":"uint256"}],"stateMutability":"view"}],"bytecode":{"object":"0x608034604d57601f61027738819003918201601f19168301916001600160401b03831184841017605157808492602094604052833981010312604d57515f5560405161021190816100668239f35b5f80fd5b634e487b7160e01b5f52604160045260245ffdfe6080806040526004361015610012575f80fd5b5f3560e01c908163313ce567146101c25750806354fd4d50146101a75780637284e416146101225780639a6fc8f5146100d7578063a035b1fe146100bb578063f7a30806146100a35763feaf968c14610069575f80fd5b3461009f575f36600319011261009f5760a05f546040519060018252602082015242604082015242606082015260016080820152f35b5f80fd5b3461009f57602036600319011261009f576004355f55005b3461009f575f36600319011261009f5760205f54604051908152f35b3461009f57602036600319011261009f576004356001600160501b0381169081900361009f5760a0905f54906040519181835260208301524260408301524260608301526080820152f35b3461009f575f36600319011261009f57604080519081016001600160401b0381118282101761019357604052600981526040602082019168115512080bc81554d160ba1b83528151928391602083525180918160208501528484015e5f828201840152601f01601f19168101030190f35b634e487b7160e01b5f52604160045260245ffd5b3461009f575f36600319011261009f57602060405160018152f35b3461009f575f36600319011261009f5780600860209252f3fea26469706673582212204b04f7bddb84a80060f02088fd4c35ffb1bc22f134ef5a26c19ceee18b774cac64736f6c634300081c0033","linkReferences":{}},"methodIdentifiers":{"decimals()":"313ce567","description()":"7284e416","getRoundData(uint80)":"9a6fc8f5","latestRoundData()":"feaf968c","price()":"a035b1fe","setPrice(int256)":"f7a30806","version()":"54fd4d50"},"id":204}