{"abi":[{"type":"constructor","inputs":[{"name":"_initialPrice","type":"int256","internalType":"int256"}],"stateMutability":"nonpayable"},{"type":"function","name":"decimals","inputs":[],"outputs":[{"name":"","type":"uint8","internalType":"uint8"}],"stateMutability":"view"},{"type":"function","name":"description","inputs":[],"outputs":[{"name":"","type":"string","internalType":"string"}],"stateMutability":"view"},{"type":"function","name":"getRoundData","inputs":[{"name":"_roundId","type":"uint80","internalType":"uint80"}],"outputs":[{"name":"roundId","type":"uint80","internalType":"uint80"},{"name":"answer","type":"int256","internalType":"int256"},{"name":"startedAt","type":"uint256","internalType":"uint256"},{"name":"updatedAt","type":"uint256","internalType":"uint256"},{"name":"answeredInRound","type":"uint80","internalType":"uint80"}],"stateMutability":"view"},{"type":"function","name":"latestRoundData","inputs":[],"outputs":[{"name":"roundId","type":"uint80","internalType":"uint80"},{"name":"answer","type":"int256","internalType":"int256"},{"name":"startedAt","type":"uint256","internalType":"uint256"},{"name":"updatedAt","type":"uint256","internalType":"uint256"},{"name":"answeredInRound","type":"uint80","internalType":"uint80"}],"stateMutability":"view"},{"type":"function","name":"price","inputs":[],"outputs":[{"name":"","type":"int256","internalType":"int256"}],"stateMutability":"view"},{"type":"function","name":"setPrice","inputs":[{"name":"_price","type":"int256","internalType":"int256"}],"outputs":[],"stateMutability":"nonpayable"},{"type":"function","name":"version","inputs":[],"outputs":[{"name":"","type":"uint256","internalType":"uint256"}],"stateMutability":"view"}],"bytecode":{"object":"0x60806040523461002f576100196100146100e0565b61015e565b610021610034565b61071061016b823961071090f35b61003a565b60405190565b5f80fd5b601f801991011690565b634e487b7160e01b5f52604160045260245ffd5b906100669061003e565b810190811060018060401b0382111761007e57604052565b610048565b9061009661008f610034565b928361005c565b565b5f80fd5b90565b6100a88161009c565b036100af57565b5f80fd5b905051906100c08261009f565b565b906020828203126100db576100d8915f016100b3565b90565b610098565b6100fe61087b803803806100f381610083565b9283398101906100c2565b90565b5f1b90565b906101125f1991610101565b9181191691161790565b90565b61013361012e6101389261009c565b61011c565b61009c565b90565b90565b9061015361014e61015a9261011f565b61013b565b8254610106565b9055565b610168905f61013e565b56fe60806040526004361015610013575b610586565b61001d5f3561008c565b8063313ce5671461008757806354fd4d50146100825780637284e4161461007d5780639a6fc8f514610078578063a035b1fe14610073578063f7a308061461006e5763feaf968c0361000e5761054d565b61051a565b61049f565b610416565b61032b565b6101a2565b610111565b60e01c90565b60405190565b5f80fd5b5f80fd5b5f9103126100aa57565b61009c565b90565b60ff1690565b90565b6100cf6100ca6100d4926100af565b6100b8565b6100b2565b90565b6100e160086100bb565b90565b6100ec6100d7565b90565b6100f8906100b2565b9052565b919061010f905f602085019401906100ef565b565b34610141576101213660046100a0565b61013d61012c6100e4565b610134610092565b918291826100fc565b0390f35b610098565b90565b90565b61016061015b61016592610146565b6100b8565b610149565b90565b610172600161014c565b90565b61017d610168565b90565b61018990610149565b9052565b91906101a0905f60208501940190610180565b565b346101d2576101b23660046100a0565b6101ce6101bd610175565b6101c5610092565b9182918261018d565b0390f35b610098565b601f801991011690565b634e487b7160e01b5f52604160045260245ffd5b906101ff906101d7565b810190811060018060401b0382111761021757604052565b6101e1565b9061022f610228610092565b92836101f5565b565b60018060401b03811161024d576102496020916101d7565b0190565b6101e1565b9061026461025f83610231565b61021c565b918252565b5f7f455448202f205553440000000000000000000000000000000000000000000000910152565b61029a6009610252565b906102a760208301610269565b565b6102b1610290565b90565b6102bc6102a9565b90565b6102c76102b4565b90565b5190565b60209181520190565b90825f9392825e0152565b61030161030a60209361030f936102f8816102ca565b938480936102ce565b958691016102d7565b6101d7565b0190565b6103289160208201915f8184039101526102e2565b90565b3461035b5761033b3660046100a0565b6103576103466102bf565b61034e610092565b91829182610313565b0390f35b610098565b60018060501b031690565b61037481610360565b0361037b57565b5f80fd5b9050359061038c8261036b565b565b906020828203126103a7576103a4915f0161037f565b90565b61009c565b6103b590610360565b9052565b90565b6103c5906103b9565b9052565b909594926104149461040361040d926103f96080966103ef60a088019c5f8901906103ac565b60208701906103bc565b6040850190610180565b6060830190610180565b01906103ac565b565b3461044a5761044661043161042c36600461038e565b6105bc565b9161043d959395610092565b958695866103c9565b0390f35b610098565b1c90565b90565b61046690600861046b930261044f565b610453565b90565b906104799154610456565b90565b6104875f5f9061046e565b90565b919061049d905f602085019401906103bc565b565b346104cf576104af3660046100a0565b6104cb6104ba61047c565b6104c2610092565b9182918261048a565b0390f35b610098565b6104dd816103b9565b036104e457565b5f80fd5b905035906104f5826104d4565b565b906020828203126105105761050d915f016104e8565b90565b61009c565b5f0190565b346105485761053261052d3660046104f7565b61065b565b61053a610092565b8061054481610515565b0390f35b610098565b346105815761055d3660046100a0565b61057d610568610683565b91610574959395610092565b958695866103c9565b0390f35b610098565b5f80fd5b5f90565b5f90565b5f90565b5f1c90565b6105a76105ac91610596565b610453565b90565b6105b9905461059b565b90565b906105c561058a565b506105ce61058e565b506105d7610592565b506105e0610592565b506105e961058a565b50816105f45f6105af565b9242924292919493929190565b5f1b90565b906106125f1991610601565b9181191691161790565b61063061062b610635926103b9565b6100b8565b6103b9565b90565b90565b9061065061064b6106579261061c565b610638565b8254610606565b9055565b610665905f61063b565b565b61067b61067661068092610146565b6100b8565b610360565b90565b61068b61058a565b5061069461058e565b5061069d610592565b506106a6610592565b506106af61058a565b5060016106bb5f6105af565b91429142916106d76106ce600193610667565b95949392610667565b9056fea26469706673582212206da01e1028ae3225e08ba5e8d47eaeec35737527a0e4f689ad62a0808258649c64736f6c634300081c0033","linkReferences":{}},"methodIdentifiers":{"decimals()":"313ce567","description()":"7284e416","getRoundData(uint80)":"9a6fc8f5","latestRoundData()":"feaf968c","price()":"a035b1fe","setPrice(int256)":"f7a30806","version()":"54fd4d50"},"id":184}