{"abi":[{"type":"constructor","inputs":[{"name":"_native","type":"address","internalType":"address"},{"name":"_keeper","type":"address","internalType":"address"},{"name":"_beefyFeeRecipient","type":"address","internalType":"address"},{"name":"_beefyFeeConfig","type":"address","internalType":"address"}],"stateMutability":"nonpayable"},{"type":"function","name":"addRebalancer","inputs":[{"name":"_rebalancer","type":"address","internalType":"address"}],"outputs":[],"stateMutability":"nonpayable"},{"type":"function","name":"addStrategy","inputs":[{"name":"_strategyName","type":"string","internalType":"string"},{"name":"_implementation","type":"address","internalType":"address"}],"outputs":[],"stateMutability":"nonpayable"},{"type":"function","name":"beefyFeeConfig","inputs":[],"outputs":[{"name":"","type":"address","internalType":"address"}],"stateMutability":"view"},{"type":"function","name":"beefyFeeRecipient","inputs":[],"outputs":[{"name":"","type":"address","internalType":"address"}],"stateMutability":"view"},{"type":"function","name":"createStrategy","inputs":[{"name":"_strategyName","type":"string","internalType":"string"}],"outputs":[{"name":"","type":"address","internalType":"address"}],"stateMutability":"nonpayable"},{"type":"function","name":"getImplementation","inputs":[{"name":"_strategyName","type":"string","internalType":"string"}],"outputs":[{"name":"","type":"address","internalType":"address"}],"stateMutability":"view"},{"type":"function","name":"getStrategyTypes","inputs":[],"outputs":[{"name":"","type":"string[]","internalType":"string[]"}],"stateMutability":"view"},{"type":"function","name":"globalPause","inputs":[],"outputs":[{"name":"","type":"bool","internalType":"bool"}],"stateMutability":"view"},{"type":"function","name":"instances","inputs":[{"name":"","type":"string","internalType":"string"}],"outputs":[{"name":"","type":"address","internalType":"contract UpgradeableBeacon"}],"stateMutability":"view"},{"type":"function","name":"keeper","inputs":[],"outputs":[{"name":"","type":"address","internalType":"address"}],"stateMutability":"view"},{"type":"function","name":"native","inputs":[],"outputs":[{"name":"","type":"address","internalType":"address"}],"stateMutability":"view"},{"type":"function","name":"owner","inputs":[],"outputs":[{"name":"","type":"address","internalType":"address"}],"stateMutability":"view"},{"type":"function","name":"pauseAllStrats","inputs":[],"outputs":[],"stateMutability":"nonpayable"},{"type":"function","name":"rebalancers","inputs":[{"name":"","type":"address","internalType":"address"}],"outputs":[{"name":"","type":"bool","internalType":"bool"}],"stateMutability":"view"},{"type":"function","name":"removeRebalancer","inputs":[{"name":"_rebalancer","type":"address","internalType":"address"}],"outputs":[],"stateMutability":"nonpayable"},{"type":"function","name":"renounceOwnership","inputs":[],"outputs":[],"stateMutability":"nonpayable"},{"type":"function","name":"setBeefyFeeConfig","inputs":[{"name":"_beefyFeeConfig","type":"address","internalType":"address"}],"outputs":[],"stateMutability":"nonpayable"},{"type":"function","name":"setBeefyFeeRecipient","inputs":[{"name":"_beefyFeeRecipient","type":"address","internalType":"address"}],"outputs":[],"stateMutability":"nonpayable"},{"type":"function","name":"setKeeper","inputs":[{"name":"_keeper","type":"address","internalType":"address"}],"outputs":[],"stateMutability":"nonpayable"},{"type":"function","name":"strategyTypes","inputs":[{"name":"","type":"uint256","internalType":"uint256"}],"outputs":[{"name":"","type":"string","internalType":"string"}],"stateMutability":"view"},{"type":"function","name":"transferOwnership","inputs":[{"name":"newOwner","type":"address","internalType":"address"}],"outputs":[],"stateMutability":"nonpayable"},{"type":"function","name":"unpauseAllStrats","inputs":[],"outputs":[],"stateMutability":"nonpayable"},{"type":"event","name":"GlobalPause","inputs":[{"name":"paused","type":"bool","indexed":false,"internalType":"bool"}],"anonymous":false},{"type":"event","name":"NewStrategyAdded","inputs":[{"name":"strategyName","type":"string","indexed":false,"internalType":"string"},{"name":"implementation","type":"address","indexed":false,"internalType":"address"}],"anonymous":false},{"type":"event","name":"OwnershipTransferred","inputs":[{"name":"previousOwner","type":"address","indexed":true,"internalType":"address"},{"name":"newOwner","type":"address","indexed":true,"internalType":"address"}],"anonymous":false},{"type":"event","name":"ProxyCreated","inputs":[{"name":"strategyName","type":"string","indexed":false,"internalType":"string"},{"name":"proxy","type":"address","indexed":false,"internalType":"address"}],"anonymous":false},{"type":"event","name":"RebalancerChanged","inputs":[{"name":"rebalancer","type":"address","indexed":false,"internalType":"address"},{"name":"isRebalancer","type":"bool","indexed":false,"internalType":"bool"}],"anonymous":false},{"type":"event","name":"SetBeefyFeeConfig","inputs":[{"name":"beefyFeeConfig","type":"address","indexed":false,"internalType":"address"}],"anonymous":false},{"type":"event","name":"SetBeefyFeeRecipient","inputs":[{"name":"beefyFeeRecipient","type":"address","indexed":false,"internalType":"address"}],"anonymous":false},{"type":"event","name":"SetKeeper","inputs":[{"name":"keeper","type":"address","indexed":false,"internalType":"address"}],"anonymous":false},{"type":"error","name":"NotManager","inputs":[]},{"type":"error","name":"StratVersionExists","inputs":[]}],"bytecode":{"object":"0x6080346100de57601f611b7938819003918201601f19168301916001600160401b038311848410176100e2578084926080946040528339810103126100de57610047816100f6565b90610054602082016100f6565b61006c6060610065604085016100f6565b93016100f6565b926100763361010a565b61007f3361010a565b600480546001600160a01b03199081166001600160a01b039384161790915560058054821693831693909317909255600680548316938216939093179092556007805490911692909116919091179055604051611a2890816101518239f35b5f80fd5b634e487b7160e01b5f52604160045260245ffd5b51906001600160a01b03821682036100de57565b5f80546001600160a01b039283166001600160a01b03198216811783559216907f8be0079c531659141344cd1fd0a4f28419497f9722a3daafe3b4186f6b6457e09080a356fe60806040526004361015610011575f80fd5b5f5f3560e01c80630c97991914610c55578063106fdbd014610be9578063116fd50114610b0a57806311b0b42d14610ae257806341a1914e14610a3b57806343bc4b9a146109bb5780634746fb5514610993578063517137ee146109315780636b68389614610865578063715018a614610821578063748747e6146107b55780638da5cb5b1461078e5780638e14545914610766578063940a9fa114610728578063a44d57a0146106eb578063a68833e51461067f578063aced166114610657578063c93d7715146105eb578063cdd5d9dd146102e9578063ed8ea600146101e7578063f12d54d8146101c15763f2fde38b1461010c575f80fd5b346101be5760203660031901126101be57610125610cb3565b61012d610e79565b6001600160a01b0316801561016a5781546001600160a01b03198116821783556001600160a01b03165f5160206119935f395f51905f528380a380f35b60405162461bcd60e51b815260206004820152602660248201527f4f776e61626c653a206e6577206f776e657220697320746865207a65726f206160448201526564647265737360d01b6064820152608490fd5b80fd5b50346101be57806003193601126101be57602060ff60075460a01c166040519015158152f35b50346101be57806003193601126101be576003546001600160401b0381116102d55760405161021c60208360051b0182610cf6565b818152600383526020810191837fc2575a0e9e593c00f959f8c92f12db2869c3395a3b0502d05e2516446f71f85b845b8383106102b857868587604051928392602084019060208552518091526040840160408260051b8601019392905b82821061028957505050500390f35b919360019193955060206102a88192603f198a82030186528851610e1d565b960192019201859493919261027a565b6001602081926102c785610d7d565b81520192019201919061024c565b634e487b7160e01b82526041600452602482fd5b50346105a05760403660031901126105a0576004356001600160401b0381116105a05761031a903690600401610cc9565b60243592916001600160a01b0384168085036105a0575f546001600160a01b0316331415806105d6575b6105c7576040518383823760018185019081528190036020019020546001600160a01b03166105b8576040519061045c8083016001600160401b038111848210176105a4576020928492611517843981520301905ff08015610595576001600160a01b0316803b156105a05760405163f2fde38b60e01b81523060048201525f8160248183865af1801561059557610580575b50604051838382376001848201908152819003602001902080546001600160a01b0319169091179055600354600160401b8110156105585780600161041f9201600355610d19565b61056c576001600160401b0383116105585761043b8154610d45565b601f8111610513575b5083601f841160011461049e579461048d918486975f5160206119b35f395f51905f529791610493575b508560011b905f198760031b1c19161790555b60405193849384610e41565b0390a180f35b90508401355f61046e565b8185526020852090601f198516865b8181106104fb57509161048d9391865f5160206119b35f395f51905f52989994106104e2575b5050600185811b019055610481565b8501355f19600388901b60f8161c191690555f806104d3565b919260206001819286890135815501940192016104ad565b81855260208520601f850160051c8101916020861061054e575b601f0160051c01905b8181106105435750610444565b858155600101610536565b909150819061052d565b634e487b7160e01b84526041600452602484fd5b634e487b7160e01b84526004849052602484fd5b61058d9194505f90610cf6565b5f925f6103d7565b6040513d5f823e3d90fd5b5f80fd5b634e487b7160e01b5f52604160045260245ffd5b631f93a2cd60e01b5f5260045ffd5b63607e454560e11b5f5260045ffd5b506005546001600160a01b0316331415610344565b346105a0575f3660031901126105a0575f546001600160a01b031633141580610642575b6105c7576007805460ff60a01b1916600160a01b179055604051600181525f5160206119d35f395f51905f5290602090a1005b506005546001600160a01b031633141561060f565b346105a0575f3660031901126105a0576005546040516001600160a01b039091168152602090f35b346105a05760203660031901126105a0577f8041329bf7057543a2c2ff4e4071d1d488a31f82ed44e169b5cd2f04f5e3ac8560206106bb610cb3565b6106c3610e79565b600680546001600160a01b0319166001600160a01b03929092169182179055604051908152a1005b346105a05760203660031901126105a0576001600160a01b0361070c610cb3565b165f526002602052602060ff60405f2054166040519015158152f35b346105a0575f3660031901126105a057610740610e79565b60ff60a01b19600754166007555f5160206119d35f395f51905f5260206040515f8152a1005b346105a0575f3660031901126105a0576006546040516001600160a01b039091168152602090f35b346105a0575f3660031901126105a0575f546040516001600160a01b039091168152602090f35b346105a05760203660031901126105a0577fefb5cfa1a8690c124332ab93324539c5c9c4be03f28aeb8be86f2d8a0c9fb99b60206107f1610cb3565b6107f9610e79565b600580546001600160a01b0319166001600160a01b03929092169182179055604051908152a1005b346105a0575f3660031901126105a057610839610e79565b5f80546001600160a01b0319811682556001600160a01b03165f5160206119935f395f51905f528280a3005b346105a05760203660031901126105a0576004356001600160401b0381116105a057602061089860049236908401610cc9565b8060405192833760019082019081528190038201902054604051635c60da1b60e01b815292839182906001600160a01b03165afa8015610595575f906108ee575b6040516001600160a01b039091168152602090f35b506020813d602011610929575b8161090860209383610cf6565b810103126105a057516001600160a01b03811681036105a0576020906108d9565b3d91506108fb565b346105a05760203660031901126105a0576004356003548110156105a05761095890610d19565b6109805761096861097c91610d7d565b604051918291602083526020830190610e1d565b0390f35b634e487b7160e01b5f525f60045260245ffd5b346105a0575f3660031901126105a0576007546040516001600160a01b039091168152602090f35b346105a05760203660031901126105a0576109d4610cb3565b5f546001600160a01b031633141580610a26575b6105c75760405f5160206119735f395f51905f529160018060a01b0316805f526002602052815f2060ff19815416905581519081525f6020820152a1005b506005546001600160a01b03163314156109e8565b346105a05760203660031901126105a0576004356001600160401b0381116105a057366023820112156105a05760048101356001600160401b0381116105a45760405190610a93601f8201601f191660200183610cf6565b808252602082019036602482860101116105a0576020815f92602483970185378401015260405191518091835e600190820190815281900382019020546040516001600160a01b039091168152f35b346105a0575f3660031901126105a0576004546040516001600160a01b039091168152602090f35b346105a05760203660031901126105a0576004356001600160401b0381116105a057610b3a903690600401610cc9565b90604051828282376001818401908152819003602001902054604051906001600160a01b03166106468083016001600160401b038111848210176105a4576060928492610ed184398152604060208201525f60408201520301905ff08015610595576040516020936001600160a01b03909216927f3699b7de9b98bb64c45028ff3593b0d6159da8016d0f85b6af11d765320c87bb928291610bde91869184610e41565b0390a1604051908152f35b346105a05760203660031901126105a0577f91e28ce4210d103c13c5174847e463b836900f8dc63e9d9b42a4255169d195296020610c25610cb3565b610c2d610e79565b600780546001600160a01b0319166001600160a01b03929092169182179055604051908152a1005b346105a05760203660031901126105a0575f5160206119735f395f51905f526040610c7e610cb3565b610c86610e79565b60018060a01b0316805f526002602052815f20600160ff19825416179055815190815260016020820152a1005b600435906001600160a01b03821682036105a057565b9181601f840112156105a0578235916001600160401b0383116105a057602083818601950101116105a057565b601f909101601f19168101906001600160401b038211908210176105a457604052565b600354811015610d315760035f5260205f2001905f90565b634e487b7160e01b5f52603260045260245ffd5b90600182811c92168015610d73575b6020831014610d5f57565b634e487b7160e01b5f52602260045260245ffd5b91607f1691610d54565b9060405191825f825492610d9084610d45565b8084529360018116908115610dfb5750600114610db7575b50610db592500383610cf6565b565b90505f9291925260205f20905f915b818310610ddf575050906020610db5928201015f610da8565b6020919350806001915483858901015201910190918492610dc6565b905060209250610db594915060ff191682840152151560051b8201015f610da8565b805180835260209291819084018484015e5f828201840152601f01601f1916010190565b918060609160209396959660408652816040870152838601375f828286010152601f80199101168301019360018060a01b0316910152565b5f546001600160a01b03163303610e8c57565b606460405162461bcd60e51b815260206004820152602060248201527f4f776e61626c653a2063616c6c6572206973206e6f7420746865206f776e65726044820152fdfe6080806040526106468038038091610017828561033c565b83398101906040818303126102335761002f81610373565b602082015190916001600160401b03821161023357019082601f8301121561023357815161005c81610387565b9261006a604051948561033c565b81845260208401946020838301011161023357815f926020809301875e84010152803b156102e957604051635c60da1b60e01b81526001600160a01b03919091169290602081600481875afa90811561023f575f916102af575b503b15610251577fa3f0ad74e5423aebfd80d3ef4346578335a9a72aeaee59ff6cb3582b35133d5080546001600160a01b0319168417905560405192807f1cf3b03a6cf19fa2baba4df148e9dcabedea7f8a5c07840e207e5c089be95d3e5f80a282511580159061024a575b610144575b6040516101ef90816104578239f35b83600481602093635c60da1b60e01b82525afa92831561023f575f936101fa575b50915f806101e8946040519461017c60608761033c565b602786527f416464726573733a206c6f772d6c6576656c2064656c65676174652063616c6c6020870152660819985a5b195960ca1b60408701525190845af43d156101f2573d916101cc83610387565b926101da604051948561033c565b83523d5f602085013e6103a2565b505f808080610135565b6060916103a2565b92506020833d602011610237575b816102156020938361033c565b81010312610233575f8061022b6101e895610373565b945050610165565b5f80fd5b3d9150610208565b6040513d5f823e3d90fd5b505f610130565b60405162461bcd60e51b815260206004820152603060248201527f455243313936373a20626561636f6e20696d706c656d656e746174696f6e206960448201526f1cc81b9bdd08184818dbdb9d1c9858dd60821b6064820152608490fd5b90506020813d6020116102e1575b816102ca6020938361033c565b81010312610233576102db90610373565b5f6100c4565b3d91506102bd565b60405162461bcd60e51b815260206004820152602560248201527f455243313936373a206e657720626561636f6e206973206e6f74206120636f6e6044820152641d1c9858dd60da1b6064820152608490fd5b601f909101601f19168101906001600160401b0382119082101761035f57604052565b634e487b7160e01b5f52604160045260245ffd5b51906001600160a01b038216820361023357565b6001600160401b03811161035f57601f01601f191660200190565b9192901561040457508151156103b6575090565b3b156103bf5790565b60405162461bcd60e51b815260206004820152601d60248201527f416464726573733a2063616c6c20746f206e6f6e2d636f6e74726163740000006044820152606490fd5b8251909150156104175750805190602001fd5b604460209160405192839162461bcd60e51b83528160048401528051918291826024860152018484015e5f828201840152601f01601f19168101030190fdfe6080604052366100ab575f51602061019a5f395f51905f5254635c60da1b60e01b608090815260209160049082906001600160a01b03165afa80156100a0575f901561017c575060203d602011610099575b6080601f8201601f1916810191906001600160401b038311908310176100855761008091604052608001610137565b61017c565b634e487b7160e01b5f52604160045260245ffd5b503d610051565b6040513d5f823e3d90fd5b5f51602061019a5f395f51905f5254604051635c60da1b60e01b815290602090829060049082906001600160a01b03165afa9081156100a0575f916100f1575b5061017c565b602091503d821161012f575b601f8201601f19168101916001600160401b03831182841017610085576101299260405281019061015d565b5f6100eb565b3d91506100fd565b602090607f190112610159576080516001600160a01b03811681036101595790565b5f80fd5b9081602091031261015957516001600160a01b03811681036101595790565b5f8091368280378136915af43d5f803e15610195573d5ff35b3d5ffdfea3f0ad74e5423aebfd80d3ef4346578335a9a72aeaee59ff6cb3582b35133d50a2646970667358221220bdb1e548776bd160d31748de8e8cd9287ac3cf2ebb9023a8c02db20fdd979af764736f6c634300081c003360803461012b57601f61045c38819003918201601f19168301916001600160401b0383118484101761012f5780849260209460405283398101031261012b57516001600160a01b0381169081810361012b575f8054336001600160a01b0319821681178355604051939290916001600160a01b0316907f8be0079c531659141344cd1fd0a4f28419497f9722a3daafe3b4186f6b6457e09080a33b156100c35750600180546001600160a01b03191691909117905560405161031890816101448239f35b62461bcd60e51b815260206004820152603360248201527f5570677261646561626c65426561636f6e3a20696d706c656d656e746174696f60448201527f6e206973206e6f74206120636f6e7472616374000000000000000000000000006064820152608490fd5b5f80fd5b634e487b7160e01b5f52604160045260245ffdfe60806040526004361015610011575f80fd5b5f3560e01c80633659cfe61461019e5780635c60da1b14610176578063715018a6146101325780638da5cb5b1461010b5763f2fde38b14610050575f80fd5b34610107576020366003190112610107576004356001600160a01b038116908190036101075761007e61026b565b80156100b3575f80546001600160a01b03198116831782556001600160a01b0316905f5160206102c35f395f51905f529080a3005b60405162461bcd60e51b815260206004820152602660248201527f4f776e61626c653a206e6577206f776e657220697320746865207a65726f206160448201526564647265737360d01b6064820152608490fd5b5f80fd5b34610107575f366003190112610107575f546040516001600160a01b039091168152602090f35b34610107575f3660031901126101075761014a61026b565b5f80546001600160a01b0319811682556001600160a01b03165f5160206102c35f395f51905f528280a3005b34610107575f366003190112610107576001546040516001600160a01b039091168152602090f35b34610107576020366003190112610107576004356001600160a01b03811690818103610107576101cc61026b565b3b1561020a57600180546001600160a01b031916821790557fbc7cd75a20ee27fd9adebab32041f755214dbc6bffa90cc0225b39da2e5c2d3b5f80a2005b60405162461bcd60e51b815260206004820152603360248201527f5570677261646561626c65426561636f6e3a20696d706c656d656e746174696f6044820152721b881a5cc81b9bdd08184818dbdb9d1c9858dd606a1b6064820152608490fd5b5f546001600160a01b0316330361027e57565b606460405162461bcd60e51b815260206004820152602060248201527f4f776e61626c653a2063616c6c6572206973206e6f7420746865206f776e65726044820152fdfe8be0079c531659141344cd1fd0a4f28419497f9722a3daafe3b4186f6b6457e0a26469706673582212209179b88fc660321017edaa7c2d349089020c7d1ff00e14b0b89bca48ef26decd64736f6c634300081c0033ad7caca61f64c5976fc697122c9ff26acc30fc936092716798ff3b43cc54f8008be0079c531659141344cd1fd0a4f28419497f9722a3daafe3b4186f6b6457e0a065c3b00cde146f5df407afa0661cfa2c0ed2efd62ac00b3241aaae02ff5d2ea5fea31b6dbd7aec6098ca4653b1d51af1ef786fcb19031c4c4e55b675535f1ea26469706673582212202a7a9b4f5520bb70f9d15836c3a42fe3a28ab2fd5997775b06ebeb23eec46ddc64736f6c634300081c0033","linkReferences":{}},"methodIdentifiers":{"addRebalancer(address)":"0c979919","addStrategy(string,address)":"cdd5d9dd","beefyFeeConfig()":"4746fb55","beefyFeeRecipient()":"8e145459","createStrategy(string)":"116fd501","getImplementation(string)":"6b683896","getStrategyTypes()":"ed8ea600","globalPause()":"f12d54d8","instances(string)":"41a1914e","keeper()":"aced1661","native()":"11b0b42d","owner()":"8da5cb5b","pauseAllStrats()":"c93d7715","rebalancers(address)":"a44d57a0","removeRebalancer(address)":"43bc4b9a","renounceOwnership()":"715018a6","setBeefyFeeConfig(address)":"106fdbd0","setBeefyFeeRecipient(address)":"a68833e5","setKeeper(address)":"748747e6","strategyTypes(uint256)":"517137ee","transferOwnership(address)":"f2fde38b","unpauseAllStrats()":"940a9fa1"},"id":118}