{"abi":[{"type":"constructor","inputs":[{"name":"_native","type":"address","internalType":"address"},{"name":"_keeper","type":"address","internalType":"address"},{"name":"_beefyFeeRecipient","type":"address","internalType":"address"},{"name":"_beefyFeeConfig","type":"address","internalType":"address"}],"stateMutability":"nonpayable"},{"type":"function","name":"addRebalancer","inputs":[{"name":"_rebalancer","type":"address","internalType":"address"}],"outputs":[],"stateMutability":"nonpayable"},{"type":"function","name":"addStrategy","inputs":[{"name":"_strategyName","type":"string","internalType":"string"},{"name":"_implementation","type":"address","internalType":"address"}],"outputs":[],"stateMutability":"nonpayable"},{"type":"function","name":"beefyFeeConfig","inputs":[],"outputs":[{"name":"","type":"address","internalType":"address"}],"stateMutability":"view"},{"type":"function","name":"beefyFeeRecipient","inputs":[],"outputs":[{"name":"","type":"address","internalType":"address"}],"stateMutability":"view"},{"type":"function","name":"createStrategy","inputs":[{"name":"_strategyName","type":"string","internalType":"string"}],"outputs":[{"name":"","type":"address","internalType":"address"}],"stateMutability":"nonpayable"},{"type":"function","name":"getImplementation","inputs":[{"name":"_strategyName","type":"string","internalType":"string"}],"outputs":[{"name":"","type":"address","internalType":"address"}],"stateMutability":"view"},{"type":"function","name":"getStrategyTypes","inputs":[],"outputs":[{"name":"","type":"string[]","internalType":"string[]"}],"stateMutability":"view"},{"type":"function","name":"globalPause","inputs":[],"outputs":[{"name":"","type":"bool","internalType":"bool"}],"stateMutability":"view"},{"type":"function","name":"keeper","inputs":[],"outputs":[{"name":"","type":"address","internalType":"address"}],"stateMutability":"view"},{"type":"function","name":"latestImplementation","inputs":[{"name":"","type":"string","internalType":"string"}],"outputs":[{"name":"","type":"address","internalType":"address"}],"stateMutability":"view"},{"type":"function","name":"native","inputs":[],"outputs":[{"name":"","type":"address","internalType":"address"}],"stateMutability":"view"},{"type":"function","name":"owner","inputs":[],"outputs":[{"name":"","type":"address","internalType":"address"}],"stateMutability":"view"},{"type":"function","name":"pauseAllStrats","inputs":[],"outputs":[],"stateMutability":"nonpayable"},{"type":"function","name":"rebalancers","inputs":[{"name":"","type":"address","internalType":"address"}],"outputs":[{"name":"","type":"bool","internalType":"bool"}],"stateMutability":"view"},{"type":"function","name":"removeRebalancer","inputs":[{"name":"_rebalancer","type":"address","internalType":"address"}],"outputs":[],"stateMutability":"nonpayable"},{"type":"function","name":"renounceOwnership","inputs":[],"outputs":[],"stateMutability":"nonpayable"},{"type":"function","name":"setBeefyFeeConfig","inputs":[{"name":"_beefyFeeConfig","type":"address","internalType":"address"}],"outputs":[],"stateMutability":"nonpayable"},{"type":"function","name":"setBeefyFeeRecipient","inputs":[{"name":"_beefyFeeRecipient","type":"address","internalType":"address"}],"outputs":[],"stateMutability":"nonpayable"},{"type":"function","name":"setKeeper","inputs":[{"name":"_keeper","type":"address","internalType":"address"}],"outputs":[],"stateMutability":"nonpayable"},{"type":"function","name":"strategyTypes","inputs":[{"name":"","type":"uint256","internalType":"uint256"}],"outputs":[{"name":"","type":"string","internalType":"string"}],"stateMutability":"view"},{"type":"function","name":"transferOwnership","inputs":[{"name":"newOwner","type":"address","internalType":"address"}],"outputs":[],"stateMutability":"nonpayable"},{"type":"function","name":"unpauseAllStrats","inputs":[],"outputs":[],"stateMutability":"nonpayable"},{"type":"event","name":"GlobalPause","inputs":[{"name":"paused","type":"bool","indexed":false,"internalType":"bool"}],"anonymous":false},{"type":"event","name":"NewStrategyAdded","inputs":[{"name":"strategyName","type":"string","indexed":false,"internalType":"string"},{"name":"implementation","type":"address","indexed":false,"internalType":"address"}],"anonymous":false},{"type":"event","name":"OwnershipTransferred","inputs":[{"name":"previousOwner","type":"address","indexed":true,"internalType":"address"},{"name":"newOwner","type":"address","indexed":true,"internalType":"address"}],"anonymous":false},{"type":"event","name":"ProxyCreated","inputs":[{"name":"strategyName","type":"string","indexed":false,"internalType":"string"},{"name":"proxy","type":"address","indexed":false,"internalType":"address"}],"anonymous":false},{"type":"event","name":"RebalancerChanged","inputs":[{"name":"rebalancer","type":"address","indexed":false,"internalType":"address"},{"name":"isRebalancer","type":"bool","indexed":false,"internalType":"bool"}],"anonymous":false},{"type":"event","name":"SetBeefyFeeConfig","inputs":[{"name":"beefyFeeConfig","type":"address","indexed":false,"internalType":"address"}],"anonymous":false},{"type":"event","name":"SetBeefyFeeRecipient","inputs":[{"name":"beefyFeeRecipient","type":"address","indexed":false,"internalType":"address"}],"anonymous":false},{"type":"event","name":"SetKeeper","inputs":[{"name":"keeper","type":"address","indexed":false,"internalType":"address"}],"anonymous":false},{"type":"error","name":"NotManager","inputs":[]},{"type":"error","name":"StratVersionExists","inputs":[]}],"bytecode":{"object":"0x6080346100de57601f61149938819003918201601f19168301916001600160401b038311848410176100e2578084926080946040528339810103126100de57610047816100f6565b90610054602082016100f6565b61006c6060610065604085016100f6565b93016100f6565b926100763361010a565b61007f3361010a565b600480546001600160a01b03199081166001600160a01b03938416179091556005805482169383169390931790925560068054831693821693909317909255600780549091169290911691909117905560405161134890816101518239f35b5f80fd5b634e487b7160e01b5f52604160045260245ffd5b51906001600160a01b03821682036100de57565b5f80546001600160a01b039283166001600160a01b03198216811783559216907f8be0079c531659141344cd1fd0a4f28419497f9722a3daafe3b4186f6b6457e09080a356fe60806040526004361015610011575f80fd5b5f3560e01c80630c97991914610c14578063106fdbd014610ba8578063116fd50114610a6857806311b0b42d14610a405780631f1097e5146109ce57806343bc4b9a1461094e5780634746fb5514610926578063517137ee146108d75780636b6838961461087a578063715018a614610836578063748747e6146107ca5780638da5cb5b146107a35780638e1454591461077b578063940a9fa11461073d578063a44d57a014610700578063a68833e514610694578063aced16611461066c578063c93d771514610600578063cdd5d9dd146102ec578063ed8ea600146101e7578063f12d54d8146101c25763f2fde38b1461010b575f80fd5b346101be5760203660031901126101be57610124610c72565b61012c610e7d565b6001600160a01b0316801561016a575f80546001600160a01b03198116831782556001600160a01b0316905f5160206112b35f395f51905f529080a3005b60405162461bcd60e51b815260206004820152602660248201527f4f776e61626c653a206e6577206f776e657220697320746865207a65726f206160448201526564647265737360d01b6064820152608490fd5b5f80fd5b346101be575f3660031901126101be57602060ff60075460a01c166040519015158152f35b346101be575f3660031901126101be576003546001600160401b0381116102d8576040519061021c60208260051b0183610cb5565b80825260035f9081526020830191907fc2575a0e9e593c00f959f8c92f12db2869c3395a3b0502d05e2516446f71f85b835b8383106102bb57848660405191829160208301906020845251809152604083019060408160051b85010192915f905b82821061028c57505050500390f35b919360019193955060206102ab8192603f198a82030186528851610e21565b960192019201859493919261027d565b6001602081926102ca85610d81565b81520192019201919061024e565b634e487b7160e01b5f52604160045260245ffd5b346101be5760403660031901126101be576004356001600160401b0381116101be5761031c903690600401610c88565b602435916001600160a01b0383168084036101be575f546001600160a01b0316331415806105eb575b6105dc57604051838382376001848201908152819003602001902080546001600160a01b03191690911790556003545f805b828110610509575b50156103aa575b506103a55f5160206112d35f395f51905f529360405193849384610e45565b0390a1005b600160401b8110156102d8578060016103c69201600355610d1d565b9390936104f6576001600160401b0383116102d8576103e58454610d49565b601f81116104b1575b505f93601f841160011461043d57906103a591845f5160206112d35f395f51905f52965f91610432575b508560011b905f198760031b1c19161790555b9350610386565b905084013587610418565b601f198416815f5260205f20905f5b8181106104995750905f5160206112d35f395f51905f5296866103a595949310610480575b5050600185811b01905561042b565b8501355f19600388901b60f8161c191690558680610471565b8588013583556020978801976001909301920161044c565b845f5260205f20601f850160051c810191602086106104ec575b601f0160051c01905b8181106104e157506103ee565b5f81556001016104d4565b90915081906104cb565b634e487b7160e01b5f525f60045260245ffd5b61051281610d1d565b50604051815491815f61052485610d49565b9283835260208301956001811690815f146105bd575060011461057b575b5061054f92500382610cb5565b51902061055d368787610cd8565b602081519101201461057157600101610377565b505060018561037f565b9150505f528160205f20915f925b8184106105a1575050602061054f928201018b610542565b6020919250806001915483868801015201920191908391610589565b60ff191687525061054f93151560051b830160200191508c9050610542565b63607e454560e11b5f5260045ffd5b506005546001600160a01b0316331415610345565b346101be575f3660031901126101be575f546001600160a01b031633141580610657575b6105dc576007805460ff60a01b1916600160a01b179055604051600181525f5160206112f35f395f51905f5290602090a1005b506005546001600160a01b0316331415610624565b346101be575f3660031901126101be576005546040516001600160a01b039091168152602090f35b346101be5760203660031901126101be577f8041329bf7057543a2c2ff4e4071d1d488a31f82ed44e169b5cd2f04f5e3ac8560206106d0610c72565b6106d8610e7d565b600680546001600160a01b0319166001600160a01b03929092169182179055604051908152a1005b346101be5760203660031901126101be576001600160a01b03610721610c72565b165f526002602052602060ff60405f2054166040519015158152f35b346101be575f3660031901126101be57610755610e7d565b60ff60a01b19600754166007555f5160206112f35f395f51905f5260206040515f8152a1005b346101be575f3660031901126101be576006546040516001600160a01b039091168152602090f35b346101be575f3660031901126101be575f546040516001600160a01b039091168152602090f35b346101be5760203660031901126101be577fefb5cfa1a8690c124332ab93324539c5c9c4be03f28aeb8be86f2d8a0c9fb99b6020610806610c72565b61080e610e7d565b600580546001600160a01b0319166001600160a01b03929092169182179055604051908152a1005b346101be575f3660031901126101be5761084e610e7d565b5f80546001600160a01b0319811682556001600160a01b03165f5160206112b35f395f51905f528280a3005b346101be5760203660031901126101be576004356001600160401b0381116101be5760206108ad81923690600401610c88565b9190826040519384928337600190820190815203019020546040516001600160a01b039091168152f35b346101be5760203660031901126101be576004356003548110156101be576108fe90610d1d565b6104f65761090e61092291610d81565b604051918291602083526020830190610e21565b0390f35b346101be575f3660031901126101be576007546040516001600160a01b039091168152602090f35b346101be5760203660031901126101be57610967610c72565b5f546001600160a01b0316331415806109b9575b6105dc5760405f5160206112935f395f51905f529160018060a01b0316805f526002602052815f2060ff19815416905581519081525f6020820152a1005b506005546001600160a01b031633141561097b565b346101be5760203660031901126101be576004356001600160401b0381116101be57366023820112156101be57610a116020913690602481600401359101610cd8565b8160405191805191829101835e600190820190815281900382019020546040516001600160a01b039091168152f35b346101be575f3660031901126101be576004546040516001600160a01b039091168152602090f35b346101be5760203660031901126101be576004356001600160401b0381116101be57610a98903690600401610c88565b906040518282823760018184019081528190036020019020546001600160a01b03168015610b6e57604051610ace602082610cb5565b5f8152604051916103be80840192906001600160401b038411858510176102d8578493610b0c93604092610ed5873981528160208201520190610e21565b03905ff08015610b63576040516020936001600160a01b03909216927f3699b7de9b98bb64c45028ff3593b0d6159da8016d0f85b6af11d765320c87bb928291610b5891869184610e45565b0390a1604051908152f35b6040513d5f823e3d90fd5b60405162461bcd60e51b815260206004820152601260248201527114dd1c985d1959de481b9bdd08199bdd5b9960721b6044820152606490fd5b346101be5760203660031901126101be577f91e28ce4210d103c13c5174847e463b836900f8dc63e9d9b42a4255169d195296020610be4610c72565b610bec610e7d565b600780546001600160a01b0319166001600160a01b03929092169182179055604051908152a1005b346101be5760203660031901126101be575f5160206112935f395f51905f526040610c3d610c72565b610c45610e7d565b60018060a01b0316805f526002602052815f20600160ff19825416179055815190815260016020820152a1005b600435906001600160a01b03821682036101be57565b9181601f840112156101be578235916001600160401b0383116101be57602083818601950101116101be57565b601f909101601f19168101906001600160401b038211908210176102d857604052565b9192916001600160401b0382116102d85760405191610d01601f8201601f191660200184610cb5565b8294818452818301116101be578281602093845f960137010152565b600354811015610d355760035f5260205f2001905f90565b634e487b7160e01b5f52603260045260245ffd5b90600182811c92168015610d77575b6020831014610d6357565b634e487b7160e01b5f52602260045260245ffd5b91607f1691610d58565b9060405191825f825492610d9484610d49565b8084529360018116908115610dff5750600114610dbb575b50610db992500383610cb5565b565b90505f9291925260205f20905f915b818310610de3575050906020610db9928201015f610dac565b6020919350806001915483858901015201910190918492610dca565b905060209250610db994915060ff191682840152151560051b8201015f610dac565b805180835260209291819084018484015e5f828201840152601f01601f1916010190565b918060609160209396959660408652816040870152838601375f828286010152601f80199101168301019360018060a01b0316910152565b5f546001600160a01b03163303610e9057565b606460405162461bcd60e51b815260206004820152602060248201527f4f776e61626c653a2063616c6c6572206973206e6f7420746865206f776e65726044820152fdfe60806040526103be80380380610014816101f2565b9283398101906040818303126101ee5780516001600160a01b038116918282036101ee576020810151906001600160401b0382116101ee57019183601f840112156101ee57825161006c6100678261022b565b6101f2565b938185526020850195602083830101116101ee57815f926020809301885e85010152813b15610193577f360894a13ba1a3210667c828492db98dca3e2076cc3735a920a3ca505d382bbc80546001600160a01b031916821790557fbc7cd75a20ee27fd9adebab32041f755214dbc6bffa90cc0225b39da2e5c2d3b5f80a281511580159061018c575b610108575b60405160c390816102fb8239f35b5f8061017b9461011860606101f2565b94602786527f416464726573733a206c6f772d6c6576656c2064656c65676174652063616c6c6020870152660819985a5b195960ca1b60408701525190845af43d15610184573d9161016c6100678461022b565b9283523d5f602085013e610246565b505f80806100fa565b606091610246565b505f6100f5565b60405162461bcd60e51b815260206004820152602d60248201527f455243313936373a206e657720696d706c656d656e746174696f6e206973206e60448201526c1bdd08184818dbdb9d1c9858dd609a1b6064820152608490fd5b5f80fd5b6040519190601f01601f191682016001600160401b0381118382101761021757604052565b634e487b7160e01b5f52604160045260245ffd5b6001600160401b03811161021757601f01601f191660200190565b919290156102a8575081511561025a575090565b3b156102635790565b60405162461bcd60e51b815260206004820152601d60248201527f416464726573733a2063616c6c20746f206e6f6e2d636f6e74726163740000006044820152606490fd5b8251909150156102bb5750805190602001fd5b604460209160405192839162461bcd60e51b83528160048401528051918291826024860152018484015e5f828201840152601f01601f19168101030190fdfe60806040523615603d575f516020606e5f395f51905f52545f9081906001600160a01b0316368280378136915af43d5f803e156039573d5ff35b3d5ffd5b5f516020606e5f395f51905f52545f9081906001600160a01b0316368280378136915af43d5f803e156039573d5ff3fe360894a13ba1a3210667c828492db98dca3e2076cc3735a920a3ca505d382bbca2646970667358221220d6f56c175e9054c55bc2dfab07a5ab2cd7e125a57f612e3d470bd8651a9b7ae464736f6c634300081c0033ad7caca61f64c5976fc697122c9ff26acc30fc936092716798ff3b43cc54f8008be0079c531659141344cd1fd0a4f28419497f9722a3daafe3b4186f6b6457e0a065c3b00cde146f5df407afa0661cfa2c0ed2efd62ac00b3241aaae02ff5d2ea5fea31b6dbd7aec6098ca4653b1d51af1ef786fcb19031c4c4e55b675535f1ea264697066735822122031e17722bb1137d84bad0626ddde70201f3b089b842d40b25546816df6d0136564736f6c634300081c0033","linkReferences":{}},"methodIdentifiers":{"addRebalancer(address)":"0c979919","addStrategy(string,address)":"cdd5d9dd","beefyFeeConfig()":"4746fb55","beefyFeeRecipient()":"8e145459","createStrategy(string)":"116fd501","getImplementation(string)":"6b683896","getStrategyTypes()":"ed8ea600","globalPause()":"f12d54d8","keeper()":"aced1661","latestImplementation(string)":"1f1097e5","native()":"11b0b42d","owner()":"8da5cb5b","pauseAllStrats()":"c93d7715","rebalancers(address)":"a44d57a0","removeRebalancer(address)":"43bc4b9a","renounceOwnership()":"715018a6","setBeefyFeeConfig(address)":"106fdbd0","setBeefyFeeRecipient(address)":"a68833e5","setKeeper(address)":"748747e6","strategyTypes(uint256)":"517137ee","transferOwnership(address)":"f2fde38b","unpauseAllStrats()":"940a9fa1"},"id":133}