{"abi":[{"type":"function","name":"balances","inputs":[],"outputs":[{"name":"token0Bal","type":"uint256","internalType":"uint256"},{"name":"token1Bal","type":"uint256","internalType":"uint256"}],"stateMutability":"view"},{"type":"function","name":"balancesOfPool","inputs":[],"outputs":[{"name":"token0Bal","type":"uint256","internalType":"uint256"},{"name":"token1Bal","type":"uint256","internalType":"uint256"},{"name":"mainAmount0","type":"uint256","internalType":"uint256"},{"name":"mainAmount1","type":"uint256","internalType":"uint256"},{"name":"altAmount0","type":"uint256","internalType":"uint256"},{"name":"altAmount1","type":"uint256","internalType":"uint256"}],"stateMutability":"view"},{"type":"function","name":"balancesOfThis","inputs":[],"outputs":[{"name":"token0Bal","type":"uint256","internalType":"uint256"},{"name":"token1Bal","type":"uint256","internalType":"uint256"}],"stateMutability":"view"},{"type":"function","name":"beefyFeeConfig","inputs":[],"outputs":[{"name":"","type":"address","internalType":"contract IFeeConfig"}],"stateMutability":"view"},{"type":"function","name":"beefyFeeRecipient","inputs":[],"outputs":[{"name":"","type":"address","internalType":"address"}],"stateMutability":"view"},{"type":"function","name":"beforeAction","inputs":[],"outputs":[],"stateMutability":"nonpayable"},{"type":"function","name":"claimEarnings","inputs":[],"outputs":[{"name":"fee0","type":"uint256","internalType":"uint256"},{"name":"fee1","type":"uint256","internalType":"uint256"},{"name":"feeAlt0","type":"uint256","internalType":"uint256"},{"name":"feeAlt1","type":"uint256","internalType":"uint256"}],"stateMutability":"nonpayable"},{"type":"function","name":"currentTick","inputs":[],"outputs":[{"name":"tick","type":"int24","internalType":"int24"}],"stateMutability":"view"},{"type":"function","name":"deposit","inputs":[],"outputs":[],"stateMutability":"nonpayable"},{"type":"function","name":"depositFee","inputs":[],"outputs":[{"name":"","type":"uint256","internalType":"uint256"}],"stateMutability":"view"},{"type":"function","name":"factory","inputs":[],"outputs":[{"name":"","type":"address","internalType":"contract IStrategyFactory"}],"stateMutability":"view"},{"type":"function","name":"fees0","inputs":[],"outputs":[{"name":"","type":"uint256","internalType":"uint256"}],"stateMutability":"view"},{"type":"function","name":"fees1","inputs":[],"outputs":[{"name":"","type":"uint256","internalType":"uint256"}],"stateMutability":"view"},{"type":"function","name":"getAllFees","inputs":[],"outputs":[{"name":"","type":"tuple","internalType":"struct IFeeConfig.AllFees","components":[{"name":"performance","type":"tuple","internalType":"struct IFeeConfig.FeeCategory","components":[{"name":"total","type":"uint256","internalType":"uint256"},{"name":"beefy","type":"uint256","internalType":"uint256"},{"name":"call","type":"uint256","internalType":"uint256"},{"name":"strategist","type":"uint256","internalType":"uint256"},{"name":"label","type":"string","internalType":"string"},{"name":"active","type":"bool","internalType":"bool"}]},{"name":"deposit","type":"uint256","internalType":"uint256"},{"name":"withdraw","type":"uint256","internalType":"uint256"}]}],"stateMutability":"view"},{"type":"function","name":"getKeys","inputs":[],"outputs":[{"name":"keyMain","type":"bytes32","internalType":"bytes32"},{"name":"keyAlt","type":"bytes32","internalType":"bytes32"}],"stateMutability":"view"},{"type":"function","name":"getStratFeeId","inputs":[],"outputs":[{"name":"","type":"uint256","internalType":"uint256"}],"stateMutability":"view"},{"type":"function","name":"harvest","inputs":[{"name":"_callFeeRecipient","type":"address","internalType":"address"}],"outputs":[],"stateMutability":"nonpayable"},{"type":"function","name":"harvest","inputs":[],"outputs":[],"stateMutability":"nonpayable"},{"type":"function","name":"initialize","inputs":[{"name":"_pool","type":"address","internalType":"address"},{"name":"_quoter","type":"address","internalType":"address"},{"name":"_positionWidth","type":"int24","internalType":"int24"},{"name":"_lpToken0ToNativePath","type":"bytes","internalType":"bytes"},{"name":"_lpToken1ToNativePath","type":"bytes","internalType":"bytes"},{"name":"_commonAddresses","type":"tuple","internalType":"struct StratFeeManagerInitializable.CommonAddresses","components":[{"name":"vault","type":"address","internalType":"address"},{"name":"unirouter","type":"address","internalType":"address"},{"name":"strategist","type":"address","internalType":"address"},{"name":"factory","type":"address","internalType":"address"}]}],"outputs":[],"stateMutability":"nonpayable"},{"type":"function","name":"isCalm","inputs":[],"outputs":[{"name":"","type":"bool","internalType":"bool"}],"stateMutability":"view"},{"type":"function","name":"keeper","inputs":[],"outputs":[{"name":"","type":"address","internalType":"address"}],"stateMutability":"view"},{"type":"function","name":"lastHarvest","inputs":[],"outputs":[{"name":"","type":"uint256","internalType":"uint256"}],"stateMutability":"view"},{"type":"function","name":"lastPositionAdjustment","inputs":[],"outputs":[{"name":"","type":"uint256","internalType":"uint256"}],"stateMutability":"view"},{"type":"function","name":"lockedProfit","inputs":[],"outputs":[{"name":"locked0","type":"uint256","internalType":"uint256"},{"name":"locked1","type":"uint256","internalType":"uint256"}],"stateMutability":"view"},{"type":"function","name":"lpToken0","inputs":[],"outputs":[{"name":"","type":"address","internalType":"address"}],"stateMutability":"view"},{"type":"function","name":"lpToken0ToNative","inputs":[],"outputs":[{"name":"","type":"address[]","internalType":"address[]"}],"stateMutability":"view"},{"type":"function","name":"lpToken0ToNativePath","inputs":[],"outputs":[{"name":"","type":"bytes","internalType":"bytes"}],"stateMutability":"view"},{"type":"function","name":"lpToken0ToNativePrice","inputs":[],"outputs":[{"name":"","type":"uint256","internalType":"uint256"}],"stateMutability":"nonpayable"},{"type":"function","name":"lpToken1","inputs":[],"outputs":[{"name":"","type":"address","internalType":"address"}],"stateMutability":"view"},{"type":"function","name":"lpToken1ToNative","inputs":[],"outputs":[{"name":"","type":"address[]","internalType":"address[]"}],"stateMutability":"view"},{"type":"function","name":"lpToken1ToNativePath","inputs":[],"outputs":[{"name":"","type":"bytes","internalType":"bytes"}],"stateMutability":"view"},{"type":"function","name":"lpToken1ToNativePrice","inputs":[],"outputs":[{"name":"","type":"uint256","internalType":"uint256"}],"stateMutability":"nonpayable"},{"type":"function","name":"maxTickDeviation","inputs":[],"outputs":[{"name":"","type":"int56","internalType":"int56"}],"stateMutability":"view"},{"type":"function","name":"moveTicks","inputs":[],"outputs":[],"stateMutability":"nonpayable"},{"type":"function","name":"native","inputs":[],"outputs":[{"name":"","type":"address","internalType":"address"}],"stateMutability":"view"},{"type":"function","name":"owner","inputs":[],"outputs":[{"name":"","type":"address","internalType":"address"}],"stateMutability":"view"},{"type":"function","name":"panic","inputs":[{"name":"_minAmount0","type":"uint256","internalType":"uint256"},{"name":"_minAmount1","type":"uint256","internalType":"uint256"}],"outputs":[],"stateMutability":"nonpayable"},{"type":"function","name":"paused","inputs":[],"outputs":[{"name":"","type":"bool","internalType":"bool"}],"stateMutability":"view"},{"type":"function","name":"pool","inputs":[],"outputs":[{"name":"","type":"address","internalType":"address"}],"stateMutability":"view"},{"type":"function","name":"positionAlt","inputs":[],"outputs":[{"name":"tickLower","type":"int24","internalType":"int24"},{"name":"tickUpper","type":"int24","internalType":"int24"}],"stateMutability":"view"},{"type":"function","name":"positionMain","inputs":[],"outputs":[{"name":"tickLower","type":"int24","internalType":"int24"},{"name":"tickUpper","type":"int24","internalType":"int24"}],"stateMutability":"view"},{"type":"function","name":"positionWidth","inputs":[],"outputs":[{"name":"","type":"int24","internalType":"int24"}],"stateMutability":"view"},{"type":"function","name":"price","inputs":[],"outputs":[{"name":"_price","type":"uint256","internalType":"uint256"}],"stateMutability":"view"},{"type":"function","name":"quoter","inputs":[],"outputs":[{"name":"","type":"address","internalType":"address"}],"stateMutability":"view"},{"type":"function","name":"range","inputs":[],"outputs":[{"name":"lowerPrice","type":"uint256","internalType":"uint256"},{"name":"upperPrice","type":"uint256","internalType":"uint256"}],"stateMutability":"view"},{"type":"function","name":"renounceOwnership","inputs":[],"outputs":[],"stateMutability":"nonpayable"},{"type":"function","name":"retireVault","inputs":[],"outputs":[],"stateMutability":"nonpayable"},{"type":"function","name":"setDeviation","inputs":[{"name":"_maxDeviation","type":"int56","internalType":"int56"}],"outputs":[],"stateMutability":"nonpayable"},{"type":"function","name":"setLpToken0ToNativePath","inputs":[{"name":"_path","type":"bytes","internalType":"bytes"}],"outputs":[],"stateMutability":"nonpayable"},{"type":"function","name":"setLpToken1ToNativePath","inputs":[{"name":"_path","type":"bytes","internalType":"bytes"}],"outputs":[],"stateMutability":"nonpayable"},{"type":"function","name":"setPositionWidth","inputs":[{"name":"_width","type":"int24","internalType":"int24"}],"outputs":[],"stateMutability":"nonpayable"},{"type":"function","name":"setStratFeeId","inputs":[{"name":"_feeId","type":"uint256","internalType":"uint256"}],"outputs":[],"stateMutability":"nonpayable"},{"type":"function","name":"setStrategist","inputs":[{"name":"_strategist","type":"address","internalType":"address"}],"outputs":[],"stateMutability":"nonpayable"},{"type":"function","name":"setTwapInterval","inputs":[{"name":"_interval","type":"uint32","internalType":"uint32"}],"outputs":[],"stateMutability":"nonpayable"},{"type":"function","name":"setUnirouter","inputs":[{"name":"_unirouter","type":"address","internalType":"address"}],"outputs":[],"stateMutability":"nonpayable"},{"type":"function","name":"sqrtPrice","inputs":[],"outputs":[{"name":"sqrtPriceX96","type":"uint160","internalType":"uint160"}],"stateMutability":"view"},{"type":"function","name":"strategist","inputs":[],"outputs":[{"name":"","type":"address","internalType":"address"}],"stateMutability":"view"},{"type":"function","name":"swapFee","inputs":[],"outputs":[{"name":"fee","type":"uint256","internalType":"uint256"}],"stateMutability":"view"},{"type":"function","name":"totalLocked0","inputs":[],"outputs":[{"name":"","type":"uint256","internalType":"uint256"}],"stateMutability":"view"},{"type":"function","name":"totalLocked1","inputs":[],"outputs":[{"name":"","type":"uint256","internalType":"uint256"}],"stateMutability":"view"},{"type":"function","name":"transferOwnership","inputs":[{"name":"newOwner","type":"address","internalType":"address"}],"outputs":[],"stateMutability":"nonpayable"},{"type":"function","name":"twap","inputs":[],"outputs":[{"name":"twapTick","type":"int56","internalType":"int56"}],"stateMutability":"view"},{"type":"function","name":"twapInterval","inputs":[],"outputs":[{"name":"","type":"uint32","internalType":"uint32"}],"stateMutability":"view"},{"type":"function","name":"unirouter","inputs":[],"outputs":[{"name":"","type":"address","internalType":"address"}],"stateMutability":"view"},{"type":"function","name":"uniswapV3MintCallback","inputs":[{"name":"amount0","type":"uint256","internalType":"uint256"},{"name":"amount1","type":"uint256","internalType":"uint256"},{"name":"","type":"bytes","internalType":"bytes"}],"outputs":[],"stateMutability":"nonpayable"},{"type":"function","name":"unpause","inputs":[],"outputs":[],"stateMutability":"nonpayable"},{"type":"function","name":"vault","inputs":[],"outputs":[{"name":"","type":"address","internalType":"address"}],"stateMutability":"view"},{"type":"function","name":"withdraw","inputs":[{"name":"_amount0","type":"uint256","internalType":"uint256"},{"name":"_amount1","type":"uint256","internalType":"uint256"}],"outputs":[],"stateMutability":"nonpayable"},{"type":"function","name":"withdrawFee","inputs":[],"outputs":[{"name":"","type":"uint256","internalType":"uint256"}],"stateMutability":"view"},{"type":"event","name":"ChargedFees","inputs":[{"name":"callFeeAmount","type":"uint256","indexed":false,"internalType":"uint256"},{"name":"beefyFeeAmount","type":"uint256","indexed":false,"internalType":"uint256"},{"name":"strategistFeeAmount","type":"uint256","indexed":false,"internalType":"uint256"}],"anonymous":false},{"type":"event","name":"ClaimedFees","inputs":[{"name":"feeMain0","type":"uint256","indexed":false,"internalType":"uint256"},{"name":"feeMain1","type":"uint256","indexed":false,"internalType":"uint256"},{"name":"feeAlt0","type":"uint256","indexed":false,"internalType":"uint256"},{"name":"feeAlt1","type":"uint256","indexed":false,"internalType":"uint256"}],"anonymous":false},{"type":"event","name":"Harvest","inputs":[{"name":"fee0","type":"uint256","indexed":false,"internalType":"uint256"},{"name":"fee1","type":"uint256","indexed":false,"internalType":"uint256"}],"anonymous":false},{"type":"event","name":"Initialized","inputs":[{"name":"version","type":"uint8","indexed":false,"internalType":"uint8"}],"anonymous":false},{"type":"event","name":"OwnershipTransferred","inputs":[{"name":"previousOwner","type":"address","indexed":true,"internalType":"address"},{"name":"newOwner","type":"address","indexed":true,"internalType":"address"}],"anonymous":false},{"type":"event","name":"Paused","inputs":[{"name":"account","type":"address","indexed":false,"internalType":"address"}],"anonymous":false},{"type":"event","name":"SetDeviation","inputs":[{"name":"maxTickDeviation","type":"int56","indexed":false,"internalType":"int56"}],"anonymous":false},{"type":"event","name":"SetLpToken0ToNativePath","inputs":[{"name":"path","type":"bytes","indexed":false,"internalType":"bytes"}],"anonymous":false},{"type":"event","name":"SetLpToken1ToNativePath","inputs":[{"name":"path","type":"bytes","indexed":false,"internalType":"bytes"}],"anonymous":false},{"type":"event","name":"SetPositionWidth","inputs":[{"name":"oldWidth","type":"int24","indexed":false,"internalType":"int24"},{"name":"width","type":"int24","indexed":false,"internalType":"int24"}],"anonymous":false},{"type":"event","name":"SetQuoter","inputs":[{"name":"quoter","type":"address","indexed":false,"internalType":"address"}],"anonymous":false},{"type":"event","name":"SetStratFeeId","inputs":[{"name":"feeId","type":"uint256","indexed":false,"internalType":"uint256"}],"anonymous":false},{"type":"event","name":"SetStrategist","inputs":[{"name":"strategist","type":"address","indexed":false,"internalType":"address"}],"anonymous":false},{"type":"event","name":"SetTwapInterval","inputs":[{"name":"oldInterval","type":"uint32","indexed":false,"internalType":"uint32"},{"name":"interval","type":"uint32","indexed":false,"internalType":"uint32"}],"anonymous":false},{"type":"event","name":"SetUnirouter","inputs":[{"name":"unirouter","type":"address","indexed":false,"internalType":"address"}],"anonymous":false},{"type":"event","name":"TVL","inputs":[{"name":"bal0","type":"uint256","indexed":false,"internalType":"uint256"},{"name":"bal1","type":"uint256","indexed":false,"internalType":"uint256"}],"anonymous":false},{"type":"event","name":"Unpaused","inputs":[{"name":"account","type":"address","indexed":false,"internalType":"address"}],"anonymous":false},{"type":"error","name":"InvalidEntry","inputs":[]},{"type":"error","name":"InvalidInput","inputs":[]},{"type":"error","name":"InvalidOutput","inputs":[]},{"type":"error","name":"InvalidTicks","inputs":[]},{"type":"error","name":"NotAuthorized","inputs":[]},{"type":"error","name":"NotCalm","inputs":[]},{"type":"error","name":"NotManager","inputs":[]},{"type":"error","name":"NotPool","inputs":[]},{"type":"error","name":"NotStrategist","inputs":[]},{"type":"error","name":"NotVault","inputs":[]},{"type":"error","name":"OverLimit","inputs":[]},{"type":"error","name":"StrategyPaused","inputs":[]},{"type":"error","name":"TooMuchSlippage","inputs":[]}],"bytecode":{"object":"0x6080806040523460bb575f549060ff8260081c166069575060ff808216036030575b604051615e3290816100c08239f35b60ff90811916175f557f7f26b83ff96e1f2b6a682f133852f6798a09c465da95921460cefb3847402498602060405160ff8152a15f6021565b62461bcd60e51b815260206004820152602760248201527f496e697469616c697a61626c653a20636f6e747261637420697320696e697469604482015266616c697a696e6760c81b6064820152608490fd5b5f80fdfe60806040526004361015610011575f80fd5b5f3560e01c8062a4b5c91461045e57806304c404b314610459578063065e53601461045457806308898ea01461044f5780630e5c011e1461044a57806311b0b42d146104455780631208aa181461044057806312cf13811461043b57806316b9cd9c1461043657806316f0115b1461043157806317dd7a721461042c5780631d27050f146104275780631dcfeddd146104225780631fe4a6861461041d5780632150c51814610418578063236db04214610413578063257ae0de1461040e5780632b950b66146104095780632e773d3214610404578063362c28c6146103ff5780633c1d5df0146103fa5780633e55f932146103f55780633f4ba83a146103f0578063441a3e70146103eb57806344b81396146103e65780634641257d146103e15780634746fb55146103dc5780634c02a21c146103d757806354cf2aeb146103d25780635c975abb146103cd5780635ee167c0146103c857806360991346146103c357806367a5279314610328578063696c58e5146103be578063715018a6146103b95780637bb98a68146103b45780637f10e4b9146103af5780638097e249146103aa578063865238d4146103a5578063877562b6146103a05780638cfc02501461039b5780638da5cb5b146103965780638e1454591461039157806393f1c4421461038c578063953d329f1461038757806399cd2446146103825780639bdde46b1461037d5780639c6d490414610378578063a035b1fe14610373578063aced16611461036e578063b20feaaf14610369578063b3a60cb314610364578063b83d26831461035f578063bc415d8a1461035a578063c45a015514610355578063c6bbd5a714610350578063c6ebd4ae1461034b578063c7b9d53014610346578063c7d5413214610341578063d0e30db01461033c578063d348799714610337578063d92f3d7314610332578063d9ceab131461032d578063e941fa7814610328578063e97206a914610323578063f1a392da1461031e578063f2fde38b14610319578063fbfa77cf146103145763fcc25e131461030f575f80fd5b612659565b612631565b6125a0565b612583565b612538565b611a7d565b61250d565b612471565b61237c565b6121a9565b612114565b61208b565b612070565b612048565b612020565b611ff3565b611fd9565b611e72565b611dab565b611d91565b611d5e565b611d44565b611d20565b611cf3565b611cc3565b611ca6565b611c8c565b611c64565b611be5565b611bbd565b611ba0565b611b80565b611af2565b611ada565b611aba565b611a97565b61197f565b611957565b611935565b611884565b611867565b61183b565b61154e565b611536565b611461565b611380565b61129c565b611276565b6111e0565b6111ae565b61114f565b611127565b61108a565b611064565b61103c565b61100d565b610d84565b610d4a565b610d22565b610d00565b610ada565b610aaa565b610a7c565b61064a565b610541565b6104c1565b6104a4565b610474565b908152602081019190915260400190565b346104a0575f3660031901126104a05761048c6126b2565b9061049c60405192839283610463565b0390f35b5f80fd5b346104a0575f3660031901126104a0576020609d54604051908152f35b346104a0575f3660031901126104a05760206104db612800565b6040519060020b8152f35b9181601f840112156104a0578235916001600160401b0383116104a057602083818601950101116104a057565b60206003198201126104a057600435906001600160401b0382116104a05761053d916004016104e6565b9091565b346104a05761054f36610513565b610557613d57565b8061055e57005b61057161056c368385612346565b613daf565b61058a61057d82612924565b516001600160a01b031690565b61059d61059860d45461062d565b61062d565b6001600160a01b039091160361061e5761057d816105be6105c4935161296e565b90612946565b6105d261059860975461062d565b6001600160a01b039091160361060f57816105fb825f516020615d3d5f395f51905f52946129ed565b61060a60405192839283612b7d565b0390a1005b6398f7360960e01b5f5260045ffd5b63b4fa3fb360e01b5f5260045ffd5b6001600160a01b031690565b6001600160a01b038116036104a057565b346104a05760203660031901126104a05760043561066781610639565b61066f6148a1565b610677613ea5565b50505050610683614217565b60d55460d654915f905f92610696614dc2565b945f9180610987575b50806107e5575b505f516020615ddd5f395f51905f52916107846107496107139361074461071b6106eb60608c6106f96106eb5f516020615cdd5f395f51905f529f6040015188612ef0565b670de0b6b3a7640000900490565b998a809a61070e61059861059860975461062d565b6148da565b015184612ef0565b9586926107448461073361059861059860975461062d565b61073e609a5461062d565b906148da565b612991565b926107678461075f61059861059860975461062d565b61073e6137cf565b604051938493846040919493926060820195825260208201520152565b0390a161078f61458d565b6107985f60d555565b6107a15f60d655565b6107cd6107c86107bd6107c26107b56132de565b9290866132d1565b609c55565b846132d1565b609d55565b6107d642609e55565b61060a60405192839283610463565b93506107ff6107f86106eb875187612ef0565b8095612991565b935f61080c60d45461062d565b61081760975461062d565b6108208161062d565b6001600160a01b038316036108bd575b50506107495f516020615cdd5f395f51905f529761074461071b6106eb6060610713985f516020615ddd5f395f51905f529a986107849861087260d45461062d565b61088061059860975461062d565b6001600160a01b03909116036108ac575061089a916132d1565b945b9c505050505093505050916106a6565b90506108b7916132d1565b9461089c565b6108fa925092602091819596945f6108dc61059861059860995461062d565b9260405196879586948593630df791e560e41b8552600485016154fd565b03925af1908115610982575f516020615cdd5f395f51905f529761074461071b6106eb60605f516020615ddd5f395f51905f52996107139961078498610749985f91610953575b509850989a5098505050505097610830565b610975915060203d60201161097b575b61096d8183610ea0565b810190612698565b5f610941565b503d610963565b6126a7565b93509061099b6107f86106eb885187612ef0565b935f916109a960d35461062d565b6109b460975461062d565b6109bd8161062d565b6001600160a01b03831603610a12575b50506109da60d35461062d565b6109e861059860975461062d565b6001600160a01b0390911603610a0a57610a0292506132d1565b905b5f61069f565b505090610a04565b610a2f92945060209184915f6108dc61059861059860995461062d565b03925af1908115610982575f91610a4a575b50915f806109cd565b610a63915060203d60201161097b5761096d8183610ea0565b5f610a41565b6001600160a01b03909116815260200190565b346104a0575f3660031901126104a0576097546040516001600160a01b039091168152602090f35b60060b90565b346104a0575f3660031901126104a0576020610ac4612d69565b6040519060060b8152f35b8060020b036104a057565b346104a05760203660031901126104a057600435610af781610acf565b610aff613d57565b7f69d927977053f4ff4a26e8d792564e367e844a869cda4df12630bf7b62a632de8160db5460020b610b3660405192839283611cde565b0390a1610b41613ea5565b50505050610b4d614217565b62ffffff1960db54169062ffffff16178060db55610b696148a1565b610b71612800565b610b86610b7c6147fd565b809360020b61329e565b610bb6610b94848385615ad6565b91909160d9549060181b65ffffff000000169065ffffff00000019161760d955565b62ffffff1960d954169062ffffff161760d955610bd16126b2565b5f9180610ccd575b5080821015610c90575050918082610c01610bfb83610c0c97610c0697615ad6565b50612e6b565b615ad6565b5061551f565b60d954610c198160020b90565b60da5490610c30610c2a8360020b90565b60020b90565b9060020b149182610c64575b5050610c5557610c4b42609f55565b610c5361458d565b005b631434ed7f60e01b5f5260045ffd5b610c84919250610c7a610c2a9160181c60020b90565b9260181c60020b90565b9060020b145f80610c3c565b93919310610ca1575b505050610c0c565b610cc59282610c01610cb78480610cbe97615ad6565b9050612e6b565b905061551f565b5f8080610c99565b610cf9919250610ce590610cdf613a0e565b90612ef0565b6a0c097ce7bc90715b34b9f160241b900490565b905f610bd9565b346104a0575f3660031901126104a0576020610d1a613018565b604051908152f35b346104a0575f3660031901126104a05760d1546040516001600160a01b039091168152602090f35b346104a0575f3660031901126104a057610d626147da565b610d6a613ea5565b50505050610c53614217565b63ffffffff8116036104a057565b346104a05760203660031901126104a057600435610da181610d76565b610da9613d57565b603c63ffffffff60db5460501c166040519081527f86139943149914833c057d2c24f3a3967cce8e6aba2eb12e422500d8a51ffc7b604063ffffffff851692836020820152a11061061e5760db805463ffffffff60501b191660509290921b63ffffffff60501b16919091179055005b90600182811c92168015610e47575b6020831014610e3357565b634e487b7160e01b5f52602260045260245ffd5b91607f1691610e28565b634e487b7160e01b5f52604160045260245ffd5b606081019081106001600160401b03821117610e8057604052565b610e51565b60c081019081106001600160401b03821117610e8057604052565b601f909101601f19168101906001600160401b03821190821017610e8057604052565b604051905f8260d75491610ed683610e19565b8083529260018116908115610f485750600114610efc575b610efa92500383610ea0565b565b5060d75f90815290915f516020615d9d5f395f51905f525b818310610f2c575050906020610efa92820101610eee565b6020919350806001915483858901015201910190918492610f14565b60209250610efa94915060ff191682840152151560051b820101610eee565b604051905f8260d85491610f7a83610e19565b8083529260018116908115610f485750600114610f9d57610efa92500383610ea0565b5060d85f90815290915f516020615cfd5f395f51905f525b818310610fcd575050906020610efa92820101610eee565b6020919350806001915483858901015201910190918492610fb5565b805180835260209291819084018484015e5f828201840152601f01601f1916010190565b346104a0575f3660031901126104a05761049c611028610ec3565b604051918291602083526020830190610fe9565b346104a0575f3660031901126104a057609a546040516001600160a01b039091168152602090f35b346104a0575f3660031901126104a057604061107e61315a565b82519182526020820152f35b346104a05761109836610513565b6110a0613d57565b806110a757005b6110b561056c368385612346565b6110c161057d82612924565b6110cf61059860d35461062d565b6001600160a01b039091160361061e5761057d816105be6110f0935161296e565b6110fe61059860975461062d565b6001600160a01b039091160361060f57816105fb825f516020615d1d5f395f51905f5294612abb565b346104a0575f3660031901126104a0576099546040516001600160a01b039091168152602090f35b346104a0575f3660031901126104a0576020609c54604051908152f35b60206040818301928281528451809452019201905f5b81811061118f5750505090565b82516001600160a01b0316845260209384019390920191600101611182565b346104a0575f3660031901126104a05761049c6111c9613267565b6040519182918261116c565b8060060b036104a057565b346104a05760203660031901126104a0576004356111fd816111d5565b611205613d57565b6040517f69d3f73bfb3c2f0de63dc1de2ed486cf45d88ebfff8cb1e8f124b085d2bafb9760208360060b92838152a161124461123f6147fd565b61328a565b60020b131561061e5760db549060181b69ffffffffffffff000000169069ffffffffffffff00000019161760db555f80f35b346104a0575f3660031901126104a057602063ffffffff60db5460501c16604051908152f35b346104a0575f60203660031901126104a0576004356033546001600160a01b031633141580611366575b611357576001600160a01b036112da6133a9565b16803b156104a0575f8091602460405180948193631f2afc9960e11b83528760048401525af1801561098257611340575b506040519081527f9163810ee1e29168d4ce900e48a333fb8fbd3fd070d2bef67f6d4db0846a469f9080602081015b0390a180f35b61134d9192505f90610ea0565b5f9061133a61130b565b63607e454560e11b5f5260045ffd5b506001600160a01b03611377613a24565b163314156112c6565b346104a0575f3660031901126104a0576033546001600160a01b03163381141580611447575b6113575715611438576113b7614869565b60655460ff8116156113fc5760ff19166065557f5db9ee0a495bf2e6ff9c91a7834c1ba4fdd244a5e8aa4e537bd38aeae4b073aa6020604051338152a1610c4b61446f565b60405162461bcd60e51b815260206004820152601460248201527314185d5cd8589b194e881b9bdd081c185d5cd95960621b6044820152606490fd5b63ea8e4eb560e01b5f5260045ffd5b506001600160a01b03611458613a24565b163314156113a6565b346104a05760403660031901126104a0576024356004356114806147da565b60dc544214611529575b80611505575b50806114df575b506114a76114a3614914565b1590565b6114d2575b5f516020615d5d5f395f51905f526114c26134a1565b9061060a60405192839283610463565b6114da61458d565b6114ac565b6114ff906114f461059861059860d45461062d565b61073e60985461062d565b5f611497565b60d35461152391906114f490610598906001600160a01b031661062d565b5f611490565b6115316148a1565b61148a565b346104a0575f3660031901126104a05761048c6132de565b346104a0575f3660031901126104a0576115666148a1565b61156e613ea5565b5050505061157a614217565b60d55460d654905f5f9161158c614dc2565b935f9180611759575b50806115f6575b506060846107846107495f516020615ddd5f395f51905f529461074461071b6106eb6115dd6106eb60405f516020615cdd5f395f51905f529e015186612ef0565b978897610713893261070e61059861059860975461062d565b92506116106116096106eb865186612ef0565b8094612991565b925f61161d60d45461062d565b61162860975461062d565b6116318161062d565b6001600160a01b038316036116b9575b5050946107846107495f516020615ddd5f395f51905f52946060945f516020615cdd5f395f51905f529961167660d45461062d565b61168461059860975461062d565b6001600160a01b03909116036116a9575061169e916132d1565b94505050945061159c565b90506116b4916132d1565b61169e565b6116f497925060209184915f6116d661059861059860995461062d565b926040519b8c9586948593630df791e560e41b8552600485016154fd565b03925af18015610982576107495f516020615ddd5f395f51905f5294606094610784935f516020615cdd5f395f51905f529a5f9161173a575b5094995094509450611641565b611753915060203d60201161097b5761096d8183610ea0565b5f61172d565b92509061176d6116096106eb875186612ef0565b925f9161177b60d35461062d565b61178660975461062d565b61178f8161062d565b6001600160a01b038316036117e4575b50506117ac60d35461062d565b6117ba61059860975461062d565b6001600160a01b03909116036117dc576117d492506132d1565b905b5f611595565b5050906117d6565b61180192945060209184915f6108dc61059861059860995461062d565b03925af1908115610982575f9161181c575b50915f8061179f565b611835915060203d60201161097b5761096d8183610ea0565b5f611813565b346104a0575f3660031901126104a05760206118556133a9565b6040516001600160a01b039091168152f35b346104a0575f3660031901126104a057602060d654604051908152f35b346104a0575f3660031901126104a05760d15460405163ddca3f4360e01b815290602090829060049082906001600160a01b03165afa908115610982575f916118f5575b61049c6118e56118dc62ffffff8516612eb6565b620f4240900490565b6040519081529081906020820190565b90506020813d60201161192d575b8161191060209383610ea0565b810103126104a0575162ffffff811681036104a0576118e56118c8565b3d9150611903565b346104a0575f3660031901126104a057602060ff606554166040519015158152f35b346104a0575f3660031901126104a05760d3546040516001600160a01b039091168152602090f35b346104a05760403660031901126104a0576004356024356033546001600160a01b031633141580611a63575b611357576119b7613ea5565b505050506119c3614217565b6119cb614974565b60655460ff8116611a2b5760019060ff1916176065555f516020615dbd5f395f51905f526020604051338152a1611a006134a1565b9211918215611a21575b5050611a1257005b63fa6ad35560e01b5f5260045ffd5b1090505f80611a0a565b60405162461bcd60e51b815260206004820152601060248201526f14185d5cd8589b194e881c185d5cd95960821b6044820152606490fd5b506001600160a01b03611a74613a24565b163314156119ab565b346104a0575f3660031901126104a05760206040515f8152f35b346104a0575f3660031901126104a057602060db5460181c60060b604051908152f35b346104a0575f3660031901126104a057611ad2613d57565b610c536149ac565b346104a0575f3660031901126104a05761048c6134a1565b346104a0576101203660031901126104a057600435611b1081610639565b602435611b1c81610639565b60443590611b2982610acf565b6064356001600160401b0381116104a057611b489036906004016104e6565b906084356001600160401b0381116104a057611b689036906004016104e6565b94909360803660a31901126104a057610c5396613583565b346104a0575f3660031901126104a057602060db5460020b604051908152f35b346104a0575f3660031901126104a0576020609f54604051908152f35b346104a0575f3660031901126104a05760d4546040516001600160a01b039091168152602090f35b346104a0575f3660031901126104a057602460206001600160a01b03611c096133a9565b1660405192838092636788231160e11b82523060048301525afa80156109825761049c915f91611c45575b506040519081529081906020820190565b611c5e915060203d60201161097b5761096d8183610ea0565b5f611c34565b346104a0575f3660031901126104a0576033546040516001600160a01b039091168152602090f35b346104a0575f3660031901126104a05760206118556137cf565b346104a0575f3660031901126104a057602060d554604051908152f35b346104a0575f3660031901126104a05761049c611028610f67565b600291820b815291900b602082015260400190565b346104a0575f3660031901126104a05761049c60da546040519181839260181c60020b9060020b83611cde565b346104a0575f3660031901126104a0576020611d3a613845565b6040519015158152f35b346104a0575f3660031901126104a0576020610d1a6138de565b346104a0575f3660031901126104a0576020610d1a611d8c6001600160a01b03611d86613a8c565b16614bf5565b61397c565b346104a0575f3660031901126104a0576020611855613a24565b346104a0575f3660031901126104a0575f60408051611dc981610e65565b611dd1613a5b565b81528260208201520152611de3614dc2565b60405190611df082610e65565b815260208101905f825260408101915f83526040519283926020845251916060602085015282516080850152602083015160a0850152604083015160c0850152606083015160e085015260a0611e57608085015160c0610100880152610140870190610fe9565b93015115156101208501525160408401525160608301520390f35b346104a0575f3660031901126104a057611e8a613d57565b60046020611e9f61059861059860985461062d565b6040516318160ddd60e01b815292839182905afa8015610982576103e8915f91611fba575b500361143857611ed2613419565b611eda6137cf565b611ee26126b2565b90611f68575b611ef457610c536149ac565b611f0561059861059860d45461062d565b6040516370a0823160e01b81529160208380611f243060048301610a69565b0381855afa91821561098257611f41935f93611f47575b506148da565b5f611ad2565b611f6191935060203d60201161097b5761096d8183610ea0565b915f611f3b565b611f7961059861059860d35461062d565b6040516370a0823160e01b815260208180611f973060048301610a69565b0381855afa90811561098257611fb59285915f93611f4757506148da565b611ee8565b611fd3915060203d60201161097b5761096d8183610ea0565b5f611ec4565b346104a0575f3660031901126104a0576020611855613a8c565b346104a0575f3660031901126104a05761049c60d9546040519181839260181c60020b9060020b83611cde565b346104a0575f3660031901126104a057609b546040516001600160a01b039091168152602090f35b346104a0575f3660031901126104a05760d2546040516001600160a01b039091168152602090f35b346104a0575f3660031901126104a05761049c6111c9613ae5565b346104a05760203660031901126104a0576004356120a881610639565b609a54906001600160a01b0382163303612105576001600160a01b03166001600160a01b0319919091168117609a556040519081527f46d58e3fa07bf19b1d27240f0e286b27e9f7c1b0d88933333fe833b60eec541290602090a1005b633163ba6d60e11b5f5260045ffd5b346104a0575f3660031901126104a05761212c6148a1565b609b546040516305226abd60e51b81529060209082906001600160a01b0316818061215a3360048301610a69565b03915afa908115610982575f9161217a575b501561143857610c53614ee4565b61219c915060203d6020116121a2575b6121948183610ea0565b810190613b00565b5f61216c565b503d61218a565b346104a0575f3660031901126104a0576121c16148a1565b6121c96147da565b60db5460ff8160781c1615612201575b6121e161458d565b5f516020615d5d5f395f51905f526121f76134a1565b906107d64260dc55565b6122096148a1565b612211612800565b61221c610b7c6147fd565b61222a610b94848385615ad6565b62ffffff1960d954169062ffffff161760d9556122456126b2565b5f9180612312575b50808210156122e3575050918082610c01610bfb8361226f97610c0697615ad6565b60d95461227c8160020b90565b60da549061228d610c2a8360020b90565b9060020b1491826122c1575b5050610c55576122a842609f55565b60db805460ff60781b1916600160781b1790555f6121d9565b6122d7919250610c7a610c2a9160181c60020b90565b9060020b145f80612299565b939193106122f4575b50505061226f565b61230a9282610c01610cb78480610cbe97615ad6565b5f80806122ec565b612324919250610ce590610cdf613a0e565b905f61224d565b6001600160401b038111610e8057601f01601f191660200190565b9291926123528261232b565b916123606040519384610ea0565b8294818452818301116104a0578281602093845f960137010152565b346104a05760603660031901126104a0576024356004356044356001600160401b0381116104a057366023820112156104a0576123c3903690602481600401359101612346565b506123cf60d15461062d565b906123d98261062d565b33036124625760db546123f09060701c60ff161590565b6124535780612437575b505080612411575b60db805460ff60701b19169055005b6124319061242661059861059860d45461062d565b61073e60d15461062d565b5f612402565b61244c9161070e61059861059860d35461062d565b5f806123fa565b63887efaa560e01b5f5260045ffd5b636f61f64160e01b5f5260045ffd5b346104a05760203660031901126104a0577f5ca6e64c4522e68e154aa9372f2c5969cd37d9640e59f66953dc472f54ee86fa60206004356124b181610639565b6124b9613d57565b6124c1614974565b609980546001600160a01b0319166001600160a01b039290921691821790556124e8614869565b604051908152a1005b9094939260609260808301968352602083015260408201520152565b346104a0575f3660031901126104a05761049c612528613ea5565b90604094929451948594856124f1565b346104a0575f3660031901126104a05760d95461048c611d8c61256a816001600160a01b03611d86600287900b615074565b926001600160a01b0390611d869060181c60020b615074565b346104a0575f3660031901126104a0576020609e54604051908152f35b346104a05760203660031901126104a0576004356125bd81610639565b6125c5613d57565b6001600160a01b038116156125dd57610c53906149dc565b60405162461bcd60e51b815260206004820152602660248201527f4f776e61626c653a206e6577206f776e657220697320746865207a65726f206160448201526564647265737360d01b6064820152608490fd5b346104a0575f3660031901126104a0576098546040516001600160a01b039091168152602090f35b346104a0575f3660031901126104a05760c0612673613b76565b93604093919351958652602086015260408501526060840152608083015260a0820152f35b908160209103126104a0575190565b6040513d5f823e3d90fd5b6126c361059861059860d35461062d565b90602060405180936370a0823160e01b825281806126e43060048301610a69565b03915afa918215610982575f9261275c575b5061270861059861059860d45461062d565b91602060405180946370a0823160e01b825281806127293060048301610a69565b03915afa928315610982575f9361273f57509190565b61275991935060203d60201161097b5761096d8183610ea0565b90565b61277691925060203d60201161097b5761096d8183610ea0565b905f6126f6565b519061ffff821682036104a057565b519081151582036104a057565b908160e09103126104a05780516127af81610639565b9160208201516127be81610acf565b916127cb6040820161277d565b916127d86060830161277d565b916127e56080820161277d565b9161275960c060a08401516127f981610d76565b930161278c565b60d154604051633850c7bd60e01b81529060e090829060049082906001600160a01b03165afa908115610982575f91612837575090565b612859915060e03d60e011612863575b6128518183610ea0565b810190612799565b5050505050905090565b503d612847565b90612873613d57565b8061287c575050565b61288a61056c368385612346565b61289661057d82612924565b6128a461059860d45461062d565b6001600160a01b039091160361061e5761057d816105be6128c5935161296e565b6128d361059860975461062d565b6001600160a01b039091160361060f57816128fc825f516020615d3d5f395f51905f52946129ed565b61290b60405192839283612b7d565b0390a1565b634e487b7160e01b5f52603260045260245ffd5b8051156129315760200190565b612910565b8051600110156129315760400190565b80518210156129315760209160051b010190565b634e487b7160e01b5f52601160045260245ffd5b5f1981019190821161297c57565b61295a565b610e100390610e10821161297c57565b9190820391821161297c57565b601f82116129ab57505050565b5f5260205f20906020601f840160051c830193106129e3575b601f0160051c01905b8181106129d8575050565b5f81556001016129cd565b90915081906129c4565b91906001600160401b038111610e8057612a1381612a0c60d854610e19565b60d861299e565b5f601f8211600114612a51578190612a4193945f92612a46575b50508160011b915f199060031b1c19161790565b60d855565b013590505f80612a2d565b60d85f52601f198216935f516020615cfd5f395f51905f52915f5b868110612aa35750836001959610612a8a575b505050811b0160d855565b01355f19600384901b60f8161c191690555f8080612a7f565b90926020600181928686013581550194019101612a6c565b91906001600160401b038111610e8057612ae181612ada60d754610e19565b60d761299e565b5f601f8211600114612b13578190612b0e93945f92612a465750508160011b915f199060031b1c19161790565b60d755565b60d75f52601f198216935f516020615d9d5f395f51905f52915f5b868110612b655750836001959610612b4c575b505050811b0160d755565b01355f19600384901b60f8161c191690555f8080612b41565b90926020600181928686013581550194019101612b2e565b90918060409360208452816020850152848401375f828201840152601f01601f1916010190565b6001600160401b038111610e805760051b60200190565b9080601f830112156104a0578151612bd281612ba4565b92612be06040519485610ea0565b81845260208085019260051b8201019283116104a057602001905b828210612c085750505090565b602080918351612c1781610639565b815201910190612bfb565b9190916040818403126104a05780516001600160401b0381116104a057810183601f820112156104a057805190612c5882612ba4565b91612c666040519384610ea0565b80835260208084019160051b830101918683116104a057602001905b828210612cac5750505060208201519093906001600160401b0381116104a0576127599201612bbb565b602080918351612cbb816111d5565b815201910190612c82565b60206040818301928281528451809452019201905f5b818110612ce95750505090565b825163ffffffff16845260209384019390920191600101612cdc565b600691820b910b0390667fffffffffffff198212667fffffffffffff83131761297c57565b634e487b7160e01b5f52601260045260245ffd5b60060b9060060b908115612d6457667fffffffffffff1981145f1983141661297c570590565b612d2a565b604051606090612d798282610ea0565b60028152612de991601f190136602083013760db545f9060501c63ffffffff1691612db283612da783612924565b9063ffffffff169052565b81612dbc82612936565b52612dce61059861059860d15461062d565b604051808096819463883bdbfd60e01b835260048301612cc6565b03915afa91821561098257612e3c612e2f61275994612e42935f91612e48575b50612e29612e1c612e23612e1c84612936565b5160060b90565b92612924565b90612d05565b9263ffffffff1660030b90565b60030b90565b90612d3e565b612e6491503d805f833e612e5c8183610ea0565b810190612c22565b505f612e09565b62ffffff1960da54169062ffffff161760da55565b908160209103126104a0575160ff811681036104a05790565b60ff16604d811161297c57600a0a90565b8015612d64575f190490565b90670de0b6b3a7640000820291808304670de0b6b3a7640000149015171561297c57565b90600a820291808304600a149015171561297c57565b8181029291811591840414171561297c57565b9190604083525f60d85490612f1782610e19565b918260408701526001811690815f14612f7f5750600114612f3c575b60209150930152565b5060d85f9081525f516020615cfd5f395f51905f525b828210612f685750602091508401606001612f33565b600181602092546060858a01015201910190612f52565b60609250602093915060ff191682870152151560051b850101612f33565b9190604083525f60d75490612fb182610e19565b918260408701526001811690815f14612f7f5750600114612fd55760209150930152565b5060d75f9081525f516020615d9d5f395f51905f525b8282106130015750602091508401606001612f33565b600181602092546060858a01015201910190612feb565b61302360d45461062d565b600460206130336105988461062d565b60405163313ce56760e01b815292839182905afa9081156109825761306a91613063915f91613101575b50612e99565b600a900490565b9061307961059860975461062d565b6001600160a01b03909116146130f85760206130be5f926130a161059861059860d25461062d565b9060405194858094819363cdca175360e01b835260048301612f03565b03925af1801561098257612759915f916130d9575b50612eda565b6130f2915060203d60201161097b5761096d8183610ea0565b5f6130d3565b61275990612eda565b613123915060203d602011613129575b61311b8183610ea0565b810190612e80565b5f61305d565b503d613111565b60609190911b6001600160601b031916815260e891821b601482015291901b6017820152601a0190565b60d95460405161318c8161317e60208201948060181c60020b9060020b3087613130565b03601f198101835282610ea0565b5190209060da546040516131b48161317e60208201948060181c60020b9060020b3087613130565b51902090565b906131c3613d57565b806131cc575050565b6131da61056c368385612346565b6131e661057d82612924565b6131f461059860d35461062d565b6001600160a01b039091160361061e5761057d816105be613215935161296e565b61322361059860975461062d565b6001600160a01b039091160361060f57816128fc825f516020615d1d5f395f51905f5294612abb565b6040519061325b602083610ea0565b5f808352366020840137565b61327260d754610e19565b156132825761275961056c610ec3565b61275961324c565b60020b60021b908160020b91820361297c57565b9060020b9060020b02908160020b91820361297c57565b906001820180921161297c57565b90601f820180921161297c57565b9190820180921161297c57565b6132e66126b2565b91906132f0613b76565b5050505090820180921161297c57830180931161297c57613313609e5442612991565b610e1081101561338b5761332690612981565b80915b609c549081811115613376575061334b9161334391612ef0565b610e10900490565b925b609d54908181111561336757506127599161334391612ef0565b61334391509161275992612ef0565b61334391509161338592612ef0565b9261334d565b505f8091613329565b908160209103126104a0575161275981610639565b609b54604051634746fb5560e01b815290602090829060049082906001600160a01b03165afa908115610982575f916133ea575b506001600160a01b031690565b61340c915060203d602011613412575b6134048183610ea0565b810190613394565b5f6133dd565b503d6133fa565b6033546001600160a01b031633141580613487575b6113575761343a613ea5565b50505050613446614217565b61344e614974565b60655460ff8116611a2b5760019060ff1916176065555f516020615dbd5f395f51905f526020604051338152a16134836134a1565b5050565b506001600160a01b03613498613a24565b1633141561342e565b6134a96126b2565b91906134b3613b76565b505050506134bf6132de565b92840180941161297c57830392831161297c57840180941161297c57830392831161297c5760d55460d65490828111613519575b848211613511575b820391821161297c57830392831161297c579190565b8491506134fb565b50816134f3565b1561352757565b60405162461bcd60e51b815260206004820152602e60248201527f496e697469616c697a61626c653a20636f6e747261637420697320616c72656160448201526d191e481a5b9a5d1a585b1a5e995960921b6064820152608490fd5b95926135cd959260a495925f54986135b360ff8b60081c16151515809b8161364b575b811561362b575b50613520565b896135c4600160ff195f5416175f55565b61361457613659565b6135d357565b6135e161ff00195f54165f55565b604051600181527f7f26b83ff96e1f2b6a682f133852f6798a09c465da95921460cefb384740249890806020810161290b565b61362661010061ff00195f5416175f55565b613659565b303b1591508161363d575b505f6135ad565b60ff1660011490505f613636565b600160ff82161091506135a6565b91969061366b6136a892959495614a71565b60d180546001600160a01b0319166001600160a01b03851617905560d280546001600160a01b0319166001600160a01b0392909216919091179055565b604051630dfe168160e01b815292906001600160a01b0316602084600481845afa908115610982576137036020926004965f916137b2575b5060d380546001600160a01b0319166001600160a01b0392909216919091179055565b60405163d21220a760e01b815294859182905afa8015610982576137759661375661376b92613770965f91613793575b5060d480546001600160a01b0319166001600160a01b0392909216919091179055565b62ffffff1960db54169062ffffff161760db55565b6131ba565b61286a565b60db805463ffffffff60501b1916600f60531b179055610efa614869565b6137ac915060203d602011613412576134048183610ea0565b5f613733565b6137c99150843d8611613412576134048183610ea0565b5f6136e0565b609b54604051638e14545960e01b815290602090829060049082906001600160a01b03165afa908115610982575f91613806575090565b612759915060203d602011613412576134048183610ea0565b9060060b9060060b0190667fffffffffffff198212667fffffffffffff83131761297c57565b61384d612800565b613855612d69565b6138a1610aa461389960db54936138728560181c60060b82612d05565b60060b620d89e7198113156138d0576138939060060b5b9560181c60060b90565b9061381f565b60060b614bd8565b9160020b809160060b139182156138c3575b5050156138be575f90565b600190565b60060b1290505f806138b3565b50613893620d89e719613889565b6138e960d35461062d565b600460206138f96105988461062d565b60405163313ce56760e01b815292839182905afa9081156109825761392891613063915f916131015750612e99565b9061393761059860975461062d565b6001600160a01b03909116146130f85760206130be5f9261395f61059861059860d25461062d565b9060405194858094819363cdca175360e01b835260048301612f9d565b5f8115613a08578180600114613a00576002146139f95760016101338310166001600b841016176139ec575060015f1960025b600181116139c55750829004811161297c570290565b92808204811161297c57600184166139e3575b80029260011c6139af565b809202916139d8565b91906002900a9161297c57565b5050600490565b505050600190565b50505f90565b612759611d8c6001600160a01b03611d86613a8c565b609b5460405163aced166160e01b815290602090829060049082906001600160a01b03165afa908115610982575f91613806575090565b60405190613a6882610e85565b5f60a083828152826020820152826040820152826060820152606060808201520152565b60d154604051633850c7bd60e01b81529060e090829060049082906001600160a01b03165afa908115610982575f91613ac3575090565b613adc915060e03d60e011612863576128518183610ea0565b50505050505090565b613af060d854610e19565b156132825761275961056c610f67565b908160209103126104a0576127599061278c565b60db805460ff60701b1916600160701b179055565b51906001600160801b03821682036104a057565b908160a09103126104a057613b5181613b29565b916020820151916040810151916127596080613b6f60608501613b29565b9301613b29565b613b7e61315a565b613b89929192613a8c565b613bbf60a0613b9f61059861059860d15461062d565b956040518093819263514ea4bf60e01b8352600483019190602083019252565b0381885afa928315610982575f955f925f95613d20575b5060405163514ea4bf60e01b815260048101929092529092919060a09084908180602481015b03915afa958615610982575f905f945f98613cc5575b5091613c8c613c9c92613c7c613c6a613c4b613cac989760d954613c44613c3f610c7a613c3f8460020b90565b615074565b908a6153df565b93909760da54613c64613c3f610c7a613c3f8460020b90565b916153df565b9690946001600160801b0316906132d1565b976001600160801b0316906132d1565b946001600160801b0316906132d1565b956001600160801b0316906132d1565b93613cb781846132d1565b94613cc281846132d1565b94565b613cac9493919850613c6a9550613c9c9250613c4b613c7c613d01613c8c9360a03d60a011613d19575b613cf98183610ea0565b810190613b3d565b9b93915094915093999c959798505050509250613c12565b503d613cef565b60a080939850613d43929650613bfc9594503d8411613d1957613cf98183610ea0565b949391509891509792959150919293613bd6565b6033546001600160a01b03163303613d6b57565b606460405162461bcd60e51b815260206004820152602060248201527f4f776e61626c653a2063616c6c6572206973206e6f7420746865206f776e65726044820152fd5b805160131981019190821161297c576017916017900490600182019283831161297c57613ddb84612ba4565b93613de96040519586610ea0565b808552613df8601f1991612ba4565b013660208601375f915b838310613e10575050505090565b613e6d81613e68613e22600194615989565b613e2f86845110156159f8565b613e56613e3c87856159d9565b91613e47898c612946565b6001600160a01b039091169052565b613e47613e62886132b5565b8a612946565b615460565b920191613e02565b91908260409103126104a0576020825192015190565b91908260409103126104a0576127596020613b6f84613b29565b613ee3613eb061315a565b60a0613ec361059861059860d15461062d565b926040518095819263514ea4bf60e01b8352600483019190602083019252565b0381855afa90811561098257613f1d935f926141f1575b5060a0906040518095819263514ea4bf60e01b8352600483019190602083019252565b0381855afa928315610982575f936141cc575b506001600160801b0316614188575b506001600160801b03166140ea575b613fbe6040613f6461059861059860d15461062d565b60d95490613f75610c7a8360020b90565b83516309e3d67b60e31b8152306004820152600293840b6024820152920b60448301526001600160801b03606483018190526084830152909283919082905f90829060a4820190565b03925af18015610982575f915f916140c9575b5060018060801b03169060018060801b03169161400b6040613ffa61059861059860d15461062d565b60da5490613f75610c7a8360020b90565b03925af18015610982575f915f91614098575b5060018060801b03169060018060801b03169161404e614049846140448860d5546132d1565b6132d1565b60d555565b614066614061836140448760d6546132d1565b60d655565b7f6fe7c663aa15def6e80578b76ddd894fcefeabf14a0106afbec24da4a6c578726040518061290b8587898b856124f1565b90506140bc915060403d6040116140c2575b6140b48183610ea0565b810190613e8b565b5f61401e565b503d6140aa565b90506140e4915060403d6040116140c2576140b48183610ea0565b5f613fd1565b614145604061410061059861059860d15461062d565b60da5490614111610c7a8360020b90565b835163a34123a760e01b8152600293840b6004820152920b60248301525f6044830181905291938492839182906064820190565b03925af180156109825761415a575b50613f4e565b61417b9060403d604011614181575b6141738183610ea0565b810190613e75565b50614154565b503d614169565b604061419f9160d95490614111610c7a8360020b90565b03925af180156109825715613f3f576141c69060403d604011614181576141738183610ea0565b50613f3f565b6141e691935060a03d60a011613d1957613cf98183610ea0565b50505050915f613f30565b60a091925061420c90823d8411613d1957613cf98183610ea0565b505050509190613efa565b61425661422261315a565b9060a061423661059861059860d15461062d565b916040518095819263514ea4bf60e01b8352600483019190602083019252565b0381845afa9182156109825761428f935f93614449575060a0906040518095819263514ea4bf60e01b8352600483019190602083019252565b0381845afa928315610982575f93614424575b506001600160801b038216614395575b50506001600160801b0381166142c55750565b6040614328916142dc61059861059860d15461062d565b60da545f6142ed610c7a8360020b90565b855163a34123a760e01b8152600293840b6004820152920b60248301526001600160801b039093166044820152938492839182906064820190565b03925af1801561098257614377575b5061434e6040613ffa61059861059860d15461062d565b03925af180156109825761435f5750565b6134839060403d6040116140c2576140b48183610ea0565b61438f9060403d604011614181576141738183610ea0565b50614337565b6143ad9160409160d9545f6142ed610c7a8360020b90565b03925af1801561098257614406575b506143d36040613f6461059861059860d15461062d565b03925af18015610982576143e8575b806142b2565b6144009060403d6040116140c2576140b48183610ea0565b506143e2565b61441e9060403d604011614181576141738183610ea0565b506143bc565b61443e91935060a03d60a011613d1957613cf98183610ea0565b50505050915f6142a2565b60a091935061446490823d8411613d1957613cf98183610ea0565b505050509290613efa565b6144776148a1565b61447f612800565b6144876147fd565b906144978260db5460020b61329e565b6144a5610b94848385615ad6565b62ffffff1960d954169062ffffff161760d9556144c06126b2565b5f9180614574575b5080821015614545575050918082610c01610bfb836144ea97610c0697615ad6565b60d9546144f78160020b90565b60da5490614508610c2a8360020b90565b9060020b149182614523575b5050610c5557610efa42609f55565b614539919250610c7a610c2a9160181c60020b90565b9060020b145f80614514565b93919310614556575b5050506144ea565b61456c9282610c01610cb78480610cbe97615ad6565b5f808061454e565b614586919250610ce590610cdf613a0e565b905f6144c8565b6145956148a1565b61459d61553e565b6145a56126b2565b6145f16145b0613a8c565b916145ea60d954916145c28360020b90565b956145d96145cf88615074565b9460181c60020b90565b936145e385615074565b90876155ba565b938461564e565b6001600160801b038316151590816147d2575b50156147c057604061469c92614618613b14565b61462961059861059860d15461062d565b60d9545f61463a610c7a8360020b90565b8551633c8a7d8d60e01b8152306004820152600293840b6024820152920b60448301526001600160801b03909316606482015260a06084820152600a60a4820152692132b2b33c9026b0b4b760b11b60c48201529485928391829060e4820190565b03925af1918215610982576146d7926147a2575b505b6146ba6126b2565b9160da546146d1613c3f610c7a613c3f8460020b90565b916155ba565b6001600160801b0381166146e85750565b6040614779916146f6613b14565b61470761059861059860d15461062d565b60da545f614718610c7a8360020b90565b8551633c8a7d8d60e01b8152306004820152600293840b6024820152920b60448301526001600160801b03909316606482015260a06084820152600960a482015268109959599e48105b1d60ba1b60c48201529384928391829060e4820190565b03925af180156109825761478a5750565b6134839060403d604011614181576141738183610ea0565b6147ba9060403d604011614181576141738183610ea0565b506146b0565b6146d791506147cd6148a1565b6146b2565b90505f614604565b6098546001600160a01b031633036147ee57565b6362df054560e01b5f5260045ffd5b60d1546040516334324e9f60e21b815290602090829060049082906001600160a01b03165afa908115610982575f91614834575090565b90506020813d602011614861575b8161484f60209383610ea0565b810103126104a0575161275981610acf565b3d9150614842565b60d354609954614885916001600160a01b03918216911661568a565b60d454609954610efa916001600160a01b03918216911661568a565b6148a9613845565b156148b057565b6313643c3b60e11b5f5260045ffd5b6001600160a01b039091168152602081019190915260400190565b61490f610efa939261490160405194859263a9059cbb60e01b6020850152602484016148bf565b03601f198101845283610ea0565b615799565b60ff6065541680156149235790565b50609b54604051631e25aa9b60e31b815290602090829060049082906001600160a01b03165afa908115610982575f9161495b575090565b612759915060203d6020116121a2576121948183610ea0565b60d354609954614990916001600160a01b039182169116615772565b60d454609954610efa916001600160a01b039182169116615772565b603380546001600160a01b031981169091555f906001600160a01b03165f516020615d7d5f395f51905f528280a3565b603380546001600160a01b039283166001600160a01b0319821681179092559091165f516020615d7d5f395f51905f525f80a3565b15614a1857565b60405162461bcd60e51b815260206004820152602b60248201527f496e697469616c697a61626c653a20636f6e7472616374206973206e6f74206960448201526a6e697469616c697a696e6760a81b6064820152608490fd5b614b336105986060614b5593614a8d60ff5f5460081c16614a11565b614a95615881565b614a9d6158a3565b614acb614aa982614bce565b609880546001600160a01b0319166001600160a01b0392909216919091179055565b614afc614ada60208301614bce565b609980546001600160a01b0319166001600160a01b0392909216919091179055565b614b2d614b0b60408301614bce565b609a80546001600160a01b0319166001600160a01b0392909216919091179055565b01614bce565b609b80546001600160a01b0319166001600160a01b0392909216919091179055565b60046020614b67610598609b5461062d565b6040516311b0b42d60e01b815292839182905afa801561098257610efa915f91614baf575b50609780546001600160a01b0319166001600160a01b0392909216919091179055565b614bc8915060203d602011613412576134048183610ea0565b5f614b8c565b3561275981610639565b620d89e8811215614be65790565b50620d89e890565b156104a057565b5f19670de0b6b3a76400008209670de0b6b3a7640000820291828083109203918083039214614c4d57600160601b8210156104a057600160601b90670de0b6b3a7640000900990828211900360a01b910360601c1790565b505060601c90565b5f198282099082810292838084109303928084039314614c9457600160601b8310156104a057600160601b910990828211900360a01b910360601c1790565b50505060601c90565b5f19600160601b8209918160601b91828085109403938085039414614d23578190614cc9858311614bee565b600160601b9009600182190182168092046002816003021880820260020302808202600203028082026002030280820260020302808202600203028091026002030293600183805f03040190848311900302920304170290565b509150614d31821515614bee565b0490565b90915f198383099280830292838086109503948086039514614db357908291614d5f868411614bee565b09600182190182168092046002816003021880820260020302808202600203028082026002030280820260020302808202600203028091026002030293600183805f03040190848311900302920304170290565b50509150614d31821515614bee565b614dca613a5b565b5060245f6001600160a01b03614dde6133a9565b1660405192838092639af608c960e01b82523060048301525afa908115610982575f91614e09575090565b90503d805f833e614e1a8183610ea0565b8101906020818303126104a0578051906001600160401b0382116104a057019060c0828203126104a05760405191614e5183610e85565b8051835260208082015190840152604080820151908401526060808201519084015260808101516001600160401b0381116104a05781019082601f830112156104a057815192614ea08461232b565b90614eae6040519283610ea0565b848252602085850101116104a0575f602085614edc968260a097018386015e8301015260808501520161278c565b60a082015290565b614eec613ea5565b50505050614ef8614217565b614f006148a1565b614f08612800565b614f106147fd565b90614f208260db5460020b61329e565b614f2e610b94848385615ad6565b62ffffff1960d954169062ffffff161760d955614f496126b2565b5f918061502b575b5080821015614ffc575050918082610c01610bfb83614f7397610c0697615ad6565b60d954614f808160020b90565b60da5490614f91610c2a8360020b90565b9060020b149182614fda575b5050610c5557614fac42609f55565b614fb461458d565b5f516020615d5d5f395f51905f52614fca6134a1565b9061290b60405192839283610463565b614ff0919250610c7a610c2a9160181c60020b90565b9060020b145f80614f9d565b9391931061500d575b505050614f73565b6150239282610c01610cb78480610cbe97615ad6565b5f8080615005565b61503d919250610ce590610cdf613a0e565b905f614f51565b1561504b57565b60405162461bcd60e51b81526020600482015260016024820152601560fa1b6044820152606490fd5b60020b5f8112156153d957805f03905b615093620d89e8831115615044565b60018216156153cf576ffffcb933bd6fad37aa2d162d1a5940015b6001600160881b031691600281166153b3575b60048116615397575b6008811661537b575b6010811661535f575b60208116615343575b60408116615327575b6080811661530b575b61010081166152ef575b61020081166152d3575b61040081166152b7575b610800811661529b575b611000811661527f575b6120008116615263575b6140008116615247575b618000811661522b575b62010000811661520f575b6202000081166151f4575b6204000081166151d9575b62080000166151c0575b5f126151b2575b6151906151868260201c90565b9163ffffffff1690565b6151aa575f905b60ff91909116016001600160a01b031690565b600190615197565b6151bb90612eaa565b615179565b6b048a170391f7dc42444e8fa290910260801c90615172565b6d2216e584f5fa1ea926041bedfe9890920260801c91615168565b916e5d6af8dedb81196699c329225ee6040260801c9161515d565b916f09aa508b5b7a84e1c677de54f3e99bc90260801c91615152565b916f31be135f97d08fd981231505542fcfa60260801c91615147565b916f70d869a156d2a1b890bb3df62baf32f70260801c9161513d565b916fa9f746462d870fdf8a65dc1f90e061e50260801c91615133565b916fd097f3bdfd2022b8845ad8f792aa58250260801c91615129565b916fe7159475a2c29b7443b29c7fa6e889d90260801c9161511f565b916ff3392b0822b70005940c7a398e4b70f30260801c91615115565b916ff987a7253ac413176f2b074cf7815e540260801c9161510b565b916ffcbe86c7900a88aedcffc83b479aa3a40260801c91615101565b916ffe5dee046a99a2a811c461f1969c30530260801c916150f7565b916fff2ea16466c96a3843ec78b326b528610260801c916150ee565b916fff973b41fa98c081472e6896dfb254c00260801c916150e5565b916fffcb9843d60f6159c9db58835c9266440260801c916150dc565b916fffe5caca7e10e4e61c3624eaa0941cd00260801c916150d3565b916ffff2e50f5f656932ef12357cf3c7fdcc0260801c916150ca565b916ffff97272373d413259a46990580e213a0260801c916150c1565b600160801b6150ae565b80615084565b9093925f929091836001600160a01b0380841690881611615458575b6001600160a01b0382811690881681116154205750505061541d92939461591f565b91565b93945090926001600160a01b038316111561544c5750906154468361275994938361591f565b946158dc565b946127599392506158dc565b9591956153fb565b805190601782039180831161297c576017906154868461547f816132c3565b1015615a3b565b61549c835161549586856132d1565b1115615a78565b036154b35750506040515f81526020810160405290565b60405191601f8116916017831560051b80858701019484860193010101905b8084106154ea5750508252601f01601f191660405290565b90926020809185518152019301906154d2565b6001600160a01b03918216815291166020820152604081019190915260600190565b60da549060181b65ffffff000000169065ffffff00000019161760da55565b60ff606554168015615560575b61555157565b63e628b94960e01b5f5260045ffd5b50609b54604051631e25aa9b60e31b815290602090829060049082906001600160a01b03165afa908115610982575f9161559b575b5061554b565b6155b4915060203d6020116121a2576121948183610ea0565b5f615595565b936001600160a01b0383811690831611615646575b6001600160a01b038581169590831686116155f05750506127599350615ba8565b919490939192906001600160a01b038216111561563a5782916156179161561d9594615ba8565b93615b65565b6001600160801b038181169083161015615635575090565b905090565b91505061275992615b65565b9091906155cf565b9061566d92613c64615667615661613a8c565b93615074565b91615074565b9015908115615681575b50156138be575f90565b9050155f615677565b604051906156ef6020830163095ea7b360e01b81526156c0846156b25f1988602484016148bf565b03601f198101865285610ea0565b83516001600160a01b038416915f91829182855af1906156de615bfc565b82615740575b508161573957501590565b6156f857505050565b60405163095ea7b360e01b60208201526001600160a01b0390931660248401525f6044840152610efa9261490f90615733816064810161317e565b82615799565b3b15919050565b80519192508115918215615758575b5050905f6156e4565b61576b9250602080918301019101613b00565b5f8061574f565b604051906156ef6020830163095ea7b360e01b81526156c0846156b25f88602484016148bf565b906157f99160018060a01b03165f80604051936157b7604086610ea0565b602085527f5361666545524332303a206c6f772d6c6576656c2063616c6c206661696c6564602086015260208151910182855af16157f3615bfc565b91615c3f565b8051908115918215615867575b50501561580f57565b60405162461bcd60e51b815260206004820152602a60248201527f5361666545524332303a204552433230206f7065726174696f6e20646964206e6044820152691bdd081cdd58d8d9595960b21b6064820152608490fd5b61587a9250602080918301019101613b00565b5f80615806565b61589a60ff5f5460081c1661589581614a11565b614a11565b610efa336149dc565b6158b760ff5f5460081c1661589581614a11565b60ff1960655416606555565b6001600160a01b03918216908216039190821161297c57565b6127599291906001600160a01b0380831690821611615919575b6001600160a01b039161590991906158c3565b16906001600160801b0316614c55565b906158f6565b9161596d916001600160a01b0380821690851611615983575b6001600160a01b0361594a85836158c3565b6001600160a01b039092169291169060601b600160601b600160e01b0316614d35565b6001600160a01b03909116908115612d64570490565b92615938565b601481511061599c576020015160601c90565b60405162461bcd60e51b8152602060048201526015602482015274746f416464726573735f6f75744f66426f756e647360581b6044820152606490fd5b908151601482019081831161297c571061599c57016020015160601c90565b156159ff57565b60405162461bcd60e51b8152602060048201526014602482015273746f55696e7432345f6f75744f66426f756e647360601b6044820152606490fd5b15615a4257565b60405162461bcd60e51b815260206004820152600e60248201526d736c6963655f6f766572666c6f7760901b6044820152606490fd5b15615a7f57565b60405162461bcd60e51b8152602060048201526011602482015270736c6963655f6f75744f66426f756e647360781b6044820152606490fd5b9060020b9060020b0190627fffff198212627fffff83131761297c57565b9291909260020b8160020b908115612d6457627fffff1981145f1983141661297c57818105915f82129182615b56575b5050615b3e575b90615b179161329e565b918060020b8360020b0390627fffff8213627fffff1983121761297c576127599193615ab8565b60020b90627fffff19821461297c57905f1901615b0d565b0760020b151590505f80615b06565b61275992615b9d9290916001600160a01b0380831690821611615ba2575b6001600160a01b0391615b9691906158c3565b1690614c9d565b615c2b565b90615b83565b61275992615b9d929091906001600160a01b0380821690831611615bf6575b615bef615be06001600160a01b03838116908516614c55565b926001600160a01b03926158c3565b1691614d35565b90615bc7565b3d15615c26573d90615c0d8261232b565b91615c1b6040519384610ea0565b82523d5f602084013e565b606090565b6001600160801b038116919082036104a057565b91929015615ca15750815115615c53575090565b3b15615c5c5790565b60405162461bcd60e51b815260206004820152601d60248201527f416464726573733a2063616c6c20746f206e6f6e2d636f6e74726163740000006044820152606490fd5b825190915015615cb45750805190602001fd5b60405162461bcd60e51b815260206004820152908190615cd8906024830190610fe9565b0390fdfe6c8433a8e155f0af04dba058d4e4695f7da554578963d876bdf4a6d8d6399d9c5320ad99a619a90804cd2efe3a5cf0ac1ac5c41ad9ff2c61cf699efdad771096203244158601764729526c0736d6b833b1f3da905ae0a631a059bbb9040541f01b9728f4ac995937074d8e70e21a1660544fb7c16be984e1c289f262f2be9c74631c4f79c14099a717f4be2f25e6cef89e310b3944ef0e44ea2c0811ebb982a88be0079c531659141344cd1fd0a4f28419497f9722a3daafe3b4186f6b6457e08a012a6de2943a5aa4d77acf5e695d4456760a3f1f30a5d6dc2079599187a07162e78cea01bee320cd4e420270b5ea74000d11b0c9f74754ebdbfc544b05a258d255b592c7f268a73e534da5219a60ff911b4cf6daae21c7d20527dd657bd99aa2646970667358221220b89322c256239d6a7535e08ec3b3789b9b691a3dd9b9f8b21190f035e3f3fcf664736f6c634300081c0033","linkReferences":{}},"methodIdentifiers":{"balances()":"7bb98a68","balancesOfPool()":"fcc25e13","balancesOfThis()":"00a4b5c9","beefyFeeConfig()":"4746fb55","beefyFeeRecipient()":"8e145459","beforeAction()":"17dd7a72","claimEarnings()":"d9ceab13","currentTick()":"065e5360","deposit()":"d0e30db0","depositFee()":"67a52793","factory()":"c45a0155","fees0()":"93f1c442","fees1()":"4c02a21c","getAllFees()":"b20feaaf","getKeys()":"2150c518","getStratFeeId()":"8cfc0250","harvest()":"4641257d","harvest(address)":"0e5c011e","initialize(address,address,int24,bytes,bytes,(address,address,address,address))":"7f10e4b9","isCalm()":"9bdde46b","keeper()":"aced1661","lastHarvest()":"f1a392da","lastPositionAdjustment()":"865238d4","lockedProfit()":"44b81396","lpToken0()":"5ee167c0","lpToken0ToNative()":"2e773d32","lpToken0ToNativePath()":"1dcfeddd","lpToken0ToNativePrice()":"9c6d4904","lpToken1()":"877562b6","lpToken1ToNative()":"c6ebd4ae","lpToken1ToNativePath()":"953d329f","lpToken1ToNativePrice()":"16b9cd9c","maxTickDeviation()":"696c58e5","moveTicks()":"c7d54132","native()":"11b0b42d","owner()":"8da5cb5b","panic(uint256,uint256)":"60991346","paused()":"5c975abb","pool()":"16f0115b","positionAlt()":"99cd2446","positionMain()":"bc415d8a","positionWidth()":"8097e249","price()":"a035b1fe","quoter()":"c6bbd5a7","range()":"e97206a9","renounceOwnership()":"715018a6","retireVault()":"b3a60cb3","setDeviation(int56)":"362c28c6","setLpToken0ToNativePath(bytes)":"236db042","setLpToken1ToNativePath(bytes)":"08898ea0","setPositionWidth(int24)":"12cf1381","setStratFeeId(uint256)":"3e55f932","setStrategist(address)":"c7b9d530","setTwapInterval(uint32)":"1d27050f","setUnirouter(address)":"d92f3d73","sqrtPrice()":"b83d2683","strategist()":"1fe4a686","swapFee()":"54cf2aeb","totalLocked0()":"2b950b66","totalLocked1()":"04c404b3","transferOwnership(address)":"f2fde38b","twap()":"1208aa18","twapInterval()":"3c1d5df0","unirouter()":"257ae0de","uniswapV3MintCallback(uint256,uint256,bytes)":"d3487997","unpause()":"3f4ba83a","vault()":"fbfa77cf","withdraw(uint256,uint256)":"441a3e70","withdrawFee()":"e941fa78"},"id":140}