{"abi":[{"type":"constructor","inputs":[{"name":"_owner","type":"address","internalType":"address"},{"name":"_usdc","type":"address","internalType":"address"},{"name":"_balancerVault","type":"address","internalType":"address"},{"name":"_balancerRouter","type":"address","internalType":"address"},{"name":"_pool","type":"address","internalType":"address"},{"name":"_token0","type":"address","internalType":"address"},{"name":"_token1","type":"address","internalType":"address"},{"name":"_router","type":"address","internalType":"address"},{"name":"_name","type":"string","internalType":"string"},{"name":"_symbol","type":"string","internalType":"string"}],"stateMutability":"nonpayable"},{"type":"function","name":"PERMIT2","inputs":[],"outputs":[{"name":"","type":"address","internalType":"address"}],"stateMutability":"view"},{"type":"function","name":"allowance","inputs":[{"name":"owner","type":"address","internalType":"address"},{"name":"spender","type":"address","internalType":"address"}],"outputs":[{"name":"","type":"uint256","internalType":"uint256"}],"stateMutability":"view"},{"type":"function","name":"approve","inputs":[{"name":"spender","type":"address","internalType":"address"},{"name":"amount","type":"uint256","internalType":"uint256"}],"outputs":[{"name":"","type":"bool","internalType":"bool"}],"stateMutability":"nonpayable"},{"type":"function","name":"balanceOf","inputs":[{"name":"account","type":"address","internalType":"address"}],"outputs":[{"name":"","type":"uint256","internalType":"uint256"}],"stateMutability":"view"},{"type":"function","name":"balancerRouter","inputs":[],"outputs":[{"name":"","type":"address","internalType":"address"}],"stateMutability":"view"},{"type":"function","name":"balancerVault","inputs":[],"outputs":[{"name":"","type":"address","internalType":"address"}],"stateMutability":"view"},{"type":"function","name":"controller","inputs":[],"outputs":[{"name":"","type":"address","internalType":"address"}],"stateMutability":"view"},{"type":"function","name":"decimals","inputs":[],"outputs":[{"name":"","type":"uint8","internalType":"uint8"}],"stateMutability":"view"},{"type":"function","name":"decreaseAllowance","inputs":[{"name":"spender","type":"address","internalType":"address"},{"name":"subtractedValue","type":"uint256","internalType":"uint256"}],"outputs":[{"name":"","type":"bool","internalType":"bool"}],"stateMutability":"nonpayable"},{"type":"function","name":"deposit","inputs":[{"name":"assets","type":"uint256","internalType":"uint256"}],"outputs":[],"stateMutability":"nonpayable"},{"type":"function","name":"divest","inputs":[{"name":"bptAmountIn","type":"uint256","internalType":"uint256"},{"name":"minAmountsOut","type":"uint256[]","internalType":"uint256[]"},{"name":"swapCalls","type":"tuple[]","internalType":"struct SwapCall[]","components":[{"name":"target","type":"address","internalType":"address"},{"name":"data","type":"bytes","internalType":"bytes"},{"name":"value","type":"uint256","internalType":"uint256"}]}],"outputs":[],"stateMutability":"nonpayable"},{"type":"function","name":"increaseAllowance","inputs":[{"name":"spender","type":"address","internalType":"address"},{"name":"addedValue","type":"uint256","internalType":"uint256"}],"outputs":[{"name":"","type":"bool","internalType":"bool"}],"stateMutability":"nonpayable"},{"type":"function","name":"invest","inputs":[{"name":"swapCalls","type":"tuple[]","internalType":"struct SwapCall[]","components":[{"name":"target","type":"address","internalType":"address"},{"name":"data","type":"bytes","internalType":"bytes"},{"name":"value","type":"uint256","internalType":"uint256"}]},{"name":"minAmount0","type":"uint256","internalType":"uint256"},{"name":"minAmount1","type":"uint256","internalType":"uint256"},{"name":"minBptAmountOut","type":"uint256","internalType":"uint256"}],"outputs":[],"stateMutability":"nonpayable"},{"type":"function","name":"name","inputs":[],"outputs":[{"name":"","type":"string","internalType":"string"}],"stateMutability":"view"},{"type":"function","name":"owner","inputs":[],"outputs":[{"name":"","type":"address","internalType":"address"}],"stateMutability":"view"},{"type":"function","name":"pool","inputs":[],"outputs":[{"name":"","type":"address","internalType":"address"}],"stateMutability":"view"},{"type":"function","name":"router","inputs":[],"outputs":[{"name":"","type":"address","internalType":"address"}],"stateMutability":"view"},{"type":"function","name":"setController","inputs":[{"name":"_controller","type":"address","internalType":"address"}],"outputs":[],"stateMutability":"nonpayable"},{"type":"function","name":"symbol","inputs":[],"outputs":[{"name":"","type":"string","internalType":"string"}],"stateMutability":"view"},{"type":"function","name":"token0","inputs":[],"outputs":[{"name":"","type":"address","internalType":"address"}],"stateMutability":"view"},{"type":"function","name":"token1","inputs":[],"outputs":[{"name":"","type":"address","internalType":"address"}],"stateMutability":"view"},{"type":"function","name":"totalSupply","inputs":[],"outputs":[{"name":"","type":"uint256","internalType":"uint256"}],"stateMutability":"view"},{"type":"function","name":"transfer","inputs":[{"name":"to","type":"address","internalType":"address"},{"name":"amount","type":"uint256","internalType":"uint256"}],"outputs":[{"name":"","type":"bool","internalType":"bool"}],"stateMutability":"nonpayable"},{"type":"function","name":"transferFrom","inputs":[{"name":"from","type":"address","internalType":"address"},{"name":"to","type":"address","internalType":"address"},{"name":"amount","type":"uint256","internalType":"uint256"}],"outputs":[{"name":"","type":"bool","internalType":"bool"}],"stateMutability":"nonpayable"},{"type":"function","name":"usdc","inputs":[],"outputs":[{"name":"","type":"address","internalType":"address"}],"stateMutability":"view"},{"type":"function","name":"want","inputs":[],"outputs":[{"name":"","type":"address","internalType":"address"}],"stateMutability":"view"},{"type":"function","name":"wants","inputs":[],"outputs":[{"name":"","type":"address","internalType":"address"},{"name":"","type":"address","internalType":"address"}],"stateMutability":"view"},{"type":"function","name":"withdraw","inputs":[{"name":"shares","type":"uint256","internalType":"uint256"}],"outputs":[],"stateMutability":"nonpayable"},{"type":"event","name":"Approval","inputs":[{"name":"owner","type":"address","indexed":true,"internalType":"address"},{"name":"spender","type":"address","indexed":true,"internalType":"address"},{"name":"value","type":"uint256","indexed":false,"internalType":"uint256"}],"anonymous":false},{"type":"event","name":"ControllerUpdated","inputs":[{"name":"newController","type":"address","indexed":true,"internalType":"address"}],"anonymous":false},{"type":"event","name":"Deposited","inputs":[{"name":"user","type":"address","indexed":true,"internalType":"address"},{"name":"assets","type":"uint256","indexed":false,"internalType":"uint256"},{"name":"shares","type":"uint256","indexed":false,"internalType":"uint256"}],"anonymous":false},{"type":"event","name":"Divested","inputs":[{"name":"amount0","type":"uint256","indexed":false,"internalType":"uint256"},{"name":"amount1","type":"uint256","indexed":false,"internalType":"uint256"},{"name":"usdcReceived","type":"uint256","indexed":false,"internalType":"uint256"}],"anonymous":false},{"type":"event","name":"Invested","inputs":[{"name":"usdcSpent","type":"uint256","indexed":false,"internalType":"uint256"},{"name":"amount0","type":"uint256","indexed":false,"internalType":"uint256"},{"name":"amount1","type":"uint256","indexed":false,"internalType":"uint256"}],"anonymous":false},{"type":"event","name":"Transfer","inputs":[{"name":"from","type":"address","indexed":true,"internalType":"address"},{"name":"to","type":"address","indexed":true,"internalType":"address"},{"name":"value","type":"uint256","indexed":false,"internalType":"uint256"}],"anonymous":false},{"type":"event","name":"Withdrawn","inputs":[{"name":"user","type":"address","indexed":true,"internalType":"address"},{"name":"assets","type":"uint256","indexed":false,"internalType":"uint256"},{"name":"shares","type":"uint256","indexed":false,"internalType":"uint256"}],"anonymous":false},{"type":"error","name":"InsufficientLiquidity","inputs":[]},{"type":"error","name":"Invalid","inputs":[{"name":"selector","type":"bytes4","internalType":"bytes4"}]},{"type":"error","name":"InvalidAmount","inputs":[]},{"type":"error","name":"InvalidApproveSpender","inputs":[{"name":"spender","type":"address","internalType":"address"}]},{"type":"error","name":"InvalidSwapReceiver","inputs":[{"name":"receiver","type":"address","internalType":"address"}]},{"type":"error","name":"OnlyController","inputs":[]},{"type":"error","name":"OnlyOwner","inputs":[]},{"type":"error","name":"SwapFail","inputs":[]},{"type":"error","name":"TokensNotFullyConverted","inputs":[]},{"type":"error","name":"UnsafeRouterSelector","inputs":[{"name":"selector","type":"bytes4","internalType":"bytes4"}]}],"bytecode":{"object":"0x610180604052346106f557612b668038038061001a816106f9565b928339810190610140818303126106f5576100348161071e565b916100416020830161071e565b61004d6040840161071e565b6100596060850161071e565b6100656080860161071e565b9161007260a0870161071e565b9361007f60c0880161071e565b9561008c60e0890161071e565b6101008901519098906001600160401b0381116106f557826100af918301610732565b6101208201519092906001600160401b0381116106f5576100d09201610732565b815190916001600160401b0382116105f85760035490600182811c921680156106eb575b60208310146105da5781601f84931161067d575b50602090601f8311600114610617575f9261060c575b50508160011b915f199060031b1c1916176003555b8051906001600160401b0382116105f85760045490600182811c921680156105ee575b60208310146105da5781601f84931161056c575b50602090601f8311600114610506575f926104fb575b50508160011b915f199060031b1c1916176004555b60016005556001600160a01b0388169788156104c6576001600160a01b03821615610492576001600160a01b0383161561044d576001600160a01b03841615610408576001600160a01b038516156103d4576001600160a01b0386161515806103c2575b1561037d576001600160a01b03881615610347576101605260805260a05260c05260e052610100526101205261014052600680546001600160a01b03191682179055604051907f1304018cfe79741dcf02ba6b61d39cc4757d59395d03224d9925c7aa830021465f80a26123e2908161078482396080518181816104fb0152818161085901528181610fd4015281816110b6015281816114e50152611a03015260a0518161180e015260c05181818161031401528181610da601526113cf015260e05181818161044b01528181610ddd01526117ca01526101005181818161022d01528181610cef01528181610f140152611852015261012051818181610286015281816107a101528181610cce0152610f6a015261014051818181610167015281816106f9015261108f0152610160518181816107e701528181610b5d01528181610c2301526114820152f35b60405162461bcd60e51b815260206004820152600e60248201526d24b73b30b634b2103937baba32b960911b6044820152606490fd5b60405162461bcd60e51b815260206004820152601360248201527f496e76616c696420706f6f6c20746f6b656e73000000000000000000000000006044820152606490fd5b506001600160a01b03871615156101f9565b60405162461bcd60e51b815260206004820152600c60248201526b125b9d985b1a59081c1bdbdb60a21b6044820152606490fd5b60405162461bcd60e51b815260206004820152601760248201527f496e76616c69642042616c616e63657220526f757465720000000000000000006044820152606490fd5b60405162461bcd60e51b815260206004820152601660248201527f496e76616c69642042616c616e636572205661756c74000000000000000000006044820152606490fd5b60405162461bcd60e51b815260206004820152600c60248201526b496e76616c6964205553444360a01b6044820152606490fd5b60405162461bcd60e51b815260206004820152600d60248201526c24b73b30b634b21037bbb732b960991b6044820152606490fd5b015190505f80610180565b60045f9081528281209350601f198516905b818110610554575090846001959493921061053c575b505050811b01600455610195565b01515f1960f88460031b161c191690555f808061052e565b92936020600181928786015181550195019301610518565b60045f529091507f8a35acfbc15ff81a39ae7d344fd709f28e8600b4aa8c65c6b64bfe7fe36bd19b601f840160051c810191602085106105d0575b90601f859493920160051c01905b8181106105c2575061016a565b5f81558493506001016105b5565b90915081906105a7565b634e487b7160e01b5f52602260045260245ffd5b91607f1691610156565b634e487b7160e01b5f52604160045260245ffd5b015190505f8061011e565b60035f9081528281209350601f198516905b818110610665575090846001959493921061064d575b505050811b01600355610133565b01515f1960f88460031b161c191690555f808061063f565b92936020600181928786015181550195019301610629565b60035f529091507fc2575a0e9e593c00f959f8c92f12db2869c3395a3b0502d05e2516446f71f85b601f840160051c810191602085106106e1575b90601f859493920160051c01905b8181106106d35750610108565b5f81558493506001016106c6565b90915081906106b8565b91607f16916100f4565b5f80fd5b6040519190601f01601f191682016001600160401b038111838210176105f857604052565b51906001600160a01b03821682036106f557565b81601f820112156106f5578051906001600160401b0382116105f857610761601f8301601f19166020016106f9565b92828452602083830101116106f557815f9260208093018386015e830101529056fe6080806040526004361015610012575f80fd5b5f905f3560e01c90816306fdde03146118a757508063095ea7b3146118815780630dfe16811461183d578063158274a5146117f957806316f0115b146117b557806318160ddd146117985780631f1fcd51146113fe57806323b872dd146116db5780632e1a7d4d1461146c578063313ce5671461145157806339509351146114035780633e413bee146113fe57806349ec8b38146113ba5780634f7dbdc514610d145780636584493414610cb45780636afdd85014610c8a57806370a0823114610c525780638da5cb5b14610c0d57806392eefe9b14610b4157806395d89b4114610a38578063a457c2d714610995578063a9059cbb14610963578063b6b55f25146107d0578063d21220a71461078b578063dd62ed3e14610738578063e51aaf24146101c2578063f77c4791146101995763f887ea4014610152575f80fd5b346101965780600319360112610196576040517f00000000000000000000000000000000000000000000000000000000000000006001600160a01b03168152602090f35b80fd5b50346101965780600319360112610196576006546040516001600160a01b039091168152602090f35b5034610196576080366003190112610196576004356001600160401b038111610734576101f3903690600401611a32565b6006549091906001600160a01b0316330361072557610210611d6f565b816106f3575b50506040516370a0823160e01b81523060048201527f00000000000000000000000000000000000000000000000000000000000000006001600160a01b0381169190602082602481865afa9182156105ab5784926106bf575b506040516370a0823160e01b8152306004820152927f0000000000000000000000000000000000000000000000000000000000000000906001600160a01b03821690602086602481855afa9586156106b4578796610680575b5060243585108015610675575b610666576102fa916102f186836102ec8a95611de0565b611e21565b6102ec81611de0565b610e104201804211610652579065ffffffffffff869216907f0000000000000000000000000000000000000000000000000000000000000000936e22d473030f116ddee9f6b43ac78ba33b1561062a576040516387517c4560e01b81529084908290819061037a9087906001600160a01b038c16908b9060048601611ad6565b0381836e22d473030f116ddee9f6b43ac78ba35af19081156105ab57849161063d575b50506e22d473030f116ddee9f6b43ac78ba33b15610639576040516387517c4560e01b8152918391839182916103e491906001600160a01b038b1690899060048601611ad6565b0381836e22d473030f116ddee9f6b43ac78ba35af1801561062e57610615575b505060405190610415606083611a7c565b60028252602082016040368237825115610601578381528251600110156106015760408084018690525163c08bc85160e01b81527f00000000000000000000000000000000000000000000000000000000000000006001600160a01b0316600482015260a06024820152925160a4840181905260c484019284929091889190825b8181106105e557505050606480356044850152830181905282840360031981016084850152938190526020938401918391906001600160a01b03165af180156105ab576105b6575b506040516370a0823160e01b8152306004820152916020836024817f00000000000000000000000000000000000000000000000000000000000000006001600160a01b03165afa9283156105ab578493610571575b50916105667f15294ad9d42e2bbd446d4ff6ca28fef807d1631ad53c688303fe468410830f329360405193849384611ac0565b0390a1600160055580f35b92506020833d6020116105a3575b8161058c60209383611a7c565b8101031261059f57915191610566610533565b5f80fd5b3d915061057f565b6040513d86823e3d90fd5b6020813d6020116105dd575b816105cf60209383611a7c565b8101031261059f57516104de565b3d91506105c2565b825187526020968701968896508b945090920191600101610496565b634e487b7160e01b86526032600452602486fd5b8161061f91611a7c565b61062a57835f610404565b8380fd5b6040513d84823e3d90fd5b8280fd5b8161064791611a7c565b61063957825f61039d565b634e487b7160e01b86526011600452602486fd5b63bb55fd2760e01b8752600487fd5b5060443586106102d5565b9095506020813d6020116106ac575b8161069c60209383611a7c565b8101031261059f5751945f6102c8565b3d915061068f565b6040513d89823e3d90fd5b9091506020813d6020116106eb575b816106db60209383611a7c565b8101031261059f5751905f61026f565b3d91506106ce565b61071e917f000000000000000000000000000000000000000000000000000000000000000091611faa565b5f80610216565b635990781360e01b8352600483fd5b5080fd5b50346101965760403660031901126101965760406107546119c2565b9161075d6119d8565b9260018060a01b031681526001602052209060018060a01b03165f52602052602060405f2054604051908152f35b50346101965780600319360112610196576040517f00000000000000000000000000000000000000000000000000000000000000006001600160a01b03168152602090f35b5034610196576020366003190112610196576004357f00000000000000000000000000000000000000000000000000000000000000006001600160a01b031633036109545761081d611d6f565b8015610945576108866040516323b872dd60e01b602082015233602482015230604482015282606482015260648152610857608482611a7c565b7f00000000000000000000000000000000000000000000000000000000000000006001600160a01b0316612206565b33156109005761089881600254611a9f565b6002553382528160205260408220818154019055604051818152825f51602061238d5f395f51905f5260203393a36040519080825260208201527f73a19dd210f1a7f902193214c0ee91dd35ee5b4d920cba8d519eca65a7b488ca60403392a2600160055580f35b60405162461bcd60e51b815260206004820152601f60248201527f45524332303a206d696e7420746f20746865207a65726f2061646472657373006044820152606490fd5b63162908e360e11b8252600482fd5b635fc483c560e01b8252600482fd5b50346101965760403660031901126101965761098a6109806119c2565b6024359033611c0c565b602060405160018152f35b5034610196576040366003190112610196576109af6119c2565b60406024359233815260016020522060018060a01b0382165f5260205260405f2054918083106109e55761098a92039033611b08565b60405162461bcd60e51b815260206004820152602560248201527f45524332303a2064656372656173656420616c6c6f77616e63652062656c6f77604482015264207a65726f60d81b6064820152608490fd5b50346101965780600319360112610196576040519080600454908160011c91600181168015610b37575b602084108114610b2357838652908115610afc5750600114610a9f575b610a9b84610a8f81860382611a7c565b60405191829182611998565b0390f35b600481527f8a35acfbc15ff81a39ae7d344fd709f28e8600b4aa8c65c6b64bfe7fe36bd19b939250905b808210610ae257509091508101602001610a8f82610a7f565b919260018160209254838588010152019101909291610ac9565b60ff191660208087019190915292151560051b85019092019250610a8f9150839050610a7f565b634e487b7160e01b83526022600452602483fd5b92607f1692610a62565b503461019657602036600319011261019657610b5b6119c2565b7f00000000000000000000000000000000000000000000000000000000000000006001600160a01b03163303610954576001600160a01b03168015610bd357600680546001600160a01b031916821790557f1304018cfe79741dcf02ba6b61d39cc4757d59395d03224d9925c7aa830021468280a280f35b60405162461bcd60e51b815260206004820152601260248201527124b73b30b634b21031b7b73a3937b63632b960711b6044820152606490fd5b50346101965780600319360112610196576040517f00000000000000000000000000000000000000000000000000000000000000006001600160a01b03168152602090f35b5034610196576020366003190112610196576020906040906001600160a01b03610c7a6119c2565b1681528083522054604051908152f35b503461019657806003193601126101965760206040516e22d473030f116ddee9f6b43ac78ba38152f35b503461019657806003193601126101965760405180610a9b7f00000000000000000000000000000000000000000000000000000000000000007f000000000000000000000000000000000000000000000000000000000000000083611a62565b3461059f57606036600319011261059f576004356024356001600160401b03811161059f57610d47903690600401611a32565b916044356001600160401b03811161059f57610d67903690600401611a32565b60065490949193906001600160a01b031633036113ab57610d86611d6f565b821561139c5760405163095ea7b360e01b60208201526001600160a01b037f0000000000000000000000000000000000000000000000000000000000000000818116602484018190525f60448086019190915284527f0000000000000000000000000000000000000000000000000000000000000000909216959192610e1790610e11606482611a7c565b87612206565b604051636eb1769f60e11b815260208180610e36853060048401611a62565b03818a5afa90811561107e575f9161136a575b506113065781610e83610e8992610e7560405193849263095ea7b360e01b602085015260248401611dc5565b03601f198101835282611a7c565b86612206565b604051630516827560e41b81526004810195909552602485015260a0604485015260a484018390526001600160fb1b03831161059f57835f60208294829660051b809160c486013783018260648501528260c480868403019260031984016084880152015201925af1801561107e5761125a575b506040516370a0823160e01b8152306004820152917f00000000000000000000000000000000000000000000000000000000000000006001600160a01b0316602084602481845afa93841561107e575f94611226575b506040516370a0823160e01b8152306004820152927f00000000000000000000000000000000000000000000000000000000000000006001600160a01b03169290602085602481875afa94851561107e575f956111f2575b5081611089575b50506040516370a0823160e01b815230600482015293915060209050836024817f00000000000000000000000000000000000000000000000000000000000000006001600160a01b03165afa92831561107e575f93611048575b5061103e7fd138202835e549fb0c26641233354786243cf5fca25b31e920a57f4fd835a3499360405193849384611ac0565b0390a16001600555005b92506020833d602011611076575b8161106360209383611a7c565b8101031261059f5791519161103e61100c565b3d9150611056565b6040513d5f823e3d90fd5b6110b4917f000000000000000000000000000000000000000000000000000000000000000091611faa565b7f00000000000000000000000000000000000000000000000000000000000000006001600160a01b031690808214159081611184575b50611107578114159081611116575b506111075782808080610fb2565b636fe2c6b160e11b5f5260045ffd5b6040516370a0823160e01b81523060048201529150602090829060249082905afa801561107e575f90611150575b6103e8915011836110f9565b506020813d60201161117c575b8161116a60209383611a7c565b8101031261059f576103e89051611144565b3d915061115d565b6040516370a0823160e01b81523060048201529150602090829060249082905afa801561107e575f906111be575b6103e8915011856110ea565b506020813d6020116111ea575b816111d860209383611a7c565b8101031261059f576103e890516111b2565b3d91506111cb565b9094506020813d60201161121e575b8161120e60209383611a7c565b8101031261059f57519386610fab565b3d9150611201565b9093506020813d602011611252575b8161124260209383611a7c565b8101031261059f57519284610f53565b3d9150611235565b3d805f833e6112698183611a7c565b81019060208183031261059f578051906001600160401b03821161059f57019080601f8301121561059f578151916001600160401b0383116112f2578260051b9060208201936112bc6040519586611a7c565b845260208085019282010192831161059f57602001905b8282106112e257505050610efd565b81518152602091820191016112d3565b634e487b7160e01b5f52604160045260245ffd5b60405162461bcd60e51b815260206004820152603660248201527f5361666545524332303a20617070726f76652066726f6d206e6f6e2d7a65726f60448201527520746f206e6f6e2d7a65726f20616c6c6f77616e636560501b6064820152608490fd5b90506020813d602011611394575b8161138560209383611a7c565b8101031261059f575189610e49565b3d9150611378565b63162908e360e11b5f5260045ffd5b635990781360e01b5f5260045ffd5b3461059f575f36600319011261059f576040517f00000000000000000000000000000000000000000000000000000000000000006001600160a01b03168152602090f35b6119ee565b3461059f57604036600319011261059f5761098a61141f6119c2565b335f52600160205260405f2060018060a01b0382165f5260205261144a60405f206024359054611a9f565b9033611b08565b3461059f575f36600319011261059f57602060405160128152f35b3461059f57602036600319011261059f576004357f00000000000000000000000000000000000000000000000000000000000000006001600160a01b031633036116cc576114b8611d6f565b801561139c57335f525f6020528060405f205410611688576040516370a0823160e01b81523060048201527f00000000000000000000000000000000000000000000000000000000000000006001600160a01b031690602081602481855afa801561107e5783915f91611697575b501061168857331561163957335f525f60205260405f2054908282106115e957826115b092335f525f6020520360405f205582600254036002555f6040518481525f51602061238d5f395f51905f5260203392a360405163a9059cbb60e01b6020820152906115ab8261159d863360248401611dc5565b03601f198101845283611a7c565b612206565b6040519080825260208201527f92ccf450a286a957af52509bc1c9939d1a6a481783e142e41e2499f0bb66ebc660403392a26001600555005b60405162461bcd60e51b815260206004820152602260248201527f45524332303a206275726e20616d6f756e7420657863656564732062616c616e604482015261636560f01b6064820152608490fd5b60405162461bcd60e51b815260206004820152602160248201527f45524332303a206275726e2066726f6d20746865207a65726f206164647265736044820152607360f81b6064820152608490fd5b63bb55fd2760e01b5f5260045ffd5b9150506020813d6020116116c4575b816116b360209383611a7c565b8101031261059f5782905184611526565b3d91506116a6565b635fc483c560e01b5f5260045ffd5b3461059f57606036600319011261059f576116f46119c2565b6116fc6119d8565b6001600160a01b0382165f908152600160208181526040808420338552909152909120549260443592918401611737575b61098a9350611c0c565b8284106117535761174e8361098a95033383611b08565b61172d565b60405162461bcd60e51b815260206004820152601d60248201527f45524332303a20696e73756666696369656e7420616c6c6f77616e63650000006044820152606490fd5b3461059f575f36600319011261059f576020600254604051908152f35b3461059f575f36600319011261059f576040517f00000000000000000000000000000000000000000000000000000000000000006001600160a01b03168152602090f35b3461059f575f36600319011261059f576040517f00000000000000000000000000000000000000000000000000000000000000006001600160a01b03168152602090f35b3461059f575f36600319011261059f576040517f00000000000000000000000000000000000000000000000000000000000000006001600160a01b03168152602090f35b3461059f57604036600319011261059f5761098a61189d6119c2565b6024359033611b08565b3461059f575f36600319011261059f575f6003548060011c9060018116801561198e575b60208310811461197a5782855290811561195657506001146118f8575b610a9b83610a8f81850382611a7c565b60035f9081527fc2575a0e9e593c00f959f8c92f12db2869c3395a3b0502d05e2516446f71f85b939250905b80821061193c57509091508101602001610a8f6118e8565b919260018160209254838588010152019101909291611924565b60ff191660208086019190915291151560051b84019091019150610a8f90506118e8565b634e487b7160e01b5f52602260045260245ffd5b91607f16916118cb565b602060409281835280519182918282860152018484015e5f828201840152601f01601f1916010190565b600435906001600160a01b038216820361059f57565b602435906001600160a01b038216820361059f57565b3461059f575f36600319011261059f576040517f00000000000000000000000000000000000000000000000000000000000000006001600160a01b03168152602090f35b9181601f8401121561059f578235916001600160401b03831161059f576020808501948460051b01011161059f57565b6001600160a01b0391821681529116602082015260400190565b601f909101601f19168101906001600160401b038211908210176112f257604052565b91908201809211611aac57565b634e487b7160e01b5f52601160045260245ffd5b6040919493926060820195825260208201520152565b6001600160a01b0391821681529181166020830152909116604082015265ffffffffffff909116606082015260800190565b6001600160a01b0316908115611bbb576001600160a01b0316918215611b6b5760207f8c5be1e5ebec7d5bd14f71427d1e84f3dd0314c0f7b2291e5b200ac8c7c3b92591835f526001825260405f20855f5282528060405f2055604051908152a3565b60405162461bcd60e51b815260206004820152602260248201527f45524332303a20617070726f766520746f20746865207a65726f206164647265604482015261737360f01b6064820152608490fd5b60405162461bcd60e51b8152602060048201526024808201527f45524332303a20617070726f76652066726f6d20746865207a65726f206164646044820152637265737360e01b6064820152608490fd5b6001600160a01b0316908115611d1c576001600160a01b0316918215611ccb57815f525f60205260405f2054818110611c7757815f51602061238d5f395f51905f5292602092855f525f84520360405f2055845f525f825260405f20818154019055604051908152a3565b60405162461bcd60e51b815260206004820152602660248201527f45524332303a207472616e7366657220616d6f756e7420657863656564732062604482015265616c616e636560d01b6064820152608490fd5b60405162461bcd60e51b815260206004820152602360248201527f45524332303a207472616e7366657220746f20746865207a65726f206164647260448201526265737360e81b6064820152608490fd5b60405162461bcd60e51b815260206004820152602560248201527f45524332303a207472616e736665722066726f6d20746865207a65726f206164604482015264647265737360d81b6064820152608490fd5b600260055414611d80576002600555565b60405162461bcd60e51b815260206004820152601f60248201527f5265656e7472616e637947756172643a207265656e7472616e742063616c6c006044820152606490fd5b6001600160a01b039091168152602081019190915260400190565b611e1f906040519063095ea7b360e01b60208301526e22d473030f116ddee9f6b43ac78ba360248301525f6044830152604482526115ab606483611a7c565b565b9080158015611e6e575b1561130657611e1f916040519163095ea7b360e01b60208401526e22d473030f116ddee9f6b43ac78ba360248401526044830152604482526115ab606483611a7c565b50604051636eb1769f60e11b81523060048201526e22d473030f116ddee9f6b43ac78ba360248201526020816044816001600160a01b0387165afa90811561107e575f91611ebe575b5015611e2b565b90506020813d602011611ee8575b81611ed960209383611a7c565b8101031261059f57515f611eb7565b3d9150611ecc565b9190811015611f125760051b81013590605e198136030182121561059f570190565b634e487b7160e01b5f52603260045260245ffd5b356001600160a01b038116810361059f5790565b903590601e198136030182121561059f57018035906001600160401b03821161059f5760200191813603831361059f57565b3d15611fa5573d906001600160401b0382116112f25760405191611f9a601f8201601f191660200184611a7c565b82523d5f602084013e565b606090565b5f5b828110611fb95750505050565b611fcc611fc7828585611ef0565b611f26565b6001600160a01b038581169116810361217d5750611ff8611fee828585611ef0565b6020810190611f3a565b60041161059f57356001600160e01b0319166307ed237960e01b81036120cc5750612027611fee828585611ef0565b60a41161059f57608401356001600160a01b0316801515806120c2575b6120b057505b5f8061205a611fc7848787611ef0565b6040612067858888611ef0565b0135612077611fee868989611ef0565b9190826040519384928337810185815203925af1612093611f6c565b50156120a157600101611fac565b6316e128d760e31b5f5260045ffd5b6381460e5d60e01b5f5260045260245ffd5b5030811415612044565b6341c0054760e11b8114158061216c575b8061215b575b8061214a575b80612139575b80612128575b80612117575b612105575061204a565b631583962960e31b5f5260045260245ffd5b5063d2d374e560e01b8114156120fb565b5063188ac35d60e01b8114156120f5565b506344d7c93560e11b8114156120ef565b5063a76dfc3b60e01b8114156120e9565b50630c9b3a3960e11b8114156120e3565b50638770ba9160e01b8114156120dd565b61218b611fee838686611ef0565b60041161059f57356001600160e01b03191663f6a1584d60e01b81016121f457506121ba611fee838686611ef0565b60241161059f57600401359060018060a01b03821680920361059f5781036121e2575061204a565b63561db53b60e11b5f5260045260245ffd5b63836e86a560e01b5f5260045260245ffd5b906122669160018060a01b03165f8060405193612224604086611a7c565b602085527f5361666545524332303a206c6f772d6c6576656c2063616c6c206661696c6564602086015260208151910182855af1612260611f6c565b916122f7565b80519081159182156122d4575b50501561227c57565b60405162461bcd60e51b815260206004820152602a60248201527f5361666545524332303a204552433230206f7065726174696f6e20646964206e6044820152691bdd081cdd58d8d9595960b21b6064820152608490fd5b819250906020918101031261059f5760200151801515810361059f575f80612273565b91929015612359575081511561230b575090565b3b156123145790565b60405162461bcd60e51b815260206004820152601d60248201527f416464726573733a2063616c6c20746f206e6f6e2d636f6e74726163740000006044820152606490fd5b82519091501561236c5750805190602001fd5b60405162461bcd60e51b81529081906123889060048301611998565b0390fdfeddf252ad1be2c89b69c2b068fc378daa952ba7f163c4a11628f55a4df523b3efa2646970667358221220af671b433c9ccad3a532422faee2c827c34604df8dd04257ea45c962b627bd8c64736f6c634300081c0033","linkReferences":{}},"methodIdentifiers":{"PERMIT2()":"6afdd850","allowance(address,address)":"dd62ed3e","approve(address,uint256)":"095ea7b3","balanceOf(address)":"70a08231","balancerRouter()":"49ec8b38","balancerVault()":"158274a5","controller()":"f77c4791","decimals()":"313ce567","decreaseAllowance(address,uint256)":"a457c2d7","deposit(uint256)":"b6b55f25","divest(uint256,uint256[],(address,bytes,uint256)[])":"4f7dbdc5","increaseAllowance(address,uint256)":"39509351","invest((address,bytes,uint256)[],uint256,uint256,uint256)":"e51aaf24","name()":"06fdde03","owner()":"8da5cb5b","pool()":"16f0115b","router()":"f887ea40","setController(address)":"92eefe9b","symbol()":"95d89b41","token0()":"0dfe1681","token1()":"d21220a7","totalSupply()":"18160ddd","transfer(address,uint256)":"a9059cbb","transferFrom(address,address,uint256)":"23b872dd","usdc()":"3e413bee","want()":"1f1fcd51","wants()":"65844934","withdraw(uint256)":"2e1a7d4d"},"id":140}