{"abi":[{"type":"constructor","inputs":[{"name":"_owner","type":"address","internalType":"address"},{"name":"_usdc","type":"address","internalType":"address"},{"name":"_balancerVault","type":"address","internalType":"address"},{"name":"_balancerRouter","type":"address","internalType":"address"},{"name":"_pool","type":"address","internalType":"address"},{"name":"_token0","type":"address","internalType":"address"},{"name":"_token1","type":"address","internalType":"address"},{"name":"_router","type":"address","internalType":"address"},{"name":"_name","type":"string","internalType":"string"},{"name":"_symbol","type":"string","internalType":"string"}],"stateMutability":"nonpayable"},{"type":"function","name":"PERMIT2","inputs":[],"outputs":[{"name":"","type":"address","internalType":"address"}],"stateMutability":"view"},{"type":"function","name":"allowance","inputs":[{"name":"owner","type":"address","internalType":"address"},{"name":"spender","type":"address","internalType":"address"}],"outputs":[{"name":"","type":"uint256","internalType":"uint256"}],"stateMutability":"view"},{"type":"function","name":"approve","inputs":[{"name":"spender","type":"address","internalType":"address"},{"name":"amount","type":"uint256","internalType":"uint256"}],"outputs":[{"name":"","type":"bool","internalType":"bool"}],"stateMutability":"nonpayable"},{"type":"function","name":"balanceOf","inputs":[{"name":"account","type":"address","internalType":"address"}],"outputs":[{"name":"","type":"uint256","internalType":"uint256"}],"stateMutability":"view"},{"type":"function","name":"balancerRouter","inputs":[],"outputs":[{"name":"","type":"address","internalType":"address"}],"stateMutability":"view"},{"type":"function","name":"balancerVault","inputs":[],"outputs":[{"name":"","type":"address","internalType":"address"}],"stateMutability":"view"},{"type":"function","name":"controller","inputs":[],"outputs":[{"name":"","type":"address","internalType":"address"}],"stateMutability":"view"},{"type":"function","name":"decimals","inputs":[],"outputs":[{"name":"","type":"uint8","internalType":"uint8"}],"stateMutability":"view"},{"type":"function","name":"decreaseAllowance","inputs":[{"name":"spender","type":"address","internalType":"address"},{"name":"subtractedValue","type":"uint256","internalType":"uint256"}],"outputs":[{"name":"","type":"bool","internalType":"bool"}],"stateMutability":"nonpayable"},{"type":"function","name":"deposit","inputs":[{"name":"assets","type":"uint256","internalType":"uint256"}],"outputs":[],"stateMutability":"nonpayable"},{"type":"function","name":"divest","inputs":[{"name":"bptAmountIn","type":"uint256","internalType":"uint256"},{"name":"minAmountsOut","type":"uint256[]","internalType":"uint256[]"},{"name":"swapCalls","type":"tuple[]","internalType":"struct SwapCall[]","components":[{"name":"target","type":"address","internalType":"address"},{"name":"data","type":"bytes","internalType":"bytes"},{"name":"value","type":"uint256","internalType":"uint256"}]}],"outputs":[],"stateMutability":"nonpayable"},{"type":"function","name":"increaseAllowance","inputs":[{"name":"spender","type":"address","internalType":"address"},{"name":"addedValue","type":"uint256","internalType":"uint256"}],"outputs":[{"name":"","type":"bool","internalType":"bool"}],"stateMutability":"nonpayable"},{"type":"function","name":"invest","inputs":[{"name":"swapCalls","type":"tuple[]","internalType":"struct SwapCall[]","components":[{"name":"target","type":"address","internalType":"address"},{"name":"data","type":"bytes","internalType":"bytes"},{"name":"value","type":"uint256","internalType":"uint256"}]},{"name":"minAmount0","type":"uint256","internalType":"uint256"},{"name":"minAmount1","type":"uint256","internalType":"uint256"},{"name":"minBptAmountOut","type":"uint256","internalType":"uint256"}],"outputs":[],"stateMutability":"nonpayable"},{"type":"function","name":"name","inputs":[],"outputs":[{"name":"","type":"string","internalType":"string"}],"stateMutability":"view"},{"type":"function","name":"owner","inputs":[],"outputs":[{"name":"","type":"address","internalType":"address"}],"stateMutability":"view"},{"type":"function","name":"pool","inputs":[],"outputs":[{"name":"","type":"address","internalType":"address"}],"stateMutability":"view"},{"type":"function","name":"router","inputs":[],"outputs":[{"name":"","type":"address","internalType":"address"}],"stateMutability":"view"},{"type":"function","name":"setController","inputs":[{"name":"_controller","type":"address","internalType":"address"}],"outputs":[],"stateMutability":"nonpayable"},{"type":"function","name":"symbol","inputs":[],"outputs":[{"name":"","type":"string","internalType":"string"}],"stateMutability":"view"},{"type":"function","name":"token0","inputs":[],"outputs":[{"name":"","type":"address","internalType":"address"}],"stateMutability":"view"},{"type":"function","name":"token1","inputs":[],"outputs":[{"name":"","type":"address","internalType":"address"}],"stateMutability":"view"},{"type":"function","name":"totalSupply","inputs":[],"outputs":[{"name":"","type":"uint256","internalType":"uint256"}],"stateMutability":"view"},{"type":"function","name":"transfer","inputs":[{"name":"to","type":"address","internalType":"address"},{"name":"amount","type":"uint256","internalType":"uint256"}],"outputs":[{"name":"","type":"bool","internalType":"bool"}],"stateMutability":"nonpayable"},{"type":"function","name":"transferFrom","inputs":[{"name":"from","type":"address","internalType":"address"},{"name":"to","type":"address","internalType":"address"},{"name":"amount","type":"uint256","internalType":"uint256"}],"outputs":[{"name":"","type":"bool","internalType":"bool"}],"stateMutability":"nonpayable"},{"type":"function","name":"usdc","inputs":[],"outputs":[{"name":"","type":"address","internalType":"address"}],"stateMutability":"view"},{"type":"function","name":"want","inputs":[],"outputs":[{"name":"","type":"address","internalType":"address"}],"stateMutability":"view"},{"type":"function","name":"wants","inputs":[],"outputs":[{"name":"","type":"address","internalType":"address"},{"name":"","type":"address","internalType":"address"}],"stateMutability":"view"},{"type":"function","name":"withdraw","inputs":[{"name":"shares","type":"uint256","internalType":"uint256"}],"outputs":[],"stateMutability":"nonpayable"},{"type":"event","name":"Approval","inputs":[{"name":"owner","type":"address","indexed":true,"internalType":"address"},{"name":"spender","type":"address","indexed":true,"internalType":"address"},{"name":"value","type":"uint256","indexed":false,"internalType":"uint256"}],"anonymous":false},{"type":"event","name":"ControllerUpdated","inputs":[{"name":"newController","type":"address","indexed":true,"internalType":"address"}],"anonymous":false},{"type":"event","name":"Deposited","inputs":[{"name":"user","type":"address","indexed":true,"internalType":"address"},{"name":"assets","type":"uint256","indexed":false,"internalType":"uint256"},{"name":"shares","type":"uint256","indexed":false,"internalType":"uint256"}],"anonymous":false},{"type":"event","name":"Divested","inputs":[{"name":"amount0","type":"uint256","indexed":false,"internalType":"uint256"},{"name":"amount1","type":"uint256","indexed":false,"internalType":"uint256"},{"name":"usdcReceived","type":"uint256","indexed":false,"internalType":"uint256"}],"anonymous":false},{"type":"event","name":"Invested","inputs":[{"name":"usdcSpent","type":"uint256","indexed":false,"internalType":"uint256"},{"name":"amount0","type":"uint256","indexed":false,"internalType":"uint256"},{"name":"amount1","type":"uint256","indexed":false,"internalType":"uint256"}],"anonymous":false},{"type":"event","name":"Transfer","inputs":[{"name":"from","type":"address","indexed":true,"internalType":"address"},{"name":"to","type":"address","indexed":true,"internalType":"address"},{"name":"value","type":"uint256","indexed":false,"internalType":"uint256"}],"anonymous":false},{"type":"event","name":"Withdrawn","inputs":[{"name":"user","type":"address","indexed":true,"internalType":"address"},{"name":"assets","type":"uint256","indexed":false,"internalType":"uint256"},{"name":"shares","type":"uint256","indexed":false,"internalType":"uint256"}],"anonymous":false},{"type":"error","name":"InsufficientLiquidity","inputs":[]},{"type":"error","name":"Invalid","inputs":[{"name":"selector","type":"bytes4","internalType":"bytes4"}]},{"type":"error","name":"InvalidAmount","inputs":[]},{"type":"error","name":"InvalidApproveSpender","inputs":[{"name":"spender","type":"address","internalType":"address"}]},{"type":"error","name":"InvalidSwapReceiver","inputs":[{"name":"receiver","type":"address","internalType":"address"}]},{"type":"error","name":"OnlyController","inputs":[]},{"type":"error","name":"OnlyOwner","inputs":[]},{"type":"error","name":"SwapFail","inputs":[]},{"type":"error","name":"TokensNotFullyConverted","inputs":[]},{"type":"error","name":"UnsafeRouterSelector","inputs":[{"name":"selector","type":"bytes4","internalType":"bytes4"}]}],"bytecode":{"object":"0x6101806040523461019a5761002761001561039c565b98979097969196959295949394610807565b61002f61019f565b61474a610ca182396080518181816106a101528181610ee1015281816110e20152818161117a0152818161184501528181611985015281816119e4015281816120dc0152612956015260a0518161040a015260c0518181816106fa01528181611605015281816116610152818161169301528181612751015281816127fe01526128be015260e051818181610463015281816115df0152818161163b015281816116c801526128f501526101005181818161038f015281816117280152818161195e01528181611b3c01528181611cbf015281816124ec01528181612600015281816126430152612730015261012051818181610ad6015281816117a4015281816119bd01528181611a4e01528181611ce1015281816125680152818161267e015281816126c101526127dc015261014051818181610ca10152818161192c0152612b7801526101605181818161097601528181610f3b01528181611d40015261204b015261474a90f35b6101a5565b60405190565b5f80fd5b601f801991011690565b634e487b7160e01b5f52604160045260245ffd5b906101d1906101a9565b810190811060018060401b038211176101e957604052565b6101b3565b906102016101fa61019f565b92836101c7565b565b5f80fd5b5f80fd5b60018060a01b031690565b61021f9061020b565b90565b61022b81610216565b0361023257565b5f80fd5b9050519061024382610222565b565b5f80fd5b5f80fd5b60018060401b038111610269576102656020916101a9565b0190565b6101b3565b90825f9392825e0152565b9092919261028e6102898261024d565b6101ee565b938185526020850190828401116102aa576102a89261026e565b565b610249565b9080601f830112156102cd578160206102ca93519101610279565b90565b610245565b9061014082820312610397576102ea815f8401610236565b926102f88260208501610236565b926103068360408301610236565b926103148160608401610236565b926103228260808501610236565b926103308360a08301610236565b9261033e8160c08401610236565b9261034c8260e08501610236565b9261010081015160018060401b038111610392578361036c9183016102af565b9261012082015160018060401b03811161038d5761038a92016102af565b90565b610207565b610207565b610203565b6103ba6153eb803803806103af816101ee565b9283398101906102d2565b90919293949596979899565b90565b90565b6103e06103db6103e5926103c6565b6103c9565b61020b565b90565b6103f1906103cc565b90565b60209181520190565b5f7f496e76616c6964206f776e657200000000000000000000000000000000000000910152565b610431600d6020926103f4565b61043a816103fd565b0190565b6104539060208101905f818303910152610424565b90565b1561045d57565b61046561019f565b62461bcd60e51b81528061047b6004820161043e565b0390fd5b5f7f496e76616c696420555344430000000000000000000000000000000000000000910152565b6104b3600c6020926103f4565b6104bc8161047f565b0190565b6104d59060208101905f8183039101526104a6565b90565b156104df57565b6104e761019f565b62461bcd60e51b8152806104fd600482016104c0565b0390fd5b5f7f496e76616c69642042616c616e636572205661756c7400000000000000000000910152565b61053560166020926103f4565b61053e81610501565b0190565b6105579060208101905f818303910152610528565b90565b1561056157565b61056961019f565b62461bcd60e51b81528061057f60048201610542565b0390fd5b5f7f496e76616c69642042616c616e63657220526f75746572000000000000000000910152565b6105b760176020926103f4565b6105c081610583565b0190565b6105d99060208101905f8183039101526105aa565b90565b156105e357565b6105eb61019f565b62461bcd60e51b815280610601600482016105c4565b0390fd5b5f7f496e76616c696420706f6f6c0000000000000000000000000000000000000000910152565b610639600c6020926103f4565b61064281610605565b0190565b61065b9060208101905f81830391015261062c565b90565b1561066557565b61066d61019f565b62461bcd60e51b81528061068360048201610646565b0390fd5b5f7f496e76616c696420706f6f6c20746f6b656e7300000000000000000000000000910152565b6106bb60136020926103f4565b6106c481610687565b0190565b6106dd9060208101905f8183039101526106ae565b90565b156106e757565b6106ef61019f565b62461bcd60e51b815280610705600482016106c8565b0390fd5b5f7f496e76616c696420726f75746572000000000000000000000000000000000000910152565b61073d600e6020926103f4565b61074681610709565b0190565b61075f9060208101905f818303910152610730565b90565b1561076957565b61077161019f565b62461bcd60e51b8152806107876004820161074a565b0390fd5b5f1b90565b906107a160018060a01b039161078b565b9181191691161790565b6107bf6107ba6107c49261020b565b6103c9565b61020b565b90565b6107d0906107ab565b90565b6107dc906107c7565b90565b90565b906107f76107f26107fe926107d3565b6107df565b8254610790565b9055565b5f0190565b986108189192939495969798610a38565b61083d8861083661083061082b5f6103e8565b610216565b91610216565b1415610456565b6108628161085b6108556108505f6103e8565b610216565b91610216565b14156104d8565b6108878261088061087a6108755f6103e8565b610216565b91610216565b141561055a565b6108ac836108a561089f61089a5f6103e8565b610216565b91610216565b14156105dc565b6108d1846108ca6108c46108bf5f6103e8565b610216565b91610216565b141561065e565b846108ec6108e66108e15f6103e8565b610216565b91610216565b14158061098c575b6108fd906106e0565b6109228761091b6109156109105f6103e8565b610216565b91610216565b1415610762565b876101605260805260a05260c05260e05261010052610120526101405261094a8160066107e2565b6109747f1304018cfe79741dcf02ba6b61d39cc4757d59395d03224d9925c7aa83002146916107d3565b9061097d61019f565b8061098781610802565b0390a2565b506108fd866109ab6109a56109a05f6103e8565b610216565b91610216565b141590506108f4565b90565b90565b6109ce6109c96109d3926109b4565b6103c9565b6109b7565b90565b6109e060016109ba565b90565b906109ef5f199161078b565b9181191691161790565b610a0d610a08610a12926109b7565b6103c9565b6109b7565b90565b90565b90610a2d610a28610a34926109f9565b610a15565b82546109e3565b9055565b90610a4291610c88565b610a54610a4d6109d6565b6005610a18565b565b5190565b634e487b7160e01b5f52602260045260245ffd5b9060016002830492168015610a8e575b6020831014610a8957565b610a5a565b91607f1691610a7e565b5f5260205f2090565b601f602091010490565b1b90565b91906008610aca910291610ac45f1984610aab565b92610aab565b9181191691161790565b9190610aea610ae5610af2936109f9565b610a15565b908354610aaf565b9055565b5f90565b610b0c91610b06610af6565b91610ad4565b565b5b818110610b1a575050565b80610b275f600193610afa565b01610b0f565b9190601f8111610b3d575b505050565b610b49610b6e93610a98565b906020610b5584610aa1565b83019310610b76575b610b6790610aa1565b0190610b0e565b5f8080610b38565b9150610b6781929050610b5e565b1c90565b90610b98905f1990600802610b84565b191690565b81610ba791610b88565b906002021790565b90610bb981610a56565b9060018060401b038211610c7757610bdb82610bd58554610a6e565b85610b2d565b602090601f8311600114610c0f57918091610bfe935f92610c03575b5050610b9d565b90555b565b90915001515f80610bf7565b601f19831691610c1e85610a98565b925f5b818110610c5f57509160029391856001969410610c45575b50505002019055610c01565b610c55910151601f841690610b88565b90555f8080610c39565b91936020600181928787015181550195019201610c21565b6101b3565b90610c8691610baf565b565b90610c97610c9e926003610c7c565b6004610c7c565b56fe60806040526004361015610013575b610cf8565b61001d5f356101dc565b806306fdde03146101d7578063095ea7b3146101d25780630dfe1681146101cd578063158274a5146101c857806316f0115b146101c357806318160ddd146101be5780631f1fcd51146101b957806323b872dd146101b45780632e1a7d4d146101af578063313ce567146101aa57806339509351146101a55780633e413bee146101a057806349ec8b381461019b5780634f7dbdc51461019657806365844934146101915780636afdd8501461018c57806370a08231146101875780638da5cb5b1461018257806392eefe9b1461017d57806395d89b4114610178578063a457c2d714610173578063a9059cbb1461016e578063b6b55f2514610169578063d21220a714610164578063dd62ed3e1461015f578063e51aaf241461015a578063f77c4791146101555763f887ea400361000e57610cc3565b610c6a565b610bef565b610b5a565b610af8565b610aa1565b610a6b565b610a35565b610a00565b6109cd565b610998565b61093f565b6108ec565b610898565b61083e565b61071c565b6106c3565b610669565b610634565b6105d9565b610580565b610511565b6104dc565b610485565b61042c565b6103d3565b610357565b61026a565b60e01c90565b60405190565b5f80fd5b5f80fd5b5f9103126101fa57565b6101ec565b5190565b60209181520190565b90825f9392825e0152565b601f801991011690565b61024061024960209361024e93610237816101ff565b93848093610203565b9586910161020c565b610217565b0190565b6102679160208201915f818403910152610221565b90565b3461029a5761027a3660046101f0565b610296610285610e53565b61028d6101e2565b91829182610252565b0390f35b6101e8565b5f80fd5b60018060a01b031690565b6102b7906102a3565b90565b6102c3816102ae565b036102ca57565b5f80fd5b905035906102db826102ba565b565b90565b6102e9816102dd565b036102f057565b5f80fd5b90503590610301826102e0565b565b919060408382031261032b578061031f610328925f86016102ce565b936020016102f4565b90565b6101ec565b151590565b61033e90610330565b9052565b9190610355905f60208501940190610335565b565b346103885761038461037361036d366004610303565b90610e6d565b61037b6101e2565b91829182610342565b0390f35b6101e8565b7f000000000000000000000000000000000000000000000000000000000000000090565b6103ba906102ae565b9052565b91906103d1905f602085019401906103b1565b565b34610403576103e33660046101f0565b6103ff6103ee61038d565b6103f66101e2565b918291826103be565b0390f35b6101e8565b7f000000000000000000000000000000000000000000000000000000000000000090565b3461045c5761043c3660046101f0565b610458610447610408565b61044f6101e2565b918291826103be565b0390f35b6101e8565b7f000000000000000000000000000000000000000000000000000000000000000090565b346104b5576104953660046101f0565b6104b16104a0610461565b6104a86101e2565b918291826103be565b0390f35b6101e8565b6104c3906102dd565b9052565b91906104da905f602085019401906104ba565b565b3461050c576104ec3660046101f0565b6105086104f7610ebc565b6104ff6101e2565b918291826104c7565b0390f35b6101e8565b34610541576105213660046101f0565b61053d61052c610ed6565b6105346101e2565b918291826103be565b0390f35b6101e8565b909160608284031261057b57610578610561845f85016102ce565b9361056f81602086016102ce565b936040016102f4565b90565b6101ec565b346105b1576105ad61059c610596366004610546565b91610f03565b6105a46101e2565b91829182610342565b0390f35b6101e8565b906020828203126105cf576105cc915f016102f4565b90565b6101ec565b5f0190565b34610607576105f16105ec3660046105b6565b611274565b6105f96101e2565b80610603816105d4565b0390f35b6101e8565b60ff1690565b61061b9061060c565b9052565b9190610632905f60208501940190610612565b565b34610664576106443660046101f0565b61066061064f6112a2565b6106576101e2565b9182918261061f565b0390f35b6101e8565b3461069a5761069661068561067f366004610303565b906112f1565b61068d6101e2565b91829182610342565b0390f35b6101e8565b7f000000000000000000000000000000000000000000000000000000000000000090565b346106f3576106d33660046101f0565b6106ef6106de61069f565b6106e66101e2565b918291826103be565b0390f35b6101e8565b7f000000000000000000000000000000000000000000000000000000000000000090565b3461074c5761072c3660046101f0565b6107486107376106f8565b61073f6101e2565b918291826103be565b0390f35b6101e8565b5f80fd5b5f80fd5b5f80fd5b909182601f830112156107955781359160018060401b03831161079057602001926020830284011161078b57565b610759565b610755565b610751565b909182601f830112156107d25781359160018060401b0383116107cd5760200192602083028401116107c857565b610759565b610755565b610751565b606081830312610839576107ed825f83016102f4565b92602082013560018060401b038111610834578361080c91840161075d565b929093604082013560018060401b03811161082f5761082b920161079a565b9091565b61029f565b61029f565b6101ec565b346108705761085a6108513660046107d7565b93929092611c9c565b6108626101e2565b8061086c816105d4565b0390f35b6101e8565b91602061089692949361088f60408201965f8301906103b1565b01906103b1565b565b346108c9576108a83660046101f0565b6108b0611cab565b906108c56108bc6101e2565b92839283610875565b0390f35b6101e8565b6e22d473030f116ddee9f6b43ac78ba390565b6108e96108ce565b90565b3461091c576108fc3660046101f0565b6109186109076108e1565b61090f6101e2565b918291826103be565b0390f35b6101e8565b9060208282031261093a57610937915f016102ce565b90565b6101ec565b3461096f5761096b61095a610955366004610921565b611d19565b6109626101e2565b918291826104c7565b0390f35b6101e8565b7f000000000000000000000000000000000000000000000000000000000000000090565b346109c8576109a83660046101f0565b6109c46109b3610974565b6109bb6101e2565b918291826103be565b0390f35b6101e8565b346109fb576109e56109e0366004610921565b611ef5565b6109ed6101e2565b806109f7816105d4565b0390f35b6101e8565b34610a3057610a103660046101f0565b610a2c610a1b611f00565b610a236101e2565b91829182610252565b0390f35b6101e8565b34610a6657610a62610a51610a4b366004610303565b90611fcc565b610a596101e2565b91829182610342565b0390f35b6101e8565b34610a9c57610a98610a87610a81366004610303565b90612020565b610a8f6101e2565b91829182610342565b0390f35b6101e8565b34610acf57610ab9610ab43660046105b6565b612181565b610ac16101e2565b80610acb816105d4565b0390f35b6101e8565b7f000000000000000000000000000000000000000000000000000000000000000090565b34610b2857610b083660046101f0565b610b24610b13610ad4565b610b1b6101e2565b918291826103be565b0390f35b6101e8565b9190604083820312610b555780610b49610b52925f86016102ce565b936020016102ce565b90565b6101ec565b34610b8b57610b87610b76610b70366004610b2d565b906121a2565b610b7e6101e2565b918291826104c7565b0390f35b6101e8565b90608082820312610bea575f82013560018060401b038111610be55781610bb891840161079a565b929093610be2610bcb84602085016102f4565b93610bd981604086016102f4565b936060016102f4565b90565b61029f565b6101ec565b34610c2157610c0b610c02366004610b90565b93929092612ba4565b610c136101e2565b80610c1d816105d4565b0390f35b6101e8565b1c90565b60018060a01b031690565b610c45906008610c4a9302610c26565b610c2a565b90565b90610c589154610c35565b90565b610c6760065f90610c4d565b90565b34610c9a57610c7a3660046101f0565b610c96610c85610c5b565b610c8d6101e2565b918291826103be565b0390f35b6101e8565b7f000000000000000000000000000000000000000000000000000000000000000090565b34610cf357610cd33660046101f0565b610cef610cde610c9f565b610ce66101e2565b918291826103be565b0390f35b6101e8565b5f80fd5b606090565b634e487b7160e01b5f52602260045260245ffd5b9060016002830492168015610d35575b6020831014610d3057565b610d01565b91607f1691610d25565b60209181520190565b5f5260205f2090565b905f9291805490610d6b610d6483610d15565b8094610d3f565b916001811690815f14610dc25750600114610d86575b505050565b610d939192939450610d48565b915f925b818410610daa57505001905f8080610d81565b60018160209295939554848601520191019290610d97565b92949550505060ff19168252151560200201905f8080610d81565b90610de791610d51565b90565b634e487b7160e01b5f52604160045260245ffd5b90610e0890610217565b810190811060018060401b03821117610e2057604052565b610dea565b90610e45610e3e92610e356101e2565b93848092610ddd565b0383610dfe565b565b610e5090610e25565b90565b610e5b610cfc565b50610e666003610e47565b90565b5f90565b610e8a91610e79610e69565b50610e82612bb3565b919091612d65565b600190565b5f90565b5f1c90565b90565b610ea7610eac91610e93565b610e98565b90565b610eb99054610e9b565b90565b610ec4610e8f565b50610ecf6002610eaf565b90565b5f90565b610ede610ed2565b507f000000000000000000000000000000000000000000000000000000000000000090565b91610f2d92610f10610e69565b50610f25610f1c612bb3565b82908491612ea3565b919091613110565b600190565b33610f65610f5f7f00000000000000000000000000000000000000000000000000000000000000006102ae565b916102ae565b03610f7557610f7390610f91565b565b5f635fc483c560e01b815280610f8d600482016105d4565b0390fd5b610fa290610f9d6132b0565b61109c565b610faa6132fe565b565b90565b90565b610fc6610fc1610fcb92610fac565b610faf565b6102dd565b90565b610fe2610fdd610fe7926102a3565b610faf565b6102a3565b90565b610ff390610fce565b90565b610fff90610fea565b90565b61100b90610fce565b90565b61101790611002565b90565b61102390611002565b90565b5f80fd5b60e01b90565b9050519061103d826102e0565b565b9060208282031261105857611055915f01611030565b90565b6101ec565b6110656101e2565b3d5f823e3d90fd5b61107690611002565b90565b91602061109a92949361109360408201965f8301906104ba565b01906104ba565b565b806110af6110a95f610fb2565b916102dd565b14611258576110bd33611d19565b6110cf6110c9836102dd565b916102dd565b1061123c578061113d602061110b6111067f0000000000000000000000000000000000000000000000000000000000000000610ff6565b61100e565b6370a082319061113261111d3061101a565b926111266101e2565b9586948593849361102a565b8352600483016103be565b03915afa908115611237575f91611209575b5061116261115c836102dd565b916102dd565b106111ed57611172338390613462565b6111a661119e7f0000000000000000000000000000000000000000000000000000000000000000610ff6565b33839161359e565b3390916111d37f92ccf450a286a957af52509bc1c9939d1a6a481783e142e41e2499f0bb66ebc69261106d565b926111e86111df6101e2565b92839283611079565b0390a2565b5f63bb55fd2760e01b815280611205600482016105d4565b0390fd5b61122a915060203d8111611230575b6112228183610dfe565b81019061103f565b5f61114f565b503d611218565b61105d565b5f63bb55fd2760e01b815280611254600482016105d4565b0390fd5b5f63162908e360e11b815280611270600482016105d4565b0390fd5b61127d90610f32565b565b5f90565b90565b61129a61129561129f92611283565b610faf565b61060c565b90565b6112aa61127f565b506112b56012611286565b90565b634e487b7160e01b5f52601160045260245ffd5b6112db6112e1919392936102dd565b926102dd565b82018092116112ec57565b6112b8565b611321916112fd610e69565b5061131b611309612bb3565b91611316839480946121a2565b6112cc565b91612d65565b600190565b61133261133791610e93565b610c2a565b90565b6113449054611326565b90565b939291903361136761136161135c600661133a565b6102ae565b916102ae565b036113775761137594611393565b565b5f635990781360e01b81528061138f600482016105d4565b0390fd5b906113a8949392916113a36132b0565b6115ba565b6113b06132fe565b565b6113bb90610fce565b90565b6113c7906113b2565b90565b6113d390611002565b90565b906113e96113e26101e2565b9283610dfe565b565b60018060401b0381116114015760208091020190565b610dea565b9092919261141b611416826113eb565b6113d6565b938185526020808601920283019281841161145857915b83831061143f5750505050565b6020809161144d8486611030565b815201920191611432565b610759565b9080601f8301121561147b5781602061147893519101611406565b90565b610751565b906020828203126114ae575f82015160018060401b0381116114a9576114a6920161145d565b90565b61029f565b6101ec565b60209181520190565b5f80fd5b9037565b9091826114d0916114b3565b9160018060fb1b0381116114f357829160206114ef92029384916114c0565b0190565b6114bc565b60209181520190565b61150c5f80926114f8565b0190565b9290611562959461154a9261153d6115559561153360a08901955f8a01906103b1565b60208801906104ba565b85830360408701526114c4565b926060830190610335565b6080818303910152611501565b90565b5090565b90565b61158061157b61158592611569565b610faf565b6102dd565b90565b6040906115b16115b894969593966115a760608401985f8501906104ba565b60208301906104ba565b01906104ba565b565b919091806115d06115ca5f610fb2565b916102dd565b14611c80575f916116336116037f0000000000000000000000000000000000000000000000000000000000000000610ff6565b7f000000000000000000000000000000000000000000000000000000000000000061162d86610fb2565b9161369d565b61168761165f7f0000000000000000000000000000000000000000000000000000000000000000610ff6565b7f0000000000000000000000000000000000000000000000000000000000000000849161369d565b611700836116bc6116b77f00000000000000000000000000000000000000000000000000000000000000006113be565b6113ca565b9261170b6351682750917f000000000000000000000000000000000000000000000000000000000000000096989084916116f46101e2565b9a8b998a98899761102a565b875260048701611510565b03925af18015611c7b57611c5b575b50611783602061175161174c7f0000000000000000000000000000000000000000000000000000000000000000610ff6565b61100e565b6370a08231906117786117633061101a565b9261176c6101e2565b9586948593849361102a565b8352600483016103be565b03915afa908115611c56575f91611c28575b50906117ff60206117cd6117c87f0000000000000000000000000000000000000000000000000000000000000000610ff6565b61100e565b6370a08231906117f46117df3061101a565b926117e86101e2565b9586948593849361102a565b8352600483016103be565b03915afa908115611c23575f91611bf5575b509261181e828290611565565b61183061182a5f610fb2565b916102dd565b11611925575b50506118a0602061186e6118697f0000000000000000000000000000000000000000000000000000000000000000610ff6565b61100e565b6370a08231906118956118803061101a565b926118896101e2565b9586948593849361102a565b8352600483016103be565b03915afa908115611920575f916118f2575b50909190916118ed7fd138202835e549fb0c26641233354786243cf5fca25b31e920a57f4fd835a349936118e46101e2565b93849384611588565b0390a1565b611913915060203d8111611919575b61190b8183610dfe565b81019061103f565b5f6118b2565b503d611901565b61105d565b61195191907f000000000000000000000000000000000000000000000000000000000000000091613c93565b61195c6103e861156c565b7f00000000000000000000000000000000000000000000000000000000000000006119af6119a97f00000000000000000000000000000000000000000000000000000000000000006102ae565b916102ae565b141580611b2e575b611b12577f0000000000000000000000000000000000000000000000000000000000000000611a0e611a087f00000000000000000000000000000000000000000000000000000000000000006102ae565b916102ae565b14159081611a3f575b50611a23575f80611836565b5f636fe2c6b160e11b815280611a3b600482016105d4565b0390fd5b611aa991506020611a77611a727f0000000000000000000000000000000000000000000000000000000000000000610ff6565b61100e565b6370a0823190611a9e611a893061101a565b92611a926101e2565b9687948593849361102a565b8352600483016103be565b03915afa918215611b0d575f92611ad5575b50611ac8611ace916102dd565b916102dd565b115f611a17565b611ace919250611afe611ac89160203d8111611b06575b611af68183610dfe565b81019061103f565b929150611abb565b503d611aec565b61105d565b5f636fe2c6b160e11b815280611b2a600482016105d4565b0390fd5b50611b976020611b65611b607f0000000000000000000000000000000000000000000000000000000000000000610ff6565b61100e565b6370a0823190611b8c611b773061101a565b92611b806101e2565b9586948593849361102a565b8352600483016103be565b03915afa908115611bf0575f91611bc2575b50611bbc611bb6836102dd565b916102dd565b116119b7565b611be3915060203d8111611be9575b611bdb8183610dfe565b81019061103f565b5f611ba9565b503d611bd1565b61105d565b611c16915060203d8111611c1c575b611c0e8183610dfe565b81019061103f565b5f611811565b503d611c04565b61105d565b611c49915060203d8111611c4f575b611c418183610dfe565b81019061103f565b5f611795565b503d611c37565b61105d565b611c76903d805f833e611c6e8183610dfe565b810190611480565b61171a565b61105d565b5f63162908e360e11b815280611c98600482016105d4565b0390fd5b90611ca994939291611347565b565b611cb3610ed2565b50611cbc610ed2565b507f0000000000000000000000000000000000000000000000000000000000000000907f000000000000000000000000000000000000000000000000000000000000000090565b90611d0d9061106d565b5f5260205260405f2090565b611d2f611d3491611d28610e8f565b505f611d03565b610eaf565b90565b33611d6a611d647f00000000000000000000000000000000000000000000000000000000000000006102ae565b916102ae565b03611d7a57611d7890611e83565b565b5f635fc483c560e01b815280611d92600482016105d4565b0390fd5b611daa611da5611daf92610fac565b610faf565b6102a3565b90565b611dbb90611d96565b90565b5f7f496e76616c696420636f6e74726f6c6c65720000000000000000000000000000910152565b611df26012602092610203565b611dfb81611dbe565b0190565b611e149060208101905f818303910152611de5565b90565b15611e1e57565b611e266101e2565b62461bcd60e51b815280611e3c60048201611dff565b0390fd5b5f1b90565b90611e5660018060a01b0391611e40565b9181191691161790565b90565b90611e78611e73611e7f9261106d565b611e60565b8254611e45565b9055565b611ea881611ea1611e9b611e965f611db2565b6102ae565b916102ae565b1415611e17565b611eb3816006611e63565b611edd7f1304018cfe79741dcf02ba6b61d39cc4757d59395d03224d9925c7aa830021469161106d565b90611ee66101e2565b80611ef0816105d4565b0390a2565b611efe90611d37565b565b611f08610cfc565b50611f136004610e47565b90565b60207f207a65726f000000000000000000000000000000000000000000000000000000917f45524332303a2064656372656173656420616c6c6f77616e63652062656c6f775f8201520152565b611f706025604092610203565b611f7981611f16565b0190565b611f929060208101905f818303910152611f63565b90565b15611f9c57565b611fa46101e2565b62461bcd60e51b815280611fba60048201611f7d565b0390fd5b90611fc991036102dd565b90565b61201b91611fd8610e69565b50612015611fe4612bb3565b91611ff08385906121a2565b9261200e84612007612001856102dd565b916102dd565b1015611f95565b9392611fbe565b91612d65565b600190565b61203d9161202c610e69565b50612035612bb3565b919091613110565b600190565b3361207561206f7f00000000000000000000000000000000000000000000000000000000000000006102ae565b916102ae565b0361208557612083906120a1565b565b5f635fc483c560e01b81528061209d600482016105d4565b0390fd5b6120b2906120ad6132b0565b6120bc565b6120ba6132fe565b565b806120cf6120c95f610fb2565b916102dd565b14612165576121126121007f0000000000000000000000000000000000000000000000000000000000000000610ff6565b3361210a3061101a565b908492614132565b8061211e338390614203565b33909161214b7f73a19dd210f1a7f902193214c0ee91dd35ee5b4d920cba8d519eca65a7b488ca9261106d565b926121606121576101e2565b92839283611079565b0390a2565b5f63162908e360e11b81528061217d600482016105d4565b0390fd5b61218a90612042565b565b906121969061106d565b5f5260205260405f2090565b6121c7916121bd6121c2926121b5610e8f565b50600161218c565b611d03565b610eaf565b90565b93929190336121ea6121e46121df600661133a565b6102ae565b916102ae565b036121fa576121f894612216565b565b5f635990781360e01b815280612212600482016105d4565b0390fd5b9061222b949392916122266132b0565b6124b6565b6122336132fe565b565b90565b61224c61224761225192612235565b610faf565b6102dd565b90565b65ffffffffffff1690565b61227361226e612278926102dd565b610faf565b612254565b90565b61228490610fce565b90565b6122909061227b565b90565b61229c90611002565b90565b6122b36122ae6122b8926102dd565b610faf565b6102a3565b90565b5f9103126122c557565b6101ec565b6122d3906102a3565b9052565b6122e090612254565b9052565b6123196123209461230f606094989795612305608086019a5f8701906103b1565b60208501906103b1565b60408301906122ca565b01906122d7565b565b90565b61233961233461233e92612322565b610faf565b6102dd565b90565b9061235361234e836113eb565b6113d6565b918252565b369037565b9061238261236a83612341565b9260208061237886936113eb565b9201910390612358565b565b634e487b7160e01b5f52603260045260245ffd5b5190565b906123a682612398565b8110156123b7576020809102010190565b612384565b906123c6906102dd565b9052565b90565b6123e16123dc6123e6926123ca565b610faf565b6102dd565b90565b60200190565b6123f8906102dd565b9052565b90612409816020936123ef565b0190565b60200190565b9061243061242a61242384612398565b80936114b3565b926123e9565b905f5b8181106124405750505090565b90919261245961245360019286516123fc565b9461240d565b9101919091612433565b919361249c6124916124a6936124b39761248460a08801925f8901906103b1565b8682036020880152612413565b9460408501906104ba565b6060830190610335565b6080818303910152611501565b90565b909291926124c5828290611565565b6124d76124d15f610fb2565b916102dd565b11612b71575b505061254760206125156125107f0000000000000000000000000000000000000000000000000000000000000000610ff6565b61100e565b6370a082319061253c6125273061101a565b926125306101e2565b9586948593849361102a565b8352600483016103be565b03915afa908115612b6c575f91612b3e575b50906125c3602061259161258c7f0000000000000000000000000000000000000000000000000000000000000000610ff6565b61100e565b6370a08231906125b86125a33061101a565b926125ac6101e2565b9586948593849361102a565b8352600483016103be565b03915afa908115612b39575f91612b0b575b50926125ea6125e484926102dd565b916102dd565b10908115612aef575b50612ad35761263b6126247f0000000000000000000000000000000000000000000000000000000000000000610ff6565b61262c6108ce565b6126355f610fb2565b9161369d565b6126766126677f0000000000000000000000000000000000000000000000000000000000000000610ff6565b61266f6108ce565b839161369d565b6126b96126a27f0000000000000000000000000000000000000000000000000000000000000000610ff6565b6126aa6108ce565b6126b35f610fb2565b9161369d565b6126f46126e57f0000000000000000000000000000000000000000000000000000000000000000610ff6565b6126ed6108ce565b849161369d565b61271161270c42612706610e10612238565b906112cc565b61225f565b61272961272461271f6108ce565b612287565b612293565b6387517c457f00000000000000000000000000000000000000000000000000000000000000007f00000000000000000000000000000000000000000000000000000000000000009261277a8661229f565b85823b15612ace575f946127ac86926127a1946127956101e2565b998a988997889661102a565b8652600486016122e4565b03925af18015612ac957612a9d575b506127d46127cf6127ca6108ce565b612287565b612293565b6387517c45907f0000000000000000000000000000000000000000000000000000000000000000907f0000000000000000000000000000000000000000000000000000000000000000936128278761229f565b90823b15612a98575f94612859869261284e946128426101e2565b998a988997889661102a565b8652600486016122e4565b03925af18015612a9357612a67575b50602061287d6128786002612325565b61235d565b612899836128948361288e5f610fb2565b9061239c565b6123bc565b6128b6846128b1836128ab60016123cd565b9061239c565b6123bc565b6128e76128e27f00000000000000000000000000000000000000000000000000000000000000006113be565b6113ca565b61292c5f63c08bc8516129377f0000000000000000000000000000000000000000000000000000000000000000959983906129206101e2565b9b8c988997889661102a565b865260048601612463565b03925af1928315612a62576129b193612a36575b50602061297f61297a7f0000000000000000000000000000000000000000000000000000000000000000610ff6565b61100e565b6370a08231906129a66129913061101a565b9261299a6101e2565b9788948593849361102a565b8352600483016103be565b03915afa928315612a31575f93612a01575b5090916129fc7f15294ad9d42e2bbd446d4ff6ca28fef807d1631ad53c688303fe468410830f32936129f36101e2565b93849384611588565b0390a1565b612a2391935060203d8111612a2a575b612a1b8183610dfe565b81019061103f565b915f6129c3565b503d612a11565b61105d565b612a569060203d8111612a5b575b612a4e8183610dfe565b81019061103f565b61294b565b503d612a44565b61105d565b612a86905f3d8111612a8c575b612a7e8183610dfe565b8101906122bb565b5f612868565b503d612a74565b61105d565b611026565b612abc905f3d8111612ac2575b612ab48183610dfe565b8101906122bb565b5f6127bb565b503d612aaa565b61105d565b611026565b5f63bb55fd2760e01b815280612aeb600482016105d4565b0390fd5b9050612b04612afe84926102dd565b916102dd565b105f6125f3565b612b2c915060203d8111612b32575b612b248183610dfe565b81019061103f565b5f6125d5565b503d612b1a565b61105d565b612b5f915060203d8111612b65575b612b578183610dfe565b81019061103f565b5f612559565b503d612b4d565b61105d565b612b9d91907f000000000000000000000000000000000000000000000000000000000000000091613c93565b5f806124dd565b90612bb1949392916121ca565b565b612bbb610ed2565b503390565b60207f7265737300000000000000000000000000000000000000000000000000000000917f45524332303a20617070726f76652066726f6d20746865207a65726f206164645f8201520152565b612c1a6024604092610203565b612c2381612bc0565b0190565b612c3c9060208101905f818303910152612c0d565b90565b15612c4657565b612c4e6101e2565b62461bcd60e51b815280612c6460048201612c27565b0390fd5b60207f7373000000000000000000000000000000000000000000000000000000000000917f45524332303a20617070726f766520746f20746865207a65726f2061646472655f8201520152565b612cc26022604092610203565b612ccb81612c68565b0190565b612ce49060208101905f818303910152612cb5565b90565b15612cee57565b612cf66101e2565b62461bcd60e51b815280612d0c60048201612ccf565b0390fd5b90612d1c5f1991611e40565b9181191691161790565b612d3a612d35612d3f926102dd565b610faf565b6102dd565b90565b90565b90612d5a612d55612d6192612d26565b612d42565b8254612d10565b9055565b919091612d8d81612d86612d80612d7b5f611db2565b6102ae565b916102ae565b1415612c3f565b612db283612dab612da5612da05f611db2565b6102ae565b916102ae565b1415612ce7565b612dd182612dcc612dc56001859061218c565b8690611d03565b612d45565b919091612e1c612e0a612e047f8c5be1e5ebec7d5bd14f71427d1e84f3dd0314c0f7b2291e5b200ac8c7c3b9259361106d565b9361106d565b93612e136101e2565b918291826104c7565b0390a3565b5f7f45524332303a20696e73756666696369656e7420616c6c6f77616e6365000000910152565b612e55601d602092610203565b612e5e81612e21565b0190565b612e779060208101905f818303910152612e48565b90565b15612e8157565b612e896101e2565b62461bcd60e51b815280612e9f60048201612e62565b0390fd5b612eae8183906121a2565b9081612ec3612ebd5f196102dd565b916102dd565b03612ecf575b50505050565b612f0193612efb91612ef484612eed612ee7856102dd565b916102dd565b1015612e7a565b9392611fbe565b91612d65565b5f808080612ec9565b60207f6472657373000000000000000000000000000000000000000000000000000000917f45524332303a207472616e736665722066726f6d20746865207a65726f2061645f8201520152565b612f646025604092610203565b612f6d81612f0a565b0190565b612f869060208101905f818303910152612f57565b90565b15612f9057565b612f986101e2565b62461bcd60e51b815280612fae60048201612f71565b0390fd5b60207f6573730000000000000000000000000000000000000000000000000000000000917f45524332303a207472616e7366657220746f20746865207a65726f20616464725f8201520152565b61300c6023604092610203565b61301581612fb2565b0190565b61302e9060208101905f818303910152612fff565b90565b1561303857565b6130406101e2565b62461bcd60e51b81528061305660048201613019565b0390fd5b60207f616c616e63650000000000000000000000000000000000000000000000000000917f45524332303a207472616e7366657220616d6f756e74206578636565647320625f8201520152565b6130b46026604092610203565b6130bd8161305a565b0190565b6130d69060208101905f8183039101526130a7565b90565b156130e057565b6130e86101e2565b62461bcd60e51b8152806130fe600482016130c1565b0390fd5b9061310d91016102dd565b90565b9190916131388161313161312b6131265f611db2565b6102ae565b916102ae565b1415612f89565b61315d8361315661315061314b5f611db2565b6102ae565b916102ae565b1415613031565b6131aa61319a6131766131715f8590611d03565b610eaf565b6131938161318c613186886102dd565b916102dd565b10156130d9565b8490611fbe565b6131a55f8490611d03565b612d45565b6131d1826131cb6131bc5f8790611d03565b916131c683610eaf565b613102565b90612d45565b91909161321c61320a6132047fddf252ad1be2c89b69c2b068fc378daa952ba7f163c4a11628f55a4df523b3ef9361106d565b9361106d565b936132136101e2565b918291826104c7565b0390a3565b61322b6002612325565b90565b5f7f5265656e7472616e637947756172643a207265656e7472616e742063616c6c00910152565b613262601f602092610203565b61326b8161322e565b0190565b6132849060208101905f818303910152613255565b90565b1561328e57565b6132966101e2565b62461bcd60e51b8152806132ac6004820161326f565b0390fd5b6132dd6132bd6005610eaf565b6132d66132d06132cb613221565b6102dd565b916102dd565b1415613287565b6132ef6132e8613221565b6005612d45565b565b6132fb60016123cd565b90565b6133106133096132f1565b6005612d45565b565b60207f7300000000000000000000000000000000000000000000000000000000000000917f45524332303a206275726e2066726f6d20746865207a65726f206164647265735f8201520152565b61336c6021604092610203565b61337581613312565b0190565b61338e9060208101905f81830391015261335f565b90565b1561339857565b6133a06101e2565b62461bcd60e51b8152806133b660048201613379565b0390fd5b60207f6365000000000000000000000000000000000000000000000000000000000000917f45524332303a206275726e20616d6f756e7420657863656564732062616c616e5f8201520152565b6134146022604092610203565b61341d816133ba565b0190565b6134369060208101905f818303910152613407565b90565b1561344057565b6134486101e2565b62461bcd60e51b81528061345e60048201613421565b0390fd5b6134878161348061347a6134755f611db2565b6102ae565b916102ae565b1415613391565b6134d46134c46134a061349b5f8590611d03565b610eaf565b6134bd816134b66134b0886102dd565b916102dd565b1015613439565b8490611fbe565b6134cf5f8490611d03565b612d45565b6134f16134ea836134e56002610eaf565b611fbe565b6002612d45565b906134fb5f611db2565b909161354561353361352d7fddf252ad1be2c89b69c2b068fc378daa952ba7f163c4a11628f55a4df523b3ef9361106d565b9361106d565b9361353c6101e2565b918291826104c7565b0390a3565b63ffffffff1690565b63ffffffff60e01b1690565b61357361356e6135789261354a565b61102a565b613553565b90565b91602061359c92949361359560408201965f8301906103b1565b01906104ba565b565b916135e26004926135d36135e795936135ba63a9059cbb61355f565b926135c36101e2565b968794602086019081520161357b565b60208201810382520383610dfe565b614436565b565b6135f290611002565b90565b60207f20746f206e6f6e2d7a65726f20616c6c6f77616e636500000000000000000000917f5361666545524332303a20617070726f76652066726f6d206e6f6e2d7a65726f5f8201520152565b61364f6036604092610203565b613658816135f5565b0190565b6136719060208101905f818303910152613642565b90565b1561367b57565b6136836101e2565b62461bcd60e51b8152806136996004820161365c565b0390fd5b919091816136b36136ad5f610fb2565b916102dd565b14801561370f575b61370d936136f9600494936136d261370894613674565b936136e063095ea7b361355f565b926136e96101e2565b968794602086019081520161357b565b60208201810382520383610dfe565b614436565b565b509061371a8261100e565b602063dd62ed3e9161372b306135e9565b90613748879461375361373c6101e2565b9687958694859461102a565b845260048401610875565b03915afa9384156137c6576136f96004946136d261370d97613708955f91613798575b506137896137835f610fb2565b916102dd565b149450509394505093506136bb565b6137b9915060203d81116137bf575b6137b18183610dfe565b81019061103f565b5f613776565b503d6137a7565b61105d565b5f80fd5b5f80fd5b5f80fd5b9035906001606003813603038212156137ee570190565b6137cb565b9082101561380d57602061380a92028101906137d7565b90565b612384565b3561381c816102ba565b90565b90359060016020038136030382121561385f570180359060018060401b03821161385a5760200191600182023603831361385557565b6137d3565b6137cf565b6137cb565b90565b61387b61387661388092613864565b610faf565b6102dd565b90565b5f80fd5b5f80fd5b909392938483116138ab5784116138a6576001820201920390565b613887565b613883565b5090565b1b90565b906138c66138cd91836138b0565b9135613553565b90600481106138db575b5090565b6138f39063ffffffff60e01b906004036008026138b4565b165f6138d7565b90565b61391161390c613916926138fa565b61102a565b613553565b90565b61392290613553565b9052565b9190613939905f60208501940190613919565b565b90565b61395261394d6139579261393b565b610faf565b6102dd565b90565b91565b613966906102a3565b90565b6139728161395d565b0361397957565b5f80fd5b9050359061398a82613969565b565b906020828203126139a5576139a2915f0161397d565b90565b6101ec565b6139b390611002565b90565b90565b6139cd6139c86139d2926139b6565b61102a565b613553565b90565b6139e26307ed23796139b9565b90565b90565b6139fc6139f7613a01926139e5565b61102a565b613553565b90565b613a116383800a8e6139e8565b90565b90565b613a2b613a26613a3092613a14565b61102a565b613553565b90565b613a40638770ba91613a17565b90565b90565b613a5a613a55613a5f92613a43565b61102a565b613553565b90565b613a6f6319367472613a46565b90565b90565b613a89613a84613a8e92613a72565b61102a565b613553565b90565b613a9e63a76dfc3b613a75565b90565b90565b613ab8613ab3613abd92613aa1565b61102a565b613553565b90565b613acd6389af926a613aa4565b90565b90565b613ae7613ae2613aec92613ad0565b61102a565b613553565b90565b613afc63188ac35d613ad3565b90565b90565b613b16613b11613b1b92613aff565b61102a565b613553565b90565b613b2b63d2d374e5613b02565b90565b90565b613b45613b40613b4a92613b2e565b610faf565b6102dd565b90565b613b576084613b31565b90565b90565b613b71613b6c613b7692613b5a565b610faf565b6102dd565b90565b90565b90613b8a613b9191836138b0565b9135613b79565b9060208110613b9f575b5090565b613bb1905f19906020036008026138b4565b165f613b9b565b613bc4613bc991610e93565b612d26565b90565b613bd590611002565b90565b35613be2816102e0565b90565b905090565b90825f939282370152565b909182613c0581613c0c93613be5565b8093613bea565b0190565b9091613c1b92613bf5565b90565b60018060401b038111613c3a57613c36602091610217565b0190565b610dea565b90613c51613c4c83613c1e565b6113d6565b918252565b606090565b3d5f14613c7657613c6b3d613c3f565b903d5f602084013e5b565b613c7e613c56565b90613c74565b6001613c9091016102dd565b90565b9091613c9d610e8f565b5b80613cbb613cb5613cb0868890611565565b6102dd565b916102dd565b10156140fa57613cd75f613cd1858785916137f3565b01613812565b613ce9613ce3846102ae565b916102ae565b145f14613ff457613d28613d22613d0f613d05868886916137f3565b602081019061381f565b600490613d1c5f92613867565b9261388b565b906138b8565b80613d42613d3c613d376139d5565b613553565b91613553565b145f14613ebf5750613db1613dac613da7613da2613d9c613d72613d68898b89916137f3565b602081019061381f565b613d7a613b4d565b90613d96613d86613b4d565b613d906020613b5d565b906112cc565b9261388b565b90613b7c565b613bb8565b61229f565b611002565b80613dcc613dc6613dc15f611db2565b6102ae565b916102ae565b141580613e9c575b613e7d57505b5b613e4f5f80613df681613df0888a88916137f3565b01613812565b613e0d6040613e07898b89916137f3565b01613bd8565b613e26613e1c898b89916137f3565b602081019061381f565b9190613e3c613e336101e2565b93849283613c10565b03925af1613e48613c5b565b5015610330565b613e6157613e5c90613c84565b613c9e565b5f6316e128d760e31b815280613e79600482016105d4565b0390fd5b613e98905f9182916381460e5d60e01b8352600483016103be565b0390fd5b5080613eb8613eb2613ead30613bcc565b6102ae565b916102ae565b1415613dd4565b80613ed9613ed3613ece613a04565b613553565b91613553565b141580613fd2575b80613fb0575b80613f8e575b80613f6c575b80613f4a575b80613f28575b613f095750613dda565b613f24905f918291631583962960e31b835260048301613926565b0390fd5b5080613f43613f3d613f38613b1e565b613553565b91613553565b1415613eff565b5080613f65613f5f613f5a613aef565b613553565b91613553565b1415613ef9565b5080613f87613f81613f7c613ac0565b613553565b91613553565b1415613ef3565b5080613fa9613fa3613f9e613a91565b613553565b91613553565b1415613eed565b5080613fcb613fc5613fc0613a62565b613553565b91613553565b1415613ee7565b5080613fed613fe7613fe2613a33565b613553565b91613553565b1415613ee1565b61402c614026614013614009868886916137f3565b602081019061381f565b6004906140205f92613867565b9261388b565b906138b8565b8061404361403d63095ea7b36138fd565b91613553565b036140db575061409e61409961409161408b61406e614064888a88916137f3565b602081019061381f565b60049061408561407f602493613867565b9261393e565b9261388b565b9061395a565b81019061398c565b6139aa565b806140b16140ab856102ae565b916102ae565b036140bc5750613ddb565b6140d7905f91829163561db53b60e11b8352600483016103be565b0390fd5b6140f6905f91829163836e86a560e01b835260048301613926565b0390fd5b50505050565b604090614129614130949695939661411f60608401985f8501906103b1565b60208301906103b1565b01906104ba565b565b61417f939161416b60049461417a939461414f6323b872dd61355f565b9391909161415b6101e2565b9788956020870190815201614100565b60208201810382520383610dfe565b614436565b565b5f7f45524332303a206d696e7420746f20746865207a65726f206164647265737300910152565b6141b5601f602092610203565b6141be81614181565b0190565b6141d79060208101905f8183039101526141a8565b90565b156141e157565b6141e96101e2565b62461bcd60e51b8152806141ff600482016141c2565b0390fd5b906142298261422261421c6142175f611db2565b6102ae565b916102ae565b14156141da565b61424661423f8261423a6002610eaf565b6112cc565b6002612d45565b61426d816142676142585f8690611d03565b9161426283610eaf565b613102565b90612d45565b6142765f611db2565b9190916142c16142af6142a97fddf252ad1be2c89b69c2b068fc378daa952ba7f163c4a11628f55a4df523b3ef9361106d565b9361106d565b936142b86101e2565b918291826104c7565b0390a3565b60018060401b0381116142e2576142de602091610217565b0190565b610dea565b906142f96142f4836142c6565b6113d6565b918252565b5f7f5361666545524332303a206c6f772d6c6576656c2063616c6c206661696c6564910152565b61432f60206142e7565b9061433c602083016142fe565b565b614346614325565b90565b5190565b61435681610330565b0361435d57565b5f80fd5b9050519061436e8261434d565b565b9060208282031261438957614386915f01614361565b90565b6101ec565b60207f6f74207375636365656400000000000000000000000000000000000000000000917f5361666545524332303a204552433230206f7065726174696f6e20646964206e5f8201520152565b6143e8602a604092610203565b6143f18161438e565b0190565b61440a9060208101905f8183039101526143db565b90565b1561441457565b61441c6101e2565b62461bcd60e51b815280614432600482016143f5565b0390fd5b61447f916144466144559261100e565b9061444f61433e565b916144a2565b61445e81614349565b61447061446a5f610fb2565b916102dd565b14908115614481575b5061440d565b565b61449c9150602061449182614349565b818301019101614370565b5f614479565b906144c192916144b0613c56565b50906144bb5f610fb2565b91614578565b90565b6144cd90611002565b90565b60207f722063616c6c0000000000000000000000000000000000000000000000000000917f416464726573733a20696e73756666696369656e742062616c616e636520666f5f8201520152565b61452a6026604092610203565b614533816144d0565b0190565b61454c9060208101905f81830391015261451d565b90565b1561455657565b61455e6101e2565b62461bcd60e51b81528061457460048201614537565b0390fd5b915f80916145ce9593614589613c56565b506145b0614596306144c4565b316145a96145a3856102dd565b916102dd565b101561454f565b8591602082019151925af1916145c4613c5b565b9092909192614653565b90565b5f7f416464726573733a2063616c6c20746f206e6f6e2d636f6e7472616374000000910152565b614605601d602092610203565b61460e816145d1565b0190565b6146279060208101905f8183039101526145f8565b90565b1561463157565b6146396101e2565b62461bcd60e51b81528061464f60048201614612565b0390fd5b91929061465e613c56565b505f146146a2575061466f82614349565b61468161467b5f610fb2565b916102dd565b1461468b575b5090565b61469761469c916146f4565b61462a565b5f614687565b82906146ad82614349565b6146bf6146b95f610fb2565b916102dd565b115f146146cf5750805190602001fd5b6146f0906146db6101e2565b91829162461bcd60e51b835260048301610252565b0390fd5b6146fc610e69565b503b61471061470a5f610fb2565b916102dd565b119056fea264697066735822122079752ddecf94d1f714c38afa81a0b91899e74460f2599d6a9e341aa6603fe76364736f6c634300081c0033","linkReferences":{}},"methodIdentifiers":{"PERMIT2()":"6afdd850","allowance(address,address)":"dd62ed3e","approve(address,uint256)":"095ea7b3","balanceOf(address)":"70a08231","balancerRouter()":"49ec8b38","balancerVault()":"158274a5","controller()":"f77c4791","decimals()":"313ce567","decreaseAllowance(address,uint256)":"a457c2d7","deposit(uint256)":"b6b55f25","divest(uint256,uint256[],(address,bytes,uint256)[])":"4f7dbdc5","increaseAllowance(address,uint256)":"39509351","invest((address,bytes,uint256)[],uint256,uint256,uint256)":"e51aaf24","name()":"06fdde03","owner()":"8da5cb5b","pool()":"16f0115b","router()":"f887ea40","setController(address)":"92eefe9b","symbol()":"95d89b41","token0()":"0dfe1681","token1()":"d21220a7","totalSupply()":"18160ddd","transfer(address,uint256)":"a9059cbb","transferFrom(address,address,uint256)":"23b872dd","usdc()":"3e413bee","want()":"1f1fcd51","wants()":"65844934","withdraw(uint256)":"2e1a7d4d"},"id":140}