{"abi":[{"type":"constructor","inputs":[{"name":"_usdc","type":"address","internalType":"address"},{"name":"_controller","type":"address","internalType":"address"}],"stateMutability":"nonpayable"},{"type":"function","name":"allWrappers","inputs":[{"name":"","type":"uint256","internalType":"uint256"}],"outputs":[{"name":"","type":"address","internalType":"address"}],"stateMutability":"view"},{"type":"function","name":"batchUpdateWrapperController","inputs":[{"name":"wrapperAddresses","type":"address[]","internalType":"address[]"},{"name":"_controller","type":"address","internalType":"address"}],"outputs":[],"stateMutability":"nonpayable"},{"type":"function","name":"controller","inputs":[],"outputs":[{"name":"","type":"address","internalType":"address"}],"stateMutability":"view"},{"type":"function","name":"createWrapper","inputs":[{"name":"user","type":"address","internalType":"address"}],"outputs":[{"name":"wrapper","type":"address","internalType":"address"}],"stateMutability":"nonpayable"},{"type":"function","name":"getAllWrappers","inputs":[],"outputs":[{"name":"","type":"address[]","internalType":"address[]"}],"stateMutability":"view"},{"type":"function","name":"getWrapper","inputs":[{"name":"user","type":"address","internalType":"address"}],"outputs":[{"name":"","type":"address","internalType":"address"}],"stateMutability":"view"},{"type":"function","name":"getWrapperCount","inputs":[],"outputs":[{"name":"","type":"uint256","internalType":"uint256"}],"stateMutability":"view"},{"type":"function","name":"owner","inputs":[],"outputs":[{"name":"","type":"address","internalType":"address"}],"stateMutability":"view"},{"type":"function","name":"predictWrapperAddress","inputs":[{"name":"user","type":"address","internalType":"address"}],"outputs":[{"name":"","type":"address","internalType":"address"}],"stateMutability":"view"},{"type":"function","name":"renounceOwnership","inputs":[],"outputs":[],"stateMutability":"nonpayable"},{"type":"function","name":"setController","inputs":[{"name":"_controller","type":"address","internalType":"address"}],"outputs":[],"stateMutability":"nonpayable"},{"type":"function","name":"transferOwnership","inputs":[{"name":"newOwner","type":"address","internalType":"address"}],"outputs":[],"stateMutability":"nonpayable"},{"type":"function","name":"updateWrapperController","inputs":[{"name":"wrapper","type":"address","internalType":"address"},{"name":"_controller","type":"address","internalType":"address"}],"outputs":[],"stateMutability":"nonpayable"},{"type":"function","name":"usdc","inputs":[],"outputs":[{"name":"","type":"address","internalType":"address"}],"stateMutability":"view"},{"type":"function","name":"wrappers","inputs":[{"name":"","type":"address","internalType":"address"}],"outputs":[{"name":"","type":"address","internalType":"address"}],"stateMutability":"view"},{"type":"event","name":"ControllerUpdated","inputs":[{"name":"oldController","type":"address","indexed":true,"internalType":"address"},{"name":"newController","type":"address","indexed":true,"internalType":"address"}],"anonymous":false},{"type":"event","name":"OwnershipTransferred","inputs":[{"name":"previousOwner","type":"address","indexed":true,"internalType":"address"},{"name":"newOwner","type":"address","indexed":true,"internalType":"address"}],"anonymous":false},{"type":"event","name":"WrapperCreated","inputs":[{"name":"user","type":"address","indexed":true,"internalType":"address"},{"name":"wrapper","type":"address","indexed":true,"internalType":"address"}],"anonymous":false},{"type":"error","name":"InvalidController","inputs":[]},{"type":"error","name":"InvalidUser","inputs":[]},{"type":"error","name":"WrapperAlreadyExists","inputs":[]}],"bytecode":{"object":"0x60a0346100ae57601f61239c38819003918201601f19168301916001600160401b038311848410176100b25780849260409485528339810103126100ae57610052602061004b836100c6565b92016100c6565b9061005c336100da565b610065336100da565b608052600180546001600160a01b0319166001600160a01b039290921691909117905560405161227b908161012182396080518181816104df0152818161079f015261081a0152f35b5f80fd5b634e487b7160e01b5f52604160045260245ffd5b51906001600160a01b03821682036100ae57565b5f80546001600160a01b039283166001600160a01b03198216811783559216907f8be0079c531659141344cd1fd0a4f28419497f9722a3daafe3b4186f6b6457e09080a356fe6080806040526004361015610012575f80fd5b5f905f3560e01c908163378563b7146107ce575080633e413bee1461078a5780634add8b261461076d57806360ccbbb91461072b578063715018a6146106e75780638da5cb5b146106c057806392eefe9b1461063e578063a7c4f0ef1461046c578063b20bff4f146103a4578063b41e991a146102bc578063dad233e3146102fd578063e41c0a8d146102bc578063ed686370146101a1578063f2fde38b146100ee5763f77c4791146100c3575f80fd5b346100eb57806003193601126100eb576001546040516001600160a01b039091168152602090f35b80fd5b50346100eb5760203660031901126100eb576101086108db565b610110610970565b6001600160a01b0316801561014d5781546001600160a01b03198116821783556001600160a01b03165f5160206122265f395f51905f528380a380f35b60405162461bcd60e51b815260206004820152602660248201527f4f776e61626c653a206e6577206f776e657220697320746865207a65726f206160448201526564647265737360d01b6064820152608490fd5b50346100eb5760403660031901126100eb576004356001600160401b0381116102b857366023820112156102b8576004810135906001600160401b0382116102b4573660248360051b830101116102b4576101fa6108f1565b610202610970565b6001600160a01b03169081156102a557908391825b848110156102a1576024600582901b830101356001600160a01b0381169081900361029d57803b1561029d578480916024604051809481936392eefe9b60e01b83528960048401525af1908115610292578591610279575b5050600101610217565b8161028391610933565b61028e57835f61026f565b8380fd5b6040513d87823e3d90fd5b8480fd5b8380f35b6336abb4df60e11b8452600484fd5b8280fd5b5080fd5b50346100eb5760203660031901126100eb576020906001600160a01b036102e16108db565b16815260028252604060018060a01b0391205416604051908152f35b50346100eb5760403660031901126100eb576103176108db565b906103206108f1565b610328610970565b6001600160a01b0316801561039557819260018060a01b031690813b156103915782916024839260405194859384926392eefe9b60e01b845260048401525af18015610386576103755750f35b8161037f91610933565b6100eb5780f35b6040513d84823e3d90fd5b5050fd5b6336abb4df60e11b8252600482fd5b50346100eb57806003193601126100eb5760405160038054808352908352602082019081907fc2575a0e9e593c00f959f8c92f12db2869c3395a3b0502d05e2516446f71f85b90855b81811061044d5750505082610403910383610933565b604051928392602084019060208552518091526040840192915b81811061042b575050500390f35b82516001600160a01b031684528594506020938401939092019160010161041d565b82546001600160a01b03168452602090930192600192830192016103ed565b5034610608576020366003190112610608576104866108db565b6001600160a01b0381169190821561062f575f838152600260205260409020546001600160a01b03166106205760405161185e80820192906001600160401b0384118385101761060c5785938392610504926109c885397f000000000000000000000000000000000000000000000000000000000000000091610956565b03905ff580156105fd576001546001600160a01b039182169116813b15610608576040519063189acdbd60e31b825260048201525f8160248183865af180156105fd576105e8575b5082825260026020526040822080546001600160a01b03191682179055600354600160401b8110156105d45760209361058c826001859401600355610907565b81546001600160a01b0360039290921b91821b19169084901b179055604051937feca658fb45a042c9a15f37be8099dbc152e104331b942dc253680509f9727d079080a38152f35b634e487b7160e01b83526041600452602483fd5b6105f59192505f90610933565b5f905f61054c565b6040513d5f823e3d90fd5b5f80fd5b634e487b7160e01b5f52604160045260245ffd5b6393e16fa560e01b5f5260045ffd5b63fd684c3b60e01b5f5260045ffd5b34610608576020366003190112610608576106576108db565b61065f610970565b6001600160a01b031680156106b157600180546001600160a01b0319811683179091556001600160a01b03167f1c87e2bbc4e5fa5d7f6f8c44d66cb241dff224b8602eb5435ca2076d2a5c6fc25f80a3005b6336abb4df60e11b5f5260045ffd5b34610608575f366003190112610608575f546040516001600160a01b039091168152602090f35b34610608575f366003190112610608576106ff610970565b5f80546001600160a01b0319811682556001600160a01b03165f5160206122265f395f51905f528280a3005b346106085760203660031901126106085760043560035481101561060857610754602091610907565b905460405160039290921b1c6001600160a01b03168152f35b34610608575f366003190112610608576020600354604051908152f35b34610608575f366003190112610608576040517f00000000000000000000000000000000000000000000000000000000000000006001600160a01b03168152602090f35b34610608576020366003190112610608576020906107ea6108db565b9061185e6107fa84820183610933565b808252838201906109c8823961087f604051918580840161084e856108407f00000000000000000000000000000000000000000000000000000000000000008a85610956565b03601f198101875286610933565b60405194859383850197518091895e840190838201905f8252519283915e01015f815203601f198101835282610933565b5190206040516001600160f81b03198482019081523060601b60218301526001600160a01b039093166035820152605580820192909252908152906108c5607583610933565b905190206040516001600160a01b039091168152f35b600435906001600160a01b038216820361060857565b602435906001600160a01b038216820361060857565b60035481101561091f5760035f5260205f2001905f90565b634e487b7160e01b5f52603260045260245ffd5b601f909101601f19168101906001600160401b0382119082101761060c57604052565b6001600160a01b0391821681529116602082015260400190565b5f546001600160a01b0316330361098357565b606460405162461bcd60e51b815260206004820152602060248201527f4f776e61626c653a2063616c6c6572206973206e6f7420746865206f776e65726044820152fdfe60e0346100ca57601f61185e38819003918201601f19168301916001600160401b038311848410176100ce5780849260409485528339810103126100ca57610052602061004b836100e2565b92016100e2565b9060015f556080523360a05260c05260405161176790816100f7823960805181818161010c01528181610420015281816104b50152610813015260a0518181816102a30152818161035e01526103a9015260c0518181816101a1015281816102f70152818161050e015281816109770152610cc60152f35b5f80fd5b634e487b7160e01b5f52604160045260245ffd5b51906001600160a01b03821682036100ca5756fe6080604052600436101561001a575b3615610018575f80fd5b005b5f5f3560e01c806301ec52a21461106b5780630991642b14610d215780633aecd0e314610cf55780633e413bee14610cb057806353f3aebc14610ba057806371348abe146107d457806382b49ea81461047757806386acf0f31461044f5780638da5cb5b1461040a57806392eefe9b1461038d578063c45a015514610348578063c4d66de814610287578063ecd24d47146101fa578063f688bcfb146100f55763f77c4791146100ca575061000e565b346100f257806003193601126100f2576001546040516001600160a01b039091168152602090f35b80fd5b50346100f25760203660031901126100f2576004357f00000000000000000000000000000000000000000000000000000000000000006001600160a01b031633036101eb5761014261125c565b80156101dc5760207f0f920186940a9c60ff07b508b49ba5dca2c647b29aebfa69964b44e5e873a62c916101ce6040516323b872dd60e01b848201523360248201523060448201528260648201526064815261019f6084826110cb565b7f00000000000000000000000000000000000000000000000000000000000000006001600160a01b0316611535565b604051908152a16001815580f35b631e9acf1760e31b8252600482fd5b635fc483c560e01b8252600482fd5b50346100f25760203660031901126100f257600460206001600160a01b03610220611085565b1660405192838092639bdde46b60e01b82525afa90811561027c576020929161024f575b506040519015158152f35b61026f9150823d8411610275575b61026781836110cb565b81019061116b565b5f610244565b503d61025d565b6040513d84823e3d90fd5b50346100f25760203660031901126100f2576102a1611085565b7f00000000000000000000000000000000000000000000000000000000000000006001600160a01b0316330361033957600180546001600160a01b0319166001600160a01b0392831690811790915590610325907f00000000000000000000000000000000000000000000000000000000000000001661032081611401565b61143e565b5f5160206116d25f395f51905f528280a280f35b630636a15760e11b8252600482fd5b50346100f257806003193601126100f2576040517f00000000000000000000000000000000000000000000000000000000000000006001600160a01b03168152602090f35b50346100f25760203660031901126100f2576103a7611085565b7f00000000000000000000000000000000000000000000000000000000000000006001600160a01b0316330361033957600180546001600160a01b0319166001600160a01b039290921691821790555f5160206116d25f395f51905f528280a280f35b50346100f257806003193601126100f2576040517f00000000000000000000000000000000000000000000000000000000000000006001600160a01b03168152602090f35b50346100f257806003193601126100f25760206040515f5160206117125f395f51905f528152f35b50346100f25760403660031901126100f257610491611085565b906024356001600160401b0381116107d0576104b190369060040161109b565b90927f000000000000000000000000000000000000000000000000000000000000000091906001600160a01b03831633036107c1576104ee61125c565b816105d5575b50506040516370a0823160e01b81523060048201529192507f00000000000000000000000000000000000000000000000000000000000000006001600160a01b0316602083602481845afa9283156105ca578493610592575b50821561058357916101ce816020937fc67e37700e70a47022e92eff0449cbf934acde8733b7dc953d826e156db8e6ce956114fa565b631e9acf1760e31b8452600484fd5b9092506020813d6020116105c2575b816105ae602093836110cb565b810103126105be5751915f61054d565b5f80fd5b3d91506105a1565b6040513d86823e3d90fd5b6001600160a01b031680156107b257602060049160405192838092631f1fcd5160e01b82525afa9081156105ca578491610793575b50604051630dfe168160e01b8152906001600160a01b0316602082600481845afa9182156107665790600492918692610771575b506020906040519384809263d21220a760e01b82525afa918215610766579061069292918692610731575b50610680906001600160a01b031661032081611401565b6001600160a01b031661032081611401565b825b818110156104f4576106a78183876111a2565b5f5160206117125f395f51905f526001600160a01b036106c6836111d8565b160361072257848160406106da83946111d8565b6106e760208401846111ec565b92908382519485928337810186815203930135905af161070561121e565b501561071357600101610694565b63081ceff360e41b8452600484fd5b63416aebb560e11b8552600485fd5b6106809192506107589060203d60201161075f575b61075081836110cb565b810190611183565b9190610669565b503d610746565b6040513d87823e3d90fd5b602091925061078c90823d841161075f5761075081836110cb565b919061063e565b6107ac915060203d60201161075f5761075081836110cb565b5f61060a565b63416aebb560e11b8452600484fd5b635fc483c560e01b8452600484fd5b5080fd5b50346100f25760603660031901126100f2576107ee611085565b602435906044356001600160401b038111610b9c5761081190369060040161109b565b7f0000000000000000000000000000000000000000000000000000000000000000926001600160a01b0384163303610b8d5761084b61125c565b6040516370a0823160e01b81523060048201526001600160a01b03919091169490602081602481895afa908115610acd578791610b5b575b508015610b4c578111610b3d578590853b156107d05760405190632e1a7d4d60e01b825260048201528181602481838a5af1801561027c57610b24575b5050604051631f1fcd5160e01b8152602081600481885afa908115610b19578691610afa575b50604051630dfe168160e01b8152906001600160a01b0316602082600481845afa908115610acd576004928892610ad8575b506020906040519384809263d21220a760e01b82525afa908115610acd576109579288926107315750610680906001600160a01b031661032081611401565b845b818110610a385750506040516370a0823160e01b81523060048201527f00000000000000000000000000000000000000000000000000000000000000006001600160a01b031692909150602082602481865afa9182156107665785926109f7575b50905f5160206116f25f395f51905f529281602093816109e6575b505050604051908152a26001815580f35b6109ef926114fa565b5f81816109d5565b91506020823d602011610a30575b81610a12602093836110cb565b810103126105be579051905f5160206116f25f395f51905f526109ba565b3d9150610a05565b610a438183856111a2565b5f5160206117125f395f51905f526001600160a01b03610a62836111d8565b1603610abe5786816040610a7683946111d8565b610a8360208401846111ec565b92908382519485928337810186815203930135905af1610aa161121e565b5015610aaf57600101610959565b63081ceff360e41b8652600486fd5b63416aebb560e11b8752600487fd5b6040513d89823e3d90fd5b6020919250610af390823d841161075f5761075081836110cb565b9190610918565b610b13915060203d60201161075f5761075081836110cb565b5f6108e6565b6040513d88823e3d90fd5b81610b2e916110cb565b610b3957845f6108c0565b8480fd5b631e9acf1760e31b8652600486fd5b631e9acf1760e31b8752600487fd5b90506020813d602011610b85575b81610b76602093836110cb565b810103126105be57515f610883565b3d9150610b69565b635fc483c560e01b8652600486fd5b8380fd5b50346100f25760203660031901126100f2576004356001600160401b0381116107d057610bd190369060040161109b565b6001549091906001600160a01b03163303610ca157610bee61125c565b825b828110610c2a57837f7ba96a6a3fb6f97762cfb8a09af9d74897b077b1c8534d87ebdda9a6277e84bb602085604051908152a16001815580f35b610c358184846111a2565b5f5160206117125f395f51905f526001600160a01b03610c54836111d8565b16036107225784816040610c6883946111d8565b610c7560208401846111ec565b92908382519485928337810186815203930135905af1610c9361121e565b501561071357600101610bf0565b635990781360e01b8352600483fd5b50346100f257806003193601126100f2576040517f00000000000000000000000000000000000000000000000000000000000000006001600160a01b03168152602090f35b50346100f25760203660031901126100f2576020610d19610d14611085565b611102565b604051908152f35b50346105be5760803660031901126105be57610d3b611085565b60015460443590602435906001600160a01b0316330361105c57610d5d61125c565b604051639bdde46b60e01b81526001600160a01b0384169390602081600481885afa908115610f4c575f9161103d575b501561102e57604051631f1fcd5160e01b8152602081600481885afa908115610f4c575f9161100f575b50604051630dfe168160e01b815291906001600160a01b0316602083600481845afa908115610f4c576004935f92610fed575b506020906040519485809263d21220a760e01b82525afa928315610f4c575f93610fcc575b508184610fae575b505083610f8b575b50506040516370a0823160e01b815230600482015291602083602481875afa928315610f4c575f93610f57575b50833b156105be5760405191625777c560e11b83526004830152602482015260643560448201525f8160648183875af18015610f4c57610f37575b506040516370a0823160e01b815230600482015290602082602481865afa9182156105ca578492610f03575b508103908111610eef5760207fd28aef3776c1ff9da15b12f9043c3b51c993f58601e7c5ebf897100d22ebc5dd91604051908152a26001815580f35b634e487b7160e01b83526011600452602483fd5b9091506020813d602011610f2f575b81610f1f602093836110cb565b810103126105be5751905f610eb3565b3d9150610f12565b610f449193505f906110cb565b5f915f610e87565b6040513d5f823e3d90fd5b9092506020813d602011610f83575b81610f73602093836110cb565b810103126105be5751915f610e4c565b3d9150610f66565b610fa7916001600160a01b0316610fa282826112b0565b6112f3565b5f80610e1f565b610fc5916001600160a01b0316610fa282826112b0565b5f81610e17565b610fe691935060203d60201161075f5761075081836110cb565b915f610e0f565b602091925061100890823d841161075f5761075081836110cb565b9190610dea565b611028915060203d60201161075f5761075081836110cb565b5f610db7565b635cd3777b60e01b5f5260045ffd5b611056915060203d6020116102755761026781836110cb565b5f610d8d565b635990781360e01b5f5260045ffd5b346105be5760203660031901126105be576020610d19610d145b600435906001600160a01b03821682036105be57565b9181601f840112156105be578235916001600160401b0383116105be576020808501948460051b0101116105be57565b601f909101601f19168101906001600160401b038211908210176110ee57604052565b634e487b7160e01b5f52604160045260245ffd5b6040516370a0823160e01b815230600482015290602090829060249082906001600160a01b03165afa908115610f4c575f9161113c575090565b90506020813d602011611163575b81611157602093836110cb565b810103126105be575190565b3d915061114a565b908160209103126105be575180151581036105be5790565b908160209103126105be57516001600160a01b03811681036105be5790565b91908110156111c45760051b81013590605e19813603018212156105be570190565b634e487b7160e01b5f52603260045260245ffd5b356001600160a01b03811681036105be5790565b903590601e19813603018212156105be57018035906001600160401b0382116105be576020019181360383136105be57565b3d15611257573d906001600160401b0382116110ee576040519161124c601f8201601f1916602001846110cb565b82523d5f602084013e565b606090565b60025f541461126b5760025f55565b60405162461bcd60e51b815260206004820152601f60248201527f5265656e7472616e637947756172643a207265656e7472616e742063616c6c006044820152606490fd5b60405163095ea7b360e01b60208201526001600160a01b0390921660248301525f60448084019190915282526112f191906112ec6064836110cb565b611535565b565b604051636eb1769f60e11b81523060048201526001600160a01b039283166024820181905291926020908290604490829087165afa908115610f4c575f916113cf575b5061136b576112f1916040519163095ea7b360e01b602084015260248301525f196044830152604482526112ec6064836110cb565b60405162461bcd60e51b815260206004820152603660248201527f5361666545524332303a20617070726f76652066726f6d206e6f6e2d7a65726f60448201527520746f206e6f6e2d7a65726f20616c6c6f77616e636560501b6064820152608490fd5b90506020813d6020116113f9575b816113ea602093836110cb565b810103126105be57515f611336565b3d91506113dd565b6112f1906040519063095ea7b360e01b60208301525f5160206117125f395f51905f5260248301525f6044830152604482526112ec6064836110cb565b604051636eb1769f60e11b81523060048201525f5160206117125f395f51905f5260248201526020816044816001600160a01b0386165afa908115610f4c575f916114c8575b5061136b5760405163095ea7b360e01b60208201525f5160206117125f395f51905f5260248201525f1960448083019190915281526112f1916112ec6064836110cb565b90506020813d6020116114f2575b816114e3602093836110cb565b810103126105be57515f611484565b3d91506114d6565b60405163a9059cbb60e01b60208201526001600160a01b0390921660248301526044808301939093529181526112f1916112ec6064836110cb565b906115959160018060a01b03165f80604051936115536040866110cb565b602085527f5361666545524332303a206c6f772d6c6576656c2063616c6c206661696c6564602086015260208151910182855af161158f61121e565b9161161d565b8051908115918215611603575b5050156115ab57565b60405162461bcd60e51b815260206004820152602a60248201527f5361666545524332303a204552433230206f7065726174696f6e20646964206e6044820152691bdd081cdd58d8d9595960b21b6064820152608490fd5b611616925060208091830101910161116b565b5f806115a2565b9192901561167f5750815115611631575090565b3b1561163a5790565b60405162461bcd60e51b815260206004820152601d60248201527f416464726573733a2063616c6c20746f206e6f6e2d636f6e74726163740000006044820152606490fd5b8251909150156116925750805190602001fd5b604460209160405192839162461bcd60e51b83528160048401528051918291826024860152018484015e5f828201840152601f01601f19168101030190fdfe1304018cfe79741dcf02ba6b61d39cc4757d59395d03224d9925c7aa830021467084f5476618d8e60b11ef0d7d3f06914655adb8793e28ff7f018d4c76d505d5000000000000000000000000111111125421ca6dc452d289314280a0f8842a65a2646970667358221220aa40718636045a2c6d10ae4e765ce1bb75ed5feb2610bb75342d4e3df1f26b7a64736f6c634300081c00338be0079c531659141344cd1fd0a4f28419497f9722a3daafe3b4186f6b6457e0a2646970667358221220327d763949fbd66dc2b59c85c656d12f703b5f6f90edc12716c5b0c00c68d4a564736f6c634300081c0033","linkReferences":{}},"methodIdentifiers":{"allWrappers(uint256)":"60ccbbb9","batchUpdateWrapperController(address[],address)":"ed686370","controller()":"f77c4791","createWrapper(address)":"a7c4f0ef","getAllWrappers()":"b20bff4f","getWrapper(address)":"e41c0a8d","getWrapperCount()":"4add8b26","owner()":"8da5cb5b","predictWrapperAddress(address)":"378563b7","renounceOwnership()":"715018a6","setController(address)":"92eefe9b","transferOwnership(address)":"f2fde38b","updateWrapperController(address,address)":"dad233e3","usdc()":"3e413bee","wrappers(address)":"b41e991a"},"id":122}