{"abi":[{"type":"function","name":"buyCover","inputs":[{"name":"contractAddress","type":"address","internalType":"address"},{"name":"coverAsset","type":"address","internalType":"address"},{"name":"amount","type":"uint256","internalType":"uint256"},{"name":"period","type":"uint256","internalType":"uint256"},{"name":"typeId","type":"uint256","internalType":"uint256"},{"name":"maxPremiumInAsset","type":"uint256","internalType":"uint256"},{"name":"externalData","type":"bytes[]","internalType":"bytes[]"}],"outputs":[{"name":"coverId","type":"uint256","internalType":"uint256"}],"stateMutability":"payable"},{"type":"function","name":"nextCoverId","inputs":[],"outputs":[{"name":"","type":"uint256","internalType":"uint256"}],"stateMutability":"view"},{"type":"event","name":"CoverPurchased","inputs":[{"name":"coverId","type":"uint256","indexed":true,"internalType":"uint256"},{"name":"buyer","type":"address","indexed":true,"internalType":"address"},{"name":"product","type":"address","indexed":true,"internalType":"address"},{"name":"coverAsset","type":"address","indexed":false,"internalType":"address"},{"name":"amount","type":"uint256","indexed":false,"internalType":"uint256"},{"name":"period","type":"uint256","indexed":false,"internalType":"uint256"},{"name":"premium","type":"uint256","indexed":false,"internalType":"uint256"}],"anonymous":false}],"bytecode":{"object":"0x6080806040523460195760015f5561016f908161001e8239f35b5f80fdfe6080806040526004361015610012575f80fd5b5f3560e01c9081635e58b949146101205750638808573314610032575f80fd5b60e036600319011261011c576004356001600160a01b0381169081900361011c576024356001600160a01b038116919082900361011c5760c4356001600160401b03811161011c573660238201121561011c576004810135906001600160401b03821161011c57602490369260051b01011161011c575f54905f19821461010857602092600183015f5560405190815260443584820152606435604082015260a4356060820152827f3eba3911388c9e6339dc1b816e5e468596459574317c183d3b9638b7a12f566d60803393a4604051908152f35b634e487b7160e01b5f52601160045260245ffd5b5f80fd5b3461011c575f36600319011261011c576020905f548152f3fea264697066735822122082ba6f2b2113427a1073b8a17846b0ed2d8c5eaa48ff7ddd8771053b26dd1ef864736f6c634300081c0033","linkReferences":{}},"methodIdentifiers":{"buyCover(address,address,uint256,uint256,uint256,uint256,bytes[])":"88085733","nextCoverId()":"5e58b949"},"id":0}