{"abi":[{"type":"function","name":"buyCover","inputs":[{"name":"contractAddress","type":"address","internalType":"address"},{"name":"coverAsset","type":"address","internalType":"address"},{"name":"amount","type":"uint256","internalType":"uint256"},{"name":"period","type":"uint256","internalType":"uint256"},{"name":"typeId","type":"uint256","internalType":"uint256"},{"name":"maxPremiumInAsset","type":"uint256","internalType":"uint256"},{"name":"externalData","type":"bytes[]","internalType":"bytes[]"}],"outputs":[{"name":"coverId","type":"uint256","internalType":"uint256"}],"stateMutability":"payable"},{"type":"function","name":"nextCoverId","inputs":[],"outputs":[{"name":"","type":"uint256","internalType":"uint256"}],"stateMutability":"view"},{"type":"event","name":"CoverPurchased","inputs":[{"name":"coverId","type":"uint256","indexed":true,"internalType":"uint256"},{"name":"buyer","type":"address","indexed":true,"internalType":"address"},{"name":"product","type":"address","indexed":true,"internalType":"address"},{"name":"coverAsset","type":"address","indexed":false,"internalType":"address"},{"name":"amount","type":"uint256","indexed":false,"internalType":"uint256"},{"name":"period","type":"uint256","indexed":false,"internalType":"uint256"},{"name":"premium","type":"uint256","indexed":false,"internalType":"uint256"}],"anonymous":false}],"bytecode":{"object":"0x608060405234602257600e6085565b60146026565b610457610091823961045790f35b602c565b60405190565b5f80fd5b5f1b90565b90603f5f19916030565b9181191691161790565b90565b90565b90565b6061605d6065926049565b604f565b604c565b90565b90565b90607b60776081926052565b6068565b82546035565b9055565b608e60015f606b565b56fe60806040526004361015610013575b61025b565b61001d5f3561003c565b80635e58b949146100375763880857330361000e57610226565b6100bf565b60e01c90565b60405190565b5f80fd5b5f80fd5b5f91031261005a57565b61004c565b1c90565b90565b61007690600861007b930261005f565b610063565b90565b906100899154610066565b90565b6100975f5f9061007e565b90565b90565b6100a69061009a565b9052565b91906100bd905f6020850194019061009d565b565b346100ef576100cf366004610050565b6100eb6100da61008c565b6100e2610042565b918291826100aa565b0390f35b610048565b5f80fd5b60018060a01b031690565b61010c906100f8565b90565b61011881610103565b0361011f57565b5f80fd5b905035906101308261010f565b565b61013b8161009a565b0361014257565b5f80fd5b9050359061015382610132565b565b5f80fd5b5f80fd5b5f80fd5b909182601f830112156101995781359160018060401b03831161019457602001926020830284011161018f57565b61015d565b610159565b610155565b9060e082820312610221576101b5815f8401610123565b926101c38260208501610123565b926101d18360408301610146565b926101df8160608401610146565b926101ed8260808501610146565b926101fb8360a08301610146565b9260c082013560018060401b03811161021c576102189201610161565b9091565b6100f4565b61004c565b61025761024661023736600461019e565b96959095949194939293610395565b61024e610042565b918291826100aa565b0390f35b5f80fd5b5f90565b5f1c90565b61027461027991610263565b610063565b90565b6102869054610268565b90565b634e487b7160e01b5f52601160045260245ffd5b6102a69061009a565b5f1981146102b45760010190565b610289565b5f1b90565b906102ca5f19916102b9565b9181191691161790565b90565b6102eb6102e66102f09261009a565b6102d4565b61009a565b90565b90565b9061030b610306610312926102d7565b6102f3565b82546102be565b9055565b61032a61032561032f926100f8565b6102d4565b6100f8565b90565b61033b90610316565b90565b61034790610332565b90565b61035390610103565b9052565b61038c61039394610382606094989795610378608086019a5f87019061034a565b602085019061009d565b604083019061009d565b019061009d565b565b93509394509094506103a561025f565b506103af5f61027c565b6103c16103bb8261029d565b5f6102f6565b94859161041b3394959192966104096104036103fd7f3eba3911388c9e6339dc1b816e5e468596459574317c183d3b9638b7a12f566d976102d7565b9761033e565b9761033e565b97610412610042565b94859485610357565b0390a49056fea26469706673582212205879c55bce5e198b151d5f37942fe49542198e571b2c7d64be1aa79bc2882c0064736f6c634300081c0033","linkReferences":{}},"methodIdentifiers":{"buyCover(address,address,uint256,uint256,uint256,uint256,bytes[])":"88085733","nextCoverId()":"5e58b949"},"id":151}