{"abi":[{"type":"constructor","inputs":[],"stateMutability":"nonpayable"},{"type":"function","name":"allVaults","inputs":[{"name":"","type":"uint256","internalType":"uint256"}],"outputs":[{"name":"","type":"address","internalType":"address"}],"stateMutability":"view"},{"type":"function","name":"batchUpdateAllVaultControllers","inputs":[{"name":"_controller","type":"address","internalType":"address"}],"outputs":[],"stateMutability":"nonpayable"},{"type":"function","name":"batchUpdateVaultController","inputs":[{"name":"vaultAddresses","type":"address[]","internalType":"address[]"},{"name":"_controller","type":"address","internalType":"address"}],"outputs":[],"stateMutability":"nonpayable"},{"type":"function","name":"clearBrokenVault","inputs":[{"name":"user","type":"address","internalType":"address"}],"outputs":[],"stateMutability":"nonpayable"},{"type":"function","name":"controller","inputs":[],"outputs":[{"name":"","type":"address","internalType":"address"}],"stateMutability":"view"},{"type":"function","name":"createVault","inputs":[{"name":"user","type":"address","internalType":"address"},{"name":"strategyName","type":"string","internalType":"string"}],"outputs":[{"name":"vault","type":"address","internalType":"address"},{"name":"strategy","type":"address","internalType":"address"},{"name":"adapter","type":"address","internalType":"address"}],"stateMutability":"nonpayable"},{"type":"function","name":"ethUsdFeed","inputs":[],"outputs":[{"name":"","type":"address","internalType":"address"}],"stateMutability":"view"},{"type":"function","name":"getAllVaults","inputs":[],"outputs":[{"name":"","type":"address[]","internalType":"address[]"}],"stateMutability":"view"},{"type":"function","name":"getVault","inputs":[{"name":"user","type":"address","internalType":"address"}],"outputs":[{"name":"","type":"address","internalType":"address"}],"stateMutability":"view"},{"type":"function","name":"getVaultAdapter","inputs":[{"name":"vault","type":"address","internalType":"address"}],"outputs":[{"name":"adapter","type":"address","internalType":"address"}],"stateMutability":"view"},{"type":"function","name":"getVaultCount","inputs":[],"outputs":[{"name":"","type":"uint256","internalType":"uint256"}],"stateMutability":"view"},{"type":"function","name":"getVaultsNeedingUpgrade","inputs":[],"outputs":[{"name":"","type":"address[]","internalType":"address[]"}],"stateMutability":"view"},{"type":"function","name":"hedgeAdapterFactory","inputs":[],"outputs":[{"name":"","type":"address","internalType":"address"}],"stateMutability":"view"},{"type":"function","name":"initialize","inputs":[{"name":"_usdc","type":"address","internalType":"address"},{"name":"_weth","type":"address","internalType":"address"},{"name":"_pool","type":"address","internalType":"address"},{"name":"_ethUsdFeed","type":"address","internalType":"address"},{"name":"_strategyFactory","type":"address","internalType":"address"},{"name":"_hedgeAdapterFactory","type":"address","internalType":"address"},{"name":"_quoter","type":"address","internalType":"address"},{"name":"_swapRouter","type":"address","internalType":"address"},{"name":"_controller","type":"address","internalType":"address"},{"name":"_implementation","type":"address","internalType":"address"}],"outputs":[],"stateMutability":"nonpayable"},{"type":"function","name":"initializeVaultAdapter","inputs":[{"name":"vault","type":"address","internalType":"address"}],"outputs":[],"stateMutability":"nonpayable"},{"type":"function","name":"isVaultInitialized","inputs":[{"name":"vaultAddress","type":"address","internalType":"address"}],"outputs":[{"name":"","type":"bool","internalType":"bool"}],"stateMutability":"view"},{"type":"function","name":"latestImplementation","inputs":[],"outputs":[{"name":"","type":"address","internalType":"address"}],"stateMutability":"view"},{"type":"function","name":"owner","inputs":[],"outputs":[{"name":"","type":"address","internalType":"address"}],"stateMutability":"view"},{"type":"function","name":"pool","inputs":[],"outputs":[{"name":"","type":"address","internalType":"address"}],"stateMutability":"view"},{"type":"function","name":"predictVaultAddress","inputs":[{"name":"user","type":"address","internalType":"address"},{"name":"strategy","type":"address","internalType":"address"}],"outputs":[{"name":"","type":"address","internalType":"address"}],"stateMutability":"view"},{"type":"function","name":"proxiableUUID","inputs":[],"outputs":[{"name":"","type":"bytes32","internalType":"bytes32"}],"stateMutability":"view"},{"type":"function","name":"quoter","inputs":[],"outputs":[{"name":"","type":"address","internalType":"address"}],"stateMutability":"view"},{"type":"function","name":"renounceOwnership","inputs":[],"outputs":[],"stateMutability":"nonpayable"},{"type":"function","name":"setController","inputs":[{"name":"_controller","type":"address","internalType":"address"}],"outputs":[],"stateMutability":"nonpayable"},{"type":"function","name":"setHedgeAdapterFactory","inputs":[{"name":"_hedgeAdapterFactory","type":"address","internalType":"address"}],"outputs":[],"stateMutability":"nonpayable"},{"type":"function","name":"setLatestImplementation","inputs":[{"name":"_implementation","type":"address","internalType":"address"}],"outputs":[],"stateMutability":"nonpayable"},{"type":"function","name":"strategyFactory","inputs":[],"outputs":[{"name":"","type":"address","internalType":"address"}],"stateMutability":"view"},{"type":"function","name":"swapRouter","inputs":[],"outputs":[{"name":"","type":"address","internalType":"address"}],"stateMutability":"view"},{"type":"function","name":"transferOwnership","inputs":[{"name":"newOwner","type":"address","internalType":"address"}],"outputs":[],"stateMutability":"nonpayable"},{"type":"function","name":"transferVaultOwnership","inputs":[{"name":"vault","type":"address","internalType":"address"},{"name":"newOwner","type":"address","internalType":"address"}],"outputs":[],"stateMutability":"nonpayable"},{"type":"function","name":"updateVaultController","inputs":[{"name":"vault","type":"address","internalType":"address"},{"name":"_controller","type":"address","internalType":"address"}],"outputs":[],"stateMutability":"nonpayable"},{"type":"function","name":"upgradeTo","inputs":[{"name":"newImplementation","type":"address","internalType":"address"}],"outputs":[],"stateMutability":"nonpayable"},{"type":"function","name":"upgradeToAndCall","inputs":[{"name":"newImplementation","type":"address","internalType":"address"},{"name":"data","type":"bytes","internalType":"bytes"}],"outputs":[],"stateMutability":"payable"},{"type":"function","name":"usdc","inputs":[],"outputs":[{"name":"","type":"address","internalType":"address"}],"stateMutability":"view"},{"type":"function","name":"vaultAdapters","inputs":[{"name":"","type":"address","internalType":"address"}],"outputs":[{"name":"","type":"address","internalType":"address"}],"stateMutability":"view"},{"type":"function","name":"vaults","inputs":[{"name":"","type":"address","internalType":"address"}],"outputs":[{"name":"","type":"address","internalType":"address"}],"stateMutability":"view"},{"type":"function","name":"weth","inputs":[],"outputs":[{"name":"","type":"address","internalType":"address"}],"stateMutability":"view"},{"type":"event","name":"AdminChanged","inputs":[{"name":"previousAdmin","type":"address","indexed":false,"internalType":"address"},{"name":"newAdmin","type":"address","indexed":false,"internalType":"address"}],"anonymous":false},{"type":"event","name":"BeaconUpgraded","inputs":[{"name":"beacon","type":"address","indexed":true,"internalType":"address"}],"anonymous":false},{"type":"event","name":"ControllerUpdated","inputs":[{"name":"oldController","type":"address","indexed":true,"internalType":"address"},{"name":"newController","type":"address","indexed":true,"internalType":"address"}],"anonymous":false},{"type":"event","name":"ImplementationUpdated","inputs":[{"name":"oldImplementation","type":"address","indexed":true,"internalType":"address"},{"name":"newImplementation","type":"address","indexed":true,"internalType":"address"}],"anonymous":false},{"type":"event","name":"Initialized","inputs":[{"name":"version","type":"uint8","indexed":false,"internalType":"uint8"}],"anonymous":false},{"type":"event","name":"OwnershipTransferred","inputs":[{"name":"previousOwner","type":"address","indexed":true,"internalType":"address"},{"name":"newOwner","type":"address","indexed":true,"internalType":"address"}],"anonymous":false},{"type":"event","name":"Upgraded","inputs":[{"name":"implementation","type":"address","indexed":true,"internalType":"address"}],"anonymous":false},{"type":"event","name":"VaultCreated","inputs":[{"name":"user","type":"address","indexed":true,"internalType":"address"},{"name":"vault","type":"address","indexed":true,"internalType":"address"},{"name":"strategy","type":"address","indexed":true,"internalType":"address"},{"name":"adapter","type":"address","indexed":false,"internalType":"address"}],"anonymous":false},{"type":"error","name":"AdapterCreationFailed","inputs":[]},{"type":"error","name":"InitializationFailed","inputs":[]},{"type":"error","name":"InvalidController","inputs":[]},{"type":"error","name":"InvalidETHFeed","inputs":[]},{"type":"error","name":"InvalidHedgeAdapterFactory","inputs":[]},{"type":"error","name":"InvalidImplementation","inputs":[]},{"type":"error","name":"InvalidPool","inputs":[]},{"type":"error","name":"InvalidQuoter","inputs":[]},{"type":"error","name":"InvalidStrategyFactory","inputs":[]},{"type":"error","name":"InvalidSwapRouter","inputs":[]},{"type":"error","name":"InvalidUSDC","inputs":[]},{"type":"error","name":"InvalidUser","inputs":[]},{"type":"error","name":"InvalidWETH","inputs":[]},{"type":"error","name":"StrategyCreationFailed","inputs":[]},{"type":"error","name":"StrategyInitializationFailed","inputs":[]},{"type":"error","name":"VaultAlreadyExists","inputs":[]},{"type":"error","name":"VaultNotInitialized","inputs":[]}],"bytecode":{"object":"0x60a080604052346100da57306080525f549060ff8260081c16610088575060ff8082160361004e575b60405161274d90816100df82396080518181816112c1015281816113e201526117660152f35b60ff90811916175f557f7f26b83ff96e1f2b6a682f133852f6798a09c465da95921460cefb3847402498602060405160ff8152a15f610028565b62461bcd60e51b815260206004820152602760248201527f496e697469616c697a61626c653a20636f6e747261637420697320696e697469604482015266616c697a696e6760c81b6064820152608490fd5b5f80fdfe6080806040526004361015610012575f80fd5b5f905f3560e01c9081630eb9af3814611ab65750806316f0115b14611a8e57806331a4ab52146119b55780633659cfe6146117475780633be8e7321461171e5780633e413bee146116f55780633fc8cef3146116cc5780634093d4b71461161c5780634adde6e6146108165780634f1ef2861461136c57806352d1902d146112ae5780636215772714611280578063715018a61461123657806374d4e49114611218578063771a01a7146111145780638009b7bd146110eb5780638da5cb5b146110c25780639094a91e1461107e57806392eefe9b1461100957806397331bf914610f8b5780639ef3571014610f62578063a622ee7c14610f21578063b133f4d314610ef8578063b1839a4114610ea1578063b339236a14610d4a578063b771f73d146108db578063bb45339414610857578063bebf29c814610816578063c306b3781461046d578063c31c9c0714610444578063c5aeb76d14610418578063c6bbd5a7146103ef578063c72eafae146103c5578063f2fde38b14610334578063f31b21ef146102ad578063f77c4791146102845763fdc10daf146101b5575f80fd5b3461024e57604036600319011261024e576101ce611af5565b906101d7611b0b565b6033546001600160a01b03163314158061026f575b610260576001600160a01b0316801561026057819260018060a01b031690813b1561025c57829160248392604051948593849263f2fde38b60e01b845260048401525af180156102515761023d5750f35b8161024791611b21565b61024e5780f35b80fd5b6040513d84823e3d90fd5b5050fd5b63fd684c3b60e01b8252600482fd5b5060d1546001600160a01b03163314156101ec565b503461024e578060031936011261024e5760d1546040516001600160a01b039091168152602090f35b503461024e57604036600319011261024e576102c7611af5565b906102d0611b0b565b6102d861203f565b6001600160a01b0316801561032557819260018060a01b031690813b1561025c5782916024839260405194859384926392eefe9b60e01b845260048401525af180156102515761023d5750f35b6336abb4df60e11b8252600482fd5b503461024e57602036600319011261024e5761034e611af5565b61035661203f565b6001600160a01b038116156103715761036e90612097565b80f35b60405162461bcd60e51b815260206004820152602660248201527f4f776e61626c653a206e6577206f776e657220697320746865207a65726f206160448201526564647265737360d01b6064820152608490fd5b503461024e57602036600319011261024e5761036e6103e2611af5565b6103ea61203f565b611f88565b503461024e578060031936011261024e5760cf546040516001600160a01b039091168152602090f35b503461024e578060031936011261024e57610440610434611e3a565b60405191829182611b9f565b0390f35b503461024e578060031936011261024e5760d0546040516001600160a01b039091168152602090f35b503461024e5761014036600319011261024e57610488611af5565b610490611b0b565b6044356001600160a01b03811690819003610812576064356001600160a01b0381169081900361080e576084356001600160a01b0381169081900361080a5760a4356001600160a01b038116908190036108065760c4356001600160a01b03811691908290036108025760e4356001600160a01b03811693908490036107fe57610104356001600160a01b03811695908690036107fa57610124356001600160a01b03811697908890036107f6578a549860ff8a60081c1615998a809b6107e9575b80156107d2575b156107765760ff1981166001178d558a610765575b5061058860ff8d5460081c16610583816120cc565b6120cc565b61059133612097565b8b549a6105a360ff8d60081c166120cc565b6001600160a01b0316908115610756576001600160a01b031690811561074757821561073957831561072a57841561071b57851561070c5786156106fd5787156106ee5788156106df5789156106d05760018060a01b031960c954161760c95560018060a01b031960ca54161760ca5560018060a01b031960cb54161760cb5560018060a01b031960cc54161760cc5560018060a01b031960cd54161760cd5560018060a01b031960ce54161760ce5560018060a01b031960cf54161760cf5560018060a01b031960d054161760d05560018060a01b031960d154161760d15560018060a01b031960d254161760d25561069b575080f35b61ff00191681557f7f26b83ff96e1f2b6a682f133852f6798a09c465da95921460cefb3847402498602060405160018152a180f35b63340aafcd60e11b8d5260048dfd5b6336abb4df60e11b8d5260048dfd5b6378f2007160e01b8d5260048dfd5b63c3a9778760e01b8d5260048dfd5b638133f8af60e01b8d5260048dfd5b632f9b373360e11b8d5260048dfd5b632cf144b760e21b8d5260048dfd5b62820f3560e61b8d5260048dfd5b63fdf8616360e01b8d5260048dfd5b634e05805760e01b8d5260048dfd5b61ffff1916610101178c555f61056e565b60405162461bcd60e51b815260206004820152602e60248201527f496e697469616c697a61626c653a20636f6e747261637420697320616c72656160448201526d191e481a5b9a5d1a585b1a5e995960921b6064820152608490fd5b50303b1580156105595750600160ff821614610559565b50600160ff821610610552565b8a80fd5b8980fd5b8880fd5b8780fd5b8680fd5b8580fd5b8480fd5b8380fd5b503461024e57602036600319011261024e576020906001600160a01b0361083b611af5565b16815260d48252604060018060a01b0391205416604051908152f35b503461024e57602036600319011261024e57610871611af5565b61087961203f565b6001600160a01b031680156108cc5760d280546001600160a01b0319811683179091556001600160a01b03167faa3f731066a578e5f39b4215468d826cdd15373cbc0dfc9cb9bdc649718ef7da8380a380f35b63340aafcd60e11b8252600482fd5b503461024e57604036600319011261024e576108f5611af5565b6024356001600160401b038111610d465736602382011215610d465760048101356001600160401b038111610812573660248284010111610812576001600160a01b038316918215610d375781602091602487604460018060a01b0360cd5416936040519788968795869363116fd50160e01b85528a6004860152828286015201848401378181018301849052601f01601f191681010301925af1908115610d2c578491610d0d575b506001600160a01b038116928315610cfe5760d55460405190602082019260018060601b03199060601b1683524260348301526054820152605481526109e5607482611b21565b51902060d15460c95460ca54604051630a2ca2bd60e11b60208201529394610a36938593610a28936001600160a01b039081169291811691163360248701611d61565b03601f198101835282611b21565b60d25460405191906001600160a01b03166103be808401906001600160401b03821185831017610cea5791849391610a729361225a8639611db8565b039085f58015610cdf57604051638da5cb5b60e01b81526001600160a01b03919091169290602081600481875afa908115610c68578591610cc0575b50604051635463173b60e11b815290602082600481885afa918215610cb5578692610c94575b506001600160a01b031615908115610c82575b50610c735783602060018060a01b0360ce5416604460405180948193637d01735360e11b83528960048401528160248401525af1908115610c68578591610c39575b506001600160a01b0316918215610c2a5783855260d46020526040852080546001600160a01b0319168417905560d554600160401b811015610c16578291606096610b7b83600189950160d555611b73565b81546001600160a01b0360039290921b82811b199091169086901b1790915582825260d360205260408220541615610beb575b507f65f3b3eb308975062edaa844d30896caad06d8482fdb020b3e1557f17f5a76c76020604051878152a460405192835260208301526040820152f35b81815260d36020526040902080546001600160a01b0319166001600160a01b0384161790555f610bae565b634e487b7160e01b86526041600452602486fd5b6317cd2d2b60e31b8552600485fd5b610c5b915060203d602011610c61575b610c538183611b21565b810190611c7d565b5f610b29565b503d610c49565b6040513d87823e3d90fd5b630337323560e31b8452600484fd5b6001600160a01b03161590505f610ae7565b610cae91925060203d602011610c6157610c538183611b21565b905f610ad4565b6040513d88823e3d90fd5b610cd9915060203d602011610c6157610c538183611b21565b5f610aae565b6040513d85823e3d90fd5b634e487b7160e01b89526041600452602489fd5b6310be6f5360e01b8552600485fd5b610d26915060203d602011610c6157610c538183611b21565b5f61099e565b6040513d86823e3d90fd5b63fd684c3b60e01b8552600485fd5b8280fd5b503461024e57604036600319011261024e57602090610d67611af5565b90610e06610e45610d76611b0b565b60d15460c95460ca54604051630a2ca2bd60e11b8a8201529693610dc3938893610db5936001600160a01b039081169291811691168b60248701611d61565b03601f198101865285611b21565b6103be908660405195610dd882850188611b21565b8387528187019361225a853960d2546040519683880192610e1492899291906001600160a01b031685611db8565b03601f198101885287611b21565b604051958694838601985180918a5e85019083820190858252519283915e010190815203601f198101835282611b21565b5190206040516001600160f81b03198482019081523060601b60218301526001600160a01b03909316603582015260558082019290925290815290610e8b607583611b21565b905190206040516001600160a01b039091168152f35b503461024e57602036600319011261024e57610ebb611af5565b610ec361203f565b6001600160a01b03168015610ee95760ce80546001600160a01b03191691909117905580f35b638133f8af60e01b8252600482fd5b503461024e578060031936011261024e5760d2546040516001600160a01b039091168152602090f35b503461024e57602036600319011261024e576020906001600160a01b03610f46611af5565b16815260d38252604060018060a01b0391205416604051908152f35b503461024e578060031936011261024e5760cd546040516001600160a01b039091168152602090f35b503461024e578060031936011261024e5760405160d58054808352908352909160208301917f51858de9989bf7441865ebdadbf7382c8838edbf830f5d86a9a51ac773676dd6915b818110610fea576104408561043481870382611b21565b82546001600160a01b0316845260209093019260019283019201610fd3565b503461024e57602036600319011261024e57611023611af5565b61102b61203f565b6001600160a01b031680156103255760d180546001600160a01b0319811683179091556001600160a01b03167f1c87e2bbc4e5fa5d7f6f8c44d66cb241dff224b8602eb5435ca2076d2a5c6fc28380a380f35b503461024e57602036600319011261024e576004359060d55482101561024e5760206110a983611b73565b905460405160039290921b1c6001600160a01b03168152f35b503461024e578060031936011261024e576033546040516001600160a01b039091168152602090f35b503461024e578060031936011261024e5760cc546040516001600160a01b039091168152602090f35b503461024e57604036600319011261024e576004356001600160401b0381116112145736602382011215611214576004810135906001600160401b038211610d46573660248360051b83010111610d465761116d611b0b565b61117561203f565b6001600160a01b031690811561120557908391825b84811015611201576024600582901b830101356001600160a01b0381169081900361080e57803b1561080e578480916024604051809481936392eefe9b60e01b83528960048401525af1908115610c685785916111ec575b505060010161118a565b816111f691611b21565b61081257835f6111e2565b8380f35b6336abb4df60e11b8452600484fd5b5080fd5b503461024e578060031936011261024e57602060d554604051908152f35b503461024e578060031936011261024e5761124f61203f565b603380546001600160a01b0319811690915581906001600160a01b03165f5160206126785f395f51905f528280a380f35b503461024e57602036600319011261024e5760206112a461129f611af5565b611c9c565b6040519015158152f35b503461024e578060031936011261024e577f00000000000000000000000000000000000000000000000000000000000000006001600160a01b031630036113065760206040515f5160206126585f395f51905f528152f35b60405162461bcd60e51b815260206004820152603860248201527f555550535570677261646561626c653a206d757374206e6f742062652063616c6044820152771b1959081d1a1c9bdd59da0819195b1959d85d1958d85b1b60421b6064820152608490fd5b50604036600319011261024e57611381611af5565b602435906001600160401b038211610d465736602383011215610d4657816004013591836113ae84611b58565b916113bc6040519384611b21565b84835260208301943660248284010111610d4657806024602093018737830101526114347f00000000000000000000000000000000000000000000000000000000000000006001600160a01b031661141630821415611be1565b5f5160206126585f395f51905f52546001600160a01b031614611c2f565b61143c61203f565b5f5160206126185f395f51905f525460ff161561145e575061036e915061212c565b6040516352d1902d60e01b81529091906001600160a01b03821690602081600481855afa8691816115e8575b506114d85760405162461bcd60e51b815260206004820152602e60248201525f5160206126f85f395f51905f5260448201526d6f6e206973206e6f74205555505360901b6064820152608490fd5b5f5160206126585f395f51905f52036115a4576114f48261212c565b5f5160206126985f395f51905f528580a28382511580159061159c575b61151d575b5050505080f35b8061158a9460405194611531606087611b21565b602786525f5160206126d85f395f51905f526020870152660819985a5b195960ca1b60408701525190845af43d15611594573d9161156e83611b58565b9261157c6040519485611b21565b83523d86602085013e6121bc565b505f808083611516565b6060916121bc565b506001611511565b60405162461bcd60e51b815260206004820152602960248201525f5160206126b85f395f51905f526044820152681a58589b195555525160ba1b6064820152608490fd5b9091506020813d602011611614575b8161160460209383611b21565b810103126108065751905f61148a565b3d91506115f7565b503461024e57602036600319011261024e57611636611af5565b61163e61203f565b6001600160a01b03168015610325578160d55491815b83811061165f578280f35b61166881611b73565b905460039190911b1c6001600160a01b0316803b15610812578380916024604051809481936392eefe9b60e01b83528860048401525af1908115610d2c5784916116b7575b5050600101611654565b816116c191611b21565b610d4657825f6116ad565b503461024e578060031936011261024e5760ca546040516001600160a01b039091168152602090f35b503461024e578060031936011261024e5760c9546040516001600160a01b039091168152602090f35b503461024e578060031936011261024e5760ce546040516001600160a01b039091168152602090f35b503461024e57602036600319011261024e57611761611af5565b61179a7f00000000000000000000000000000000000000000000000000000000000000006001600160a01b031661141630821415611be1565b6117a261203f565b6020906040516117b28382611b21565b83815282810190601f1984013683375f5160206126185f395f51905f525460ff16156117e457505061036e915061212c565b6040516352d1902d60e01b8152919290916001600160a01b038216908581600481855afa879181611986575b5061185e5760405162461bcd60e51b815260048101879052602e60248201525f5160206126f85f395f51905f5260448201526d6f6e206973206e6f74205555505360901b6064820152608490fd5b939492937fc9f76b5ec45e5cdef99837d7b6d2467235c1df8933c8ca56df5c35afa2c7d44401611942576118918261212c565b5f5160206126985f395f51905f528680a28483511580159061193b575b6118bb575b505050505080f35b8061192795604051956118cf606088611b21565b602787525f5160206126d85f395f51905f5286880152660819985a5b195960ca1b60408801525190845af4903d15611932573d61190b81611b58565b906119196040519283611b21565b81528681943d92013e6121bc565b505f808080846118b3565b606092506121bc565b50806118ae565b60405162461bcd60e51b815260048101849052602960248201525f5160206126b85f395f51905f526044820152681a58589b195555525160ba1b6064820152608490fd5b9091508681813d83116119ae575b61199e8183611b21565b810103126108025751905f611810565b503d611994565b5034611a57576020366003190112611a57576119cf611af5565b6033546001600160a01b031633141580611a79575b611a6a576001600160a01b039081165f81815260d460205260409020549091168015611a5b57813b15611a57575f9160248392604051948593849263dca59f5560e01b845260048401525af18015611a4c57611a3e575080f35b611a4a91505f90611b21565b005b6040513d5f823e3d90fd5b5f80fd5b6317cd2d2b60e31b5f5260045ffd5b63fd684c3b60e01b5f5260045ffd5b5060d1546001600160a01b03163314156119e4565b34611a57575f366003190112611a575760cb546040516001600160a01b039091168152602090f35b34611a57576020366003190112611a57576020906001600160a01b03611ada611af5565b165f90815260d3835260409020546001600160a01b03168152f35b600435906001600160a01b0382168203611a5757565b602435906001600160a01b0382168203611a5757565b601f909101601f19168101906001600160401b03821190821017611b4457604052565b634e487b7160e01b5f52604160045260245ffd5b6001600160401b038111611b4457601f01601f191660200190565b60d554811015611b8b5760d55f5260205f2001905f90565b634e487b7160e01b5f52603260045260245ffd5b60206040818301928281528451809452019201905f5b818110611bc25750505090565b82516001600160a01b0316845260209384019390920191600101611bb5565b15611be857565b60405162461bcd60e51b815260206004820152602c60248201525f5160206126385f395f51905f5260448201526b19195b1959d85d1958d85b1b60a21b6064820152608490fd5b15611c3657565b60405162461bcd60e51b815260206004820152602c60248201525f5160206126385f395f51905f5260448201526b6163746976652070726f787960a01b6064820152608490fd5b90816020910312611a5757516001600160a01b0381168103611a575790565b6001600160a01b03168015611d3b57604051638da5cb5b60e01b8152602081600481855afa5f9181611d40575b50611cd45750505f90565b6001600160a01b031615611d3b57602060049160405192838092635463173b60e11b82525afa5f9181611d1a575b50611d0c57505f90565b6001600160a01b0316151590565b611d3491925060203d602011610c6157610c538183611b21565b905f611d02565b505f90565b611d5a91925060203d602011610c6157610c538183611b21565b905f611cc9565b6001600160a01b039182168152918116602083015291821660408201529181166060830152909116608082015260a00190565b805180835260209291819084018484015e5f828201840152601f01601f1916010190565b6001600160a01b039091168152604060208201819052611dda92910190611d94565b90565b6001600160401b038111611b445760051b60200190565b90611dfe82611ddd565b611e0b6040519182611b21565b8281528092611e1c601f1991611ddd565b0190602036910137565b8051821015611b8b5760209160051b010190565b60d2546001600160a01b0316908115611f6e5760d55491611e5a83611df4565b925f915f5b828110611eab57505050611e7281611df4565b905f5b818110611e83575090925050565b6001906001600160a01b03611e988288611e26565b5116611ea48286611e26565b5201611e75565b60046020611eb883611b73565b905460405163557887a160e11b81529384929091839160031b1c6001600160a01b03165afa8015611a4c5783915f91611f50575b506001600160a01b031603611f04575b600101611e5f565b92611f0e84611b73565b905460039190911b1c6001600160a01b0316611f2a8288611e26565b525f198114611f3c5760010192611efc565b634e487b7160e01b5f52601160045260245ffd5b611f68915060203d8111610c6157610c538183611b21565b5f611eec565b9050604051611f7e602082611b21565b5f81525f36813790565b6001600160a01b03168015611a6a575f81815260d360205260409020546001600160a01b0316801561203b57602060049160405192838092638da5cb5b60e01b82525afa5f918161201a575b50611ff8575b505f90815260d36020526040902080546001600160a01b0319169055565b6001600160a01b031661200b575f611fda565b639a09fd8760e01b5f5260045ffd5b61203491925060203d602011610c6157610c538183611b21565b905f611fd4565b5050565b6033546001600160a01b0316330361205357565b606460405162461bcd60e51b815260206004820152602060248201527f4f776e61626c653a2063616c6c6572206973206e6f7420746865206f776e65726044820152fd5b603380546001600160a01b039283166001600160a01b0319821681179092559091165f5160206126785f395f51905f525f80a3565b156120d357565b60405162461bcd60e51b815260206004820152602b60248201527f496e697469616c697a61626c653a20636f6e7472616374206973206e6f74206960448201526a6e697469616c697a696e6760a81b6064820152608490fd5b803b15612161575f5160206126585f395f51905f5280546001600160a01b0319166001600160a01b0392909216919091179055565b60405162461bcd60e51b815260206004820152602d60248201527f455243313936373a206e657720696d706c656d656e746174696f6e206973206e60448201526c1bdd08184818dbdb9d1c9858dd609a1b6064820152608490fd5b9192901561221e57508151156121d0575090565b3b156121d95790565b60405162461bcd60e51b815260206004820152601d60248201527f416464726573733a2063616c6c20746f206e6f6e2d636f6e74726163740000006044820152606490fd5b8251909150156122315750805190602001fd5b60405162461bcd60e51b815260206004820152908190612255906024830190611d94565b0390fdfe60806040526103be80380380610014816101f2565b9283398101906040818303126101ee5780516001600160a01b038116918282036101ee576020810151906001600160401b0382116101ee57019183601f840112156101ee57825161006c6100678261022b565b6101f2565b938185526020850195602083830101116101ee57815f926020809301885e85010152813b15610193577f360894a13ba1a3210667c828492db98dca3e2076cc3735a920a3ca505d382bbc80546001600160a01b031916821790557fbc7cd75a20ee27fd9adebab32041f755214dbc6bffa90cc0225b39da2e5c2d3b5f80a281511580159061018c575b610108575b60405160c390816102fb8239f35b5f8061017b9461011860606101f2565b94602786527f416464726573733a206c6f772d6c6576656c2064656c65676174652063616c6c6020870152660819985a5b195960ca1b60408701525190845af43d15610184573d9161016c6100678461022b565b9283523d5f602085013e610246565b505f80806100fa565b606091610246565b505f6100f5565b60405162461bcd60e51b815260206004820152602d60248201527f455243313936373a206e657720696d706c656d656e746174696f6e206973206e60448201526c1bdd08184818dbdb9d1c9858dd609a1b6064820152608490fd5b5f80fd5b6040519190601f01601f191682016001600160401b0381118382101761021757604052565b634e487b7160e01b5f52604160045260245ffd5b6001600160401b03811161021757601f01601f191660200190565b919290156102a8575081511561025a575090565b3b156102635790565b60405162461bcd60e51b815260206004820152601d60248201527f416464726573733a2063616c6c20746f206e6f6e2d636f6e74726163740000006044820152606490fd5b8251909150156102bb5750805190602001fd5b604460209160405192839162461bcd60e51b83528160048401528051918291826024860152018484015e5f828201840152601f01601f19168101030190fdfe60806040523615603d575f516020606e5f395f51905f52545f9081906001600160a01b0316368280378136915af43d5f803e156039573d5ff35b3d5ffd5b5f516020606e5f395f51905f52545f9081906001600160a01b0316368280378136915af43d5f803e156039573d5ff3fe360894a13ba1a3210667c828492db98dca3e2076cc3735a920a3ca505d382bbca2646970667358221220d6f56c175e9054c55bc2dfab07a5ab2cd7e125a57f612e3d470bd8651a9b7ae464736f6c634300081c00334910fdfa16fed3260ed0e7147f7cc6da11a60208b5b9406d12a635614ffd914346756e6374696f6e206d7573742062652063616c6c6564207468726f75676820360894a13ba1a3210667c828492db98dca3e2076cc3735a920a3ca505d382bbc8be0079c531659141344cd1fd0a4f28419497f9722a3daafe3b4186f6b6457e0bc7cd75a20ee27fd9adebab32041f755214dbc6bffa90cc0225b39da2e5c2d3b45524331393637557067726164653a20756e737570706f727465642070726f78416464726573733a206c6f772d6c6576656c2064656c65676174652063616c6c45524331393637557067726164653a206e657720696d706c656d656e74617469a2646970667358221220e61154bbadd3fe6f3a90765d1a1838137af2c561cab6c7297c4f16a990dd4d4964736f6c634300081c0033","linkReferences":{}},"methodIdentifiers":{"allVaults(uint256)":"9094a91e","batchUpdateAllVaultControllers(address)":"4093d4b7","batchUpdateVaultController(address[],address)":"771a01a7","clearBrokenVault(address)":"c72eafae","controller()":"f77c4791","createVault(address,string)":"b771f73d","ethUsdFeed()":"8009b7bd","getAllVaults()":"97331bf9","getVault(address)":"0eb9af38","getVaultAdapter(address)":"bebf29c8","getVaultCount()":"74d4e491","getVaultsNeedingUpgrade()":"c5aeb76d","hedgeAdapterFactory()":"3be8e732","initialize(address,address,address,address,address,address,address,address,address,address)":"c306b378","initializeVaultAdapter(address)":"31a4ab52","isVaultInitialized(address)":"62157727","latestImplementation()":"b133f4d3","owner()":"8da5cb5b","pool()":"16f0115b","predictVaultAddress(address,address)":"b339236a","proxiableUUID()":"52d1902d","quoter()":"c6bbd5a7","renounceOwnership()":"715018a6","setController(address)":"92eefe9b","setHedgeAdapterFactory(address)":"b1839a41","setLatestImplementation(address)":"bb453394","strategyFactory()":"9ef35710","swapRouter()":"c31c9c07","transferOwnership(address)":"f2fde38b","transferVaultOwnership(address,address)":"fdc10daf","updateVaultController(address,address)":"f31b21ef","upgradeTo(address)":"3659cfe6","upgradeToAndCall(address,bytes)":"4f1ef286","usdc()":"3e413bee","vaultAdapters(address)":"4adde6e6","vaults(address)":"a622ee7c","weth()":"3fc8cef3"},"id":102}