{"abi":[{"type":"constructor","inputs":[{"name":"_owner","type":"address","internalType":"address"}],"stateMutability":"nonpayable"},{"type":"function","name":"earned","inputs":[{"name":"","type":"address","internalType":"address"},{"name":"","type":"address","internalType":"address"}],"outputs":[{"name":"","type":"uint256","internalType":"uint256"}],"stateMutability":"pure"},{"type":"function","name":"getReward","inputs":[],"outputs":[],"stateMutability":"nonpayable"},{"type":"function","name":"notifyRewardAmount","inputs":[{"name":"token","type":"address","internalType":"address"},{"name":"reward","type":"uint256","internalType":"uint256"},{"name":"duration","type":"uint256","internalType":"uint256"}],"outputs":[],"stateMutability":"nonpayable"},{"type":"function","name":"owner","inputs":[],"outputs":[{"name":"","type":"address","internalType":"address"}],"stateMutability":"view"},{"type":"function","name":"renounceOwnership","inputs":[],"outputs":[],"stateMutability":"nonpayable"},{"type":"function","name":"stake","inputs":[{"name":"","type":"uint256","internalType":"uint256"}],"outputs":[],"stateMutability":"nonpayable"},{"type":"function","name":"sweep","inputs":[{"name":"token","type":"address","internalType":"address"},{"name":"to","type":"address","internalType":"address"}],"outputs":[],"stateMutability":"nonpayable"},{"type":"function","name":"sweepAmount","inputs":[{"name":"token","type":"address","internalType":"address"},{"name":"to","type":"address","internalType":"address"},{"name":"amount","type":"uint256","internalType":"uint256"}],"outputs":[],"stateMutability":"nonpayable"},{"type":"function","name":"transferOwnership","inputs":[{"name":"newOwner","type":"address","internalType":"address"}],"outputs":[],"stateMutability":"nonpayable"},{"type":"function","name":"withdraw","inputs":[{"name":"","type":"uint256","internalType":"uint256"}],"outputs":[],"stateMutability":"nonpayable"},{"type":"event","name":"OwnershipTransferred","inputs":[{"name":"previousOwner","type":"address","indexed":true,"internalType":"address"},{"name":"newOwner","type":"address","indexed":true,"internalType":"address"}],"anonymous":false},{"type":"event","name":"RewardNotified","inputs":[{"name":"token","type":"address","indexed":true,"internalType":"address"},{"name":"amount","type":"uint256","indexed":false,"internalType":"uint256"},{"name":"duration","type":"uint256","indexed":false,"internalType":"uint256"}],"anonymous":false},{"type":"event","name":"Swept","inputs":[{"name":"token","type":"address","indexed":true,"internalType":"address"},{"name":"to","type":"address","indexed":true,"internalType":"address"},{"name":"amount","type":"uint256","indexed":false,"internalType":"uint256"}],"anonymous":false}],"bytecode":{"object":"0x608034606857601f6107e738819003918201601f19168301916001600160401b03831184841017606c57808492602094604052833981010312606857516001600160a01b03811681036068576059906055336080565b6080565b60405161072090816100c78239f35b5f80fd5b634e487b7160e01b5f52604160045260245ffd5b5f80546001600160a01b039283166001600160a01b03198216811783559216907f8be0079c531659141344cd1fd0a4f28419497f9722a3daafe3b4186f6b6457e09080a356fe60806040526004361015610011575f80fd5b5f3560e01c8063055ebe2e1461036c578063211dc32d1461033f5780632e1a7d4d146102165780633d18b9121461032d578063715018a6146102e95780638da5cb5b146102c2578063a3cd8ac41461021b578063a694fc3a14610216578063b8dc491b1461013e5763f2fde38b14610087575f80fd5b3461013a57602036600319011261013a576100a06103be565b6100a8610434565b6001600160a01b031680156100e6575f80546001600160a01b03198116831782556001600160a01b0316905f5160206106ab5f395f51905f529080a3005b60405162461bcd60e51b815260206004820152602660248201527f4f776e61626c653a206e6577206f776e657220697320746865207a65726f206160448201526564647265737360d01b6064820152608490fd5b5f80fd5b3461013a57604036600319011261013a576101576103be565b61015f6103d4565b90610168610434565b6040516370a0823160e01b8152306004820152916001600160a01b039190911690602083602481855afa92831561020b575f936101d7575b50826101a857005b6020816101c4855f5160206106cb5f395f51905f52948661048b565b6040519485526001600160a01b031693a3005b9092506020813d602011610203575b816101f3602093836103fd565b8101031261013a575191836101a0565b3d91506101e6565b6040513d5f823e3d90fd5b6103ea565b3461013a57606036600319011261013a576102346103be565b7f8a888ea653a580e40660778ee0c0dabd23a81e8e2c8dcfb938e40982a157d8196040602435928361027b575b815193845260443560208501526001600160a01b031692a2005b6102bd82516323b872dd60e01b6020820152336024820152306044820152856064820152606481526102ae6084826103fd565b6001600160a01b0383166104cd565b610261565b3461013a575f36600319011261013a575f546040516001600160a01b039091168152602090f35b3461013a575f36600319011261013a57610301610434565b5f80546001600160a01b0319811682556001600160a01b03165f5160206106ab5f395f51905f528280a3005b3461013a575f36600319011261013a57005b3461013a57604036600319011261013a576103586103be565b506103616103d4565b5060206040515f8152f35b3461013a57606036600319011261013a576103856103be565b61038d6103d4565b5f5160206106cb5f395f51905f526020604435936103a9610434565b6001600160a01b0316926101c485828661048b565b600435906001600160a01b038216820361013a57565b602435906001600160a01b038216820361013a57565b3461013a57602036600319011261013a57005b601f909101601f19168101906001600160401b0382119082101761042057604052565b634e487b7160e01b5f52604160045260245ffd5b5f546001600160a01b0316330361044757565b606460405162461bcd60e51b815260206004820152602060248201527f4f776e61626c653a2063616c6c6572206973206e6f7420746865206f776e65726044820152fd5b60405163a9059cbb60e01b60208201526001600160a01b0390921660248301526044808301939093529181526104cb916104c66064836103fd565b6104cd565b565b60018060a01b0316905f80604051926104e76040856103fd565b602084527f5361666545524332303a206c6f772d6c6576656c2063616c6c206661696c6564602085015260208151910182865af13d156105ed573d906001600160401b0382116104205760405161055c94909261054e601f8201601f1916602001856103fd565b83523d5f602085013e6105f6565b80519081159182156105ca575b50501561057257565b60405162461bcd60e51b815260206004820152602a60248201527f5361666545524332303a204552433230206f7065726174696f6e20646964206e6044820152691bdd081cdd58d8d9595960b21b6064820152608490fd5b819250906020918101031261013a5760200151801515810361013a575f80610569565b9161055c926060915b91929015610658575081511561060a575090565b3b156106135790565b60405162461bcd60e51b815260206004820152601d60248201527f416464726573733a2063616c6c20746f206e6f6e2d636f6e74726163740000006044820152606490fd5b82519091501561066b5750805190602001fd5b604460209160405192839162461bcd60e51b83528160048401528051918291826024860152018484015e5f828201840152601f01601f19168101030190fdfe8be0079c531659141344cd1fd0a4f28419497f9722a3daafe3b4186f6b6457e07b09c29f9106defeccc9ac3b823f3aad0b470d120e5df7aed033b5c43a4bf718a26469706673582212200546d4b3f38037fdb1fdb39fd653f5ea5e72db97f1b11451660c1ccf27b92a5164736f6c634300081c0033","linkReferences":{}},"methodIdentifiers":{"earned(address,address)":"211dc32d","getReward()":"3d18b912","notifyRewardAmount(address,uint256,uint256)":"a3cd8ac4","owner()":"8da5cb5b","renounceOwnership()":"715018a6","stake(uint256)":"a694fc3a","sweep(address,address)":"b8dc491b","sweepAmount(address,address,uint256)":"055ebe2e","transferOwnership(address)":"f2fde38b","withdraw(uint256)":"2e1a7d4d"},"id":135}