{"abi":[{"type":"constructor","inputs":[{"name":"_asset","type":"address","internalType":"address"}],"stateMutability":"nonpayable"},{"type":"function","name":"allowance","inputs":[{"name":"owner","type":"address","internalType":"address"},{"name":"spender","type":"address","internalType":"address"}],"outputs":[{"name":"","type":"uint256","internalType":"uint256"}],"stateMutability":"view"},{"type":"function","name":"approve","inputs":[{"name":"spender","type":"address","internalType":"address"},{"name":"amount","type":"uint256","internalType":"uint256"}],"outputs":[{"name":"","type":"bool","internalType":"bool"}],"stateMutability":"nonpayable"},{"type":"function","name":"asset","inputs":[],"outputs":[{"name":"","type":"address","internalType":"address"}],"stateMutability":"view"},{"type":"function","name":"assetToken","inputs":[],"outputs":[{"name":"","type":"address","internalType":"contract IERC20"}],"stateMutability":"view"},{"type":"function","name":"assetsOf","inputs":[{"name":"user","type":"address","internalType":"address"}],"outputs":[{"name":"","type":"uint256","internalType":"uint256"}],"stateMutability":"view"},{"type":"function","name":"balanceOf","inputs":[{"name":"account","type":"address","internalType":"address"}],"outputs":[{"name":"","type":"uint256","internalType":"uint256"}],"stateMutability":"view"},{"type":"function","name":"decimals","inputs":[],"outputs":[{"name":"","type":"uint8","internalType":"uint8"}],"stateMutability":"view"},{"type":"function","name":"decreaseAllowance","inputs":[{"name":"spender","type":"address","internalType":"address"},{"name":"subtractedValue","type":"uint256","internalType":"uint256"}],"outputs":[{"name":"","type":"bool","internalType":"bool"}],"stateMutability":"nonpayable"},{"type":"function","name":"deposit","inputs":[{"name":"assets","type":"uint256","internalType":"uint256"},{"name":"receiver","type":"address","internalType":"address"}],"outputs":[{"name":"","type":"uint256","internalType":"uint256"}],"stateMutability":"nonpayable"},{"type":"function","name":"increaseAllowance","inputs":[{"name":"spender","type":"address","internalType":"address"},{"name":"addedValue","type":"uint256","internalType":"uint256"}],"outputs":[{"name":"","type":"bool","internalType":"bool"}],"stateMutability":"nonpayable"},{"type":"function","name":"name","inputs":[],"outputs":[{"name":"","type":"string","internalType":"string"}],"stateMutability":"view"},{"type":"function","name":"owner","inputs":[],"outputs":[{"name":"","type":"address","internalType":"address"}],"stateMutability":"view"},{"type":"function","name":"renounceOwnership","inputs":[],"outputs":[],"stateMutability":"nonpayable"},{"type":"function","name":"sharePrice","inputs":[],"outputs":[{"name":"","type":"uint256","internalType":"uint256"}],"stateMutability":"view"},{"type":"function","name":"simulateProfit","inputs":[{"name":"percentageBps","type":"uint256","internalType":"uint256"}],"outputs":[],"stateMutability":"nonpayable"},{"type":"function","name":"symbol","inputs":[],"outputs":[{"name":"","type":"string","internalType":"string"}],"stateMutability":"view"},{"type":"function","name":"totalSupply","inputs":[],"outputs":[{"name":"","type":"uint256","internalType":"uint256"}],"stateMutability":"view"},{"type":"function","name":"transfer","inputs":[{"name":"to","type":"address","internalType":"address"},{"name":"amount","type":"uint256","internalType":"uint256"}],"outputs":[{"name":"","type":"bool","internalType":"bool"}],"stateMutability":"nonpayable"},{"type":"function","name":"transferFrom","inputs":[{"name":"from","type":"address","internalType":"address"},{"name":"to","type":"address","internalType":"address"},{"name":"amount","type":"uint256","internalType":"uint256"}],"outputs":[{"name":"","type":"bool","internalType":"bool"}],"stateMutability":"nonpayable"},{"type":"function","name":"transferOwnership","inputs":[{"name":"newOwner","type":"address","internalType":"address"}],"outputs":[],"stateMutability":"nonpayable"},{"type":"event","name":"Approval","inputs":[{"name":"owner","type":"address","indexed":true,"internalType":"address"},{"name":"spender","type":"address","indexed":true,"internalType":"address"},{"name":"value","type":"uint256","indexed":false,"internalType":"uint256"}],"anonymous":false},{"type":"event","name":"OwnershipTransferred","inputs":[{"name":"previousOwner","type":"address","indexed":true,"internalType":"address"},{"name":"newOwner","type":"address","indexed":true,"internalType":"address"}],"anonymous":false},{"type":"event","name":"Transfer","inputs":[{"name":"from","type":"address","indexed":true,"internalType":"address"},{"name":"to","type":"address","indexed":true,"internalType":"address"},{"name":"value","type":"uint256","indexed":false,"internalType":"uint256"}],"anonymous":false}],"bytecode":{"object":"0x608060405234610363576112176020813803918261001c81610367565b93849283398101031261036357516001600160a01b03811690819003610363576100466040610367565b90600c82526b135bd8dac812185c9d995cdd60a21b602083015261006a6040610367565b60098152681b59921054959154d560ba1b602082015282519091906001600160401b03811161027457600354600181811c91168015610359575b602082101461025657601f81116102f6575b506020601f821160011461029357819293945f92610288575b50508160011b915f199060031b1c1916176003555b81516001600160401b03811161027457600454600181811c9116801561026a575b602082101461025657601f81116101f3575b50602092601f821160011461019257928192935f92610187575b50508160011b915f199060031b1c1916176004555b61014f3361038c565b600680546001600160a01b031916919091179055670de0b6b3a76400006007556101783361038c565b604051610e4290816103d58239f35b015190505f80610131565b601f1982169360045f52805f20915f5b8681106101db57508360019596106101c3575b505050811b01600455610146565b01515f1960f88460031b161c191690555f80806101b5565b919260206001819286850151815501940192016101a2565b60045f527f8a35acfbc15ff81a39ae7d344fd709f28e8600b4aa8c65c6b64bfe7fe36bd19b601f830160051c8101916020841061024c575b601f0160051c01905b8181106102415750610117565b5f8155600101610234565b909150819061022b565b634e487b7160e01b5f52602260045260245ffd5b90607f1690610105565b634e487b7160e01b5f52604160045260245ffd5b015190505f806100cf565b601f1982169060035f52805f20915f5b8181106102de575095836001959697106102c6575b505050811b016003556100e4565b01515f1960f88460031b161c191690555f80806102b8565b9192602060018192868b0151815501940192016102a3565b60035f527fc2575a0e9e593c00f959f8c92f12db2869c3395a3b0502d05e2516446f71f85b601f830160051c8101916020841061034f575b601f0160051c01905b81811061034457506100b6565b5f8155600101610337565b909150819061032e565b90607f16906100a4565b5f80fd5b6040519190601f01601f191682016001600160401b0381118382101761027457604052565b600580546001600160a01b039283166001600160a01b0319821681179092559091167f8be0079c531659141344cd1fd0a4f28419497f9722a3daafe3b4186f6b6457e05f80a356fe6080806040526004361015610012575f80fd5b5f3560e01c90816306fdde031461092757508063095ea7b3146109015780631083f7611461079757806318160ddd146108e457806323b872dd146108275780632c62fa10146107da578063313ce567146107bf57806338d52e0f1461079757806339509351146107495780636e553f65146104e857806370a08231146104b1578063715018a614610469578063872697291461044c5780638da5cb5b1461042457806395d89b4114610320578063a457c2d71461027d578063a9059cbb1461024c578063b4940afe14610200578063dd62ed3e146101b05763f2fde38b146100f8575f80fd5b346101ac5760203660031901126101ac57610111610a09565b610119610cdf565b6001600160a01b0316801561015857600580546001600160a01b0319811683179091556001600160a01b03165f516020610dcd5f395f51905f525f80a3005b60405162461bcd60e51b815260206004820152602660248201527f4f776e61626c653a206e6577206f776e657220697320746865207a65726f206160448201526564647265737360d01b6064820152608490fd5b5f80fd5b346101ac5760403660031901126101ac576101c9610a09565b6101d1610a1f565b6001600160a01b039182165f908152600160209081526040808320949093168252928352819020549051908152f35b346101ac5760203660031901126101ac5760075460043561271001908161271011610238576127109161023291610a58565b04600755005b634e487b7160e01b5f52601160045260245ffd5b346101ac5760403660031901126101ac57610272610268610a09565b6024359033610b7c565b602060405160018152f35b346101ac5760403660031901126101ac57610296610a09565b60243590335f52600160205260405f2060018060a01b0382165f5260205260405f2054918083106102cd5761027292039033610a78565b60405162461bcd60e51b815260206004820152602560248201527f45524332303a2064656372656173656420616c6c6f77616e63652062656c6f77604482015264207a65726f60d81b6064820152608490fd5b346101ac575f3660031901126101ac576040515f6004548060011c9060018116801561041a575b602083108114610406578285529081156103e25750600114610384575b6103808361037481850382610a35565b604051918291826109df565b0390f35b60045f9081527f8a35acfbc15ff81a39ae7d344fd709f28e8600b4aa8c65c6b64bfe7fe36bd19b939250905b8082106103c857509091508101602001610374610364565b9192600181602092548385880101520191019092916103b0565b60ff191660208086019190915291151560051b840190910191506103749050610364565b634e487b7160e01b5f52602260045260245ffd5b91607f1691610347565b346101ac575f3660031901126101ac576005546040516001600160a01b039091168152602090f35b346101ac575f3660031901126101ac576020600754604051908152f35b346101ac575f3660031901126101ac57610481610cdf565b600580546001600160a01b031981169091555f906001600160a01b03165f516020610dcd5f395f51905f528280a3005b346101ac5760203660031901126101ac576001600160a01b036104d2610a09565b165f525f602052602060405f2054604051908152f35b346101ac5760403660031901126101ac57600435610504610a1f565b6006546040516323b872dd60e01b602082019081523360248301523060448301526064808301869052825293916001600160a01b031690610546608482610a35565b5f806040968751936105588986610a35565b602085527f5361666545524332303a206c6f772d6c6576656c2063616c6c206661696c65646020860152519082865af13d1561073c573d906001600160401b0382116107285786516105c89490926105ba601f8201601f191660200185610a35565b83523d5f602085013e610d37565b8051908115918215610705575b5050156106ae57670de0b6b3a7640000810290808204670de0b6b3a764000014901517156102385760075490811561069a5704906001600160a01b03168015610656579160209261062883600254610a6b565b600255805f525f8452815f208381540190555f5f516020610ded5f395f51905f52858451868152a351908152f35b825162461bcd60e51b815260206004820152601f60248201527f45524332303a206d696e7420746f20746865207a65726f2061646472657373006044820152606490fd5b634e487b7160e01b5f52601260045260245ffd5b825162461bcd60e51b815260206004820152602a60248201527f5361666545524332303a204552433230206f7065726174696f6e20646964206e6044820152691bdd081cdd58d8d9595960b21b6064820152608490fd5b81925090602091810103126101ac576020015180151581036101ac5784806105d5565b634e487b7160e01b5f52604160045260245ffd5b916105c892606091610d37565b346101ac5760403660031901126101ac57610272610765610a09565b335f52600160205260405f2060018060a01b0382165f5260205261079060405f206024359054610a6b565b9033610a78565b346101ac575f3660031901126101ac576006546040516001600160a01b039091168152602090f35b346101ac575f3660031901126101ac57602060405160128152f35b346101ac5760203660031901126101ac576001600160a01b036107fb610a09565b165f525f6020526020670de0b6b3a764000061081e60405f205460075490610a58565b04604051908152f35b346101ac5760603660031901126101ac57610840610a09565b610848610a1f565b6001600160a01b0382165f908152600160208181526040808420338552909152909120549260443592918401610883575b6102729350610b7c565b82841061089f5761089a8361027295033383610a78565b610879565b60405162461bcd60e51b815260206004820152601d60248201527f45524332303a20696e73756666696369656e7420616c6c6f77616e63650000006044820152606490fd5b346101ac575f3660031901126101ac576020600254604051908152f35b346101ac5760403660031901126101ac5761027261091d610a09565b6024359033610a78565b346101ac575f3660031901126101ac575f6003548060011c906001811680156109d5575b602083108114610406578285529081156103e25750600114610977576103808361037481850382610a35565b60035f9081527fc2575a0e9e593c00f959f8c92f12db2869c3395a3b0502d05e2516446f71f85b939250905b8082106109bb57509091508101602001610374610364565b9192600181602092548385880101520191019092916109a3565b91607f169161094b565b602060409281835280519182918282860152018484015e5f828201840152601f01601f1916010190565b600435906001600160a01b03821682036101ac57565b602435906001600160a01b03821682036101ac57565b601f909101601f19168101906001600160401b0382119082101761072857604052565b8181029291811591840414171561023857565b9190820180921161023857565b6001600160a01b0316908115610b2b576001600160a01b0316918215610adb5760207f8c5be1e5ebec7d5bd14f71427d1e84f3dd0314c0f7b2291e5b200ac8c7c3b92591835f526001825260405f20855f5282528060405f2055604051908152a3565b60405162461bcd60e51b815260206004820152602260248201527f45524332303a20617070726f766520746f20746865207a65726f206164647265604482015261737360f01b6064820152608490fd5b60405162461bcd60e51b8152602060048201526024808201527f45524332303a20617070726f76652066726f6d20746865207a65726f206164646044820152637265737360e01b6064820152608490fd5b6001600160a01b0316908115610c8c576001600160a01b0316918215610c3b57815f525f60205260405f2054818110610be757815f516020610ded5f395f51905f5292602092855f525f84520360405f2055845f525f825260405f20818154019055604051908152a3565b60405162461bcd60e51b815260206004820152602660248201527f45524332303a207472616e7366657220616d6f756e7420657863656564732062604482015265616c616e636560d01b6064820152608490fd5b60405162461bcd60e51b815260206004820152602360248201527f45524332303a207472616e7366657220746f20746865207a65726f206164647260448201526265737360e81b6064820152608490fd5b60405162461bcd60e51b815260206004820152602560248201527f45524332303a207472616e736665722066726f6d20746865207a65726f206164604482015264647265737360d81b6064820152608490fd5b6005546001600160a01b03163303610cf357565b606460405162461bcd60e51b815260206004820152602060248201527f4f776e61626c653a2063616c6c6572206973206e6f7420746865206f776e65726044820152fd5b91929015610d995750815115610d4b575090565b3b15610d545790565b60405162461bcd60e51b815260206004820152601d60248201527f416464726573733a2063616c6c20746f206e6f6e2d636f6e74726163740000006044820152606490fd5b825190915015610dac5750805190602001fd5b60405162461bcd60e51b8152908190610dc890600483016109df565b0390fdfe8be0079c531659141344cd1fd0a4f28419497f9722a3daafe3b4186f6b6457e0ddf252ad1be2c89b69c2b068fc378daa952ba7f163c4a11628f55a4df523b3efa26469706673582212206c2ec015567cd4fe549ef2a987da94e724fc99f1d9eb39f936ef6cef76c27c6e64736f6c634300081c0033","linkReferences":{}},"methodIdentifiers":{"allowance(address,address)":"dd62ed3e","approve(address,uint256)":"095ea7b3","asset()":"38d52e0f","assetToken()":"1083f761","assetsOf(address)":"2c62fa10","balanceOf(address)":"70a08231","decimals()":"313ce567","decreaseAllowance(address,uint256)":"a457c2d7","deposit(uint256,address)":"6e553f65","increaseAllowance(address,uint256)":"39509351","name()":"06fdde03","owner()":"8da5cb5b","renounceOwnership()":"715018a6","sharePrice()":"87269729","simulateProfit(uint256)":"b4940afe","symbol()":"95d89b41","totalSupply()":"18160ddd","transfer(address,uint256)":"a9059cbb","transferFrom(address,address,uint256)":"23b872dd","transferOwnership(address)":"f2fde38b"},"id":13}