{"abi":[{"type":"constructor","inputs":[{"name":"_asset","type":"address","internalType":"address"}],"stateMutability":"nonpayable"},{"type":"function","name":"allowance","inputs":[{"name":"owner","type":"address","internalType":"address"},{"name":"spender","type":"address","internalType":"address"}],"outputs":[{"name":"","type":"uint256","internalType":"uint256"}],"stateMutability":"view"},{"type":"function","name":"approve","inputs":[{"name":"spender","type":"address","internalType":"address"},{"name":"amount","type":"uint256","internalType":"uint256"}],"outputs":[{"name":"","type":"bool","internalType":"bool"}],"stateMutability":"nonpayable"},{"type":"function","name":"asset","inputs":[],"outputs":[{"name":"","type":"address","internalType":"address"}],"stateMutability":"view"},{"type":"function","name":"assetToken","inputs":[],"outputs":[{"name":"","type":"address","internalType":"contract IERC20"}],"stateMutability":"view"},{"type":"function","name":"assetsOf","inputs":[{"name":"user","type":"address","internalType":"address"}],"outputs":[{"name":"","type":"uint256","internalType":"uint256"}],"stateMutability":"view"},{"type":"function","name":"balanceOf","inputs":[{"name":"account","type":"address","internalType":"address"}],"outputs":[{"name":"","type":"uint256","internalType":"uint256"}],"stateMutability":"view"},{"type":"function","name":"decimals","inputs":[],"outputs":[{"name":"","type":"uint8","internalType":"uint8"}],"stateMutability":"view"},{"type":"function","name":"decreaseAllowance","inputs":[{"name":"spender","type":"address","internalType":"address"},{"name":"subtractedValue","type":"uint256","internalType":"uint256"}],"outputs":[{"name":"","type":"bool","internalType":"bool"}],"stateMutability":"nonpayable"},{"type":"function","name":"deposit","inputs":[{"name":"assets","type":"uint256","internalType":"uint256"},{"name":"receiver","type":"address","internalType":"address"}],"outputs":[{"name":"","type":"uint256","internalType":"uint256"}],"stateMutability":"nonpayable"},{"type":"function","name":"increaseAllowance","inputs":[{"name":"spender","type":"address","internalType":"address"},{"name":"addedValue","type":"uint256","internalType":"uint256"}],"outputs":[{"name":"","type":"bool","internalType":"bool"}],"stateMutability":"nonpayable"},{"type":"function","name":"name","inputs":[],"outputs":[{"name":"","type":"string","internalType":"string"}],"stateMutability":"view"},{"type":"function","name":"owner","inputs":[],"outputs":[{"name":"","type":"address","internalType":"address"}],"stateMutability":"view"},{"type":"function","name":"renounceOwnership","inputs":[],"outputs":[],"stateMutability":"nonpayable"},{"type":"function","name":"sharePrice","inputs":[],"outputs":[{"name":"","type":"uint256","internalType":"uint256"}],"stateMutability":"view"},{"type":"function","name":"simulateProfit","inputs":[{"name":"percentageBps","type":"uint256","internalType":"uint256"}],"outputs":[],"stateMutability":"nonpayable"},{"type":"function","name":"symbol","inputs":[],"outputs":[{"name":"","type":"string","internalType":"string"}],"stateMutability":"view"},{"type":"function","name":"totalSupply","inputs":[],"outputs":[{"name":"","type":"uint256","internalType":"uint256"}],"stateMutability":"view"},{"type":"function","name":"transfer","inputs":[{"name":"to","type":"address","internalType":"address"},{"name":"amount","type":"uint256","internalType":"uint256"}],"outputs":[{"name":"","type":"bool","internalType":"bool"}],"stateMutability":"nonpayable"},{"type":"function","name":"transferFrom","inputs":[{"name":"from","type":"address","internalType":"address"},{"name":"to","type":"address","internalType":"address"},{"name":"amount","type":"uint256","internalType":"uint256"}],"outputs":[{"name":"","type":"bool","internalType":"bool"}],"stateMutability":"nonpayable"},{"type":"function","name":"transferOwnership","inputs":[{"name":"newOwner","type":"address","internalType":"address"}],"outputs":[],"stateMutability":"nonpayable"},{"type":"event","name":"Approval","inputs":[{"name":"owner","type":"address","indexed":true,"internalType":"address"},{"name":"spender","type":"address","indexed":true,"internalType":"address"},{"name":"value","type":"uint256","indexed":false,"internalType":"uint256"}],"anonymous":false},{"type":"event","name":"OwnershipTransferred","inputs":[{"name":"previousOwner","type":"address","indexed":true,"internalType":"address"},{"name":"newOwner","type":"address","indexed":true,"internalType":"address"}],"anonymous":false},{"type":"event","name":"Transfer","inputs":[{"name":"from","type":"address","indexed":true,"internalType":"address"},{"name":"to","type":"address","indexed":true,"internalType":"address"},{"name":"value","type":"uint256","indexed":false,"internalType":"uint256"}],"anonymous":false}],"bytecode":{"object":"0x60806040523461002f576100196100146100f4565b6102e0565b610021610034565b611f9561067c8239611f9590f35b61003a565b60405190565b5f80fd5b601f801991011690565b634e487b7160e01b5f52604160045260245ffd5b906100669061003e565b810190811060018060401b0382111761007e57604052565b610048565b9061009661008f610034565b928361005c565b565b5f80fd5b60018060a01b031690565b6100b09061009c565b90565b6100bc816100a7565b036100c357565b5f80fd5b905051906100d4826100b3565b565b906020828203126100ef576100ec915f016100c7565b90565b610098565b6101126126118038038061010781610083565b9283398101906100d6565b90565b60018060401b0381116101315761012d60209161003e565b0190565b610048565b9061014861014383610115565b610083565b918252565b5f7f4d6f636b20486172766573740000000000000000000000000000000000000000910152565b61017e600c610136565b9061018b6020830161014d565b565b610195610174565b90565b5f7f6d66484152564553540000000000000000000000000000000000000000000000910152565b6101c96009610136565b906101d660208301610198565b565b6101e06101bf565b90565b90565b6101fa6101f56101ff9261009c565b6101e3565b61009c565b90565b61020b906101e6565b90565b61021790610202565b90565b5f1b90565b9061023060018060a01b039161021a565b9181191691161790565b61024390610202565b90565b90565b9061025e6102596102659261023a565b610246565b825461021f565b9055565b90565b90565b61028361027e61028892610269565b6101e3565b61026c565b90565b906102975f199161021a565b9181191691161790565b6102b56102b06102ba9261026c565b6101e3565b61026c565b90565b90565b906102d56102d06102dc926102a1565b6102bd565b825461028b565b9055565b61030561030c916103006102f261018d565b6102fa6101d8565b90610332565b61020e565b6006610249565b610327610320670de0b6b3a764000061026f565b60076102c0565b61033033610609565b565b9061033c91610580565b61034c61034761066e565b610609565b565b5190565b634e487b7160e01b5f52602260045260245ffd5b9060016002830492168015610386575b602083101461038157565b610352565b91607f1691610376565b5f5260205f2090565b601f602091010490565b1b90565b919060086103c29102916103bc5f19846103a3565b926103a3565b9181191691161790565b91906103e26103dd6103ea936102a1565b6102bd565b9083546103a7565b9055565b5f90565b610404916103fe6103ee565b916103cc565b565b5b818110610412575050565b8061041f5f6001936103f2565b01610407565b9190601f8111610435575b505050565b61044161046693610390565b90602061044d84610399565b8301931061046e575b61045f90610399565b0190610406565b5f8080610430565b915061045f81929050610456565b1c90565b90610490905f199060080261047c565b191690565b8161049f91610480565b906002021790565b906104b18161034e565b9060018060401b03821161056f576104d3826104cd8554610366565b85610425565b602090601f8311600114610507579180916104f6935f926104fb575b5050610495565b90555b565b90915001515f806104ef565b601f1983169161051685610390565b925f5b8181106105575750916002939185600196941061053d575b505050020190556104f9565b61054d910151601f841690610480565b90555f8080610531565b91936020600181928787015181550195019201610519565b610048565b9061057e916104a7565b565b9061058f610596926003610574565b6004610574565b565b5f1c90565b60018060a01b031690565b6105b46105b991610598565b61059d565b90565b6105c690546105a8565b90565b6105d2906101e6565b90565b6105de906105c9565b90565b90565b906105f96105f4610600926105d5565b6105e1565b825461021f565b9055565b5f0190565b61061360056105bc565b61061e8260056105e4565b9061065261064c7f8be0079c531659141344cd1fd0a4f28419497f9722a3daafe3b4186f6b6457e0936105d5565b916105d5565b9161065b610034565b8061066581610604565b0390a3565b5f90565b61067661066a565b50339056fe60806040526004361015610013575b6108d9565b61001d5f3561015c565b806306fdde0314610157578063095ea7b3146101525780631083f7611461014d57806318160ddd1461014857806323b872dd146101435780632c62fa101461013e578063313ce5671461013957806338d52e0f14610134578063395093511461012f5780636e553f651461012a57806370a0823114610125578063715018a614610120578063872697291461011b5780638da5cb5b1461011657806395d89b4114610111578063a457c2d71461010c578063a9059cbb14610107578063b4940afe14610102578063dd62ed3e146100fd5763f2fde38b0361000e576108a6565b610870565b610810565b6107bc565b610786565b610751565b61071c565b6106e7565b61067c565b610642565b61060c565b6105a9565b610574565b61051d565b6104c0565b61046c565b6103fd565b6103a6565b6102d3565b6101ea565b60e01c90565b60405190565b5f80fd5b5f80fd5b5f91031261017a57565b61016c565b5190565b60209181520190565b90825f9392825e0152565b601f801991011690565b6101c06101c96020936101ce936101b78161017f565b93848093610183565b9586910161018c565b610197565b0190565b6101e79160208201915f8184039101526101a1565b90565b3461021a576101fa366004610170565b610216610205610a34565b61020d610162565b918291826101d2565b0390f35b610168565b60018060a01b031690565b6102339061021f565b90565b61023f8161022a565b0361024657565b5f80fd5b9050359061025782610236565b565b90565b61026581610259565b0361026c57565b5f80fd5b9050359061027d8261025c565b565b91906040838203126102a7578061029b6102a4925f860161024a565b93602001610270565b90565b61016c565b151590565b6102ba906102ac565b9052565b91906102d1905f602085019401906102b1565b565b34610304576103006102ef6102e936600461027f565b90610a4e565b6102f7610162565b918291826102be565b0390f35b610168565b1c90565b60018060a01b031690565b61032890600861032d9302610309565b61030d565b90565b9061033b9154610318565b90565b61034a60065f90610330565b90565b90565b61036461035f6103699261021f565b61034d565b61021f565b90565b61037590610350565b90565b6103819061036c565b90565b61038d90610378565b9052565b91906103a4905f60208501940190610384565b565b346103d6576103b6366004610170565b6103d26103c161033e565b6103c9610162565b91829182610391565b0390f35b610168565b6103e490610259565b9052565b91906103fb905f602085019401906103db565b565b3461042d5761040d366004610170565b610429610418610a9a565b610420610162565b918291826103e8565b0390f35b610168565b90916060828403126104675761046461044d845f850161024a565b9361045b816020860161024a565b93604001610270565b90565b61016c565b3461049d57610499610488610482366004610432565b91610ab0565b610490610162565b918291826102be565b0390f35b610168565b906020828203126104bb576104b8915f0161024a565b90565b61016c565b346104f0576104ec6104db6104d63660046104a2565b610b7d565b6104e3610162565b918291826103e8565b0390f35b610168565b60ff1690565b610504906104f5565b9052565b919061051b905f602085019401906104fb565b565b3461054d5761052d366004610170565b610549610538610be2565b610540610162565b91829182610508565b0390f35b610168565b61055b9061022a565b9052565b9190610572905f60208501940190610552565b565b346105a457610584366004610170565b6105a061058f610c1d565b610597610162565b9182918261055f565b0390f35b610168565b346105da576105d66105c56105bf36600461027f565b90610c60565b6105cd610162565b918291826102be565b0390f35b610168565b919060408382031261060757806105fb610604925f8601610270565b9360200161024a565b90565b61016c565b3461063d576106396106286106223660046105df565b90610ca1565b610630610162565b918291826103e8565b0390f35b610168565b346106725761066e61065d6106583660046104a2565b610d27565b610665610162565b918291826103e8565b0390f35b610168565b5f0190565b346106aa5761068c366004610170565b610694610d95565b61069c610162565b806106a681610677565b0390f35b610168565b90565b6106c29060086106c79302610309565b6106af565b90565b906106d591546106b2565b90565b6106e460075f906106ca565b90565b34610717576106f7366004610170565b6107136107026106d8565b61070a610162565b918291826103e8565b0390f35b610168565b3461074c5761072c366004610170565b610748610737610dcb565b61073f610162565b9182918261055f565b0390f35b610168565b3461078157610761366004610170565b61077d61076c610de1565b610774610162565b918291826101d2565b0390f35b610168565b346107b7576107b36107a261079c36600461027f565b90610ead565b6107aa610162565b918291826102be565b0390f35b610168565b346107ed576107e96107d86107d236600461027f565b90610f01565b6107e0610162565b918291826102be565b0390f35b610168565b9060208282031261080b57610808915f01610270565b90565b61016c565b3461083e576108286108233660046107f2565b610f9c565b610830610162565b8061083a81610677565b0390f35b610168565b919060408382031261086b578061085f610868925f860161024a565b9360200161024a565b90565b61016c565b346108a15761089d61088c610886366004610843565b90610ffa565b610894610162565b918291826103e8565b0390f35b610168565b346108d4576108be6108b93660046104a2565b61110d565b6108c6610162565b806108d081610677565b0390f35b610168565b5f80fd5b606090565b634e487b7160e01b5f52602260045260245ffd5b9060016002830492168015610916575b602083101461091157565b6108e2565b91607f1691610906565b60209181520190565b5f5260205f2090565b905f929180549061094c610945836108f6565b8094610920565b916001811690815f146109a35750600114610967575b505050565b6109749192939450610929565b915f925b81841061098b57505001905f8080610962565b60018160209295939554848601520191019290610978565b92949550505060ff19168252151560200201905f8080610962565b906109c891610932565b90565b634e487b7160e01b5f52604160045260245ffd5b906109e990610197565b810190811060018060401b03821117610a0157604052565b6109cb565b90610a26610a1f92610a16610162565b938480926109be565b03836109df565b565b610a3190610a06565b90565b610a3c6108dd565b50610a476003610a28565b90565b5f90565b610a6b91610a5a610a4a565b50610a63611118565b919091611275565b600190565b5f90565b5f1c90565b610a85610a8a91610a74565b6106af565b90565b610a979054610a79565b90565b610aa2610a70565b50610aad6002610a8d565b90565b91610ada92610abd610a4a565b50610ad2610ac9611118565b829084916113b3565b919091611620565b600190565b634e487b7160e01b5f52601160045260245ffd5b610b02610b0891939293610259565b92610259565b91610b14838202610259565b928184041490151715610b2357565b610adf565b90565b610b3f610b3a610b4492610b28565b61034d565b610259565b90565b634e487b7160e01b5f52601260045260245ffd5b610b67610b6d91610259565b91610259565b908115610b78570490565b610b47565b610ba5610b95610bbc92610b8f610a70565b50610d27565b610b9f6007610a8d565b90610af3565b610bb6670de0b6b3a7640000610b2b565b90610b5b565b90565b5f90565b90565b610bda610bd5610bdf92610bc3565b61034d565b6104f5565b90565b610bea610bbf565b50610bf56012610bc6565b90565b5f90565b610c08610c0d91610a74565b61030d565b90565b610c1a9054610bfc565b90565b610c25610bf8565b50610c38610c336006610c10565b610378565b90565b610c4a610c5091939293610259565b92610259565b8201809211610c5b57565b610adf565b610c9091610c6c610a4a565b50610c8a610c78611118565b91610c8583948094610ffa565b610c3b565b91611275565b600190565b610c9e9061036c565b90565b610cfa610cea610d0292610cb3610a70565b50610cd3610cc16006610c10565b33610ccb30610c95565b90849261179a565b610ce4670de0b6b3a7640000610b2b565b90610af3565b610cf46007610a8d565b90610b5b565b91829061186b565b90565b610d0e9061036c565b90565b90610d1b90610d05565b5f5260205260405f2090565b610d3d610d4291610d36610a70565b505f610d11565b610a8d565b90565b610d4d6119af565b610d55610d82565b565b90565b610d6e610d69610d7392610d57565b61034d565b61021f565b90565b610d7f90610d5a565b90565b610d93610d8e5f610d76565b611a19565b565b610d9d610d45565b565b60018060a01b031690565b610db6610dbb91610a74565b610d9f565b90565b610dc89054610daa565b90565b610dd3610bf8565b50610dde6005610dbe565b90565b610de96108dd565b50610df46004610a28565b90565b60207f207a65726f000000000000000000000000000000000000000000000000000000917f45524332303a2064656372656173656420616c6c6f77616e63652062656c6f775f8201520152565b610e516025604092610183565b610e5a81610df7565b0190565b610e739060208101905f818303910152610e44565b90565b15610e7d57565b610e85610162565b62461bcd60e51b815280610e9b60048201610e5e565b0390fd5b90610eaa9103610259565b90565b610efc91610eb9610a4a565b50610ef6610ec5611118565b91610ed1838590610ffa565b92610eef84610ee8610ee285610259565b91610259565b1015610e76565b9392610e9f565b91611275565b600190565b610f1e91610f0d610a4a565b50610f16611118565b919091611620565b600190565b90565b610f3a610f35610f3f92610f23565b61034d565b610259565b90565b5f1b90565b90610f535f1991610f42565b9181191691161790565b610f71610f6c610f7692610259565b61034d565b610259565b90565b90565b90610f91610f8c610f9892610f5d565b610f79565b8254610f47565b9055565b610fdb610fca610fe292610fc4610fb36007610a8d565b91610fbf612710610f26565b610c3b565b90610af3565b610fd5612710610f26565b90610b5b565b6007610f7c565b565b90610fee90610d05565b5f5260205260405f2090565b61101f9161101561101a9261100d610a70565b506001610fe4565b610d11565b610a8d565b90565b6110339061102e6119af565b6110dd565b565b60207f6464726573730000000000000000000000000000000000000000000000000000917f4f776e61626c653a206e6577206f776e657220697320746865207a65726f20615f8201520152565b61108f6026604092610183565b61109881611035565b0190565b6110b19060208101905f818303910152611082565b90565b156110bb57565b6110c3610162565b62461bcd60e51b8152806110d96004820161109c565b0390fd5b61110b90611106816110ff6110f96110f45f610d76565b61022a565b9161022a565b14156110b4565b611a19565b565b61111690611022565b565b611120610bf8565b503390565b60207f7265737300000000000000000000000000000000000000000000000000000000917f45524332303a20617070726f76652066726f6d20746865207a65726f206164645f8201520152565b61117f6024604092610183565b61118881611125565b0190565b6111a19060208101905f818303910152611172565b90565b156111ab57565b6111b3610162565b62461bcd60e51b8152806111c96004820161118c565b0390fd5b60207f7373000000000000000000000000000000000000000000000000000000000000917f45524332303a20617070726f766520746f20746865207a65726f2061646472655f8201520152565b6112276022604092610183565b611230816111cd565b0190565b6112499060208101905f81830391015261121a565b90565b1561125357565b61125b610162565b62461bcd60e51b81528061127160048201611234565b0390fd5b91909161129d8161129661129061128b5f610d76565b61022a565b9161022a565b14156111a4565b6112c2836112bb6112b56112b05f610d76565b61022a565b9161022a565b141561124c565b6112e1826112dc6112d560018590610fe4565b8690610d11565b610f7c565b91909161132c61131a6113147f8c5be1e5ebec7d5bd14f71427d1e84f3dd0314c0f7b2291e5b200ac8c7c3b92593610d05565b93610d05565b93611323610162565b918291826103e8565b0390a3565b5f7f45524332303a20696e73756666696369656e7420616c6c6f77616e6365000000910152565b611365601d602092610183565b61136e81611331565b0190565b6113879060208101905f818303910152611358565b90565b1561139157565b611399610162565b62461bcd60e51b8152806113af60048201611372565b0390fd5b6113be818390610ffa565b90816113d36113cd5f19610259565b91610259565b036113df575b50505050565b6114119361140b91611404846113fd6113f785610259565b91610259565b101561138a565b9392610e9f565b91611275565b5f8080806113d9565b60207f6472657373000000000000000000000000000000000000000000000000000000917f45524332303a207472616e736665722066726f6d20746865207a65726f2061645f8201520152565b6114746025604092610183565b61147d8161141a565b0190565b6114969060208101905f818303910152611467565b90565b156114a057565b6114a8610162565b62461bcd60e51b8152806114be60048201611481565b0390fd5b60207f6573730000000000000000000000000000000000000000000000000000000000917f45524332303a207472616e7366657220746f20746865207a65726f20616464725f8201520152565b61151c6023604092610183565b611525816114c2565b0190565b61153e9060208101905f81830391015261150f565b90565b1561154857565b611550610162565b62461bcd60e51b81528061156660048201611529565b0390fd5b60207f616c616e63650000000000000000000000000000000000000000000000000000917f45524332303a207472616e7366657220616d6f756e74206578636565647320625f8201520152565b6115c46026604092610183565b6115cd8161156a565b0190565b6115e69060208101905f8183039101526115b7565b90565b156115f057565b6115f8610162565b62461bcd60e51b81528061160e600482016115d1565b0390fd5b9061161d9101610259565b90565b9190916116488161164161163b6116365f610d76565b61022a565b9161022a565b1415611499565b61166d8361166661166061165b5f610d76565b61022a565b9161022a565b1415611541565b6116ba6116aa6116866116815f8590610d11565b610a8d565b6116a38161169c61169688610259565b91610259565b10156115e9565b8490610e9f565b6116b55f8490610d11565b610f7c565b6116e1826116db6116cc5f8790610d11565b916116d683610a8d565b611612565b90610f7c565b91909161172c61171a6117147fddf252ad1be2c89b69c2b068fc378daa952ba7f163c4a11628f55a4df523b3ef93610d05565b93610d05565b93611723610162565b918291826103e8565b0390a3565b63ffffffff1690565b63ffffffff60e01b1690565b60e01b90565b61176061175b61176592611731565b611746565b61173a565b90565b604090611791611798949695939661178760608401985f850190610552565b6020830190610552565b01906103db565b565b6117e793916117d36004946117e293946117b76323b872dd61174c565b939190916117c3610162565b9788956020870190815201611768565b602082018103825203836109df565b611c1b565b565b5f7f45524332303a206d696e7420746f20746865207a65726f206164647265737300910152565b61181d601f602092610183565b611826816117e9565b0190565b61183f9060208101905f818303910152611810565b90565b1561184957565b611851610162565b62461bcd60e51b8152806118676004820161182a565b0390fd5b906118918261188a61188461187f5f610d76565b61022a565b9161022a565b1415611842565b6118ae6118a7826118a26002610a8d565b610c3b565b6002610f7c565b6118d5816118cf6118c05f8690610d11565b916118ca83610a8d565b611612565b90610f7c565b6118de5f610d76565b9190916119296119176119117fddf252ad1be2c89b69c2b068fc378daa952ba7f163c4a11628f55a4df523b3ef93610d05565b93610d05565b93611920610162565b918291826103e8565b0390a3565b5f7f4f776e61626c653a2063616c6c6572206973206e6f7420746865206f776e6572910152565b61196160208092610183565b61196a8161192e565b0190565b6119839060208101905f818303910152611955565b90565b1561198d57565b611995610162565b62461bcd60e51b8152806119ab6004820161196e565b0390fd5b6119d96119ba610dcb565b6119d36119cd6119c8611118565b61022a565b9161022a565b14611986565b565b906119ec60018060a01b0391610f42565b9181191691161790565b90565b90611a0e611a09611a1592610d05565b6119f6565b82546119db565b9055565b611a236005610dbe565b611a2e8260056119f9565b90611a62611a5c7f8be0079c531659141344cd1fd0a4f28419497f9722a3daafe3b4186f6b6457e093610d05565b91610d05565b91611a6b610162565b80611a7581610677565b0390a3565b90611a8d611a86610162565b92836109df565b565b60018060401b038111611aab57611aa7602091610197565b0190565b6109cb565b90611ac2611abd83611a8f565b611a7a565b918252565b5f7f5361666545524332303a206c6f772d6c6576656c2063616c6c206661696c6564910152565b611af86020611ab0565b90611b0560208301611ac7565b565b611b0f611aee565b90565b5190565b611b2a611b25611b2f92610d57565b61034d565b610259565b90565b611b3b816102ac565b03611b4257565b5f80fd5b90505190611b5382611b32565b565b90602082820312611b6e57611b6b915f01611b46565b90565b61016c565b60207f6f74207375636365656400000000000000000000000000000000000000000000917f5361666545524332303a204552433230206f7065726174696f6e20646964206e5f8201520152565b611bcd602a604092610183565b611bd681611b73565b0190565b611bef9060208101905f818303910152611bc0565b90565b15611bf957565b611c01610162565b62461bcd60e51b815280611c1760048201611bda565b0390fd5b611c6491611c2b611c3a92610378565b90611c34611b07565b91611c8c565b611c4381611b12565b611c55611c4f5f611b16565b91610259565b14908115611c66575b50611bf2565b565b611c8191506020611c7682611b12565b818301019101611b55565b5f611c5e565b606090565b90611cab9291611c9a611c87565b5090611ca55f611b16565b91611dc3565b90565b611cb79061036c565b90565b60207f722063616c6c0000000000000000000000000000000000000000000000000000917f416464726573733a20696e73756666696369656e742062616c616e636520666f5f8201520152565b611d146026604092610183565b611d1d81611cba565b0190565b611d369060208101905f818303910152611d07565b90565b15611d4057565b611d48610162565b62461bcd60e51b815280611d5e60048201611d21565b0390fd5b60018060401b038111611d7e57611d7a602091610197565b0190565b6109cb565b90611d95611d9083611d62565b611a7a565b918252565b3d5f14611db557611daa3d611d83565b903d5f602084013e5b565b611dbd611c87565b90611db3565b915f8091611e199593611dd4611c87565b50611dfb611de130611cae565b31611df4611dee85610259565b91610259565b1015611d39565b8591602082019151925af191611e0f611d9a565b9092909192611e9e565b90565b5f7f416464726573733a2063616c6c20746f206e6f6e2d636f6e7472616374000000910152565b611e50601d602092610183565b611e5981611e1c565b0190565b611e729060208101905f818303910152611e43565b90565b15611e7c57565b611e84610162565b62461bcd60e51b815280611e9a60048201611e5d565b0390fd5b919290611ea9611c87565b505f14611eed5750611eba82611b12565b611ecc611ec65f611b16565b91610259565b14611ed6575b5090565b611ee2611ee791611f3f565b611e75565b5f611ed2565b8290611ef882611b12565b611f0a611f045f611b16565b91610259565b115f14611f1a5750805190602001fd5b611f3b90611f26610162565b91829162461bcd60e51b8352600483016101d2565b0390fd5b611f47610a4a565b503b611f5b611f555f611b16565b91610259565b119056fea2646970667358221220c5998ca5fe5c2d48eb99d2b82f6b8f39eb0433539c05953059c18bdd281279a564736f6c634300081c0033","linkReferences":{}},"methodIdentifiers":{"allowance(address,address)":"dd62ed3e","approve(address,uint256)":"095ea7b3","asset()":"38d52e0f","assetToken()":"1083f761","assetsOf(address)":"2c62fa10","balanceOf(address)":"70a08231","decimals()":"313ce567","decreaseAllowance(address,uint256)":"a457c2d7","deposit(uint256,address)":"6e553f65","increaseAllowance(address,uint256)":"39509351","name()":"06fdde03","owner()":"8da5cb5b","renounceOwnership()":"715018a6","sharePrice()":"87269729","simulateProfit(uint256)":"b4940afe","symbol()":"95d89b41","totalSupply()":"18160ddd","transfer(address,uint256)":"a9059cbb","transferFrom(address,address,uint256)":"23b872dd","transferOwnership(address)":"f2fde38b"},"id":150}