{"abi":[{"type":"function","name":"beefyFeeConfig","inputs":[],"outputs":[{"name":"","type":"address","internalType":"contract IFeeConfig"}],"stateMutability":"view"},{"type":"function","name":"beefyFeeRecipient","inputs":[],"outputs":[{"name":"","type":"address","internalType":"address"}],"stateMutability":"view"},{"type":"function","name":"depositFee","inputs":[],"outputs":[{"name":"","type":"uint256","internalType":"uint256"}],"stateMutability":"view"},{"type":"function","name":"factory","inputs":[],"outputs":[{"name":"","type":"address","internalType":"contract IStrategyFactory"}],"stateMutability":"view"},{"type":"function","name":"getAllFees","inputs":[],"outputs":[{"name":"","type":"tuple","internalType":"struct IFeeConfig.AllFees","components":[{"name":"performance","type":"tuple","internalType":"struct IFeeConfig.FeeCategory","components":[{"name":"total","type":"uint256","internalType":"uint256"},{"name":"beefy","type":"uint256","internalType":"uint256"},{"name":"call","type":"uint256","internalType":"uint256"},{"name":"strategist","type":"uint256","internalType":"uint256"},{"name":"label","type":"string","internalType":"string"},{"name":"active","type":"bool","internalType":"bool"}]},{"name":"deposit","type":"uint256","internalType":"uint256"},{"name":"withdraw","type":"uint256","internalType":"uint256"}]}],"stateMutability":"view"},{"type":"function","name":"getStratFeeId","inputs":[],"outputs":[{"name":"","type":"uint256","internalType":"uint256"}],"stateMutability":"view"},{"type":"function","name":"keeper","inputs":[],"outputs":[{"name":"","type":"address","internalType":"address"}],"stateMutability":"view"},{"type":"function","name":"lastHarvest","inputs":[],"outputs":[{"name":"","type":"uint256","internalType":"uint256"}],"stateMutability":"view"},{"type":"function","name":"lastPositionAdjustment","inputs":[],"outputs":[{"name":"","type":"uint256","internalType":"uint256"}],"stateMutability":"view"},{"type":"function","name":"lockedProfit","inputs":[],"outputs":[{"name":"locked0","type":"uint256","internalType":"uint256"},{"name":"locked1","type":"uint256","internalType":"uint256"}],"stateMutability":"view"},{"type":"function","name":"native","inputs":[],"outputs":[{"name":"","type":"address","internalType":"address"}],"stateMutability":"view"},{"type":"function","name":"owner","inputs":[],"outputs":[{"name":"","type":"address","internalType":"address"}],"stateMutability":"view"},{"type":"function","name":"paused","inputs":[],"outputs":[{"name":"","type":"bool","internalType":"bool"}],"stateMutability":"view"},{"type":"function","name":"renounceOwnership","inputs":[],"outputs":[],"stateMutability":"nonpayable"},{"type":"function","name":"setStratFeeId","inputs":[{"name":"_feeId","type":"uint256","internalType":"uint256"}],"outputs":[],"stateMutability":"nonpayable"},{"type":"function","name":"setStrategist","inputs":[{"name":"_strategist","type":"address","internalType":"address"}],"outputs":[],"stateMutability":"nonpayable"},{"type":"function","name":"setUnirouter","inputs":[{"name":"_unirouter","type":"address","internalType":"address"}],"outputs":[],"stateMutability":"nonpayable"},{"type":"function","name":"strategist","inputs":[],"outputs":[{"name":"","type":"address","internalType":"address"}],"stateMutability":"view"},{"type":"function","name":"totalLocked0","inputs":[],"outputs":[{"name":"","type":"uint256","internalType":"uint256"}],"stateMutability":"view"},{"type":"function","name":"totalLocked1","inputs":[],"outputs":[{"name":"","type":"uint256","internalType":"uint256"}],"stateMutability":"view"},{"type":"function","name":"transferOwnership","inputs":[{"name":"newOwner","type":"address","internalType":"address"}],"outputs":[],"stateMutability":"nonpayable"},{"type":"function","name":"unirouter","inputs":[],"outputs":[{"name":"","type":"address","internalType":"address"}],"stateMutability":"view"},{"type":"function","name":"vault","inputs":[],"outputs":[{"name":"","type":"address","internalType":"address"}],"stateMutability":"view"},{"type":"function","name":"withdrawFee","inputs":[],"outputs":[{"name":"","type":"uint256","internalType":"uint256"}],"stateMutability":"view"},{"type":"event","name":"Initialized","inputs":[{"name":"version","type":"uint8","indexed":false,"internalType":"uint8"}],"anonymous":false},{"type":"event","name":"OwnershipTransferred","inputs":[{"name":"previousOwner","type":"address","indexed":true,"internalType":"address"},{"name":"newOwner","type":"address","indexed":true,"internalType":"address"}],"anonymous":false},{"type":"event","name":"Paused","inputs":[{"name":"account","type":"address","indexed":false,"internalType":"address"}],"anonymous":false},{"type":"event","name":"SetStratFeeId","inputs":[{"name":"feeId","type":"uint256","indexed":false,"internalType":"uint256"}],"anonymous":false},{"type":"event","name":"SetStrategist","inputs":[{"name":"strategist","type":"address","indexed":false,"internalType":"address"}],"anonymous":false},{"type":"event","name":"SetUnirouter","inputs":[{"name":"unirouter","type":"address","indexed":false,"internalType":"address"}],"anonymous":false},{"type":"event","name":"Unpaused","inputs":[{"name":"account","type":"address","indexed":false,"internalType":"address"}],"anonymous":false},{"type":"error","name":"NotManager","inputs":[]},{"type":"error","name":"NotStrategist","inputs":[]},{"type":"error","name":"OverLimit","inputs":[]},{"type":"error","name":"StrategyPaused","inputs":[]}],"bytecode":{"object":"0x60808060405234601557610c24908161001a8239f35b5f80fdfe6080806040526004361015610012575f80fd5b5f905f3560e01c90816304c404b3146109ab5750806311b0b42d146109835780631fe4a6861461095b578063257ae0de146109335780632b950b66146109165780633e55f9321461082b57806344b81396146107965780634746fb551461077b5780635c975abb1461075857806367a527931461022d578063715018a61461070e578063865238d4146106f05780638cfc0250146106625780638da5cb5b146106395780638e145459146105b2578063aced166114610585578063b20feaaf14610351578063c45a015514610328578063c7b9d530146102a1578063d92f3d7314610232578063e941fa781461022d578063f1a392da1461020f578063f2fde38b146101515763fbfa77cf14610126575f80fd5b3461014e578060031936011261014e576098546040516001600160a01b039091168152602090f35b80fd5b503461014e57602036600319011261014e576004356001600160a01b0381169081900361020b57610180610b76565b80156101b757603380546001600160a01b0319811683179091556001600160a01b03165f516020610bcf5f395f51905f528380a380f35b60405162461bcd60e51b815260206004820152602660248201527f4f776e61626c653a206e6577206f776e657220697320746865207a65726f206160448201526564647265737360d01b6064820152608490fd5b5080fd5b503461014e578060031936011261014e576020609e54604051908152f35b6109c5565b503461014e57602036600319011261014e576004356001600160a01b0381169081900361020b5760207f5ca6e64c4522e68e154aa9372f2c5969cd37d9640e59f66953dc472f54ee86fa91610285610b76565b609980546001600160a01b03191682179055604051908152a180f35b503461014e57602036600319011261014e576004356001600160a01b0381169081900361020b57609a546001600160a01b0381163303610319576001600160a01b0319168117609a556040519081527f46d58e3fa07bf19b1d27240f0e286b27e9f7c1b0d88933333fe833b60eec541290602090a180f35b633163ba6d60e11b8352600483fd5b503461014e578060031936011261014e57609b546040516001600160a01b039091168152602090f35b503461014e578060031936011261014e578060408051610370816109df565b610378610b45565b8152826020820152015261038a610b45565b506024816001600160a01b0361039e610a92565b1660405192838092639af608c960e01b82523060048301525afa801561057a578290610467575b6101609150604051906103d7826109df565b81526020808201848152604083019085825260a06040519687958587525190606086880152815160808801528582015183880152604082015160c0880152606082015160e0880152608082015160c06101008901528051968791826101408b0152018989015e86860188015201511515610120850152516040840152516060830152601f01601f19168101030190f35b503d8083833e6104778183610a29565b81019060208183031261055a578051906001600160401b03821161057657019060c08282031261055a57604051916104ae83610a0e565b8051835260208082015190840152604080820151908401526060808201519084015260808101516001600160401b0381116105725781019180601f84011215610572578251926001600160401b03841161055e5785906040519261051c6020601f19601f8901160185610a29565b8584526020868301011161020b578460a09560208093018386015e830101526080840152015190811515820361055a576101609160a08201526103c5565b8280fd5b634e487b7160e01b86526041600452602486fd5b8480fd5b8380fd5b6040513d84823e3d90fd5b503461014e578060031936011261014e5760206105a0610af2565b6040516001600160a01b039091168152f35b503461014e578060031936011261014e57609b54604051638e14545960e01b815290602090829060049082906001600160a01b03165afa90811561057a576020929161060c575b506040516001600160a01b039091168152f35b61062c9150823d8411610632575b6106248183610a29565b810190610a73565b5f6105f9565b503d61061a565b503461014e578060031936011261014e576033546040516001600160a01b039091168152602090f35b503461014e578060031936011261014e57602460206001600160a01b03610687610a92565b1660405192838092636788231160e11b82523060048301525afa90811561057a5782916106ba575b602082604051908152f35b90506020813d6020116106e8575b816106d560209383610a29565b8101031261020b5760209150515f6106af565b3d91506106c8565b503461014e578060031936011261014e576020609f54604051908152f35b503461014e578060031936011261014e57610727610b76565b603380546001600160a01b0319811690915581906001600160a01b03165f516020610bcf5f395f51905f528280a380f35b503461014e578060031936011261014e57602060ff606554166040519015158152f35b503461014e578060031936011261014e5760206105a0610a92565b503461014e578060031936011261014e57609e54420342811161081757610e1081101561080e57610e100390610e1082116107fa57506040905b610e106107ed816107e384609c54610a4c565b0492609d54610a4c565b0482519182526020820152f35b634e487b7160e01b81526011600452602490fd5b506040906107d0565b634e487b7160e01b82526011600452602482fd5b50346108e95760203660031901126108e95760043560018060a01b0360335416331415806108fc575b6108ed576001600160a01b03610868610a92565b16803b156108e9575f8091602460405180948193631f2afc9960e11b83528760048401525af180156108de576108c8575b5060207f9163810ee1e29168d4ce900e48a333fb8fbd3fd070d2bef67f6d4db0846a469f91604051908152a180f35b6108d59192505f90610a29565b5f906020610899565b6040513d5f823e3d90fd5b5f80fd5b63607e454560e11b5f5260045ffd5b506001600160a01b0361090d610af2565b16331415610854565b346108e9575f3660031901126108e9576020609c54604051908152f35b346108e9575f3660031901126108e9576099546040516001600160a01b039091168152602090f35b346108e9575f3660031901126108e957609a546040516001600160a01b039091168152602090f35b346108e9575f3660031901126108e9576097546040516001600160a01b039091168152602090f35b346108e9575f3660031901126108e957602090609d548152f35b346108e9575f3660031901126108e95760206040515f8152f35b606081019081106001600160401b038211176109fa57604052565b634e487b7160e01b5f52604160045260245ffd5b60c081019081106001600160401b038211176109fa57604052565b601f909101601f19168101906001600160401b038211908210176109fa57604052565b81810292918115918404141715610a5f57565b634e487b7160e01b5f52601160045260245ffd5b908160209103126108e957516001600160a01b03811681036108e95790565b609b54604051634746fb5560e01b815290602090829060049082906001600160a01b03165afa9081156108de575f91610ad3575b506001600160a01b031690565b610aec915060203d602011610632576106248183610a29565b5f610ac6565b609b5460405163aced166160e01b815290602090829060049082906001600160a01b03165afa9081156108de575f91610b29575090565b610b42915060203d602011610632576106248183610a29565b90565b60405190610b5282610a0e565b5f60a083828152826020820152826040820152826060820152606060808201520152565b6033546001600160a01b03163303610b8a57565b606460405162461bcd60e51b815260206004820152602060248201527f4f776e61626c653a2063616c6c6572206973206e6f7420746865206f776e65726044820152fdfe8be0079c531659141344cd1fd0a4f28419497f9722a3daafe3b4186f6b6457e0a2646970667358221220dded768cee28ffee7ac6ad65868965e4543a5033f63c07a59859a167c319fc6964736f6c634300081c0033","linkReferences":{}},"methodIdentifiers":{"beefyFeeConfig()":"4746fb55","beefyFeeRecipient()":"8e145459","depositFee()":"67a52793","factory()":"c45a0155","getAllFees()":"b20feaaf","getStratFeeId()":"8cfc0250","keeper()":"aced1661","lastHarvest()":"f1a392da","lastPositionAdjustment()":"865238d4","lockedProfit()":"44b81396","native()":"11b0b42d","owner()":"8da5cb5b","paused()":"5c975abb","renounceOwnership()":"715018a6","setStratFeeId(uint256)":"3e55f932","setStrategist(address)":"c7b9d530","setUnirouter(address)":"d92f3d73","strategist()":"1fe4a686","totalLocked0()":"2b950b66","totalLocked1()":"04c404b3","transferOwnership(address)":"f2fde38b","unirouter()":"257ae0de","vault()":"fbfa77cf","withdrawFee()":"e941fa78"},"id":119}