{"abi":[{"type":"constructor","inputs":[{"name":"_usdc","type":"address","internalType":"address"},{"name":"_balancerVault","type":"address","internalType":"address"},{"name":"_balancerRouter","type":"address","internalType":"address"},{"name":"_pool","type":"address","internalType":"address"},{"name":"_token0","type":"address","internalType":"address"},{"name":"_token1","type":"address","internalType":"address"},{"name":"_router","type":"address","internalType":"address"},{"name":"_controller","type":"address","internalType":"address"}],"stateMutability":"nonpayable"},{"type":"function","name":"allVaults","inputs":[{"name":"","type":"uint256","internalType":"uint256"}],"outputs":[{"name":"","type":"address","internalType":"address"}],"stateMutability":"view"},{"type":"function","name":"balancerRouter","inputs":[],"outputs":[{"name":"","type":"address","internalType":"address"}],"stateMutability":"view"},{"type":"function","name":"balancerVault","inputs":[],"outputs":[{"name":"","type":"address","internalType":"address"}],"stateMutability":"view"},{"type":"function","name":"controller","inputs":[],"outputs":[{"name":"","type":"address","internalType":"address"}],"stateMutability":"view"},{"type":"function","name":"createVault","inputs":[{"name":"user","type":"address","internalType":"address"},{"name":"vaultName","type":"string","internalType":"string"},{"name":"vaultSymbol","type":"string","internalType":"string"}],"outputs":[{"name":"vault","type":"address","internalType":"address"}],"stateMutability":"nonpayable"},{"type":"function","name":"getAllVaults","inputs":[],"outputs":[{"name":"","type":"address[]","internalType":"address[]"}],"stateMutability":"view"},{"type":"function","name":"getVault","inputs":[{"name":"user","type":"address","internalType":"address"}],"outputs":[{"name":"","type":"address","internalType":"address"}],"stateMutability":"view"},{"type":"function","name":"getVaultCount","inputs":[],"outputs":[{"name":"","type":"uint256","internalType":"uint256"}],"stateMutability":"view"},{"type":"function","name":"owner","inputs":[],"outputs":[{"name":"","type":"address","internalType":"address"}],"stateMutability":"view"},{"type":"function","name":"pool","inputs":[],"outputs":[{"name":"","type":"address","internalType":"address"}],"stateMutability":"view"},{"type":"function","name":"predictVaultAddress","inputs":[{"name":"user","type":"address","internalType":"address"},{"name":"vaultName","type":"string","internalType":"string"},{"name":"vaultSymbol","type":"string","internalType":"string"}],"outputs":[{"name":"","type":"address","internalType":"address"}],"stateMutability":"view"},{"type":"function","name":"renounceOwnership","inputs":[],"outputs":[],"stateMutability":"nonpayable"},{"type":"function","name":"router","inputs":[],"outputs":[{"name":"","type":"address","internalType":"address"}],"stateMutability":"view"},{"type":"function","name":"setController","inputs":[{"name":"_controller","type":"address","internalType":"address"}],"outputs":[],"stateMutability":"nonpayable"},{"type":"function","name":"token0","inputs":[],"outputs":[{"name":"","type":"address","internalType":"address"}],"stateMutability":"view"},{"type":"function","name":"token1","inputs":[],"outputs":[{"name":"","type":"address","internalType":"address"}],"stateMutability":"view"},{"type":"function","name":"transferOwnership","inputs":[{"name":"newOwner","type":"address","internalType":"address"}],"outputs":[],"stateMutability":"nonpayable"},{"type":"function","name":"usdc","inputs":[],"outputs":[{"name":"","type":"address","internalType":"address"}],"stateMutability":"view"},{"type":"function","name":"vaults","inputs":[{"name":"","type":"address","internalType":"address"}],"outputs":[{"name":"","type":"address","internalType":"address"}],"stateMutability":"view"},{"type":"event","name":"ControllerUpdated","inputs":[{"name":"oldController","type":"address","indexed":true,"internalType":"address"},{"name":"newController","type":"address","indexed":true,"internalType":"address"}],"anonymous":false},{"type":"event","name":"OwnershipTransferred","inputs":[{"name":"previousOwner","type":"address","indexed":true,"internalType":"address"},{"name":"newOwner","type":"address","indexed":true,"internalType":"address"}],"anonymous":false},{"type":"event","name":"VaultCreated","inputs":[{"name":"user","type":"address","indexed":true,"internalType":"address"},{"name":"vault","type":"address","indexed":true,"internalType":"address"}],"anonymous":false},{"type":"error","name":"InvalidBalancerRouter","inputs":[]},{"type":"error","name":"InvalidBalancerVault","inputs":[]},{"type":"error","name":"InvalidController","inputs":[]},{"type":"error","name":"InvalidPool","inputs":[]},{"type":"error","name":"InvalidRouter","inputs":[]},{"type":"error","name":"InvalidTokens","inputs":[]},{"type":"error","name":"InvalidUSDC","inputs":[]},{"type":"error","name":"InvalidUser","inputs":[]},{"type":"error","name":"VaultAlreadyExists","inputs":[]}],"bytecode":{"object":"0x6101603461027b57601f61375138819003918201601f19168301916001600160401b0383118484101761027f578084926101009460405283398101031261027b5761004981610293565b9061005660208201610293565b61006260408301610293565b61006e60608401610293565b61007a60808501610293565b9161008760a08601610293565b936100a060e061009960c08901610293565b9701610293565b6100a9336102a7565b6100b2336102a7565b6001600160a01b0388161561026c576001600160a01b0382161561025d576001600160a01b0383161561024e576001600160a01b03841615610240576001600160a01b03851615801561022f575b610220576001600160a01b03871615610211576001600160a01b03169687156102025760805260a05260c05260e052610100526101205261014052600180546001600160a01b03191691909117905560405161346390816102ee82396080518181816103ae0152818161079a015261096f015260a05181818161038c0152818161077801526109f7015260c05181818161036901528181610756015261092b015260e0518181816103470152818161073401526109b3015261010051818181610325015281816107120152610a380152610120518181816102250152818161030301526106f0015261014051818181610102015281816102e101526106ce0152f35b6336abb4df60e11b5f5260045ffd5b63466d7fef60e01b5f5260045ffd5b6333910aef60e11b5f5260045ffd5b506001600160a01b03861615610100565b62820f3560e61b5f5260045ffd5b6358b26f2d60e11b5f5260045ffd5b635e8a713b60e01b5f5260045ffd5b634e05805760e01b5f5260045ffd5b5f80fd5b634e487b7160e01b5f52604160045260245ffd5b51906001600160a01b038216820361027b57565b5f80546001600160a01b039283166001600160a01b03198216811783559216907f8be0079c531659141344cd1fd0a4f28419497f9722a3daafe3b4186f6b6457e09080a356fe6080806040526004361015610012575f80fd5b5f3560e01c9081630dfe168114610a26575080630eb9af3814610254578063158274a5146109e257806316f0115b1461099e5780633e413bee1461095a57806349ec8b3814610916578063515d61ec14610665578063715018a61461062157806374d4e491146106045780638da5cb5b146105dd5780639094a91e1461059b57806392eefe9b1461051957806397331bf91461046e578063987f0d2914610294578063a622ee7c14610254578063d21220a714610210578063f2fde38b1461015d578063f77c4791146101355763f887ea40146100ed575f80fd5b34610131575f366003190112610131576040517f00000000000000000000000000000000000000000000000000000000000000006001600160a01b03168152602090f35b5f80fd5b34610131575f366003190112610131576001546040516001600160a01b039091168152602090f35b3461013157602036600319011261013157610176610a67565b61017e610bf7565b6001600160a01b031680156101bc575f80546001600160a01b03198116831782556001600160a01b0316905f51602061340e5f395f51905f529080a3005b60405162461bcd60e51b815260206004820152602660248201527f4f776e61626c653a206e6577206f776e657220697320746865207a65726f206160448201526564647265737360d01b6064820152608490fd5b34610131575f366003190112610131576040517f00000000000000000000000000000000000000000000000000000000000000006001600160a01b03168152602090f35b34610131576020366003190112610131576001600160a01b03610275610a67565b165f526002602052602060018060a01b0360405f205416604051908152f35b34610131576020806104126102a836610aaa565b94926103e1969194966127bf936103d3604051986102c88688018b610bd4565b868a52858a0196610c4f8839604051988993878501968d7f0000000000000000000000000000000000000000000000000000000000000000907f0000000000000000000000000000000000000000000000000000000000000000907f0000000000000000000000000000000000000000000000000000000000000000907f0000000000000000000000000000000000000000000000000000000000000000907f0000000000000000000000000000000000000000000000000000000000000000908d7f0000000000000000000000000000000000000000000000000000000000000000917f000000000000000000000000000000000000000000000000000000000000000091610b5b565b03601f198101875286610bd4565b60405194859383850197518091895e840190838201905f8252519283915e01015f815203601f198101835282610bd4565b5190206040516001600160f81b03198482019081523060601b60218301526001600160a01b03909316603582015260558082019290925290815290610458607583610bd4565b905190206040516001600160a01b039091168152f35b34610131575f366003190112610131576040518060206003549283815201809260035f5260205f20905f5b8181106104fa57505050816104af910382610bd4565b604051918291602083019060208452518091526040830191905f5b8181106104d8575050500390f35b82516001600160a01b03168452859450602093840193909201916001016104ca565b82546001600160a01b0316845260209093019260019283019201610499565b3461013157602036600319011261013157610532610a67565b61053a610bf7565b6001600160a01b0316801561058c57600180546001600160a01b0319811683179091556001600160a01b03167f1c87e2bbc4e5fa5d7f6f8c44d66cb241dff224b8602eb5435ca2076d2a5c6fc25f80a3005b6336abb4df60e11b5f5260045ffd5b3461013157602036600319011261013157600435600354811015610131576105c4602091610b0f565b905460405160039290921b1c6001600160a01b03168152f35b34610131575f366003190112610131575f546040516001600160a01b039091168152602090f35b34610131575f366003190112610131576020600354604051908152f35b34610131575f36600319011261013157610639610bf7565b5f80546001600160a01b0319811682556001600160a01b03165f51602061340e5f395f51905f528280a3005b346101315761067336610aaa565b6001600160a01b0385169491929085156108a8575f868152600260205260409020546001600160a01b031661090757604051936127bf928386019686881060018060401b0389111761089457889787966107bf96610c4f89397f0000000000000000000000000000000000000000000000000000000000000000917f0000000000000000000000000000000000000000000000000000000000000000917f0000000000000000000000000000000000000000000000000000000000000000917f0000000000000000000000000000000000000000000000000000000000000000917f0000000000000000000000000000000000000000000000000000000000000000917f0000000000000000000000000000000000000000000000000000000000000000917f000000000000000000000000000000000000000000000000000000000000000091610b5b565b03905ff580156108fc57604051638da5cb5b60e01b81526001600160a01b03919091169190602081600481865afa80156108fc5782915f916108b7575b506001600160a01b0316036108a8575f81815260026020526040902080546001600160a01b0319168317905560035491600160401b8310156108945761084a83600160209501600355610b0f565b81546001600160a01b0360039290921b91821b19169083901b1790556040519181907f5d9c31ffa0fecffd7cf379989a3c7af252f0335e0d2a1320b55245912c781f535f80a38152f35b634e487b7160e01b5f52604160045260245ffd5b63fd684c3b60e01b5f5260045ffd5b9150506020813d6020116108f4575b816108d360209383610bd4565b8101031261013157516001600160a01b0381168103610131578190846107fc565b3d91506108c6565b6040513d5f823e3d90fd5b6304aabf3360e01b5f5260045ffd5b34610131575f366003190112610131576040517f00000000000000000000000000000000000000000000000000000000000000006001600160a01b03168152602090f35b34610131575f366003190112610131576040517f00000000000000000000000000000000000000000000000000000000000000006001600160a01b03168152602090f35b34610131575f366003190112610131576040517f00000000000000000000000000000000000000000000000000000000000000006001600160a01b03168152602090f35b34610131575f366003190112610131576040517f00000000000000000000000000000000000000000000000000000000000000006001600160a01b03168152602090f35b34610131575f366003190112610131577f00000000000000000000000000000000000000000000000000000000000000006001600160a01b03168152602090f35b600435906001600160a01b038216820361013157565b9181601f84011215610131578235916001600160401b038311610131576020838186019501011161013157565b906060600319830112610131576004356001600160a01b038116810361013157916024356001600160401b0381116101315781610ae991600401610a7d565b90929091604435906001600160401b03821161013157610b0b91600401610a7d565b9091565b600354811015610b275760035f5260205f2001905f90565b634e487b7160e01b5f52603260045260245ffd5b908060209392818452848401375f828201840152601f01601f1916010190565b6001600160a01b039182168152918116602083015291821660408201529181166060830152918216608082015291811660a083015291821660c0820152911660e08201526101406101008201819052610bd195919491939192610bc2929186019190610b3b565b92610120818503910152610b3b565b90565b601f909101601f19168101906001600160401b0382119082101761089457604052565b5f546001600160a01b03163303610c0a57565b606460405162461bcd60e51b815260206004820152602060248201527f4f776e61626c653a2063616c6c6572206973206e6f7420746865206f776e65726044820152fdfe610180604052346106e0576127bf8038038061001a816106e4565b928339810190610140818303126106e05761003481610709565b9161004160208301610709565b61004d60408401610709565b61005960608501610709565b61006560808601610709565b9161007260a08701610709565b9361007f60c08801610709565b9561008c60e08901610709565b6101008901519098906001600160401b0381116106e057826100af91830161071d565b6101208201519092906001600160401b0381116106e0576100d0920161071d565b815190916001600160401b0382116105e35760035490600182811c921680156106d6575b60208310146105c55781601f849311610668575b50602090601f8311600114610602575f926105f7575b50508160011b915f199060031b1c1916176003555b8051906001600160401b0382116105e35760045490600182811c921680156105d9575b60208310146105c55781601f849311610557575b50602090601f83116001146104f1575f926104e6575b50508160011b915f199060031b1c1916176004555b60016005556001600160a01b0388169788156104b1576001600160a01b0382161561047d576001600160a01b03831615610438576001600160a01b038416156103f3576001600160a01b038516156103bf576001600160a01b0386161515806103ad575b15610368576001600160a01b03881615610332576101605260805260a05260c05260e052610100526101205261014052600680546001600160a01b03191682179055604051907f1304018cfe79741dcf02ba6b61d39cc4757d59395d03224d9925c7aa830021465f80a2612050908161076f82396080518181816102b30152818161075c01528181610d380152818161132501526117e8015260a0518161162c015260c05181818161051501528181610b75015261123f015260e0518181816105fe01528181610c8d01526115e80152610100518181816106aa01528181610aa601528181611205015261167001526101205181818161022b015281816106ff01528181610aff01526111e40152610140518181816101670152818161081b0152610f0f015261016051818181611069015261113c0152f35b60405162461bcd60e51b815260206004820152600e60248201526d24b73b30b634b2103937baba32b960911b6044820152606490fd5b60405162461bcd60e51b815260206004820152601360248201527f496e76616c696420706f6f6c20746f6b656e73000000000000000000000000006044820152606490fd5b506001600160a01b03871615156101f9565b60405162461bcd60e51b815260206004820152600c60248201526b125b9d985b1a59081c1bdbdb60a21b6044820152606490fd5b60405162461bcd60e51b815260206004820152601760248201527f496e76616c69642042616c616e63657220526f757465720000000000000000006044820152606490fd5b60405162461bcd60e51b815260206004820152601660248201527f496e76616c69642042616c616e636572205661756c74000000000000000000006044820152606490fd5b60405162461bcd60e51b815260206004820152600c60248201526b496e76616c6964205553444360a01b6044820152606490fd5b60405162461bcd60e51b815260206004820152600d60248201526c24b73b30b634b21037bbb732b960991b6044820152606490fd5b015190505f80610180565b60045f9081528281209350601f198516905b81811061053f5750908460019594939210610527575b505050811b01600455610195565b01515f1960f88460031b161c191690555f8080610519565b92936020600181928786015181550195019301610503565b60045f529091507f8a35acfbc15ff81a39ae7d344fd709f28e8600b4aa8c65c6b64bfe7fe36bd19b601f840160051c810191602085106105bb575b90601f859493920160051c01905b8181106105ad575061016a565b5f81558493506001016105a0565b9091508190610592565b634e487b7160e01b5f52602260045260245ffd5b91607f1691610156565b634e487b7160e01b5f52604160045260245ffd5b015190505f8061011e565b60035f9081528281209350601f198516905b8181106106505750908460019594939210610638575b505050811b01600355610133565b01515f1960f88460031b161c191690555f808061062a565b92936020600181928786015181550195019301610614565b60035f529091507fc2575a0e9e593c00f959f8c92f12db2869c3395a3b0502d05e2516446f71f85b601f840160051c810191602085106106cc575b90601f859493920160051c01905b8181106106be5750610108565b5f81558493506001016106b1565b90915081906106a3565b91607f16916100f4565b5f80fd5b6040519190601f01601f191682016001600160401b038111838210176105e357604052565b51906001600160a01b03821682036106e057565b81601f820112156106e0578051906001600160401b0382116105e35761074c601f8301601f19166020016106e4565b92828452602083830101116106e057815f9260208093018386015e830101529056fe6080806040526004361015610012575f80fd5b5f905f3560e01c90816306fdde03146116c557508063095ea7b31461169f5780630dfe16811461165b578063158274a51461161757806316f0115b146115d357806318160ddd146115b65780631f1fcd511461126e57806323b872dd146114f95780632e1a7d4d146112dc578063313ce567146112c157806339509351146112735780633e413bee1461126e57806349ec8b381461122a57806365844934146111cb5780636afdd850146111a257806370a082311461116b5780638da5cb5b1461112757806392eefe9b1461104e57806395d89b4114610f4a57806398ae5dce14610a3b57806398b1f9ad14610483578063a457c2d7146103e0578063a9059cbb146103ae578063b6b55f251461025a578063d21220a714610215578063dd62ed3e146101c2578063f77c4791146101995763f887ea4014610152575f80fd5b346101965780600319360112610196576040517f00000000000000000000000000000000000000000000000000000000000000006001600160a01b03168152602090f35b80fd5b50346101965780600319360112610196576006546040516001600160a01b039091168152602090f35b50346101965760403660031901126101965760406101de6117a7565b916101e76117bd565b9260018060a01b031681526001602052209060018060a01b03165f52602052602060405f2054604051908152f35b50346101965780600319360112610196576040517f00000000000000000000000000000000000000000000000000000000000000006001600160a01b03168152602090f35b503461019657602036600319011261019657600435610277611b4e565b801561039f576102e06040516323b872dd60e01b6020820152336024820152306044820152826064820152606481526102b1608482611861565b7f00000000000000000000000000000000000000000000000000000000000000006001600160a01b0316611e74565b331561035a576102f281600254611884565b6002553382528160205260408220818154019055604051818152825f516020611ffb5f395f51905f5260203393a36040519080825260208201527f73a19dd210f1a7f902193214c0ee91dd35ee5b4d920cba8d519eca65a7b488ca60403392a2600160055580f35b60405162461bcd60e51b815260206004820152601f60248201527f45524332303a206d696e7420746f20746865207a65726f2061646472657373006044820152606490fd5b63162908e360e11b8252600482fd5b5034610196576040366003190112610196576103d56103cb6117a7565b60243590336119eb565b602060405160018152f35b5034610196576040366003190112610196576103fa6117a7565b60406024359233815260016020522060018060a01b0382165f5260205260405f205491808310610430576103d5920390336118e7565b60405162461bcd60e51b815260206004820152602560248201527f45524332303a2064656372656173656420616c6c6f77616e63652062656c6f77604482015264207a65726f60d81b6064820152608490fd5b50346101965760803660031901126101965761049d6117a7565b6024356044356001600160401b038111610a37576104bf903690600401611831565b906064356001600160401b038111610a33576104df903690600401611831565b60065490969195906001600160a01b03163303610a24576104fe611b4e565b6001600160a01b031680156109f157841561039f577f00000000000000000000000000000000000000000000000000000000000000009161095b5760405163095ea7b360e01b60208201526001600160a01b038316602482018190525f6044808401919091528252929061057d90610577606482611861565b83611e74565b604051636eb1769f60e11b81526020818061059c853060048401611817565b0381865afa90811561080a575f916109bf575b5061095b576105ef916105ea87926105dc60405194859263095ea7b360e01b602085015260248401611ba4565b03601f198101845283611861565b611e74565b604051630516827560e41b81527f00000000000000000000000000000000000000000000000000000000000000006001600160a01b03166004820152602481019490945260a0604485015260a484018390526001600160fb1b0383116107fe57835f60208294829660051b809160c486013783018260648501528260c480868403019260031984016084880152015201925af1801561080a576108af575b506040516370a0823160e01b8152306004820152916020836024817f00000000000000000000000000000000000000000000000000000000000000006001600160a01b03165afa92831561080a575f9361087b575b506040516370a0823160e01b8152306004820152916020836024817f00000000000000000000000000000000000000000000000000000000000000006001600160a01b03165afa92831561080a575f93610847575b5081610815575b50506040516370a0823160e01b8152306004820152916020836024817f00000000000000000000000000000000000000000000000000000000000000006001600160a01b03165afa92831561080a575f936107d0575b506107c67fd138202835e549fb0c26641233354786243cf5fca25b31e920a57f4fd835a34993604051938493846118d1565b0390a16001600555005b92506020833d602011610802575b816107eb60209383611861565b810103126107fe579151916107c6610794565b5f80fd5b3d91506107de565b6040513d5f823e3d90fd5b610840917f000000000000000000000000000000000000000000000000000000000000000091611c79565b5f8061073e565b9092506020813d602011610873575b8161086360209383611861565b810103126107fe5751915f610737565b3d9150610856565b9092506020813d6020116108a7575b8161089760209383611861565b810103126107fe5751915f6106e2565b3d915061088a565b3d805f833e6108be8183611861565b8101906020818303126107fe578051906001600160401b0382116107fe57019080601f830112156107fe578151916001600160401b038311610947578260051b9060208201936109116040519586611861565b84526020808501928201019283116107fe57602001905b8282106109375750505061068d565b8151815260209182019101610928565b634e487b7160e01b5f52604160045260245ffd5b60405162461bcd60e51b815260206004820152603660248201527f5361666545524332303a20617070726f76652066726f6d206e6f6e2d7a65726f60448201527520746f206e6f6e2d7a65726f20616c6c6f77616e636560501b6064820152608490fd5b90506020813d6020116109e9575b816109da60209383611861565b810103126107fe57515f6105af565b3d91506109cd565b60405162461bcd60e51b815260206004820152600b60248201526a125b9d985b1a590810941560aa1b6044820152606490fd5b635990781360e01b8252600482fd5b8580fd5b8380fd5b50346107fe5760603660031901126107fe576004356001600160401b0381116107fe57610a6c903690600401611831565b6006549091906001600160a01b03163303610f3b57610a89611b4e565b81610f09575b50506040516370a0823160e01b81523060048201527f00000000000000000000000000000000000000000000000000000000000000006001600160a01b0381169190602082602481865afa91821561080a575f92610ed5575b506040516370a0823160e01b8152306004820152927f0000000000000000000000000000000000000000000000000000000000000000906001600160a01b03821690602086602481855afa95861561080a575f96610ea1575b5060243585108015610e96575b610e8757610b7391610b6a8683610b658a95611d64565b611da5565b610b6581611d64565b7f0000000000000000000000000000000000000000000000000000000000000000916e22d473030f116ddee9f6b43ac78ba33b156107fe575f83610bcc9260405193849283926387517c4560e01b8452600484016118a5565b0381836e22d473030f116ddee9f6b43ac78ba35af1801561080a57610e72575b5084906e22d473030f116ddee9f6b43ac78ba33b15610e6e578183610c269260405193849283926387517c4560e01b8452600484016118a5565b0381836e22d473030f116ddee9f6b43ac78ba35af18015610e6357610e4e575b505060405190610c57606083611861565b60028252602082016040368237825115610e3a57838152825160011015610e3a5760408084018690525163c08bc85160e01b81527f00000000000000000000000000000000000000000000000000000000000000006001600160a01b0316600482015260a06024820152925160a4840181905260c484019284929091889190825b818110610e1e5750505080602080958593604485015282606485015282848203916003198301608487015252019260018060a01b03165af18015610de457610def575b506040516370a0823160e01b8152306004820152916020836024817f00000000000000000000000000000000000000000000000000000000000000006001600160a01b03165afa928315610de4578493610dae575b5091610da37f15294ad9d42e2bbd446d4ff6ca28fef807d1631ad53c688303fe468410830f3293604051938493846118d1565b0390a1600160055580f35b92506020833d602011610ddc575b81610dc960209383611861565b810103126107fe57915191610da3610d70565b3d9150610dbc565b6040513d86823e3d90fd5b6020813d602011610e16575b81610e0860209383611861565b810103126107fe5751610d1b565b3d9150610dfb565b825187526020968701968896508b945090920191600101610cd8565b634e487b7160e01b86526032600452602486fd5b81610e5891611861565b610a3757835f610c46565b6040513d84823e3d90fd5b5080fd5b610e7f9195505f90611861565b5f935f610bec565b63bb55fd2760e01b5f5260045ffd5b506044358610610b4e565b9095506020813d602011610ecd575b81610ebd60209383611861565b810103126107fe5751945f610b41565b3d9150610eb0565b9091506020813d602011610f01575b81610ef160209383611861565b810103126107fe5751905f610ae8565b3d9150610ee4565b610f34917f000000000000000000000000000000000000000000000000000000000000000091611c79565b5f80610a8f565b635990781360e01b5f5260045ffd5b346107fe575f3660031901126107fe576040515f6004548060011c90600181168015611044575b6020831081146110305782855290811561100c5750600114610fae575b610faa83610f9e81850382611861565b6040519182918261177d565b0390f35b60045f9081527f8a35acfbc15ff81a39ae7d344fd709f28e8600b4aa8c65c6b64bfe7fe36bd19b939250905b808210610ff257509091508101602001610f9e610f8e565b919260018160209254838588010152019101909291610fda565b60ff191660208086019190915291151560051b84019091019150610f9e9050610f8e565b634e487b7160e01b5f52602260045260245ffd5b91607f1691610f71565b346107fe5760203660031901126107fe576110676117a7565b7f00000000000000000000000000000000000000000000000000000000000000006001600160a01b03163303611118576001600160a01b031680156110de57600680546001600160a01b031916821790557f1304018cfe79741dcf02ba6b61d39cc4757d59395d03224d9925c7aa830021465f80a2005b60405162461bcd60e51b815260206004820152601260248201527124b73b30b634b21031b7b73a3937b63632b960711b6044820152606490fd5b635fc483c560e01b5f5260045ffd5b346107fe575f3660031901126107fe576040517f00000000000000000000000000000000000000000000000000000000000000006001600160a01b03168152602090f35b346107fe5760203660031901126107fe576001600160a01b0361118c6117a7565b165f525f602052602060405f2054604051908152f35b346107fe575f3660031901126107fe5760206040516e22d473030f116ddee9f6b43ac78ba38152f35b346107fe575f3660031901126107fe5760405180610faa7f00000000000000000000000000000000000000000000000000000000000000007f000000000000000000000000000000000000000000000000000000000000000083611817565b346107fe575f3660031901126107fe576040517f00000000000000000000000000000000000000000000000000000000000000006001600160a01b03168152602090f35b6117d3565b346107fe5760403660031901126107fe576103d561128f6117a7565b335f52600160205260405f2060018060a01b0382165f526020526112ba60405f206024359054611884565b90336118e7565b346107fe575f3660031901126107fe57602060405160128152f35b346107fe5760203660031901126107fe576004356112f8611b4e565b80156114ea57335f525f6020528060405f205410610e87576040516370a0823160e01b81523060048201527f00000000000000000000000000000000000000000000000000000000000000006001600160a01b031690602081602481855afa801561080a5783915f916114b5575b5010610e8757331561146657335f525f60205260405f20549082821061141657826113dd92335f525f6020520360405f205582600254036002555f6040518481525f516020611ffb5f395f51905f5260203392a360405163a9059cbb60e01b6020820152906105ea826105dc863360248401611ba4565b6040519080825260208201527f92ccf450a286a957af52509bc1c9939d1a6a481783e142e41e2499f0bb66ebc660403392a26001600555005b60405162461bcd60e51b815260206004820152602260248201527f45524332303a206275726e20616d6f756e7420657863656564732062616c616e604482015261636560f01b6064820152608490fd5b60405162461bcd60e51b815260206004820152602160248201527f45524332303a206275726e2066726f6d20746865207a65726f206164647265736044820152607360f81b6064820152608490fd5b9150506020813d6020116114e2575b816114d160209383611861565b810103126107fe5782905184611366565b3d91506114c4565b63162908e360e11b5f5260045ffd5b346107fe5760603660031901126107fe576115126117a7565b61151a6117bd565b6001600160a01b0382165f908152600160208181526040808420338552909152909120549260443592918401611555575b6103d593506119eb565b8284106115715761156c836103d5950333836118e7565b61154b565b60405162461bcd60e51b815260206004820152601d60248201527f45524332303a20696e73756666696369656e7420616c6c6f77616e63650000006044820152606490fd5b346107fe575f3660031901126107fe576020600254604051908152f35b346107fe575f3660031901126107fe576040517f00000000000000000000000000000000000000000000000000000000000000006001600160a01b03168152602090f35b346107fe575f3660031901126107fe576040517f00000000000000000000000000000000000000000000000000000000000000006001600160a01b03168152602090f35b346107fe575f3660031901126107fe576040517f00000000000000000000000000000000000000000000000000000000000000006001600160a01b03168152602090f35b346107fe5760403660031901126107fe576103d56116bb6117a7565b60243590336118e7565b346107fe575f3660031901126107fe575f6003548060011c90600181168015611773575b6020831081146110305782855290811561100c575060011461171557610faa83610f9e81850382611861565b60035f9081527fc2575a0e9e593c00f959f8c92f12db2869c3395a3b0502d05e2516446f71f85b939250905b80821061175957509091508101602001610f9e610f8e565b919260018160209254838588010152019101909291611741565b91607f16916116e9565b602060409281835280519182918282860152018484015e5f828201840152601f01601f1916010190565b600435906001600160a01b03821682036107fe57565b602435906001600160a01b03821682036107fe57565b346107fe575f3660031901126107fe576040517f00000000000000000000000000000000000000000000000000000000000000006001600160a01b03168152602090f35b6001600160a01b0391821681529116602082015260400190565b9181601f840112156107fe578235916001600160401b0383116107fe576020808501948460051b0101116107fe57565b601f909101601f19168101906001600160401b0382119082101761094757604052565b9190820180921161189157565b634e487b7160e01b5f52601160045260245ffd5b6001600160a01b0391821681529181166020830152604082015265ffffffffffff606082015260800190565b6040919493926060820195825260208201520152565b6001600160a01b031690811561199a576001600160a01b031691821561194a5760207f8c5be1e5ebec7d5bd14f71427d1e84f3dd0314c0f7b2291e5b200ac8c7c3b92591835f526001825260405f20855f5282528060405f2055604051908152a3565b60405162461bcd60e51b815260206004820152602260248201527f45524332303a20617070726f766520746f20746865207a65726f206164647265604482015261737360f01b6064820152608490fd5b60405162461bcd60e51b8152602060048201526024808201527f45524332303a20617070726f76652066726f6d20746865207a65726f206164646044820152637265737360e01b6064820152608490fd5b6001600160a01b0316908115611afb576001600160a01b0316918215611aaa57815f525f60205260405f2054818110611a5657815f516020611ffb5f395f51905f5292602092855f525f84520360405f2055845f525f825260405f20818154019055604051908152a3565b60405162461bcd60e51b815260206004820152602660248201527f45524332303a207472616e7366657220616d6f756e7420657863656564732062604482015265616c616e636560d01b6064820152608490fd5b60405162461bcd60e51b815260206004820152602360248201527f45524332303a207472616e7366657220746f20746865207a65726f206164647260448201526265737360e81b6064820152608490fd5b60405162461bcd60e51b815260206004820152602560248201527f45524332303a207472616e736665722066726f6d20746865207a65726f206164604482015264647265737360d81b6064820152608490fd5b600260055414611b5f576002600555565b60405162461bcd60e51b815260206004820152601f60248201527f5265656e7472616e637947756172643a207265656e7472616e742063616c6c006044820152606490fd5b6001600160a01b039091168152602081019190915260400190565b9190811015611be15760051b81013590605e19813603018212156107fe570190565b634e487b7160e01b5f52603260045260245ffd5b356001600160a01b03811681036107fe5790565b903590601e19813603018212156107fe57018035906001600160401b0382116107fe576020019181360383136107fe57565b3d15611c74573d906001600160401b0382116109475760405191611c69601f8201601f191660200184611861565b82523d5f602084013e565b606090565b5f5b828110611c885750505050565b611c9b611c96828585611bbf565b611bf5565b6001600160a01b03858116911603611d1e575b5f80611cbe611c96848787611bbf565b6040611ccb858888611bbf565b0135611ce5611cdb868989611bbf565b6020810190611c09565b9190826040519384928337810185815203925af1611d01611c3b565b5015611d0f57600101611c7b565b6316e128d760e31b5f5260045ffd5b611d2c611cdb828585611bbf565b6004116107fe57356001600160e01b03191663f6a1584d60e01b8101611d525750611cae565b63836e86a560e01b5f5260045260245ffd5b611da3906040519063095ea7b360e01b60208301526e22d473030f116ddee9f6b43ac78ba360248301525f6044830152604482526105ea606483611861565b565b9080158015611df2575b1561095b57611da3916040519163095ea7b360e01b60208401526e22d473030f116ddee9f6b43ac78ba360248401526044830152604482526105ea606483611861565b50604051636eb1769f60e11b81523060048201526e22d473030f116ddee9f6b43ac78ba360248201526020816044816001600160a01b0387165afa90811561080a575f91611e42575b5015611daf565b90506020813d602011611e6c575b81611e5d60209383611861565b810103126107fe57515f611e3b565b3d9150611e50565b90611ed49160018060a01b03165f8060405193611e92604086611861565b602085527f5361666545524332303a206c6f772d6c6576656c2063616c6c206661696c6564602086015260208151910182855af1611ece611c3b565b91611f65565b8051908115918215611f42575b505015611eea57565b60405162461bcd60e51b815260206004820152602a60248201527f5361666545524332303a204552433230206f7065726174696f6e20646964206e6044820152691bdd081cdd58d8d9595960b21b6064820152608490fd5b81925090602091810103126107fe576020015180151581036107fe575f80611ee1565b91929015611fc75750815115611f79575090565b3b15611f825790565b60405162461bcd60e51b815260206004820152601d60248201527f416464726573733a2063616c6c20746f206e6f6e2d636f6e74726163740000006044820152606490fd5b825190915015611fda5750805190602001fd5b60405162461bcd60e51b8152908190611ff6906004830161177d565b0390fdfeddf252ad1be2c89b69c2b068fc378daa952ba7f163c4a11628f55a4df523b3efa26469706673582212206547e7810d49c34c58dbc46bb55eb93688b12b61bbeaf37a10ca1ace6b0fa32464736f6c634300081c00338be0079c531659141344cd1fd0a4f28419497f9722a3daafe3b4186f6b6457e0a2646970667358221220df542d04bda6e1b88993b3b67f8b524cd2ed3fde4b7280862175b011c5c9456064736f6c634300081c0033","linkReferences":{}},"methodIdentifiers":{"allVaults(uint256)":"9094a91e","balancerRouter()":"49ec8b38","balancerVault()":"158274a5","controller()":"f77c4791","createVault(address,string,string)":"515d61ec","getAllVaults()":"97331bf9","getVault(address)":"0eb9af38","getVaultCount()":"74d4e491","owner()":"8da5cb5b","pool()":"16f0115b","predictVaultAddress(address,string,string)":"987f0d29","renounceOwnership()":"715018a6","router()":"f887ea40","setController(address)":"92eefe9b","token0()":"0dfe1681","token1()":"d21220a7","transferOwnership(address)":"f2fde38b","usdc()":"3e413bee","vaults(address)":"a622ee7c"},"id":130}