{"abi":[{"type":"constructor","inputs":[{"name":"_owner","type":"address","internalType":"address"},{"name":"_usdc","type":"address","internalType":"address"},{"name":"_underlyingVault","type":"address","internalType":"address"},{"name":"_name","type":"string","internalType":"string"},{"name":"_symbol","type":"string","internalType":"string"}],"stateMutability":"nonpayable"},{"type":"function","name":"allowance","inputs":[{"name":"owner","type":"address","internalType":"address"},{"name":"spender","type":"address","internalType":"address"}],"outputs":[{"name":"","type":"uint256","internalType":"uint256"}],"stateMutability":"view"},{"type":"function","name":"approve","inputs":[{"name":"spender","type":"address","internalType":"address"},{"name":"amount","type":"uint256","internalType":"uint256"}],"outputs":[{"name":"","type":"bool","internalType":"bool"}],"stateMutability":"nonpayable"},{"type":"function","name":"asset","inputs":[],"outputs":[{"name":"","type":"address","internalType":"address"}],"stateMutability":"view"},{"type":"function","name":"balanceOf","inputs":[{"name":"account","type":"address","internalType":"address"}],"outputs":[{"name":"","type":"uint256","internalType":"uint256"}],"stateMutability":"view"},{"type":"function","name":"controller","inputs":[],"outputs":[{"name":"","type":"address","internalType":"address"}],"stateMutability":"view"},{"type":"function","name":"decimals","inputs":[],"outputs":[{"name":"","type":"uint8","internalType":"uint8"}],"stateMutability":"view"},{"type":"function","name":"decreaseAllowance","inputs":[{"name":"spender","type":"address","internalType":"address"},{"name":"subtractedValue","type":"uint256","internalType":"uint256"}],"outputs":[{"name":"","type":"bool","internalType":"bool"}],"stateMutability":"nonpayable"},{"type":"function","name":"deposit","inputs":[{"name":"assets","type":"uint256","internalType":"uint256"}],"outputs":[],"stateMutability":"nonpayable"},{"type":"function","name":"divest","inputs":[{"name":"shares","type":"uint256","internalType":"uint256"},{"name":"minUsdcOut","type":"uint256","internalType":"uint256"}],"outputs":[],"stateMutability":"nonpayable"},{"type":"function","name":"increaseAllowance","inputs":[{"name":"spender","type":"address","internalType":"address"},{"name":"addedValue","type":"uint256","internalType":"uint256"}],"outputs":[{"name":"","type":"bool","internalType":"bool"}],"stateMutability":"nonpayable"},{"type":"function","name":"invest","inputs":[{"name":"amountUSDC","type":"uint256","internalType":"uint256"},{"name":"minSharesOut","type":"uint256","internalType":"uint256"}],"outputs":[],"stateMutability":"nonpayable"},{"type":"function","name":"name","inputs":[],"outputs":[{"name":"","type":"string","internalType":"string"}],"stateMutability":"view"},{"type":"function","name":"owner","inputs":[],"outputs":[{"name":"","type":"address","internalType":"address"}],"stateMutability":"view"},{"type":"function","name":"setController","inputs":[{"name":"_controller","type":"address","internalType":"address"}],"outputs":[],"stateMutability":"nonpayable"},{"type":"function","name":"symbol","inputs":[],"outputs":[{"name":"","type":"string","internalType":"string"}],"stateMutability":"view"},{"type":"function","name":"totalSupply","inputs":[],"outputs":[{"name":"","type":"uint256","internalType":"uint256"}],"stateMutability":"view"},{"type":"function","name":"transfer","inputs":[{"name":"to","type":"address","internalType":"address"},{"name":"amount","type":"uint256","internalType":"uint256"}],"outputs":[{"name":"","type":"bool","internalType":"bool"}],"stateMutability":"nonpayable"},{"type":"function","name":"transferFrom","inputs":[{"name":"from","type":"address","internalType":"address"},{"name":"to","type":"address","internalType":"address"},{"name":"amount","type":"uint256","internalType":"uint256"}],"outputs":[{"name":"","type":"bool","internalType":"bool"}],"stateMutability":"nonpayable"},{"type":"function","name":"underlyingVault","inputs":[],"outputs":[{"name":"","type":"address","internalType":"contract IERC4626"}],"stateMutability":"view"},{"type":"function","name":"usdc","inputs":[],"outputs":[{"name":"","type":"address","internalType":"address"}],"stateMutability":"view"},{"type":"function","name":"vault","inputs":[],"outputs":[{"name":"","type":"address","internalType":"address"}],"stateMutability":"view"},{"type":"function","name":"want","inputs":[],"outputs":[{"name":"","type":"address","internalType":"address"}],"stateMutability":"view"},{"type":"function","name":"withdraw","inputs":[{"name":"shares","type":"uint256","internalType":"uint256"}],"outputs":[],"stateMutability":"nonpayable"},{"type":"event","name":"Approval","inputs":[{"name":"owner","type":"address","indexed":true,"internalType":"address"},{"name":"spender","type":"address","indexed":true,"internalType":"address"},{"name":"value","type":"uint256","indexed":false,"internalType":"uint256"}],"anonymous":false},{"type":"event","name":"ControllerUpdated","inputs":[{"name":"newController","type":"address","indexed":true,"internalType":"address"}],"anonymous":false},{"type":"event","name":"Deposited","inputs":[{"name":"user","type":"address","indexed":true,"internalType":"address"},{"name":"assets","type":"uint256","indexed":false,"internalType":"uint256"},{"name":"shares","type":"uint256","indexed":false,"internalType":"uint256"}],"anonymous":false},{"type":"event","name":"Divested","inputs":[{"name":"sharesBurned","type":"uint256","indexed":false,"internalType":"uint256"},{"name":"usdcReceived","type":"uint256","indexed":false,"internalType":"uint256"}],"anonymous":false},{"type":"event","name":"Invested","inputs":[{"name":"usdcSpent","type":"uint256","indexed":false,"internalType":"uint256"},{"name":"sharesReceived","type":"uint256","indexed":false,"internalType":"uint256"}],"anonymous":false},{"type":"event","name":"Transfer","inputs":[{"name":"from","type":"address","indexed":true,"internalType":"address"},{"name":"to","type":"address","indexed":true,"internalType":"address"},{"name":"value","type":"uint256","indexed":false,"internalType":"uint256"}],"anonymous":false},{"type":"event","name":"Withdrawn","inputs":[{"name":"user","type":"address","indexed":true,"internalType":"address"},{"name":"assets","type":"uint256","indexed":false,"internalType":"uint256"},{"name":"shares","type":"uint256","indexed":false,"internalType":"uint256"}],"anonymous":false},{"type":"error","name":"InsufficientLiquidity","inputs":[]},{"type":"error","name":"InvalidAmount","inputs":[]},{"type":"error","name":"InvalidVaultAsset","inputs":[]},{"type":"error","name":"OnlyController","inputs":[]},{"type":"error","name":"OnlyOwner","inputs":[]}],"bytecode":{"object":"0x60e080604052346102a857611b95803803809161001c82856104da565b833981019060a0818303126102a857610034816104fd565b90610041602082016104fd565b61004d604083016104fd565b60608301519092906001600160401b0381116102a8578561006f918301610511565b60808201519095906001600160401b0381116102a85761008f9201610511565b845190946001600160401b0382116103dd5760035490600182811c921680156104d0575b60208310146103bf5781601f849311610462575b50602090601f83116001146103fc575f926103f1575b50508160011b915f199060031b1c1916176003555b83516001600160401b0381116103dd57600454600181811c911680156103d3575b60208210146103bf57601f811161035c575b50602094601f82116001146102f9579481929394955f926102ee575b50508160011b915f199060031b1c1916176004555b60016005556001600160a01b0383169283156102df576001600160a01b03821692831580156102ce575b6102bf576040516338d52e0f60e01b81526001600160a01b03919091169390602081600481885afa9081156102b4575f91610276575b506001600160a01b0316036102675760c05260805260a052600680546001600160a01b03191682179055604051907f1304018cfe79741dcf02ba6b61d39cc4757d59395d03224d9925c7aa830021465f80a261162e9081610567823960805181818161021e015281816105b401528181610a3d01528181610cd101526110b9015260a0518181816101300152818161028e0152818161052d01526109cf015260c051818181610892015261092b0152f35b631b3b488360e11b5f5260045ffd5b90506020813d6020116102ac575b81610291602093836104da565b810103126102a8576102a2906104fd565b5f6101b6565b5f80fd5b3d9150610284565b6040513d5f823e3d90fd5b63162908e360e11b5f5260045ffd5b506001600160a01b03811615610180565b635fc483c560e01b5f5260045ffd5b015190505f80610141565b601f1982169560045f52805f20915f5b8881106103445750836001959697981061032c575b505050811b01600455610156565b01515f1960f88460031b161c191690555f808061031e565b91926020600181928685015181550194019201610309565b60045f527f8a35acfbc15ff81a39ae7d344fd709f28e8600b4aa8c65c6b64bfe7fe36bd19b601f830160051c810191602084106103b5575b601f0160051c01905b8181106103aa5750610125565b5f815560010161039d565b9091508190610394565b634e487b7160e01b5f52602260045260245ffd5b90607f1690610113565b634e487b7160e01b5f52604160045260245ffd5b015190505f806100dd565b60035f9081528281209350601f198516905b81811061044a5750908460019594939210610432575b505050811b016003556100f2565b01515f1960f88460031b161c191690555f8080610424565b9293602060018192878601518155019501930161040e565b60035f529091507fc2575a0e9e593c00f959f8c92f12db2869c3395a3b0502d05e2516446f71f85b601f840160051c810191602085106104c6575b90601f859493920160051c01905b8181106104b857506100c7565b5f81558493506001016104ab565b909150819061049d565b91607f16916100b3565b601f909101601f19168101906001600160401b038211908210176103dd57604052565b51906001600160a01b03821682036102a857565b81601f820112156102a8578051906001600160401b0382116103dd5760405192610545601f8401601f1916602001856104da565b828452602083830101116102a857815f9260208093018386015e830101529056fe6080806040526004361015610012575f80fd5b5f905f3560e01c90816306fdde0314610f9657508063095ea7b314610f7057806318160ddd14610f535780631f1fcd5114610c1a57806323b872dd14610e965780632e1a7d4d14610c88578063313ce56714610c6d57806338d52e0f14610c1a5780633950935114610c1f5780633e413bee14610c1a5780634696c7491461099157806370a082311461095a5780638da5cb5b1461091657806392eefe9b1461087757806395d89b4114610773578063a457c2d7146106d0578063a9059cbb1461069f578063b6b55f251461055c578063c26af9d814610518578063d87aa643146101de578063dd62ed3e1461018b578063f77c4791146101625763fbfa77cf1461011b575f80fd5b3461015f578060031936011261015f576040517f00000000000000000000000000000000000000000000000000000000000000006001600160a01b03168152602090f35b80fd5b503461015f578060031936011261015f576006546040516001600160a01b039091168152602090f35b503461015f57604036600319011261015f5760406101a7611078565b916101b061108e565b9260018060a01b031681526001602052209060018060a01b03165f52602052602060405f2054604051908152f35b346103d0576101ec366110e8565b6006549091906001600160a01b03163303610509576102096113a9565b6040516370a0823160e01b81523060048201527f00000000000000000000000000000000000000000000000000000000000000006001600160a01b0316929091602083602481875afa9283156103dc575f936104d5575b50806104cf575081925b83159283801591826104c5575b506104b65760405163095ea7b360e01b60208201527f00000000000000000000000000000000000000000000000000000000000000006001600160a01b0316602482018190525f604480840191909152825294906102e0906102da6064826110fe565b8461141a565b9061044b575b156103e7575f926103286020926040519063095ea7b360e01b85830152610323826103158a87602484016113ff565b03601f1981018452836110fe565b61141a565b604460405180958193636e553f6560e01b83528860048401523060248401525af19182156103dc575f926103a4575b508110610395577fb99956c8203b7677de254bac7df707c62197037d108739a8702bb91ee3e492c99160409182519182526020820152a16001600555005b63bb55fd2760e01b5f5260045ffd5b9091506020813d6020116103d4575b816103c0602093836110fe565b810103126103d057519083610357565b5f80fd5b3d91506103b3565b6040513d5f823e3d90fd5b60405162461bcd60e51b815260206004820152603660248201527f5361666545524332303a20617070726f76652066726f6d206e6f6e2d7a65726f60448201527520746f206e6f6e2d7a65726f20616c6c6f77616e636560501b6064820152608490fd5b50604051636eb1769f60e11b815230600482015260248101849052602081604481855afa9081156103dc575f91610484575b50156102e6565b90506020813d6020116104ae575b8161049f602093836110fe565b810103126103d057518561047d565b3d9150610492565b63162908e360e11b5f5260045ffd5b9050851186610277565b9261026a565b9092506020813d602011610501575b816104f1602093836110fe565b810103126103d057519184610260565b3d91506104e4565b635990781360e01b5f5260045ffd5b346103d0575f3660031901126103d0576040517f00000000000000000000000000000000000000000000000000000000000000006001600160a01b03168152602090f35b346103d05760203660031901126103d0576004356105786113a9565b80156104b6576105e16040516323b872dd60e01b6020820152336024820152306044820152826064820152606481526105b26084826110fe565b7f00000000000000000000000000000000000000000000000000000000000000006001600160a01b031661141a565b331561065a576105f381600254611135565b600255335f525f60205260405f208181540190556040518181525f5f5160206115d95f395f51905f5260203393a36040519080825260208201527f73a19dd210f1a7f902193214c0ee91dd35ee5b4d920cba8d519eca65a7b488ca60403392a26001600555005b60405162461bcd60e51b815260206004820152601f60248201527f45524332303a206d696e7420746f20746865207a65726f2061646472657373006044820152606490fd5b346103d05760403660031901126103d0576106c56106bb611078565b6024359033611246565b602060405160018152f35b346103d05760403660031901126103d0576106e9611078565b60243590335f52600160205260405f2060018060a01b0382165f5260205260405f205491808310610720576106c592039033611142565b60405162461bcd60e51b815260206004820152602560248201527f45524332303a2064656372656173656420616c6c6f77616e63652062656c6f77604482015264207a65726f60d81b6064820152608490fd5b346103d0575f3660031901126103d0576040515f6004548060011c9060018116801561086d575b6020831081146108595782855290811561083557506001146107d7575b6107d3836107c7818503826110fe565b6040519182918261104e565b0390f35b60045f9081527f8a35acfbc15ff81a39ae7d344fd709f28e8600b4aa8c65c6b64bfe7fe36bd19b939250905b80821061081b575090915081016020016107c76107b7565b919260018160209254838588010152019101909291610803565b60ff191660208086019190915291151560051b840190910191506107c790506107b7565b634e487b7160e01b5f52602260045260245ffd5b91607f169161079a565b346103d05760203660031901126103d057610890611078565b7f00000000000000000000000000000000000000000000000000000000000000006001600160a01b03163303610907576001600160a01b031680156104b657600680546001600160a01b031916821790557f1304018cfe79741dcf02ba6b61d39cc4757d59395d03224d9925c7aa830021465f80a2005b635fc483c560e01b5f5260045ffd5b346103d0575f3660031901126103d0576040517f00000000000000000000000000000000000000000000000000000000000000006001600160a01b03168152602090f35b346103d05760203660031901126103d0576001600160a01b0361097b611078565b165f525f602052602060405f2054604051908152f35b346103d05761099f366110e8565b6006546001600160a01b03163303610509576109b96113a9565b6040516370a0823160e01b8152306004820152917f00000000000000000000000000000000000000000000000000000000000000006001600160a01b03169190602084602481865afa9384156103dc575f94610be6575b5080610be05750825b8315908115610bd6575b506104b6576040516370a0823160e01b81523060048201527f00000000000000000000000000000000000000000000000000000000000000006001600160a01b031692602082602481875afa9182156103dc575f92610ba1575b5060205f91606460405180948193635d043b2960e11b83528a60048401523060248401523060448401525af180156103dc57610b70575b506020602493604051948580926370a0823160e01b82523060048301525afa9283156103dc575f93610b3c575b508203918211610b28578110610395577f8680a71cfa86428ce43ebbc95f68bf763d38694cae4a4dd81178ebbb8fffba789160409182519182526020820152a16001600555005b634e487b7160e01b5f52601160045260245ffd5b9092506020813d602011610b68575b81610b58602093836110fe565b810103126103d057519184610ae1565b3d9150610b4b565b6020813d602011610b99575b81610b89602093836110fe565b810103126103d057506020610ab4565b3d9150610b7c565b9091506020813d602011610bce575b81610bbd602093836110fe565b810103126103d05751906020610a7d565b3d9150610bb0565b9050831184610a23565b92610a19565b9093506020813d602011610c12575b81610c02602093836110fe565b810103126103d057519284610a10565b3d9150610bf5565b6110a4565b346103d05760403660031901126103d0576106c5610c3b611078565b335f52600160205260405f2060018060a01b0382165f52602052610c6660405f206024359054611135565b9033611142565b346103d0575f3660031901126103d057602060405160128152f35b346103d05760203660031901126103d057600435610ca46113a9565b80156104b657335f525f6020528060405f205410610395576040516370a0823160e01b81523060048201527f00000000000000000000000000000000000000000000000000000000000000006001600160a01b031690602081602481855afa80156103dc5783915f91610e61575b5010610395573315610e1257335f525f60205260405f205490828210610dc25782610d8992335f525f6020520360405f205582600254036002555f6040518481525f5160206115d95f395f51905f5260203392a360405163a9059cbb60e01b602082015290610323826103158633602484016113ff565b6040519080825260208201527f92ccf450a286a957af52509bc1c9939d1a6a481783e142e41e2499f0bb66ebc660403392a26001600555005b60405162461bcd60e51b815260206004820152602260248201527f45524332303a206275726e20616d6f756e7420657863656564732062616c616e604482015261636560f01b6064820152608490fd5b60405162461bcd60e51b815260206004820152602160248201527f45524332303a206275726e2066726f6d20746865207a65726f206164647265736044820152607360f81b6064820152608490fd5b9150506020813d602011610e8e575b81610e7d602093836110fe565b810103126103d05782905184610d12565b3d9150610e70565b346103d05760603660031901126103d057610eaf611078565b610eb761108e565b6001600160a01b0382165f908152600160208181526040808420338552909152909120549260443592918401610ef2575b6106c59350611246565b828410610f0e57610f09836106c595033383611142565b610ee8565b60405162461bcd60e51b815260206004820152601d60248201527f45524332303a20696e73756666696369656e7420616c6c6f77616e63650000006044820152606490fd5b346103d0575f3660031901126103d0576020600254604051908152f35b346103d05760403660031901126103d0576106c5610f8c611078565b6024359033611142565b346103d0575f3660031901126103d0575f6003548060011c90600181168015611044575b602083108114610859578285529081156108355750600114610fe6576107d3836107c7818503826110fe565b60035f9081527fc2575a0e9e593c00f959f8c92f12db2869c3395a3b0502d05e2516446f71f85b939250905b80821061102a575090915081016020016107c76107b7565b919260018160209254838588010152019101909291611012565b91607f1691610fba565b602060409281835280519182918282860152018484015e5f828201840152601f01601f1916010190565b600435906001600160a01b03821682036103d057565b602435906001600160a01b03821682036103d057565b346103d0575f3660031901126103d0576040517f00000000000000000000000000000000000000000000000000000000000000006001600160a01b03168152602090f35b60409060031901126103d0576004359060243590565b601f909101601f19168101906001600160401b0382119082101761112157604052565b634e487b7160e01b5f52604160045260245ffd5b91908201809211610b2857565b6001600160a01b03169081156111f5576001600160a01b03169182156111a55760207f8c5be1e5ebec7d5bd14f71427d1e84f3dd0314c0f7b2291e5b200ac8c7c3b92591835f526001825260405f20855f5282528060405f2055604051908152a3565b60405162461bcd60e51b815260206004820152602260248201527f45524332303a20617070726f766520746f20746865207a65726f206164647265604482015261737360f01b6064820152608490fd5b60405162461bcd60e51b8152602060048201526024808201527f45524332303a20617070726f76652066726f6d20746865207a65726f206164646044820152637265737360e01b6064820152608490fd5b6001600160a01b0316908115611356576001600160a01b031691821561130557815f525f60205260405f20548181106112b157815f5160206115d95f395f51905f5292602092855f525f84520360405f2055845f525f825260405f20818154019055604051908152a3565b60405162461bcd60e51b815260206004820152602660248201527f45524332303a207472616e7366657220616d6f756e7420657863656564732062604482015265616c616e636560d01b6064820152608490fd5b60405162461bcd60e51b815260206004820152602360248201527f45524332303a207472616e7366657220746f20746865207a65726f206164647260448201526265737360e81b6064820152608490fd5b60405162461bcd60e51b815260206004820152602560248201527f45524332303a207472616e736665722066726f6d20746865207a65726f206164604482015264647265737360d81b6064820152608490fd5b6002600554146113ba576002600555565b60405162461bcd60e51b815260206004820152601f60248201527f5265656e7472616e637947756172643a207265656e7472616e742063616c6c006044820152606490fd5b6001600160a01b039091168152602081019190915260400190565b60018060a01b0316905f80604051926114346040856110fe565b602084527f5361666545524332303a206c6f772d6c6576656c2063616c6c206661696c6564602085015260208151910182865af13d1561153a573d906001600160401b038211611121576040516114a994909261149b601f8201601f1916602001856110fe565b83523d5f602085013e611543565b8051908115918215611517575b5050156114bf57565b60405162461bcd60e51b815260206004820152602a60248201527f5361666545524332303a204552433230206f7065726174696f6e20646964206e6044820152691bdd081cdd58d8d9595960b21b6064820152608490fd5b81925090602091810103126103d0576020015180151581036103d0575f806114b6565b916114a9926060915b919290156115a55750815115611557575090565b3b156115605790565b60405162461bcd60e51b815260206004820152601d60248201527f416464726573733a2063616c6c20746f206e6f6e2d636f6e74726163740000006044820152606490fd5b8251909150156115b85750805190602001fd5b60405162461bcd60e51b81529081906115d4906004830161104e565b0390fdfeddf252ad1be2c89b69c2b068fc378daa952ba7f163c4a11628f55a4df523b3efa2646970667358221220a2e2085991ea5269625931125b80ae97bb2264d424b774d058e0f4018a8002ce64736f6c634300081c0033","linkReferences":{}},"methodIdentifiers":{"allowance(address,address)":"dd62ed3e","approve(address,uint256)":"095ea7b3","asset()":"38d52e0f","balanceOf(address)":"70a08231","controller()":"f77c4791","decimals()":"313ce567","decreaseAllowance(address,uint256)":"a457c2d7","deposit(uint256)":"b6b55f25","divest(uint256,uint256)":"4696c749","increaseAllowance(address,uint256)":"39509351","invest(uint256,uint256)":"d87aa643","name()":"06fdde03","owner()":"8da5cb5b","setController(address)":"92eefe9b","symbol()":"95d89b41","totalSupply()":"18160ddd","transfer(address,uint256)":"a9059cbb","transferFrom(address,address,uint256)":"23b872dd","underlyingVault()":"c26af9d8","usdc()":"3e413bee","vault()":"fbfa77cf","want()":"1f1fcd51","withdraw(uint256)":"2e1a7d4d"},"id":131}