{"abi":[{"type":"constructor","inputs":[{"name":"_owner","type":"address","internalType":"address"},{"name":"_usdc","type":"address","internalType":"address"},{"name":"_underlyingVault","type":"address","internalType":"address"},{"name":"_name","type":"string","internalType":"string"},{"name":"_symbol","type":"string","internalType":"string"}],"stateMutability":"nonpayable"},{"type":"function","name":"allowance","inputs":[{"name":"owner","type":"address","internalType":"address"},{"name":"spender","type":"address","internalType":"address"}],"outputs":[{"name":"","type":"uint256","internalType":"uint256"}],"stateMutability":"view"},{"type":"function","name":"approve","inputs":[{"name":"spender","type":"address","internalType":"address"},{"name":"amount","type":"uint256","internalType":"uint256"}],"outputs":[{"name":"","type":"bool","internalType":"bool"}],"stateMutability":"nonpayable"},{"type":"function","name":"asset","inputs":[],"outputs":[{"name":"","type":"address","internalType":"address"}],"stateMutability":"view"},{"type":"function","name":"balanceOf","inputs":[{"name":"account","type":"address","internalType":"address"}],"outputs":[{"name":"","type":"uint256","internalType":"uint256"}],"stateMutability":"view"},{"type":"function","name":"controller","inputs":[],"outputs":[{"name":"","type":"address","internalType":"address"}],"stateMutability":"view"},{"type":"function","name":"decimals","inputs":[],"outputs":[{"name":"","type":"uint8","internalType":"uint8"}],"stateMutability":"view"},{"type":"function","name":"decreaseAllowance","inputs":[{"name":"spender","type":"address","internalType":"address"},{"name":"subtractedValue","type":"uint256","internalType":"uint256"}],"outputs":[{"name":"","type":"bool","internalType":"bool"}],"stateMutability":"nonpayable"},{"type":"function","name":"deposit","inputs":[{"name":"assets","type":"uint256","internalType":"uint256"}],"outputs":[],"stateMutability":"nonpayable"},{"type":"function","name":"divest","inputs":[{"name":"shares","type":"uint256","internalType":"uint256"},{"name":"minUsdcOut","type":"uint256","internalType":"uint256"}],"outputs":[],"stateMutability":"nonpayable"},{"type":"function","name":"increaseAllowance","inputs":[{"name":"spender","type":"address","internalType":"address"},{"name":"addedValue","type":"uint256","internalType":"uint256"}],"outputs":[{"name":"","type":"bool","internalType":"bool"}],"stateMutability":"nonpayable"},{"type":"function","name":"invest","inputs":[{"name":"amountUSDC","type":"uint256","internalType":"uint256"},{"name":"minSharesOut","type":"uint256","internalType":"uint256"}],"outputs":[],"stateMutability":"nonpayable"},{"type":"function","name":"name","inputs":[],"outputs":[{"name":"","type":"string","internalType":"string"}],"stateMutability":"view"},{"type":"function","name":"owner","inputs":[],"outputs":[{"name":"","type":"address","internalType":"address"}],"stateMutability":"view"},{"type":"function","name":"setController","inputs":[{"name":"_controller","type":"address","internalType":"address"}],"outputs":[],"stateMutability":"nonpayable"},{"type":"function","name":"symbol","inputs":[],"outputs":[{"name":"","type":"string","internalType":"string"}],"stateMutability":"view"},{"type":"function","name":"totalSupply","inputs":[],"outputs":[{"name":"","type":"uint256","internalType":"uint256"}],"stateMutability":"view"},{"type":"function","name":"transfer","inputs":[{"name":"to","type":"address","internalType":"address"},{"name":"amount","type":"uint256","internalType":"uint256"}],"outputs":[{"name":"","type":"bool","internalType":"bool"}],"stateMutability":"nonpayable"},{"type":"function","name":"transferFrom","inputs":[{"name":"from","type":"address","internalType":"address"},{"name":"to","type":"address","internalType":"address"},{"name":"amount","type":"uint256","internalType":"uint256"}],"outputs":[{"name":"","type":"bool","internalType":"bool"}],"stateMutability":"nonpayable"},{"type":"function","name":"underlyingVault","inputs":[],"outputs":[{"name":"","type":"address","internalType":"contract IERC4626"}],"stateMutability":"view"},{"type":"function","name":"usdc","inputs":[],"outputs":[{"name":"","type":"address","internalType":"address"}],"stateMutability":"view"},{"type":"function","name":"vault","inputs":[],"outputs":[{"name":"","type":"address","internalType":"address"}],"stateMutability":"view"},{"type":"function","name":"want","inputs":[],"outputs":[{"name":"","type":"address","internalType":"address"}],"stateMutability":"view"},{"type":"function","name":"withdraw","inputs":[{"name":"shares","type":"uint256","internalType":"uint256"}],"outputs":[],"stateMutability":"nonpayable"},{"type":"event","name":"Approval","inputs":[{"name":"owner","type":"address","indexed":true,"internalType":"address"},{"name":"spender","type":"address","indexed":true,"internalType":"address"},{"name":"value","type":"uint256","indexed":false,"internalType":"uint256"}],"anonymous":false},{"type":"event","name":"ControllerUpdated","inputs":[{"name":"newController","type":"address","indexed":true,"internalType":"address"}],"anonymous":false},{"type":"event","name":"Deposited","inputs":[{"name":"user","type":"address","indexed":true,"internalType":"address"},{"name":"assets","type":"uint256","indexed":false,"internalType":"uint256"},{"name":"shares","type":"uint256","indexed":false,"internalType":"uint256"}],"anonymous":false},{"type":"event","name":"Divested","inputs":[{"name":"sharesBurned","type":"uint256","indexed":false,"internalType":"uint256"},{"name":"usdcReceived","type":"uint256","indexed":false,"internalType":"uint256"}],"anonymous":false},{"type":"event","name":"Invested","inputs":[{"name":"usdcSpent","type":"uint256","indexed":false,"internalType":"uint256"},{"name":"sharesReceived","type":"uint256","indexed":false,"internalType":"uint256"}],"anonymous":false},{"type":"event","name":"Transfer","inputs":[{"name":"from","type":"address","indexed":true,"internalType":"address"},{"name":"to","type":"address","indexed":true,"internalType":"address"},{"name":"value","type":"uint256","indexed":false,"internalType":"uint256"}],"anonymous":false},{"type":"event","name":"Withdrawn","inputs":[{"name":"user","type":"address","indexed":true,"internalType":"address"},{"name":"assets","type":"uint256","indexed":false,"internalType":"uint256"},{"name":"shares","type":"uint256","indexed":false,"internalType":"uint256"}],"anonymous":false},{"type":"error","name":"InsufficientLiquidity","inputs":[]},{"type":"error","name":"InvalidAmount","inputs":[]},{"type":"error","name":"InvalidVaultAsset","inputs":[]},{"type":"error","name":"OnlyController","inputs":[]},{"type":"error","name":"OnlyOwner","inputs":[]}],"bytecode":{"object":"0x60e0604052346100c55761001d610014610280565b939290926103a7565b6100256100ca565b612f40610855823960805181818161057701528181610bc201528181610d3501528181610dcd01528181610f16015281816111430152818161123d015281816117460152818161188b0152818161194101526119a5015260a0518181816107e40152818161108d015281816111b60152818161196a015281816119ce015281816119fe0152611bdb015260c05181818161068401526114740152612f4090f35b6100d0565b60405190565b5f80fd5b601f801991011690565b634e487b7160e01b5f52604160045260245ffd5b906100fc906100d4565b810190811060018060401b0382111761011457604052565b6100de565b9061012c6101256100ca565b92836100f2565b565b5f80fd5b5f80fd5b60018060a01b031690565b61014a90610136565b90565b61015681610141565b0361015d57565b5f80fd5b9050519061016e8261014d565b565b5f80fd5b5f80fd5b60018060401b038111610194576101906020916100d4565b0190565b6100de565b90825f9392825e0152565b909291926101b96101b482610178565b610119565b938185526020850190828401116101d5576101d392610199565b565b610174565b9080601f830112156101f8578160206101f5935191016101a4565b90565b610170565b91909160a08184031261027b57610216835f8301610161565b926102248160208401610161565b926102328260408501610161565b92606081015160018060401b03811161027657836102519183016101da565b92608082015160018060401b0381116102715761026e92016101da565b90565b610132565b610132565b61012e565b61029e6137958038038061029381610119565b9283398101906101fd565b9091929394565b90565b90565b6102bf6102ba6102c4926102a5565b6102a8565b610136565b90565b6102d0906102ab565b90565b5f0190565b6102ec6102e76102f192610136565b6102a8565b610136565b90565b6102fd906102d8565b90565b610309906102f4565b90565b610315906102d8565b90565b6103219061030c565b90565b60e01b90565b9060208282031261034357610340915f01610161565b90565b61012e565b6103506100ca565b3d5f823e3d90fd5b5f1b90565b9061036e60018060a01b0391610358565b9181191691161790565b6103819061030c565b90565b90565b9061039c6103976103a392610378565b610384565b825461035d565b9055565b936103b291936105ec565b826103cd6103c76103c25f6102c7565b610141565b91610141565b1461054c57816103ed6103e76103e25f6102c7565b610141565b91610141565b14801561052a575b61050e57610425602061040f61040a84610300565b610318565b6338d52e0f9061041d6100ca565b938492610324565b82528180610435600482016102d3565b03915afa908115610509575f916104db575b5061045a61045484610141565b91610141565b036104bf5761046f918360c052608052610300565b60a05261047d816006610387565b6104a77f1304018cfe79741dcf02ba6b61d39cc4757d59395d03224d9925c7aa8300214691610378565b906104b06100ca565b806104ba816102d3565b0390a2565b5f631b3b488360e11b8152806104d7600482016102d3565b0390fd5b6104fc915060203d8111610502575b6104f481836100f2565b81019061032a565b5f610447565b503d6104ea565b610348565b5f63162908e360e11b815280610526600482016102d3565b0390fd5b508061054661054061053b5f6102c7565b610141565b91610141565b146103f5565b5f635fc483c560e01b815280610564600482016102d3565b0390fd5b90565b90565b61058261057d61058792610568565b6102a8565b61056b565b90565b610594600161056e565b90565b906105a35f1991610358565b9181191691161790565b6105c16105bc6105c69261056b565b6102a8565b61056b565b90565b90565b906105e16105dc6105e8926105ad565b6105c9565b8254610597565b9055565b906105f69161083c565b61060861060161058a565b60056105cc565b565b5190565b634e487b7160e01b5f52602260045260245ffd5b9060016002830492168015610642575b602083101461063d57565b61060e565b91607f1691610632565b5f5260205f2090565b601f602091010490565b1b90565b9190600861067e9102916106785f198461065f565b9261065f565b9181191691161790565b919061069e6106996106a6936105ad565b6105c9565b908354610663565b9055565b5f90565b6106c0916106ba6106aa565b91610688565b565b5b8181106106ce575050565b806106db5f6001936106ae565b016106c3565b9190601f81116106f1575b505050565b6106fd6107229361064c565b90602061070984610655565b8301931061072a575b61071b90610655565b01906106c2565b5f80806106ec565b915061071b81929050610712565b1c90565b9061074c905f1990600802610738565b191690565b8161075b9161073c565b906002021790565b9061076d8161060a565b9060018060401b03821161082b5761078f826107898554610622565b856106e1565b602090601f83116001146107c3579180916107b2935f926107b7575b5050610751565b90555b565b90915001515f806107ab565b601f198316916107d28561064c565b925f5b818110610813575091600293918560019694106107f9575b505050020190556107b5565b610809910151601f84169061073c565b90555f80806107ed565b919360206001819287870151815501950192016107d5565b6100de565b9061083a91610763565b565b9061084b610852926003610830565b6004610830565b56fe60806040526004361015610013575b6109d9565b61001d5f3561018c565b806306fdde0314610187578063095ea7b31461018257806318160ddd1461017d5780631f1fcd511461017857806323b872dd146101735780632e1a7d4d1461016e578063313ce5671461016957806338d52e0f14610164578063395093511461015f5780633e413bee1461015a5780634696c7491461015557806370a08231146101505780638da5cb5b1461014b57806392eefe9b1461014657806395d89b4114610141578063a457c2d71461013c578063a9059cbb14610137578063b6b55f2514610132578063c26af9d81461012d578063d87aa64314610128578063dd62ed3e14610123578063f77c47911461011e5763fbfa77cf0361000e576109a4565b61096f565b6108f5565b610894565b61085f565b6107af565b610779565b610743565b61070e565b6106db565b6106a6565b61064d565b6105fb565b610599565b61053f565b61050a565b6104d5565b61047a565b610421565b6103b2565b61035b565b610303565b61021a565b60e01c90565b60405190565b5f80fd5b5f80fd5b5f9103126101aa57565b61019c565b5190565b60209181520190565b90825f9392825e0152565b601f801991011690565b6101f06101f96020936101fe936101e7816101af565b938480936101b3565b958691016101bc565b6101c7565b0190565b6102179160208201915f8184039101526101d1565b90565b3461024a5761022a3660046101a0565b610246610235610b34565b61023d610192565b91829182610202565b0390f35b610198565b60018060a01b031690565b6102639061024f565b90565b61026f8161025a565b0361027657565b5f80fd5b9050359061028782610266565b565b90565b61029581610289565b0361029c57565b5f80fd5b905035906102ad8261028c565b565b91906040838203126102d757806102cb6102d4925f860161027a565b936020016102a0565b90565b61019c565b151590565b6102ea906102dc565b9052565b9190610301905f602085019401906102e1565b565b346103345761033061031f6103193660046102af565b90610b4e565b610327610192565b918291826102ee565b0390f35b610198565b61034290610289565b9052565b9190610359905f60208501940190610339565b565b3461038b5761036b3660046101a0565b610387610376610b9d565b61037e610192565b91829182610346565b0390f35b610198565b6103999061025a565b9052565b91906103b0905f60208501940190610390565b565b346103e2576103c23660046101a0565b6103de6103cd610bb7565b6103d5610192565b9182918261039d565b0390f35b610198565b909160608284031261041c57610419610402845f850161027a565b93610410816020860161027a565b936040016102a0565b90565b61019c565b346104525761044e61043d6104373660046103e7565b91610be4565b610445610192565b918291826102ee565b0390f35b610198565b906020828203126104705761046d915f016102a0565b90565b61019c565b5f0190565b346104a85761049261048d366004610457565b610ec7565b61049a610192565b806104a481610475565b0390f35b610198565b60ff1690565b6104bc906104ad565b9052565b91906104d3905f602085019401906104b3565b565b34610505576104e53660046101a0565b6105016104f0610ef5565b6104f8610192565b918291826104c0565b0390f35b610198565b3461053a5761051a3660046101a0565b610536610525610f0b565b61052d610192565b9182918261039d565b0390f35b610198565b346105705761056c61055b6105553660046102af565b90610f71565b610563610192565b918291826102ee565b0390f35b610198565b7f000000000000000000000000000000000000000000000000000000000000000090565b346105c9576105a93660046101a0565b6105c56105b4610575565b6105bc610192565b9182918261039d565b0390f35b610198565b91906040838203126105f657806105ea6105f3925f86016102a0565b936020016102a0565b90565b61019c565b3461062a5761061461060e3660046105ce565b9061142b565b61061c610192565b8061062681610475565b0390f35b610198565b9060208282031261064857610645915f0161027a565b90565b61019c565b3461067d5761067961066861066336600461062f565b61144d565b610670610192565b91829182610346565b0390f35b610198565b7f000000000000000000000000000000000000000000000000000000000000000090565b346106d6576106b63660046101a0565b6106d26106c1610682565b6106c9610192565b9182918261039d565b0390f35b610198565b34610709576106f36106ee36600461062f565b6115be565b6106fb610192565b8061070581610475565b0390f35b610198565b3461073e5761071e3660046101a0565b61073a6107296115c9565b610731610192565b91829182610202565b0390f35b610198565b346107745761077061075f6107593660046102af565b90611695565b610767610192565b918291826102ee565b0390f35b610198565b346107aa576107a661079561078f3660046102af565b906116e9565b61079d610192565b918291826102ee565b0390f35b610198565b346107dd576107c76107c2366004610457565b6117eb565b6107cf610192565b806107d981610475565b0390f35b610198565b7f000000000000000000000000000000000000000000000000000000000000000090565b90565b61081d6108186108229261024f565b610806565b61024f565b90565b61082e90610809565b90565b61083a90610825565b90565b61084690610831565b9052565b919061085d905f6020850194019061083d565b565b3461088f5761086f3660046101a0565b61088b61087a6107e2565b610882610192565b9182918261084a565b0390f35b610198565b346108c3576108ad6108a73660046105ce565b90611b83565b6108b5610192565b806108bf81610475565b0390f35b610198565b91906040838203126108f057806108e46108ed925f860161027a565b9360200161027a565b90565b61019c565b346109265761092261091161090b3660046108c8565b90611ba5565b610919610192565b91829182610346565b0390f35b610198565b1c90565b60018060a01b031690565b61094a90600861094f930261092b565b61092f565b90565b9061095d915461093a565b90565b61096c60065f90610952565b90565b3461099f5761097f3660046101a0565b61099b61098a610960565b610992610192565b9182918261039d565b0390f35b610198565b346109d4576109b43660046101a0565b6109d06109bf611bcd565b6109c7610192565b9182918261039d565b0390f35b610198565b5f80fd5b606090565b634e487b7160e01b5f52602260045260245ffd5b9060016002830492168015610a16575b6020831014610a1157565b6109e2565b91607f1691610a06565b60209181520190565b5f5260205f2090565b905f9291805490610a4c610a45836109f6565b8094610a20565b916001811690815f14610aa35750600114610a67575b505050565b610a749192939450610a29565b915f925b818410610a8b57505001905f8080610a62565b60018160209295939554848601520191019290610a78565b92949550505060ff19168252151560200201905f8080610a62565b90610ac891610a32565b90565b634e487b7160e01b5f52604160045260245ffd5b90610ae9906101c7565b810190811060018060401b03821117610b0157604052565b610acb565b90610b26610b1f92610b16610192565b93848092610abe565b0383610adf565b565b610b3190610b06565b90565b610b3c6109dd565b50610b476003610b28565b90565b5f90565b610b6b91610b5a610b4a565b50610b63611c02565b919091611db4565b600190565b5f90565b5f1c90565b90565b610b88610b8d91610b74565b610b79565b90565b610b9a9054610b7c565b90565b610ba5610b70565b50610bb06002610b90565b90565b5f90565b610bbf610bb3565b507f000000000000000000000000000000000000000000000000000000000000000090565b91610c0e92610bf1610b4a565b50610c06610bfd611c02565b82908491611ef2565b91909161215f565b600190565b610c2490610c1f61231e565b610cef565b610c2c61238b565b565b90565b610c45610c40610c4a92610c2e565b610806565b610289565b90565b610c5690610809565b90565b610c6290610c4d565b90565b610c6e90610825565b90565b610c7a90610825565b90565b60e01b90565b90505190610c908261028c565b565b90602082820312610cab57610ca8915f01610c83565b90565b61019c565b610cb8610192565b3d5f823e3d90fd5b610cc990610825565b90565b916020610ced929493610ce660408201965f830190610339565b0190610339565b565b80610d02610cfc5f610c31565b91610289565b14610eab57610d103361144d565b610d22610d1c83610289565b91610289565b10610e8f5780610d906020610d5e610d597f0000000000000000000000000000000000000000000000000000000000000000610c59565b610c65565b6370a0823190610d85610d7030610c71565b92610d79610192565b95869485938493610c7d565b83526004830161039d565b03915afa908115610e8a575f91610e5c575b50610db5610daf83610289565b91610289565b10610e4057610dc53383906124ef565b610df9610df17f0000000000000000000000000000000000000000000000000000000000000000610c59565b33839161262b565b339091610e267f92ccf450a286a957af52509bc1c9939d1a6a481783e142e41e2499f0bb66ebc692610cc0565b92610e3b610e32610192565b92839283610ccc565b0390a2565b5f63bb55fd2760e01b815280610e5860048201610475565b0390fd5b610e7d915060203d8111610e83575b610e758183610adf565b810190610c92565b5f610da2565b503d610e6b565b610cb0565b5f63bb55fd2760e01b815280610ea760048201610475565b0390fd5b5f63162908e360e11b815280610ec360048201610475565b0390fd5b610ed090610c13565b565b5f90565b90565b610eed610ee8610ef292610ed6565b610806565b6104ad565b90565b610efd610ed2565b50610f086012610ed9565b90565b610f13610bb3565b507f000000000000000000000000000000000000000000000000000000000000000090565b634e487b7160e01b5f52601160045260245ffd5b610f5b610f6191939293610289565b92610289565b8201809211610f6c57565b610f38565b610fa191610f7d610b4a565b50610f9b610f89611c02565b91610f9683948094611ba5565b610f4c565b91611db4565b600190565b610fb2610fb791610b74565b61092f565b90565b610fc49054610fa6565b90565b9033610fe4610fde610fd96006610fba565b61025a565b9161025a565b03610ff457610ff291611010565b565b5f635990781360e01b81528061100c60048201610475565b0390fd5b906110229161101d61231e565b611083565b61102a61238b565b565b60409061105561105c949695939661104b60608401985f850190610339565b6020830190610390565b0190610390565b565b61106d61107391939293610289565b92610289565b820391821161107e57565b610f38565b6110e360206110b17f0000000000000000000000000000000000000000000000000000000000000000610831565b6370a08231906110d86110c330610c71565b926110cc610192565b95869485938493610c7d565b83526004830161039d565b03915afa908115611426575f916113f8575b50908061110a6111045f610c31565b91610289565b145f146113f35750805b90816111286111225f610c31565b91610289565b149081156113d7575b506113bb5761119e602061116c6111677f0000000000000000000000000000000000000000000000000000000000000000610c59565b610c65565b6370a082319061119361117e30610c71565b92611187610192565b95869485938493610c7d565b83526004830161039d565b03915afa9081156113b6575f91611388575b506111da7f0000000000000000000000000000000000000000000000000000000000000000610831565b90602063ba0876529284906112135f6111f230610c71565b9661121e6111ff30610c71565b611207610192565b998a9788968795610c7d565b85526004850161102c565b03925af19182156113835761129892611357575b5060206112666112617f0000000000000000000000000000000000000000000000000000000000000000610c59565b610c65565b6370a082319061128d61127830610c71565b92611281610192565b96879485938493610c7d565b83526004830161039d565b03915afa8015611352576112b3925f91611324575b5061105e565b916112c76112c18492610289565b91610289565b1061130857907f8680a71cfa86428ce43ebbc95f68bf763d38694cae4a4dd81178ebbb8fffba78916113036112fa610192565b92839283610ccc565b0390a1565b5f63bb55fd2760e01b81528061132060048201610475565b0390fd5b611345915060203d811161134b575b61133d8183610adf565b810190610c92565b5f6112ad565b503d611333565b610cb0565b6113779060203d811161137c575b61136f8183610adf565b810190610c92565b611232565b503d611365565b610cb0565b6113a9915060203d81116113af575b6113a18183610adf565b810190610c92565b5f6111b0565b503d611397565b610cb0565b5f63162908e360e11b8152806113d360048201610475565b0390fd5b90506113ec6113e68392610289565b91610289565b115f611131565b611114565b611419915060203d811161141f575b6114118183610adf565b810190610c92565b5f6110f5565b503d611407565b610cb0565b9061143591610fc7565b565b9061144190610cc0565b5f5260205260405f2090565b6114636114689161145c610b70565b505f611437565b610b90565b90565b3361149e6114987f000000000000000000000000000000000000000000000000000000000000000061025a565b9161025a565b036114ae576114ac90611535565b565b5f635fc483c560e01b8152806114c660048201610475565b0390fd5b6114de6114d96114e392610c2e565b610806565b61024f565b90565b6114ef906114ca565b90565b5f1b90565b9061150860018060a01b03916114f2565b9181191691161790565b90565b9061152a61152561153192610cc0565b611512565b82546114f7565b9055565b8061155061154a6115455f6114e6565b61025a565b9161025a565b146115a257611560816006611515565b61158a7f1304018cfe79741dcf02ba6b61d39cc4757d59395d03224d9925c7aa8300214691610cc0565b90611593610192565b8061159d81610475565b0390a2565b5f63162908e360e11b8152806115ba60048201610475565b0390fd5b6115c79061146b565b565b6115d16109dd565b506115dc6004610b28565b90565b60207f207a65726f000000000000000000000000000000000000000000000000000000917f45524332303a2064656372656173656420616c6c6f77616e63652062656c6f775f8201520152565b61163960256040926101b3565b611642816115df565b0190565b61165b9060208101905f81830391015261162c565b90565b1561166557565b61166d610192565b62461bcd60e51b81528061168360048201611646565b0390fd5b906116929103610289565b90565b6116e4916116a1610b4a565b506116de6116ad611c02565b916116b9838590611ba5565b926116d7846116d06116ca85610289565b91610289565b101561165e565b9392611687565b91611db4565b600190565b611706916116f5610b4a565b506116fe611c02565b91909161215f565b600190565b61171c9061171761231e565b611726565b61172461238b565b565b806117396117335f610c31565b91610289565b146117cf5761177c61176a7f0000000000000000000000000000000000000000000000000000000000000000610c59565b3361177430610c71565b9084926126a8565b80611788338390612779565b3390916117b57f73a19dd210f1a7f902193214c0ee91dd35ee5b4d920cba8d519eca65a7b488ca92610cc0565b926117ca6117c1610192565b92839283610ccc565b0390a2565b5f63162908e360e11b8152806117e760048201610475565b0390fd5b6117f49061170b565b565b903361181361180d6118086006610fba565b61025a565b9161025a565b03611823576118219161183f565b565b5f635990781360e01b81528061183b60048201610475565b0390fd5b906118519161184c61231e565b61187e565b61185961238b565b565b91602061187c92949361187560408201965f830190610339565b0190610390565b565b6118e660206118b46118af7f0000000000000000000000000000000000000000000000000000000000000000610c59565b610c65565b6370a08231906118db6118c630610c71565b926118cf610192565b95869485938493610c7d565b83526004830161039d565b03915afa908115611b7e575f91611b50575b50908061190d6119075f610c31565b91610289565b145f14611b4b5750805b908161192b6119255f610c31565b91610289565b14908115611b2f575b50611b135761199d6119657f0000000000000000000000000000000000000000000000000000000000000000610c59565b61198e7f0000000000000000000000000000000000000000000000000000000000000000610831565b6119975f610c31565b91612913565b6119f96119c97f0000000000000000000000000000000000000000000000000000000000000000610c59565b6119f27f0000000000000000000000000000000000000000000000000000000000000000610831565b8391612913565b611a227f0000000000000000000000000000000000000000000000000000000000000000610831565b6020636e553f65918390611a515f611a3930610c71565b95611a5c611a45610192565b97889687958694610c7d565b84526004840161185b565b03925af1908115611b0e575f91611ae0575b5091611a83611a7d8492610289565b91610289565b10611ac457907fb99956c8203b7677de254bac7df707c62197037d108739a8702bb91ee3e492c991611abf611ab6610192565b92839283610ccc565b0390a1565b5f63bb55fd2760e01b815280611adc60048201610475565b0390fd5b611b01915060203d8111611b07575b611af98183610adf565b810190610c92565b5f611a6e565b503d611aef565b610cb0565b5f63162908e360e11b815280611b2b60048201610475565b0390fd5b9050611b44611b3e8392610289565b91610289565b115f611934565b611917565b611b71915060203d8111611b77575b611b698183610adf565b810190610c92565b5f6118f8565b503d611b5f565b610cb0565b90611b8d916117f6565b565b90611b9990610cc0565b5f5260205260405f2090565b611bca91611bc0611bc592611bb8610b70565b506001611b8f565b611437565b610b90565b90565b611bd5610bb3565b50611bff7f0000000000000000000000000000000000000000000000000000000000000000610831565b90565b611c0a610bb3565b503390565b60207f7265737300000000000000000000000000000000000000000000000000000000917f45524332303a20617070726f76652066726f6d20746865207a65726f206164645f8201520152565b611c6960246040926101b3565b611c7281611c0f565b0190565b611c8b9060208101905f818303910152611c5c565b90565b15611c9557565b611c9d610192565b62461bcd60e51b815280611cb360048201611c76565b0390fd5b60207f7373000000000000000000000000000000000000000000000000000000000000917f45524332303a20617070726f766520746f20746865207a65726f2061646472655f8201520152565b611d1160226040926101b3565b611d1a81611cb7565b0190565b611d339060208101905f818303910152611d04565b90565b15611d3d57565b611d45610192565b62461bcd60e51b815280611d5b60048201611d1e565b0390fd5b90611d6b5f19916114f2565b9181191691161790565b611d89611d84611d8e92610289565b610806565b610289565b90565b90565b90611da9611da4611db092611d75565b611d91565b8254611d5f565b9055565b919091611ddc81611dd5611dcf611dca5f6114e6565b61025a565b9161025a565b1415611c8e565b611e0183611dfa611df4611def5f6114e6565b61025a565b9161025a565b1415611d36565b611e2082611e1b611e1460018590611b8f565b8690611437565b611d94565b919091611e6b611e59611e537f8c5be1e5ebec7d5bd14f71427d1e84f3dd0314c0f7b2291e5b200ac8c7c3b92593610cc0565b93610cc0565b93611e62610192565b91829182610346565b0390a3565b5f7f45524332303a20696e73756666696369656e7420616c6c6f77616e6365000000910152565b611ea4601d6020926101b3565b611ead81611e70565b0190565b611ec69060208101905f818303910152611e97565b90565b15611ed057565b611ed8610192565b62461bcd60e51b815280611eee60048201611eb1565b0390fd5b611efd818390611ba5565b9081611f12611f0c5f19610289565b91610289565b03611f1e575b50505050565b611f5093611f4a91611f4384611f3c611f3685610289565b91610289565b1015611ec9565b9392611687565b91611db4565b5f808080611f18565b60207f6472657373000000000000000000000000000000000000000000000000000000917f45524332303a207472616e736665722066726f6d20746865207a65726f2061645f8201520152565b611fb360256040926101b3565b611fbc81611f59565b0190565b611fd59060208101905f818303910152611fa6565b90565b15611fdf57565b611fe7610192565b62461bcd60e51b815280611ffd60048201611fc0565b0390fd5b60207f6573730000000000000000000000000000000000000000000000000000000000917f45524332303a207472616e7366657220746f20746865207a65726f20616464725f8201520152565b61205b60236040926101b3565b61206481612001565b0190565b61207d9060208101905f81830391015261204e565b90565b1561208757565b61208f610192565b62461bcd60e51b8152806120a560048201612068565b0390fd5b60207f616c616e63650000000000000000000000000000000000000000000000000000917f45524332303a207472616e7366657220616d6f756e74206578636565647320625f8201520152565b61210360266040926101b3565b61210c816120a9565b0190565b6121259060208101905f8183039101526120f6565b90565b1561212f57565b612137610192565b62461bcd60e51b81528061214d60048201612110565b0390fd5b9061215c9101610289565b90565b9190916121878161218061217a6121755f6114e6565b61025a565b9161025a565b1415611fd8565b6121ac836121a561219f61219a5f6114e6565b61025a565b9161025a565b1415612080565b6121f96121e96121c56121c05f8590611437565b610b90565b6121e2816121db6121d588610289565b91610289565b1015612128565b8490611687565b6121f45f8490611437565b611d94565b6122208261221a61220b5f8790611437565b9161221583610b90565b612151565b90611d94565b91909161226b6122596122537fddf252ad1be2c89b69c2b068fc378daa952ba7f163c4a11628f55a4df523b3ef93610cc0565b93610cc0565b93612262610192565b91829182610346565b0390a3565b90565b61228761228261228c92612270565b610806565b610289565b90565b6122996002612273565b90565b5f7f5265656e7472616e637947756172643a207265656e7472616e742063616c6c00910152565b6122d0601f6020926101b3565b6122d98161229c565b0190565b6122f29060208101905f8183039101526122c3565b90565b156122fc57565b612304610192565b62461bcd60e51b81528061231a600482016122dd565b0390fd5b61234b61232b6005610b90565b61234461233e61233961228f565b610289565b91610289565b14156122f5565b61235d61235661228f565b6005611d94565b565b90565b61237661237161237b9261235f565b610806565b610289565b90565b6123886001612362565b90565b61239d61239661237e565b6005611d94565b565b60207f7300000000000000000000000000000000000000000000000000000000000000917f45524332303a206275726e2066726f6d20746865207a65726f206164647265735f8201520152565b6123f960216040926101b3565b6124028161239f565b0190565b61241b9060208101905f8183039101526123ec565b90565b1561242557565b61242d610192565b62461bcd60e51b81528061244360048201612406565b0390fd5b60207f6365000000000000000000000000000000000000000000000000000000000000917f45524332303a206275726e20616d6f756e7420657863656564732062616c616e5f8201520152565b6124a160226040926101b3565b6124aa81612447565b0190565b6124c39060208101905f818303910152612494565b90565b156124cd57565b6124d5610192565b62461bcd60e51b8152806124eb600482016124ae565b0390fd5b6125148161250d6125076125025f6114e6565b61025a565b9161025a565b141561241e565b61256161255161252d6125285f8590611437565b610b90565b61254a8161254361253d88610289565b91610289565b10156124c6565b8490611687565b61255c5f8490611437565b611d94565b61257e612577836125726002610b90565b611687565b6002611d94565b906125885f6114e6565b90916125d26125c06125ba7fddf252ad1be2c89b69c2b068fc378daa952ba7f163c4a11628f55a4df523b3ef93610cc0565b93610cc0565b936125c9610192565b91829182610346565b0390a3565b63ffffffff1690565b63ffffffff60e01b1690565b6126006125fb612605926125d7565b610c7d565b6125e0565b90565b91602061262992949361262260408201965f830190610390565b0190610339565b565b9161266f600492612660612674959361264763a9059cbb6125ec565b92612650610192565b9687946020860190815201612608565b60208201810382520383610adf565b612bc6565b565b60409061269f6126a6949695939661269560608401985f850190610390565b6020830190610390565b0190610339565b565b6126f593916126e16004946126f093946126c56323b872dd6125ec565b939190916126d1610192565b9788956020870190815201612676565b60208201810382520383610adf565b612bc6565b565b5f7f45524332303a206d696e7420746f20746865207a65726f206164647265737300910152565b61272b601f6020926101b3565b612734816126f7565b0190565b61274d9060208101905f81830391015261271e565b90565b1561275757565b61275f610192565b62461bcd60e51b81528061277560048201612738565b0390fd5b9061279f8261279861279261278d5f6114e6565b61025a565b9161025a565b1415612750565b6127bc6127b5826127b06002610b90565b610f4c565b6002611d94565b6127e3816127dd6127ce5f8690611437565b916127d883610b90565b612151565b90611d94565b6127ec5f6114e6565b91909161283761282561281f7fddf252ad1be2c89b69c2b068fc378daa952ba7f163c4a11628f55a4df523b3ef93610cc0565b93610cc0565b9361282e610192565b91829182610346565b0390a3565b61284590610825565b90565b91602061286992949361286260408201965f830190610390565b0190610390565b565b60207f20746f206e6f6e2d7a65726f20616c6c6f77616e636500000000000000000000917f5361666545524332303a20617070726f76652066726f6d206e6f6e2d7a65726f5f8201520152565b6128c560366040926101b3565b6128ce8161286b565b0190565b6128e79060208101905f8183039101526128b8565b90565b156128f157565b6128f9610192565b62461bcd60e51b81528061290f600482016128d2565b0390fd5b919091816129296129235f610c31565b91610289565b148015612985575b6129839361296f6004949361294861297e946128ea565b9361295663095ea7b36125ec565b9261295f610192565b9687946020860190815201612608565b60208201810382520383610adf565b612bc6565b565b509061299082610c65565b602063dd62ed3e916129a13061283c565b906129be87946129c96129b2610192565b96879586948594610c7d565b845260048401612848565b03915afa938415612a3c5761296f6004946129486129839761297e955f91612a0e575b506129ff6129f95f610c31565b91610289565b14945050939450509350612931565b612a2f915060203d8111612a35575b612a278183610adf565b810190610c92565b5f6129ec565b503d612a1d565b610cb0565b90612a54612a4d610192565b9283610adf565b565b60018060401b038111612a7257612a6e6020916101c7565b0190565b610acb565b90612a89612a8483612a56565b612a41565b918252565b5f7f5361666545524332303a206c6f772d6c6576656c2063616c6c206661696c6564910152565b612abf6020612a77565b90612acc60208301612a8e565b565b612ad6612ab5565b90565b5190565b612ae6816102dc565b03612aed57565b5f80fd5b90505190612afe82612add565b565b90602082820312612b1957612b16915f01612af1565b90565b61019c565b60207f6f74207375636365656400000000000000000000000000000000000000000000917f5361666545524332303a204552433230206f7065726174696f6e20646964206e5f8201520152565b612b78602a6040926101b3565b612b8181612b1e565b0190565b612b9a9060208101905f818303910152612b6b565b90565b15612ba457565b612bac610192565b62461bcd60e51b815280612bc260048201612b85565b0390fd5b612c0f91612bd6612be592610c65565b90612bdf612ace565b91612c37565b612bee81612ad9565b612c00612bfa5f610c31565b91610289565b14908115612c11575b50612b9d565b565b612c2c91506020612c2182612ad9565b818301019101612b00565b5f612c09565b606090565b90612c569291612c45612c32565b5090612c505f610c31565b91612d6e565b90565b612c6290610825565b90565b60207f722063616c6c0000000000000000000000000000000000000000000000000000917f416464726573733a20696e73756666696369656e742062616c616e636520666f5f8201520152565b612cbf60266040926101b3565b612cc881612c65565b0190565b612ce19060208101905f818303910152612cb2565b90565b15612ceb57565b612cf3610192565b62461bcd60e51b815280612d0960048201612ccc565b0390fd5b60018060401b038111612d2957612d256020916101c7565b0190565b610acb565b90612d40612d3b83612d0d565b612a41565b918252565b3d5f14612d6057612d553d612d2e565b903d5f602084013e5b565b612d68612c32565b90612d5e565b915f8091612dc49593612d7f612c32565b50612da6612d8c30612c59565b31612d9f612d9985610289565b91610289565b1015612ce4565b8591602082019151925af191612dba612d45565b9092909192612e49565b90565b5f7f416464726573733a2063616c6c20746f206e6f6e2d636f6e7472616374000000910152565b612dfb601d6020926101b3565b612e0481612dc7565b0190565b612e1d9060208101905f818303910152612dee565b90565b15612e2757565b612e2f610192565b62461bcd60e51b815280612e4560048201612e08565b0390fd5b919290612e54612c32565b505f14612e985750612e6582612ad9565b612e77612e715f610c31565b91610289565b14612e81575b5090565b612e8d612e9291612eea565b612e20565b5f612e7d565b8290612ea382612ad9565b612eb5612eaf5f610c31565b91610289565b115f14612ec55750805190602001fd5b612ee690612ed1610192565b91829162461bcd60e51b835260048301610202565b0390fd5b612ef2610b4a565b503b612f06612f005f610c31565b91610289565b119056fea26469706673582212202938f8a6bc7270f37847e44d12fcbbc054a9ce89bbc09c5ae9e3fbd5285b323164736f6c634300081c0033","linkReferences":{}},"methodIdentifiers":{"allowance(address,address)":"dd62ed3e","approve(address,uint256)":"095ea7b3","asset()":"38d52e0f","balanceOf(address)":"70a08231","controller()":"f77c4791","decimals()":"313ce567","decreaseAllowance(address,uint256)":"a457c2d7","deposit(uint256)":"b6b55f25","divest(uint256,uint256)":"4696c749","increaseAllowance(address,uint256)":"39509351","invest(uint256,uint256)":"d87aa643","name()":"06fdde03","owner()":"8da5cb5b","setController(address)":"92eefe9b","symbol()":"95d89b41","totalSupply()":"18160ddd","transfer(address,uint256)":"a9059cbb","transferFrom(address,address,uint256)":"23b872dd","underlyingVault()":"c26af9d8","usdc()":"3e413bee","vault()":"fbfa77cf","want()":"1f1fcd51","withdraw(uint256)":"2e1a7d4d"},"id":142}