{"abi":[{"type":"function","name":"DOMAIN_SEPARATOR","inputs":[],"outputs":[{"name":"","type":"bytes32","internalType":"bytes32"}],"stateMutability":"view"},{"type":"function","name":"allowance","inputs":[{"name":"owner","type":"address","internalType":"address"},{"name":"spender","type":"address","internalType":"address"}],"outputs":[{"name":"","type":"uint256","internalType":"uint256"}],"stateMutability":"view"},{"type":"function","name":"approve","inputs":[{"name":"spender","type":"address","internalType":"address"},{"name":"amount","type":"uint256","internalType":"uint256"}],"outputs":[{"name":"","type":"bool","internalType":"bool"}],"stateMutability":"nonpayable"},{"type":"function","name":"balanceOf","inputs":[{"name":"account","type":"address","internalType":"address"}],"outputs":[{"name":"","type":"uint256","internalType":"uint256"}],"stateMutability":"view"},{"type":"function","name":"balances","inputs":[],"outputs":[{"name":"amount0","type":"uint256","internalType":"uint256"},{"name":"amount1","type":"uint256","internalType":"uint256"}],"stateMutability":"view"},{"type":"function","name":"decimals","inputs":[],"outputs":[{"name":"","type":"uint8","internalType":"uint8"}],"stateMutability":"view"},{"type":"function","name":"decreaseAllowance","inputs":[{"name":"spender","type":"address","internalType":"address"},{"name":"subtractedValue","type":"uint256","internalType":"uint256"}],"outputs":[{"name":"","type":"bool","internalType":"bool"}],"stateMutability":"nonpayable"},{"type":"function","name":"deposit","inputs":[{"name":"_amount0","type":"uint256","internalType":"uint256"},{"name":"_amount1","type":"uint256","internalType":"uint256"},{"name":"_minShares","type":"uint256","internalType":"uint256"}],"outputs":[],"stateMutability":"nonpayable"},{"type":"function","name":"eip712Domain","inputs":[],"outputs":[{"name":"fields","type":"bytes1","internalType":"bytes1"},{"name":"name","type":"string","internalType":"string"},{"name":"version","type":"string","internalType":"string"},{"name":"chainId","type":"uint256","internalType":"uint256"},{"name":"verifyingContract","type":"address","internalType":"address"},{"name":"salt","type":"bytes32","internalType":"bytes32"},{"name":"extensions","type":"uint256[]","internalType":"uint256[]"}],"stateMutability":"view"},{"type":"function","name":"inCaseTokensGetStuck","inputs":[{"name":"_token","type":"address","internalType":"address"}],"outputs":[],"stateMutability":"nonpayable"},{"type":"function","name":"increaseAllowance","inputs":[{"name":"spender","type":"address","internalType":"address"},{"name":"addedValue","type":"uint256","internalType":"uint256"}],"outputs":[{"name":"","type":"bool","internalType":"bool"}],"stateMutability":"nonpayable"},{"type":"function","name":"initialize","inputs":[{"name":"_strategy","type":"address","internalType":"address"},{"name":"_name","type":"string","internalType":"string"},{"name":"_symbol","type":"string","internalType":"string"}],"outputs":[],"stateMutability":"nonpayable"},{"type":"function","name":"isCalm","inputs":[],"outputs":[{"name":"","type":"bool","internalType":"bool"}],"stateMutability":"view"},{"type":"function","name":"name","inputs":[],"outputs":[{"name":"","type":"string","internalType":"string"}],"stateMutability":"view"},{"type":"function","name":"nonces","inputs":[{"name":"owner","type":"address","internalType":"address"}],"outputs":[{"name":"","type":"uint256","internalType":"uint256"}],"stateMutability":"view"},{"type":"function","name":"owner","inputs":[],"outputs":[{"name":"","type":"address","internalType":"address"}],"stateMutability":"view"},{"type":"function","name":"permit","inputs":[{"name":"owner","type":"address","internalType":"address"},{"name":"spender","type":"address","internalType":"address"},{"name":"value","type":"uint256","internalType":"uint256"},{"name":"deadline","type":"uint256","internalType":"uint256"},{"name":"v","type":"uint8","internalType":"uint8"},{"name":"r","type":"bytes32","internalType":"bytes32"},{"name":"s","type":"bytes32","internalType":"bytes32"}],"outputs":[],"stateMutability":"nonpayable"},{"type":"function","name":"previewDeposit","inputs":[{"name":"_amount0","type":"uint256","internalType":"uint256"},{"name":"_amount1","type":"uint256","internalType":"uint256"}],"outputs":[{"name":"shares","type":"uint256","internalType":"uint256"},{"name":"amount0","type":"uint256","internalType":"uint256"},{"name":"amount1","type":"uint256","internalType":"uint256"},{"name":"fee0","type":"uint256","internalType":"uint256"},{"name":"fee1","type":"uint256","internalType":"uint256"}],"stateMutability":"view"},{"type":"function","name":"previewWithdraw","inputs":[{"name":"_shares","type":"uint256","internalType":"uint256"}],"outputs":[{"name":"amount0","type":"uint256","internalType":"uint256"},{"name":"amount1","type":"uint256","internalType":"uint256"}],"stateMutability":"view"},{"type":"function","name":"renounceOwnership","inputs":[],"outputs":[],"stateMutability":"nonpayable"},{"type":"function","name":"strategy","inputs":[],"outputs":[{"name":"","type":"address","internalType":"contract IStrategyConcLiq"}],"stateMutability":"view"},{"type":"function","name":"swapFee","inputs":[],"outputs":[{"name":"","type":"uint256","internalType":"uint256"}],"stateMutability":"view"},{"type":"function","name":"symbol","inputs":[],"outputs":[{"name":"","type":"string","internalType":"string"}],"stateMutability":"view"},{"type":"function","name":"totalSupply","inputs":[],"outputs":[{"name":"","type":"uint256","internalType":"uint256"}],"stateMutability":"view"},{"type":"function","name":"transfer","inputs":[{"name":"to","type":"address","internalType":"address"},{"name":"amount","type":"uint256","internalType":"uint256"}],"outputs":[{"name":"","type":"bool","internalType":"bool"}],"stateMutability":"nonpayable"},{"type":"function","name":"transferFrom","inputs":[{"name":"from","type":"address","internalType":"address"},{"name":"to","type":"address","internalType":"address"},{"name":"amount","type":"uint256","internalType":"uint256"}],"outputs":[{"name":"","type":"bool","internalType":"bool"}],"stateMutability":"nonpayable"},{"type":"function","name":"transferOwnership","inputs":[{"name":"newOwner","type":"address","internalType":"address"}],"outputs":[],"stateMutability":"nonpayable"},{"type":"function","name":"want","inputs":[],"outputs":[{"name":"_want","type":"address","internalType":"address"}],"stateMutability":"view"},{"type":"function","name":"wants","inputs":[],"outputs":[{"name":"token0","type":"address","internalType":"address"},{"name":"token1","type":"address","internalType":"address"}],"stateMutability":"view"},{"type":"function","name":"withdraw","inputs":[{"name":"_shares","type":"uint256","internalType":"uint256"},{"name":"_minAmount0","type":"uint256","internalType":"uint256"},{"name":"_minAmount1","type":"uint256","internalType":"uint256"}],"outputs":[],"stateMutability":"nonpayable"},{"type":"function","name":"withdrawAll","inputs":[{"name":"_minAmount0","type":"uint256","internalType":"uint256"},{"name":"_minAmount1","type":"uint256","internalType":"uint256"}],"outputs":[],"stateMutability":"nonpayable"},{"type":"event","name":"Approval","inputs":[{"name":"owner","type":"address","indexed":true,"internalType":"address"},{"name":"spender","type":"address","indexed":true,"internalType":"address"},{"name":"value","type":"uint256","indexed":false,"internalType":"uint256"}],"anonymous":false},{"type":"event","name":"Deposit","inputs":[{"name":"user","type":"address","indexed":true,"internalType":"address"},{"name":"shares","type":"uint256","indexed":false,"internalType":"uint256"},{"name":"amount0","type":"uint256","indexed":false,"internalType":"uint256"},{"name":"amount1","type":"uint256","indexed":false,"internalType":"uint256"},{"name":"fee0","type":"uint256","indexed":false,"internalType":"uint256"},{"name":"fee1","type":"uint256","indexed":false,"internalType":"uint256"}],"anonymous":false},{"type":"event","name":"EIP712DomainChanged","inputs":[],"anonymous":false},{"type":"event","name":"Initialized","inputs":[{"name":"version","type":"uint8","indexed":false,"internalType":"uint8"}],"anonymous":false},{"type":"event","name":"OwnershipTransferred","inputs":[{"name":"previousOwner","type":"address","indexed":true,"internalType":"address"},{"name":"newOwner","type":"address","indexed":true,"internalType":"address"}],"anonymous":false},{"type":"event","name":"Transfer","inputs":[{"name":"from","type":"address","indexed":true,"internalType":"address"},{"name":"to","type":"address","indexed":true,"internalType":"address"},{"name":"value","type":"uint256","indexed":false,"internalType":"uint256"}],"anonymous":false},{"type":"event","name":"Withdraw","inputs":[{"name":"user","type":"address","indexed":true,"internalType":"address"},{"name":"shares","type":"uint256","indexed":false,"internalType":"uint256"},{"name":"amount0","type":"uint256","indexed":false,"internalType":"uint256"},{"name":"amount1","type":"uint256","indexed":false,"internalType":"uint256"}],"anonymous":false},{"type":"error","name":"NoShares","inputs":[]},{"type":"error","name":"NotEnoughTokens","inputs":[]},{"type":"error","name":"TooMuchSlippage","inputs":[]}],"bytecode":{"object":"0x60808060405234601557612d8d908161001a8239f35b5f80fdfe6080806040526004361015610012575f80fd5b5f905f3560e01c908162aeef8a146115665750806306fdde03146114d2578063095ea7b3146114ab5780630a28a4771461146c57806318160ddd1461144e5780631f1fcd51146113c657806323b872dd14611304578063313ce567146112e85780633644e515146112cd578063395093511461127d57806354cf2aeb1461125a578063658449341461122757806370a08231146111ee578063715018a6146111a45780637a7af70d14610fbf5780637aff49d714610f9a5780637bb98a6814610f735780637ecebe0014610f3a57806384b0196e14610e2a5780638da5cb5b14610e01578063906571471461071757806395d89b41146106435780639bdde46b146105b8578063a41fe49f146105a0578063a457c2d7146104fd578063a8c62e76146104d3578063a9059cbb146104a1578063d505accf146102ff578063dd62ed3e146102ac578063def68a9c146102055763f2fde38b14610172575f80fd5b346102025760203660031901126102025761018b611a2c565b610193612767565b6001600160a01b038116156101ae576101ab906127bf565b80f35b60405162461bcd60e51b815260206004820152602660248201527f4f776e61626c653a206e6577206f776e657220697320746865207a65726f206160448201526564647265737360d01b6064820152608490fd5b80fd5b50346102025760203660031901126102025761021f611a2c565b610227612767565b6040516370a0823160e01b8152306004820152906001600160a01b0316602082602481845afa9081156102a1578391610267575b6101ab92503390612854565b90506020823d602011610299575b8161028260209383611abf565b81010312610295576101ab91519061025b565b5f80fd5b3d9150610275565b6040513d85823e3d90fd5b50346102025760403660031901126102025760406102c8611a2c565b916102d1611a42565b9260018060a01b031681526034602052209060018060a01b03165f52602052602060405f2054604051908152f35b50346102025760e036600319011261020257610319611a2c565b610321611a42565b6044359060643560843560ff8116810361049d57814211610458576103f46103fc9160018060a01b03871693848952609960205260408920908154916001830190556040519060208201927f6e71edae12b1b97f4d1f60370fef10105fa2faae0126114a169c64845d6126c9845287604084015260018060a01b038916606084015289608084015260a083015260c082015260c081526103c260e082611abf565b5190206103cd61299e565b906040519161190160f01b83526002830152602282015260c43591604260a4359220612a05565b919091612a76565b6001600160a01b031603610413576101ab926124fd565b60405162461bcd60e51b815260206004820152601e60248201527f45524332305065726d69743a20696e76616c6964207369676e617475726500006044820152606490fd5b60405162461bcd60e51b815260206004820152601d60248201527f45524332305065726d69743a206578706972656420646561646c696e650000006044820152606490fd5b8580fd5b5034610202576040366003190112610202576104c86104be611a2c565b6024359033612601565b602060405160018152f35b5034610202578060031936011261020257610130546040516001600160a01b039091168152602090f35b503461020257604036600319011261020257610517611a2c565b60406024359233815260346020522060018060a01b0382165f5260205260405f20549180831061054d576104c8920390336124fd565b60405162461bcd60e51b815260206004820152602560248201527f45524332303a2064656372656173656420616c6c6f77616e63652062656c6f77604482015264207a65726f60d81b6064820152608490fd5b5034610202576101ab6105b2366119ee565b91611eab565b503461020257806003193601126102025761013054604051639bdde46b60e01b815290602090829060049082906001600160a01b03165afa908115610638576020929161060b575b506040519015158152f35b61062b9150823d8411610631575b6106238183611abf565b810190611e93565b5f610600565b503d610619565b6040513d84823e3d90fd5b503461020257806003193601126102025760405190806037549061066682611b55565b80855291600181169081156106f057506001146106a6575b6106a28461068e81860382611abf565b604051918291602083526020830190611a08565b0390f35b603781525f516020612d385f395f51905f52939250905b8082106106d65750909150810160200161068e8261067e565b9192600181602092548385880101520191019092916106bd565b60ff191660208087019190915292151560051b8501909201925061068e915083905061067e565b503461020257606036600319011261020257610731611a2c565b906024356001600160401b038111610dfd57610751903690600401611a92565b92906044356001600160401b038111610df957610772903690600401611a92565b8454600881901c60ff161596928780610dec575b8015610dd5575b15610d795760ff19821660011787556107ba9188610d68575b506107b2368587611e5d565b923691611e5d565b906107d460ff875460081c166107cf816127f4565b6127f4565b8051906001600160401b038211610d545781906107f2603654611b55565b601f8111610cf9575b50602090601f8311600114610c95578892610c8a575b50508160011b915f199060031b1c1916176036555b8051906001600160401b038211610c7657610842603754611b55565b601f8111610c26575b50602090601f8311600114610bbd5761088594939291879183610bb2575b50508160011b915f199060031b1c1916176037555b3691611e5d565b9260ff835460081c1693610898856127f4565b6108bd604051956108aa604088611abf565b60018752603160f81b60208801526127f4565b8051906001600160401b038211610b9e5781906108db606754611b55565b601f8111610b43575b50602090601f8311600114610adf578692610ad4575b50508160011b915f199060031b1c1916176067555b83516001600160401b038111610ac05761092a606854611b55565b601f8111610a70575b50602094601f8211600114610a0d579484958293949592610a02575b50508160011b915f199060031b1c1916176068555b826065558260665561098060ff845460081c166107cf816127f4565b610989336127bf565b82549161099f60ff8460081c166107cf816127f4565b600160fe5561013080546001600160a01b0319166001600160a01b03929092169190911790556109cd575080f35b61ff00191681557f7f26b83ff96e1f2b6a682f133852f6798a09c465da95921460cefb3847402498602060405160018152a180f35b015190505f8061094f565b601f198216956068865280862091865b888110610a5857508360019596979810610a40575b505050811b01606855610964565b01515f1960f88460031b161c191690555f8080610a32565b91926020600181928685015181550194019201610a1d565b606885525f516020612cf85f395f51905f52601f830160051c81019160208410610ab6575b601f0160051c01905b818110610aab5750610933565b858155600101610a9e565b9091508190610a95565b634e487b7160e01b84526041600452602484fd5b015190505f806108fa565b606787528187209250601f198416875b818110610b2b5750908460019594939210610b13575b505050811b0160675561090f565b01515f1960f88460031b161c191690555f8080610b05565b92936020600181928786015181550195019301610aef565b606787529091505f516020612cb85f395f51905f52601f840160051c81019160208510610b94575b90601f859493920160051c01905b818110610b8657506108e4565b878155849350600101610b79565b9091508190610b6b565b634e487b7160e01b85526041600452602485fd5b015190505f80610869565b603787528187209190601f198416885b818110610c0e57509160019391856108859897969410610bf6575b505050811b0160375561087e565b01515f1960f88460031b161c191690555f8080610be8565b92936020600181928786015181550195019301610bcd565b603787525f516020612d385f395f51905f52601f840160051c81019160208510610c6c575b601f0160051c01905b818110610c61575061084b565b878155600101610c54565b9091508190610c4b565b634e487b7160e01b86526041600452602486fd5b015190505f80610811565b603689528189209250601f198416895b818110610ce15750908460019594939210610cc9575b505050811b01603655610826565b01515f1960f88460031b161c191690555f8080610cbb565b92936020600181928786015181550195019301610ca5565b603689529091505f516020612c985f395f51905f52601f840160051c81019160208510610d4a575b90601f859493920160051c01905b818110610d3c57506107fb565b898155849350600101610d2f565b9091508190610d21565b634e487b7160e01b87526041600452602487fd5b61ffff19166101011787555f6107a6565b60405162461bcd60e51b815260206004820152602e60248201527f496e697469616c697a61626c653a20636f6e747261637420697320616c72656160448201526d191e481a5b9a5d1a585b1a5e995960921b6064820152608490fd5b50303b15801561078d5750600160ff83161461078d565b50600160ff831610610786565b8380fd5b5080fd5b503461020257806003193601126102025760cc546040516001600160a01b039091168152602090f35b50346102025780600319360112610202576065541580610f30575b15610ef357610e9790610e56611b8d565b90610e5f611c31565b906020610ea560405193610e738386611abf565b8385525f368137604051968796600f60f81b885260e08589015260e0880190611a08565b908682036040880152611a08565b904660608601523060808601528260a086015284820360c08601528080855193848152019401925b828110610edc57505050500390f35b835185528695509381019392810192600101610ecd565b60405162461bcd60e51b81526020600482015260156024820152741152540dcc4c8e88155b9a5b9a5d1a585b1a5e9959605a1b6044820152606490fd5b5060665415610e45565b5034610202576020366003190112610202576020906040906001600160a01b03610f62611a2c565b168152609983522054604051908152f35b50346102025780600319360112610202576040610f8e611dd3565b82519182526020820152f35b5034610202576101ab610fac36611a58565b9033845260336020526040842054611eab565b5034610202576004610fd036611a58565b6101305460405163501ad8ff60e11b81529294929360209185919082906001600160a01b03165afa928315610638578293611170575b5061100f611dd3565b949091611028838761101f611cd2565b9184868a61213b565b969298919790956035549485159687611165575b505061107561104b898b611af6565b8b61106e856110698c6a0c097ce7bc90715b34b9f160241b94611af6565b611b17565b0490611b48565b9561112e57906110698761108893611b48565b6a0c097ce7bc90715b34b9f160241b8101929083811161111a576ec097ce7bc90715b34b9f0fffffffff0192831161110657506110f8926110ed879695936110d66106a2996110f395611b48565b906a0c097ce7bc90715b34b9f160241b9004611b48565b92611b17565b611b2a565b935b60405195869586611a6e565b634e487b7160e01b81526011600452602490fd5b634e487b7160e01b82526011600452602482fd5b505050959493929190506103e7198101908111611151579394506106a2926110fa565b634e487b7160e01b86526011600452602486fd5b915092505f8061103c565b9092506020813d60201161119c575b8161118c60209383611abf565b810103126102955751915f611006565b3d915061117f565b50346102025780600319360112610202576111bd612767565b60cc80546001600160a01b0319811690915581906001600160a01b03165f516020612cd85f395f51905f528280a380f35b5034610202576020366003190112610202576020906040906001600160a01b03611216611a2c565b168152603383522054604051908152f35b50346102025780600319360112610202576040611242611d39565b82516001600160a01b03928316815291166020820152f35b50346102025780600319360112610202576020611275611cd2565b604051908152f35b5034610202576040366003190112610202576104c890604061129d611a2c565b9133815260346020522060018060a01b0382165f526020526112c660405f206024359054611b48565b90336124fd565b5034610202578060031936011261020257602061127561299e565b5034610202578060031936011261020257602060405160128152f35b50346102025760603660031901126102025761131e611a2c565b90611327611a42565b6001600160a01b038316825260346020908152604092839020335f9081529152919091205491604435919060018401611365575b6104c89350612601565b8284106113815761137c836104c8950333836124fd565b61135b565b60405162461bcd60e51b815260206004820152601d60248201527f45524332303a20696e73756666696369656e7420616c6c6f77616e63650000006044820152606490fd5b5034610202578060031936011261020257610130546040516316f0115b60e01b815290602090829060049082906001600160a01b03165afa9081156106385760209291611421575b506040516001600160a01b039091168152f35b6114419150823d8411611447575b6114398183611abf565b810190611cb3565b5f61140e565b503d61142f565b50346102025780600319360112610202576020603554604051908152f35b50346102025760203660031901126102025760406114a5610f8e6004356110f381611495611dd3565b95906110f3603554958692611b17565b94611b17565b5034610202576040366003190112610202576104c86114c8611a2c565b60243590336124fd565b50346102025780600319360112610202576040519080603654906114f582611b55565b80855291600181169081156106f0575060011461151c576106a28461068e81860382611abf565b603681525f516020612c985f395f51905f52939250905b80821061154c5750909150810160200161068e8261067e565b919260018160209254838588010152019101909291611533565b90503461029557611576366119ee565b92600260fe93929354146119ac5750600260fe55611592611d39565b61013054919290916001600160a01b0316803b15610295575f8091600460405180948193630beebd3960e11b83525af180156119a15761198c575b506115d6611dd3565b909260018060a01b036101305416956040519563501ad8ff60e11b87526020876004818b5afa968715611981578a9761194d575b50611620611616611cd2565b858885898c61213b565b9a919490978311908115611943575b50611934579087959493929181611918575b505050806118f5575b50506116688161166261165b611dd3565b9790611af6565b95611af6565b6101305490959089906001600160a01b0316803b15610dfd57818091600460405180948193630d0e30db60e41b83525af18015610638576118dc575b5050836116d16116b48989611af6565b6a0c097ce7bc90715b34b9f160241b61106e85611069868c611af6565b60355490811561185657916116ed611069926116f39594611b17565b95611b48565b6a0c097ce7bc90715b34b9f160241b81019190828111611842576ec097ce7bc90715b34b9f0fffffffff0191821161182e5761173d92916110d68861173793611b48565b90611b2a565b945b851061181f5784156118105733156117cb577ff943cf10ef4d1e3239f4716ddecdf546e8ba8ab0e41deafd9a71a99936827e45936117c09161178387603554611b48565b603555338852603360205260408820878154019055604051878152885f516020612d185f395f51905f5260203393a3604051948594339886611a6e565b0390a2600160fe5580f35b60405162461bcd60e51b815260206004820152601f60248201527f45524332303a206d696e7420746f20746865207a65726f2061646472657373006044820152606490fd5b63b317087b60e01b8652600486fd5b63fa6ad35560e01b8652600486fd5b634e487b7160e01b89526011600452602489fd5b634e487b7160e01b8a52601160045260248afd5b9450505050506103e71981019081116118c857946035546103e881018091116118b45760355561dead87526033602052604087206103e8815401905561dead875f516020612d185f395f51905f5260206040516103e88152a361173f565b634e487b7160e01b88526011600452602488fd5b634e487b7160e01b87526011600452602487fd5b816118e691611abf565b6118f157885f6116a4565b8880fd5b61013054611911926001600160a01b03918216913391166124b4565b5f8061164a565b61192c9233906001600160a01b03166124b4565b5f8080611641565b6308aeed0f60e21b8c5260048cfd5b905084115f61162f565b9096506020813d602011611979575b8161196960209383611abf565b810103126102955751955f61160a565b3d915061195c565b6040513d8c823e3d90fd5b6119999196505f90611abf565b5f945f6115cd565b6040513d5f823e3d90fd5b62461bcd60e51b815260206004820152601f60248201527f5265656e7472616e637947756172643a207265656e7472616e742063616c6c006044820152606490fd5b606090600319011261029557600435906024359060443590565b805180835260209291819084018484015e5f828201840152601f01601f1916010190565b600435906001600160a01b038216820361029557565b602435906001600160a01b038216820361029557565b6040906003190112610295576004359060243590565b9192608093969594919660a084019784526020840152604083015260608201520152565b9181601f84011215610295578235916001600160401b038311610295576020838186019501011161029557565b601f909101601f19168101906001600160401b03821190821017611ae257604052565b634e487b7160e01b5f52604160045260245ffd5b91908203918211611b0357565b634e487b7160e01b5f52601160045260245ffd5b81810292918115918404141715611b0357565b8115611b34570490565b634e487b7160e01b5f52601260045260245ffd5b91908201809211611b0357565b90600182811c92168015611b83575b6020831014611b6f57565b634e487b7160e01b5f52602260045260245ffd5b91607f1691611b64565b604051905f8260675491611ba083611b55565b8083529260018116908115611c125750600114611bc6575b611bc492500383611abf565b565b5060675f90815290915f516020612cb85f395f51905f525b818310611bf6575050906020611bc492820101611bb8565b6020919350806001915483858901015201910190918492611bde565b60209250611bc494915060ff191682840152151560051b820101611bb8565b604051905f8260685491611c4483611b55565b8083529260018116908115611c125750600114611c6757611bc492500383611abf565b5060685f90815290915f516020612cf85f395f51905f525b818310611c97575050906020611bc492820101611bb8565b6020919350806001915483858901015201910190918492611c7f565b9081602091031261029557516001600160a01b03811681036102955790565b610130546040516354cf2aeb60e01b815290602090829060049082906001600160a01b03165afa9081156119a1575f91611d0a575090565b90506020813d602011611d31575b81611d2560209383611abf565b81010312610295575190565b3d9150611d18565b6101305460405163017b859f60e61b81526001600160a01b039091169190602081600481865afa9081156119a1576004916020915f91611db6575b5093604051928380926343bab15b60e11b82525afa9081156119a1575f91611d9a575090565b611db3915060203d602011611447576114398183611abf565b90565b611dcd9150823d8411611447576114398183611abf565b5f611d74565b6101305460408051630f77314d60e31b815291829060049082906001600160a01b03165afa80156119a1575f915f91611e0b57509091565b9150506040813d604011611e3a575b81611e2760409383611abf565b8101031261029557602081519101519091565b3d9150611e1a565b6001600160401b038111611ae257601f01601f191660200190565b929192611e6982611e42565b91611e776040519384611abf565b829481845281830111610295578281602093845f960137010152565b90816020910312610295575180151581036102955790565b915f831561212c57610130546001600160a01b0316803b15610295575f8091600460405180948193630beebd3960e11b83525af180156119a157612119575b506035549133156120ca573382526033602052604082205485811061207a57859384611f609233865260336020520360408520558460355403603555836040518681525f516020612d185f395f51905f5260203392a36110f385611f5a836110f3611f53611dd3565b9a90611b17565b96611b17565b610130549094906001600160a01b0316803b15610df957838091604460405180948193630441a3e760e41b83528a60048401528b60248401525af1801561206f57908491612056575b5050831090811561204c575b50801561203b575b61202c5750611ff48282611fe4611fd2611d39565b929033906001600160a01b0316612854565b33906001600160a01b0316612854565b604051928352602083015260408201527f02f25270a4d87bea75db541cdfe559334a275b4a233520ed6c0a2429667cca9460603392a2565b63fa6ad35560e01b8152600490fd5b5081158015611fbd57508215611fbd565b905083105f611fb5565b8161206091611abf565b61206b57825f611fa9565b8280fd5b6040513d86823e3d90fd5b60405162461bcd60e51b815260206004820152602260248201527f45524332303a206275726e20616d6f756e7420657863656564732062616c616e604482015261636560f01b6064820152608490fd5b60405162461bcd60e51b815260206004820152602160248201527f45524332303a206275726e2066726f6d20746865207a65726f206164647265736044820152607360f81b6064820152608490fd5b61212591505f90611abf565b5f5f611eea565b63b317087b60e01b5f5260045ffd5b93959290959491945f945f928015806124ac575b61249f5761216c826a0c097ce7bc90715b34b9f160241b92611b17565b0492838310156122d65750826121828884611b48565b11156122d05761219b836121968985611b48565b611af6565b6a0c097ce7bc90715b34b9f160241b8181029180159083049091141715611b0357816121c691611b2a565b888111156122c7576121f56a0c097ce7bc90715b34b9f160241b6121ee846110698d86611af6565b0489611af6565b975b6122018486611af6565b8110156122b657925b6a0c097ce7bc90715b34b9f160241b85810291908683041486151715611b035761224c8591612246612251946122408888611b17565b90611b48565b97611b48565b611b48565b946001600160ff1b0382168203611b03576122a56122b295611737670de0b6b3a7640000986122ab9561106e6a0c097ce7bc90715b34b9f160241b986a0c097ce7bc90715b34b9f160241b9260011b611b17565b90611b17565b0490611b17565b0490565b506122c18385611af6565b9261220a565b975087876121f7565b5f6121c6565b96979694955090806123016a0c097ce7bc90715b34b9f160241b6122fa858b611b17565b0485611b48565b11156124985761232e816121966a0c097ce7bc90715b34b9f160241b612327868c611b17565b0486611b48565b905b8882111561248d576123428983611af6565b6a0c097ce7bc90715b34b9f160241b8181029180159083049091141715611b03576123708461237692611b2a565b89611af6565b98975b6123838583611af6565b6a0c097ce7bc90715b34b9f160241b8181029180159083049091141715611b0357846123ae91611b2a565b81101561245157925b6123c18383611b48565b6a0c097ce7bc90715b34b9f160241b808202969180159088049091141715611b035761240b926123f091611b48565b906a0c097ce7bc90715b34b9f160241b9061106e9086611b17565b926001600160ff1b0382168203611b0357670de0b6b3a7640000946122a56122ab9261173761244d976a0c097ce7bc90715b34b9f160241b9660011b90611b48565b0491565b5061245c8482611af6565b6a0c097ce7bc90715b34b9f160241b8181029180159083049091141715611b03578361248791611b2a565b926123b7565b975086978197612379565b5f90612330565b505f955085949350505050565b50821561214f565b6040516323b872dd60e01b60208201526001600160a01b039283166024820152929091166044830152606480830193909352918152611bc4916124f8608483611abf565b61288f565b6001600160a01b03169081156125b0576001600160a01b03169182156125605760207f8c5be1e5ebec7d5bd14f71427d1e84f3dd0314c0f7b2291e5b200ac8c7c3b92591835f526034825260405f20855f5282528060405f2055604051908152a3565b60405162461bcd60e51b815260206004820152602260248201527f45524332303a20617070726f766520746f20746865207a65726f206164647265604482015261737360f01b6064820152608490fd5b60405162461bcd60e51b8152602060048201526024808201527f45524332303a20617070726f76652066726f6d20746865207a65726f206164646044820152637265737360e01b6064820152608490fd5b6001600160a01b0316908115612714576001600160a01b03169182156126c357815f52603360205260405f205481811061266f57815f516020612d185f395f51905f5292602092855f52603384520360405f2055845f526033825260405f20818154019055604051908152a3565b60405162461bcd60e51b815260206004820152602660248201527f45524332303a207472616e7366657220616d6f756e7420657863656564732062604482015265616c616e636560d01b6064820152608490fd5b60405162461bcd60e51b815260206004820152602360248201527f45524332303a207472616e7366657220746f20746865207a65726f206164647260448201526265737360e81b6064820152608490fd5b60405162461bcd60e51b815260206004820152602560248201527f45524332303a207472616e736665722066726f6d20746865207a65726f206164604482015264647265737360d81b6064820152608490fd5b60cc546001600160a01b0316330361277b57565b606460405162461bcd60e51b815260206004820152602060248201527f4f776e61626c653a2063616c6c6572206973206e6f7420746865206f776e65726044820152fd5b60cc80546001600160a01b039283166001600160a01b0319821681179092559091165f516020612cd85f395f51905f525f80a3565b156127fb57565b60405162461bcd60e51b815260206004820152602b60248201527f496e697469616c697a61626c653a20636f6e7472616374206973206e6f74206960448201526a6e697469616c697a696e6760a81b6064820152608490fd5b60405163a9059cbb60e01b60208201526001600160a01b039092166024830152604480830193909352918152611bc4916124f8606483611abf565b9061290e9160018060a01b03165f80604051936128ad604086611abf565b602085527f5361666545524332303a206c6f772d6c6576656c2063616c6c206661696c6564602086015260208151910182855af13d15612996573d916128f283611e42565b926129006040519485611abf565b83523d5f602085013e612bfa565b805190811591821561297c575b50501561292457565b60405162461bcd60e51b815260206004820152602a60248201527f5361666545524332303a204552433230206f7065726174696f6e20646964206e6044820152691bdd081cdd58d8d9595960b21b6064820152608490fd5b61298f9250602080918301019101611e93565b5f8061291b565b606091612bfa565b6129a6612b89565b6129ae612bd4565b6040519060208201927f8b73c3c69bb8fe3d512ecc4cf759cc79239f7b179b0ffacaa9a75d522b39400f8452604083015260608201524660808201523060a082015260a081526129ff60c082611abf565b51902090565b6fa2a8918ca85bafe22016d0b997e4df60600160ff1b038411612a6b576020935f9360ff60809460405194855216868401526040830152606082015282805260015afa156119a1575f516001600160a01b03811615612a6357905f90565b505f90600190565b505050505f90600390565b6005811015612b755780612a875750565b60018103612acf5760405162461bcd60e51b815260206004820152601860248201527745434453413a20696e76616c6964207369676e617475726560401b6044820152606490fd5b60028103612b1c5760405162461bcd60e51b815260206004820152601f60248201527f45434453413a20696e76616c6964207369676e6174757265206c656e677468006044820152606490fd5b600314612b2557565b60405162461bcd60e51b815260206004820152602260248201527f45434453413a20696e76616c6964207369676e6174757265202773272076616c604482015261756560f01b6064820152608490fd5b634e487b7160e01b5f52602160045260245ffd5b612b91611b8d565b8051908115612ba1576020012090565b50506065548015612baf5790565b507fc5d2460186f7233c927e7db2dcc703c0e500b653ca82273b7bfad8045d85a47090565b612bdc611c31565b8051908115612bec576020012090565b50506066548015612baf5790565b91929015612c5c5750815115612c0e575090565b3b15612c175790565b60405162461bcd60e51b815260206004820152601d60248201527f416464726573733a2063616c6c20746f206e6f6e2d636f6e74726163740000006044820152606490fd5b825190915015612c6f5750805190602001fd5b60405162461bcd60e51b815260206004820152908190612c93906024830190611a08565b0390fdfe4a11f94e20a93c79f6ec743a1954ec4fc2c08429ae2122118bf234b2185c81b89787eeb91fe3101235e4a76063c7023ecb40f923f97916639c598592fa30d6ae8be0079c531659141344cd1fd0a4f28419497f9722a3daafe3b4186f6b6457e0a2153420d844928b4421650203c77babc8b33d7f2e7b450e2966db0c22097753ddf252ad1be2c89b69c2b068fc378daa952ba7f163c4a11628f55a4df523b3ef42a7b7dd785cd69714a189dffb3fd7d7174edc9ece837694ce50f7078f7c31aea26469706673582212206dc9cf1e047a5efba5499765c93337e1ecbe8feecc98c472ba369b2636dccbdb64736f6c634300081c0033","linkReferences":{}},"methodIdentifiers":{"DOMAIN_SEPARATOR()":"3644e515","allowance(address,address)":"dd62ed3e","approve(address,uint256)":"095ea7b3","balanceOf(address)":"70a08231","balances()":"7bb98a68","decimals()":"313ce567","decreaseAllowance(address,uint256)":"a457c2d7","deposit(uint256,uint256,uint256)":"00aeef8a","eip712Domain()":"84b0196e","inCaseTokensGetStuck(address)":"def68a9c","increaseAllowance(address,uint256)":"39509351","initialize(address,string,string)":"90657147","isCalm()":"9bdde46b","name()":"06fdde03","nonces(address)":"7ecebe00","owner()":"8da5cb5b","permit(address,address,uint256,uint256,uint8,bytes32,bytes32)":"d505accf","previewDeposit(uint256,uint256)":"7a7af70d","previewWithdraw(uint256)":"0a28a477","renounceOwnership()":"715018a6","strategy()":"a8c62e76","swapFee()":"54cf2aeb","symbol()":"95d89b41","totalSupply()":"18160ddd","transfer(address,uint256)":"a9059cbb","transferFrom(address,address,uint256)":"23b872dd","transferOwnership(address)":"f2fde38b","want()":"1f1fcd51","wants()":"65844934","withdraw(uint256,uint256,uint256)":"a41fe49f","withdrawAll(uint256,uint256)":"7aff49d7"},"id":129}