{"abi":[{"type":"constructor","inputs":[{"name":"_keeper","type":"address","internalType":"address"},{"name":"_totalLimit","type":"uint256","internalType":"uint256"}],"stateMutability":"nonpayable"},{"type":"function","name":"getFeeCategory","inputs":[{"name":"_id","type":"uint256","internalType":"uint256"},{"name":"_adjust","type":"bool","internalType":"bool"}],"outputs":[{"name":"fees","type":"tuple","internalType":"struct BeefyFeeConfigurator.FeeCategory","components":[{"name":"total","type":"uint256","internalType":"uint256"},{"name":"beefy","type":"uint256","internalType":"uint256"},{"name":"call","type":"uint256","internalType":"uint256"},{"name":"strategist","type":"uint256","internalType":"uint256"},{"name":"label","type":"string","internalType":"string"},{"name":"active","type":"bool","internalType":"bool"}]}],"stateMutability":"view"},{"type":"function","name":"getFees","inputs":[{"name":"_strategy","type":"address","internalType":"address"},{"name":"_adjust","type":"bool","internalType":"bool"}],"outputs":[{"name":"","type":"tuple","internalType":"struct BeefyFeeConfigurator.FeeCategory","components":[{"name":"total","type":"uint256","internalType":"uint256"},{"name":"beefy","type":"uint256","internalType":"uint256"},{"name":"call","type":"uint256","internalType":"uint256"},{"name":"strategist","type":"uint256","internalType":"uint256"},{"name":"label","type":"string","internalType":"string"},{"name":"active","type":"bool","internalType":"bool"}]}],"stateMutability":"view"},{"type":"function","name":"getFees","inputs":[{"name":"_strategy","type":"address","internalType":"address"}],"outputs":[{"name":"","type":"tuple","internalType":"struct BeefyFeeConfigurator.FeeCategory","components":[{"name":"total","type":"uint256","internalType":"uint256"},{"name":"beefy","type":"uint256","internalType":"uint256"},{"name":"call","type":"uint256","internalType":"uint256"},{"name":"strategist","type":"uint256","internalType":"uint256"},{"name":"label","type":"string","internalType":"string"},{"name":"active","type":"bool","internalType":"bool"}]}],"stateMutability":"view"},{"type":"function","name":"keeper","inputs":[],"outputs":[{"name":"","type":"address","internalType":"address"}],"stateMutability":"view"},{"type":"function","name":"owner","inputs":[],"outputs":[{"name":"","type":"address","internalType":"address"}],"stateMutability":"view"},{"type":"function","name":"pause","inputs":[{"name":"_id","type":"uint256","internalType":"uint256"}],"outputs":[],"stateMutability":"nonpayable"},{"type":"function","name":"renounceOwnership","inputs":[],"outputs":[],"stateMutability":"nonpayable"},{"type":"function","name":"setFeeCategory","inputs":[{"name":"_id","type":"uint256","internalType":"uint256"},{"name":"_total","type":"uint256","internalType":"uint256"},{"name":"_call","type":"uint256","internalType":"uint256"},{"name":"_strategist","type":"uint256","internalType":"uint256"},{"name":"_label","type":"string","internalType":"string"},{"name":"_active","type":"bool","internalType":"bool"},{"name":"_adjust","type":"bool","internalType":"bool"}],"outputs":[],"stateMutability":"nonpayable"},{"type":"function","name":"setKeeper","inputs":[{"name":"_keeper","type":"address","internalType":"address"}],"outputs":[],"stateMutability":"nonpayable"},{"type":"function","name":"setStratFeeId","inputs":[{"name":"_strategies","type":"address[]","internalType":"address[]"},{"name":"_feeIds","type":"uint256[]","internalType":"uint256[]"}],"outputs":[],"stateMutability":"nonpayable"},{"type":"function","name":"setStratFeeId","inputs":[{"name":"_feeId","type":"uint256","internalType":"uint256"}],"outputs":[],"stateMutability":"nonpayable"},{"type":"function","name":"setStratFeeId","inputs":[{"name":"_strategy","type":"address","internalType":"address"},{"name":"_feeId","type":"uint256","internalType":"uint256"}],"outputs":[],"stateMutability":"nonpayable"},{"type":"function","name":"stratFeeId","inputs":[{"name":"","type":"address","internalType":"address"}],"outputs":[{"name":"","type":"uint256","internalType":"uint256"}],"stateMutability":"view"},{"type":"function","name":"totalLimit","inputs":[],"outputs":[{"name":"","type":"uint256","internalType":"uint256"}],"stateMutability":"view"},{"type":"function","name":"transferOwnership","inputs":[{"name":"newOwner","type":"address","internalType":"address"}],"outputs":[],"stateMutability":"nonpayable"},{"type":"function","name":"unpause","inputs":[{"name":"_id","type":"uint256","internalType":"uint256"}],"outputs":[],"stateMutability":"nonpayable"},{"type":"event","name":"OwnershipTransferred","inputs":[{"name":"previousOwner","type":"address","indexed":true,"internalType":"address"},{"name":"newOwner","type":"address","indexed":true,"internalType":"address"}],"anonymous":false},{"type":"event","name":"Pause","inputs":[{"name":"id","type":"uint256","indexed":true,"internalType":"uint256"}],"anonymous":false},{"type":"event","name":"SetFeeCategory","inputs":[{"name":"id","type":"uint256","indexed":true,"internalType":"uint256"},{"name":"total","type":"uint256","indexed":false,"internalType":"uint256"},{"name":"beefy","type":"uint256","indexed":false,"internalType":"uint256"},{"name":"call","type":"uint256","indexed":false,"internalType":"uint256"},{"name":"strategist","type":"uint256","indexed":false,"internalType":"uint256"},{"name":"label","type":"string","indexed":false,"internalType":"string"},{"name":"active","type":"bool","indexed":false,"internalType":"bool"}],"anonymous":false},{"type":"event","name":"SetKeeper","inputs":[{"name":"keeper","type":"address","indexed":true,"internalType":"address"}],"anonymous":false},{"type":"event","name":"SetStratFeeId","inputs":[{"name":"strategy","type":"address","indexed":true,"internalType":"address"},{"name":"id","type":"uint256","indexed":true,"internalType":"uint256"}],"anonymous":false},{"type":"event","name":"Unpause","inputs":[{"name":"id","type":"uint256","indexed":true,"internalType":"uint256"}],"anonymous":false}],"bytecode":{"object":"0x60806040523461032357604051601f61134d38819003918201601f19168301916001600160401b0383118484101761030f5780849260409485528339810103126103235780516001600160a01b038116919082900361032357602001519061006633610327565b61006f33610327565b600180546001600160a01b03191691909117905560025560405160c081016001600160401b0381118282101761030f576040525f8152602081015f815260408201915f8352606081015f8152604051936040850185811060018060401b0382111761030f576040526004808652634e6f6e6560e01b60208088019190915260808501968752600160a086019081525f805291905292517f17ef568e3e12ab5b9c7254a8d58478811de00f9e6eb34345acd53bf8fd09d3ec90815593517f17ef568e3e12ab5b9c7254a8d58478811de00f9e6eb34345acd53bf8fd09d3ed55517f17ef568e3e12ab5b9c7254a8d58478811de00f9e6eb34345acd53bf8fd09d3ee55517f17ef568e3e12ab5b9c7254a8d58478811de00f9e6eb34345acd53bf8fd09d3ef5591518051909291907f17ef568e3e12ab5b9c7254a8d58478811de00f9e6eb34345acd53bf8fd09d3f0906001600160401b03811161030f578154600181811c91168015610305575b60208210146102f157601f81116102ac575b506020601f8211600114610247578190600595965f9261023c575b50508160011b915f199060031b1c19161790555b019051151560ff80198354169116179055604051610fdf908161036e8239f35b015190505f80610208565b601f19821695835f52815f20965f5b818110610294575091600596979184600195941061027c575b505050811b01905561021c565b01515f1960f88460031b161c191690555f808061026f565b83830151895560019098019760209384019301610256565b825f5260205f20601f830160051c810191602084106102e7575b601f0160051c01905b8181106102dc57506101ed565b5f81556001016102cf565b90915081906102c6565b634e487b7160e01b5f52602260045260245ffd5b90607f16906101db565b634e487b7160e01b5f52604160045260245ffd5b5f80fd5b5f80546001600160a01b039283166001600160a01b03198216811783559216907f8be0079c531659141344cd1fd0a4f28419497f9722a3daafe3b4186f6b6457e09080a356fe60806040526004361015610011575f80fd5b5f3560e01c806306fced9a14610b2e5780630fbc3994146109c1578063136439dd146109405780633e55f932146109235780634d7c76e514610565578063715018a614610521578063748747e6146104925780638da5cb5b1461046b5780639af608c914610310578063a36298c7146102f3578063a537633c146102bc578063aced166114610294578063cf1046221461025c578063e1bcdad914610204578063f2fde38b146101515763fabc1cbc146100c9575f80fd5b3461014d57602036600319011261014d5760043560018060a01b035f541633148015610139575b6100f990610c99565b805f526004602052600560405f2001600160ff198254161790557faaa520fdd7d2c83061d632fa017b0432407e798818af63ea908589fceda39ab75f80a2005b506001546001600160a01b031633146100f0565b5f80fd5b3461014d57602036600319011261014d5761016a610b7b565b610172610f12565b6001600160a01b031680156101b0575f80546001600160a01b03198116831782556001600160a01b0316905f516020610f8a5f395f51905f529080a3005b60405162461bcd60e51b815260206004820152602660248201527f4f776e61626c653a206e6577206f776e657220697320746865207a65726f206160448201526564647265737360d01b6064820152608490fd5b3461014d57604036600319011261014d57610246610220610b7b565b5f546001600160a01b031633148015610248575b61023d90610c99565b60243590610ed3565b005b506001546001600160a01b03163314610234565b3461014d57602036600319011261014d576001600160a01b0361027d610b7b565b165f526003602052602060405f2054604051908152f35b3461014d575f36600319011261014d576001546040516001600160a01b039091168152602090f35b3461014d57604036600319011261014d576102ef6102e36102db610b91565b600435610d61565b60405191829182610bc4565b0390f35b3461014d575f36600319011261014d576020600254604051908152f35b3461014d57602036600319011261014d57610329610b7b565b610331610c68565b506001600160a01b03165f90815260036020526040902054610351610c68565b50805f52600460205260ff600560405f200154165f14610464575b5f52600460205260405f2060405161038381610c13565b8154815260018201546020820152600282015460408201526003820154606082015260048201604051905f908054906103bb82610d29565b808552916001811690811561043f5750600114610404575b6102ef8560ff600589886103e9818a0382610c2e565b6080850152015416151560a082015260405191829182610bc4565b5f908152602081209092505b818310610425575050810160200183826103d3565b600181602092949394548385880101520191019190610410565b60ff191660208087019190915292151560051b850190920192508591508390506103d3565b505f61036c565b3461014d575f36600319011261014d575f546040516001600160a01b039091168152602090f35b3461014d57602036600319011261014d576104ab610b7b565b5f546001600160a01b03163314801561050d575b6104c890610c99565b600180546001600160a01b0319166001600160a01b039290921691821790557fefb5cfa1a8690c124332ab93324539c5c9c4be03f28aeb8be86f2d8a0c9fb99b5f80a2005b506001546001600160a01b031633146104bf565b3461014d575f36600319011261014d57610539610f12565b5f80546001600160a01b0319811682556001600160a01b03165f516020610f8a5f395f51905f528280a3005b3461014d5760e036600319011261014d576084356004356044356024356064356001600160401b03851161014d573660238601121561014d5760048501356001600160401b03811161084157604051956105c9601f8301601f191660200188610c2e565b818752366024838301011161014d57815f92602460209301838a01378701015260a4359081151580920361014d5760c43593841515850361014d5761060c610f12565b81819560025486116108f057610871575b50508084018085116108555780670de0b6b3a7640000115f146108695784670de0b6b3a76400000390670de0b6b3a7640000821161085557670de0b6b3a76400000390811161085557935b60405161067481610c13565b8481526020810190868252604081018381526060820185815260808301918b835260a08401948886528b5f52600460205260405f209451855551600185015551600284015551600383015560048201905180519060018060401b038211610841576106df8354610d29565b601f81116107fc575b50602090601f831160011461077f5792826005935f516020610f6a5f395f51905f529d9e9896936107699a98965f92610774575b50508160011b915f199060031b1c19161790555b019051151560ff80198354169116179055604051968796875260208701526040860152606085015260c0608085015260c0840190610ba0565b9060a08301520390a2005b015190508f8061071c565b90601f19831691845f52815f20925f5b8181106107e45750935f516020610f6a5f395f51905f529d9e9896936107699a98969360019383600598106107cc575b505050811b019055610730565b01515f1960f88460031b161c191690558f80806107bf565b9293602060018192878601518155019501930161078f565b835f5260205f20601f840160051c81019160208510610837575b601f0160051c01905b81811061082c57506106e8565b5f815560010161081f565b9091508190610816565b634e487b7160e01b5f52604160045260245ffd5b634e487b7160e01b5f52601160045260245ffd5b505f93610668565b84159550915084156108c057505f5b931561089057505f5b868061061d565b670de0b6b3a7640000810290808204670de0b6b3a7640000149015171561085557826108bb91610d0b565b610889565b670de0b6b3a7640000810290808204670de0b6b3a7640000149015171561085557836108eb91610d0b565b610880565b60405162461bcd60e51b815260206004820152600b60248201526a0f9d1bdd185b131a5b5a5d60aa1b6044820152606490fd5b3461014d57602036600319011261014d5761024660043533610ed3565b3461014d57602036600319011261014d5760043560018060a01b035f5416331480156109ad575b61097090610c99565b805f526004602052600560405f200160ff1981541690557f68b095021b1f40fe513109f513c66692f0b3219aee674a69f4efc57badb8201d5f80a2005b506001546001600160a01b03163314610967565b3461014d57604036600319011261014d576004356001600160401b03811161014d573660238201121561014d5780600401356109fc81610c51565b91610a0a6040519384610c2e565b8183526024602084019260051b8201019036821161014d57602401915b818310610b0e57602435846001600160401b03821161014d573660238301121561014d57816004013591610a5a83610c51565b92610a686040519485610c2e565b8084526024602085019160051b8301019136831161014d57602401905b828210610afe5750505060018060a01b035f541633148015610aea575b610aab90610c99565b8051905f5b828110610ab957005b600190610ae46001600160a01b03610ad18386610cd0565b5116610add8388610cd0565b5190610ed3565b01610ab0565b506001546001600160a01b03163314610aa2565b8135815260209182019101610a85565b82356001600160a01b038116810361014d57815260209283019201610a27565b3461014d57604036600319011261014d576102ef6102e3610b4d610b7b565b610b55610b91565b90610b5e610c68565b506001600160a01b03165f90815260036020526040902054610d61565b600435906001600160a01b038216820361014d57565b60243590811515820361014d57565b805180835260209291819084018484015e5f828201840152601f01601f1916010190565b602081528151602082015260208201516040820152604082015160608201526060820151608082015260c060a0610c086080850151838386015260e0850190610ba0565b930151151591015290565b60c081019081106001600160401b0382111761084157604052565b601f909101601f19168101906001600160401b0382119082101761084157604052565b6001600160401b0381116108415760051b60200190565b60405190610c7582610c13565b5f60a083828152826020820152826040820152826060820152606060808201520152565b15610ca057565b60405162461bcd60e51b815260206004820152600860248201526710b6b0b730b3b2b960c11b6044820152606490fd5b8051821015610ce45760209160051b010190565b634e487b7160e01b5f52603260045260245ffd5b8181029291811591840414171561085557565b8115610d15570490565b634e487b7160e01b5f52601260045260245ffd5b90600182811c92168015610d57575b6020831014610d4357565b634e487b7160e01b5f52602260045260245ffd5b91607f1691610d38565b919091610d6c610c68565b50805f52600460205260ff600560405f200154165f14610ecc575b5f52600460205260405f20604051610d9e81610c13565b8154815260018201549060208101918252600283015491604082019283526003840154936060830194855260048101604051905f90805490610ddf82610d29565b8085529160018116908115610ea55750600114610e68575b50509181610e0b60059360ff950382610c2e565b6080860152015416151560a08301528195610e27575b50505050565b670de0b6b3a764000092610e5c92519184610e43848351610cf8565b04905283610e52838351610cf8565b0490528351610cf8565b0490525f808080610e21565b5f908152602081209092505b818310610e8b575050810160200181610e0b610df7565b600181602092949394548385880101520191019190610e74565b60ff191660208087019190915292151560051b85019092019250839150610e0b9050610df7565b505f610d87565b6001600160a01b03165f8181526003602052604081208390557f055b48a7f28272213f8d2dea6936149129fe08c4874c4a8e434d82e4f272e8489080a3565b5f546001600160a01b03163303610f2557565b606460405162461bcd60e51b815260206004820152602060248201527f4f776e61626c653a2063616c6c6572206973206e6f7420746865206f776e65726044820152fdfe8bd32089ef8cf666951ba8557b00491743a2b2cb9697111f360a4f19390fe7e18be0079c531659141344cd1fd0a4f28419497f9722a3daafe3b4186f6b6457e0a2646970667358221220ac16ff0b1d7303e4af15fb461dd60a5b9f03b0a8aa666966e0cce14a06f58ce964736f6c634300081c0033","linkReferences":{}},"methodIdentifiers":{"getFeeCategory(uint256,bool)":"a537633c","getFees(address)":"9af608c9","getFees(address,bool)":"06fced9a","keeper()":"aced1661","owner()":"8da5cb5b","pause(uint256)":"136439dd","renounceOwnership()":"715018a6","setFeeCategory(uint256,uint256,uint256,uint256,string,bool,bool)":"4d7c76e5","setKeeper(address)":"748747e6","setStratFeeId(address,uint256)":"e1bcdad9","setStratFeeId(address[],uint256[])":"0fbc3994","setStratFeeId(uint256)":"3e55f932","stratFeeId(address)":"cf104622","totalLimit()":"a36298c7","transferOwnership(address)":"f2fde38b","unpause(uint256)":"fabc1cbc"},"id":3}