{"abi":[{"type":"constructor","inputs":[{"name":"_keeper","type":"address","internalType":"address"},{"name":"_totalLimit","type":"uint256","internalType":"uint256"}],"stateMutability":"nonpayable"},{"type":"function","name":"getFeeCategory","inputs":[{"name":"_id","type":"uint256","internalType":"uint256"},{"name":"_adjust","type":"bool","internalType":"bool"}],"outputs":[{"name":"fees","type":"tuple","internalType":"struct BeefyFeeConfigurator.FeeCategory","components":[{"name":"total","type":"uint256","internalType":"uint256"},{"name":"beefy","type":"uint256","internalType":"uint256"},{"name":"call","type":"uint256","internalType":"uint256"},{"name":"strategist","type":"uint256","internalType":"uint256"},{"name":"label","type":"string","internalType":"string"},{"name":"active","type":"bool","internalType":"bool"}]}],"stateMutability":"view"},{"type":"function","name":"getFees","inputs":[{"name":"_strategy","type":"address","internalType":"address"},{"name":"_adjust","type":"bool","internalType":"bool"}],"outputs":[{"name":"","type":"tuple","internalType":"struct BeefyFeeConfigurator.FeeCategory","components":[{"name":"total","type":"uint256","internalType":"uint256"},{"name":"beefy","type":"uint256","internalType":"uint256"},{"name":"call","type":"uint256","internalType":"uint256"},{"name":"strategist","type":"uint256","internalType":"uint256"},{"name":"label","type":"string","internalType":"string"},{"name":"active","type":"bool","internalType":"bool"}]}],"stateMutability":"view"},{"type":"function","name":"getFees","inputs":[{"name":"_strategy","type":"address","internalType":"address"}],"outputs":[{"name":"","type":"tuple","internalType":"struct BeefyFeeConfigurator.FeeCategory","components":[{"name":"total","type":"uint256","internalType":"uint256"},{"name":"beefy","type":"uint256","internalType":"uint256"},{"name":"call","type":"uint256","internalType":"uint256"},{"name":"strategist","type":"uint256","internalType":"uint256"},{"name":"label","type":"string","internalType":"string"},{"name":"active","type":"bool","internalType":"bool"}]}],"stateMutability":"view"},{"type":"function","name":"keeper","inputs":[],"outputs":[{"name":"","type":"address","internalType":"address"}],"stateMutability":"view"},{"type":"function","name":"owner","inputs":[],"outputs":[{"name":"","type":"address","internalType":"address"}],"stateMutability":"view"},{"type":"function","name":"pause","inputs":[{"name":"_id","type":"uint256","internalType":"uint256"}],"outputs":[],"stateMutability":"nonpayable"},{"type":"function","name":"renounceOwnership","inputs":[],"outputs":[],"stateMutability":"nonpayable"},{"type":"function","name":"setFeeCategory","inputs":[{"name":"_id","type":"uint256","internalType":"uint256"},{"name":"_total","type":"uint256","internalType":"uint256"},{"name":"_call","type":"uint256","internalType":"uint256"},{"name":"_strategist","type":"uint256","internalType":"uint256"},{"name":"_label","type":"string","internalType":"string"},{"name":"_active","type":"bool","internalType":"bool"},{"name":"_adjust","type":"bool","internalType":"bool"}],"outputs":[],"stateMutability":"nonpayable"},{"type":"function","name":"setKeeper","inputs":[{"name":"_keeper","type":"address","internalType":"address"}],"outputs":[],"stateMutability":"nonpayable"},{"type":"function","name":"setStratFeeId","inputs":[{"name":"_strategies","type":"address[]","internalType":"address[]"},{"name":"_feeIds","type":"uint256[]","internalType":"uint256[]"}],"outputs":[],"stateMutability":"nonpayable"},{"type":"function","name":"setStratFeeId","inputs":[{"name":"_feeId","type":"uint256","internalType":"uint256"}],"outputs":[],"stateMutability":"nonpayable"},{"type":"function","name":"setStratFeeId","inputs":[{"name":"_strategy","type":"address","internalType":"address"},{"name":"_feeId","type":"uint256","internalType":"uint256"}],"outputs":[],"stateMutability":"nonpayable"},{"type":"function","name":"stratFeeId","inputs":[{"name":"","type":"address","internalType":"address"}],"outputs":[{"name":"","type":"uint256","internalType":"uint256"}],"stateMutability":"view"},{"type":"function","name":"totalLimit","inputs":[],"outputs":[{"name":"","type":"uint256","internalType":"uint256"}],"stateMutability":"view"},{"type":"function","name":"transferOwnership","inputs":[{"name":"newOwner","type":"address","internalType":"address"}],"outputs":[],"stateMutability":"nonpayable"},{"type":"function","name":"unpause","inputs":[{"name":"_id","type":"uint256","internalType":"uint256"}],"outputs":[],"stateMutability":"nonpayable"},{"type":"event","name":"OwnershipTransferred","inputs":[{"name":"previousOwner","type":"address","indexed":true,"internalType":"address"},{"name":"newOwner","type":"address","indexed":true,"internalType":"address"}],"anonymous":false},{"type":"event","name":"Pause","inputs":[{"name":"id","type":"uint256","indexed":true,"internalType":"uint256"}],"anonymous":false},{"type":"event","name":"SetFeeCategory","inputs":[{"name":"id","type":"uint256","indexed":true,"internalType":"uint256"},{"name":"total","type":"uint256","indexed":false,"internalType":"uint256"},{"name":"beefy","type":"uint256","indexed":false,"internalType":"uint256"},{"name":"call","type":"uint256","indexed":false,"internalType":"uint256"},{"name":"strategist","type":"uint256","indexed":false,"internalType":"uint256"},{"name":"label","type":"string","indexed":false,"internalType":"string"},{"name":"active","type":"bool","indexed":false,"internalType":"bool"}],"anonymous":false},{"type":"event","name":"SetKeeper","inputs":[{"name":"keeper","type":"address","indexed":true,"internalType":"address"}],"anonymous":false},{"type":"event","name":"SetStratFeeId","inputs":[{"name":"strategy","type":"address","indexed":true,"internalType":"address"},{"name":"id","type":"uint256","indexed":true,"internalType":"uint256"}],"anonymous":false},{"type":"event","name":"Unpause","inputs":[{"name":"id","type":"uint256","indexed":true,"internalType":"uint256"}],"anonymous":false}],"bytecode":{"object":"0x6080604052346100305761001a61001461012a565b9061063c565b610022610035565b611e8b6107b48239611e8b90f35b61003b565b60405190565b5f80fd5b601f801991011690565b634e487b7160e01b5f52604160045260245ffd5b906100679061003f565b810190811060018060401b0382111761007f57604052565b610049565b90610097610090610035565b928361005d565b565b5f80fd5b60018060a01b031690565b6100b19061009d565b90565b6100bd816100a8565b036100c457565b5f80fd5b905051906100d5826100b4565b565b90565b6100e3816100d7565b036100ea57565b5f80fd5b905051906100fb826100da565b565b91906040838203126101255780610119610122925f86016100c8565b936020016100ee565b90565b610099565b61014861263f8038038061013d81610084565b9283398101906100fd565b9091565b5f1b90565b9061016260018060a01b039161014c565b9181191691161790565b90565b61018361017e6101889261009d565b61016c565b61009d565b90565b6101949061016f565b90565b6101a09061018b565b90565b90565b906101bb6101b66101c292610197565b6101a3565b8254610151565b9055565b906101d25f199161014c565b9181191691161790565b6101f06101eb6101f5926100d7565b61016c565b6100d7565b90565b90565b9061021061020b610217926101dc565b6101f8565b82546101c6565b9055565b61022560c0610084565b90565b90565b61023f61023a61024492610228565b61016c565b6100d7565b90565b90610251906100d7565b9052565b60018060401b0381116102715761026d60209161003f565b0190565b610049565b9061028861028383610255565b610084565b918252565b5f7f4e6f6e6500000000000000000000000000000000000000000000000000000000910152565b6102be6004610276565b906102cb6020830161028d565b565b6102d56102b4565b90565b52565b151590565b906102ea906102db565b9052565b906102f89061022b565b5f5260205260405f2090565b61030e90516100d7565b90565b5190565b5190565b634e487b7160e01b5f52602260045260245ffd5b906001600283049216801561034d575b602083101461034857565b610319565b91607f169161033d565b5f5260205f2090565b601f602091010490565b1b90565b919060086103899102916103835f198461036a565b9261036a565b9181191691161790565b91906103a96103a46103b1936101dc565b6101f8565b90835461036e565b9055565b5f90565b6103cb916103c56103b5565b91610393565b565b5b8181106103d9575050565b806103e65f6001936103b9565b016103ce565b9190601f81116103fc575b505050565b61040861042d93610357565b90602061041484610360565b83019310610435575b61042690610360565b01906103cd565b5f80806103f7565b91506104268192905061041d565b1c90565b90610457905f1990600802610443565b191690565b8161046691610447565b906002021790565b9061047881610315565b9060018060401b0382116105365761049a82610494855461032d565b856103ec565b602090601f83116001146104ce579180916104bd935f926104c2575b505061045c565b90555b565b90915001515f806104b6565b601f198316916104dd85610357565b925f5b81811061051e57509160029391856001969410610504575b505050020190556104c0565b610514910151601f841690610447565b90555f80806104f8565b919360206001819287870151815501950192016104e0565b610049565b906105459161046e565b565b61055190516102db565b90565b9061056060ff9161014c565b9181191691161790565b610573906102db565b90565b90565b9061058e6105896105959261056a565b610576565b8254610554565b9055565b9061062860a0600561062e946105bc5f82016105b65f8801610304565b906101fb565b6105d5600182016105cf60208801610304565b906101fb565b6105ee600282016105e860408801610304565b906101fb565b6106076003820161060160608801610304565b906101fb565b6106206004820161061a60808801610311565b9061053b565b019201610547565b90610579565b565b9061063a91610599565b565b9061065c6106639261064c6106fb565b61065533610743565b60016101a6565b60026101fb565b6106f961069a6106e85f6106cb6106c25f6106bd6106b45f6106af6106a65f956106a160019a5f61069261021b565b9e8f9261022b565b9101610247565b61022b565b60208b01610247565b61022b565b60408801610247565b61022b565b60608501610247565b6106df6106d66102cd565b608085016102d8565b60a083016102e0565b6106f460045f906102ee565b610630565b565b61070b6107066107a6565b610743565b565b5f1c90565b60018060a01b031690565b61072961072e9161070d565b610712565b90565b61073b905461071d565b90565b5f0190565b61074c5f610731565b610756825f6101a6565b9061078a6107847f8be0079c531659141344cd1fd0a4f28419497f9722a3daafe3b4186f6b6457e093610197565b91610197565b91610793610035565b8061079d8161073e565b0390a3565b5f90565b6107ae6107a2565b50339056fe60806040526004361015610013575b610ae6565b61001d5f3561011c565b806306fced9a146101175780630fbc399414610112578063136439dd1461010d5780633e55f932146101085780634d7c76e514610103578063715018a6146100fe578063748747e6146100f95780638da5cb5b146100f45780639af608c9146100ef578063a36298c7146100ea578063a537633c146100e5578063aced1661146100e0578063cf104622146100db578063e1bcdad9146100d6578063f2fde38b146100d15763fabc1cbc0361000e57610ab3565b610a80565b610a4c565b6109ea565b61094f565b6108d9565b610877565b6107e4565b6107af565b61075a565b610709565b6106c0565b61057e565b61054b565b6104f9565b6102c0565b60e01c90565b60405190565b5f80fd5b5f80fd5b5f80fd5b60018060a01b031690565b61014890610134565b90565b6101548161013f565b0361015b57565b5f80fd5b9050359061016c8261014b565b565b151590565b61017c8161016e565b0361018357565b5f80fd5b9050359061019482610173565b565b91906040838203126101be57806101b26101bb925f860161015f565b93602001610187565b90565b61012c565b90565b6101cf906101c3565b9052565b5190565b60209181520190565b90825f9392825e0152565b601f801991011690565b61021461021d6020936102229361020b816101d3565b938480936101d7565b958691016101e0565b6101eb565b0190565b61022f9061016e565b9052565b906102a59060a08061029a60c084016102525f8801515f8701906101c6565b610264602088015160208701906101c6565b610276604088015160408701906101c6565b610288606088015160608701906101c6565b608087015185820360808701526101f5565b940151910190610226565b90565b6102bd9160208201915f818403910152610233565b90565b346102f1576102ed6102dc6102d6366004610196565b90610b8b565b6102e4610122565b918291826102a8565b0390f35b610128565b5f80fd5b634e487b7160e01b5f52604160045260245ffd5b90610318906101eb565b810190811060018060401b0382111761033057604052565b6102fa565b90610348610341610122565b928361030e565b565b60018060401b0381116103605760208091020190565b6102fa565b5f80fd5b9092919261037e6103798261034a565b610335565b93818552602080860192028301928184116103bb57915b8383106103a25750505050565b602080916103b0848661015f565b815201920191610395565b610365565b9080601f830112156103de578160206103db93359101610369565b90565b6102f6565b60018060401b0381116103f95760208091020190565b6102fa565b610407816101c3565b0361040e57565b5f80fd5b9050359061041f826103fe565b565b90929192610436610431826103e3565b610335565b938185526020808601920283019281841161047357915b83831061045a5750505050565b602080916104688486610412565b81520192019161044d565b610365565b9080601f830112156104965781602061049393359101610421565b90565b6102f6565b9190916040818403126104ef575f81013560018060401b0381116104ea57836104c59183016103c0565b92602082013560018060401b0381116104e5576104e29201610478565b90565b610130565b610130565b61012c565b5f0190565b346105285761051261050c36600461049b565b90610dd6565b61051a610122565b80610524816104f4565b0390f35b610128565b9060208282031261054657610543915f01610412565b90565b61012c565b346105795761056361055e36600461052d565b610f16565b61056b610122565b80610575816104f4565b0390f35b610128565b346105ac5761059661059136600461052d565b610f21565b61059e610122565b806105a8816104f4565b0390f35b610128565b5f80fd5b60018060401b0381116105d1576105cd6020916101eb565b0190565b6102fa565b90825f939282370152565b909291926105f66105f1826105b5565b610335565b9381855260208501908284011161061257610610926105d6565b565b6105b1565b9080601f8301121561063557816020610632933591016105e1565b90565b6102f6565b60e0818303126106bb57610650825f8301610412565b9261065e8360208401610412565b9261066c8160408501610412565b9261067a8260608301610412565b92608082013560018060401b0381116106b65761069c846106b3928501610617565b936106aa8160a08601610187565b9360c001610187565b90565b610130565b61012c565b346106f5576106df6106d336600461063a565b95949094939193611684565b6106e7610122565b806106f1816104f4565b0390f35b610128565b5f91031261070457565b61012c565b34610737576107193660046106fa565b6107216116e2565b610729610122565b80610733816104f4565b0390f35b610128565b9060208282031261075557610752915f0161015f565b90565b61012c565b346107885761077261076d36600461073c565b6117d5565b61077a610122565b80610784816104f4565b0390f35b610128565b6107969061013f565b9052565b91906107ad905f6020850194019061078d565b565b346107df576107bf3660046106fa565b6107db6107ca6117e4565b6107d2610122565b9182918261079a565b0390f35b610128565b34610814576108106107ff6107fa36600461073c565b6117f9565b610807610122565b918291826102a8565b0390f35b610128565b1c90565b90565b6108309060086108359302610819565b61081d565b90565b906108439154610820565b90565b61085260025f90610838565b90565b61085e906101c3565b9052565b9190610875905f60208501940190610855565b565b346108a7576108873660046106fa565b6108a3610892610846565b61089a610122565b91829182610862565b0390f35b610128565b91906040838203126108d457806108c86108d1925f8601610412565b93602001610187565b90565b61012c565b3461090a576109066108f56108ef3660046108ac565b906119a9565b6108fd610122565b918291826102a8565b0390f35b610128565b60018060a01b031690565b61092a90600861092f9302610819565b61090f565b90565b9061093d915461091a565b90565b61094c60015f90610932565b90565b3461097f5761095f3660046106fa565b61097b61096a610940565b610972610122565b9182918261079a565b0390f35b610128565b90565b61099b6109966109a092610134565b610984565b610134565b90565b6109ac90610987565b90565b6109b8906109a3565b90565b906109c5906109af565b5f5260205260405f2090565b6109e7906109e26003915f926109bb565b610838565b90565b34610a1a57610a16610a05610a0036600461073c565b6109d1565b610a0d610122565b91829182610862565b0390f35b610128565b9190604083820312610a475780610a3b610a44925f860161015f565b93602001610412565b90565b61012c565b34610a7b57610a65610a5f366004610a1f565b90611b15565b610a6d610122565b80610a77816104f4565b0390f35b610128565b34610aae57610a98610a9336600461073c565b611c0c565b610aa0610122565b80610aaa816104f4565b0390f35b610128565b34610ae157610acb610ac636600461052d565b611cd0565b610ad3610122565b80610add816104f4565b0390f35b610128565b5f80fd5b610af460c0610335565b90565b5f90565b606090565b5f90565b610b0c610aea565b906020808080808087610b1d610af7565b815201610b28610af7565b815201610b33610af7565b815201610b3e610af7565b815201610b49610afb565b815201610b54610b00565b81525050565b610b62610b04565b90565b5f1c90565b610b76610b7b91610b65565b61081d565b90565b610b889054610b6a565b90565b90610bab610ba6610bb093610b9e610b5a565b5060036109bb565b610b7e565b6119a9565b90565b610bbf610bc491610b65565b61090f565b90565b610bd19054610bb3565b90565b60209181520190565b5f7f216d616e61676572000000000000000000000000000000000000000000000000910152565b610c116008602092610bd4565b610c1a81610bdd565b0190565b610c339060208101905f818303910152610c04565b90565b15610c3d57565b610c45610122565b62461bcd60e51b815280610c5b60048201610c1e565b0390fd5b90610c949133610c7e610c78610c736117e4565b61013f565b9161013f565b148015610c96575b610c8f90610c36565b610d62565b565b50610c8f33610cb6610cb0610cab6001610bc7565b61013f565b9161013f565b149050610c86565b5190565b90565b610cd9610cd4610cde92610cc2565b610984565b6101c3565b90565b6001610ced91016101c3565b90565b634e487b7160e01b5f52603260045260245ffd5b90610d0e82610cbe565b811015610d1f576020809102010190565b610cf0565b610d2e905161013f565b90565b5190565b90610d3f82610d31565b811015610d50576020809102010190565b610cf0565b610d5f90516101c3565b90565b919091610d6e81610cbe565b91610d785f610cc5565b5b80610d8c610d86866101c3565b916101c3565b1015610dcf57610dca90610dc5610dac610da7868490610d04565b610d24565b610dbf610dba898590610d35565b610d55565b90611cdb565b610ce1565b610d79565b5092505050565b90610de091610c5f565b565b610e169033610e00610dfa610df56117e4565b61013f565b9161013f565b148015610e18575b610e1190610c36565b610ebc565b565b50610e1133610e38610e32610e2d6001610bc7565b61013f565b9161013f565b149050610e08565b610e54610e4f610e59926101c3565b610984565b6101c3565b90565b90610e6690610e40565b5f5260205260405f2090565b5f1b90565b90610e8360ff91610e72565b9181191691161790565b610e969061016e565b90565b90565b90610eb1610eac610eb892610e8d565b610e99565b8254610e77565b9055565b610ed45f6005610ece60048590610e5c565b01610e9c565b610efe7f68b095021b1f40fe513109f513c66692f0b3219aee674a69f4efc57badb8201d91610e40565b90610f07610122565b80610f11816104f4565b0390a2565b610f1f90610de2565b565b610f2b9033611cdb565b565b90610f44969594939291610f3f611dbd565b6114a3565b565b5f7f3e746f74616c4c696d6974000000000000000000000000000000000000000000910152565b610f7a600b602092610bd4565b610f8381610f46565b0190565b610f9c9060208101905f818303910152610f6d565b90565b15610fa657565b610fae610122565b62461bcd60e51b815280610fc460048201610f87565b0390fd5b90565b610fdf610fda610fe492610fc8565b610984565b6101c3565b90565b610ff8670de0b6b3a7640000610fcb565b90565b634e487b7160e01b5f52601160045260245ffd5b61101e611024919392936101c3565b926101c3565b916110308382026101c3565b92818404149015171561103f57565b610ffb565b634e487b7160e01b5f52601260045260245ffd5b61106461106a916101c3565b916101c3565b908115611075570490565b611044565b61108961108f919392936101c3565b926101c3565b820180921161109a57565b610ffb565b6110ae6110b4919392936101c3565b926101c3565b82039182116110bf57565b610ffb565b6110ce60c0610335565b90565b906110db906101c3565b9052565b52565b906110ec9061016e565b9052565b906110fc5f1991610e72565b9181191691161790565b90565b9061111e61111961112592610e40565b611106565b82546110f0565b9055565b5190565b634e487b7160e01b5f52602260045260245ffd5b9060016002830492168015611161575b602083101461115c57565b61112d565b91607f1691611151565b5f5260205f2090565b601f602091010490565b1b90565b9190600861119d9102916111975f198461117e565b9261117e565b9181191691161790565b91906111bd6111b86111c593610e40565b611106565b908354611182565b9055565b5f90565b6111df916111d96111c9565b916111a7565b565b5b8181106111ed575050565b806111fa5f6001936111cd565b016111e2565b9190601f8111611210575b505050565b61121c6112419361116b565b90602061122884611174565b83019310611249575b61123a90611174565b01906111e1565b5f808061120b565b915061123a81929050611231565b90611267905f1990600802610819565b191690565b8161127691611257565b906002021790565b90611288816101d3565b9060018060401b038211611346576112aa826112a48554611141565b85611200565b602090601f83116001146112de579180916112cd935f926112d2575b505061126c565b90555b565b90915001515f806112c6565b601f198316916112ed8561116b565b925f5b81811061132e57509160029391856001969410611314575b505050020190556112d0565b611324910151601f841690611257565b90555f8080611308565b919360206001819287870151815501950192016112f0565b6102fa565b906113559161127e565b565b611361905161016e565b90565b906113f360a060056113f9946113875f82016113815f8801610d55565b90611109565b6113a06001820161139a60208801610d55565b90611109565b6113b9600282016113b360408801610d55565b90611109565b6113d2600382016113cc60608801610d55565b90611109565b6113eb600482016113e560808801611129565b9061134b565b019201611357565b90610e9c565b565b9061140591611364565b565b61142661142f6020936114349361141d816101d3565b93848093610bd4565b958691016101e0565b6101eb565b0190565b6114419061016e565b9052565b9695939461148c6114a19661148260a0966114786114999760208e61147160c082019a5f830190610855565b0190610855565b60408c0190610855565b60608a0190610855565b8782036080890152611407565b940190611438565b565b92959490949391936114d1866114ca6114c46114bf6002610b7e565b6101c3565b916101c3565b1115610f9f565b6115e7575b906115d4916114e3610fe7565b6114ff6114f96114f4888b9061107a565b6101c3565b916101c3565b115f146115d95761152261151b611514610fe7565b879061109f565b889061109f565b5b9361159187611580876115778c61156e8c916115658b9361155c8c9761155361154a6110c4565b9b5f8d016110d1565b60208b016110d1565b604089016110d1565b606087016110d1565b608085016110df565b60a083016110e2565b61158c60048490610e5c565b6113fb565b959394969190916115c27f8bd32089ef8cf666951ba8557b00491743a2b2cb9697111f360a4f19390fe7e197610e40565b976115cb610122565b96879687611445565b0390a2565b6115e25f610cc5565b611523565b9492906115d491856116016115fb5f610cc5565b916101c3565b145f1461166357506116125f610cc5565b5b93856116276116215f610cc5565b916101c3565b145f1461164257506116385f610cc5565b5b959091506114d6565b61165761165e91611651610fe7565b9061100f565b8690611058565b611639565b61167861167f91611672610fe7565b9061100f565b8690611058565b611613565b90611693969594939291610f2d565b565b61169d611dbd565b6116a56116cf565b565b6116bb6116b66116c092610cc2565b610984565b610134565b90565b6116cc906116a7565b90565b6116e06116db5f6116c3565b611de9565b565b6116ea611695565b565b611720903361170a6117046116ff6117e4565b61013f565b9161013f565b148015611722575b61171b90610c36565b611788565b565b5061171b3361174261173c6117376001610bc7565b61013f565b9161013f565b149050611712565b9061175b60018060a01b0391610e72565b9181191691161790565b90565b9061177d611778611784926109af565b611765565b825461174a565b9055565b611793816001611768565b6117bd7fefb5cfa1a8690c124332ab93324539c5c9c4be03f28aeb8be86f2d8a0c9fb99b916109af565b906117c6610122565b806117d0816104f4565b0390a2565b6117de906116ec565b565b5f90565b6117ec6117e0565b506117f65f610bc7565b90565b61181861181361181f9261180b610b5a565b5060036109bb565b610b7e565b5f906119a9565b90565b60ff1690565b61183461183991610b65565b611822565b90565b6118469054611828565b90565b905f929180549061186361185c83611141565b80946101d7565b916001811690815f146118ba575060011461187e575b505050565b61188b919293945061116b565b915f925b8184106118a257505001905f8080611879565b6001816020929593955484860152019101929061188f565b92949550505060ff19168252151560200201905f8080611879565b906118df91611849565b90565b906119026118fb926118f2610122565b938480926118d5565b038361030e565b565b9061199b6119926005611915610aea565b9461192c6119245f8301610b7e565b5f88016110d1565b61194461193b60018301610b7e565b602088016110d1565b61195c61195360028301610b7e565b604088016110d1565b61197461196b60038301610b7e565b606088016110d1565b61198c611983600483016118e2565b608088016110df565b0161183c565b60a084016110e2565b565b6119a690611904565b90565b9190916119b4610b5a565b506119cc60056119c660048490610e5c565b0161183c565b5f14611a95576119e16119e6915b6004610e5c565b61199d565b916119ee575b565b611a90611a87611a79611a025f8601610d55565b611a35611a2c611a1e611a1760208a01610d55565b849061100f565b611a26610fe7565b90611058565b602088016110d1565b611a68611a5f611a51611a4a60408a01610d55565b849061100f565b611a59610fe7565b90611058565b604088016110d1565b611a7460608701610d55565b61100f565b611a81610fe7565b90611058565b606084016110d1565b6119ec565b506119e66119e1611aa55f610cc5565b6119da565b90611adf9133611ac9611ac3611abe6117e4565b61013f565b9161013f565b148015611ae1575b611ada90610c36565b611b09565b565b50611ada33611b01611afb611af66001610bc7565b61013f565b9161013f565b149050611ad1565b90611b1391611cdb565b565b90611b1f91611aaa565b565b611b3290611b2d611dbd565b611bdc565b565b60207f6464726573730000000000000000000000000000000000000000000000000000917f4f776e61626c653a206e6577206f776e657220697320746865207a65726f20615f8201520152565b611b8e6026604092610bd4565b611b9781611b34565b0190565b611bb09060208101905f818303910152611b81565b90565b15611bba57565b611bc2610122565b62461bcd60e51b815280611bd860048201611b9b565b0390fd5b611c0a90611c0581611bfe611bf8611bf35f6116c3565b61013f565b9161013f565b1415611bb3565b611de9565b565b611c1590611b21565b565b611c4b9033611c35611c2f611c2a6117e4565b61013f565b9161013f565b148015611c4d575b611c4690610c36565b611c75565b565b50611c4633611c6d611c67611c626001610bc7565b61013f565b9161013f565b149050611c3d565b611c8e60016005611c8860048590610e5c565b01610e9c565b611cb87faaa520fdd7d2c83061d632fa017b0432407e798818af63ea908589fceda39ab791610e40565b90611cc1610122565b80611ccb816104f4565b0390a2565b611cd990611c17565b565b611cf082611ceb600384906109bb565b611109565b90611d24611d1e7f055b48a7f28272213f8d2dea6936149129fe08c4874c4a8e434d82e4f272e848936109af565b91610e40565b91611d2d610122565b80611d37816104f4565b0390a3565b5f7f4f776e61626c653a2063616c6c6572206973206e6f7420746865206f776e6572910152565b611d6f60208092610bd4565b611d7881611d3c565b0190565b611d919060208101905f818303910152611d63565b90565b15611d9b57565b611da3610122565b62461bcd60e51b815280611db960048201611d7c565b0390fd5b611de7611dc86117e4565b611de1611ddb611dd6611e48565b61013f565b9161013f565b14611d94565b565b611df25f610bc7565b611dfc825f611768565b90611e30611e2a7f8be0079c531659141344cd1fd0a4f28419497f9722a3daafe3b4186f6b6457e0936109af565b916109af565b91611e39610122565b80611e43816104f4565b0390a3565b611e506117e0565b50339056fea26469706673582212203dd72ee9816b47bc9e287ab7f83b5977759f7076b8279d61e60680fa3a1c689e64736f6c634300081c0033","linkReferences":{}},"methodIdentifiers":{"getFeeCategory(uint256,bool)":"a537633c","getFees(address)":"9af608c9","getFees(address,bool)":"06fced9a","keeper()":"aced1661","owner()":"8da5cb5b","pause(uint256)":"136439dd","renounceOwnership()":"715018a6","setFeeCategory(uint256,uint256,uint256,uint256,string,bool,bool)":"4d7c76e5","setKeeper(address)":"748747e6","setStratFeeId(address,uint256)":"e1bcdad9","setStratFeeId(address[],uint256[])":"0fbc3994","setStratFeeId(uint256)":"3e55f932","stratFeeId(address)":"cf104622","totalLimit()":"a36298c7","transferOwnership(address)":"f2fde38b","unpause(uint256)":"fabc1cbc"},"id":147}