{"abi":[{"type":"constructor","inputs":[],"stateMutability":"nonpayable"},{"type":"function","name":"accrueMarginFees","inputs":[],"outputs":[],"stateMutability":"nonpayable"},{"type":"function","name":"adjustHedge","inputs":[{"name":"targetSizeUSD","type":"uint256","internalType":"uint256"}],"outputs":[],"stateMutability":"nonpayable"},{"type":"function","name":"closeHedge","inputs":[],"outputs":[],"stateMutability":"nonpayable"},{"type":"function","name":"configureVault","inputs":[{"name":"vault","type":"address","internalType":"address"},{"name":"usdc","type":"address","internalType":"address"},{"name":"weth","type":"address","internalType":"address"}],"outputs":[],"stateMutability":"nonpayable"},{"type":"function","name":"defaultEthUsdFeed","inputs":[],"outputs":[{"name":"","type":"address","internalType":"contract AggregatorV3Interface"}],"stateMutability":"view"},{"type":"function","name":"factory","inputs":[],"outputs":[{"name":"","type":"address","internalType":"address"}],"stateMutability":"view"},{"type":"function","name":"getHedgeState","inputs":[{"name":"vault","type":"address","internalType":"address"}],"outputs":[{"name":"","type":"tuple","internalType":"struct IHedgeAdapter.HedgeState","components":[{"name":"isOpen","type":"bool","internalType":"bool"},{"name":"sizeUSD","type":"uint256","internalType":"uint256"},{"name":"collateralUSD","type":"uint256","internalType":"uint256"},{"name":"entryPrice","type":"uint256","internalType":"uint256"},{"name":"openedAt","type":"uint256","internalType":"uint256"},{"name":"marginFeesAccrued","type":"uint256","internalType":"uint256"}]}],"stateMutability":"view"},{"type":"function","name":"getHedgeValue","inputs":[{"name":"vault","type":"address","internalType":"address"}],"outputs":[{"name":"pnlUSDC","type":"int256","internalType":"int256"}],"stateMutability":"view"},{"type":"function","name":"getImplementation","inputs":[],"outputs":[{"name":"","type":"address","internalType":"address"}],"stateMutability":"view"},{"type":"function","name":"initialize","inputs":[{"name":"_defaultEthUsdFeed","type":"address","internalType":"address"}],"outputs":[],"stateMutability":"nonpayable"},{"type":"function","name":"owner","inputs":[],"outputs":[{"name":"","type":"address","internalType":"address"}],"stateMutability":"view"},{"type":"function","name":"proxiableUUID","inputs":[],"outputs":[{"name":"","type":"bytes32","internalType":"bytes32"}],"stateMutability":"view"},{"type":"function","name":"renounceOwnership","inputs":[],"outputs":[],"stateMutability":"nonpayable"},{"type":"function","name":"setEthUsdFeed","inputs":[{"name":"vault","type":"address","internalType":"address"},{"name":"feed","type":"address","internalType":"address"}],"outputs":[],"stateMutability":"nonpayable"},{"type":"function","name":"transferOwnership","inputs":[{"name":"newOwner","type":"address","internalType":"address"}],"outputs":[],"stateMutability":"nonpayable"},{"type":"function","name":"upgradeTo","inputs":[{"name":"newImplementation","type":"address","internalType":"address"}],"outputs":[],"stateMutability":"nonpayable"},{"type":"function","name":"upgradeToAndCall","inputs":[{"name":"newImplementation","type":"address","internalType":"address"},{"name":"data","type":"bytes","internalType":"bytes"}],"outputs":[],"stateMutability":"payable"},{"type":"function","name":"upgradeToLatest","inputs":[],"outputs":[],"stateMutability":"nonpayable"},{"type":"event","name":"AdminChanged","inputs":[{"name":"previousAdmin","type":"address","indexed":false,"internalType":"address"},{"name":"newAdmin","type":"address","indexed":false,"internalType":"address"}],"anonymous":false},{"type":"event","name":"BeaconUpgraded","inputs":[{"name":"beacon","type":"address","indexed":true,"internalType":"address"}],"anonymous":false},{"type":"event","name":"Initialized","inputs":[{"name":"version","type":"uint8","indexed":false,"internalType":"uint8"}],"anonymous":false},{"type":"event","name":"OwnershipTransferred","inputs":[{"name":"previousOwner","type":"address","indexed":true,"internalType":"address"},{"name":"newOwner","type":"address","indexed":true,"internalType":"address"}],"anonymous":false},{"type":"event","name":"Upgraded","inputs":[{"name":"implementation","type":"address","indexed":true,"internalType":"address"}],"anonymous":false},{"type":"error","name":"AvantisCallFailed","inputs":[]},{"type":"error","name":"PositionNotFound","inputs":[]},{"type":"error","name":"ZeroAmount","inputs":[]}],"bytecode":{"object":"0x60a080604052346100da57306080525f549060ff8260081c16610088575060ff8082160361004e575b60405161246e90816100df82396080518181816106a4015281816107c10152610ba80152f35b60ff90811916175f557f7f26b83ff96e1f2b6a682f133852f6798a09c465da95921460cefb3847402498602060405160ff8152a15f610028565b62461bcd60e51b815260206004820152602760248201527f496e697469616c697a61626c653a20636f6e747261637420697320696e697469604482015266616c697a696e6760c81b6064820152608490fd5b5f80fdfe60806040526004361015610011575f80fd5b5f3560e01c80630216133014610d80578063096d24a214610d425780633659cfe614610b8a578063367ad9e214610a1d5780634ebc9be3146109495780634f1ef2861461074f57806352d1902d1461069257806360acf0711461066a578063715018a61461062257806371ddae80146105f75780638d5b9a0a146105b95780638da5cb5b14610591578063aaf10f421461055d578063b47657a914610393578063c45a01551461036b578063c4d66de8146101f5578063f2fde38b146101665763f5993c4e146100df575f80fd5b34610162576040366003190112610162576100f8610dc2565b610100610dd8565b90610109611c8a565b6001600160a01b039081165f81815260c96020526040902060070154909161013391161515610e92565b5f90815260c96020526040902060090180546001600160a01b0319166001600160a01b03909216919091179055005b5f80fd5b346101625760203660031901126101625761017f610dc2565b610187611c8a565b6001600160a01b038116156101a15761019f90611d71565b005b60405162461bcd60e51b815260206004820152602660248201527f4f776e61626c653a206e6577206f776e657220697320746865207a65726f206160448201526564647265737360d01b6064820152608490fd5b346101625760203660031901126101625761020e610dc2565b5f5460ff8160081c16159081809261035e575b8015610347575b156102eb5760ff1981166001175f55816102da575b5061025760ff5f5460081c1661025281612037565b612037565b61026033611d71565b5f549161027260ff8460081c16612037565b60ca80546001600160a01b0319908116331790915560cb80549091166001600160a01b03929092169190911790556102a657005b61ff0019165f557f7f26b83ff96e1f2b6a682f133852f6798a09c465da95921460cefb3847402498602060405160018152a1005b61ffff1916610101175f558261023d565b60405162461bcd60e51b815260206004820152602e60248201527f496e697469616c697a61626c653a20636f6e747261637420697320616c72656160448201526d191e481a5b9a5d1a585b1a5e995960921b6064820152608490fd5b50303b1580156102285750600160ff821614610228565b50600160ff821610610221565b34610162575f3660031901126101625760ca546040516001600160a01b039091168152602090f35b34610162576060366003190112610162576103ac610dc2565b6103b4610dd8565b6044356001600160a01b0381169290839003610162576033546001600160a01b03163314801561054b575b15610515576001600160a01b03169182156104e0576001600160a01b038216156104ac578015610478575f92835260c960205260409092206007810180546001600160a01b039384166001600160a01b031991821617909155600882018054909116909317909255600990910180549091161561045857005b60cb5481546001600160a01b0319166001600160a01b0391909116179055005b60405162461bcd60e51b815260206004820152600c60248201526b0d2dcecc2d8d2c840eecae8d60a31b6044820152606490fd5b60405162461bcd60e51b815260206004820152600c60248201526b696e76616c6964207573646360a01b6044820152606490fd5b60405162461bcd60e51b815260206004820152600d60248201526c1a5b9d985b1a59081d985d5b1d609a1b6044820152606490fd5b60405162461bcd60e51b815260206004820152600e60248201526d1b9bdd08185d5d1a1bdc9a5e995960921b6044820152606490fd5b50336001600160a01b038216146103df565b34610162575f366003190112610162575f5160206123595f395f51905f52546040516001600160a01b039091168152602090f35b34610162575f366003190112610162576033546040516001600160a01b039091168152602090f35b34610162575f36600319011261016257335f90815260c960205260409020600701546105ef906001600160a01b03161515610e92565b61019f6112bc565b3461016257602036600319011261016257602061061a610615610dc2565b61121d565b604051908152f35b34610162575f3660031901126101625761063a611c8a565b603380546001600160a01b031981169091555f906001600160a01b03165f5160206123795f395f51905f528280a3005b34610162575f3660031901126101625760cb546040516001600160a01b039091168152602090f35b34610162575f366003190112610162577f00000000000000000000000000000000000000000000000000000000000000006001600160a01b031630036106e95760206040515f5160206123595f395f51905f528152f35b60405162461bcd60e51b815260206004820152603860248201527f555550535570677261646561626c653a206d757374206e6f742062652063616c6044820152771b1959081d1a1c9bdd59da0819195b1959d85d1958d85b1b60421b6064820152608490fd5b604036600319011261016257610763610dc2565b602435906001600160401b038211610162573660238301121561016257816004013561078e81610e77565b9261079c6040519485610e54565b818452366024838301011161016257815f9260246020930183870137840101526108137f00000000000000000000000000000000000000000000000000000000000000006001600160a01b03166107f5308214156110c4565b5f5160206123595f395f51905f52546001600160a01b031614611112565b61081c81611bc0565b5f5160206122f95f395f51905f525460ff161561083d5761019f91506120c1565b6040516352d1902d60e01b81526020816004816001600160a01b0386165afa5f9181610915575b506108b25760405162461bcd60e51b815260206004820152602e60248201525f5160206124195f395f51905f5260448201526d6f6e206973206e6f74205555505360901b6064820152608490fd5b5f5160206123595f395f51905f52036108d15761019f91600191611ce2565b60405162461bcd60e51b815260206004820152602960248201525f5160206123d95f395f51905f526044820152681a58589b195555525160ba1b6064820152608490fd5b9091506020813d602011610941575b8161093160209383610e54565b8101031261016257519084610864565b3d9150610924565b3461016257602036600319011261016257610962610dc2565b5f60a060405161097181610dee565b828152826020820152826040820152826060820152826080820152015260018060a01b03165f5260c960205260c060405f206040516109af81610dee565b60ff8254161515918282526001810154602083019081526002820154604084019081526003830154916060850192835260a0600560048601549560808801968752015495019485526040519586525160208601525160408501525160608401525160808301525160a0820152f35b34610162575f36600319011261016257610a35611c8a565b60ca5460405163b133f4d360e01b815290602090829060049082906001600160a01b03165afa908115610b7f575f91610b45575b506001600160a01b0381169081151580610b24575b610a8790611174565b60405190610a96602083610e54565b5f808352602083019390368537610aac826120c1565b5f5160206123995f395f51905f525f80a2815115801590610b1d575b610ace57005b5f8061019f9460405194610ae3606087610e54565b602786525f5160206123f95f395f51905f526020870152660819985a5b195960ca1b60408701525190845af4610b17612215565b91612244565b505f610ac8565b505f5160206123595f395f51905f52546001600160a01b0316821415610a7e565b90506020813d602011610b77575b81610b6060209383610e54565b8101031261016257610b7190611160565b81610a69565b3d9150610b53565b6040513d5f823e3d90fd5b3461016257602036600319011261016257610ba3610dc2565b610bdc7f00000000000000000000000000000000000000000000000000000000000000006001600160a01b03166107f5308214156110c4565b610be581611bc0565b604051906020610bf58184610e54565b5f8352601f19810136828501375f5160206122f95f395f51905f525460ff1615610c24575061019f91506120c1565b6040516352d1902d60e01b815290919082816004816001600160a01b0386165afa5f9181610d13575b50610c9b5760405162461bcd60e51b815260048101849052602e60248201525f5160206124195f395f51905f5260448201526d6f6e206973206e6f74205555505360901b6064820152608490fd5b9091907fc9f76b5ec45e5cdef99837d7b6d2467235c1df8933c8ca56df5c35afa2c7d44401610cd0575061019f915f91611ce2565b6084906040519062461bcd60e51b82526004820152602960248201525f5160206123d95f395f51905f526044820152681a58589b195555525160ba1b6064820152fd5b9091508381813d8311610d3b575b610d2b8183610e54565b8101031261016257519085610c4d565b503d610d21565b34610162575f36600319011261016257335f90815260c96020526040902060070154610d78906001600160a01b03161515610e92565b61019f6110a1565b3461016257602036600319011261016257335f90815260c96020526040902060070154610db7906001600160a01b03161515610e92565b61019f600435610f41565b600435906001600160a01b038216820361016257565b602435906001600160a01b038216820361016257565b60c081019081106001600160401b03821117610e0957604052565b634e487b7160e01b5f52604160045260245ffd5b61016081019081106001600160401b03821117610e0957604052565b608081019081106001600160401b03821117610e0957604052565b601f909101601f19168101906001600160401b03821190821017610e0957604052565b6001600160401b038111610e0957601f01601f191660200190565b15610e9957565b60405162461bcd60e51b81526020600482015260146024820152731d985d5b1d081b9bdd0818dbdb999a59dd5c995960621b6044820152606490fd5b91908203918211610ee257565b634e487b7160e01b5f52601160045260245ffd5b90620927c0820291808304620927c01490151715610ee257565b81810292918115918404141715610ee257565b8115610f2d570490565b634e487b7160e01b5f52601260045260245ffd5b335f5260c960205260405f2090801561108a5760078201546040516370a0823160e01b815233600482015290602090829060249082906001600160a01b03165afa908115610b7f575f91611058575b5080156110535760ff83541615611033576001830154828082111561102457610fb891610ed5565b606481029080820460641490151715610ee257610fd783600a92610f23565b11610fe157505050565b611003610fed836120a4565b6402540be400610ffc85610ef6565b04906112af565b111561100e575b5050565b8161101c6110229333611322565b33611692565b565b9061102e91610ed5565b610fb8565b61103f610fed836120a4565b1115611049575050565b6110229133611692565b505050565b90506020813d602011611082575b8161107360209383610e54565b8101031261016257515f610f90565b3d9150611066565b5060ff8154166110975750565b6110229033611322565b335f5260c960205260405f2060ff815416156110c1576110229033611322565b50565b156110cb57565b60405162461bcd60e51b815260206004820152602c60248201525f5160206123395f395f51905f5260448201526b19195b1959d85d1958d85b1b60a21b6064820152608490fd5b1561111957565b60405162461bcd60e51b815260206004820152602c60248201525f5160206123395f395f51905f5260448201526b6163746976652070726f787960a01b6064820152608490fd5b51906001600160a01b038216820361016257565b1561117b57565b60405162461bcd60e51b815260206004820152601660248201527534b73b30b634b21034b6b83632b6b2b73a30ba34b7b760511b6044820152606490fd5b600160ff1b8114610ee2575f0390565b81810392915f138015828513169184121617610ee257565b81810292915f8212600160ff1b821416610ee2578184051490151715610ee257565b8115610f2d57600160ff1b81145f19831416610ee2570590565b6001600160a01b03165f81815260c960205260409020805490919060ff16156112a15760038201549081156112925761128661128f93926005925f5260c960205261128161127661127060405f20611dcb565b836111c9565b6001860154906111e1565b611203565b910154906111c9565b90565b5050600561128f9101546111b9565b50600561128f9101546111b9565b91908201809211610ee257565b335f5260c960205260405f2060ff815416156110c157610e106112e3600483015442610ed5565b04801561100a5760056402540be40061131361131e9361130e611304611fba565b6001880154610f10565b610f10565b0492019182546112af565b9055565b60ff825416156116625761133582611dcb565b6006830191825491604051906351d407ff60e11b82523060048301525f6024830152836044830152610160826064817344914408af82bc9983bbb330e3578e1105e11d4e5afa918215610b7f575f926115a6575b508151306001600160a01b03909116036115975760808201916103e86113b5845160e084015190610f10565b04620927c0810290808204620927c01490151715610ee2576402540be40090049460405190630b0f2f3960e21b82525f600483015260248201525f60448201526020816064815f7344914408af82bc9983bbb330e3578e1105e11d4e5af19081611568575b5061142e57630db08fa960e01b5f5260045ffd5b60a00151916305f5e1008302928084046305f5e1001490151715610ee2578261128161146a92611462889561146f976111c9565b9051906111e1565b6111c9565b5061147f600585019283546112af565b825560078401546040516370a0823160e01b815230600482015291906001600160a01b0316602083602481845afa928315610b7f575f93611532575b505f958694938593600493826114ea575b50505082815582600182015582600282015582600382015501555555565b60405163a9059cbb60e01b60208201526001600160a01b03909216602483015260448083019390935291815261152a91611525606483610e54565b612151565b5f80806114cc565b909392506020813d602011611560575b8161154f60209383610e54565b81010312610162575191925f6114bb565b3d9150611542565b6020813d60201161158f575b8161158160209383610e54565b81010312610162575161141a565b3d9150611574565b636ec9be1160e01b5f5260045ffd5b909150610160813d821161165a575b816115c36101609383610e54565b8101031261016257610140604051916115db83610e1d565b6115e481611160565b83526020810151602084015260408101516040840152606081015160608401526080810151608084015260a081015160a084015261162460c08201612097565b60c084015260e081015160e08401526101008101516101008401526101208101516101208401520151610140820152905f611389565b3d91506115b5565b60405162461bcd60e51b81526020600482015260086024820152676e6f20686564676560c01b6044820152606490fd5b909160ff835416611b8e576116a683611dcb565b604051926116b384610e39565b82845260208401918252604084019361271085526117336060820192603284526116ee6116df876120a4565b6402540be400610ffc89610ef6565b60078901546040516323b872dd60e01b60208201526001600160a01b039384166024820152306044820152606480820193909352918252909116611525608483610e54565b6040519361174085610e39565b5f855260208501955f875260408601935f855260608701935f8552805115611b7f57865115611b7f5780516103e88102908082046103e81490151715610ee257835161178b91610f23565b90818a5251620927c0810290808204620927c01490151715610ee2576402540be4006117bb9104808852826112af565b9283158015611aed575b15611a8957611873604051602081019563095ea7b360e01b87527344914408af82bc9983bbb330e3578e1105e11d4e602483015260448201526044815261180d606482610e54565b5f8060409788519361181f8a86610e54565b602085525f5160206123195f395f51905f52602086015251908273833589fcd6edb6e08f4c7c32d4f71b54bda029135af1611858612215565b9073833589fcd6edb6e08f4c7c32d4f71b54bda02913612244565b8051908115918215611a67575b505015611a2357519183519261189584610e1d565b30845260208401925f8452858501915f835260608601915f83526080870190815260a087015f815260c08801915f835260e089019384526101008901945f86526101208a01965f88526101408b0198428a5251998c519b6319cde9a160e01b8d5260018060a01b0390511660048d01525160248c01525160448b01525160648a01525160848901525160a488015251151560c48701525160e48601525161010485015251610124840152516101448301525f6101648301526101848201526020816101a4815f7344914408af82bc9983bbb330e3578e1105e11d4e5af190816119f4575b5061198d57630db08fa960e01b5f5260045ffd5b60069660a0955f88525184525192519351948184879351916119ae83610dee565b600183528560208401528201528560608201524260808201520152600160ff19885416178755600187015560028601556003850155426004850155600584015551910155565b6020813d602011611a1b575b81611a0d60209383610e54565b810103126101625751611979565b3d9150611a00565b835162461bcd60e51b815260206004820152602a60248201525f5160206123b95f395f51905f526044820152691bdd081cdd58d8d9595960b21b6064820152608490fd5b8192509060209181010312610162576020611a829101612097565b5f80611880565b60405162461bcd60e51b815260206004820152603660248201527f5361666545524332303a20617070726f76652066726f6d206e6f6e2d7a65726f60448201527520746f206e6f6e2d7a65726f20616c6c6f77616e636560501b6064820152608490fd5b50604051636eb1769f60e11b81523060048201527344914408af82bc9983bbb330e3578e1105e11d4e602482015260208160448173833589fcd6edb6e08f4c7c32d4f71b54bda029135afa908115610b7f575f91611b4d575b50156117c5565b90506020813d602011611b77575b81611b6860209383610e54565b8101031261016257515f611b46565b3d9150611b5b565b631f2a200560e01b5f5260045ffd5b60405162461bcd60e51b815260206004820152600a6024820152693432b233b29037b832b760b11b6044820152606490fd5b6033546001600160a01b03163303611c595760ca5460405163b133f4d360e01b81529190602090839060049082906001600160a01b03165afa8015610b7f575f90611c1e575b61102292506001600160a01b03918216911614611174565b506020823d602011611c51575b81611c3860209383610e54565b8101031261016257611c4c61102292611160565b611c06565b3d9150611c2b565b60405162461bcd60e51b81526020600482015260096024820152683737ba1037bbb732b960b91b6044820152606490fd5b6033546001600160a01b03163303611c9e57565b606460405162461bcd60e51b815260206004820152602060248201527f4f776e61626c653a2063616c6c6572206973206e6f7420746865206f776e65726044820152fd5b91611cec836120c1565b6001600160a01b0383165f5160206123995f395f51905f525f80a281511590811591611d69575b50611d1c575050565b6110c1915f8060405193611d31606086610e54565b602785525f5160206123f95f395f51905f526020860152660819985a5b195960ca1b6040860152602081519101845af4610b17612215565b90505f611d13565b603380546001600160a01b039283166001600160a01b0319821681179092559091165f5160206123795f395f51905f525f80a3565b51906001600160501b038216820361016257565b60ff16604d8111610ee257600a0a90565b600901546001600160a01b03168015611fa8575b6001600160a01b03168015611f6357604051633fabe5a360e21b81529060a082600481845afa918215610b7f575f92611f14575b505f821315611ed55760206004916040519283809263313ce56760e01b82525afa8015610b7f575f90611e98575b60ff1690506012811015611e6d576012039060ff8211610ee257611e6761128f92611dba565b90610f10565b60128111611e79575090565b601119019060ff8211610ee257611e9261128f92611dba565b90610f23565b506020813d602011611ecd575b81611eb260209383610e54565b81010312610162575160ff811681036101625760ff90611e41565b3d9150611ea5565b60405162461bcd60e51b8152602060048201526017602482015276496e76616c696420436861696e6c696e6b20707269636560481b6044820152606490fd5b90915060a0813d60a011611f5b575b81611f3060a09383610e54565b8101031261016257611f4181611da6565b50611f53608060208301519201611da6565b50905f611e13565b3d9150611f23565b60405162461bcd60e51b815260206004820152601d60248201527f4554482070726963652066656564206e6f7420636f6e666967757265640000006044820152606490fd5b5060cb546001600160a01b0316611ddf565b604051630956691360e21b81525f6004820181905260248201526020816044817381f22d0cc22977c91befe648c9fddf1f2bd977e55afa5f9181612003575b5061128f57505f90565b9091506020813d60201161202f575b8161201f60209383610e54565b810103126101625751905f611ff9565b3d9150612012565b1561203e57565b60405162461bcd60e51b815260206004820152602b60248201527f496e697469616c697a61626c653a20636f6e7472616374206973206e6f74206960448201526a6e697469616c697a696e6760a81b6064820152608490fd5b5190811515820361016257565b6103e88102908082046103e81490151715610ee257612710900490565b803b156120f6575f5160206123595f395f51905f5280546001600160a01b0319166001600160a01b0392909216919091179055565b60405162461bcd60e51b815260206004820152602d60248201527f455243313936373a206e657720696d706c656d656e746174696f6e206973206e60448201526c1bdd08184818dbdb9d1c9858dd609a1b6064820152608490fd5b906121989160018060a01b03165f806040519361216f604086610e54565b602085525f5160206123195f395f51905f52602086015260208151910182855af1610b17612215565b80519081159182156121f3575b5050156121ae57565b60405162461bcd60e51b815260206004820152602a60248201525f5160206123b95f395f51905f526044820152691bdd081cdd58d8d9595960b21b6064820152608490fd5b819250906020918101031261016257602061220e9101612097565b5f806121a5565b3d1561223f573d9061222682610e77565b916122346040519384610e54565b82523d5f602084013e565b606090565b919290156122a65750815115612258575090565b3b156122615790565b60405162461bcd60e51b815260206004820152601d60248201527f416464726573733a2063616c6c20746f206e6f6e2d636f6e74726163740000006044820152606490fd5b8251909150156122b95750805190602001fd5b604460209160405192839162461bcd60e51b83528160048401528051918291826024860152018484015e5f828201840152601f01601f19168101030190fdfe4910fdfa16fed3260ed0e7147f7cc6da11a60208b5b9406d12a635614ffd91435361666545524332303a206c6f772d6c6576656c2063616c6c206661696c656446756e6374696f6e206d7573742062652063616c6c6564207468726f75676820360894a13ba1a3210667c828492db98dca3e2076cc3735a920a3ca505d382bbc8be0079c531659141344cd1fd0a4f28419497f9722a3daafe3b4186f6b6457e0bc7cd75a20ee27fd9adebab32041f755214dbc6bffa90cc0225b39da2e5c2d3b5361666545524332303a204552433230206f7065726174696f6e20646964206e45524331393637557067726164653a20756e737570706f727465642070726f78416464726573733a206c6f772d6c6576656c2064656c65676174652063616c6c45524331393637557067726164653a206e657720696d706c656d656e74617469a26469706673582212202e1be05d7b978a1dd156484ec8f5cd404a7a935f618569663cce930f3f5be14a64736f6c634300081c0033","linkReferences":{}},"methodIdentifiers":{"accrueMarginFees()":"8d5b9a0a","adjustHedge(uint256)":"02161330","closeHedge()":"096d24a2","configureVault(address,address,address)":"b47657a9","defaultEthUsdFeed()":"60acf071","factory()":"c45a0155","getHedgeState(address)":"4ebc9be3","getHedgeValue(address)":"71ddae80","getImplementation()":"aaf10f42","initialize(address)":"c4d66de8","owner()":"8da5cb5b","proxiableUUID()":"52d1902d","renounceOwnership()":"715018a6","setEthUsdFeed(address,address)":"f5993c4e","transferOwnership(address)":"f2fde38b","upgradeTo(address)":"3659cfe6","upgradeToAndCall(address,bytes)":"4f1ef286","upgradeToLatest()":"367ad9e2"},"id":135}