{"abi":[{"type":"constructor","inputs":[{"name":"_usdc","type":"address","internalType":"address"}],"stateMutability":"nonpayable"},{"type":"function","name":"USDC","inputs":[],"outputs":[{"name":"","type":"address","internalType":"address"}],"stateMutability":"view"},{"type":"function","name":"accrueMarginFees","inputs":[],"outputs":[],"stateMutability":"nonpayable"},{"type":"function","name":"adjustHedge","inputs":[{"name":"","type":"uint256","internalType":"uint256"}],"outputs":[],"stateMutability":"nonpayable"},{"type":"function","name":"balances","inputs":[],"outputs":[{"name":"amount0","type":"uint256","internalType":"uint256"},{"name":"amount1","type":"uint256","internalType":"uint256"}],"stateMutability":"view"},{"type":"function","name":"calculateAMMDelta","inputs":[],"outputs":[{"name":"deltaETH","type":"uint256","internalType":"uint256"}],"stateMutability":"view"},{"type":"function","name":"controller","inputs":[],"outputs":[{"name":"","type":"address","internalType":"address"}],"stateMutability":"view"},{"type":"function","name":"deposit","inputs":[{"name":"assets","type":"uint256","internalType":"uint256"}],"outputs":[],"stateMutability":"nonpayable"},{"type":"function","name":"depositCancel","inputs":[],"outputs":[],"stateMutability":"nonpayable"},{"type":"function","name":"depositExecute","inputs":[],"outputs":[],"stateMutability":"nonpayable"},{"type":"function","name":"depositRegister","inputs":[{"name":"amount","type":"uint256","internalType":"uint256"}],"outputs":[],"stateMutability":"nonpayable"},{"type":"function","name":"doEmergencySwapAllToUSDC","inputs":[],"outputs":[],"stateMutability":"nonpayable"},{"type":"function","name":"doEmergencyWithdrawFromAMM","inputs":[],"outputs":[],"stateMutability":"nonpayable"},{"type":"function","name":"emergencyExit","inputs":[],"outputs":[],"stateMutability":"nonpayable"},{"type":"function","name":"emergencyExitTriggered","inputs":[],"outputs":[{"name":"","type":"bool","internalType":"bool"}],"stateMutability":"view"},{"type":"function","name":"executeConfigChange","inputs":[],"outputs":[],"stateMutability":"nonpayable"},{"type":"function","name":"factory","inputs":[],"outputs":[{"name":"","type":"address","internalType":"address"}],"stateMutability":"view"},{"type":"function","name":"getCurrentAMM","inputs":[],"outputs":[{"name":"","type":"tuple","internalType":"struct IHedgedVault.AMMPosition","components":[{"name":"liquidity","type":"uint256","internalType":"uint256"},{"name":"tickLower","type":"int24","internalType":"int24"},{"name":"tickUpper","type":"int24","internalType":"int24"},{"name":"feesEarned0","type":"uint256","internalType":"uint256"},{"name":"feesEarned1","type":"uint256","internalType":"uint256"}]}],"stateMutability":"pure"},{"type":"function","name":"getCurrentHedge","inputs":[],"outputs":[{"name":"","type":"tuple","internalType":"struct IHedgedVault.HedgePosition","components":[{"name":"isOpen","type":"bool","internalType":"bool"},{"name":"sizeUSD","type":"uint256","internalType":"uint256"},{"name":"collateralUSD","type":"uint256","internalType":"uint256"},{"name":"entryPrice","type":"uint256","internalType":"uint256"},{"name":"openedAt","type":"uint256","internalType":"uint256"},{"name":"marginFeesAccrued","type":"uint256","internalType":"uint256"}]}],"stateMutability":"view"},{"type":"function","name":"getImplementation","inputs":[],"outputs":[{"name":"","type":"address","internalType":"address"}],"stateMutability":"view"},{"type":"function","name":"getPendingStates","inputs":[],"outputs":[{"name":"depositAmount","type":"uint256","internalType":"uint256"},{"name":"depositPending","type":"bool","internalType":"bool"},{"name":"withdrawalAmount","type":"uint256","internalType":"uint256"},{"name":"withdrawalPending","type":"bool","internalType":"bool"},{"name":"swapToken0","type":"uint256","internalType":"uint256"},{"name":"swapToken1","type":"uint256","internalType":"uint256"},{"name":"swapRecipient","type":"address","internalType":"address"},{"name":"swapPending","type":"bool","internalType":"bool"},{"name":"deployAmount0","type":"uint256","internalType":"uint256"},{"name":"deployAmount1","type":"uint256","internalType":"uint256"},{"name":"deployPending","type":"bool","internalType":"bool"},{"name":"configType","type":"uint8","internalType":"uint8"},{"name":"configValue","type":"int256","internalType":"int256"},{"name":"configPending","type":"bool","internalType":"bool"}],"stateMutability":"view"},{"type":"function","name":"getVaultEquity","inputs":[],"outputs":[{"name":"","type":"uint256","internalType":"uint256"}],"stateMutability":"view"},{"type":"function","name":"harvest","inputs":[],"outputs":[{"name":"fees0","type":"uint256","internalType":"uint256"},{"name":"fees1","type":"uint256","internalType":"uint256"}],"stateMutability":"nonpayable"},{"type":"function","name":"initialize","inputs":[{"name":"_owner","type":"address","internalType":"address"},{"name":"_controller","type":"address","internalType":"address"},{"name":"_strategy","type":"address","internalType":"address"}],"outputs":[],"stateMutability":"nonpayable"},{"type":"function","name":"isPaused","inputs":[],"outputs":[{"name":"","type":"bool","internalType":"bool"}],"stateMutability":"view"},{"type":"function","name":"maxTotalAssets","inputs":[],"outputs":[{"name":"","type":"uint256","internalType":"uint256"}],"stateMutability":"view"},{"type":"function","name":"minDeposit","inputs":[],"outputs":[{"name":"","type":"uint256","internalType":"uint256"}],"stateMutability":"view"},{"type":"function","name":"owner","inputs":[],"outputs":[{"name":"","type":"address","internalType":"address"}],"stateMutability":"view"},{"type":"function","name":"paused","inputs":[],"outputs":[{"name":"","type":"bool","internalType":"bool"}],"stateMutability":"view"},{"type":"function","name":"pendingConfig","inputs":[],"outputs":[{"name":"changeType","type":"uint8","internalType":"uint8"},{"name":"value","type":"int256","internalType":"int256"},{"name":"isPending","type":"bool","internalType":"bool"}],"stateMutability":"view"},{"type":"function","name":"proxiableUUID","inputs":[],"outputs":[{"name":"","type":"bytes32","internalType":"bytes32"}],"stateMutability":"view"},{"type":"function","name":"queueConfigChange","inputs":[{"name":"changeType","type":"uint8","internalType":"uint8"},{"name":"value","type":"int256","internalType":"int256"}],"outputs":[],"stateMutability":"nonpayable"},{"type":"function","name":"rebalanceAMM","inputs":[],"outputs":[],"stateMutability":"nonpayable"},{"type":"function","name":"renounceOwnership","inputs":[],"outputs":[],"stateMutability":"nonpayable"},{"type":"function","name":"rescueTokens","inputs":[{"name":"token","type":"address","internalType":"address"},{"name":"to","type":"address","internalType":"address"}],"outputs":[],"stateMutability":"nonpayable"},{"type":"function","name":"setController","inputs":[{"name":"_controller","type":"address","internalType":"address"}],"outputs":[],"stateMutability":"nonpayable"},{"type":"function","name":"setMaxTotalAssets","inputs":[{"name":"_maxTotalAssets","type":"uint256","internalType":"uint256"}],"outputs":[],"stateMutability":"nonpayable"},{"type":"function","name":"setMinDeposit","inputs":[{"name":"_minDeposit","type":"uint256","internalType":"uint256"}],"outputs":[],"stateMutability":"nonpayable"},{"type":"function","name":"setPaused","inputs":[{"name":"_paused","type":"bool","internalType":"bool"}],"outputs":[],"stateMutability":"nonpayable"},{"type":"function","name":"setStrategyRewardPool","inputs":[{"name":"_rewardPool","type":"address","internalType":"address"}],"outputs":[],"stateMutability":"nonpayable"},{"type":"function","name":"strategy","inputs":[],"outputs":[{"name":"","type":"address","internalType":"contract IStrategyConcLiq"}],"stateMutability":"view"},{"type":"function","name":"totalShares","inputs":[],"outputs":[{"name":"","type":"uint256","internalType":"uint256"}],"stateMutability":"view"},{"type":"function","name":"transferOwnership","inputs":[{"name":"newOwner","type":"address","internalType":"address"}],"outputs":[],"stateMutability":"nonpayable"},{"type":"function","name":"uniswapV3SwapCallback","inputs":[{"name":"amount0Delta","type":"int256","internalType":"int256"},{"name":"amount1Delta","type":"int256","internalType":"int256"},{"name":"","type":"bytes","internalType":"bytes"}],"outputs":[],"stateMutability":"nonpayable"},{"type":"function","name":"upgradeTo","inputs":[{"name":"newImplementation","type":"address","internalType":"address"}],"outputs":[],"stateMutability":"nonpayable"},{"type":"function","name":"upgradeToAndCall","inputs":[{"name":"newImplementation","type":"address","internalType":"address"},{"name":"data","type":"bytes","internalType":"bytes"}],"outputs":[],"stateMutability":"payable"},{"type":"function","name":"upgradeToLatest","inputs":[],"outputs":[],"stateMutability":"nonpayable"},{"type":"function","name":"wants","inputs":[],"outputs":[{"name":"token0","type":"address","internalType":"address"},{"name":"token1","type":"address","internalType":"address"}],"stateMutability":"view"},{"type":"function","name":"withdraw","inputs":[{"name":"assets","type":"uint256","internalType":"uint256"}],"outputs":[],"stateMutability":"nonpayable"},{"type":"function","name":"withdrawCancel","inputs":[],"outputs":[],"stateMutability":"nonpayable"},{"type":"function","name":"withdrawExecute","inputs":[{"name":"minAmountOut","type":"uint256","internalType":"uint256"}],"outputs":[],"stateMutability":"nonpayable"},{"type":"function","name":"withdrawRegister","inputs":[{"name":"","type":"uint256","internalType":"uint256"},{"name":"","type":"address","internalType":"address"}],"outputs":[],"stateMutability":"pure"},{"type":"event","name":"AMMRebalanced","inputs":[{"name":"oldTickLower","type":"int24","indexed":false,"internalType":"int24"},{"name":"oldTickUpper","type":"int24","indexed":false,"internalType":"int24"},{"name":"newTickLower","type":"int24","indexed":false,"internalType":"int24"},{"name":"newTickUpper","type":"int24","indexed":false,"internalType":"int24"},{"name":"timestamp","type":"uint256","indexed":false,"internalType":"uint256"}],"anonymous":false},{"type":"event","name":"AdminChanged","inputs":[{"name":"previousAdmin","type":"address","indexed":false,"internalType":"address"},{"name":"newAdmin","type":"address","indexed":false,"internalType":"address"}],"anonymous":false},{"type":"event","name":"BeaconUpgraded","inputs":[{"name":"beacon","type":"address","indexed":true,"internalType":"address"}],"anonymous":false},{"type":"event","name":"ConfigExec","inputs":[{"name":"changeType","type":"uint8","indexed":true,"internalType":"uint8"},{"name":"value","type":"int256","indexed":false,"internalType":"int256"}],"anonymous":false},{"type":"event","name":"ConfigQueued","inputs":[{"name":"changeType","type":"uint8","indexed":true,"internalType":"uint8"},{"name":"value","type":"int256","indexed":false,"internalType":"int256"}],"anonymous":false},{"type":"event","name":"ControllerUpdated","inputs":[{"name":"oldController","type":"address","indexed":true,"internalType":"address"},{"name":"newController","type":"address","indexed":true,"internalType":"address"}],"anonymous":false},{"type":"event","name":"DepositCancelled","inputs":[{"name":"user","type":"address","indexed":true,"internalType":"address"}],"anonymous":false},{"type":"event","name":"DepositExecuted","inputs":[{"name":"user","type":"address","indexed":true,"internalType":"address"},{"name":"assets","type":"uint256","indexed":false,"internalType":"uint256"},{"name":"shares","type":"uint256","indexed":false,"internalType":"uint256"}],"anonymous":false},{"type":"event","name":"DepositQueued","inputs":[{"name":"user","type":"address","indexed":true,"internalType":"address"},{"name":"amount","type":"uint256","indexed":false,"internalType":"uint256"}],"anonymous":false},{"type":"event","name":"EmergencyExit","inputs":[{"name":"usdcRecovered","type":"uint256","indexed":false,"internalType":"uint256"},{"name":"timestamp","type":"uint256","indexed":false,"internalType":"uint256"}],"anonymous":false},{"type":"event","name":"FeesHarvested","inputs":[{"name":"fees0","type":"uint256","indexed":false,"internalType":"uint256"},{"name":"fees1","type":"uint256","indexed":false,"internalType":"uint256"},{"name":"timestamp","type":"uint256","indexed":false,"internalType":"uint256"}],"anonymous":false},{"type":"event","name":"HedgeAdjusted","inputs":[{"name":"oldSize","type":"uint256","indexed":false,"internalType":"uint256"},{"name":"newSize","type":"uint256","indexed":false,"internalType":"uint256"},{"name":"timestamp","type":"uint256","indexed":false,"internalType":"uint256"}],"anonymous":false},{"type":"event","name":"HedgeClosed","inputs":[{"name":"sizeUSD","type":"uint256","indexed":false,"internalType":"uint256"},{"name":"exitPrice","type":"uint256","indexed":false,"internalType":"uint256"},{"name":"pnl","type":"int256","indexed":false,"internalType":"int256"},{"name":"timestamp","type":"uint256","indexed":false,"internalType":"uint256"}],"anonymous":false},{"type":"event","name":"HedgeOpened","inputs":[{"name":"sizeUSD","type":"uint256","indexed":false,"internalType":"uint256"},{"name":"entryPrice","type":"uint256","indexed":false,"internalType":"uint256"},{"name":"timestamp","type":"uint256","indexed":false,"internalType":"uint256"}],"anonymous":false},{"type":"event","name":"Initialized","inputs":[{"name":"version","type":"uint8","indexed":false,"internalType":"uint8"}],"anonymous":false},{"type":"event","name":"OwnershipTransferred","inputs":[{"name":"previousOwner","type":"address","indexed":true,"internalType":"address"},{"name":"newOwner","type":"address","indexed":true,"internalType":"address"}],"anonymous":false},{"type":"event","name":"PauseChanged","inputs":[{"name":"paused","type":"bool","indexed":false,"internalType":"bool"}],"anonymous":false},{"type":"event","name":"Paused","inputs":[{"name":"account","type":"address","indexed":false,"internalType":"address"}],"anonymous":false},{"type":"event","name":"TokensRescued","inputs":[{"name":"token","type":"address","indexed":true,"internalType":"address"},{"name":"to","type":"address","indexed":true,"internalType":"address"},{"name":"amount","type":"uint256","indexed":false,"internalType":"uint256"}],"anonymous":false},{"type":"event","name":"Unpaused","inputs":[{"name":"account","type":"address","indexed":false,"internalType":"address"}],"anonymous":false},{"type":"event","name":"Upgraded","inputs":[{"name":"implementation","type":"address","indexed":true,"internalType":"address"}],"anonymous":false},{"type":"event","name":"WithdrawCancelled","inputs":[{"name":"user","type":"address","indexed":true,"internalType":"address"}],"anonymous":false},{"type":"event","name":"WithdrawExecuted","inputs":[{"name":"user","type":"address","indexed":true,"internalType":"address"},{"name":"shares","type":"uint256","indexed":false,"internalType":"uint256"},{"name":"assets","type":"uint256","indexed":false,"internalType":"uint256"},{"name":"recipient","type":"address","indexed":true,"internalType":"address"}],"anonymous":false},{"type":"event","name":"WithdrawFromAMMFailed","inputs":[],"anonymous":false},{"type":"event","name":"WithdrawQueued","inputs":[{"name":"user","type":"address","indexed":true,"internalType":"address"},{"name":"shares","type":"uint256","indexed":false,"internalType":"uint256"},{"name":"recipient","type":"address","indexed":true,"internalType":"address"}],"anonymous":false},{"type":"error","name":"BelowMin","inputs":[]},{"type":"error","name":"ConfigPending","inputs":[]},{"type":"error","name":"ExceedsMax","inputs":[]},{"type":"error","name":"HedgeAlreadyOpen","inputs":[]},{"type":"error","name":"InsufficientBalance","inputs":[]},{"type":"error","name":"InvalidAddress","inputs":[]},{"type":"error","name":"InvalidAmount","inputs":[]},{"type":"error","name":"InvalidConfig","inputs":[]},{"type":"error","name":"InvalidOperation","inputs":[]},{"type":"error","name":"InvalidStrategy","inputs":[]},{"type":"error","name":"InvalidSwapPool","inputs":[]},{"type":"error","name":"NoConfig","inputs":[]},{"type":"error","name":"NoHedgeOpen","inputs":[]},{"type":"error","name":"NotAuthorized","inputs":[]},{"type":"error","name":"NotCalm","inputs":[]},{"type":"error","name":"NotPaused","inputs":[]},{"type":"error","name":"NotPool","inputs":[]},{"type":"error","name":"OnlyController","inputs":[]},{"type":"error","name":"OnlyFactory","inputs":[]},{"type":"error","name":"OnlyOwner","inputs":[]},{"type":"error","name":"OnlySelf","inputs":[]},{"type":"error","name":"SlippageExceeded","inputs":[]},{"type":"error","name":"VaultPaused","inputs":[]}],"bytecode":{"object":"0x60c0346100c457601f613ef938819003918201601f19168301916001600160401b038311848410176100c8578084926020946040528339810103126100c457516001600160a01b03811681036100c4573060805260a052604051613e1c90816100dd823960805181818161160d0152818161172b0152611c71015260a05181818161062901528181610bff0152818161115c015281816113e0015281816120e5015281816125e801528181612cfc015281816133e9015281816134de01526137f50152f35b5f80fd5b634e487b7160e01b5f52604160045260245ffdfe60806040526004361015610011575f80fd5b5f5f3560e01c806302161330146123fb578063122b05ed146123d857806316c38b3c146122d75780631f48ddd81461206f57806321ec23b614611fce5780632e1a7d4d14611eb2578063357e637914611e9857806335ef572414611e0b5780633659cfe614611c53578063367ad9e214611b045780633a98ef3914611ae657806341b3d18514611ac85780634641257d14611999578063481488ae146119245780634cf1f49b146118b35780634f1ef286146116b857806352d1902d146115fa5780635431c94e146114f15780635641ec031461132b5780635c975abb14610f095780635f785a5c1461130b57806365844934146112d8578063715018a61461128e57806371bc9aae1461120657806373c6a288146111cc5780637bb98a68146111a5578063806079521461118b57806389a30271146111465780638d5b9a0a1461112d5780638da5cb5b146111045780638fcc9cfb146110cb57806392eefe9b14611059578063a5d993ac1461102a578063a8c62e7614610ffc578063aaf10f4214610fc7578063ab465a2a14610f2c578063b187bd2614610f09578063b6b55f251461057f578063bc2e47b714610ee5578063c0c53b8b14610c90578063c45a015514610c66578063cc28f73d14610ba2578063d52b1a8814610ab9578063d820f49214610a9a578063ec8e6d2a146107cd578063f24e8f2c146107aa578063f2fde38b14610719578063f65550821461057f578063f77c479114610555578063fa461e331461037d5763fcc47ed21461024b575f80fd5b3461037a578060031936011261037a5761012d546001600160a01b0316330361036b57610276612889565b60016101375460a01c161561035c57610136546065546001600160a01b0316907fcf75a80a22cde0edcefe708f860e644c73eb8921aac7890f3bec010eef965f64906040906001600160801b03166102cd8161346a565b5050610130546102db612562565b8280821115610353576102ed91612518565b905b82918115158061034a575b61032a575b508161030a9161250b565b610130558561013655856101375582519182526020820152a26001805580f35b8192506103439061033e61030a93866124f8565b612525565b91906102ff565b508015156102fa565b505085906102ef565b631cc6a69960e11b8152600490fd5b635990781360e01b8152600490fd5b80fd5b503461037a57606036600319011261037a576004356024356044356001600160401b03811161055157366023820112156105515760048101356001600160401b03811161054d573691016024011161054957610138546040516316f0115b60e01b8152906020908290600490829060081c6001600160a01b03165afa90811561053e57849161051f575b506001600160a01b0381163381900361051057604051630dfe168160e01b815293602085600481855afa9182156104e35760049587936104ee575b506020906040519687809263d21220a760e01b82525afa9485156104e35786956104b2575b5082868213610498575b50505083821361047f578380f35b610491926001600160a01b0316612e49565b5f80808380f35b6104aa926001600160a01b0316612e49565b5f8082610471565b6104d591955060203d6020116104dc575b6104cd81836124a5565b810190612543565b935f610467565b503d6104c3565b6040513d88823e3d90fd5b602091935061050990823d84116104dc576104cd81836124a5565b9290610442565b636f61f64160e01b8552600485fd5b610538915060203d6020116104dc576104cd81836124a5565b5f610407565b6040513d86823e3d90fd5b8280fd5b8480fd5b8380fd5b503461037a578060031936011261037a5761012d546040516001600160a01b039091168152602090f35b503461037a57602036600319011261037a5760043561059c612e89565b6105a4612889565b6065546001600160a01b031633036106ec5760ff6101375460a01c166106ec5761012f54811061070a576105df816105da612562565b61250b565b61012e54106106fb5760ff61013854166106ec576106566040516323b872dd60e01b6020820152336024820152306044820152826064820152606481526106276084826124a5565b7f00000000000000000000000000000000000000000000000000000000000000006001600160a01b0316613991565b6040516001600160801b0382169060019060609061067381612440565b8381526020808201879052604080830188905292909101929092526101369290925561013780546001600160a81b031916600160a01b17905560655491519283526001600160a01b0391909116917f39b741a94a004f4e0edfdc3c607302b8ccb1b8c4c5a9b5f761fec94a116921fb9190a26001805580f35b631cc6a69960e11b8252600482fd5b6395e28b8560e01b8252600482fd5b6310906acb60e01b8252600482fd5b503461037a57602036600319011261037a57610733612414565b61073b612831565b6001600160a01b0381161561075657610753906131f8565b80f35b60405162461bcd60e51b815260206004820152602660248201527f4f776e61626c653a206e6577206f776e657220697320746865207a65726f206160448201526564647265737360d01b6064820152608490fd5b503461037a578060031936011261037a5760206107c561336e565b604051908152f35b503461037a578060031936011261037a5761012d546001600160a01b0316330361036b5760ff61013c541615610a8b5760ff61013a541661013b5460018214808091610a11575b610a025761013a84905561013b84905561013c8490556101385460081c6001600160a01b031690156108e457627fffff19821280156108d8575b6108c9578084913b156108c5578180916024604051809481936312cf138160e01b83528860020b60048401525af180156108ba576108a5575b505060205f516020613d275f395f51905f52915b604051908152a280f35b816108af916124a5565b61054957825f610887565b6040513d84823e3d90fd5b5080fd5b6306b7c75960e31b8452600484fd5b50627fffff821361084e565b6002830361097457667fffffffffffff1982128015610964575b6108c9578084913b156108c557818091602460405180948193631b16146360e11b83528860060b60048401525af180156108ba5761094f575b505060205f516020613d275f395f51905f529161089b565b81610959916124a5565b61054957825f610937565b50667fffffffffffff82136108fe565b60038314610994575b5060205f516020613d275f395f51905f529161089b565b83821280156109f5575b6108c9578084913b156108c557818091602460405180948193631d27050f60e01b835263ffffffff891660048401525af180156108ba576109e0575b5061097d565b816109ea916124a5565b61054957825f6109da565b5063ffffffff821161099e565b6313643c3b60e11b8452600484fd5b5061013854604051639bdde46b60e01b8152906020908290600490829060081c6001600160a01b03165afa908115610a80578591610a51575b5015610814565b610a73915060203d602011610a79575b610a6b81836124a5565b810190612819565b5f610a4a565b503d610a61565b6040513d87823e3d90fd5b63036764e560e21b8152600490fd5b503461037a578060031936011261037a57602061012e54604051908152f35b503461037a57604036600319011261037a5760043560ff81168091036108c557602435610ae4612831565b8115610b935760ff61013c5416610b8457604051606081016001600160401b03811182821017610b705791600160406020937f2a45aecb5e74807f4204a70f50428bc49db88ba8b1799808a3b23dda36ad3e30958252868152838582015201528360ff1961013a54161761013a558061013b55600160ff1961013c54161761013c55604051908152a280f35b634e487b7160e01b85526041600452602485fd5b637ed27eb760e01b8352600483fd5b6306b7c75960e31b8352600483fd5b503461037a578060031936011261037a57610bbb612889565b60016101375460a01c161561035c57610136546065546001600160a01b0316906001600160801b031633829003610c5757610136839055610137839055610c2c90827f00000000000000000000000000000000000000000000000000000000000000006001600160a01b0316612e49565b7f315b8a0ece450231870bda1ecceeabdc74b6d0e53d6eb663bb910e3a6f42d6f18280a26001805580f35b631cc6a69960e11b8352600483fd5b503461037a578060031936011261037a57610139546040516001600160a01b039091168152602090f35b503461037a57606036600319011261037a57610caa612414565b610cb261242a565b6044356001600160a01b038116919082810361054d5784549160ff8360081c161592838094610ed8575b8015610ec1575b15610e655760ff198116600117875583610e54575b506001600160a01b03851615610e45576001600160a01b0316938415610e4557610d4390610d3560ff885460081c16610d3081613b03565b613b03565b610d3e336131f8565b6131f8565b845492610d7860ff8560081c16610d5981613b03565b610d6281613b03565b60018055610d6f81613b03565b610d3081613b03565b60fb805460ff1916905561012d80546001600160a01b031916861790555f1961012e556298968061012f5560405194865f516020613c675f395f51905f528180a315610e36576101388054610100600160a81b03191660089290921b610100600160a81b031691909117905561013980546001600160a01b03191633179055610dff578280f35b61ff0019168255600181527f7f26b83ff96e1f2b6a682f133852f6798a09c465da95921460cefb384740249890602090a15f808280f35b632711b74d60e11b8552600485fd5b63e6c4247b60e01b8652600486fd5b61ffff19166101011786555f610cf8565b60405162461bcd60e51b815260206004820152602e60248201527f496e697469616c697a61626c653a20636f6e747261637420697320616c72656160448201526d191e481a5b9a5d1a585b1a5e995960921b6064820152608490fd5b50303b158015610ce35750600160ff821614610ce3565b50600160ff821610610cdc565b503461037a57602036600319011261037a57610eff612831565b60043561012e5580f35b503461037a578060031936011261037a57602060ff60fb54166040519015158152f35b503461037a578060031936011261037a578060c09160a0604051610f4f8161248a565b8281528260208201528260408201528260608201528260808201520152604051610f788161248a565b818152602081019082825260408101838152606082019084825260a0608084019386855201938585526040519586525160208601525160408501525160608401525160808301525160a0820152f35b503461037a578060031936011261037a575f516020613cc75f395f51905f52546040516001600160a01b039091168152602090f35b503461037a578060031936011261037a576101385460405160089190911c6001600160a01b03168152602090f35b503461037a578060031936011261037a5730330361104a5761075361322d565b63029a949d60e31b8152600490fd5b503461037a57602036600319011261037a57611073612414565b61107b612831565b6001600160a01b031680156110bc5761012d80546001600160a01b0319811683179091556001600160a01b03165f516020613c675f395f51905f528380a380f35b63e6c4247b60e01b8252600482fd5b503461037a57602036600319011261037a576004356110e8612831565b80156110f55761012f5580f35b63162908e360e11b8252600482fd5b503461037a578060031936011261037a576065546040516001600160a01b039091168152602090f35b503461037a578060031936011261037a576107536124e3565b503461037a578060031936011261037a576040517f00000000000000000000000000000000000000000000000000000000000000006001600160a01b03168152602090f35b503461037a57604036600319011261037a576108c561242a565b503461037a578060031936011261037a5760406111c0612ecd565b82519182526020820152f35b503461037a578060031936011261037a57606060ff61013a541661013b5460ff61013c541690604051928352602083015215156040820152f35b503461037a57602036600319011261037a5780611221612414565b611229612831565b6101385460081c6001600160a01b031690813b1561128a576040516378238c3760e01b81526001600160a01b0390911660048201529082908290602490829084905af180156108ba576112795750f35b81611283916124a5565b61037a5780f35b5050fd5b503461037a578060031936011261037a576112a7612831565b606580546001600160a01b0319811690915581906001600160a01b03165f516020613ce75f395f51905f528280a380f35b503461037a578060031936011261037a5760406112f361276f565b82516001600160a01b03928316815291166020820152f35b503461037a578060031936011261037a5730330361104a57610753612cb6565b503461037a578060031936011261037a57611344612831565b600160ff196101385416176101385561135b612e89565b600160ff1960fb54161760fb555f516020613d475f395f51905f526020604051338152a1303b1561037a5760405163297664eb60e21b81528190818160048183305af16114dc575b5050303b1561037a576040516317de169760e21b81528190818160048183305af16114c7575b50506040516370a0823160e01b81523060048201527f00000000000000000000000000000000000000000000000000000000000000006001600160a01b031690602081602481855afa9081156114bc578391611479575b50805f516020613ca75f395f51905f52928160409361145a575b50508361013055836101365583610137558151908152426020820152a180f35b606554611472926001600160a01b0390911690612e49565b5f8161143a565b90506020813d6020116114b4575b81611494602093836124a5565b810103126114b057515f516020613ca75f395f51905f52611420565b5f80fd5b3d9150611487565b6040513d85823e3d90fd5b816114d1916124a5565b61037a57805f6113c9565b816114e6916124a5565b61037a57805f6113a3565b503461037a57604036600319011261037a5761150b612414565b61151361242a565b61151b612831565b60ff610138541615610c57576001600160a01b0381169182156115eb576040516370a0823160e01b81523060048201526001600160a01b039190911691602082602481865afa918215610a805785926115b7575b5081611579578480f35b816115a87f77023e19c7343ad491fd706c36335ca0e738340a91f29b1fd81e2673d44896c49360209386612e49565b604051908152a35f8080808480f35b9091506020813d6020116115e3575b816115d3602093836124a5565b810103126114b05751905f61156f565b3d91506115c6565b63e6c4247b60e01b8452600484fd5b503461037a578060031936011261037a577f00000000000000000000000000000000000000000000000000000000000000006001600160a01b031630036116525760206040515f516020613cc75f395f51905f528152f35b60405162461bcd60e51b815260206004820152603860248201527f555550535570677261646561626c653a206d757374206e6f742062652063616c6044820152771b1959081d1a1c9bdd59da0819195b1959d85d1958d85b1b60421b6064820152608490fd5b50604036600319011261037a576116cd612414565b602435906001600160401b038211610549573660238301121561054957828260040135926116fa846124c8565b9361170860405195866124a5565b80855236602482840101116105495780602460209301838701378401015261177d7f00000000000000000000000000000000000000000000000000000000000000006001600160a01b031661175f308214156126d3565b5f516020613cc75f395f51905f52546001600160a01b031614612721565b611786816130b6565b5f516020613c475f395f51905f525460ff16156117a7576107539150613a73565b6040516352d1902d60e01b81526020816004816001600160a01b0386165afa84918161187f575b5061181c5760405162461bcd60e51b815260206004820152602e60248201525f516020613dc75f395f51905f5260448201526d6f6e206973206e6f74205555505360901b6064820152608490fd5b5f516020613cc75f395f51905f520361183b5761075391600191613166565b60405162461bcd60e51b815260206004820152602960248201525f516020613d875f395f51905f526044820152681a58589b195555525160ba1b6064820152608490fd5b9091506020813d6020116118ab575b8161189b602093836124a5565b8101031261054d5751905f6117ce565b3d915061188e565b503461037a578060031936011261037a576118cc612889565b60026101375460a01c161561035c576065546001600160a01b0316338190036106ec57816101365581610137557f8b775bb80a5d4addc5ea2601b2378ae89a1bb9010227157ac02aa71498e799c48280a26001805580f35b503461037a578060031936011261037a5761012d546001600160a01b0316330361036b57611950612889565b7f1375724ea5b49914df0f50564c7584995f701511abaf28b91e714cea23cee49960a0604051838152836020820152836040820152836060820152426080820152a16001805580f35b50346114b0575f3660031901126114b05761012d546001600160a01b03163303611ab9576119c5612889565b6101385460081c6001600160a01b0316803b156114b0575f8091600460405180948193630beebd3960e11b83525af18015611aae57611a9b575b5061013854819060081c6001600160a01b0316803b15611a98578190600460405180948193630d0e30db60e41b83525af180156108ba57611a83575b6040827f68d793b46909dd71f01302cc73514e67391ab192095cf26aec99f08ccca271e2606083518381528360208201524285820152a1600180558151908082526020820152f35b611a8e8280926124a5565b61037a575f611a3b565b50fd5b611aa791505f906124a5565b5f5f6119ff565b6040513d5f823e3d90fd5b635990781360e01b5f5260045ffd5b346114b0575f3660031901126114b057602061012f54604051908152f35b346114b0575f3660031901126114b057602061013054604051908152f35b346114b0575f3660031901126114b057611b1c612831565b6101395460405163b133f4d360e01b815290602090829060049082906001600160a01b03165afa908115611aae575f91611c34575b506001600160a01b0381169081151580611c13575b611b6c57005b611b75816130b6565b60405190611b846020836124a5565b5f808352602083019390368537611b9a82613a73565b5f516020613d075f395f51905f525f80a2815115801590611c0c575b611bbd575b005b5f80611bbb9460405194611bd26060876124a5565b602786525f516020613da75f395f51905f526020870152660819985a5b195960ca1b60408701525190845af4611c06613b63565b91613b92565b505f611bb6565b505f516020613cc75f395f51905f52546001600160a01b0316821415611b66565b611c4d915060203d6020116104dc576104cd81836124a5565b81611b51565b346114b05760203660031901126114b057611c6c612414565b611ca57f00000000000000000000000000000000000000000000000000000000000000006001600160a01b031661175f308214156126d3565b611cae816130b6565b604051906020611cbe81846124a5565b5f8352601f19810136828501375f516020613c475f395f51905f525460ff1615611ced5750611bbb9150613a73565b6040516352d1902d60e01b815290919082816004816001600160a01b0386165afa5f9181611ddc575b50611d645760405162461bcd60e51b815260048101849052602e60248201525f516020613dc75f395f51905f5260448201526d6f6e206973206e6f74205555505360901b6064820152608490fd5b9091907fc9f76b5ec45e5cdef99837d7b6d2467235c1df8933c8ca56df5c35afa2c7d44401611d995750611bbb915f91613166565b6084906040519062461bcd60e51b82526004820152602960248201525f516020613d875f395f51905f526044820152681a58589b195555525160ba1b6064820152fd5b9091508381813d8311611e04575b611df481836124a5565b810103126114b057519085611d16565b503d611dea565b346114b0575f3660031901126114b0575f6080604051611e2a8161246f565b828152826020820152826040820152826060820152015260a0604051611e4f8161246f565b5f815260208101905f825260408101905f8252608060608201915f835201915f8352604051935f85525160020b60208501525160020b6040840152516060830152516080820152f35b346114b0575f3660031901126114b05760206107c5612562565b346114b05760203660031901126114b057600435611ece612e89565b611ed6612889565b60655481906001600160a01b03163303611fbf5760ff6101375460a01c16611fbf5760ff6101385416611fbf57611f0b612562565b908115611fbf578110611fb7575b5060026060604051611f2a81612440565b5f81526001600160801b0384166020808301919091523360408084018290529390920193909352608084901b6001600160801b03191661013655610137805460ff60a01b1983166001600160a81b031990911617600160a11b17905590519283529182917f1d78e54183f79519732f07b15f3311310b120b8286121dea10e65ba6bb03a22391a360018055005b905081611f19565b631cc6a69960e11b5f5260045ffd5b346114b0575f3660031901126114b0576101c0610136546101375460a01c60ff61013a541661013b5490600260ff61013c5416936040519560018060801b0381168752600182161515602088015260801c604087015216151560608501525f60808501525f60a08501525f60c08501525f60e08501525f6101008501525f6101208501525f61014085015261016084015261018083015215156101a0820152f35b346114b05760203660031901126114b05761012d546001600160a01b03163303611ab95761209b612889565b6101375460028160a01c1615611fbf5760018060a01b031660018060a01b03606554166101365460801c6101305480612263575b506040516370a0823160e01b81523060048201527f00000000000000000000000000000000000000000000000000000000000000006001600160a01b031690602081602481855afa908115611aae575f91612231575b508083111561222a576121389083612518565b8061221b575b50612147612cb6565b6040516370a0823160e01b815230600482015291602083602481855afa928315611aae575f936121e7575b5060043583106121d8578260409281877f5809abf1a3b5a41e977dcbb37cad51dcd19fa047fea1828fc2edf10961d3b308966121c7575b5050505f610136555f6101375582519182526020820152a360018055005b6121d092612e49565b8681876121a9565b631e9acf1760e31b5f5260045ffd5b9092506020813d602011612213575b81612203602093836124a5565b810103126114b057519185612172565b3d91506121f6565b612224906128f5565b5061213e565b505f612138565b90506020813d60201161225b575b8161224c602093836124a5565b810103126114b0575185612125565b3d915061223f565b61226b612562565b9081156122cc57612280826105da83866124f8565b5f1981019081116122b8576122a69261229891612525565b905b8082116122b057612518565b61013055836120cf565b905080612518565b634e487b7160e01b5f52601160045260245ffd5b6122a691508061229a565b346114b05760203660031901126114b057600435801515908181036114b0576122fe612831565b156123495760205f516020613d675f395f51905f529161231c612e89565b600160ff1960fb54161760fb555f516020613d475f395f51905f5282604051338152a15b604051908152a1005b60fb5460ff81161561239c575f516020613d675f395f51905f529160209160ff191660fb557f5db9ee0a495bf2e6ff9c91a7834c1ba4fdd244a5e8aa4e537bd38aeae4b073aa82604051338152a1612340565b60405162461bcd60e51b815260206004820152601460248201527314185d5cd8589b194e881b9bdd081c185d5cd95960621b6044820152606490fd5b346114b0575f3660031901126114b057602060ff61013854166040519015158152f35b346114b05760203660031901126114b057611bbb6124e3565b600435906001600160a01b03821682036114b057565b602435906001600160a01b03821682036114b057565b608081019081106001600160401b0382111761245b57604052565b634e487b7160e01b5f52604160045260245ffd5b60a081019081106001600160401b0382111761245b57604052565b60c081019081106001600160401b0382111761245b57604052565b601f909101601f19168101906001600160401b0382119082101761245b57604052565b6001600160401b03811161245b57601f01601f191660200190565b61012d546001600160a01b03163303611ab957565b818102929181159184041417156122b857565b919082018092116122b857565b919082039182116122b857565b811561252f570490565b634e487b7160e01b5f52601260045260245ffd5b908160209103126114b057516001600160a01b03811681036114b05790565b61256a612ecd565b908015806126cb575b6126c5576101385460405163501ad8ff60e11b8152929060081c6001600160a01b0316602084600481845afa938415611aae575f94612691575b5083156126895760206004916040519283809263017b859f60e61b82525afa908115611aae575f9161266a575b506001600160a01b039081167f000000000000000000000000000000000000000000000000000000000000000090911603612646576a0c097ce7bc90715b34b9f160241b81810291801590830490911417156122b8576126439261263d91612525565b9061250b565b90565b90612663612643936a0c097ce7bc90715b34b9f160241b926124f8565b049061250b565b612683915060203d6020116104dc576104cd81836124a5565b5f6125da565b505050505f90565b9093506020813d6020116126bd575b816126ad602093836124a5565b810103126114b05751925f6125ad565b3d91506126a0565b50505f90565b508115612573565b156126da57565b60405162461bcd60e51b815260206004820152602c60248201525f516020613c875f395f51905f5260448201526b19195b1959d85d1958d85b1b60a21b6064820152608490fd5b1561272857565b60405162461bcd60e51b815260206004820152602c60248201525f516020613c875f395f51905f5260448201526b6163746976652070726f787960a01b6064820152608490fd5b6101385460081c6001600160a01b03168061278b57505f905f90565b60405163017b859f60e61b81529190602083600481845afa908115611aae576004935f926127f7575b50602090604051948580926343bab15b60e11b82525afa928315611aae575f936127dd57509190565b61264391935060203d6020116104dc576104cd81836124a5565b602091925061281290823d84116104dc576104cd81836124a5565b91906127b4565b908160209103126114b0575180151581036114b05790565b6065546001600160a01b0316330361284557565b606460405162461bcd60e51b815260206004820152602060248201527f4f776e61626c653a2063616c6c6572206973206e6f7420746865206f776e65726044820152fd5b60026001541461289a576002600155565b60405162461bcd60e51b815260206004820152601f60248201527f5265656e7472616e637947756172643a207265656e7472616e742063616c6c006044820152606490fd5b91908260409103126114b0576020825192015190565b6101385490915f9160081c6001600160a01b0316803b156114b0575f8091600460405180948193630beebd3960e11b83525af18015611aae57612ca1575b506101385460408051630f77314d60e31b815260089290921c6001600160a01b0316949082600481885afa91821561053e5784908593612c6d575b50801580612c65575b612c5b57612983613751565b918215612c5057829181836129b09561033e9411612c48575b61033e826129aa93946124f8565b946124f8565b9260405163017b859f60e61b8152602081600481895afa9081156108ba578291612c29575b506040516343bab15b60e11b8152906020826004818a5afa9182156114bc578392612c08575b506040516370a0823160e01b81523060048201526001600160a01b03919091169690916020836024818b5afa92831561053e578493612bd4575b506040516370a0823160e01b81523060048201526001600160a01b03919091169690946020866024818b5afa958615610a80578596612ba0575b50823b1561054d579060448592836040519586948593630441a3e760e41b8552600485015260248401525af180156114bc57612b8b575b5060206024949596604051958680926370a0823160e01b82523060048301525afa9384156108ba578294612b55575b50612ae4602091602495612518565b95604051948580926370a0823160e01b82523060048301525afa908115612b495790612b15575b6126439250612518565b506020823d602011612b41575b81612b2f602093836124a5565b810103126114b0576126439151612b0b565b3d9150612b22565b604051903d90823e3d90fd5b93506020843d602011612b83575b81612b70602093836124a5565b810103126114b057925192612ae4612ad5565b3d9150612b63565b612b968380926124a5565b6108c5575f612aa6565b9095506020813d602011612bcc575b81612bbc602093836124a5565b810103126114b05751945f612a6f565b3d9150612baf565b9092506020813d602011612c00575b81612bf0602093836124a5565b810103126114b05751915f612a35565b3d9150612be3565b612c2291925060203d6020116104dc576104cd81836124a5565b905f6129fb565b612c42915060203d6020116104dc576104cd81836124a5565b5f6129d5565b90508061299c565b509394508493505050565b5092935083925050565b508215612977565b9050612c9291925060403d604011612c9a575b612c8a81836124a5565b8101906128df565b91905f61296e565b503d612c80565b612cae9192505f906124a5565b5f905f612933565b6101385460405163017b859f60e61b815260089190911c6001600160a01b031690602081600481855afa908115611aae575f91612e2a575b506001600160a01b038181167f000000000000000000000000000000000000000000000000000000000000000090911603612e2557506040516343bab15b60e11b8152602081600481855afa908115611aae575f91612e06575b505b6040516370a0823160e01b8152306004820152906020826024816001600160a01b0385165afa918215611aae575f92612dcf575b506020600493604051948580926316f0115b60e01b82525afa8015611aae57612dae935f91612db0575b50613873565b565b612dc9915060203d6020116104dc576104cd81836124a5565b5f612da8565b9291506020833d602011612dfe575b81612deb602093836124a5565b810103126114b057915190916020612d7e565b3d9150612dde565b612e1f915060203d6020116104dc576104cd81836124a5565b5f612d48565b612d4a565b612e43915060203d6020116104dc576104cd81836124a5565b5f612cee565b60405163a9059cbb60e01b60208201526001600160a01b039092166024830152604480830193909352918152612dae91612e846064836124a5565b613991565b60ff60fb5416612e9557565b60405162461bcd60e51b815260206004820152601060248201526f14185d5cd8589b194e881c185d5cd95960821b6044820152606490fd5b6101385460408051630f77314d60e31b815260089290921c6001600160a01b0316929082600481865afa8015611aae575f925f91613091575b5060405163017b859f60e61b815292602084600481885afa938415611aae575f9461306e575b50602060049495604051958680926343bab15b60e11b82525afa938415611aae575f94613049575b506040516370a0823160e01b81523060048201529394929392602090849060249082906001600160a01b03165afa928315611aae575f93613013575b50612f9f60249360209261250b565b6040516370a0823160e01b815230600482015290959093849182906001600160a01b03165afa908115611aae575f91612fdd575b612643925061250b565b90506020823d60201161300b575b81612ff8602093836124a5565b810103126114b057612643915190612fd3565b3d9150612feb565b92506020833d602011613041575b8161302e602093836124a5565b810103126114b057915191612f9f612f90565b3d9150613021565b6024939450613066602091823d84116104dc576104cd81836124a5565b949350612f54565b6004945061308a602091823d84116104dc576104cd81836124a5565b9450612f2c565b90506130ad91925060403d604011612c9a57612c8a81836124a5565b9190915f612f06565b6101395460405163b133f4d360e01b81529190602090839060049082906001600160a01b03165afa918215611aae575f92613145575b506001600160a01b03908116911681148015919061313c575b5061312d576065546001600160a01b0316330361311e57565b63ea8e4eb560e01b5f5260045ffd5b632711b74d60e11b5f5260045ffd5b9050155f613105565b61315f91925060203d6020116104dc576104cd81836124a5565b905f6130ec565b9161317083613a73565b6001600160a01b0383165f516020613d075f395f51905f525f80a2815115908115916131f0575b506131a0575050565b6131ed915f80604051936131b56060866124a5565b602785525f516020613da75f395f51905f526020860152660819985a5b195960ca1b6040860152602081519101845af4611c06613b63565b50565b90505f613197565b606580546001600160a01b039283166001600160a01b0319821681179092559091165f516020613ce75f395f51905f525f80a3565b6101385460408051630f77314d60e31b81525f92909160089190911c6001600160a01b03169082600481845afa908115611aae575f925f9261334a575b50821580613342575b61333c57803b156114b0575f8091600460405180948193630beebd3960e11b83525af18015611aae57613327575b506101385460081c6001600160a01b031691823b1561055157839160448392836040519687948593630441a3e760e41b8552600485015260248401525af19182613312575b50506131ed57807fc934a2e092e37cdb20f410ba7f032dc2a47a3bb4f4137bff67faf9274a71a1f291a1565b8161331c916124a5565b6108c557815f6132e6565b6133349193505f906124a5565b5f915f6132a1565b50505050565b508115613273565b909250613366915060403d604011612c9a57612c8a81836124a5565b90915f61326a565b6101385460408051630f77314d60e31b815260089290921c6001600160a01b0316919081600481855afa918215611aae575f915f93613447575b5081158061343f575b6134385760206004916040519283809263017b859f60e61b82525afa908115611aae575f91613419575b506001600160a01b039081167f000000000000000000000000000000000000000000000000000000000000000090911603613414575090565b905090565b613432915060203d6020116104dc576104cd81836124a5565b5f6133db565b5050505f90565b5082156133b1565b909250613463915060403d604011612c9a57612c8a81836124a5565b915f6133a8565b6101385460405163017b859f60e61b8152919260089190911c6001600160a01b0316915f90602081600481875afa908115611aae575f91613732575b506040516343bab15b60e11b815294602086600481885afa918215611aae576024965f93613711575b506001600160a01b03818116927f000000000000000000000000000000000000000000000000000000000000000090911683811492831561370957506020855b6040516370a0823160e01b81523060048201529a8b9182906001600160a01b03165afa988915611aae575f996136ce575b5090602060249392604051948580926370a0823160e01b82523060048301525afa928315611aae575f9361369a575b50808311613692575b501561368c5795945b861580613684575b61367857803b156114b0575f8091600460405180948193630beebd3960e11b83525af18015611aae57613663575b50858061363f575b50508380613619575b50506101385460081c6001600160a01b0316803b156108c557818091600460405180948193630d0e30db60e41b83525af180156108ba57613607575050565b6136128280926124a5565b61037a5750565b61013854613638926001600160a01b0360089290921c82169116612e49565b5f836135c8565b6101385461365c9260089190911c6001600160a01b031690612e49565b5f856135bf565b6136709193505f906124a5565b5f915f6135b7565b505f9550859450505050565b508515613589565b94613581565b91505f613578565b9092506020813d6020116136c6575b816136b6602093836124a5565b810103126114b05751915f61356f565b3d91506136a9565b92919098506020833d602011613701575b816136ec602093836124a5565b810103126114b0579151979091906020613540565b3d91506136df565b60209061350f565b61372b91935060203d6020116104dc576104cd81836124a5565b915f6134cf565b61374b915060203d6020116104dc576104cd81836124a5565b5f6134a6565b6101385460408051630f77314d60e31b815260089290921c6001600160a01b0316919081600481855afa8015611aae575f915f91613852575b5081158061384a575b6134385760405163501ad8ff60e11b815292602084600481845afa938415611aae575f94612691575083156126895760206004916040519283809263017b859f60e61b82525afa908115611aae575f9161266a57506001600160a01b039081167f000000000000000000000000000000000000000000000000000000000000000090911603612646576a0c097ce7bc90715b34b9f160241b81810291801590830490911417156122b8576126439261263d91612525565b508015613793565b905061386d915060403d604011612c9a57612c8a81836124a5565b5f61378a565b821561398c576001600160a01b031691821561397d57604051630dfe168160e01b8152602081600481875afa928315611aae5760409360c4925f9161395e575b506001600160a01b039182169116148015613942575f6401000276a4955b85519687958694630251596160e31b86523060048701526024860152604485015260018060a01b0316606484015260a060848401528160a48401525af18015611aae5761391b5750565b604090813d831161393b575b61393181836124a5565b810103126114b057565b503d613927565b5f73fffd8963efd1fc6a506488495d951d5263988d25956138d1565b613977915060203d6020116104dc576104cd81836124a5565b5f6138b3565b638b5f53cb60e01b5f5260045ffd5b505050565b906139eb9160018060a01b03165f80604051936139af6040866124a5565b602085527f5361666545524332303a206c6f772d6c6576656c2063616c6c206661696c6564602086015260208151910182855af1611c06613b63565b8051908115918215613a59575b505015613a0157565b60405162461bcd60e51b815260206004820152602a60248201527f5361666545524332303a204552433230206f7065726174696f6e20646964206e6044820152691bdd081cdd58d8d9595960b21b6064820152608490fd5b613a6c9250602080918301019101612819565b5f806139f8565b803b15613aa8575f516020613cc75f395f51905f5280546001600160a01b0319166001600160a01b0392909216919091179055565b60405162461bcd60e51b815260206004820152602d60248201527f455243313936373a206e657720696d706c656d656e746174696f6e206973206e60448201526c1bdd08184818dbdb9d1c9858dd609a1b6064820152608490fd5b15613b0a57565b60405162461bcd60e51b815260206004820152602b60248201527f496e697469616c697a61626c653a20636f6e7472616374206973206e6f74206960448201526a6e697469616c697a696e6760a81b6064820152608490fd5b3d15613b8d573d90613b74826124c8565b91613b8260405193846124a5565b82523d5f602084013e565b606090565b91929015613bf45750815115613ba6575090565b3b15613baf5790565b60405162461bcd60e51b815260206004820152601d60248201527f416464726573733a2063616c6c20746f206e6f6e2d636f6e74726163740000006044820152606490fd5b825190915015613c075750805190602001fd5b604460209160405192839162461bcd60e51b83528160048401528051918291826024860152018484015e5f828201840152601f01601f19168101030190fdfe4910fdfa16fed3260ed0e7147f7cc6da11a60208b5b9406d12a635614ffd91431c87e2bbc4e5fa5d7f6f8c44d66cb241dff224b8602eb5435ca2076d2a5c6fc246756e6374696f6e206d7573742062652063616c6c6564207468726f75676820e69aa2e435ec063c41ddc8d262f8672906549b0cff0e2fcdec03de8a590a6329360894a13ba1a3210667c828492db98dca3e2076cc3735a920a3ca505d382bbc8be0079c531659141344cd1fd0a4f28419497f9722a3daafe3b4186f6b6457e0bc7cd75a20ee27fd9adebab32041f755214dbc6bffa90cc0225b39da2e5c2d3b7f957baf715b9d399a74e664bafdf932e3a6c16ab77a458385a6ef38ebc1a6d862e78cea01bee320cd4e420270b5ea74000d11b0c9f74754ebdbfc544b05a2588fb6c181ee25a520cf3dd6565006ef91229fcfe5a989566c2a3b8c115570cec545524331393637557067726164653a20756e737570706f727465642070726f78416464726573733a206c6f772d6c6576656c2064656c65676174652063616c6c45524331393637557067726164653a206e657720696d706c656d656e74617469a2646970667358221220fcd4681d3425219657f0c1d01072790d33b152d15959cc5509707561241d4d7464736f6c634300081c0033","linkReferences":{}},"methodIdentifiers":{"USDC()":"89a30271","accrueMarginFees()":"8d5b9a0a","adjustHedge(uint256)":"02161330","balances()":"7bb98a68","calculateAMMDelta()":"f24e8f2c","controller()":"f77c4791","deposit(uint256)":"b6b55f25","depositCancel()":"cc28f73d","depositExecute()":"fcc47ed2","depositRegister(uint256)":"f6555082","doEmergencySwapAllToUSDC()":"5f785a5c","doEmergencyWithdrawFromAMM()":"a5d993ac","emergencyExit()":"5641ec03","emergencyExitTriggered()":"122b05ed","executeConfigChange()":"ec8e6d2a","factory()":"c45a0155","getCurrentAMM()":"35ef5724","getCurrentHedge()":"ab465a2a","getImplementation()":"aaf10f42","getPendingStates()":"21ec23b6","getVaultEquity()":"357e6379","harvest()":"4641257d","initialize(address,address,address)":"c0c53b8b","isPaused()":"b187bd26","maxTotalAssets()":"d820f492","minDeposit()":"41b3d185","owner()":"8da5cb5b","paused()":"5c975abb","pendingConfig()":"73c6a288","proxiableUUID()":"52d1902d","queueConfigChange(uint8,int256)":"d52b1a88","rebalanceAMM()":"481488ae","renounceOwnership()":"715018a6","rescueTokens(address,address)":"5431c94e","setController(address)":"92eefe9b","setMaxTotalAssets(uint256)":"bc2e47b7","setMinDeposit(uint256)":"8fcc9cfb","setPaused(bool)":"16c38b3c","setStrategyRewardPool(address)":"71bc9aae","strategy()":"a8c62e76","totalShares()":"3a98ef39","transferOwnership(address)":"f2fde38b","uniswapV3SwapCallback(int256,int256,bytes)":"fa461e33","upgradeTo(address)":"3659cfe6","upgradeToAndCall(address,bytes)":"4f1ef286","upgradeToLatest()":"367ad9e2","wants()":"65844934","withdraw(uint256)":"2e1a7d4d","withdrawCancel()":"4cf1f49b","withdrawExecute(uint256)":"1f48ddd8","withdrawRegister(uint256,address)":"80607952"},"id":28}