{"abi":[{"type":"constructor","inputs":[{"name":"_usdc","type":"address","internalType":"address"}],"stateMutability":"nonpayable"},{"type":"function","name":"USDC","inputs":[],"outputs":[{"name":"","type":"address","internalType":"address"}],"stateMutability":"view"},{"type":"function","name":"accrueMarginFees","inputs":[],"outputs":[],"stateMutability":"nonpayable"},{"type":"function","name":"adjustHedge","inputs":[{"name":"","type":"uint256","internalType":"uint256"}],"outputs":[],"stateMutability":"nonpayable"},{"type":"function","name":"balances","inputs":[],"outputs":[{"name":"amount0","type":"uint256","internalType":"uint256"},{"name":"amount1","type":"uint256","internalType":"uint256"}],"stateMutability":"view"},{"type":"function","name":"calculateAMMDelta","inputs":[],"outputs":[{"name":"deltaETH","type":"uint256","internalType":"uint256"}],"stateMutability":"view"},{"type":"function","name":"controller","inputs":[],"outputs":[{"name":"","type":"address","internalType":"address"}],"stateMutability":"view"},{"type":"function","name":"deposit","inputs":[{"name":"assets","type":"uint256","internalType":"uint256"}],"outputs":[],"stateMutability":"nonpayable"},{"type":"function","name":"depositCancel","inputs":[],"outputs":[],"stateMutability":"nonpayable"},{"type":"function","name":"depositExecute","inputs":[],"outputs":[],"stateMutability":"nonpayable"},{"type":"function","name":"depositRegister","inputs":[{"name":"amount","type":"uint256","internalType":"uint256"}],"outputs":[],"stateMutability":"nonpayable"},{"type":"function","name":"doEmergencySwapAllToUSDC","inputs":[],"outputs":[],"stateMutability":"nonpayable"},{"type":"function","name":"doEmergencyWithdrawFromAMM","inputs":[],"outputs":[],"stateMutability":"nonpayable"},{"type":"function","name":"emergencyExit","inputs":[],"outputs":[],"stateMutability":"nonpayable"},{"type":"function","name":"emergencyExitTriggered","inputs":[],"outputs":[{"name":"","type":"bool","internalType":"bool"}],"stateMutability":"view"},{"type":"function","name":"executeConfigChange","inputs":[],"outputs":[],"stateMutability":"nonpayable"},{"type":"function","name":"factory","inputs":[],"outputs":[{"name":"","type":"address","internalType":"address"}],"stateMutability":"view"},{"type":"function","name":"getCurrentAMM","inputs":[],"outputs":[{"name":"","type":"tuple","internalType":"struct IHedgedVault.AMMPosition","components":[{"name":"liquidity","type":"uint256","internalType":"uint256"},{"name":"tickLower","type":"int24","internalType":"int24"},{"name":"tickUpper","type":"int24","internalType":"int24"},{"name":"feesEarned0","type":"uint256","internalType":"uint256"},{"name":"feesEarned1","type":"uint256","internalType":"uint256"}]}],"stateMutability":"pure"},{"type":"function","name":"getCurrentHedge","inputs":[],"outputs":[{"name":"","type":"tuple","internalType":"struct IHedgedVault.HedgePosition","components":[{"name":"isOpen","type":"bool","internalType":"bool"},{"name":"sizeUSD","type":"uint256","internalType":"uint256"},{"name":"collateralUSD","type":"uint256","internalType":"uint256"},{"name":"entryPrice","type":"uint256","internalType":"uint256"},{"name":"openedAt","type":"uint256","internalType":"uint256"},{"name":"marginFeesAccrued","type":"uint256","internalType":"uint256"}]}],"stateMutability":"view"},{"type":"function","name":"getImplementation","inputs":[],"outputs":[{"name":"","type":"address","internalType":"address"}],"stateMutability":"view"},{"type":"function","name":"getPendingStates","inputs":[],"outputs":[{"name":"depositAmount","type":"uint256","internalType":"uint256"},{"name":"depositPending","type":"bool","internalType":"bool"},{"name":"withdrawalAmount","type":"uint256","internalType":"uint256"},{"name":"withdrawalPending","type":"bool","internalType":"bool"},{"name":"swapToken0","type":"uint256","internalType":"uint256"},{"name":"swapToken1","type":"uint256","internalType":"uint256"},{"name":"swapRecipient","type":"address","internalType":"address"},{"name":"swapPending","type":"bool","internalType":"bool"},{"name":"deployAmount0","type":"uint256","internalType":"uint256"},{"name":"deployAmount1","type":"uint256","internalType":"uint256"},{"name":"deployPending","type":"bool","internalType":"bool"},{"name":"configType","type":"uint8","internalType":"uint8"},{"name":"configValue","type":"int256","internalType":"int256"},{"name":"configPending","type":"bool","internalType":"bool"}],"stateMutability":"view"},{"type":"function","name":"getVaultEquity","inputs":[],"outputs":[{"name":"","type":"uint256","internalType":"uint256"}],"stateMutability":"view"},{"type":"function","name":"harvest","inputs":[],"outputs":[{"name":"fees0","type":"uint256","internalType":"uint256"},{"name":"fees1","type":"uint256","internalType":"uint256"}],"stateMutability":"nonpayable"},{"type":"function","name":"initialize","inputs":[{"name":"_owner","type":"address","internalType":"address"},{"name":"_controller","type":"address","internalType":"address"},{"name":"_strategy","type":"address","internalType":"address"}],"outputs":[],"stateMutability":"nonpayable"},{"type":"function","name":"isPaused","inputs":[],"outputs":[{"name":"","type":"bool","internalType":"bool"}],"stateMutability":"view"},{"type":"function","name":"maxTotalAssets","inputs":[],"outputs":[{"name":"","type":"uint256","internalType":"uint256"}],"stateMutability":"view"},{"type":"function","name":"minDeposit","inputs":[],"outputs":[{"name":"","type":"uint256","internalType":"uint256"}],"stateMutability":"view"},{"type":"function","name":"owner","inputs":[],"outputs":[{"name":"","type":"address","internalType":"address"}],"stateMutability":"view"},{"type":"function","name":"paused","inputs":[],"outputs":[{"name":"","type":"bool","internalType":"bool"}],"stateMutability":"view"},{"type":"function","name":"pendingConfig","inputs":[],"outputs":[{"name":"changeType","type":"uint8","internalType":"uint8"},{"name":"value","type":"int256","internalType":"int256"},{"name":"isPending","type":"bool","internalType":"bool"}],"stateMutability":"view"},{"type":"function","name":"proxiableUUID","inputs":[],"outputs":[{"name":"","type":"bytes32","internalType":"bytes32"}],"stateMutability":"view"},{"type":"function","name":"queueConfigChange","inputs":[{"name":"changeType","type":"uint8","internalType":"uint8"},{"name":"value","type":"int256","internalType":"int256"}],"outputs":[],"stateMutability":"nonpayable"},{"type":"function","name":"rebalanceAMM","inputs":[],"outputs":[],"stateMutability":"nonpayable"},{"type":"function","name":"renounceOwnership","inputs":[],"outputs":[],"stateMutability":"nonpayable"},{"type":"function","name":"rescueTokens","inputs":[{"name":"token","type":"address","internalType":"address"},{"name":"to","type":"address","internalType":"address"}],"outputs":[],"stateMutability":"nonpayable"},{"type":"function","name":"setController","inputs":[{"name":"_controller","type":"address","internalType":"address"}],"outputs":[],"stateMutability":"nonpayable"},{"type":"function","name":"setMaxTotalAssets","inputs":[{"name":"_maxTotalAssets","type":"uint256","internalType":"uint256"}],"outputs":[],"stateMutability":"nonpayable"},{"type":"function","name":"setMinDeposit","inputs":[{"name":"_minDeposit","type":"uint256","internalType":"uint256"}],"outputs":[],"stateMutability":"nonpayable"},{"type":"function","name":"setPaused","inputs":[{"name":"_paused","type":"bool","internalType":"bool"}],"outputs":[],"stateMutability":"nonpayable"},{"type":"function","name":"strategy","inputs":[],"outputs":[{"name":"","type":"address","internalType":"contract IStrategyConcLiq"}],"stateMutability":"view"},{"type":"function","name":"totalShares","inputs":[],"outputs":[{"name":"","type":"uint256","internalType":"uint256"}],"stateMutability":"view"},{"type":"function","name":"transferOwnership","inputs":[{"name":"newOwner","type":"address","internalType":"address"}],"outputs":[],"stateMutability":"nonpayable"},{"type":"function","name":"uniswapV3SwapCallback","inputs":[{"name":"amount0Delta","type":"int256","internalType":"int256"},{"name":"amount1Delta","type":"int256","internalType":"int256"},{"name":"","type":"bytes","internalType":"bytes"}],"outputs":[],"stateMutability":"nonpayable"},{"type":"function","name":"upgradeTo","inputs":[{"name":"newImplementation","type":"address","internalType":"address"}],"outputs":[],"stateMutability":"nonpayable"},{"type":"function","name":"upgradeToAndCall","inputs":[{"name":"newImplementation","type":"address","internalType":"address"},{"name":"data","type":"bytes","internalType":"bytes"}],"outputs":[],"stateMutability":"payable"},{"type":"function","name":"upgradeToLatest","inputs":[],"outputs":[],"stateMutability":"nonpayable"},{"type":"function","name":"wants","inputs":[],"outputs":[{"name":"token0","type":"address","internalType":"address"},{"name":"token1","type":"address","internalType":"address"}],"stateMutability":"view"},{"type":"function","name":"withdraw","inputs":[{"name":"assets","type":"uint256","internalType":"uint256"}],"outputs":[],"stateMutability":"nonpayable"},{"type":"function","name":"withdrawCancel","inputs":[],"outputs":[],"stateMutability":"nonpayable"},{"type":"function","name":"withdrawExecute","inputs":[{"name":"minAmountOut","type":"uint256","internalType":"uint256"}],"outputs":[],"stateMutability":"nonpayable"},{"type":"function","name":"withdrawRegister","inputs":[{"name":"","type":"uint256","internalType":"uint256"},{"name":"","type":"address","internalType":"address"}],"outputs":[],"stateMutability":"pure"},{"type":"event","name":"AMMRebalanced","inputs":[{"name":"oldTickLower","type":"int24","indexed":false,"internalType":"int24"},{"name":"oldTickUpper","type":"int24","indexed":false,"internalType":"int24"},{"name":"newTickLower","type":"int24","indexed":false,"internalType":"int24"},{"name":"newTickUpper","type":"int24","indexed":false,"internalType":"int24"},{"name":"timestamp","type":"uint256","indexed":false,"internalType":"uint256"}],"anonymous":false},{"type":"event","name":"AdminChanged","inputs":[{"name":"previousAdmin","type":"address","indexed":false,"internalType":"address"},{"name":"newAdmin","type":"address","indexed":false,"internalType":"address"}],"anonymous":false},{"type":"event","name":"BeaconUpgraded","inputs":[{"name":"beacon","type":"address","indexed":true,"internalType":"address"}],"anonymous":false},{"type":"event","name":"ConfigExec","inputs":[{"name":"changeType","type":"uint8","indexed":true,"internalType":"uint8"},{"name":"value","type":"int256","indexed":false,"internalType":"int256"}],"anonymous":false},{"type":"event","name":"ConfigQueued","inputs":[{"name":"changeType","type":"uint8","indexed":true,"internalType":"uint8"},{"name":"value","type":"int256","indexed":false,"internalType":"int256"}],"anonymous":false},{"type":"event","name":"ControllerUpdated","inputs":[{"name":"oldController","type":"address","indexed":true,"internalType":"address"},{"name":"newController","type":"address","indexed":true,"internalType":"address"}],"anonymous":false},{"type":"event","name":"DepositCancelled","inputs":[{"name":"user","type":"address","indexed":true,"internalType":"address"}],"anonymous":false},{"type":"event","name":"DepositExecuted","inputs":[{"name":"user","type":"address","indexed":true,"internalType":"address"},{"name":"assets","type":"uint256","indexed":false,"internalType":"uint256"},{"name":"shares","type":"uint256","indexed":false,"internalType":"uint256"}],"anonymous":false},{"type":"event","name":"DepositQueued","inputs":[{"name":"user","type":"address","indexed":true,"internalType":"address"},{"name":"amount","type":"uint256","indexed":false,"internalType":"uint256"}],"anonymous":false},{"type":"event","name":"EmergencyExit","inputs":[{"name":"usdcRecovered","type":"uint256","indexed":false,"internalType":"uint256"},{"name":"timestamp","type":"uint256","indexed":false,"internalType":"uint256"}],"anonymous":false},{"type":"event","name":"FeesHarvested","inputs":[{"name":"fees0","type":"uint256","indexed":false,"internalType":"uint256"},{"name":"fees1","type":"uint256","indexed":false,"internalType":"uint256"},{"name":"timestamp","type":"uint256","indexed":false,"internalType":"uint256"}],"anonymous":false},{"type":"event","name":"HedgeAdjusted","inputs":[{"name":"oldSize","type":"uint256","indexed":false,"internalType":"uint256"},{"name":"newSize","type":"uint256","indexed":false,"internalType":"uint256"},{"name":"timestamp","type":"uint256","indexed":false,"internalType":"uint256"}],"anonymous":false},{"type":"event","name":"HedgeClosed","inputs":[{"name":"sizeUSD","type":"uint256","indexed":false,"internalType":"uint256"},{"name":"exitPrice","type":"uint256","indexed":false,"internalType":"uint256"},{"name":"pnl","type":"int256","indexed":false,"internalType":"int256"},{"name":"timestamp","type":"uint256","indexed":false,"internalType":"uint256"}],"anonymous":false},{"type":"event","name":"HedgeOpened","inputs":[{"name":"sizeUSD","type":"uint256","indexed":false,"internalType":"uint256"},{"name":"entryPrice","type":"uint256","indexed":false,"internalType":"uint256"},{"name":"timestamp","type":"uint256","indexed":false,"internalType":"uint256"}],"anonymous":false},{"type":"event","name":"Initialized","inputs":[{"name":"version","type":"uint8","indexed":false,"internalType":"uint8"}],"anonymous":false},{"type":"event","name":"OwnershipTransferred","inputs":[{"name":"previousOwner","type":"address","indexed":true,"internalType":"address"},{"name":"newOwner","type":"address","indexed":true,"internalType":"address"}],"anonymous":false},{"type":"event","name":"PauseChanged","inputs":[{"name":"paused","type":"bool","indexed":false,"internalType":"bool"}],"anonymous":false},{"type":"event","name":"Paused","inputs":[{"name":"account","type":"address","indexed":false,"internalType":"address"}],"anonymous":false},{"type":"event","name":"TokensRescued","inputs":[{"name":"token","type":"address","indexed":true,"internalType":"address"},{"name":"to","type":"address","indexed":true,"internalType":"address"},{"name":"amount","type":"uint256","indexed":false,"internalType":"uint256"}],"anonymous":false},{"type":"event","name":"Unpaused","inputs":[{"name":"account","type":"address","indexed":false,"internalType":"address"}],"anonymous":false},{"type":"event","name":"Upgraded","inputs":[{"name":"implementation","type":"address","indexed":true,"internalType":"address"}],"anonymous":false},{"type":"event","name":"WithdrawCancelled","inputs":[{"name":"user","type":"address","indexed":true,"internalType":"address"}],"anonymous":false},{"type":"event","name":"WithdrawExecuted","inputs":[{"name":"user","type":"address","indexed":true,"internalType":"address"},{"name":"shares","type":"uint256","indexed":false,"internalType":"uint256"},{"name":"assets","type":"uint256","indexed":false,"internalType":"uint256"},{"name":"recipient","type":"address","indexed":true,"internalType":"address"}],"anonymous":false},{"type":"event","name":"WithdrawFromAMMFailed","inputs":[],"anonymous":false},{"type":"event","name":"WithdrawQueued","inputs":[{"name":"user","type":"address","indexed":true,"internalType":"address"},{"name":"shares","type":"uint256","indexed":false,"internalType":"uint256"},{"name":"recipient","type":"address","indexed":true,"internalType":"address"}],"anonymous":false},{"type":"error","name":"BelowMin","inputs":[]},{"type":"error","name":"ConfigPending","inputs":[]},{"type":"error","name":"ExceedsMax","inputs":[]},{"type":"error","name":"HedgeAlreadyOpen","inputs":[]},{"type":"error","name":"InsufficientBalance","inputs":[]},{"type":"error","name":"InvalidAddress","inputs":[]},{"type":"error","name":"InvalidAmount","inputs":[]},{"type":"error","name":"InvalidConfig","inputs":[]},{"type":"error","name":"InvalidOperation","inputs":[]},{"type":"error","name":"InvalidStrategy","inputs":[]},{"type":"error","name":"InvalidSwapPool","inputs":[]},{"type":"error","name":"NoConfig","inputs":[]},{"type":"error","name":"NoHedgeOpen","inputs":[]},{"type":"error","name":"NotAuthorized","inputs":[]},{"type":"error","name":"NotCalm","inputs":[]},{"type":"error","name":"NotPaused","inputs":[]},{"type":"error","name":"NotPool","inputs":[]},{"type":"error","name":"OnlyController","inputs":[]},{"type":"error","name":"OnlyFactory","inputs":[]},{"type":"error","name":"OnlyOwner","inputs":[]},{"type":"error","name":"OnlySelf","inputs":[]},{"type":"error","name":"SlippageExceeded","inputs":[]},{"type":"error","name":"VaultPaused","inputs":[]}],"bytecode":{"object":"0x60c0346100c457601f6143f938819003918201601f19168301916001600160401b038311848410176100c8578084926020946040528339810103126100c457516001600160a01b03811681036100c4573060805260a05260405161431c90816100dd823960805181818161157a015281816116980152611cf8015260a05181818161061e01528181610bf4015281816111510152818161134d0152818161216c0152818161267e01528181612d92015281816138fc015281816139f10152613cf50152f35b5f80fd5b634e487b7160e01b5f52604160045260245ffdfe60806040526004361015610011575f80fd5b5f5f3560e01c80630216133014612491578063122b05ed1461246e57806316c38b3c1461236d5780631f48ddd8146120f657806321ec23b6146120555780632e1a7d4d14611f39578063357e637914611f1f57806335ef572414611e925780633659cfe614611cda578063367ad9e214611a635780633a98ef3914611a4457806341b3d18514611a255780634641257d1461190e578063481488ae146118915780634cf1f49b146118205780634f1ef2861461162557806352d1902d146115675780635431c94e1461145e5780635641ec03146112985780635c975abb14610efe5780635f785a5c146112785780636584493414611245578063715018a6146111fb57806373c6a288146111c15780637bb98a681461119a578063806079521461118057806389a302711461113b5780638d5b9a0a146111225780638da5cb5b146110f95780638fcc9cfb146110c057806392eefe9b1461104e578063a5d993ac1461101f578063a8c62e7614610ff1578063aaf10f4214610fbc578063ab465a2a14610f21578063b187bd2614610efe578063b6b55f2514610574578063bc2e47b714610eda578063c0c53b8b14610c85578063c45a015514610c5b578063cc28f73d14610b97578063d52b1a8814610aae578063d820f49214610a8f578063ec8e6d2a146107c2578063f24e8f2c1461079f578063f2fde38b1461070e578063f655508214610574578063f77c47911461054a578063fa461e33146103725763fcc47ed214610240575f80fd5b3461036f578060031936011261036f5761012d546001600160a01b031633036103605761026b61291f565b60016101375460a01c161561035157610136546065546001600160a01b0316907fcf75a80a22cde0edcefe708f860e644c73eb8921aac7890f3bec010eef965f64906040906001600160801b03166102c28161397d565b5050610130546102d06125f8565b8280821115610348576102e2916125ae565b905b82918115158061033f575b61031f575b50816102ff916125a1565b610130558561013655856101375582519182526020820152a26001805580f35b819250610338906103336102ff938661258e565b6125bb565b91906102f4565b508015156102ef565b505085906102e4565b631cc6a69960e11b8152600490fd5b635990781360e01b8152600490fd5b80fd5b503461036f57606036600319011261036f576004356024356044356001600160401b03811161054657366023820112156105465760048101356001600160401b038111610542573691016024011161053e57610138546040516316f0115b60e01b8152906020908290600490829060081c6001600160a01b03165afa908115610533578491610514575b506001600160a01b0381163381900361050557604051630dfe168160e01b815293602085600481855afa9182156104d85760049587936104e3575b506020906040519687809263d21220a760e01b82525afa9485156104d85786956104a7575b508286821361048d575b505050838213610474578380f35b610486926001600160a01b0316612edf565b5f80808380f35b61049f926001600160a01b0316612edf565b5f8082610466565b6104ca91955060203d6020116104d1575b6104c2818361253b565b8101906125d9565b935f61045c565b503d6104b8565b6040513d88823e3d90fd5b60209193506104fe90823d84116104d1576104c2818361253b565b9290610437565b636f61f64160e01b8552600485fd5b61052d915060203d6020116104d1576104c2818361253b565b5f6103fc565b6040513d86823e3d90fd5b8280fd5b8480fd5b8380fd5b503461036f578060031936011261036f5761012d546040516001600160a01b039091168152602090f35b503461036f57602036600319011261036f57600435610591612f1f565b61059961291f565b6065546001600160a01b031633036106e15760ff6101375460a01c166106e15761012f5481106106ff576105d4816105cf6125f8565b6125a1565b61012e54106106f05760ff61013854166106e15761064b6040516323b872dd60e01b60208201523360248201523060448201528260648201526064815261061c60848261253b565b7f00000000000000000000000000000000000000000000000000000000000000006001600160a01b0316613e91565b6040516001600160801b03821690600190606090610668816124d6565b8381526020808201879052604080830188905292909101929092526101369290925561013780546001600160a81b031916600160a01b17905560655491519283526001600160a01b0391909116917f39b741a94a004f4e0edfdc3c607302b8ccb1b8c4c5a9b5f761fec94a116921fb9190a26001805580f35b631cc6a69960e11b8252600482fd5b6395e28b8560e01b8252600482fd5b6310906acb60e01b8252600482fd5b503461036f57602036600319011261036f576107286124aa565b6107306128c7565b6001600160a01b0381161561074b5761074890613711565b80f35b60405162461bcd60e51b815260206004820152602660248201527f4f776e61626c653a206e6577206f776e657220697320746865207a65726f206160448201526564647265737360d01b6064820152608490fd5b503461036f578060031936011261036f5760206107ba613881565b604051908152f35b503461036f578060031936011261036f5761012d546001600160a01b031633036103605760ff61013c541615610a805760ff61013a541661013b5460018214808091610a06575b6109f75761013a84905561013b84905561013c8490556101385460081c6001600160a01b031690156108d957627fffff19821280156108cd575b6108be578084913b156108ba578180916024604051809481936312cf138160e01b83528860020b60048401525af180156108af5761089a575b505060205f5160206142275f395f51905f52915b604051908152a280f35b816108a49161253b565b61053e57825f61087c565b6040513d84823e3d90fd5b5080fd5b6306b7c75960e31b8452600484fd5b50627fffff8213610843565b6002830361096957667fffffffffffff1982128015610959575b6108be578084913b156108ba57818091602460405180948193631b16146360e11b83528860060b60048401525af180156108af57610944575b505060205f5160206142275f395f51905f5291610890565b8161094e9161253b565b61053e57825f61092c565b50667fffffffffffff82136108f3565b60038314610989575b5060205f5160206142275f395f51905f5291610890565b83821280156109ea575b6108be578084913b156108ba57818091602460405180948193631d27050f60e01b835263ffffffff891660048401525af180156108af576109d5575b50610972565b816109df9161253b565b61053e57825f6109cf565b5063ffffffff8211610993565b6313643c3b60e11b8452600484fd5b5061013854604051639bdde46b60e01b8152906020908290600490829060081c6001600160a01b03165afa908115610a75578591610a46575b5015610809565b610a68915060203d602011610a6e575b610a60818361253b565b8101906128af565b5f610a3f565b503d610a56565b6040513d87823e3d90fd5b63036764e560e21b8152600490fd5b503461036f578060031936011261036f57602061012e54604051908152f35b503461036f57604036600319011261036f5760043560ff81168091036108ba57602435610ad96128c7565b8115610b885760ff61013c5416610b7957604051606081016001600160401b03811182821017610b655791600160406020937f2a45aecb5e74807f4204a70f50428bc49db88ba8b1799808a3b23dda36ad3e30958252868152838582015201528360ff1961013a54161761013a558061013b55600160ff1961013c54161761013c55604051908152a280f35b634e487b7160e01b85526041600452602485fd5b637ed27eb760e01b8352600483fd5b6306b7c75960e31b8352600483fd5b503461036f578060031936011261036f57610bb061291f565b60016101375460a01c161561035157610136546065546001600160a01b0316906001600160801b031633829003610c4c57610136839055610137839055610c2190827f00000000000000000000000000000000000000000000000000000000000000006001600160a01b0316612edf565b7f315b8a0ece450231870bda1ecceeabdc74b6d0e53d6eb663bb910e3a6f42d6f18280a26001805580f35b631cc6a69960e11b8352600483fd5b503461036f578060031936011261036f57610139546040516001600160a01b039091168152602090f35b503461036f57606036600319011261036f57610c9f6124aa565b610ca76124c0565b6044356001600160a01b03811691908281036105425784549160ff8360081c161592838094610ecd575b8015610eb6575b15610e5a5760ff198116600117875583610e49575b506001600160a01b03851615610e3a576001600160a01b0316938415610e3a57610d3890610d2a60ff885460081c16610d2581614003565b614003565b610d3333613711565b613711565b845492610d6d60ff8560081c16610d4e81614003565b610d5781614003565b60018055610d6481614003565b610d2581614003565b60fb805460ff1916905561012d80546001600160a01b031916861790555f1961012e556298968061012f5560405194865f5160206141675f395f51905f528180a315610e2b576101388054610100600160a81b03191660089290921b610100600160a81b031691909117905561013980546001600160a01b03191633179055610df4578280f35b61ff0019168255600181527f7f26b83ff96e1f2b6a682f133852f6798a09c465da95921460cefb384740249890602090a15f808280f35b632711b74d60e11b8552600485fd5b63e6c4247b60e01b8652600486fd5b61ffff19166101011786555f610ced565b60405162461bcd60e51b815260206004820152602e60248201527f496e697469616c697a61626c653a20636f6e747261637420697320616c72656160448201526d191e481a5b9a5d1a585b1a5e995960921b6064820152608490fd5b50303b158015610cd85750600160ff821614610cd8565b50600160ff821610610cd1565b503461036f57602036600319011261036f57610ef46128c7565b60043561012e5580f35b503461036f578060031936011261036f57602060ff60fb54166040519015158152f35b503461036f578060031936011261036f578060c09160a0604051610f4481612520565b8281528260208201528260408201528260608201528260808201520152604051610f6d81612520565b818152602081019082825260408101838152606082019084825260a0608084019386855201938585526040519586525160208601525160408501525160608401525160808301525160a0820152f35b503461036f578060031936011261036f575f5160206141c75f395f51905f52546040516001600160a01b039091168152602090f35b503461036f578060031936011261036f576101385460405160089190911c6001600160a01b03168152602090f35b503461036f578060031936011261036f5730330361103f57610748613746565b63029a949d60e31b8152600490fd5b503461036f57602036600319011261036f576110686124aa565b6110706128c7565b6001600160a01b031680156110b15761012d80546001600160a01b0319811683179091556001600160a01b03165f5160206141675f395f51905f528380a380f35b63e6c4247b60e01b8252600482fd5b503461036f57602036600319011261036f576004356110dd6128c7565b80156110ea5761012f5580f35b63162908e360e11b8252600482fd5b503461036f578060031936011261036f576065546040516001600160a01b039091168152602090f35b503461036f578060031936011261036f57610748612579565b503461036f578060031936011261036f576040517f00000000000000000000000000000000000000000000000000000000000000006001600160a01b03168152602090f35b503461036f57604036600319011261036f576108ba6124c0565b503461036f578060031936011261036f5760406111b5612f63565b82519182526020820152f35b503461036f578060031936011261036f57606060ff61013a541661013b5460ff61013c541690604051928352602083015215156040820152f35b503461036f578060031936011261036f576112146128c7565b606580546001600160a01b0319811690915581906001600160a01b03165f5160206141e75f395f51905f528280a380f35b503461036f578060031936011261036f576040611260612805565b82516001600160a01b03928316815291166020820152f35b503461036f578060031936011261036f5730330361103f57610748612d4c565b503461036f578060031936011261036f576112b16128c7565b600160ff19610138541617610138556112c8612f1f565b600160ff1960fb54161760fb555f5160206142475f395f51905f526020604051338152a1303b1561036f5760405163297664eb60e21b81528190818160048183305af1611449575b5050303b1561036f576040516317de169760e21b81528190818160048183305af1611434575b50506040516370a0823160e01b81523060048201527f00000000000000000000000000000000000000000000000000000000000000006001600160a01b031690602081602481855afa9081156114295783916113e6575b50805f5160206141a75f395f51905f5292816040936113c7575b50508361013055836101365583610137558151908152426020820152a180f35b6065546113df926001600160a01b0390911690612edf565b5f816113a7565b90506020813d602011611421575b816114016020938361253b565b8101031261141d57515f5160206141a75f395f51905f5261138d565b5f80fd5b3d91506113f4565b6040513d85823e3d90fd5b8161143e9161253b565b61036f57805f611336565b816114539161253b565b61036f57805f611310565b503461036f57604036600319011261036f576114786124aa565b6114806124c0565b6114886128c7565b60ff610138541615610c4c576001600160a01b038116918215611558576040516370a0823160e01b81523060048201526001600160a01b039190911691602082602481865afa918215610a75578592611524575b50816114e6578480f35b816115157f77023e19c7343ad491fd706c36335ca0e738340a91f29b1fd81e2673d44896c49360209386612edf565b604051908152a35f8080808480f35b9091506020813d602011611550575b816115406020938361253b565b8101031261141d5751905f6114dc565b3d9150611533565b63e6c4247b60e01b8452600484fd5b503461036f578060031936011261036f577f00000000000000000000000000000000000000000000000000000000000000006001600160a01b031630036115bf5760206040515f5160206141c75f395f51905f528152f35b60405162461bcd60e51b815260206004820152603860248201527f555550535570677261646561626c653a206d757374206e6f742062652063616c6044820152771b1959081d1a1c9bdd59da0819195b1959d85d1958d85b1b60421b6064820152608490fd5b50604036600319011261036f5761163a6124aa565b602435906001600160401b03821161053e573660238301121561053e57828260040135926116678461255e565b93611675604051958661253b565b808552366024828401011161053e578060246020930183870137840101526116ea7f00000000000000000000000000000000000000000000000000000000000000006001600160a01b03166116cc30821415612769565b5f5160206141c75f395f51905f52546001600160a01b0316146127b7565b6116f38161314c565b5f5160206141475f395f51905f525460ff1615611714576107489150613f73565b6040516352d1902d60e01b81526020816004816001600160a01b0386165afa8491816117ec575b506117895760405162461bcd60e51b815260206004820152602e60248201525f5160206142c75f395f51905f5260448201526d6f6e206973206e6f74205555505360901b6064820152608490fd5b5f5160206141c75f395f51905f52036117a85761074891600191613219565b60405162461bcd60e51b815260206004820152602960248201525f5160206142875f395f51905f526044820152681a58589b195555525160ba1b6064820152608490fd5b9091506020813d602011611818575b816118086020938361253b565b810103126105425751905f61173b565b3d91506117fb565b503461036f578060031936011261036f5761183961291f565b60026101375460a01c1615610351576065546001600160a01b0316338190036106e157816101365581610137557f8b775bb80a5d4addc5ea2601b2378ae89a1bb9010227157ac02aa71498e799c48280a26001805580f35b503461036f578060031936011261036f5761012d546001600160a01b03163303610360576118bd61291f565b6118c56132ab565b7f1375724ea5b49914df0f50564c7584995f701511abaf28b91e714cea23cee49960a0604051838152836020820152836040820152836060820152426080820152a16001805580f35b503461036f578060031936011261036f5761012d546001600160a01b031633036103605761193a61291f565b61013854819060081c6001600160a01b0316803b15611a0d57818091600460405180948193630beebd3960e11b83525af180156108af57611a10575b506101385460081c6001600160a01b0316803b15611a0d578190600460405180948193630d0e30db60e41b83525af180156108af576119f8575b6040827f68d793b46909dd71f01302cc73514e67391ab192095cf26aec99f08ccca271e2606083518381528360208201524285820152a1600180558151908082526020820152f35b611a0382809261253b565b61036f575f6119b0565b50fd5b81611a1a9161253b565b61036f57805f611976565b503461036f578060031936011261036f57602061012f54604051908152f35b503461036f578060031936011261036f57602061013054604051908152f35b503461141d575f36600319011261141d57611a7c6128c7565b6101395460405163b133f4d360e01b81526001600160a01b0390911690602081600481855afa918215611ccf576004926020925f91611cb2575b506001600160a01b0381169081151580611c91575b611be6575b50506040516309ef357160e41b815292839182905afa5f9181611bc5575b50611af7575080f35b6001600160a01b031680611b09575080f35b6020606491604051928380926335b41c4b60e11b8252846004830152601d60248301527f5374726174656779506173736976654d616e61676572556e697377617000000060448301525afa9081611ba8575b50611b635780f35b6101385460081c6001600160a01b0316803b1561141d575f8091600460405180948193631b3d6cf160e11b83525af1611b9a575080f35b611ba691505f9061253b565b005b611bc09060203d6020116104d1576104c2818361253b565b611b5b565b611bdf91925060203d6020116104d1576104c2818361253b565b905f611aee565b60405190611bf4858361253b565b5f825284820192601f198601368537611c0c82613f73565b5f5160206142075f395f51905f525f80a2815115801590611c8a575b611c33575b50611ad0565b5f80611c819460405194611c4860608761253b565b602786525f5160206142a75f395f51905f5289870152660819985a5b195960ca1b60408701525190845af4611c7b614063565b91614092565b505f8080611c2d565b505f611c28565b505f5160206141c75f395f51905f52546001600160a01b0316821415611acb565b611cc99150833d85116104d1576104c2818361253b565b5f611ab6565b6040513d5f823e3d90fd5b3461141d57602036600319011261141d57611cf36124aa565b611d2c7f00000000000000000000000000000000000000000000000000000000000000006001600160a01b03166116cc30821415612769565b611d358161314c565b604051906020611d45818461253b565b5f8352601f19810136828501375f5160206141475f395f51905f525460ff1615611d745750611ba69150613f73565b6040516352d1902d60e01b815290919082816004816001600160a01b0386165afa5f9181611e63575b50611deb5760405162461bcd60e51b815260048101849052602e60248201525f5160206142c75f395f51905f5260448201526d6f6e206973206e6f74205555505360901b6064820152608490fd5b9091907fc9f76b5ec45e5cdef99837d7b6d2467235c1df8933c8ca56df5c35afa2c7d44401611e205750611ba6915f91613219565b6084906040519062461bcd60e51b82526004820152602960248201525f5160206142875f395f51905f526044820152681a58589b195555525160ba1b6064820152fd5b9091508381813d8311611e8b575b611e7b818361253b565b8101031261141d57519085611d9d565b503d611e71565b3461141d575f36600319011261141d575f6080604051611eb181612505565b828152826020820152826040820152826060820152015260a0604051611ed681612505565b5f815260208101905f825260408101905f8252608060608201915f835201915f8352604051935f85525160020b60208501525160020b6040840152516060830152516080820152f35b3461141d575f36600319011261141d5760206107ba6125f8565b3461141d57602036600319011261141d57600435611f55612f1f565b611f5d61291f565b60655481906001600160a01b031633036120465760ff6101375460a01c166120465760ff610138541661204657611f926125f8565b90811561204657811061203e575b5060026060604051611fb1816124d6565b5f81526001600160801b0384166020808301919091523360408084018290529390920193909352608084901b6001600160801b03191661013655610137805460ff60a01b1983166001600160a81b031990911617600160a11b17905590519283529182917f1d78e54183f79519732f07b15f3311310b120b8286121dea10e65ba6bb03a22391a360018055005b905081611fa0565b631cc6a69960e11b5f5260045ffd5b3461141d575f36600319011261141d576101c0610136546101375460a01c60ff61013a541661013b5490600260ff61013c5416936040519560018060801b0381168752600182161515602088015260801c604087015216151560608501525f60808501525f60a08501525f60c08501525f60e08501525f6101008501525f6101208501525f61014085015261016084015261018083015215156101a0820152f35b3461141d57602036600319011261141d5761012d546001600160a01b0316330361235e5761212261291f565b6101375460028160a01c16156120465760018060a01b031660018060a01b03606554166101365460801c61013054806122ea575b506040516370a0823160e01b81523060048201527f00000000000000000000000000000000000000000000000000000000000000006001600160a01b031690602081602481855afa908115611ccf575f916122b8575b50808311156122b1576121bf90836125ae565b806122a2575b506121ce612d4c565b6040516370a0823160e01b815230600482015291602083602481855afa928315611ccf575f9361226e575b50600435831061225f578260409281877f5809abf1a3b5a41e977dcbb37cad51dcd19fa047fea1828fc2edf10961d3b3089661224e575b5050505f610136555f6101375582519182526020820152a360018055005b61225792612edf565b868187612230565b631e9acf1760e31b5f5260045ffd5b9092506020813d60201161229a575b8161228a6020938361253b565b8101031261141d575191856121f9565b3d915061227d565b6122ab9061298b565b506121c5565b505f6121bf565b90506020813d6020116122e2575b816122d36020938361253b565b8101031261141d5751856121ac565b3d91506122c6565b6122f26125f8565b90811561235357612307826105cf838661258e565b5f19810190811161233f5761232d9261231f916125bb565b905b808211612337576125ae565b6101305583612156565b9050806125ae565b634e487b7160e01b5f52601160045260245ffd5b61232d915080612321565b635990781360e01b5f5260045ffd5b3461141d57602036600319011261141d576004358015159081810361141d576123946128c7565b156123df5760205f5160206142675f395f51905f52916123b2612f1f565b600160ff1960fb54161760fb555f5160206142475f395f51905f5282604051338152a15b604051908152a1005b60fb5460ff811615612432575f5160206142675f395f51905f529160209160ff191660fb557f5db9ee0a495bf2e6ff9c91a7834c1ba4fdd244a5e8aa4e537bd38aeae4b073aa82604051338152a16123d6565b60405162461bcd60e51b815260206004820152601460248201527314185d5cd8589b194e881b9bdd081c185d5cd95960621b6044820152606490fd5b3461141d575f36600319011261141d57602060ff61013854166040519015158152f35b3461141d57602036600319011261141d57611ba6612579565b600435906001600160a01b038216820361141d57565b602435906001600160a01b038216820361141d57565b608081019081106001600160401b038211176124f157604052565b634e487b7160e01b5f52604160045260245ffd5b60a081019081106001600160401b038211176124f157604052565b60c081019081106001600160401b038211176124f157604052565b601f909101601f19168101906001600160401b038211908210176124f157604052565b6001600160401b0381116124f157601f01601f191660200190565b61012d546001600160a01b0316330361235e57565b8181029291811591840414171561233f57565b9190820180921161233f57565b9190820391821161233f57565b81156125c5570490565b634e487b7160e01b5f52601260045260245ffd5b9081602091031261141d57516001600160a01b038116810361141d5790565b612600612f63565b90801580612761575b61275b576101385460405163501ad8ff60e11b8152929060081c6001600160a01b0316602084600481845afa938415611ccf575f94612727575b50831561271f5760206004916040519283809263017b859f60e61b82525afa908115611ccf575f91612700575b506001600160a01b039081167f0000000000000000000000000000000000000000000000000000000000000000909116036126dc576a0c097ce7bc90715b34b9f160241b818102918015908304909114171561233f576126d9926126d3916125bb565b906125a1565b90565b906126f96126d9936a0c097ce7bc90715b34b9f160241b9261258e565b04906125a1565b612719915060203d6020116104d1576104c2818361253b565b5f612670565b505050505f90565b9093506020813d602011612753575b816127436020938361253b565b8101031261141d5751925f612643565b3d9150612736565b50505f90565b508115612609565b1561277057565b60405162461bcd60e51b815260206004820152602c60248201525f5160206141875f395f51905f5260448201526b19195b1959d85d1958d85b1b60a21b6064820152608490fd5b156127be57565b60405162461bcd60e51b815260206004820152602c60248201525f5160206141875f395f51905f5260448201526b6163746976652070726f787960a01b6064820152608490fd5b6101385460081c6001600160a01b03168061282157505f905f90565b60405163017b859f60e61b81529190602083600481845afa908115611ccf576004935f9261288d575b50602090604051948580926343bab15b60e11b82525afa928315611ccf575f9361287357509190565b6126d991935060203d6020116104d1576104c2818361253b565b60209192506128a890823d84116104d1576104c2818361253b565b919061284a565b9081602091031261141d5751801515810361141d5790565b6065546001600160a01b031633036128db57565b606460405162461bcd60e51b815260206004820152602060248201527f4f776e61626c653a2063616c6c6572206973206e6f7420746865206f776e65726044820152fd5b600260015414612930576002600155565b60405162461bcd60e51b815260206004820152601f60248201527f5265656e7472616e637947756172643a207265656e7472616e742063616c6c006044820152606490fd5b919082604091031261141d576020825192015190565b6101385490915f9160081c6001600160a01b0316803b1561141d575f8091600460405180948193630beebd3960e11b83525af18015611ccf57612d37575b506101385460408051630f77314d60e31b815260089290921c6001600160a01b0316949082600481885afa9182156105335784908593612d03575b50801580612cfb575b612cf157612a19613c51565b918215612ce65782918183612a46956103339411612cde575b61033382612a40939461258e565b9461258e565b9260405163017b859f60e61b8152602081600481895afa9081156108af578291612cbf575b506040516343bab15b60e11b8152906020826004818a5afa918215611429578392612c9e575b506040516370a0823160e01b81523060048201526001600160a01b03919091169690916020836024818b5afa928315610533578493612c6a575b506040516370a0823160e01b81523060048201526001600160a01b03919091169690946020866024818b5afa958615610a75578596612c36575b50823b15610542579060448592836040519586948593630441a3e760e41b8552600485015260248401525af1801561142957612c21575b5060206024949596604051958680926370a0823160e01b82523060048301525afa9384156108af578294612beb575b50612b7a6020916024956125ae565b95604051948580926370a0823160e01b82523060048301525afa908115612bdf5790612bab575b6126d992506125ae565b506020823d602011612bd7575b81612bc56020938361253b565b8101031261141d576126d99151612ba1565b3d9150612bb8565b604051903d90823e3d90fd5b93506020843d602011612c19575b81612c066020938361253b565b8101031261141d57925192612b7a612b6b565b3d9150612bf9565b612c2c83809261253b565b6108ba575f612b3c565b9095506020813d602011612c62575b81612c526020938361253b565b8101031261141d5751945f612b05565b3d9150612c45565b9092506020813d602011612c96575b81612c866020938361253b565b8101031261141d5751915f612acb565b3d9150612c79565b612cb891925060203d6020116104d1576104c2818361253b565b905f612a91565b612cd8915060203d6020116104d1576104c2818361253b565b5f612a6b565b905080612a32565b509394508493505050565b5092935083925050565b508215612a0d565b9050612d2891925060403d604011612d30575b612d20818361253b565b810190612975565b91905f612a04565b503d612d16565b612d449192505f9061253b565b5f905f6129c9565b6101385460405163017b859f60e61b815260089190911c6001600160a01b031690602081600481855afa908115611ccf575f91612ec0575b506001600160a01b038181167f000000000000000000000000000000000000000000000000000000000000000090911603612ebb57506040516343bab15b60e11b8152602081600481855afa908115611ccf575f91612e9c575b505b6040516370a0823160e01b8152306004820152906020826024816001600160a01b0385165afa918215611ccf575f92612e65575b506020600493604051948580926316f0115b60e01b82525afa8015611ccf57612e44935f91612e46575b50613d73565b565b612e5f915060203d6020116104d1576104c2818361253b565b5f612e3e565b9291506020833d602011612e94575b81612e816020938361253b565b8101031261141d57915190916020612e14565b3d9150612e74565b612eb5915060203d6020116104d1576104c2818361253b565b5f612dde565b612de0565b612ed9915060203d6020116104d1576104c2818361253b565b5f612d84565b60405163a9059cbb60e01b60208201526001600160a01b039092166024830152604480830193909352918152612e4491612f1a60648361253b565b613e91565b60ff60fb5416612f2b57565b60405162461bcd60e51b815260206004820152601060248201526f14185d5cd8589b194e881c185d5cd95960821b6044820152606490fd5b6101385460408051630f77314d60e31b815260089290921c6001600160a01b0316929082600481865afa8015611ccf575f925f91613127575b5060405163017b859f60e61b815292602084600481885afa938415611ccf575f94613104575b50602060049495604051958680926343bab15b60e11b82525afa938415611ccf575f946130df575b506040516370a0823160e01b81523060048201529394929392602090849060249082906001600160a01b03165afa928315611ccf575f936130a9575b506130356024936020926125a1565b6040516370a0823160e01b815230600482015290959093849182906001600160a01b03165afa908115611ccf575f91613073575b6126d992506125a1565b90506020823d6020116130a1575b8161308e6020938361253b565b8101031261141d576126d9915190613069565b3d9150613081565b92506020833d6020116130d7575b816130c46020938361253b565b8101031261141d57915191613035613026565b3d91506130b7565b60249394506130fc602091823d84116104d1576104c2818361253b565b949350612fea565b60049450613120602091823d84116104d1576104c2818361253b565b9450612fc2565b905061314391925060403d604011612d3057612d20818361253b565b9190915f612f9c565b6101395460405163b133f4d360e01b81529190602090839060049082906001600160a01b03165afa918215611ccf575f926131f8575b506001600160a01b0390811691168114801591906131ef575b506131e0576065546001600160a01b0316331415806131ca575b6131bb57565b63ea8e4eb560e01b5f5260045ffd5b5061012d546001600160a01b03163314156131b5565b632711b74d60e11b5f5260045ffd5b9050155f61319b565b61321291925060203d6020116104d1576104c2818361253b565b905f613182565b9161322383613f73565b6001600160a01b0383165f5160206142075f395f51905f525f80a2815115908115916132a3575b50613253575050565b6132a0915f806040519361326860608661253b565b602785525f5160206142a75f395f51905f526020860152660819985a5b195960ca1b6040860152602081519101845af4611c7b614063565b50565b90505f61324a565b6101385460408051630f77314d60e31b81525f9260081c6001600160a01b03169181600481855afa918215611ccf575f915f936136ee575b508115806136e6575b6136c157604051639bdde46b60e01b8152602081600481855afa908115611ccf575f916136c7575b50156136c157803b1561141d575f8091600460405180948193630beebd3960e11b83525af18015611ccf576136ac575b506101385460405163017b859f60e61b815260089190911c6001600160a01b031690602081600481855afa908115610a7557859161368d575b506040516343bab15b60e11b815290602082600481865afa9182156104d857869261366c575b506040516370a0823160e01b81523060048201526001600160a01b0391909116929091602083602481875afa92831561366157879361362d575b506040516370a0823160e01b81523060048201526001600160a01b03919091169590946020866024818a5afa9586156136225788966135ee575b50823b156135ea57879160448392836040519687948593630441a3e760e41b8552600485015260248401525af191826135d1575b5050613458575050505050565b6040516370a0823160e01b815230600482015290602082602481865afa80156104d857869061359d575b61348c92506125ae565b6040516370a0823160e01b81523060048201529092602082602481885afa80156104d8578690613569575b6134c192506125ae565b9180613545575b505080613521575b50506101385460081c6001600160a01b0316803b156108ba57818091600460405180948193630d0e30db60e41b83525af180156108af5761350f575050565b61351a82809261253b565b61036f5750565b6101385461353e9260089190911c6001600160a01b031690612edf565b5f806134d0565b610138546135629260089190911c6001600160a01b031690612edf565b5f806134c8565b506020823d602011613595575b816135836020938361253b565b8101031261141d576134c191516134b7565b3d9150613576565b506020823d6020116135c9575b816135b76020938361253b565b8101031261141d5761348c9151613482565b3d91506135aa565b816135db9161253b565b6135e657855f61344b565b8580fd5b8780fd5b9095506020813d60201161361a575b8161360a6020938361253b565b8101031261141d5751945f613417565b3d91506135fd565b6040513d8a823e3d90fd5b9092506020813d602011613659575b816136496020938361253b565b8101031261141d5751915f6133dd565b3d915061363c565b6040513d89823e3d90fd5b61368691925060203d6020116104d1576104c2818361253b565b905f6133a3565b6136a6915060203d6020116104d1576104c2818361253b565b5f61337d565b6136b99193505f9061253b565b5f915f613344565b50505050565b6136e0915060203d602011610a6e57610a60818361253b565b5f613314565b5082156132ec565b90925061370a915060403d604011612d3057612d20818361253b565b915f6132e3565b606580546001600160a01b039283166001600160a01b0319821681179092559091165f5160206141e75f395f51905f525f80a3565b6101385460408051630f77314d60e31b81525f92909160089190911c6001600160a01b03169082600481845afa908115611ccf575f925f9261385d575b50821580613855575b6136c157803b1561141d575f8091600460405180948193630beebd3960e11b83525af18015611ccf57613840575b506101385460081c6001600160a01b031691823b1561054657839160448392836040519687948593630441a3e760e41b8552600485015260248401525af1918261382b575b50506132a057807fc934a2e092e37cdb20f410ba7f032dc2a47a3bb4f4137bff67faf9274a71a1f291a1565b816138359161253b565b6108ba57815f6137ff565b61384d9193505f9061253b565b5f915f6137ba565b50811561378c565b909250613879915060403d604011612d3057612d20818361253b565b90915f613783565b6101385460408051630f77314d60e31b815260089290921c6001600160a01b0316919081600481855afa918215611ccf575f915f9361395a575b50811580613952575b61394b5760206004916040519283809263017b859f60e61b82525afa908115611ccf575f9161392c575b506001600160a01b039081167f000000000000000000000000000000000000000000000000000000000000000090911603613927575090565b905090565b613945915060203d6020116104d1576104c2818361253b565b5f6138ee565b5050505f90565b5082156138c4565b909250613976915060403d604011612d3057612d20818361253b565b915f6138bb565b6101385460405163017b859f60e61b8152919260089190911c6001600160a01b0316915f90602081600481875afa908115611ccf575f91613c32575b506040516343bab15b60e11b815294602086600481885afa918215611ccf576024965f93613c11575b506001600160a01b03818116927f0000000000000000000000000000000000000000000000000000000000000000909116838114928315613c0957506020855b6040516370a0823160e01b81523060048201529a8b9182906001600160a01b03165afa988915611ccf575f99613bce575b5090602060249392604051948580926370a0823160e01b82523060048301525afa928315611ccf575f93613b9a575b50808311613b92575b5015613b8c5795945b861580613b84575b613b7857803b1561141d575f8091600460405180948193630beebd3960e11b83525af18015611ccf57613b63575b508580613b3f575b50508380613b195750506101385460081c6001600160a01b0316803b156108ba57818091600460405180948193630d0e30db60e41b83525af180156108af5761350f575050565b61013854613b38926001600160a01b0360089290921c82169116612edf565b5f836134d0565b61013854613b5c9260089190911c6001600160a01b031690612edf565b5f85613ad2565b613b709193505f9061253b565b5f915f613aca565b505f9550859450505050565b508515613a9c565b94613a94565b91505f613a8b565b9092506020813d602011613bc6575b81613bb66020938361253b565b8101031261141d5751915f613a82565b3d9150613ba9565b92919098506020833d602011613c01575b81613bec6020938361253b565b8101031261141d579151979091906020613a53565b3d9150613bdf565b602090613a22565b613c2b91935060203d6020116104d1576104c2818361253b565b915f6139e2565b613c4b915060203d6020116104d1576104c2818361253b565b5f6139b9565b6101385460408051630f77314d60e31b815260089290921c6001600160a01b0316919081600481855afa8015611ccf575f915f91613d52575b50811580613d4a575b61394b5760405163501ad8ff60e11b815292602084600481845afa938415611ccf575f946127275750831561271f5760206004916040519283809263017b859f60e61b82525afa908115611ccf575f9161270057506001600160a01b039081167f0000000000000000000000000000000000000000000000000000000000000000909116036126dc576a0c097ce7bc90715b34b9f160241b818102918015908304909114171561233f576126d9926126d3916125bb565b508015613c93565b9050613d6d915060403d604011612d3057612d20818361253b565b5f613c8a565b8215613e8c576001600160a01b0316918215613e7d57604051630dfe168160e01b8152602081600481875afa928315611ccf5760409360c4925f91613e5e575b506001600160a01b039182169116148015613e42575f6401000276a4955b85519687958694630251596160e31b86523060048701526024860152604485015260018060a01b0316606484015260a060848401528160a48401525af18015611ccf57613e1b5750565b604090813d8311613e3b575b613e31818361253b565b8101031261141d57565b503d613e27565b5f73fffd8963efd1fc6a506488495d951d5263988d2595613dd1565b613e77915060203d6020116104d1576104c2818361253b565b5f613db3565b638b5f53cb60e01b5f5260045ffd5b505050565b90613eeb9160018060a01b03165f8060405193613eaf60408661253b565b602085527f5361666545524332303a206c6f772d6c6576656c2063616c6c206661696c6564602086015260208151910182855af1611c7b614063565b8051908115918215613f59575b505015613f0157565b60405162461bcd60e51b815260206004820152602a60248201527f5361666545524332303a204552433230206f7065726174696f6e20646964206e6044820152691bdd081cdd58d8d9595960b21b6064820152608490fd5b613f6c92506020809183010191016128af565b5f80613ef8565b803b15613fa8575f5160206141c75f395f51905f5280546001600160a01b0319166001600160a01b0392909216919091179055565b60405162461bcd60e51b815260206004820152602d60248201527f455243313936373a206e657720696d706c656d656e746174696f6e206973206e60448201526c1bdd08184818dbdb9d1c9858dd609a1b6064820152608490fd5b1561400a57565b60405162461bcd60e51b815260206004820152602b60248201527f496e697469616c697a61626c653a20636f6e7472616374206973206e6f74206960448201526a6e697469616c697a696e6760a81b6064820152608490fd5b3d1561408d573d906140748261255e565b91614082604051938461253b565b82523d5f602084013e565b606090565b919290156140f457508151156140a6575090565b3b156140af5790565b60405162461bcd60e51b815260206004820152601d60248201527f416464726573733a2063616c6c20746f206e6f6e2d636f6e74726163740000006044820152606490fd5b8251909150156141075750805190602001fd5b604460209160405192839162461bcd60e51b83528160048401528051918291826024860152018484015e5f828201840152601f01601f19168101030190fdfe4910fdfa16fed3260ed0e7147f7cc6da11a60208b5b9406d12a635614ffd91431c87e2bbc4e5fa5d7f6f8c44d66cb241dff224b8602eb5435ca2076d2a5c6fc246756e6374696f6e206d7573742062652063616c6c6564207468726f75676820e69aa2e435ec063c41ddc8d262f8672906549b0cff0e2fcdec03de8a590a6329360894a13ba1a3210667c828492db98dca3e2076cc3735a920a3ca505d382bbc8be0079c531659141344cd1fd0a4f28419497f9722a3daafe3b4186f6b6457e0bc7cd75a20ee27fd9adebab32041f755214dbc6bffa90cc0225b39da2e5c2d3b7f957baf715b9d399a74e664bafdf932e3a6c16ab77a458385a6ef38ebc1a6d862e78cea01bee320cd4e420270b5ea74000d11b0c9f74754ebdbfc544b05a2588fb6c181ee25a520cf3dd6565006ef91229fcfe5a989566c2a3b8c115570cec545524331393637557067726164653a20756e737570706f727465642070726f78416464726573733a206c6f772d6c6576656c2064656c65676174652063616c6c45524331393637557067726164653a206e657720696d706c656d656e74617469a264697066735822122008741f8e1a4c3aa8e402635b6c40f2765b1503446ca07eedd97d0512153920a964736f6c634300081c0033","linkReferences":{}},"methodIdentifiers":{"USDC()":"89a30271","accrueMarginFees()":"8d5b9a0a","adjustHedge(uint256)":"02161330","balances()":"7bb98a68","calculateAMMDelta()":"f24e8f2c","controller()":"f77c4791","deposit(uint256)":"b6b55f25","depositCancel()":"cc28f73d","depositExecute()":"fcc47ed2","depositRegister(uint256)":"f6555082","doEmergencySwapAllToUSDC()":"5f785a5c","doEmergencyWithdrawFromAMM()":"a5d993ac","emergencyExit()":"5641ec03","emergencyExitTriggered()":"122b05ed","executeConfigChange()":"ec8e6d2a","factory()":"c45a0155","getCurrentAMM()":"35ef5724","getCurrentHedge()":"ab465a2a","getImplementation()":"aaf10f42","getPendingStates()":"21ec23b6","getVaultEquity()":"357e6379","harvest()":"4641257d","initialize(address,address,address)":"c0c53b8b","isPaused()":"b187bd26","maxTotalAssets()":"d820f492","minDeposit()":"41b3d185","owner()":"8da5cb5b","paused()":"5c975abb","pendingConfig()":"73c6a288","proxiableUUID()":"52d1902d","queueConfigChange(uint8,int256)":"d52b1a88","rebalanceAMM()":"481488ae","renounceOwnership()":"715018a6","rescueTokens(address,address)":"5431c94e","setController(address)":"92eefe9b","setMaxTotalAssets(uint256)":"bc2e47b7","setMinDeposit(uint256)":"8fcc9cfb","setPaused(bool)":"16c38b3c","strategy()":"a8c62e76","totalShares()":"3a98ef39","transferOwnership(address)":"f2fde38b","uniswapV3SwapCallback(int256,int256,bytes)":"fa461e33","upgradeTo(address)":"3659cfe6","upgradeToAndCall(address,bytes)":"4f1ef286","upgradeToLatest()":"367ad9e2","wants()":"65844934","withdraw(uint256)":"2e1a7d4d","withdrawCancel()":"4cf1f49b","withdrawExecute(uint256)":"1f48ddd8","withdrawRegister(uint256,address)":"80607952"},"id":106}