{"abi":[{"type":"constructor","inputs":[],"stateMutability":"nonpayable"},{"type":"receive","stateMutability":"payable"},{"type":"function","name":"DOMAIN_SEPARATOR","inputs":[],"outputs":[{"name":"","type":"bytes32","internalType":"bytes32"}],"stateMutability":"view"},{"type":"function","name":"allowance","inputs":[{"name":"owner","type":"address","internalType":"address"},{"name":"spender","type":"address","internalType":"address"}],"outputs":[{"name":"","type":"uint256","internalType":"uint256"}],"stateMutability":"view"},{"type":"function","name":"approve","inputs":[{"name":"spender","type":"address","internalType":"address"},{"name":"amount","type":"uint256","internalType":"uint256"}],"outputs":[{"name":"","type":"bool","internalType":"bool"}],"stateMutability":"nonpayable"},{"type":"function","name":"approveSwaps","inputs":[],"outputs":[],"stateMutability":"nonpayable"},{"type":"function","name":"balanceOf","inputs":[{"name":"account","type":"address","internalType":"address"}],"outputs":[{"name":"","type":"uint256","internalType":"uint256"}],"stateMutability":"view"},{"type":"function","name":"balances","inputs":[],"outputs":[{"name":"amount0","type":"uint256","internalType":"uint256"},{"name":"amount1","type":"uint256","internalType":"uint256"}],"stateMutability":"view"},{"type":"function","name":"cancel","inputs":[{"name":"typ","type":"uint8","internalType":"uint8"}],"outputs":[],"stateMutability":"nonpayable"},{"type":"function","name":"controller","inputs":[],"outputs":[{"name":"","type":"address","internalType":"address"}],"stateMutability":"view"},{"type":"function","name":"decimals","inputs":[],"outputs":[{"name":"","type":"uint8","internalType":"uint8"}],"stateMutability":"view"},{"type":"function","name":"decreaseAllowance","inputs":[{"name":"spender","type":"address","internalType":"address"},{"name":"subtractedValue","type":"uint256","internalType":"uint256"}],"outputs":[{"name":"","type":"bool","internalType":"bool"}],"stateMutability":"nonpayable"},{"type":"function","name":"deposit","inputs":[{"name":"_amount0","type":"uint256","internalType":"uint256"},{"name":"_amount1","type":"uint256","internalType":"uint256"},{"name":"_minShares","type":"uint256","internalType":"uint256"}],"outputs":[],"stateMutability":"nonpayable"},{"type":"function","name":"deposit","inputs":[{"name":"usdcAmount","type":"uint256","internalType":"uint256"}],"outputs":[],"stateMutability":"nonpayable"},{"type":"function","name":"eip712Domain","inputs":[],"outputs":[{"name":"fields","type":"bytes1","internalType":"bytes1"},{"name":"name","type":"string","internalType":"string"},{"name":"version","type":"string","internalType":"string"},{"name":"chainId","type":"uint256","internalType":"uint256"},{"name":"verifyingContract","type":"address","internalType":"address"},{"name":"salt","type":"bytes32","internalType":"bytes32"},{"name":"extensions","type":"uint256[]","internalType":"uint256[]"}],"stateMutability":"view"},{"type":"function","name":"executeConfigChange","inputs":[],"outputs":[],"stateMutability":"nonpayable"},{"type":"function","name":"executeDeploy","inputs":[],"outputs":[],"stateMutability":"nonpayable"},{"type":"function","name":"executeSwap","inputs":[{"name":"calls","type":"tuple[]","internalType":"struct SwapCall[]","components":[{"name":"target","type":"address","internalType":"address"},{"name":"data","type":"bytes","internalType":"bytes"},{"name":"value","type":"uint256","internalType":"uint256"}]}],"outputs":[],"stateMutability":"nonpayable"},{"type":"function","name":"executeWithdrawal","inputs":[],"outputs":[],"stateMutability":"nonpayable"},{"type":"function","name":"factory","inputs":[],"outputs":[{"name":"","type":"address","internalType":"address"}],"stateMutability":"view"},{"type":"function","name":"getImplementation","inputs":[],"outputs":[{"name":"","type":"address","internalType":"address"}],"stateMutability":"view"},{"type":"function","name":"getPendingStates","inputs":[],"outputs":[{"name":"depositAmount","type":"uint256","internalType":"uint256"},{"name":"depositPending","type":"bool","internalType":"bool"},{"name":"withdrawalAmount","type":"uint256","internalType":"uint256"},{"name":"withdrawalPending","type":"bool","internalType":"bool"},{"name":"swapToken0","type":"uint256","internalType":"uint256"},{"name":"swapToken1","type":"uint256","internalType":"uint256"},{"name":"swapRecipient","type":"address","internalType":"address"},{"name":"swapPending","type":"bool","internalType":"bool"},{"name":"deployAmount0","type":"uint256","internalType":"uint256"},{"name":"deployAmount1","type":"uint256","internalType":"uint256"},{"name":"deployPending","type":"bool","internalType":"bool"},{"name":"configType","type":"uint8","internalType":"enum AnalogVault.ConfigChangeType"},{"name":"configValue","type":"int256","internalType":"int256"},{"name":"configPending","type":"bool","internalType":"bool"}],"stateMutability":"view"},{"type":"function","name":"inCaseTokensGetStuck","inputs":[{"name":"_token","type":"address","internalType":"address"}],"outputs":[],"stateMutability":"nonpayable"},{"type":"function","name":"increaseAllowance","inputs":[{"name":"spender","type":"address","internalType":"address"},{"name":"addedValue","type":"uint256","internalType":"uint256"}],"outputs":[{"name":"","type":"bool","internalType":"bool"}],"stateMutability":"nonpayable"},{"type":"function","name":"initialize","inputs":[{"name":"_strategy","type":"address","internalType":"address"},{"name":"_name","type":"string","internalType":"string"},{"name":"_symbol","type":"string","internalType":"string"},{"name":"_controller","type":"address","internalType":"address"},{"name":"_owner","type":"address","internalType":"address"}],"outputs":[],"stateMutability":"nonpayable"},{"type":"function","name":"initialize","inputs":[{"name":"_strategy","type":"address","internalType":"address"},{"name":"_name","type":"string","internalType":"string"},{"name":"_symbol","type":"string","internalType":"string"}],"outputs":[],"stateMutability":"nonpayable"},{"type":"function","name":"isCalm","inputs":[],"outputs":[{"name":"","type":"bool","internalType":"bool"}],"stateMutability":"view"},{"type":"function","name":"name","inputs":[],"outputs":[{"name":"","type":"string","internalType":"string"}],"stateMutability":"view"},{"type":"function","name":"nonces","inputs":[{"name":"owner","type":"address","internalType":"address"}],"outputs":[{"name":"","type":"uint256","internalType":"uint256"}],"stateMutability":"view"},{"type":"function","name":"owner","inputs":[],"outputs":[{"name":"","type":"address","internalType":"address"}],"stateMutability":"view"},{"type":"function","name":"pending","inputs":[],"outputs":[{"name":"depositUsdc","type":"uint128","internalType":"uint128"},{"name":"withdrawUsdc","type":"uint128","internalType":"uint128"},{"name":"swapToken0","type":"uint128","internalType":"uint128"},{"name":"swapToken1","type":"uint128","internalType":"uint128"},{"name":"deployAmount0","type":"uint128","internalType":"uint128"},{"name":"deployAmount1","type":"uint128","internalType":"uint128"},{"name":"swapRecipient","type":"address","internalType":"address"},{"name":"configType","type":"uint8","internalType":"enum AnalogVault.ConfigChangeType"},{"name":"configValue","type":"int256","internalType":"int256"},{"name":"flags","type":"uint8","internalType":"uint8"}],"stateMutability":"view"},{"type":"function","name":"permit","inputs":[{"name":"owner","type":"address","internalType":"address"},{"name":"spender","type":"address","internalType":"address"},{"name":"value","type":"uint256","internalType":"uint256"},{"name":"deadline","type":"uint256","internalType":"uint256"},{"name":"v","type":"uint8","internalType":"uint8"},{"name":"r","type":"bytes32","internalType":"bytes32"},{"name":"s","type":"bytes32","internalType":"bytes32"}],"outputs":[],"stateMutability":"nonpayable"},{"type":"function","name":"previewDeposit","inputs":[{"name":"_amount0","type":"uint256","internalType":"uint256"},{"name":"_amount1","type":"uint256","internalType":"uint256"}],"outputs":[{"name":"shares","type":"uint256","internalType":"uint256"},{"name":"amount0","type":"uint256","internalType":"uint256"},{"name":"amount1","type":"uint256","internalType":"uint256"},{"name":"fee0","type":"uint256","internalType":"uint256"},{"name":"fee1","type":"uint256","internalType":"uint256"}],"stateMutability":"view"},{"type":"function","name":"previewWithdraw","inputs":[{"name":"_shares","type":"uint256","internalType":"uint256"}],"outputs":[{"name":"amount0","type":"uint256","internalType":"uint256"},{"name":"amount1","type":"uint256","internalType":"uint256"}],"stateMutability":"view"},{"type":"function","name":"proxiableUUID","inputs":[],"outputs":[{"name":"","type":"bytes32","internalType":"bytes32"}],"stateMutability":"view"},{"type":"function","name":"queueConfigChange","inputs":[{"name":"changeType","type":"uint8","internalType":"enum AnalogVault.ConfigChangeType"},{"name":"value","type":"int256","internalType":"int256"}],"outputs":[],"stateMutability":"nonpayable"},{"type":"function","name":"renounceOwnership","inputs":[],"outputs":[],"stateMutability":"nonpayable"},{"type":"function","name":"setController","inputs":[{"name":"_controller","type":"address","internalType":"address"}],"outputs":[],"stateMutability":"nonpayable"},{"type":"function","name":"strategy","inputs":[],"outputs":[{"name":"","type":"address","internalType":"contract IStrategyConcLiq"}],"stateMutability":"view"},{"type":"function","name":"swapAndDeploy","inputs":[{"name":"calls","type":"tuple[]","internalType":"struct SwapCall[]","components":[{"name":"target","type":"address","internalType":"address"},{"name":"data","type":"bytes","internalType":"bytes"},{"name":"value","type":"uint256","internalType":"uint256"}]},{"name":"amount0","type":"uint256","internalType":"uint256"},{"name":"amount1","type":"uint256","internalType":"uint256"}],"outputs":[],"stateMutability":"nonpayable"},{"type":"function","name":"swapFee","inputs":[],"outputs":[{"name":"","type":"uint256","internalType":"uint256"}],"stateMutability":"view"},{"type":"function","name":"swapTokensToUSDC","inputs":[{"name":"calls","type":"tuple[]","internalType":"struct SwapCall[]","components":[{"name":"target","type":"address","internalType":"address"},{"name":"data","type":"bytes","internalType":"bytes"},{"name":"value","type":"uint256","internalType":"uint256"}]},{"name":"amount0","type":"uint256","internalType":"uint256"},{"name":"amount1","type":"uint256","internalType":"uint256"}],"outputs":[],"stateMutability":"nonpayable"},{"type":"function","name":"symbol","inputs":[],"outputs":[{"name":"","type":"string","internalType":"string"}],"stateMutability":"view"},{"type":"function","name":"totalSupply","inputs":[],"outputs":[{"name":"","type":"uint256","internalType":"uint256"}],"stateMutability":"view"},{"type":"function","name":"transfer","inputs":[{"name":"to","type":"address","internalType":"address"},{"name":"amount","type":"uint256","internalType":"uint256"}],"outputs":[{"name":"","type":"bool","internalType":"bool"}],"stateMutability":"nonpayable"},{"type":"function","name":"transferFrom","inputs":[{"name":"from","type":"address","internalType":"address"},{"name":"to","type":"address","internalType":"address"},{"name":"amount","type":"uint256","internalType":"uint256"}],"outputs":[{"name":"","type":"bool","internalType":"bool"}],"stateMutability":"nonpayable"},{"type":"function","name":"transferOwnership","inputs":[{"name":"newOwner","type":"address","internalType":"address"}],"outputs":[],"stateMutability":"nonpayable"},{"type":"function","name":"upgradeTo","inputs":[{"name":"newImplementation","type":"address","internalType":"address"}],"outputs":[],"stateMutability":"nonpayable"},{"type":"function","name":"upgradeToAndCall","inputs":[{"name":"newImplementation","type":"address","internalType":"address"},{"name":"data","type":"bytes","internalType":"bytes"}],"outputs":[],"stateMutability":"payable"},{"type":"function","name":"upgradeToLatest","inputs":[],"outputs":[],"stateMutability":"nonpayable"},{"type":"function","name":"usdc","inputs":[],"outputs":[{"name":"","type":"address","internalType":"address"}],"stateMutability":"view"},{"type":"function","name":"want","inputs":[],"outputs":[{"name":"_want","type":"address","internalType":"address"}],"stateMutability":"view"},{"type":"function","name":"wants","inputs":[],"outputs":[{"name":"token0","type":"address","internalType":"address"},{"name":"token1","type":"address","internalType":"address"}],"stateMutability":"view"},{"type":"function","name":"withdraw","inputs":[{"name":"usdcAmount","type":"uint256","internalType":"uint256"}],"outputs":[],"stateMutability":"nonpayable"},{"type":"function","name":"withdraw","inputs":[{"name":"_shares","type":"uint256","internalType":"uint256"},{"name":"_minAmount0","type":"uint256","internalType":"uint256"},{"name":"_minAmount1","type":"uint256","internalType":"uint256"}],"outputs":[],"stateMutability":"nonpayable"},{"type":"function","name":"withdrawAll","inputs":[{"name":"_minAmount0","type":"uint256","internalType":"uint256"},{"name":"_minAmount1","type":"uint256","internalType":"uint256"}],"outputs":[],"stateMutability":"nonpayable"},{"type":"event","name":"AdminChanged","inputs":[{"name":"previousAdmin","type":"address","indexed":false,"internalType":"address"},{"name":"newAdmin","type":"address","indexed":false,"internalType":"address"}],"anonymous":false},{"type":"event","name":"Approval","inputs":[{"name":"owner","type":"address","indexed":true,"internalType":"address"},{"name":"spender","type":"address","indexed":true,"internalType":"address"},{"name":"value","type":"uint256","indexed":false,"internalType":"uint256"}],"anonymous":false},{"type":"event","name":"BeaconUpgraded","inputs":[{"name":"beacon","type":"address","indexed":true,"internalType":"address"}],"anonymous":false},{"type":"event","name":"ConfigExec","inputs":[{"name":"changeType","type":"uint8","indexed":true,"internalType":"enum AnalogVault.ConfigChangeType"},{"name":"value","type":"int256","indexed":false,"internalType":"int256"}],"anonymous":false},{"type":"event","name":"ConfigQueued","inputs":[{"name":"changeType","type":"uint8","indexed":true,"internalType":"enum AnalogVault.ConfigChangeType"},{"name":"value","type":"int256","indexed":false,"internalType":"int256"}],"anonymous":false},{"type":"event","name":"CtrlUpdated","inputs":[{"name":"newController","type":"address","indexed":true,"internalType":"address"}],"anonymous":false},{"type":"event","name":"DeployCancel","inputs":[],"anonymous":false},{"type":"event","name":"DeployExec","inputs":[{"name":"amount0","type":"uint256","indexed":false,"internalType":"uint256"},{"name":"amount1","type":"uint256","indexed":false,"internalType":"uint256"}],"anonymous":false},{"type":"event","name":"DeployReg","inputs":[{"name":"amount0","type":"uint256","indexed":false,"internalType":"uint256"},{"name":"amount1","type":"uint256","indexed":false,"internalType":"uint256"}],"anonymous":false},{"type":"event","name":"Deposit","inputs":[{"name":"user","type":"address","indexed":true,"internalType":"address"},{"name":"shares","type":"uint256","indexed":false,"internalType":"uint256"},{"name":"amount0","type":"uint256","indexed":false,"internalType":"uint256"},{"name":"amount1","type":"uint256","indexed":false,"internalType":"uint256"},{"name":"fee0","type":"uint256","indexed":false,"internalType":"uint256"},{"name":"fee1","type":"uint256","indexed":false,"internalType":"uint256"}],"anonymous":false},{"type":"event","name":"DepositCancel","inputs":[],"anonymous":false},{"type":"event","name":"DepositExec","inputs":[{"name":"amount0","type":"uint256","indexed":false,"internalType":"uint256"},{"name":"amount1","type":"uint256","indexed":false,"internalType":"uint256"}],"anonymous":false},{"type":"event","name":"DepositReg","inputs":[{"name":"usdcAmount","type":"uint256","indexed":false,"internalType":"uint256"}],"anonymous":false},{"type":"event","name":"EIP712DomainChanged","inputs":[],"anonymous":false},{"type":"event","name":"Initialized","inputs":[{"name":"version","type":"uint8","indexed":false,"internalType":"uint8"}],"anonymous":false},{"type":"event","name":"OwnershipTransferred","inputs":[{"name":"previousOwner","type":"address","indexed":true,"internalType":"address"},{"name":"newOwner","type":"address","indexed":true,"internalType":"address"}],"anonymous":false},{"type":"event","name":"SwapCancel","inputs":[],"anonymous":false},{"type":"event","name":"SwapExec","inputs":[{"name":"usdcAmount","type":"uint256","indexed":false,"internalType":"uint256"},{"name":"recipient","type":"address","indexed":true,"internalType":"address"}],"anonymous":false},{"type":"event","name":"Transfer","inputs":[{"name":"from","type":"address","indexed":true,"internalType":"address"},{"name":"to","type":"address","indexed":true,"internalType":"address"},{"name":"value","type":"uint256","indexed":false,"internalType":"uint256"}],"anonymous":false},{"type":"event","name":"Upgraded","inputs":[{"name":"implementation","type":"address","indexed":true,"internalType":"address"}],"anonymous":false},{"type":"event","name":"Withdraw","inputs":[{"name":"user","type":"address","indexed":true,"internalType":"address"},{"name":"shares","type":"uint256","indexed":false,"internalType":"uint256"},{"name":"amount0","type":"uint256","indexed":false,"internalType":"uint256"},{"name":"amount1","type":"uint256","indexed":false,"internalType":"uint256"}],"anonymous":false},{"type":"event","name":"WithdrawCancel","inputs":[],"anonymous":false},{"type":"event","name":"WithdrawExec","inputs":[{"name":"token0Amount","type":"uint256","indexed":false,"internalType":"uint256"},{"name":"token1Amount","type":"uint256","indexed":false,"internalType":"uint256"},{"name":"recipient","type":"address","indexed":true,"internalType":"address"}],"anonymous":false},{"type":"event","name":"WithdrawReg","inputs":[{"name":"usdcAmount","type":"uint256","indexed":false,"internalType":"uint256"},{"name":"recipient","type":"address","indexed":true,"internalType":"address"}],"anonymous":false},{"type":"error","name":"ConfigPending","inputs":[]},{"type":"error","name":"DeployPending","inputs":[]},{"type":"error","name":"DepositPending","inputs":[]},{"type":"error","name":"Insufficient","inputs":[]},{"type":"error","name":"Invalid","inputs":[]},{"type":"error","name":"Invalid","inputs":[]},{"type":"error","name":"InvalidImpl","inputs":[]},{"type":"error","name":"NoConfig","inputs":[]},{"type":"error","name":"NoDeploy","inputs":[]},{"type":"error","name":"NoDeposit","inputs":[]},{"type":"error","name":"NoShares","inputs":[]},{"type":"error","name":"NoSwap","inputs":[]},{"type":"error","name":"NoWithdraw","inputs":[]},{"type":"error","name":"NotCalm","inputs":[]},{"type":"error","name":"NotEnoughTokens","inputs":[]},{"type":"error","name":"OnlyCtrl","inputs":[]},{"type":"error","name":"OnlyFact","inputs":[]},{"type":"error","name":"OnlyOwner","inputs":[]},{"type":"error","name":"SwapFail","inputs":[]},{"type":"error","name":"SwapFail","inputs":[]},{"type":"error","name":"SwapPending","inputs":[]},{"type":"error","name":"TooMuchSlippage","inputs":[]},{"type":"error","name":"WithdrawPending","inputs":[]}],"bytecode":{"object":"0x60a0806040523460305730608052615cc1908161003582396080518181816130960152818161318c01526135350152f35b5f80fdfe6080604052600436101561001a575b3615610018575f80fd5b005b5f5f3560e01c8062aeef8a14613cd657806306fdde0314613c42578063095ea7b314613c1b5780630a28a47714613bdc57806318160ddd14613bbe5780631ea20083146139fc5780631f1fcd511461398457806321ec23b6146138b057806323b872dd146137ee5780632e1a7d4d14613707578063313ce567146136eb5780633644e515146136d05780633659cfe614613516578063367ad9e21461338e578063395093511461333e5780633e413bee146133145780634f1ef2861461314157806352d1902d1461308357806354cf2aeb1461306057806354d68c2014612d3c5780636584493414612d0757806369b0074514612b015780636cf1dbed1461242657806370a08231146123ed578063715018a6146123a35780637a7af70d146121be5780637aff49d7146121995780637bb98a68146121725780637ecebe001461213957806384b0196e14612029578063890d007c14611e335780638da5cb5b14611e0a578063906571471461179357806392eefe9b1461170757806394df7a70146115d457806395d89b41146115005780639bdde46b14611490578063a41fe49f14611478578063a457c2d7146113d5578063a8c62e76146113ab578063a9059cbb14611379578063aaf10f4214611344578063b6b55f25146111cb578063c45a0155146111a1578063ca047c5614610e16578063d505accf14610c74578063d52b1a8814610bae578063dd62ed3e14610b5b578063def68a9c14610ab8578063e20ccec314610a15578063ec8e6d2a146107c3578063f2fde38b14610732578063f77c4791146107085763fa45aa0014610276575061000e565b346106e457806003193601126106e457610197546001600160a01b031633036106f9576102a16149d0565b61019d5460028116156106ea5761019880546001600160801b0316905560ff19811660fd919091161761019d556101305481906001600160a01b0316803b156106e757818091600460405180948193630beebd3960e11b83525af1801561064d576106cf575b50506103116146d5565b6103196145d8565b6040516370a0823160e01b81523060048201529390926001600160a01b0383169291602086602481875afa9586156106c4578796610690575b506040516370a0823160e01b81523060048201526001600160a01b038616966020826024818b5afa91821561062957899261065c575b506101305489906001600160a01b0316803b1561065857818091604460405180948193630441a3e760e41b83528a60048401528b60248401525af1801561064d57610634575b50506020602496604051978880926370a0823160e01b82523060048301525afa9586156106295789966105f3575b5061040b6020916024976142e1565b97604051968780926370a0823160e01b82523060048301525afa801561053b57879589916105b4575b50610446610462939261045c926142e1565b97889281158015906105ab575b61054f576142e1565b926142e1565b908015801590610546575b806104c3575b905f516020615aec5f395f51905f52956040959493926104b1575b5050505060018060a01b0360cc54169382519182526020820152a2600160fe5580f35b6104ba93615329565b5f80808061048e565b50604051639bdde46b60e01b815293929190602085600481305afa95861561053b575f516020615aec5f395f51905f52966040968a9161050c575b509192939495509550610473565b61052e915060203d602011610534575b610526818361418c565b8101906145c0565b5f6104fe565b503d61051c565b6040513d8a823e3d90fd5b5081151561046d565b6001600160801b038216608085901b6001600160801b031916176101995560cc5461019b80546001600160a01b0319166001600160a01b039290921691909117905561019d805460ff19811660ff9091161760041790556142e1565b50831515610453565b92919550506020823d6020116105eb575b816105d26020938361418c565b810103126105e7579051869490610446610434565b5f80fd5b3d91506105c5565b95506020863d602011610621575b8161060e6020938361418c565b810103126105e75794519461040b6103fc565b3d9150610601565b6040513d8b823e3d90fd5b8161063e9161418c565b61064957885f6103ce565b8880fd5b6040513d84823e3d90fd5b5080fd5b9091506020813d602011610688575b816106786020938361418c565b810103126105e75751905f610388565b3d915061066b565b9095506020813d6020116106bc575b816106ac6020938361418c565b810103126105e75751945f610352565b3d915061069f565b6040513d89823e3d90fd5b816106d99161418c565b6106e457805f610307565b80fd5b50fd5b630a5eb86760e21b8252600482fd5b637372ed1f60e01b8152600490fd5b50346106e457806003193601126106e457610197546040516001600160a01b039091168152602090f35b50346106e45760203660031901126106e45761074c61413f565b610754614eed565b6001600160a01b0381161561076f5761076c90615572565b80f35b60405162461bcd60e51b815260206004820152602660248201527f4f776e61626c653a206e6577206f776e657220697320746865207a65726f206160448201526564647265737360d01b6064820152608490fd5b50346106e457806003193601126106e457610197546001600160a01b031633036106f9576107ef6149d0565b600861019d541615610a0657604051639bdde46b60e01b8152602081600481305afa90811561064d5782916109e7575b50156109d85760ff61019b5460a01c1661019c5460ff60a01b1961019b541661019b558261019c5561019d5460f781169060ff19161761019d5560018060a01b036101305416600483101590816109c45784906001850361091457803b15610658578180916024604051809481936312cf138160e01b83528960020b60048401525af1801561064d576108fb575b50505b6108e75760207f7f957baf715b9d399a74e664bafdf932e3a6c16ab77a458385a6ef38ebc1a6d891604051908152a2600160fe5580f35b634e487b7160e01b83526021600452602483fd5b816109059161418c565b61091057835f6108ad565b8380fd5b91508091600285145f1461097157803b1561065857818091602460405180948193631b16146360e11b83528960060b60048401525af1801561064d5761095c575b50506108b0565b816109669161418c565b61091057835f610955565b91508091600385146109845750506108b0565b803b1561065857818091602460405180948193631d27050f60e01b835263ffffffff8a1660048401525af1801561064d571561095557816109669161418c565b634e487b7160e01b85526021600452602485fd5b6313643c3b60e11b8152600490fd5b610a00915060203d60201161053457610526818361418c565b5f61081f565b63036764e560e21b8152600490fd5b50346106e457806003193601126106e457610140610198546101995461019a54610aaa61019b5461019c549260ff61019d5416946040519660018060801b038116885260801c602088015260018060801b038116604088015260801c606087015260018060801b038116608087015260801c60a086015260018060a01b03811660c086015260ff60e086019160a01c1661416b565b610100830152610120820152f35b50346106e45760203660031901126106e457610ad261413f565b610ada614eed565b6040516370a0823160e01b8152306004820152906001600160a01b0316602082602481845afa908115610b50578391610b1a575b61076c925033906155a7565b90506020823d602011610b48575b81610b356020938361418c565b810103126105e75761076c915190610b0e565b3d9150610b28565b6040513d85823e3d90fd5b50346106e45760403660031901126106e4576040610b7761413f565b91610b80614155565b9260018060a01b031681526034602052209060018060a01b03165f52602052602060405f2054604051908152f35b50346106e45760403660031901126106e457600435600481108015610c705760243590610bd9614eed565b8215610c6157600861019d5416610c5257156108e75760207f2a45aecb5e74807f4204a70f50428bc49db88ba8b1799808a3b23dda36ad3e309161019b5460ff60a01b8560a01b169060ff60a01b19161761019b558061019c55600861019d5460ff81169060ff1916171761019d55604051908152a280f35b637ed27eb760e01b8452600484fd5b636dac6a0960e01b8452600484fd5b8280fd5b50346106e45760e03660031901126106e457610c8e61413f565b610c96614155565b6044359060643560843560ff81168103610e1257814211610dcd57610d69610d719160018060a01b03871693848952609960205260408920908154916001830190556040519060208201927f6e71edae12b1b97f4d1f60370fef10105fa2faae0126114a169c64845d6126c9845287604084015260018060a01b038916606084015289608084015260a083015260c082015260c08152610d3760e08261418c565b519020610d426156d6565b906040519161190160f01b83526002830152602282015260c43591604260a43592206157cd565b91909161583e565b6001600160a01b031603610d885761076c92614de9565b60405162461bcd60e51b815260206004820152601e60248201527f45524332305065726d69743a20696e76616c6964207369676e617475726500006044820152606490fd5b60405162461bcd60e51b815260206004820152601d60248201527f45524332305065726d69743a206578706972656420646561646c696e650000006044820152606490fd5b8580fd5b50346106e457610e2536614244565b6101975490939192906001600160a01b0316330361119257610e456149d0565b600361019d541661118357610e586145d8565b6040516370a0823160e01b81523060048201526001600160a01b039092169190602082602481865afa91821561053b57889261114f575b506040516370a0823160e01b8152306004820152956001600160a01b03919091169290602087602481875afa96871561062957899761111b575b50801561111357965b801561110b57915b871596879182611102575b82156110f8575b5081156110ee575b506110df5760cc54610195546001600160a01b03918216988a989190921692831490816110d6575b506110c1575b5050610195546001600160a01b03169186908314806110b8575b611097575b5050610195546040516370a0823160e01b8152306004820152929150602090839060249082906001600160a01b03165afa918215611056578692611061575b50610f8b9192615245565b610195546040516370a0823160e01b81523060048201526001600160a01b0390911691602082602481865afa8015611056578690611022575b610fce92506142e1565b8381611006575b50505080610fe7575b82600160fe5580f35b60205f516020615aac5f395f51905f5291604051908152a25f80610fde565b6110148261101a9495614333565b936155a7565b5f8083610fd5565b506020823d60201161104e575b8161103c6020938361418c565b810103126105e757610fce9151610fc4565b3d915061102f565b6040513d88823e3d90fd5b91506020823d60201161108f575b8161107c6020938361418c565b810103126105e757610f8b915191610f80565b3d915061106f565b906110b0916110aa826024969598614333565b966155a7565b905f85610f41565b50811515610f3c565b6110cf9196508781976155a7565b5f80610f22565b9050155f610f1c565b631dc930eb60e01b8852600488fd5b905082115f610ef4565b891191505f610eec565b84159250610ee5565b508591610eda565b508196610ed2565b9096506020813d602011611147575b816111376020938361418c565b810103126105e75751955f610ec9565b3d915061112a565b9091506020813d60201161117b575b8161116b6020938361418c565b810103126105e75751905f610e8f565b3d915061115e565b634cefbb2b60e01b8552600485fd5b637372ed1f60e01b8552600485fd5b50346106e457806003193601126106e457610196546040516001600160a01b039091168152602090f35b50346106e45760203660031901126106e4576004356111e8614eed565b6111f06149d0565b801580156112cb575b80156112bc575b6112ad5760207f8dd3770f17ff59559692697c66c69e63fb8641c74aa5a6b7122b53f7e550ba919161126d60018060a01b036101955416604051906323b872dd60e01b858301526112688261125a86303360248501614d9f565b03601f19810184528361418c565b61567a565b61019880546001600160801b0319166001600160801b03831617905561019d805460ff19811660ff909116176001179055604051908152a1600160fe5580f35b631dc930eb60e01b8252600482fd5b50600161019d54161515611200565b50610195546040516370a0823160e01b815233600482015290602090829060249082906001600160a01b03165afa8015610b50578291849161130f575b50106111f9565b9150506020813d60201161133c575b8161132b6020938361418c565b810103126105e7578190515f611308565b3d915061131e565b50346106e457806003193601126106e4575f516020615b0c5f395f51905f52546040516001600160a01b039091168152602090f35b50346106e45760403660031901126106e4576113a061139661413f565b6024359033614f45565b602060405160018152f35b50346106e457806003193601126106e457610130546040516001600160a01b039091168152602090f35b50346106e45760403660031901126106e4576113ef61413f565b60406024359233815260346020522060018060a01b0382165f5260205260405f205491808310611425576113a092039033614de9565b60405162461bcd60e51b815260206004820152602560248201527f45524332303a2064656372656173656420616c6c6f77616e63652062656c6f77604482015264207a65726f60d81b6064820152608490fd5b50346106e45761076c61148a36614101565b91614744565b50346106e457806003193601126106e45761013054604051639bdde46b60e01b815290602090829060049082906001600160a01b03165afa90811561064d57602092916114e3575b506040519015158152f35b6114fa9150823d841161053457610526818361418c565b5f6114d8565b50346106e457806003193601126106e45760405190806037549061152382614340565b80855291600181169081156115ad5750600114611563575b61155f8461154b8186038261418c565b60405191829160208352602083019061411b565b0390f35b603781525f516020615c0c5f395f51905f52939250905b8082106115935750909150810160200161154b8261153b565b91926001816020925483858801015201910190929161157a565b60ff191660208087019190915292151560051b8501909201925061154b915083905061153b565b50346106e457806003193601126106e457610197546001600160a01b031633036106f9576116006149d0565b61019d5460108116156116f857604051639bdde46b60e01b8152602081600481305afa908115610b505783916116d9575b50156116ca5761019a80549083905560ff19821660ef9092169190911761019d556001600160801b0381169060801c81158015906116c1575b6116775782600160fe5580f35b81816116af6040937f8ac5c72bb51c04d4d9bee4cf777f3edbc82be47a4753bd39cb683fbf1011e62b956116a96145d8565b90615329565b82519182526020820152a15f80610fde565b5080151561166a565b6313643c3b60e11b8252600482fd5b6116f2915060203d60201161053457610526818361418c565b5f611631565b6367721c1560e01b8252600482fd5b50346106e45760203660031901126106e45761172161413f565b60cc546001600160a01b03163314158061177d575b61176e5761019780546001600160a01b0319166001600160a01b039290921691821790555f516020615a8c5f395f51905f528280a280f35b631323895160e21b8252600482fd5b50610196546001600160a01b0316331415611736565b50346106e45760603660031901126106e4576117ad61413f565b906024356001600160401b038111610658576117cd90369060040161427a565b92906044356001600160401b038111610910576117ee90369060040161427a565b8454600881901c60ff1615969261183a918880611dfd575b8015611de6575b61181690614672565b60ff198116600117885588611dd5575b506118323685876141de565b9236916141de565b9061185460ff875460081c1661184f81615512565b615512565b8051906001600160401b038211611dc1578190611872603654614340565b601f8111611d66575b50602090601f8311600114611d02578892611cf7575b50508160011b915f199060031b1c1916176036555b8051906001600160401b038211611ce3576118c2603754614340565b601f8111611c93575b50602090601f8311600114611c2a5761190594939291879183611c1f575b50508160011b915f199060031b1c1916176037555b36916141de565b9260ff835460081c169361191885615512565b61193d6040519561192a60408861418c565b60018752603160f81b6020880152615512565b8051906001600160401b038211611c0b57819061195b606754614340565b601f8111611bb0575b50602090601f8311600114611b4c578692611b41575b50508160011b915f199060031b1c1916176067555b83516001600160401b038111611b2d576119aa606854614340565b601f8111611add575b50602094601f8211600114611a7a579484958293949592611a6f575b50508160011b915f199060031b1c1916176068555b8260655582606655611a0060ff845460081c1661184f81615512565b611a0933615572565b825491611a1f60ff8460081c1661184f81615512565b600160fe5561013080546001600160a01b0319166001600160a01b0392909216919091179055611a4d575080f35b61ff00191681555f516020615b4c5f395f51905f52602060405160018152a180f35b015190505f806119cf565b601f198216956068865280862091865b888110611ac557508360019596979810611aad575b505050811b016068556119e4565b01515f1960f88460031b161c191690555f8080611a9f565b91926020600181928685015181550194019201611a8a565b606885525f516020615b8c5f395f51905f52601f830160051c81019160208410611b23575b601f0160051c01905b818110611b1857506119b3565b858155600101611b0b565b9091508190611b02565b634e487b7160e01b84526041600452602484fd5b015190505f8061197a565b606787528187209250601f198416875b818110611b985750908460019594939210611b80575b505050811b0160675561198f565b01515f1960f88460031b161c191690555f8080611b72565b92936020600181928786015181550195019301611b5c565b606787529091505f516020615b2c5f395f51905f52601f840160051c81019160208510611c01575b90601f859493920160051c01905b818110611bf35750611964565b878155849350600101611be6565b9091508190611bd8565b634e487b7160e01b85526041600452602485fd5b015190505f806118e9565b603787528187209190601f198416885b818110611c7b57509160019391856119059897969410611c63575b505050811b016037556118fe565b01515f1960f88460031b161c191690555f8080611c55565b92936020600181928786015181550195019301611c3a565b603787525f516020615c0c5f395f51905f52601f840160051c81019160208510611cd9575b601f0160051c01905b818110611cce57506118cb565b878155600101611cc1565b9091508190611cb8565b634e487b7160e01b86526041600452602486fd5b015190505f80611891565b603689528189209250601f198416895b818110611d4e5750908460019594939210611d36575b505050811b016036556118a6565b01515f1960f88460031b161c191690555f8080611d28565b92936020600181928786015181550195019301611d12565b603689529091505f516020615a6c5f395f51905f52601f840160051c81019160208510611db7575b90601f859493920160051c01905b818110611da9575061187b565b898155849350600101611d9c565b9091508190611d8e565b634e487b7160e01b87526041600452602487fd5b61ffff19166101011787555f611826565b50303b15801561180d575060ff811660011461180d565b50600160ff821610611806565b50346106e457806003193601126106e45760cc546040516001600160a01b039091168152602090f35b50346106e45760203660031901126106e4576004356001600160401b03811161065857611e64903690600401614214565b610197549091906001600160a01b0316330361201a57611e826149d0565b61019d5491600483161561200b5761019b80546101998690556001600160a01b0319811690915560ff19841660fb9094169390931761019d556001600160a01b0390921691602490611ed26145d8565b5050610195546040516370a0823160e01b81523060048201529260209184919082906001600160a01b03165afa918215611fca578592611fd5575b50611f189192615245565b610195546040516370a0823160e01b81523060048201526001600160a01b0390911691602082602481865afa8015611fca578590611f96575b611f5b92506142e1565b9081611f6b575b83600160fe5580f35b81611f875f516020615aac5f395f51905f5293856020946155a7565b604051908152a25f8080611f62565b506020823d602011611fc2575b81611fb06020938361418c565b810103126105e757611f5b9151611f51565b3d9150611fa3565b6040513d87823e3d90fd5b91506020823d602011612003575b81611ff06020938361418c565b810103126105e757611f18915191611f0d565b3d9150611fe3565b63c84be13560e01b8452600484fd5b637372ed1f60e01b8352600483fd5b50346106e457806003193601126106e457606554158061212f575b156120f25761209690612055614378565b9061205e61441c565b9060206120a460405193612072838661418c565b8385525f368137604051968796600f60f81b885260e08589015260e088019061411b565b90868203604088015261411b565b904660608601523060808601528260a086015284820360c08601528080855193848152019401925b8281106120db57505050500390f35b8351855286955093810193928101926001016120cc565b60405162461bcd60e51b81526020600482015260156024820152741152540dcc4c8e88155b9a5b9a5d1a585b1a5e9959605a1b6044820152606490fd5b5060665415612044565b50346106e45760203660031901126106e4576020906040906001600160a01b0361216161413f565b168152609983522054604051908152f35b50346106e457806003193601126106e457604061218d6146d5565b82519182526020820152f35b50346106e45761076c6121ab366142a7565b9033845260336020526040842054614744565b50346106e45760046121cf366142a7565b6101305460405163501ad8ff60e11b81529294929360209185919082906001600160a01b03165afa92831561064d57829361236f575b5061220e6146d5565b949091612227838761221e614559565b9184868a614a26565b969298919790956035549485159687612364575b505061227461224a898b6142e1565b8b61226d856122688c6a0c097ce7bc90715b34b9f160241b946142e1565b614302565b0490614333565b9561232d57906122688761228793614333565b6a0c097ce7bc90715b34b9f160241b81019290838111612319576ec097ce7bc90715b34b9f0fffffffff0192831161230557506122f7926122ec879695936122d561155f996122f295614333565b906a0c097ce7bc90715b34b9f160241b9004614333565b92614302565b614315565b935b604051958695866142bd565b634e487b7160e01b81526011600452602490fd5b634e487b7160e01b82526011600452602482fd5b505050959493929190506103e71981019081116123505793945061155f926122f9565b634e487b7160e01b86526011600452602486fd5b915092505f8061223b565b9092506020813d60201161239b575b8161238b6020938361418c565b810103126105e75751915f612205565b3d915061237e565b50346106e457806003193601126106e4576123bc614eed565b60cc80546001600160a01b0319811690915581906001600160a01b03165f516020615b6c5f395f51905f528280a380f35b50346106e45760203660031901126106e4576020906040906001600160a01b0361241561413f565b168152603383522054604051908152f35b50346106e45760a03660031901126106e45761244061413f565b6024356001600160401b038111610c705761245f90369060040161427a565b916044356001600160401b038111612afd5761247f90369060040161427a565b9190926064359460018060a01b038616809603612af957608435936001600160a01b0385168503612af55761252388549660ff8860081c161597888099612ae8575b8015612ad1575b6124d190614672565b60ff1981166001178b5588612ac0575b5061019680546001600160a01b03199081163317909155610195805490911673833589fcd6edb6e08f4c7c32d4f71b54bda029131790556118323685876141de565b9061253860ff8a5460081c1661184f81615512565b8051906001600160401b038211612aac578190612556603654614340565b601f8111612a51575b50602090601f83116001146129ed578b926129e2575b50508160011b915f199060031b1c1916176036555b8051906001600160401b0382116129ce576125a6603754614340565b601f811161297e575b50602090601f831160011461292e576125e7949392918a9183611c1f5750508160011b915f199060031b1c19161760375536916141de565b60ff865460081c16906125f982615512565b61261e6040519261260b60408561418c565b60018452603160f81b6020850152615512565b8051906001600160401b03821161291a57819061263c606754614340565b601f81116128bf575b50602090601f831160011461285b578992612850575b50508160011b915f199060031b1c1916176067555b8051906001600160401b038211611dc15761268c606854614340565b601f8111612800575b50602090601f83116001146127975761273a9493929188918361278c575b50508160011b915f199060031b1c1916176068555b85606555856066556126e460ff875460081c1661184f81615512565b6126ed33615572565b61271460ff875460081c1661270181615512565b61270a81615512565b600160fe55615512565b61013080546001600160a01b0319166001600160a01b0392909216919091179055615572565b61019780546001600160a01b03191683179055604051915f516020615a8c5f395f51905f528480a261276a575080f35b60205f516020615b4c5f395f51905f529161ff0019845416845560018152a180f35b015190505f806126b3565b606888528188209190601f198416895b8181106127e8575091600193918561273a98979694106127d0575b505050811b016068556126c8565b01515f1960f88460031b161c191690555f80806127c2565b929360206001819287860151815501950193016127a7565b606888525f516020615b8c5f395f51905f52601f840160051c81019160208510612846575b601f0160051c01905b81811061283b5750612695565b88815560010161282e565b9091508190612825565b015190505f8061265b565b60678a52818a209250601f1984168a5b8181106128a7575090846001959493921061288f575b505050811b01606755612670565b01515f1960f88460031b161c191690555f8080612881565b9293602060018192878601518155019501930161286b565b60678a529091505f516020615b2c5f395f51905f52601f840160051c81019160208510612910575b90601f859493920160051c01905b8181106129025750612645565b8a81558493506001016128f5565b90915081906128e7565b634e487b7160e01b88526041600452602488fd5b60378a52818a209190601f1984168b5b81811061296657509160019391856125e79897969410611c6357505050811b016037556118fe565b9293602060018192878601518155019501930161293e565b60378a525f516020615c0c5f395f51905f52601f840160051c810191602085106129c4575b601f0160051c01905b8181106129b957506125af565b8a81556001016129ac565b90915081906129a3565b634e487b7160e01b89526041600452602489fd5b015190505f80612575565b60368c52818c209250601f1984168c5b818110612a395750908460019594939210612a21575b505050811b0160365561258a565b01515f1960f88460031b161c191690555f8080612a13565b929360206001819287860151815501950193016129fd565b60368c529091505f516020615a6c5f395f51905f52601f840160051c81019160208510612aa2575b90601f859493920160051c01905b818110612a94575061255f565b8c8155849350600101612a87565b9091508190612a79565b634e487b7160e01b8a52604160045260248afd5b61ffff1916610101178a555f6124e1565b50303b1580156124c8575060ff81166001146124c8565b50600160ff8216106124c1565b8780fd5b8680fd5b8480fd5b50346106e457806003193601126106e457610197546001600160a01b031633141580612cf2575b6106f957612b346145d8565b91612c5157612b8e60405163095ea7b360e01b60208201525f516020615bec5f395f51905f5260248201525f604482015260448152612b7460648261418c565b73833589fcd6edb6e08f4c7c32d4f71b54bda0291361567a565b6001600160a01b031690612ba182615419565b6001600160a01b0316612bb381615419565b604051636eb1769f60e11b81523060048201525f516020615bec5f395f51905f52602482015260208160448173833589fcd6edb6e08f4c7c32d4f71b54bda029135afa908115612ce7575f91612cb5575b50612c5157612c4c61001892612c4c60405163095ea7b360e01b60208201525f516020615bec5f395f51905f5260248201525f19604482015260448152612b7460648261418c565b615456565b60405162461bcd60e51b815260206004820152603660248201527f5361666545524332303a20617070726f76652066726f6d206e6f6e2d7a65726f60448201527520746f206e6f6e2d7a65726f20616c6c6f77616e636560501b6064820152608490fd5b90506020813d602011612cdf575b81612cd06020938361418c565b810103126105e757515f612c04565b3d9150612cc3565b6040513d5f823e3d90fd5b5060cc546001600160a01b0316331415612b28565b50346106e457806003193601126106e457612d206145d8565b604080516001600160a01b039384168152919092166020820152f35b50346106e457612d4b36614244565b6101975490939192906001600160a01b0316330361119257612d6b6149d0565b61019d5460018116156130515761019880546001600160801b0319811690915560ff19821660fe9092169190911761019d55610195546040516370a0823160e01b81523060048201529190602090839060249082906001600160a01b03165afa9182156106c457879261301d575b506001600160801b03161161300e5780612ffe575b5050612df86145d8565b909180612ff857506040516370a0823160e01b81523060048201526020816024816001600160a01b0387165afa908115611fca578591612fc6575b50925b80612fc057506040516370a0823160e01b81523060048201526020816024816001600160a01b0386165afa908115611fca578591612f8e575b50915b8315801590612f85575b612e8a575b84600160fe5580f35b604051639bdde46b60e01b8152602081600481305afa908115611056578691612f66575b5015612efa5791612ee581857f184b6cff4a77a2db9b5c43924eb40173cb18ae6e754cce93063c8b913649e6689694604096615329565b82519182526020820152a15b5f808080612e81565b50506001600160801b038216608082901b6001600160801b0319161761019a5561019d805460ff19811660ff9091161760101790556040805192835260208301919091527f0b67fa77433f64db330d6489623ac8965c13f4345bc24b6c33db1043b31316d491a1612ef1565b612f7f915060203d60201161053457610526818361418c565b5f612eae565b50821515612e7c565b90506020813d602011612fb8575b81612fa96020938361418c565b810103126105e757515f612e6f565b3d9150612f9c565b91612e72565b90506020813d602011612ff0575b81612fe16020938361418c565b810103126105e757515f612e33565b3d9150612fd4565b92612e36565b61300791615245565b5f80612dee565b631dc930eb60e01b8552600485fd5b9091506020813d602011613049575b816130396020938361418c565b810103126105e75751905f612dd9565b3d915061302c565b633a6a68b160e01b8652600486fd5b50346106e457806003193601126106e457602061307b614559565b604051908152f35b50346106e457806003193601126106e4577f00000000000000000000000000000000000000000000000000000000000000006001600160a01b031630036130db5760206040515f516020615b0c5f395f51905f528152f35b60405162461bcd60e51b815260206004820152603860248201527f555550535570677261646561626c653a206d757374206e6f742062652063616c6044820152771b1959081d1a1c9bdd59da0819195b1959d85d1958d85b1b60421b6064820152608490fd5b5060403660031901126106e45761315661413f565b6024356001600160401b038111610c705736602382011215610c70576131869036906024816004013591016141de565b906131de7f00000000000000000000000000000000000000000000000000000000000000006001600160a01b03166131c0308214156144bd565b5f516020615b0c5f395f51905f52546001600160a01b03161461450b565b6131e7816150ab565b5f516020615a4c5f395f51905f525460ff16156132085761076c915061573d565b6040516352d1902d60e01b81526020816004816001600160a01b0386165afa8491816132e0575b5061327d5760405162461bcd60e51b815260206004820152602e60248201525f516020615c6c5f395f51905f5260448201526d6f6e206973206e6f74205555505360901b6064820152608490fd5b5f516020615b0c5f395f51905f520361329c5761076c9160019161513a565b60405162461bcd60e51b815260206004820152602960248201525f516020615c2c5f395f51905f526044820152681a58589b195555525160ba1b6064820152608490fd5b9091506020813d60201161330c575b816132fc6020938361418c565b81010312612afd5751905f61322f565b3d91506132ef565b50346106e457806003193601126106e457610195546040516001600160a01b039091168152602090f35b50346106e45760403660031901126106e4576113a090604061335e61413f565b9133815260346020522060018060a01b0382165f5260205261338760405f206024359054614333565b9033614de9565b50346106e457806003193601126106e4576133a7614eed565b5f516020615b0c5f395f51905f52546101965460405163b133f4d360e01b81526001600160a01b0392831692909160209183916004918391165afa908115610b505783916134e7575b506001600160a01b0381169182159081156134dd575b506134ce57826101985582610199558261019a558261019b558261019c558261019d556040519061343860208361418c565b83825260208201925f36853761344d8261573d565b5f516020615bac5f395f51905f528580a2838251158015906134c7575b6134715780f35b806134bf946040519461348560608761418c565b602786525f516020615c4c5f395f51905f526020870152660819985a5b195960ca1b60408701525190845af46134b9615216565b916159ae565b505f80808380f35b508061346a565b63645a6cf960e11b8352600483fd5b905082145f613406565b613509915060203d60201161350f575b613501818361418c565b81019061449e565b5f6133f0565b503d6134f7565b50346106e45760203660031901126106e45761353061413f565b6135697f00000000000000000000000000000000000000000000000000000000000000006001600160a01b03166131c0308214156144bd565b613572816150ab565b602090604051613582838261418c565b838152601f19830136848301375f516020615a4c5f395f51905f525460ff16156135b1575061076c915061573d565b6040516352d1902d60e01b815290919083816004816001600160a01b0386165afa8591816136a1575b506136285760405162461bcd60e51b815260048101859052602e60248201525f516020615c6c5f395f51905f5260448201526d6f6e206973206e6f74205555505360901b6064820152608490fd5b919290917fc9f76b5ec45e5cdef99837d7b6d2467235c1df8933c8ca56df5c35afa2c7d4440161365e575061076c91839161513a565b6084906040519062461bcd60e51b82526004820152602960248201525f516020615c2c5f395f51905f526044820152681a58589b195555525160ba1b6064820152fd5b9091508481813d83116136c9575b6136b9818361418c565b81010312610e125751905f6135da565b503d6136af565b50346106e457806003193601126106e457602061307b6156d6565b50346106e457806003193601126106e457602060405160128152f35b50346106e45760203660031901126106e457600435613724614eed565b61372c6149d0565b80156112ad5761019d54600181166137df57600281166137d057601081166137c15761019880546001600160801b0316608084901b6001600160801b03191617905560ff19811660ff9091161760021761019d5560cc546040519182526001600160a01b0316907f6718aadc3dfc9e07c92e72d1196583f66f68ccee82ad7384cff549e53a37382790602090a2600160fe5580f35b630e42758360e41b8352600483fd5b63ceb0aaa560e01b8352600483fd5b634cefbb2b60e01b8352600483fd5b50346106e45760603660031901126106e45761380861413f565b90613811614155565b6001600160a01b038316825260346020908152604092839020335f908152915291909120549160443591906001840161384f575b6113a09350614f45565b82841061386b57613866836113a095033383614de9565b613845565b60405162461bcd60e51b815260206004820152601d60248201527f45524332303a20696e73756666696369656e7420616c6c6f77616e63650000006044820152606490fd5b50346106e457806003193601126106e4576101c061019854600861019d546101995461397361019b5461019a5461019c54936040519760018060801b038116895260018716151560208a015260801c6040890152600286161515606089015260018060801b038116608089015260801c60a088015260018060a01b03821660c088015260048516151560e088015260018060801b03811661010088015260801c61012087015260108416151561014087015260ff61016087019160a01c1661416b565b6101808401521615156101a0820152f35b50346106e457806003193601126106e457610130546040516316f0115b60e01b815290602090829060049082906001600160a01b03165afa90811561064d57602092916139df575b506040516001600160a01b039091168152f35b6139f69150823d841161350f57613501818361418c565b5f6139cc565b50346106e45760203660031901126106e45760043560ff811680910361065857613a24614eed565b60018103613a91575061019d546001811615613a825761019880546001600160801b031916905560ff19811660fe919091161761019d557f89433bd1c57567f9ee00f2e9c583ba1cb1a1ffe2a0eeaf934c36419b1c7ee81e8180a180f35b633a6a68b160e01b8252600482fd5b60028103613aee575061019d5460028116156106ea5761019880546001600160801b0316905560ff19811660fd919091161761019d557fe0e4f04b6337ef9d11c2fcde90d7466365f20354fc620fc8b1f47374bbd39c358180a180f35b60048103613b61575061019d546004811615613b525761019982905561019b80546001600160a01b031916905560ff19811660fb919091161761019d557f4e24cbed9876f8f4aed49f226b8bc6edc7fb69b53aff9ebf7b94c584fba8b5d38180a180f35b63c84be13560e01b8252600482fd5b601003613baf5761019d5460108116156116f8578161019a5560ef81169060ff19161761019d557fae7d1fc397b1748debd27d5d95c9fe942c6a37475c5222792302cfca24f0d6e48180a180f35b636dac6a0960e01b8152600490fd5b50346106e457806003193601126106e4576020603554604051908152f35b50346106e45760203660031901126106e4576040613c1561218d6004356122f281613c056146d5565b95906122f2603554958692614302565b94614302565b50346106e45760403660031901126106e4576113a0613c3861413f565b6024359033614de9565b50346106e457806003193601126106e457604051908060365490613c6582614340565b80855291600181169081156115ad5750600114613c8c5761155f8461154b8186038261418c565b603681525f516020615a6c5f395f51905f52939250905b808210613cbc5750909150810160200161154b8261153b565b919260018160209254838588010152019101909291613ca3565b50346105e757613ce536614101565b91613cee6149d0565b613cf66145d8565b61013054919290916001600160a01b0316803b156105e7575f8091600460405180948193630beebd3960e11b83525af18015612ce7576140ec575b50613d3a6146d5565b909260018060a01b036101305416956040519563501ad8ff60e11b87526020876004818b5afa9687156140e1578a976140ad575b50613d84613d7a614559565b858885898c614a26565b9a9194909783119081156140a3575b50614094579087959493929181614078575b50505080614055575b5050613dcc81613dc6613dbf6146d5565b97906142e1565b956142e1565b6101305490959089906001600160a01b0316803b1561065857818091600460405180948193630d0e30db60e41b83525af1801561064d57614040575b505083613e35613e1889896142e1565b6a0c097ce7bc90715b34b9f160241b61226d85612268868c6142e1565b603554908115613fba5791613e5161226892613e579594614302565b95614333565b6a0c097ce7bc90715b34b9f160241b81019190828111613fa6576ec097ce7bc90715b34b9f0fffffffff01918211613f9257613ea192916122d588613e9b93614333565b90614315565b945b8510613f83578415613f74573315613f2f577ff943cf10ef4d1e3239f4716ddecdf546e8ba8ab0e41deafd9a71a99936827e4593613f2491613ee787603554614333565b603555338852603360205260408820878154019055604051878152885f516020615bcc5f395f51905f5260203393a36040519485943398866142bd565b0390a2600160fe5580f35b60405162461bcd60e51b815260206004820152601f60248201527f45524332303a206d696e7420746f20746865207a65726f2061646472657373006044820152606490fd5b63b317087b60e01b8652600486fd5b63fa6ad35560e01b8652600486fd5b634e487b7160e01b89526011600452602489fd5b634e487b7160e01b8a52601160045260248afd5b9450505050506103e719810190811161402c57946035546103e881018091116140185760355561dead87526033602052604087206103e8815401905561dead875f516020615bcc5f395f51905f5260206040516103e88152a3613ea3565b634e487b7160e01b88526011600452602488fd5b634e487b7160e01b87526011600452602487fd5b8161404a9161418c565b61064957885f613e08565b61013054614071926001600160a01b0391821691339116614dc1565b5f80613dae565b61408c9233906001600160a01b0316614dc1565b5f8080613da5565b6308aeed0f60e21b8c5260048cfd5b905084115f613d93565b9096506020813d6020116140d9575b816140c96020938361418c565b810103126105e75751955f613d6e565b3d91506140bc565b6040513d8c823e3d90fd5b6140f99196505f9061418c565b5f945f613d31565b60609060031901126105e757600435906024359060443590565b805180835260209291819084018484015e5f828201840152601f01601f1916010190565b600435906001600160a01b03821682036105e757565b602435906001600160a01b03821682036105e757565b9060048210156141785752565b634e487b7160e01b5f52602160045260245ffd5b601f909101601f19168101906001600160401b038211908210176141af57604052565b634e487b7160e01b5f52604160045260245ffd5b6001600160401b0381116141af57601f01601f191660200190565b9291926141ea826141c3565b916141f8604051938461418c565b8294818452818301116105e7578281602093845f960137010152565b9181601f840112156105e7578235916001600160401b0383116105e7576020808501948460051b0101116105e757565b60606003198201126105e757600435906001600160401b0382116105e75761426e91600401614214565b90916024359060443590565b9181601f840112156105e7578235916001600160401b0383116105e757602083818601950101116105e757565b60409060031901126105e7576004359060243590565b9192608093969594919660a084019784526020840152604083015260608201520152565b919082039182116142ee57565b634e487b7160e01b5f52601160045260245ffd5b818102929181159184041417156142ee57565b811561431f570490565b634e487b7160e01b5f52601260045260245ffd5b919082018092116142ee57565b90600182811c9216801561436e575b602083101461435a57565b634e487b7160e01b5f52602260045260245ffd5b91607f169161434f565b604051905f826067549161438b83614340565b80835292600181169081156143fd57506001146143b1575b6143af9250038361418c565b565b5060675f90815290915f516020615b2c5f395f51905f525b8183106143e15750509060206143af928201016143a3565b60209193508060019154838589010152019101909184926143c9565b602092506143af94915060ff191682840152151560051b8201016143a3565b604051905f826068549161442f83614340565b80835292600181169081156143fd5750600114614452576143af9250038361418c565b5060685f90815290915f516020615b8c5f395f51905f525b8183106144825750509060206143af928201016143a3565b602091935080600191548385890101520191019091849261446a565b908160209103126105e757516001600160a01b03811681036105e75790565b156144c457565b60405162461bcd60e51b815260206004820152602c60248201525f516020615acc5f395f51905f5260448201526b19195b1959d85d1958d85b1b60a21b6064820152608490fd5b1561451257565b60405162461bcd60e51b815260206004820152602c60248201525f516020615acc5f395f51905f5260448201526b6163746976652070726f787960a01b6064820152608490fd5b610130546040516354cf2aeb60e01b815290602090829060049082906001600160a01b03165afa908115612ce7575f91614591575090565b90506020813d6020116145b8575b816145ac6020938361418c565b810103126105e7575190565b3d915061459f565b908160209103126105e7575180151581036105e75790565b6101305460405163017b859f60e61b81526001600160a01b039091169190602081600481865afa908115612ce7576004916020915f91614655575b5093604051928380926343bab15b60e11b82525afa908115612ce7575f91614639575090565b614652915060203d60201161350f57613501818361418c565b90565b61466c9150823d841161350f57613501818361418c565b5f614613565b1561467957565b60405162461bcd60e51b815260206004820152602e60248201527f496e697469616c697a61626c653a20636f6e747261637420697320616c72656160448201526d191e481a5b9a5d1a585b1a5e995960921b6064820152608490fd5b6101305460408051630f77314d60e31b815291829060049082906001600160a01b03165afa8015612ce7575f915f9161470d57509091565b9150506040813d60401161473c575b816147296040938361418c565b810103126105e757602081519101519091565b3d915061471c565b915f83156149c157610130546001600160a01b0316803b156105e7575f8091600460405180948193630beebd3960e11b83525af18015612ce7576149ae575b5060355491331561495f573382526033602052604082205485811061490f578593846147f99233865260336020520360408520558460355403603555836040518681525f516020615bcc5f395f51905f5260203392a36122f2856147f3836122f26147ec6146d5565b9a90614302565b96614302565b610130549094906001600160a01b0316803b1561091057838091604460405180948193630441a3e760e41b83528a60048401528b60248401525af18015614904579084916148ef575b505083109081156148e5575b5080156148d4575b6148c5575061488d828261487d61486b6145d8565b929033906001600160a01b03166155a7565b33906001600160a01b03166155a7565b604051928352602083015260408201527f02f25270a4d87bea75db541cdfe559334a275b4a233520ed6c0a2429667cca9460603392a2565b63fa6ad35560e01b8152600490fd5b508115801561485657508215614856565b905083105f61484e565b816148f99161418c565b610c7057825f614842565b6040513d86823e3d90fd5b60405162461bcd60e51b815260206004820152602260248201527f45524332303a206275726e20616d6f756e7420657863656564732062616c616e604482015261636560f01b6064820152608490fd5b60405162461bcd60e51b815260206004820152602160248201527f45524332303a206275726e2066726f6d20746865207a65726f206164647265736044820152607360f81b6064820152608490fd5b6149ba91505f9061418c565b5f5f614783565b63b317087b60e01b5f5260045ffd5b600260fe54146149e157600260fe55565b60405162461bcd60e51b815260206004820152601f60248201527f5265656e7472616e637947756172643a207265656e7472616e742063616c6c006044820152606490fd5b93959290959491945f945f92801580614d97575b614d8a57614a57826a0c097ce7bc90715b34b9f160241b92614302565b049283831015614bc1575082614a6d8884614333565b1115614bbb57614a8683614a818985614333565b6142e1565b6a0c097ce7bc90715b34b9f160241b81810291801590830490911417156142ee5781614ab191614315565b88811115614bb257614ae06a0c097ce7bc90715b34b9f160241b614ad9846122688d866142e1565b04896142e1565b975b614aec84866142e1565b811015614ba157925b6a0c097ce7bc90715b34b9f160241b858102919086830414861517156142ee57614b378591614b31614b3c94614b2b8888614302565b90614333565b97614333565b614333565b946001600160ff1b03821682036142ee57614b90614b9d95613e9b670de0b6b3a764000098614b969561226d6a0c097ce7bc90715b34b9f160241b986a0c097ce7bc90715b34b9f160241b9260011b614302565b90614302565b0490614302565b0490565b50614bac83856142e1565b92614af5565b97508787614ae2565b5f614ab1565b9697969495509080614bec6a0c097ce7bc90715b34b9f160241b614be5858b614302565b0485614333565b1115614d8357614c1981614a816a0c097ce7bc90715b34b9f160241b614c12868c614302565b0486614333565b905b88821115614d7857614c2d89836142e1565b6a0c097ce7bc90715b34b9f160241b81810291801590830490911417156142ee57614c5b84614c6192614315565b896142e1565b98975b614c6e85836142e1565b6a0c097ce7bc90715b34b9f160241b81810291801590830490911417156142ee5784614c9991614315565b811015614d3c57925b614cac8383614333565b6a0c097ce7bc90715b34b9f160241b8082029691801590880490911417156142ee57614cf692614cdb91614333565b906a0c097ce7bc90715b34b9f160241b9061226d9086614302565b926001600160ff1b03821682036142ee57670de0b6b3a764000094614b90614b9692613e9b614d38976a0c097ce7bc90715b34b9f160241b9660011b90614333565b0491565b50614d4784826142e1565b6a0c097ce7bc90715b34b9f160241b81810291801590830490911417156142ee5783614d7291614315565b92614ca2565b975086978197614c64565b5f90614c1b565b505f955085949350505050565b508215614a3a565b6001600160a01b03918216815291166020820152604081019190915260600190565b906112689061125a6143af956040519586936323b872dd60e01b602086015260248501614d9f565b6001600160a01b0316908115614e9c576001600160a01b0316918215614e4c5760207f8c5be1e5ebec7d5bd14f71427d1e84f3dd0314c0f7b2291e5b200ac8c7c3b92591835f526034825260405f20855f5282528060405f2055604051908152a3565b60405162461bcd60e51b815260206004820152602260248201527f45524332303a20617070726f766520746f20746865207a65726f206164647265604482015261737360f01b6064820152608490fd5b60405162461bcd60e51b8152602060048201526024808201527f45524332303a20617070726f76652066726f6d20746865207a65726f206164646044820152637265737360e01b6064820152608490fd5b60cc546001600160a01b03163303614f0157565b606460405162461bcd60e51b815260206004820152602060248201527f4f776e61626c653a2063616c6c6572206973206e6f7420746865206f776e65726044820152fd5b6001600160a01b0316908115615058576001600160a01b031691821561500757815f52603360205260405f2054818110614fb357815f516020615bcc5f395f51905f5292602092855f52603384520360405f2055845f526033825260405f20818154019055604051908152a3565b60405162461bcd60e51b815260206004820152602660248201527f45524332303a207472616e7366657220616d6f756e7420657863656564732062604482015265616c616e636560d01b6064820152608490fd5b60405162461bcd60e51b815260206004820152602360248201527f45524332303a207472616e7366657220746f20746865207a65726f206164647260448201526265737360e81b6064820152608490fd5b60405162461bcd60e51b815260206004820152602560248201527f45524332303a207472616e736665722066726f6d20746865207a65726f206164604482015264647265737360d81b6064820152608490fd5b6101965460405163b133f4d360e01b81529190602090839060049082906001600160a01b03165afa918215612ce7575f92615119575b506001600160a01b039081169116811480159190615110575b5061510157565b63645a6cf960e11b5f5260045ffd5b9050155f6150fa565b61513391925060203d60201161350f57613501818361418c565b905f6150e1565b916151448361573d565b6001600160a01b0383165f516020615bac5f395f51905f525f80a2815115908115916151c4575b50615174575050565b6151c1915f806040519361518960608661418c565b602785525f516020615c4c5f395f51905f526020860152660819985a5b195960ca1b6040860152602081519101845af46134b9615216565b50565b90505f61516b565b91908110156151ee5760051b81013590605e19813603018212156105e7570190565b634e487b7160e01b5f52603260045260245ffd5b356001600160a01b03811681036105e75790565b3d15615240573d90615227826141c3565b91615235604051938461418c565b82523d5f602084013e565b606090565b5f5b82811061525357505050565b5f516020615bec5f395f51905f526001600160a01b0361527c6152778487876151cc565b615202565b160361531a576152906152778285856151cc565b604061529d8386866151cc565b0135906152ab8386866151cc565b602081013590601e19813603018212156105e75701803591906001600160401b0383116105e7576020019180360383136105e7575f938493826040519384928337810185815203925af16152fd615216565b501561530b57600101615247565b6316e128d760e31b5f5260045ffd5b636dac6a0960e01b5f5260045ffd5b610130545f949293906001600160a01b0316803b156105e7575f8091600460405180948193630beebd3960e11b83525af18015612ce757615404575b50806153e3575b5050806153c2575b5050610130546001600160a01b0316803b1561065857818091600460405180948193630d0e30db60e41b83525af1801561064d576153b0575050565b6153bb82809261418c565b6106e45750565b610130546153dc926001600160a01b0391821691166155a7565b5f80615374565b610130546153fd926001600160a01b0391821691166155a7565b5f8061536c565b6154119195505f9061418c565b5f935f615365565b6143af906040519063095ea7b360e01b60208301525f516020615bec5f395f51905f5260248301525f60448301526044825261126860648361418c565b604051636eb1769f60e11b81523060048201525f516020615bec5f395f51905f5260248201526020816044816001600160a01b0386165afa908115612ce7575f916154e0575b50612c515760405163095ea7b360e01b60208201525f516020615bec5f395f51905f5260248201525f1960448083019190915281526143af9161126860648361418c565b90506020813d60201161550a575b816154fb6020938361418c565b810103126105e757515f61549c565b3d91506154ee565b1561551957565b60405162461bcd60e51b815260206004820152602b60248201527f496e697469616c697a61626c653a20636f6e7472616374206973206e6f74206960448201526a6e697469616c697a696e6760a81b6064820152608490fd5b60cc80546001600160a01b039283166001600160a01b0319821681179092559091165f516020615b6c5f395f51905f525f80a3565b60405163a9059cbb60e01b60208201526001600160a01b03909216602483015260448201929092526143af91611268826064810161125a565b604051906155ef60408361418c565b602082527f5361666545524332303a206c6f772d6c6576656c2063616c6c206661696c65646020830152565b1561562257565b60405162461bcd60e51b815260206004820152602a60248201527f5361666545524332303a204552433230206f7065726174696f6e20646964206e6044820152691bdd081cdd58d8d9595960b21b6064820152608490fd5b6143af916156a8916001600160a01b03165f806156956155e0565b9360208151910182855af16134b9615216565b80519081159182156156bc575b505061561b565b6156cf92506020809183010191016145c0565b5f806156b5565b6156de61593d565b6156e6615988565b6040519060208201927f8b73c3c69bb8fe3d512ecc4cf759cc79239f7b179b0ffacaa9a75d522b39400f8452604083015260608201524660808201523060a082015260a0815261573760c08261418c565b51902090565b803b15615772575f516020615b0c5f395f51905f5280546001600160a01b0319166001600160a01b0392909216919091179055565b60405162461bcd60e51b815260206004820152602d60248201527f455243313936373a206e657720696d706c656d656e746174696f6e206973206e60448201526c1bdd08184818dbdb9d1c9858dd609a1b6064820152608490fd5b6fa2a8918ca85bafe22016d0b997e4df60600160ff1b038411615833576020935f9360ff60809460405194855216868401526040830152606082015282805260015afa15612ce7575f516001600160a01b0381161561582b57905f90565b505f90600190565b505050505f90600390565b6005811015614178578061584f5750565b600181036158975760405162461bcd60e51b815260206004820152601860248201527745434453413a20696e76616c6964207369676e617475726560401b6044820152606490fd5b600281036158e45760405162461bcd60e51b815260206004820152601f60248201527f45434453413a20696e76616c6964207369676e6174757265206c656e677468006044820152606490fd5b6003146158ed57565b60405162461bcd60e51b815260206004820152602260248201527f45434453413a20696e76616c6964207369676e6174757265202773272076616c604482015261756560f01b6064820152608490fd5b615945614378565b8051908115615955576020012090565b505060655480156159635790565b507fc5d2460186f7233c927e7db2dcc703c0e500b653ca82273b7bfad8045d85a47090565b61599061441c565b80519081156159a0576020012090565b505060665480156159635790565b91929015615a1057508151156159c2575090565b3b156159cb5790565b60405162461bcd60e51b815260206004820152601d60248201527f416464726573733a2063616c6c20746f206e6f6e2d636f6e74726163740000006044820152606490fd5b825190915015615a235750805190602001fd5b60405162461bcd60e51b815260206004820152908190615a4790602483019061411b565b0390fdfe4910fdfa16fed3260ed0e7147f7cc6da11a60208b5b9406d12a635614ffd91434a11f94e20a93c79f6ec743a1954ec4fc2c08429ae2122118bf234b2185c81b824f6f5dc9935e251ac94cdd4bdc9691cc642ab65c06e85e3599ee43156b370f372af7ab83481af10a5fd4d3b08aee8b4b9e21ed46571cbf1a132133212f6d5e846756e6374696f6e206d7573742062652063616c6c6564207468726f756768205b9393d429a646826130a66a46c826ec3d9289f3cfa5ae093ca57a3d2f442644360894a13ba1a3210667c828492db98dca3e2076cc3735a920a3ca505d382bbc9787eeb91fe3101235e4a76063c7023ecb40f923f97916639c598592fa30d6ae7f26b83ff96e1f2b6a682f133852f6798a09c465da95921460cefb38474024988be0079c531659141344cd1fd0a4f28419497f9722a3daafe3b4186f6b6457e0a2153420d844928b4421650203c77babc8b33d7f2e7b450e2966db0c22097753bc7cd75a20ee27fd9adebab32041f755214dbc6bffa90cc0225b39da2e5c2d3bddf252ad1be2c89b69c2b068fc378daa952ba7f163c4a11628f55a4df523b3ef000000000000000000000000111111125421ca6dc452d289314280a0f8842a6542a7b7dd785cd69714a189dffb3fd7d7174edc9ece837694ce50f7078f7c31ae45524331393637557067726164653a20756e737570706f727465642070726f78416464726573733a206c6f772d6c6576656c2064656c65676174652063616c6c45524331393637557067726164653a206e657720696d706c656d656e74617469a264697066735822122043650a8aac777049c04bcf9504af472b3597025e40ee78cb0ddd9a8f38ed5b6c64736f6c634300081c0033","linkReferences":{}},"methodIdentifiers":{"DOMAIN_SEPARATOR()":"3644e515","allowance(address,address)":"dd62ed3e","approve(address,uint256)":"095ea7b3","approveSwaps()":"69b00745","balanceOf(address)":"70a08231","balances()":"7bb98a68","cancel(uint8)":"1ea20083","controller()":"f77c4791","decimals()":"313ce567","decreaseAllowance(address,uint256)":"a457c2d7","deposit(uint256)":"b6b55f25","deposit(uint256,uint256,uint256)":"00aeef8a","eip712Domain()":"84b0196e","executeConfigChange()":"ec8e6d2a","executeDeploy()":"94df7a70","executeSwap((address,bytes,uint256)[])":"890d007c","executeWithdrawal()":"fa45aa00","factory()":"c45a0155","getImplementation()":"aaf10f42","getPendingStates()":"21ec23b6","inCaseTokensGetStuck(address)":"def68a9c","increaseAllowance(address,uint256)":"39509351","initialize(address,string,string)":"90657147","initialize(address,string,string,address,address)":"6cf1dbed","isCalm()":"9bdde46b","name()":"06fdde03","nonces(address)":"7ecebe00","owner()":"8da5cb5b","pending()":"e20ccec3","permit(address,address,uint256,uint256,uint8,bytes32,bytes32)":"d505accf","previewDeposit(uint256,uint256)":"7a7af70d","previewWithdraw(uint256)":"0a28a477","proxiableUUID()":"52d1902d","queueConfigChange(uint8,int256)":"d52b1a88","renounceOwnership()":"715018a6","setController(address)":"92eefe9b","strategy()":"a8c62e76","swapAndDeploy((address,bytes,uint256)[],uint256,uint256)":"54d68c20","swapFee()":"54cf2aeb","swapTokensToUSDC((address,bytes,uint256)[],uint256,uint256)":"ca047c56","symbol()":"95d89b41","totalSupply()":"18160ddd","transfer(address,uint256)":"a9059cbb","transferFrom(address,address,uint256)":"23b872dd","transferOwnership(address)":"f2fde38b","upgradeTo(address)":"3659cfe6","upgradeToAndCall(address,bytes)":"4f1ef286","upgradeToLatest()":"367ad9e2","usdc()":"3e413bee","want()":"1f1fcd51","wants()":"65844934","withdraw(uint256)":"2e1a7d4d","withdraw(uint256,uint256,uint256)":"a41fe49f","withdrawAll(uint256,uint256)":"7aff49d7"},"id":114}