{"abi":[{"type":"constructor","inputs":[{"name":"_usdc","type":"address","internalType":"address"}],"stateMutability":"nonpayable"},{"type":"function","name":"USDC","inputs":[],"outputs":[{"name":"","type":"address","internalType":"address"}],"stateMutability":"view"},{"type":"function","name":"accrueMarginFees","inputs":[],"outputs":[],"stateMutability":"nonpayable"},{"type":"function","name":"adjustHedge","inputs":[{"name":"","type":"uint256","internalType":"uint256"}],"outputs":[],"stateMutability":"nonpayable"},{"type":"function","name":"balances","inputs":[],"outputs":[{"name":"amount0","type":"uint256","internalType":"uint256"},{"name":"amount1","type":"uint256","internalType":"uint256"}],"stateMutability":"view"},{"type":"function","name":"calculateAMMDelta","inputs":[],"outputs":[{"name":"deltaETH","type":"uint256","internalType":"uint256"}],"stateMutability":"view"},{"type":"function","name":"controller","inputs":[],"outputs":[{"name":"","type":"address","internalType":"address"}],"stateMutability":"view"},{"type":"function","name":"deposit","inputs":[{"name":"assets","type":"uint256","internalType":"uint256"}],"outputs":[],"stateMutability":"nonpayable"},{"type":"function","name":"depositCancel","inputs":[],"outputs":[],"stateMutability":"nonpayable"},{"type":"function","name":"depositExecute","inputs":[],"outputs":[],"stateMutability":"nonpayable"},{"type":"function","name":"depositRegister","inputs":[{"name":"amount","type":"uint256","internalType":"uint256"}],"outputs":[],"stateMutability":"nonpayable"},{"type":"function","name":"doEmergencySwapAllToUSDC","inputs":[],"outputs":[],"stateMutability":"nonpayable"},{"type":"function","name":"doEmergencyWithdrawFromAMM","inputs":[],"outputs":[],"stateMutability":"nonpayable"},{"type":"function","name":"emergencyExit","inputs":[],"outputs":[],"stateMutability":"nonpayable"},{"type":"function","name":"emergencyExitTriggered","inputs":[],"outputs":[{"name":"","type":"bool","internalType":"bool"}],"stateMutability":"view"},{"type":"function","name":"executeBatchConfigChange","inputs":[],"outputs":[],"stateMutability":"nonpayable"},{"type":"function","name":"executeConfigChange","inputs":[],"outputs":[],"stateMutability":"nonpayable"},{"type":"function","name":"factory","inputs":[],"outputs":[{"name":"","type":"address","internalType":"address"}],"stateMutability":"view"},{"type":"function","name":"getCurrentAMM","inputs":[],"outputs":[{"name":"","type":"tuple","internalType":"struct IHedgedVault.AMMPosition","components":[{"name":"liquidity","type":"uint256","internalType":"uint256"},{"name":"tickLower","type":"int24","internalType":"int24"},{"name":"tickUpper","type":"int24","internalType":"int24"},{"name":"feesEarned0","type":"uint256","internalType":"uint256"},{"name":"feesEarned1","type":"uint256","internalType":"uint256"}]}],"stateMutability":"pure"},{"type":"function","name":"getCurrentHedge","inputs":[],"outputs":[{"name":"","type":"tuple","internalType":"struct IHedgedVault.HedgePosition","components":[{"name":"isOpen","type":"bool","internalType":"bool"},{"name":"sizeUSD","type":"uint256","internalType":"uint256"},{"name":"collateralUSD","type":"uint256","internalType":"uint256"},{"name":"entryPrice","type":"uint256","internalType":"uint256"},{"name":"openedAt","type":"uint256","internalType":"uint256"},{"name":"marginFeesAccrued","type":"uint256","internalType":"uint256"}]}],"stateMutability":"view"},{"type":"function","name":"getImplementation","inputs":[],"outputs":[{"name":"","type":"address","internalType":"address"}],"stateMutability":"view"},{"type":"function","name":"getPendingStates","inputs":[],"outputs":[{"name":"depositAmount","type":"uint256","internalType":"uint256"},{"name":"depositPending","type":"bool","internalType":"bool"},{"name":"withdrawalAmount","type":"uint256","internalType":"uint256"},{"name":"withdrawalPending","type":"bool","internalType":"bool"},{"name":"swapToken0","type":"uint256","internalType":"uint256"},{"name":"swapToken1","type":"uint256","internalType":"uint256"},{"name":"swapRecipient","type":"address","internalType":"address"},{"name":"swapPending","type":"bool","internalType":"bool"},{"name":"deployAmount0","type":"uint256","internalType":"uint256"},{"name":"deployAmount1","type":"uint256","internalType":"uint256"},{"name":"deployPending","type":"bool","internalType":"bool"},{"name":"configType","type":"uint8","internalType":"uint8"},{"name":"configValue","type":"int256","internalType":"int256"},{"name":"configPending","type":"bool","internalType":"bool"}],"stateMutability":"view"},{"type":"function","name":"getVaultEquity","inputs":[],"outputs":[{"name":"","type":"uint256","internalType":"uint256"}],"stateMutability":"view"},{"type":"function","name":"harvest","inputs":[],"outputs":[{"name":"fees0","type":"uint256","internalType":"uint256"},{"name":"fees1","type":"uint256","internalType":"uint256"}],"stateMutability":"nonpayable"},{"type":"function","name":"initialize","inputs":[{"name":"_owner","type":"address","internalType":"address"},{"name":"_controller","type":"address","internalType":"address"},{"name":"_strategy","type":"address","internalType":"address"}],"outputs":[],"stateMutability":"nonpayable"},{"type":"function","name":"isPaused","inputs":[],"outputs":[{"name":"","type":"bool","internalType":"bool"}],"stateMutability":"view"},{"type":"function","name":"maxTotalAssets","inputs":[],"outputs":[{"name":"","type":"uint256","internalType":"uint256"}],"stateMutability":"view"},{"type":"function","name":"minDeposit","inputs":[],"outputs":[{"name":"","type":"uint256","internalType":"uint256"}],"stateMutability":"view"},{"type":"function","name":"owner","inputs":[],"outputs":[{"name":"","type":"address","internalType":"address"}],"stateMutability":"view"},{"type":"function","name":"paused","inputs":[],"outputs":[{"name":"","type":"bool","internalType":"bool"}],"stateMutability":"view"},{"type":"function","name":"pendingBatch","inputs":[],"outputs":[{"name":"positionWidth","type":"int24","internalType":"int24"},{"name":"hasPositionWidth","type":"bool","internalType":"bool"},{"name":"deviation","type":"int56","internalType":"int56"},{"name":"hasDeviation","type":"bool","internalType":"bool"},{"name":"twapInterval","type":"uint32","internalType":"uint32"},{"name":"hasTwapInterval","type":"bool","internalType":"bool"}],"stateMutability":"view"},{"type":"function","name":"pendingConfig","inputs":[],"outputs":[{"name":"changeType","type":"uint8","internalType":"uint8"},{"name":"value","type":"int256","internalType":"int256"},{"name":"isPending","type":"bool","internalType":"bool"}],"stateMutability":"view"},{"type":"function","name":"proxiableUUID","inputs":[],"outputs":[{"name":"","type":"bytes32","internalType":"bytes32"}],"stateMutability":"view"},{"type":"function","name":"queueBatchConfigChange","inputs":[{"name":"positionWidth","type":"int24","internalType":"int24"},{"name":"setWidth","type":"bool","internalType":"bool"},{"name":"deviation","type":"int56","internalType":"int56"},{"name":"setDev","type":"bool","internalType":"bool"},{"name":"twapInterval","type":"uint32","internalType":"uint32"},{"name":"setTwap","type":"bool","internalType":"bool"}],"outputs":[],"stateMutability":"nonpayable"},{"type":"function","name":"queueConfigChange","inputs":[{"name":"changeType","type":"uint8","internalType":"uint8"},{"name":"value","type":"int256","internalType":"int256"}],"outputs":[],"stateMutability":"nonpayable"},{"type":"function","name":"rebalanceAMM","inputs":[],"outputs":[],"stateMutability":"nonpayable"},{"type":"function","name":"renounceOwnership","inputs":[],"outputs":[],"stateMutability":"nonpayable"},{"type":"function","name":"rescueTokens","inputs":[{"name":"token","type":"address","internalType":"address"},{"name":"to","type":"address","internalType":"address"}],"outputs":[],"stateMutability":"nonpayable"},{"type":"function","name":"setController","inputs":[{"name":"_controller","type":"address","internalType":"address"}],"outputs":[],"stateMutability":"nonpayable"},{"type":"function","name":"setMaxTotalAssets","inputs":[{"name":"_maxTotalAssets","type":"uint256","internalType":"uint256"}],"outputs":[],"stateMutability":"nonpayable"},{"type":"function","name":"setMinDeposit","inputs":[{"name":"_minDeposit","type":"uint256","internalType":"uint256"}],"outputs":[],"stateMutability":"nonpayable"},{"type":"function","name":"setPaused","inputs":[{"name":"_paused","type":"bool","internalType":"bool"}],"outputs":[],"stateMutability":"nonpayable"},{"type":"function","name":"setStrategyRewardPool","inputs":[{"name":"_rewardPool","type":"address","internalType":"address"}],"outputs":[],"stateMutability":"nonpayable"},{"type":"function","name":"strategy","inputs":[],"outputs":[{"name":"","type":"address","internalType":"contract IStrategyConcLiq"}],"stateMutability":"view"},{"type":"function","name":"totalShares","inputs":[],"outputs":[{"name":"","type":"uint256","internalType":"uint256"}],"stateMutability":"view"},{"type":"function","name":"transferOwnership","inputs":[{"name":"newOwner","type":"address","internalType":"address"}],"outputs":[],"stateMutability":"nonpayable"},{"type":"function","name":"uniswapV3SwapCallback","inputs":[{"name":"amount0Delta","type":"int256","internalType":"int256"},{"name":"amount1Delta","type":"int256","internalType":"int256"},{"name":"","type":"bytes","internalType":"bytes"}],"outputs":[],"stateMutability":"nonpayable"},{"type":"function","name":"upgradeTo","inputs":[{"name":"newImplementation","type":"address","internalType":"address"}],"outputs":[],"stateMutability":"nonpayable"},{"type":"function","name":"upgradeToAndCall","inputs":[{"name":"newImplementation","type":"address","internalType":"address"},{"name":"data","type":"bytes","internalType":"bytes"}],"outputs":[],"stateMutability":"payable"},{"type":"function","name":"upgradeToLatest","inputs":[],"outputs":[],"stateMutability":"nonpayable"},{"type":"function","name":"wants","inputs":[],"outputs":[{"name":"token0","type":"address","internalType":"address"},{"name":"token1","type":"address","internalType":"address"}],"stateMutability":"view"},{"type":"function","name":"withdraw","inputs":[{"name":"assets","type":"uint256","internalType":"uint256"}],"outputs":[],"stateMutability":"nonpayable"},{"type":"function","name":"withdrawCancel","inputs":[],"outputs":[],"stateMutability":"nonpayable"},{"type":"function","name":"withdrawExecute","inputs":[{"name":"minAmountOut","type":"uint256","internalType":"uint256"}],"outputs":[],"stateMutability":"nonpayable"},{"type":"function","name":"withdrawRegister","inputs":[{"name":"","type":"uint256","internalType":"uint256"},{"name":"","type":"address","internalType":"address"}],"outputs":[],"stateMutability":"pure"},{"type":"event","name":"AMMRebalanced","inputs":[{"name":"oldTickLower","type":"int24","indexed":false,"internalType":"int24"},{"name":"oldTickUpper","type":"int24","indexed":false,"internalType":"int24"},{"name":"newTickLower","type":"int24","indexed":false,"internalType":"int24"},{"name":"newTickUpper","type":"int24","indexed":false,"internalType":"int24"},{"name":"timestamp","type":"uint256","indexed":false,"internalType":"uint256"}],"anonymous":false},{"type":"event","name":"AdminChanged","inputs":[{"name":"previousAdmin","type":"address","indexed":false,"internalType":"address"},{"name":"newAdmin","type":"address","indexed":false,"internalType":"address"}],"anonymous":false},{"type":"event","name":"BatchConfigExec","inputs":[{"name":"flags","type":"uint8","indexed":false,"internalType":"uint8"},{"name":"positionWidth","type":"int24","indexed":false,"internalType":"int24"},{"name":"deviation","type":"int56","indexed":false,"internalType":"int56"},{"name":"twapInterval","type":"uint32","indexed":false,"internalType":"uint32"}],"anonymous":false},{"type":"event","name":"BatchConfigQueued","inputs":[{"name":"flags","type":"uint8","indexed":false,"internalType":"uint8"},{"name":"positionWidth","type":"int24","indexed":false,"internalType":"int24"},{"name":"deviation","type":"int56","indexed":false,"internalType":"int56"},{"name":"twapInterval","type":"uint32","indexed":false,"internalType":"uint32"}],"anonymous":false},{"type":"event","name":"BeaconUpgraded","inputs":[{"name":"beacon","type":"address","indexed":true,"internalType":"address"}],"anonymous":false},{"type":"event","name":"ConfigExec","inputs":[{"name":"changeType","type":"uint8","indexed":true,"internalType":"uint8"},{"name":"value","type":"int256","indexed":false,"internalType":"int256"}],"anonymous":false},{"type":"event","name":"ConfigQueued","inputs":[{"name":"changeType","type":"uint8","indexed":true,"internalType":"uint8"},{"name":"value","type":"int256","indexed":false,"internalType":"int256"}],"anonymous":false},{"type":"event","name":"ControllerUpdated","inputs":[{"name":"oldController","type":"address","indexed":true,"internalType":"address"},{"name":"newController","type":"address","indexed":true,"internalType":"address"}],"anonymous":false},{"type":"event","name":"DepositCancelled","inputs":[{"name":"user","type":"address","indexed":true,"internalType":"address"}],"anonymous":false},{"type":"event","name":"DepositExecuted","inputs":[{"name":"user","type":"address","indexed":true,"internalType":"address"},{"name":"assets","type":"uint256","indexed":false,"internalType":"uint256"},{"name":"shares","type":"uint256","indexed":false,"internalType":"uint256"}],"anonymous":false},{"type":"event","name":"DepositQueued","inputs":[{"name":"user","type":"address","indexed":true,"internalType":"address"},{"name":"amount","type":"uint256","indexed":false,"internalType":"uint256"}],"anonymous":false},{"type":"event","name":"EmergencyExit","inputs":[{"name":"usdcRecovered","type":"uint256","indexed":false,"internalType":"uint256"},{"name":"timestamp","type":"uint256","indexed":false,"internalType":"uint256"}],"anonymous":false},{"type":"event","name":"FeesHarvested","inputs":[{"name":"fees0","type":"uint256","indexed":false,"internalType":"uint256"},{"name":"fees1","type":"uint256","indexed":false,"internalType":"uint256"},{"name":"timestamp","type":"uint256","indexed":false,"internalType":"uint256"}],"anonymous":false},{"type":"event","name":"HedgeAdjusted","inputs":[{"name":"oldSize","type":"uint256","indexed":false,"internalType":"uint256"},{"name":"newSize","type":"uint256","indexed":false,"internalType":"uint256"},{"name":"timestamp","type":"uint256","indexed":false,"internalType":"uint256"}],"anonymous":false},{"type":"event","name":"HedgeClosed","inputs":[{"name":"sizeUSD","type":"uint256","indexed":false,"internalType":"uint256"},{"name":"exitPrice","type":"uint256","indexed":false,"internalType":"uint256"},{"name":"pnl","type":"int256","indexed":false,"internalType":"int256"},{"name":"timestamp","type":"uint256","indexed":false,"internalType":"uint256"}],"anonymous":false},{"type":"event","name":"HedgeOpened","inputs":[{"name":"sizeUSD","type":"uint256","indexed":false,"internalType":"uint256"},{"name":"entryPrice","type":"uint256","indexed":false,"internalType":"uint256"},{"name":"timestamp","type":"uint256","indexed":false,"internalType":"uint256"}],"anonymous":false},{"type":"event","name":"Initialized","inputs":[{"name":"version","type":"uint8","indexed":false,"internalType":"uint8"}],"anonymous":false},{"type":"event","name":"OwnershipTransferred","inputs":[{"name":"previousOwner","type":"address","indexed":true,"internalType":"address"},{"name":"newOwner","type":"address","indexed":true,"internalType":"address"}],"anonymous":false},{"type":"event","name":"PauseChanged","inputs":[{"name":"paused","type":"bool","indexed":false,"internalType":"bool"}],"anonymous":false},{"type":"event","name":"Paused","inputs":[{"name":"account","type":"address","indexed":false,"internalType":"address"}],"anonymous":false},{"type":"event","name":"TokensRescued","inputs":[{"name":"token","type":"address","indexed":true,"internalType":"address"},{"name":"to","type":"address","indexed":true,"internalType":"address"},{"name":"amount","type":"uint256","indexed":false,"internalType":"uint256"}],"anonymous":false},{"type":"event","name":"Unpaused","inputs":[{"name":"account","type":"address","indexed":false,"internalType":"address"}],"anonymous":false},{"type":"event","name":"Upgraded","inputs":[{"name":"implementation","type":"address","indexed":true,"internalType":"address"}],"anonymous":false},{"type":"event","name":"WithdrawCancelled","inputs":[{"name":"user","type":"address","indexed":true,"internalType":"address"}],"anonymous":false},{"type":"event","name":"WithdrawExecuted","inputs":[{"name":"user","type":"address","indexed":true,"internalType":"address"},{"name":"shares","type":"uint256","indexed":false,"internalType":"uint256"},{"name":"assets","type":"uint256","indexed":false,"internalType":"uint256"},{"name":"recipient","type":"address","indexed":true,"internalType":"address"}],"anonymous":false},{"type":"event","name":"WithdrawFromAMMFailed","inputs":[],"anonymous":false},{"type":"event","name":"WithdrawQueued","inputs":[{"name":"user","type":"address","indexed":true,"internalType":"address"},{"name":"shares","type":"uint256","indexed":false,"internalType":"uint256"},{"name":"recipient","type":"address","indexed":true,"internalType":"address"}],"anonymous":false},{"type":"error","name":"BelowMin","inputs":[]},{"type":"error","name":"ConfigPending","inputs":[]},{"type":"error","name":"ExceedsMax","inputs":[]},{"type":"error","name":"HedgeAlreadyOpen","inputs":[]},{"type":"error","name":"InsufficientBalance","inputs":[]},{"type":"error","name":"InvalidAddress","inputs":[]},{"type":"error","name":"InvalidAmount","inputs":[]},{"type":"error","name":"InvalidConfig","inputs":[]},{"type":"error","name":"InvalidOperation","inputs":[]},{"type":"error","name":"InvalidStrategy","inputs":[]},{"type":"error","name":"InvalidSwapPool","inputs":[]},{"type":"error","name":"NoConfig","inputs":[]},{"type":"error","name":"NoHedgeOpen","inputs":[]},{"type":"error","name":"NotAuthorized","inputs":[]},{"type":"error","name":"NotCalm","inputs":[]},{"type":"error","name":"NotPaused","inputs":[]},{"type":"error","name":"NotPool","inputs":[]},{"type":"error","name":"OnlyController","inputs":[]},{"type":"error","name":"OnlyFactory","inputs":[]},{"type":"error","name":"OnlyOwner","inputs":[]},{"type":"error","name":"OnlySelf","inputs":[]},{"type":"error","name":"SlippageExceeded","inputs":[]},{"type":"error","name":"VaultPaused","inputs":[]}],"bytecode":{"object":"0x60c0346100c457601f61452f38819003918201601f19168301916001600160401b038311848410176100c8578084926020946040528339810103126100c457516001600160a01b03811681036100c4573060805260a05260405161445290816100dd8239608051818181611b9601528181611cb401526121fa015260a05181818161064a01528181610e36015281816113f801528181611974015281816126b701528181612bba015281816132fb01528181613a1f01528181613b140152613e2b0152f35b5f80fd5b634e487b7160e01b5f52604160045260245ffdfe60806040526004361015610011575f80fd5b5f5f3560e01c806302161330146129cd578063122b05ed146129aa57806316c38b3c146128a95780631f48ddd81461264157806321ec23b6146125575780632e1a7d4d1461243b578063357e63791461242157806335ef5724146123945780633659cfe6146121dc578063367ad9e21461208d5780633a98ef391461206f57806341b3d185146120515780634641257d14611f22578063481488ae14611ead5780634cf1f49b14611e3c5780634f1ef28614611c4157806352d1902d14611b835780635431c94e14611a7a5780635641ec03146118bf5780635c975abb146111a55780635f785a5c1461189f578063658449341461186c578063715018a61461182257806371bc9aae1461179a57806373c6a288146117605780637bb98a6814611739578063806079521461171f57806387b6ad651461142757806389a30271146113e25780638d5b9a0a146113c95780638da5cb5b146113a05780638fcc9cfb1461136757806392eefe9b146112f5578063a5d993ac146112c6578063a8c62e7614611298578063aaf10f4214611263578063ab465a2a146111c8578063b187bd26146111a5578063b6b55f25146105a0578063bc2e47b714611181578063c0c53b8b14610f2c578063c25fe09014610ec7578063c45a015514610e9d578063cc28f73d14610dd9578063d52b1a8814610cdb578063d820f49214610cbc578063e31cdab314610abb578063ec8e6d2a146107ee578063f24e8f2c146107cb578063f2fde38b1461073a578063f6555082146105a0578063f77c479114610576578063fa461e331461039e5763fcc47ed21461026c575f80fd5b3461039b578060031936011261039b5761012d546001600160a01b0316330361038c57610297612e88565b60016101375460a01c161561037d57610136546065546001600160a01b0316907fcf75a80a22cde0edcefe708f860e644c73eb8921aac7890f3bec010eef965f64906040906001600160801b03166102ee81613aa0565b5050610130546102fc612b34565b82808211156103745761030e91612aea565b905b82918115158061036b575b61034b575b508161032b91612add565b610130558561013655856101375582519182526020820152a26001805580f35b8192506103649061035f61032b9386612aca565b612af7565b9190610320565b5080151561031b565b50508590610310565b631cc6a69960e11b8152600490fd5b635990781360e01b8152600490fd5b80fd5b503461039b57606036600319011261039b576004356024356044356001600160401b03811161057257366023820112156105725760048101356001600160401b03811161056e573691016024011161056a57610138546040516316f0115b60e01b8152906020908290600490829060081c6001600160a01b03165afa90811561055f578491610540575b506001600160a01b0381163381900361053157604051630dfe168160e01b815293602085600481855afa91821561050457600495879361050f575b506020906040519687809263d21220a760e01b82525afa9485156105045786956104d3575b50828682136104b9575b5050508382136104a0578380f35b6104b2926001600160a01b0316613448565b5f80808380f35b6104cb926001600160a01b0316613448565b5f8082610492565b6104f691955060203d6020116104fd575b6104ee8183612a77565b810190612b15565b935f610488565b503d6104e4565b6040513d88823e3d90fd5b602091935061052a90823d84116104fd576104ee8183612a77565b9290610463565b636f61f64160e01b8552600485fd5b610559915060203d6020116104fd576104ee8183612a77565b5f610428565b6040513d86823e3d90fd5b8280fd5b8480fd5b8380fd5b503461039b578060031936011261039b5761012d546040516001600160a01b039091168152602090f35b503461039b57602036600319011261039b576004356105bd613488565b6105c5612e88565b6065546001600160a01b0316330361070d5760ff6101375460a01c1661070d5761012f54811061072b57610600816105fb612b34565b612add565b61012e541061071c5760ff610138541661070d576106776040516323b872dd60e01b602082015233602482015230604482015282606482015260648152610648608482612a77565b7f00000000000000000000000000000000000000000000000000000000000000006001600160a01b0316613fc7565b6040516001600160801b0382169060019060609061069481612a12565b8381526020808201879052604080830188905292909101929092526101369290925561013780546001600160a81b031916600160a01b17905560655491519283526001600160a01b0391909116917f39b741a94a004f4e0edfdc3c607302b8ccb1b8c4c5a9b5f761fec94a116921fb9190a26001805580f35b631cc6a69960e11b8252600482fd5b6395e28b8560e01b8252600482fd5b6310906acb60e01b8252600482fd5b503461039b57602036600319011261039b576107546129e6565b61075c612e30565b6001600160a01b0381161561077757610774906137f7565b80f35b60405162461bcd60e51b815260206004820152602660248201527f4f776e61626c653a206e6577206f776e657220697320746865207a65726f206160448201526564647265737360d01b6064820152608490fd5b503461039b578060031936011261039b5760206107e66139a4565b604051908152f35b503461039b578060031936011261039b5761012d546001600160a01b0316330361038c5760ff61013c541615610aac5760ff61013a541661013b5460018214808091610a32575b610a235761013a84905561013b84905561013c8490556101385460081c6001600160a01b0316901561090557627fffff19821280156108f9575b6108ea578084913b156108e6578180916024604051809481936312cf138160e01b83528860020b60048401525af180156108db576108c6575b505060205f51602061435d5f395f51905f52915b604051908152a280f35b816108d091612a77565b61056a57825f6108a8565b6040513d84823e3d90fd5b5080fd5b6306b7c75960e31b8452600484fd5b50627fffff821361086f565b6002830361099557667fffffffffffff1982128015610985575b6108ea578084913b156108e657818091602460405180948193631b16146360e11b83528860060b60048401525af180156108db57610970575b505060205f51602061435d5f395f51905f52916108bc565b8161097a91612a77565b61056a57825f610958565b50667fffffffffffff821361091f565b600383146109b5575b5060205f51602061435d5f395f51905f52916108bc565b8382128015610a16575b6108ea578084913b156108e657818091602460405180948193631d27050f60e01b835263ffffffff891660048401525af180156108db57610a01575b5061099e565b81610a0b91612a77565b61056a57825f6109fb565b5063ffffffff82116109bf565b6313643c3b60e11b8452600484fd5b5061013854604051639bdde46b60e01b8152906020908290600490829060081c6001600160a01b03165afa908115610aa1578591610a72575b5015610835565b610a94915060203d602011610a9a575b610a8c8183612a77565b810190612deb565b5f610a6b565b503d610a82565b6040513d87823e3d90fd5b63036764e560e21b8152600490fd5b503461039b5760c036600319011261039b57600435908160020b8083036108e6576024359081159182159485820361056e57604435918260060b96878403610cb85760643594851591821591828803610cb4576084359a63ffffffff8c1690818d03610cb05760a4359a8b15801597888e03610cac57610b39612e30565b82610ca4575b5081610c9c575b50610c8d5760ff61013c54168015610c7f575b610c70579460a0610c56999795938295937f2888a8a876059a384156073d5e0985910285c8247d5f3612caca083a21658a369e9f9a9860405192610b9c84612a5c565b835285602084015260408301528560608301526080820152015261013d549260ff60801b9060801b169260ff60801b199163ff00000063ffffffff60601b199260ff60581b199062ffffff8a169060018060581b03191617169160181b16171666ffffffffffffff60201b8760201b1617169060ff60581b9060581b161763ffffffff60601b8660601b16171761013d555f14610c69576001945b15610c62576002955b15610c5c5760045b604051968796171785612e03565b0390a180f35b87610c48565b8795610c40565b8794610c37565b637ed27eb760e01b8c5260048cfd5b50610c8861396d565b610b59565b6306b7c75960e31b8c5260048cfd5b90505f610b46565b91505f610b3f565b8e80fd5b8b80fd5b8980fd5b8680fd5b503461039b578060031936011261039b57602061012e54604051908152f35b503461039b57604036600319011261039b5760043560ff81168091036108e657602435610d06612e30565b8115610dca5760ff61013c54168015610dbc575b610dad57604051606081016001600160401b03811182821017610d995791600160406020937f2a45aecb5e74807f4204a70f50428bc49db88ba8b1799808a3b23dda36ad3e30958252868152838582015201528360ff1961013a54161761013a558061013b55600160ff1961013c54161761013c55604051908152a280f35b634e487b7160e01b85526041600452602485fd5b637ed27eb760e01b8352600483fd5b50610dc561396d565b610d1a565b6306b7c75960e31b8352600483fd5b503461039b578060031936011261039b57610df2612e88565b60016101375460a01c161561037d57610136546065546001600160a01b0316906001600160801b031633829003610e8e57610136839055610137839055610e6390827f00000000000000000000000000000000000000000000000000000000000000006001600160a01b0316613448565b7f315b8a0ece450231870bda1ecceeabdc74b6d0e53d6eb663bb910e3a6f42d6f18280a26001805580f35b631cc6a69960e11b8352600483fd5b503461039b578060031936011261039b57610139546040516001600160a01b039091168152602090f35b503461039b578060031936011261039b5760c061013d5460ff604051918060020b8352818160181c16151560208401528060201c60060b6040840152818160581c161515606084015263ffffffff8160601c16608084015260801c16151560a0820152f35b503461039b57606036600319011261039b57610f466129e6565b610f4e6129fc565b6044356001600160a01b038116919082810361056e5784549160ff8360081c161592838094611174575b801561115d575b156111015760ff1981166001178755836110f0575b506001600160a01b038516156110e1576001600160a01b03169384156110e157610fdf90610fd160ff885460081c16610fcc81614139565b614139565b610fda336137f7565b6137f7565b84549261101460ff8560081c16610ff581614139565b610ffe81614139565b6001805561100b81614139565b610fcc81614139565b60fb805460ff1916905561012d80546001600160a01b031916861790555f1961012e556298968061012f5560405194865f51602061429d5f395f51905f528180a3156110d2576101388054610100600160a81b03191660089290921b610100600160a81b031691909117905561013980546001600160a01b0319163317905561109b578280f35b61ff0019168255600181527f7f26b83ff96e1f2b6a682f133852f6798a09c465da95921460cefb384740249890602090a15f808280f35b632711b74d60e11b8552600485fd5b63e6c4247b60e01b8652600486fd5b61ffff19166101011786555f610f94565b60405162461bcd60e51b815260206004820152602e60248201527f496e697469616c697a61626c653a20636f6e747261637420697320616c72656160448201526d191e481a5b9a5d1a585b1a5e995960921b6064820152608490fd5b50303b158015610f7f5750600160ff821614610f7f565b50600160ff821610610f78565b503461039b57602036600319011261039b5761119b612e30565b60043561012e5580f35b503461039b578060031936011261039b57602060ff60fb54166040519015158152f35b503461039b578060031936011261039b578060c09160a06040516111eb81612a5c565b828152826020820152826040820152826060820152826080820152015260405161121481612a5c565b818152602081019082825260408101838152606082019084825260a0608084019386855201938585526040519586525160208601525160408501525160608401525160808301525160a0820152f35b503461039b578060031936011261039b575f5160206142fd5f395f51905f52546040516001600160a01b039091168152602090f35b503461039b578060031936011261039b576101385460405160089190911c6001600160a01b03168152602090f35b503461039b578060031936011261039b573033036112e65761077461382c565b63029a949d60e31b8152600490fd5b503461039b57602036600319011261039b5761130f6129e6565b611317612e30565b6001600160a01b031680156113585761012d80546001600160a01b0319811683179091556001600160a01b03165f51602061429d5f395f51905f528380a380f35b63e6c4247b60e01b8252600482fd5b503461039b57602036600319011261039b57600435611384612e30565b80156113915761012f5580f35b63162908e360e11b8252600482fd5b503461039b578060031936011261039b576065546040516001600160a01b039091168152602090f35b503461039b578060031936011261039b57610774612ab5565b503461039b578060031936011261039b576040517f00000000000000000000000000000000000000000000000000000000000000006001600160a01b03168152602090f35b503461039b578060031936011261039b5761012d546001600160a01b0316330361038c5760405161145781612a5c565b61013d548060020b82526020820160ff8260181c1615928315825260408101938360201c60060b8552606082019260ff8560581c16159182158552608084019263ffffffff8760601c16845260ff60a086019760801c1615908115885282611717575b508161170f575b50611700578051151580611696575b6116875761013d879055610138548551889160081c6001600160a01b031690611632575b85516115d5575b8251611584575b5050517ff000de3b5096c53aedb085cd4564d31ac9b0dc0b37be5374f85b51f82868170e95610c569392911561157d576001945b5115611576576002955b511561156a5763ffffffff6004935b5160020b915160060b92511692604051968796171785612e03565b63ffffffff889361154f565b8795611540565b8794611536565b845160020b813b1561056a5782916024839260405194859384926312cf138160e01b845260048401525af180156108db571561150257816115c89195949395612a77565b610cb8579091865f611502565b875160060b813b1561056a5760405190631b16146360e11b82526004820152828160248183865af1908115611627578391611612575b50506114fb565b8161161c91612a77565b6108e657815f61160b565b6040513d85823e3d90fd5b63ffffffff845116813b1561056a5760405190631d27050f60e01b82526004820152828160248183865af1908115611627578391611672575b50506114f4565b8161167c91612a77565b6108e657815f61166b565b6313643c3b60e11b8752600487fd5b5061013854604051639bdde46b60e01b8152906020908290600490829060081c6001600160a01b03165afa9081156116f55788916116d6575b50156114d0565b6116ef915060203d602011610a9a57610a8c8183612a77565b5f6116cf565b6040513d8a823e3d90fd5b63036764e560e21b8752600487fd5b90505f6114c1565b91505f6114ba565b503461039b57604036600319011261039b576108e66129fc565b503461039b578060031936011261039b5760406117546134cc565b82519182526020820152f35b503461039b578060031936011261039b57606060ff61013a541661013b5460ff61013c541690604051928352602083015215156040820152f35b503461039b57602036600319011261039b57806117b56129e6565b6117bd612e30565b6101385460081c6001600160a01b031690813b1561181e576040516378238c3760e01b81526001600160a01b0390911660048201529082908290602490829084905af180156108db5761180d5750f35b8161181791612a77565b61039b5780f35b5050fd5b503461039b578060031936011261039b5761183b612e30565b606580546001600160a01b0319811690915581906001600160a01b03165f51602061431d5f395f51905f528280a380f35b503461039b578060031936011261039b576040611887612d41565b82516001600160a01b03928316815291166020820152f35b503461039b578060031936011261039b573033036112e6576107746132b5565b503461039b578060031936011261039b576118d8612e30565b600160ff19610138541617610138556118ef613488565b600160ff1960fb54161760fb555f51602061437d5f395f51905f526020604051338152a1303b1561039b5760405163297664eb60e21b81528190818160048183305af1611a65575b5050303b1561039b576040516317de169760e21b81528190818160048183305af1611a50575b50506040516370a0823160e01b81523060048201527f00000000000000000000000000000000000000000000000000000000000000006001600160a01b031690602081602481855afa908115611627578391611a0d575b50805f5160206142dd5f395f51905f5292816040936119ee575b50508361013055836101365583610137558151908152426020820152a180f35b606554611a06926001600160a01b0390911690613448565b5f816119ce565b90506020813d602011611a48575b81611a2860209383612a77565b81010312611a4457515f5160206142dd5f395f51905f526119b4565b5f80fd5b3d9150611a1b565b81611a5a91612a77565b61039b57805f61195d565b81611a6f91612a77565b61039b57805f611937565b503461039b57604036600319011261039b57611a946129e6565b611a9c6129fc565b611aa4612e30565b60ff610138541615610e8e576001600160a01b038116918215611b74576040516370a0823160e01b81523060048201526001600160a01b039190911691602082602481865afa918215610aa1578592611b40575b5081611b02578480f35b81611b317f77023e19c7343ad491fd706c36335ca0e738340a91f29b1fd81e2673d44896c49360209386613448565b604051908152a35f8080808480f35b9091506020813d602011611b6c575b81611b5c60209383612a77565b81010312611a445751905f611af8565b3d9150611b4f565b63e6c4247b60e01b8452600484fd5b503461039b578060031936011261039b577f00000000000000000000000000000000000000000000000000000000000000006001600160a01b03163003611bdb5760206040515f5160206142fd5f395f51905f528152f35b60405162461bcd60e51b815260206004820152603860248201527f555550535570677261646561626c653a206d757374206e6f742062652063616c6044820152771b1959081d1a1c9bdd59da0819195b1959d85d1958d85b1b60421b6064820152608490fd5b50604036600319011261039b57611c566129e6565b602435906001600160401b03821161056a573660238301121561056a5782826004013592611c8384612a9a565b93611c916040519586612a77565b808552366024828401011161056a57806024602093018387013784010152611d067f00000000000000000000000000000000000000000000000000000000000000006001600160a01b0316611ce830821415612ca5565b5f5160206142fd5f395f51905f52546001600160a01b031614612cf3565b611d0f816136b5565b5f51602061427d5f395f51905f525460ff1615611d305761077491506140a9565b6040516352d1902d60e01b81526020816004816001600160a01b0386165afa849181611e08575b50611da55760405162461bcd60e51b815260206004820152602e60248201525f5160206143fd5f395f51905f5260448201526d6f6e206973206e6f74205555505360901b6064820152608490fd5b5f5160206142fd5f395f51905f5203611dc45761077491600191613765565b60405162461bcd60e51b815260206004820152602960248201525f5160206143bd5f395f51905f526044820152681a58589b195555525160ba1b6064820152608490fd5b9091506020813d602011611e34575b81611e2460209383612a77565b8101031261056e5751905f611d57565b3d9150611e17565b503461039b578060031936011261039b57611e55612e88565b60026101375460a01c161561037d576065546001600160a01b03163381900361070d57816101365581610137557f8b775bb80a5d4addc5ea2601b2378ae89a1bb9010227157ac02aa71498e799c48280a26001805580f35b503461039b578060031936011261039b5761012d546001600160a01b0316330361038c57611ed9612e88565b7f1375724ea5b49914df0f50564c7584995f701511abaf28b91e714cea23cee49960a0604051838152836020820152836040820152836060820152426080820152a16001805580f35b5034611a44575f366003190112611a445761012d546001600160a01b0316330361204257611f4e612e88565b6101385460081c6001600160a01b0316803b15611a44575f8091600460405180948193630beebd3960e11b83525af1801561203757612024575b5061013854819060081c6001600160a01b0316803b15612021578190600460405180948193630d0e30db60e41b83525af180156108db5761200c575b6040827f68d793b46909dd71f01302cc73514e67391ab192095cf26aec99f08ccca271e2606083518381528360208201524285820152a1600180558151908082526020820152f35b612017828092612a77565b61039b575f611fc4565b50fd5b61203091505f90612a77565b5f5f611f88565b6040513d5f823e3d90fd5b635990781360e01b5f5260045ffd5b34611a44575f366003190112611a4457602061012f54604051908152f35b34611a44575f366003190112611a4457602061013054604051908152f35b34611a44575f366003190112611a44576120a5612e30565b6101395460405163b133f4d360e01b815290602090829060049082906001600160a01b03165afa908115612037575f916121bd575b506001600160a01b038116908115158061219c575b6120f557005b6120fe816136b5565b6040519061210d602083612a77565b5f808352602083019390368537612123826140a9565b5f51602061433d5f395f51905f525f80a2815115801590612195575b612146575b005b5f80612144946040519461215b606087612a77565b602786525f5160206143dd5f395f51905f526020870152660819985a5b195960ca1b60408701525190845af461218f614199565b916141c8565b505f61213f565b505f5160206142fd5f395f51905f52546001600160a01b03168214156120ef565b6121d6915060203d6020116104fd576104ee8183612a77565b816120da565b34611a44576020366003190112611a44576121f56129e6565b61222e7f00000000000000000000000000000000000000000000000000000000000000006001600160a01b0316611ce830821415612ca5565b612237816136b5565b6040519060206122478184612a77565b5f8352601f19810136828501375f51602061427d5f395f51905f525460ff1615612276575061214491506140a9565b6040516352d1902d60e01b815290919082816004816001600160a01b0386165afa5f9181612365575b506122ed5760405162461bcd60e51b815260048101849052602e60248201525f5160206143fd5f395f51905f5260448201526d6f6e206973206e6f74205555505360901b6064820152608490fd5b9091907fc9f76b5ec45e5cdef99837d7b6d2467235c1df8933c8ca56df5c35afa2c7d444016123225750612144915f91613765565b6084906040519062461bcd60e51b82526004820152602960248201525f5160206143bd5f395f51905f526044820152681a58589b195555525160ba1b6064820152fd5b9091508381813d831161238d575b61237d8183612a77565b81010312611a445751908561229f565b503d612373565b34611a44575f366003190112611a44575f60806040516123b381612a41565b828152826020820152826040820152826060820152015260a06040516123d881612a41565b5f815260208101905f825260408101905f8252608060608201915f835201915f8352604051935f85525160020b60208501525160020b6040840152516060830152516080820152f35b34611a44575f366003190112611a445760206107e6612b34565b34611a44576020366003190112611a4457600435612457613488565b61245f612e88565b60655481906001600160a01b031633036125485760ff6101375460a01c166125485760ff610138541661254857612494612b34565b908115612548578110612540575b50600260606040516124b381612a12565b5f81526001600160801b0384166020808301919091523360408084018290529390920193909352608084901b6001600160801b03191661013655610137805460ff60a01b1983166001600160a81b031990911617600160a11b17905590519283529182917f1d78e54183f79519732f07b15f3311310b120b8286121dea10e65ba6bb03a22391a360018055005b9050816124a2565b631cc6a69960e11b5f5260045ffd5b34611a44575f366003190112611a44576101c0610136546101375460a01c60ff61013a541661013b549060ff61013c5416928315612630575b831561261f575b831561260e575b6002906040519560018060801b0381168752600182161515602088015260801c604087015216151560608501525f60808501525f60a08501525f60c08501525f60e08501525f6101008501525f6101208501525f61014085015261016084015261018083015215156101a0820152f35b61013d5460801c60ff16935061259e565b61013d5460581c60ff169350612597565b61013d5460181c60ff169350612590565b34611a44576020366003190112611a445761012d546001600160a01b031633036120425761266d612e88565b6101375460028160a01c16156125485760018060a01b031660018060a01b03606554166101365460801c6101305480612835575b506040516370a0823160e01b81523060048201527f00000000000000000000000000000000000000000000000000000000000000006001600160a01b031690602081602481855afa908115612037575f91612803575b50808311156127fc5761270a9083612aea565b806127ed575b506127196132b5565b6040516370a0823160e01b815230600482015291602083602481855afa928315612037575f936127b9575b5060043583106127aa578260409281877f5809abf1a3b5a41e977dcbb37cad51dcd19fa047fea1828fc2edf10961d3b30896612799575b5050505f610136555f6101375582519182526020820152a360018055005b6127a292613448565b86818761277b565b631e9acf1760e31b5f5260045ffd5b9092506020813d6020116127e5575b816127d560209383612a77565b81010312611a4457519185612744565b3d91506127c8565b6127f690612ef4565b50612710565b505f61270a565b90506020813d60201161282d575b8161281e60209383612a77565b81010312611a445751856126f7565b3d9150612811565b61283d612b34565b90811561289e57612852826105fb8386612aca565b5f19810190811161288a576128789261286a91612af7565b905b80821161288257612aea565b61013055836126a1565b905080612aea565b634e487b7160e01b5f52601160045260245ffd5b61287891508061286c565b34611a44576020366003190112611a445760043580151590818103611a44576128d0612e30565b1561291b5760205f51602061439d5f395f51905f52916128ee613488565b600160ff1960fb54161760fb555f51602061437d5f395f51905f5282604051338152a15b604051908152a1005b60fb5460ff81161561296e575f51602061439d5f395f51905f529160209160ff191660fb557f5db9ee0a495bf2e6ff9c91a7834c1ba4fdd244a5e8aa4e537bd38aeae4b073aa82604051338152a1612912565b60405162461bcd60e51b815260206004820152601460248201527314185d5cd8589b194e881b9bdd081c185d5cd95960621b6044820152606490fd5b34611a44575f366003190112611a4457602060ff61013854166040519015158152f35b34611a44576020366003190112611a4457612144612ab5565b600435906001600160a01b0382168203611a4457565b602435906001600160a01b0382168203611a4457565b608081019081106001600160401b03821117612a2d57604052565b634e487b7160e01b5f52604160045260245ffd5b60a081019081106001600160401b03821117612a2d57604052565b60c081019081106001600160401b03821117612a2d57604052565b601f909101601f19168101906001600160401b03821190821017612a2d57604052565b6001600160401b038111612a2d57601f01601f191660200190565b61012d546001600160a01b0316330361204257565b8181029291811591840414171561288a57565b9190820180921161288a57565b9190820391821161288a57565b8115612b01570490565b634e487b7160e01b5f52601260045260245ffd5b90816020910312611a4457516001600160a01b0381168103611a445790565b612b3c6134cc565b90801580612c9d575b612c97576101385460405163501ad8ff60e11b8152929060081c6001600160a01b0316602084600481845afa938415612037575f94612c63575b508315612c5b5760206004916040519283809263017b859f60e61b82525afa908115612037575f91612c3c575b506001600160a01b039081167f000000000000000000000000000000000000000000000000000000000000000090911603612c18576a0c097ce7bc90715b34b9f160241b818102918015908304909114171561288a57612c1592612c0f91612af7565b90612add565b90565b90612c35612c15936a0c097ce7bc90715b34b9f160241b92612aca565b0490612add565b612c55915060203d6020116104fd576104ee8183612a77565b5f612bac565b505050505f90565b9093506020813d602011612c8f575b81612c7f60209383612a77565b81010312611a445751925f612b7f565b3d9150612c72565b50505f90565b508115612b45565b15612cac57565b60405162461bcd60e51b815260206004820152602c60248201525f5160206142bd5f395f51905f5260448201526b19195b1959d85d1958d85b1b60a21b6064820152608490fd5b15612cfa57565b60405162461bcd60e51b815260206004820152602c60248201525f5160206142bd5f395f51905f5260448201526b6163746976652070726f787960a01b6064820152608490fd5b6101385460081c6001600160a01b031680612d5d57505f905f90565b60405163017b859f60e61b81529190602083600481845afa908115612037576004935f92612dc9575b50602090604051948580926343bab15b60e11b82525afa928315612037575f93612daf57509190565b612c1591935060203d6020116104fd576104ee8183612a77565b6020919250612de490823d84116104fd576104ee8183612a77565b9190612d86565b90816020910312611a4457518015158103611a445790565b929363ffffffff91959460609360ff608087019816865260020b602086015260060b604085015216910152565b6065546001600160a01b03163303612e4457565b606460405162461bcd60e51b815260206004820152602060248201527f4f776e61626c653a2063616c6c6572206973206e6f7420746865206f776e65726044820152fd5b600260015414612e99576002600155565b60405162461bcd60e51b815260206004820152601f60248201527f5265656e7472616e637947756172643a207265656e7472616e742063616c6c006044820152606490fd5b9190826040910312611a44576020825192015190565b6101385490915f9160081c6001600160a01b0316803b15611a44575f8091600460405180948193630beebd3960e11b83525af18015612037576132a0575b506101385460408051630f77314d60e31b815260089290921c6001600160a01b0316949082600481885afa91821561055f578490859361326c575b50801580613264575b61325a57612f82613d87565b91821561324f5782918183612faf9561035f9411613247575b61035f82612fa99394612aca565b94612aca565b9260405163017b859f60e61b8152602081600481895afa9081156108db578291613228575b506040516343bab15b60e11b8152906020826004818a5afa918215611627578392613207575b506040516370a0823160e01b81523060048201526001600160a01b03919091169690916020836024818b5afa92831561055f5784936131d3575b506040516370a0823160e01b81523060048201526001600160a01b03919091169690946020866024818b5afa958615610aa157859661319f575b50823b1561056e579060448592836040519586948593630441a3e760e41b8552600485015260248401525af180156116275761318a575b5060206024949596604051958680926370a0823160e01b82523060048301525afa9384156108db578294613154575b506130e3602091602495612aea565b95604051948580926370a0823160e01b82523060048301525afa9081156131485790613114575b612c159250612aea565b506020823d602011613140575b8161312e60209383612a77565b81010312611a4457612c15915161310a565b3d9150613121565b604051903d90823e3d90fd5b93506020843d602011613182575b8161316f60209383612a77565b81010312611a44579251926130e36130d4565b3d9150613162565b613195838092612a77565b6108e6575f6130a5565b9095506020813d6020116131cb575b816131bb60209383612a77565b81010312611a445751945f61306e565b3d91506131ae565b9092506020813d6020116131ff575b816131ef60209383612a77565b81010312611a445751915f613034565b3d91506131e2565b61322191925060203d6020116104fd576104ee8183612a77565b905f612ffa565b613241915060203d6020116104fd576104ee8183612a77565b5f612fd4565b905080612f9b565b509394508493505050565b5092935083925050565b508215612f76565b905061329191925060403d604011613299575b6132898183612a77565b810190612ede565b91905f612f6d565b503d61327f565b6132ad9192505f90612a77565b5f905f612f32565b6101385460405163017b859f60e61b815260089190911c6001600160a01b031690602081600481855afa908115612037575f91613429575b506001600160a01b038181167f00000000000000000000000000000000000000000000000000000000000000009091160361342457506040516343bab15b60e11b8152602081600481855afa908115612037575f91613405575b505b6040516370a0823160e01b8152306004820152906020826024816001600160a01b0385165afa918215612037575f926133ce575b506020600493604051948580926316f0115b60e01b82525afa8015612037576133ad935f916133af575b50613ea9565b565b6133c8915060203d6020116104fd576104ee8183612a77565b5f6133a7565b9291506020833d6020116133fd575b816133ea60209383612a77565b81010312611a445791519091602061337d565b3d91506133dd565b61341e915060203d6020116104fd576104ee8183612a77565b5f613347565b613349565b613442915060203d6020116104fd576104ee8183612a77565b5f6132ed565b60405163a9059cbb60e01b60208201526001600160a01b0390921660248301526044808301939093529181526133ad91613483606483612a77565b613fc7565b60ff60fb541661349457565b60405162461bcd60e51b815260206004820152601060248201526f14185d5cd8589b194e881c185d5cd95960821b6044820152606490fd5b6101385460408051630f77314d60e31b815260089290921c6001600160a01b0316929082600481865afa8015612037575f925f91613690575b5060405163017b859f60e61b815292602084600481885afa938415612037575f9461366d575b50602060049495604051958680926343bab15b60e11b82525afa938415612037575f94613648575b506040516370a0823160e01b81523060048201529394929392602090849060249082906001600160a01b03165afa928315612037575f93613612575b5061359e602493602092612add565b6040516370a0823160e01b815230600482015290959093849182906001600160a01b03165afa908115612037575f916135dc575b612c159250612add565b90506020823d60201161360a575b816135f760209383612a77565b81010312611a4457612c159151906135d2565b3d91506135ea565b92506020833d602011613640575b8161362d60209383612a77565b81010312611a445791519161359e61358f565b3d9150613620565b6024939450613665602091823d84116104fd576104ee8183612a77565b949350613553565b60049450613689602091823d84116104fd576104ee8183612a77565b945061352b565b90506136ac91925060403d604011613299576132898183612a77565b9190915f613505565b6101395460405163b133f4d360e01b81529190602090839060049082906001600160a01b03165afa918215612037575f92613744575b506001600160a01b03908116911681148015919061373b575b5061372c576065546001600160a01b0316330361371d57565b63ea8e4eb560e01b5f5260045ffd5b632711b74d60e11b5f5260045ffd5b9050155f613704565b61375e91925060203d6020116104fd576104ee8183612a77565b905f6136eb565b9161376f836140a9565b6001600160a01b0383165f51602061433d5f395f51905f525f80a2815115908115916137ef575b5061379f575050565b6137ec915f80604051936137b4606086612a77565b602785525f5160206143dd5f395f51905f526020860152660819985a5b195960ca1b6040860152602081519101845af461218f614199565b50565b90505f613796565b606580546001600160a01b039283166001600160a01b0319821681179092559091165f51602061431d5f395f51905f525f80a3565b6101385460408051630f77314d60e31b81525f92909160089190911c6001600160a01b03169082600481845afa908115612037575f925f92613949575b50821580613941575b61393b57803b15611a44575f8091600460405180948193630beebd3960e11b83525af1801561203757613926575b506101385460081c6001600160a01b031691823b1561057257839160448392836040519687948593630441a3e760e41b8552600485015260248401525af19182613911575b50506137ec57807fc934a2e092e37cdb20f410ba7f032dc2a47a3bb4f4137bff67faf9274a71a1f291a1565b8161391b91612a77565b6108e657815f6138e5565b6139339193505f90612a77565b5f915f6138a0565b50505050565b508115613872565b909250613965915060403d604011613299576132898183612a77565b90915f613869565b61013d5460ff8160181c16908115613995575b811561398a575090565b60ff915060801c1690565b905060ff8160581c1690613980565b6101385460408051630f77314d60e31b815260089290921c6001600160a01b0316919081600481855afa918215612037575f915f93613a7d575b50811580613a75575b613a6e5760206004916040519283809263017b859f60e61b82525afa908115612037575f91613a4f575b506001600160a01b039081167f000000000000000000000000000000000000000000000000000000000000000090911603613a4a575090565b905090565b613a68915060203d6020116104fd576104ee8183612a77565b5f613a11565b5050505f90565b5082156139e7565b909250613a99915060403d604011613299576132898183612a77565b915f6139de565b6101385460405163017b859f60e61b8152919260089190911c6001600160a01b0316915f90602081600481875afa908115612037575f91613d68575b506040516343bab15b60e11b815294602086600481885afa918215612037576024965f93613d47575b506001600160a01b03818116927f0000000000000000000000000000000000000000000000000000000000000000909116838114928315613d3f57506020855b6040516370a0823160e01b81523060048201529a8b9182906001600160a01b03165afa988915612037575f99613d04575b5090602060249392604051948580926370a0823160e01b82523060048301525afa928315612037575f93613cd0575b50808311613cc8575b5015613cc25795945b861580613cba575b613cae57803b15611a44575f8091600460405180948193630beebd3960e11b83525af1801561203757613c99575b508580613c75575b50508380613c4f575b50506101385460081c6001600160a01b0316803b156108e657818091600460405180948193630d0e30db60e41b83525af180156108db57613c3d575050565b613c48828092612a77565b61039b5750565b61013854613c6e926001600160a01b0360089290921c82169116613448565b5f83613bfe565b61013854613c929260089190911c6001600160a01b031690613448565b5f85613bf5565b613ca69193505f90612a77565b5f915f613bed565b505f9550859450505050565b508515613bbf565b94613bb7565b91505f613bae565b9092506020813d602011613cfc575b81613cec60209383612a77565b81010312611a445751915f613ba5565b3d9150613cdf565b92919098506020833d602011613d37575b81613d2260209383612a77565b81010312611a44579151979091906020613b76565b3d9150613d15565b602090613b45565b613d6191935060203d6020116104fd576104ee8183612a77565b915f613b05565b613d81915060203d6020116104fd576104ee8183612a77565b5f613adc565b6101385460408051630f77314d60e31b815260089290921c6001600160a01b0316919081600481855afa8015612037575f915f91613e88575b50811580613e80575b613a6e5760405163501ad8ff60e11b815292602084600481845afa938415612037575f94612c6357508315612c5b5760206004916040519283809263017b859f60e61b82525afa908115612037575f91612c3c57506001600160a01b039081167f000000000000000000000000000000000000000000000000000000000000000090911603612c18576a0c097ce7bc90715b34b9f160241b818102918015908304909114171561288a57612c1592612c0f91612af7565b508015613dc9565b9050613ea3915060403d604011613299576132898183612a77565b5f613dc0565b8215613fc2576001600160a01b0316918215613fb357604051630dfe168160e01b8152602081600481875afa9283156120375760409360c4925f91613f94575b506001600160a01b039182169116148015613f78575f6401000276a4955b85519687958694630251596160e31b86523060048701526024860152604485015260018060a01b0316606484015260a060848401528160a48401525af1801561203757613f515750565b604090813d8311613f71575b613f678183612a77565b81010312611a4457565b503d613f5d565b5f73fffd8963efd1fc6a506488495d951d5263988d2595613f07565b613fad915060203d6020116104fd576104ee8183612a77565b5f613ee9565b638b5f53cb60e01b5f5260045ffd5b505050565b906140219160018060a01b03165f8060405193613fe5604086612a77565b602085527f5361666545524332303a206c6f772d6c6576656c2063616c6c206661696c6564602086015260208151910182855af161218f614199565b805190811591821561408f575b50501561403757565b60405162461bcd60e51b815260206004820152602a60248201527f5361666545524332303a204552433230206f7065726174696f6e20646964206e6044820152691bdd081cdd58d8d9595960b21b6064820152608490fd5b6140a29250602080918301019101612deb565b5f8061402e565b803b156140de575f5160206142fd5f395f51905f5280546001600160a01b0319166001600160a01b0392909216919091179055565b60405162461bcd60e51b815260206004820152602d60248201527f455243313936373a206e657720696d706c656d656e746174696f6e206973206e60448201526c1bdd08184818dbdb9d1c9858dd609a1b6064820152608490fd5b1561414057565b60405162461bcd60e51b815260206004820152602b60248201527f496e697469616c697a61626c653a20636f6e7472616374206973206e6f74206960448201526a6e697469616c697a696e6760a81b6064820152608490fd5b3d156141c3573d906141aa82612a9a565b916141b86040519384612a77565b82523d5f602084013e565b606090565b9192901561422a57508151156141dc575090565b3b156141e55790565b60405162461bcd60e51b815260206004820152601d60248201527f416464726573733a2063616c6c20746f206e6f6e2d636f6e74726163740000006044820152606490fd5b82519091501561423d5750805190602001fd5b604460209160405192839162461bcd60e51b83528160048401528051918291826024860152018484015e5f828201840152601f01601f19168101030190fdfe4910fdfa16fed3260ed0e7147f7cc6da11a60208b5b9406d12a635614ffd91431c87e2bbc4e5fa5d7f6f8c44d66cb241dff224b8602eb5435ca2076d2a5c6fc246756e6374696f6e206d7573742062652063616c6c6564207468726f75676820e69aa2e435ec063c41ddc8d262f8672906549b0cff0e2fcdec03de8a590a6329360894a13ba1a3210667c828492db98dca3e2076cc3735a920a3ca505d382bbc8be0079c531659141344cd1fd0a4f28419497f9722a3daafe3b4186f6b6457e0bc7cd75a20ee27fd9adebab32041f755214dbc6bffa90cc0225b39da2e5c2d3b7f957baf715b9d399a74e664bafdf932e3a6c16ab77a458385a6ef38ebc1a6d862e78cea01bee320cd4e420270b5ea74000d11b0c9f74754ebdbfc544b05a2588fb6c181ee25a520cf3dd6565006ef91229fcfe5a989566c2a3b8c115570cec545524331393637557067726164653a20756e737570706f727465642070726f78416464726573733a206c6f772d6c6576656c2064656c65676174652063616c6c45524331393637557067726164653a206e657720696d706c656d656e74617469a2646970667358221220058ff62969541d22259f5f20ed493daf0ed6c8d7f7a483f7d1e42dc58e19241e64736f6c634300081c0033","linkReferences":{}},"methodIdentifiers":{"USDC()":"89a30271","accrueMarginFees()":"8d5b9a0a","adjustHedge(uint256)":"02161330","balances()":"7bb98a68","calculateAMMDelta()":"f24e8f2c","controller()":"f77c4791","deposit(uint256)":"b6b55f25","depositCancel()":"cc28f73d","depositExecute()":"fcc47ed2","depositRegister(uint256)":"f6555082","doEmergencySwapAllToUSDC()":"5f785a5c","doEmergencyWithdrawFromAMM()":"a5d993ac","emergencyExit()":"5641ec03","emergencyExitTriggered()":"122b05ed","executeBatchConfigChange()":"87b6ad65","executeConfigChange()":"ec8e6d2a","factory()":"c45a0155","getCurrentAMM()":"35ef5724","getCurrentHedge()":"ab465a2a","getImplementation()":"aaf10f42","getPendingStates()":"21ec23b6","getVaultEquity()":"357e6379","harvest()":"4641257d","initialize(address,address,address)":"c0c53b8b","isPaused()":"b187bd26","maxTotalAssets()":"d820f492","minDeposit()":"41b3d185","owner()":"8da5cb5b","paused()":"5c975abb","pendingBatch()":"c25fe090","pendingConfig()":"73c6a288","proxiableUUID()":"52d1902d","queueBatchConfigChange(int24,bool,int56,bool,uint32,bool)":"e31cdab3","queueConfigChange(uint8,int256)":"d52b1a88","rebalanceAMM()":"481488ae","renounceOwnership()":"715018a6","rescueTokens(address,address)":"5431c94e","setController(address)":"92eefe9b","setMaxTotalAssets(uint256)":"bc2e47b7","setMinDeposit(uint256)":"8fcc9cfb","setPaused(bool)":"16c38b3c","setStrategyRewardPool(address)":"71bc9aae","strategy()":"a8c62e76","totalShares()":"3a98ef39","transferOwnership(address)":"f2fde38b","uniswapV3SwapCallback(int256,int256,bytes)":"fa461e33","upgradeTo(address)":"3659cfe6","upgradeToAndCall(address,bytes)":"4f1ef286","upgradeToLatest()":"367ad9e2","wants()":"65844934","withdraw(uint256)":"2e1a7d4d","withdrawCancel()":"4cf1f49b","withdrawExecute(uint256)":"1f48ddd8","withdrawRegister(uint256,address)":"80607952"},"id":28}