{"abi":[{"type":"constructor","inputs":[{"name":"_usdc","type":"address","internalType":"address"}],"stateMutability":"nonpayable"},{"type":"function","name":"USDC","inputs":[],"outputs":[{"name":"","type":"address","internalType":"address"}],"stateMutability":"view"},{"type":"function","name":"accrueMarginFees","inputs":[],"outputs":[],"stateMutability":"nonpayable"},{"type":"function","name":"adjustHedge","inputs":[{"name":"","type":"uint256","internalType":"uint256"}],"outputs":[],"stateMutability":"nonpayable"},{"type":"function","name":"balances","inputs":[],"outputs":[{"name":"amount0","type":"uint256","internalType":"uint256"},{"name":"amount1","type":"uint256","internalType":"uint256"}],"stateMutability":"view"},{"type":"function","name":"calculateAMMDelta","inputs":[],"outputs":[{"name":"deltaETH","type":"uint256","internalType":"uint256"}],"stateMutability":"view"},{"type":"function","name":"controller","inputs":[],"outputs":[{"name":"","type":"address","internalType":"address"}],"stateMutability":"view"},{"type":"function","name":"deposit","inputs":[{"name":"assets","type":"uint256","internalType":"uint256"}],"outputs":[],"stateMutability":"nonpayable"},{"type":"function","name":"depositCancel","inputs":[],"outputs":[],"stateMutability":"nonpayable"},{"type":"function","name":"depositExecute","inputs":[],"outputs":[],"stateMutability":"nonpayable"},{"type":"function","name":"depositRegister","inputs":[{"name":"amount","type":"uint256","internalType":"uint256"}],"outputs":[],"stateMutability":"nonpayable"},{"type":"function","name":"doEmergencySwapAllToUSDC","inputs":[],"outputs":[],"stateMutability":"nonpayable"},{"type":"function","name":"doEmergencyWithdrawFromAMM","inputs":[],"outputs":[],"stateMutability":"nonpayable"},{"type":"function","name":"emergencyExit","inputs":[],"outputs":[],"stateMutability":"nonpayable"},{"type":"function","name":"emergencyExitTriggered","inputs":[],"outputs":[{"name":"","type":"bool","internalType":"bool"}],"stateMutability":"view"},{"type":"function","name":"executeBatchConfigChange","inputs":[],"outputs":[],"stateMutability":"nonpayable"},{"type":"function","name":"executeConfigChange","inputs":[],"outputs":[],"stateMutability":"nonpayable"},{"type":"function","name":"factory","inputs":[],"outputs":[{"name":"","type":"address","internalType":"address"}],"stateMutability":"view"},{"type":"function","name":"getCurrentAMM","inputs":[],"outputs":[{"name":"","type":"tuple","internalType":"struct IHedgedVault.AMMPosition","components":[{"name":"liquidity","type":"uint256","internalType":"uint256"},{"name":"tickLower","type":"int24","internalType":"int24"},{"name":"tickUpper","type":"int24","internalType":"int24"},{"name":"feesEarned0","type":"uint256","internalType":"uint256"},{"name":"feesEarned1","type":"uint256","internalType":"uint256"}]}],"stateMutability":"pure"},{"type":"function","name":"getCurrentHedge","inputs":[],"outputs":[{"name":"","type":"tuple","internalType":"struct IHedgedVault.HedgePosition","components":[{"name":"isOpen","type":"bool","internalType":"bool"},{"name":"sizeUSD","type":"uint256","internalType":"uint256"},{"name":"collateralUSD","type":"uint256","internalType":"uint256"},{"name":"entryPrice","type":"uint256","internalType":"uint256"},{"name":"openedAt","type":"uint256","internalType":"uint256"},{"name":"marginFeesAccrued","type":"uint256","internalType":"uint256"}]}],"stateMutability":"view"},{"type":"function","name":"getImplementation","inputs":[],"outputs":[{"name":"","type":"address","internalType":"address"}],"stateMutability":"view"},{"type":"function","name":"getPendingStates","inputs":[],"outputs":[{"name":"depositAmount","type":"uint256","internalType":"uint256"},{"name":"depositPending","type":"bool","internalType":"bool"},{"name":"withdrawalAmount","type":"uint256","internalType":"uint256"},{"name":"withdrawalPending","type":"bool","internalType":"bool"},{"name":"swapToken0","type":"uint256","internalType":"uint256"},{"name":"swapToken1","type":"uint256","internalType":"uint256"},{"name":"swapRecipient","type":"address","internalType":"address"},{"name":"swapPending","type":"bool","internalType":"bool"},{"name":"deployAmount0","type":"uint256","internalType":"uint256"},{"name":"deployAmount1","type":"uint256","internalType":"uint256"},{"name":"deployPending","type":"bool","internalType":"bool"},{"name":"configType","type":"uint8","internalType":"uint8"},{"name":"configValue","type":"int256","internalType":"int256"},{"name":"configPending","type":"bool","internalType":"bool"}],"stateMutability":"view"},{"type":"function","name":"getVaultEquity","inputs":[],"outputs":[{"name":"","type":"uint256","internalType":"uint256"}],"stateMutability":"view"},{"type":"function","name":"harvest","inputs":[],"outputs":[{"name":"fees0","type":"uint256","internalType":"uint256"},{"name":"fees1","type":"uint256","internalType":"uint256"}],"stateMutability":"nonpayable"},{"type":"function","name":"initialize","inputs":[{"name":"_owner","type":"address","internalType":"address"},{"name":"_controller","type":"address","internalType":"address"},{"name":"_strategy","type":"address","internalType":"address"}],"outputs":[],"stateMutability":"nonpayable"},{"type":"function","name":"isPaused","inputs":[],"outputs":[{"name":"","type":"bool","internalType":"bool"}],"stateMutability":"view"},{"type":"function","name":"maxTotalAssets","inputs":[],"outputs":[{"name":"","type":"uint256","internalType":"uint256"}],"stateMutability":"view"},{"type":"function","name":"minDeposit","inputs":[],"outputs":[{"name":"","type":"uint256","internalType":"uint256"}],"stateMutability":"view"},{"type":"function","name":"owner","inputs":[],"outputs":[{"name":"","type":"address","internalType":"address"}],"stateMutability":"view"},{"type":"function","name":"paused","inputs":[],"outputs":[{"name":"","type":"bool","internalType":"bool"}],"stateMutability":"view"},{"type":"function","name":"pendingBatch","inputs":[],"outputs":[{"name":"positionWidth","type":"int24","internalType":"int24"},{"name":"hasPositionWidth","type":"bool","internalType":"bool"},{"name":"deviation","type":"int56","internalType":"int56"},{"name":"hasDeviation","type":"bool","internalType":"bool"},{"name":"twapInterval","type":"uint32","internalType":"uint32"},{"name":"hasTwapInterval","type":"bool","internalType":"bool"}],"stateMutability":"view"},{"type":"function","name":"pendingConfig","inputs":[],"outputs":[{"name":"changeType","type":"uint8","internalType":"uint8"},{"name":"value","type":"int256","internalType":"int256"},{"name":"isPending","type":"bool","internalType":"bool"}],"stateMutability":"view"},{"type":"function","name":"proxiableUUID","inputs":[],"outputs":[{"name":"","type":"bytes32","internalType":"bytes32"}],"stateMutability":"view"},{"type":"function","name":"queueBatchConfigChange","inputs":[{"name":"positionWidth","type":"int24","internalType":"int24"},{"name":"setWidth","type":"bool","internalType":"bool"},{"name":"deviation","type":"int56","internalType":"int56"},{"name":"setDev","type":"bool","internalType":"bool"},{"name":"twapInterval","type":"uint32","internalType":"uint32"},{"name":"setTwap","type":"bool","internalType":"bool"}],"outputs":[],"stateMutability":"nonpayable"},{"type":"function","name":"queueConfigChange","inputs":[{"name":"changeType","type":"uint8","internalType":"uint8"},{"name":"value","type":"int256","internalType":"int256"}],"outputs":[],"stateMutability":"nonpayable"},{"type":"function","name":"rebalanceAMM","inputs":[],"outputs":[],"stateMutability":"nonpayable"},{"type":"function","name":"renounceOwnership","inputs":[],"outputs":[],"stateMutability":"nonpayable"},{"type":"function","name":"rescueTokens","inputs":[{"name":"token","type":"address","internalType":"address"},{"name":"to","type":"address","internalType":"address"}],"outputs":[],"stateMutability":"nonpayable"},{"type":"function","name":"setController","inputs":[{"name":"_controller","type":"address","internalType":"address"}],"outputs":[],"stateMutability":"nonpayable"},{"type":"function","name":"setMaxTotalAssets","inputs":[{"name":"_maxTotalAssets","type":"uint256","internalType":"uint256"}],"outputs":[],"stateMutability":"nonpayable"},{"type":"function","name":"setMinDeposit","inputs":[{"name":"_minDeposit","type":"uint256","internalType":"uint256"}],"outputs":[],"stateMutability":"nonpayable"},{"type":"function","name":"setPaused","inputs":[{"name":"_paused","type":"bool","internalType":"bool"}],"outputs":[],"stateMutability":"nonpayable"},{"type":"function","name":"setStrategyPositionWidth","inputs":[{"name":"_width","type":"int24","internalType":"int24"}],"outputs":[],"stateMutability":"nonpayable"},{"type":"function","name":"setStrategyRewardPool","inputs":[{"name":"_rewardPool","type":"address","internalType":"address"}],"outputs":[],"stateMutability":"nonpayable"},{"type":"function","name":"strategy","inputs":[],"outputs":[{"name":"","type":"address","internalType":"contract IStrategyConcLiq"}],"stateMutability":"view"},{"type":"function","name":"totalShares","inputs":[],"outputs":[{"name":"","type":"uint256","internalType":"uint256"}],"stateMutability":"view"},{"type":"function","name":"transferOwnership","inputs":[{"name":"newOwner","type":"address","internalType":"address"}],"outputs":[],"stateMutability":"nonpayable"},{"type":"function","name":"uniswapV3SwapCallback","inputs":[{"name":"amount0Delta","type":"int256","internalType":"int256"},{"name":"amount1Delta","type":"int256","internalType":"int256"},{"name":"","type":"bytes","internalType":"bytes"}],"outputs":[],"stateMutability":"nonpayable"},{"type":"function","name":"upgradeTo","inputs":[{"name":"newImplementation","type":"address","internalType":"address"}],"outputs":[],"stateMutability":"nonpayable"},{"type":"function","name":"upgradeToAndCall","inputs":[{"name":"newImplementation","type":"address","internalType":"address"},{"name":"data","type":"bytes","internalType":"bytes"}],"outputs":[],"stateMutability":"payable"},{"type":"function","name":"upgradeToLatest","inputs":[],"outputs":[],"stateMutability":"nonpayable"},{"type":"function","name":"wants","inputs":[],"outputs":[{"name":"token0","type":"address","internalType":"address"},{"name":"token1","type":"address","internalType":"address"}],"stateMutability":"view"},{"type":"function","name":"withdraw","inputs":[{"name":"assets","type":"uint256","internalType":"uint256"}],"outputs":[],"stateMutability":"nonpayable"},{"type":"function","name":"withdrawCancel","inputs":[],"outputs":[],"stateMutability":"nonpayable"},{"type":"function","name":"withdrawExecute","inputs":[{"name":"minAmountOut","type":"uint256","internalType":"uint256"}],"outputs":[],"stateMutability":"nonpayable"},{"type":"function","name":"withdrawRegister","inputs":[{"name":"","type":"uint256","internalType":"uint256"},{"name":"","type":"address","internalType":"address"}],"outputs":[],"stateMutability":"pure"},{"type":"event","name":"AMMRebalanced","inputs":[{"name":"oldTickLower","type":"int24","indexed":false,"internalType":"int24"},{"name":"oldTickUpper","type":"int24","indexed":false,"internalType":"int24"},{"name":"newTickLower","type":"int24","indexed":false,"internalType":"int24"},{"name":"newTickUpper","type":"int24","indexed":false,"internalType":"int24"},{"name":"timestamp","type":"uint256","indexed":false,"internalType":"uint256"}],"anonymous":false},{"type":"event","name":"AdminChanged","inputs":[{"name":"previousAdmin","type":"address","indexed":false,"internalType":"address"},{"name":"newAdmin","type":"address","indexed":false,"internalType":"address"}],"anonymous":false},{"type":"event","name":"BatchConfigExec","inputs":[{"name":"flags","type":"uint8","indexed":false,"internalType":"uint8"},{"name":"positionWidth","type":"int24","indexed":false,"internalType":"int24"},{"name":"deviation","type":"int56","indexed":false,"internalType":"int56"},{"name":"twapInterval","type":"uint32","indexed":false,"internalType":"uint32"}],"anonymous":false},{"type":"event","name":"BatchConfigQueued","inputs":[{"name":"flags","type":"uint8","indexed":false,"internalType":"uint8"},{"name":"positionWidth","type":"int24","indexed":false,"internalType":"int24"},{"name":"deviation","type":"int56","indexed":false,"internalType":"int56"},{"name":"twapInterval","type":"uint32","indexed":false,"internalType":"uint32"}],"anonymous":false},{"type":"event","name":"BeaconUpgraded","inputs":[{"name":"beacon","type":"address","indexed":true,"internalType":"address"}],"anonymous":false},{"type":"event","name":"ConfigExec","inputs":[{"name":"changeType","type":"uint8","indexed":true,"internalType":"uint8"},{"name":"value","type":"int256","indexed":false,"internalType":"int256"}],"anonymous":false},{"type":"event","name":"ConfigQueued","inputs":[{"name":"changeType","type":"uint8","indexed":true,"internalType":"uint8"},{"name":"value","type":"int256","indexed":false,"internalType":"int256"}],"anonymous":false},{"type":"event","name":"ControllerUpdated","inputs":[{"name":"oldController","type":"address","indexed":true,"internalType":"address"},{"name":"newController","type":"address","indexed":true,"internalType":"address"}],"anonymous":false},{"type":"event","name":"DepositCancelled","inputs":[{"name":"user","type":"address","indexed":true,"internalType":"address"}],"anonymous":false},{"type":"event","name":"DepositExecuted","inputs":[{"name":"user","type":"address","indexed":true,"internalType":"address"},{"name":"assets","type":"uint256","indexed":false,"internalType":"uint256"},{"name":"shares","type":"uint256","indexed":false,"internalType":"uint256"}],"anonymous":false},{"type":"event","name":"DepositQueued","inputs":[{"name":"user","type":"address","indexed":true,"internalType":"address"},{"name":"amount","type":"uint256","indexed":false,"internalType":"uint256"}],"anonymous":false},{"type":"event","name":"EmergencyExit","inputs":[{"name":"usdcRecovered","type":"uint256","indexed":false,"internalType":"uint256"},{"name":"timestamp","type":"uint256","indexed":false,"internalType":"uint256"}],"anonymous":false},{"type":"event","name":"FeesHarvested","inputs":[{"name":"fees0","type":"uint256","indexed":false,"internalType":"uint256"},{"name":"fees1","type":"uint256","indexed":false,"internalType":"uint256"},{"name":"timestamp","type":"uint256","indexed":false,"internalType":"uint256"}],"anonymous":false},{"type":"event","name":"HedgeAdjusted","inputs":[{"name":"oldSize","type":"uint256","indexed":false,"internalType":"uint256"},{"name":"newSize","type":"uint256","indexed":false,"internalType":"uint256"},{"name":"timestamp","type":"uint256","indexed":false,"internalType":"uint256"}],"anonymous":false},{"type":"event","name":"HedgeClosed","inputs":[{"name":"sizeUSD","type":"uint256","indexed":false,"internalType":"uint256"},{"name":"exitPrice","type":"uint256","indexed":false,"internalType":"uint256"},{"name":"pnl","type":"int256","indexed":false,"internalType":"int256"},{"name":"timestamp","type":"uint256","indexed":false,"internalType":"uint256"}],"anonymous":false},{"type":"event","name":"HedgeOpened","inputs":[{"name":"sizeUSD","type":"uint256","indexed":false,"internalType":"uint256"},{"name":"entryPrice","type":"uint256","indexed":false,"internalType":"uint256"},{"name":"timestamp","type":"uint256","indexed":false,"internalType":"uint256"}],"anonymous":false},{"type":"event","name":"Initialized","inputs":[{"name":"version","type":"uint8","indexed":false,"internalType":"uint8"}],"anonymous":false},{"type":"event","name":"OwnershipTransferred","inputs":[{"name":"previousOwner","type":"address","indexed":true,"internalType":"address"},{"name":"newOwner","type":"address","indexed":true,"internalType":"address"}],"anonymous":false},{"type":"event","name":"PauseChanged","inputs":[{"name":"paused","type":"bool","indexed":false,"internalType":"bool"}],"anonymous":false},{"type":"event","name":"Paused","inputs":[{"name":"account","type":"address","indexed":false,"internalType":"address"}],"anonymous":false},{"type":"event","name":"TokensRescued","inputs":[{"name":"token","type":"address","indexed":true,"internalType":"address"},{"name":"to","type":"address","indexed":true,"internalType":"address"},{"name":"amount","type":"uint256","indexed":false,"internalType":"uint256"}],"anonymous":false},{"type":"event","name":"Unpaused","inputs":[{"name":"account","type":"address","indexed":false,"internalType":"address"}],"anonymous":false},{"type":"event","name":"Upgraded","inputs":[{"name":"implementation","type":"address","indexed":true,"internalType":"address"}],"anonymous":false},{"type":"event","name":"WithdrawCancelled","inputs":[{"name":"user","type":"address","indexed":true,"internalType":"address"}],"anonymous":false},{"type":"event","name":"WithdrawExecuted","inputs":[{"name":"user","type":"address","indexed":true,"internalType":"address"},{"name":"shares","type":"uint256","indexed":false,"internalType":"uint256"},{"name":"assets","type":"uint256","indexed":false,"internalType":"uint256"},{"name":"recipient","type":"address","indexed":true,"internalType":"address"}],"anonymous":false},{"type":"event","name":"WithdrawFromAMMFailed","inputs":[],"anonymous":false},{"type":"event","name":"WithdrawQueued","inputs":[{"name":"user","type":"address","indexed":true,"internalType":"address"},{"name":"shares","type":"uint256","indexed":false,"internalType":"uint256"},{"name":"recipient","type":"address","indexed":true,"internalType":"address"}],"anonymous":false},{"type":"error","name":"BelowMin","inputs":[]},{"type":"error","name":"ConfigPending","inputs":[]},{"type":"error","name":"ExceedsMax","inputs":[]},{"type":"error","name":"HedgeAlreadyOpen","inputs":[]},{"type":"error","name":"InsufficientBalance","inputs":[]},{"type":"error","name":"InvalidAddress","inputs":[]},{"type":"error","name":"InvalidAmount","inputs":[]},{"type":"error","name":"InvalidConfig","inputs":[]},{"type":"error","name":"InvalidOperation","inputs":[]},{"type":"error","name":"InvalidStrategy","inputs":[]},{"type":"error","name":"InvalidSwapPool","inputs":[]},{"type":"error","name":"NoConfig","inputs":[]},{"type":"error","name":"NoHedgeOpen","inputs":[]},{"type":"error","name":"NotAuthorized","inputs":[]},{"type":"error","name":"NotCalm","inputs":[]},{"type":"error","name":"NotPaused","inputs":[]},{"type":"error","name":"NotPool","inputs":[]},{"type":"error","name":"OnlyController","inputs":[]},{"type":"error","name":"OnlyFactory","inputs":[]},{"type":"error","name":"OnlyOwner","inputs":[]},{"type":"error","name":"OnlySelf","inputs":[]},{"type":"error","name":"SlippageExceeded","inputs":[]},{"type":"error","name":"VaultPaused","inputs":[]}],"bytecode":{"object":"0x60c0346100c457601f61461e38819003918201601f19168301916001600160401b038311848410176100c8578084926020946040528339810103126100c457516001600160a01b03811681036100c4573060805260a05260405161454190816100dd8239608051818181611ba101528181611cbf0152612200015260a05181818161065501528181610e3d015281816113ff0152818161197f0152818161278701528181612ca9015281816133ea01528181613b0e01528181613c030152613f1a0152f35b5f80fd5b634e487b7160e01b5f52604160045260245ffdfe60806040526004361015610011575f80fd5b5f5f3560e01c80630216133014612aac578063122b05ed14612a8957806316c38b3c146129885780631f48ddd81461271157806321ec23b6146126275780632265a1b4146125615780632e1a7d4d14612443578063357e63791461242857806335ef57241461239b5780633659cfe6146121e1578063367ad9e2146120825780633a98ef391461206357806341b3d185146120445780634641257d14611f2d578063481488ae14611eb85780634cf1f49b14611e475780634f1ef28614611c4c57806352d1902d14611b8e5780635431c94e14611a855780635641ec03146118ca5780635c975abb146111ac5780635f785a5c146118aa5780636584493414611877578063715018a61461182d57806371bc9aae146117a557806373c6a2881461176b5780637bb98a6814611744578063806079521461172a57806387b6ad651461142e57806389a30271146113e95780638d5b9a0a146113d05780638da5cb5b146113a75780638fcc9cfb1461136e57806392eefe9b146112fc578063a5d993ac146112cd578063a8c62e761461129f578063aaf10f421461126a578063ab465a2a146111cf578063b187bd26146111ac578063b6b55f25146105ab578063bc2e47b714611188578063c0c53b8b14610f33578063c25fe09014610ece578063c45a015514610ea4578063cc28f73d14610de0578063d52b1a8814610ce2578063d820f49214610cc3578063e31cdab314610ac6578063ec8e6d2a146107f9578063f24e8f2c146107d6578063f2fde38b14610745578063f6555082146105ab578063f77c479114610581578063fa461e33146103a95763fcc47ed214610277575f80fd5b346103a657806003193601126103a65761012d546001600160a01b03163303610397576102a2612f77565b60016101375460a01c161561038857610136546065546001600160a01b0316907fcf75a80a22cde0edcefe708f860e644c73eb8921aac7890f3bec010eef965f64906040906001600160801b03166102f981613b8f565b505061013054610307612c23565b828082111561037f5761031991612bd9565b905b829181151580610376575b610356575b508161033691612bcc565b610130558561013655856101375582519182526020820152a26001805580f35b81925061036f9061036a6103369386612bb9565b612be6565b919061032b565b50801515610326565b5050859061031b565b631cc6a69960e11b8152600490fd5b635990781360e01b8152600490fd5b80fd5b50346103a65760603660031901126103a6576004356024356044356001600160401b03811161057d573660238201121561057d5760048101356001600160401b038111610579573691016024011161057557610138546040516316f0115b60e01b8152906020908290600490829060081c6001600160a01b03165afa90811561056a57849161054b575b506001600160a01b0381163381900361053c57604051630dfe168160e01b815293602085600481855afa91821561050f57600495879361051a575b506020906040519687809263d21220a760e01b82525afa94851561050f5786956104de575b50828682136104c4575b5050508382136104ab578380f35b6104bd926001600160a01b0316613537565b5f80808380f35b6104d6926001600160a01b0316613537565b5f808261049d565b61050191955060203d602011610508575b6104f98183612b66565b810190612c04565b935f610493565b503d6104ef565b6040513d88823e3d90fd5b602091935061053590823d8411610508576104f98183612b66565b929061046e565b636f61f64160e01b8552600485fd5b610564915060203d602011610508576104f98183612b66565b5f610433565b6040513d86823e3d90fd5b8280fd5b8480fd5b8380fd5b50346103a657806003193601126103a65761012d546040516001600160a01b039091168152602090f35b50346103a65760203660031901126103a6576004356105c8613577565b6105d0612f77565b6065546001600160a01b031633036107185760ff6101375460a01c166107185761012f5481106107365761060b81610606612c23565b612bcc565b61012e54106107275760ff6101385416610718576106826040516323b872dd60e01b602082015233602482015230604482015282606482015260648152610653608482612b66565b7f00000000000000000000000000000000000000000000000000000000000000006001600160a01b03166140b6565b6040516001600160801b0382169060019060609061069f81612b01565b8381526020808201879052604080830188905292909101929092526101369290925561013780546001600160a81b031916600160a01b17905560655491519283526001600160a01b0391909116917f39b741a94a004f4e0edfdc3c607302b8ccb1b8c4c5a9b5f761fec94a116921fb9190a26001805580f35b631cc6a69960e11b8252600482fd5b6395e28b8560e01b8252600482fd5b6310906acb60e01b8252600482fd5b50346103a65760203660031901126103a65761075f612ad5565b610767612f1f565b6001600160a01b038116156107825761077f906138e6565b80f35b60405162461bcd60e51b815260206004820152602660248201527f4f776e61626c653a206e6577206f776e657220697320746865207a65726f206160448201526564647265737360d01b6064820152608490fd5b50346103a657806003193601126103a65760206107f1613a93565b604051908152f35b50346103a657806003193601126103a65761012d546001600160a01b031633036103975760ff61013c541615610ab75760ff61013a541661013b5460018214808091610a3d575b610a2e5761013a84905561013b84905561013c8490556101385460081c6001600160a01b0316901561091057627fffff1982128015610904575b6108f5578084913b156108f1578180916024604051809481936312cf138160e01b83528860020b60048401525af180156108e6576108d1575b505060205f51602061444c5f395f51905f52915b604051908152a280f35b816108db91612b66565b61057557825f6108b3565b6040513d84823e3d90fd5b5080fd5b6306b7c75960e31b8452600484fd5b50627fffff821361087a565b600283036109a057667fffffffffffff1982128015610990575b6108f5578084913b156108f157818091602460405180948193631b16146360e11b83528860060b60048401525af180156108e65761097b575b505060205f51602061444c5f395f51905f52916108c7565b8161098591612b66565b61057557825f610963565b50667fffffffffffff821361092a565b600383146109c0575b5060205f51602061444c5f395f51905f52916108c7565b8382128015610a21575b6108f5578084913b156108f157818091602460405180948193631d27050f60e01b835263ffffffff891660048401525af180156108e657610a0c575b506109a9565b81610a1691612b66565b61057557825f610a06565b5063ffffffff82116109ca565b6313643c3b60e11b8452600484fd5b5061013854604051639bdde46b60e01b8152906020908290600490829060081c6001600160a01b03165afa908115610aac578591610a7d575b5015610840565b610a9f915060203d602011610aa5575b610a978183612b66565b810190612eda565b5f610a76565b503d610a8d565b6040513d87823e3d90fd5b63036764e560e21b8152600490fd5b50346103a65760c03660031901126103a657610ae0612ac5565b906024359182159081159081850361057d57604435908160060b95868303610cbf5760643593841590811590818703610cbb576084359963ffffffff8b16808c03610cb75760a435998a15801596878d03610cb357610b3d612f1f565b82610cab575b5081610ca3575b50610c945760ff61013c54168015610c86575b610c7757918460a0610c5d999795937f2888a8a876059a384156073d5e0985910285c8247d5f3612caca083a21658a369d9e99979560405191610b9f83612b4b565b8960020b835285602084015260408301528560608301526080820152015261013d549260ff60801b9060801b169260ff60801b199163ff00000063ffffffff60601b199260ff60581b199062ffffff8a169060018060581b03191617169160181b16171666ffffffffffffff60201b8760201b1617169060ff60581b9060581b161763ffffffff60601b8660601b16171761013d555f14610c70576001945b15610c69576002955b15610c635760045b604051968796171785612ef2565b0390a180f35b87610c4f565b8795610c47565b8794610c3e565b637ed27eb760e01b8b5260048bfd5b50610c8f613a5c565b610b5d565b6306b7c75960e31b8b5260048bfd5b90505f610b4a565b91505f610b43565b8d80fd5b8a80fd5b8880fd5b8580fd5b50346103a657806003193601126103a657602061012e54604051908152f35b50346103a65760403660031901126103a65760043560ff81168091036108f157602435610d0d612f1f565b8115610dd15760ff61013c54168015610dc3575b610db457604051606081016001600160401b03811182821017610da05791600160406020937f2a45aecb5e74807f4204a70f50428bc49db88ba8b1799808a3b23dda36ad3e30958252868152838582015201528360ff1961013a54161761013a558061013b55600160ff1961013c54161761013c55604051908152a280f35b634e487b7160e01b85526041600452602485fd5b637ed27eb760e01b8352600483fd5b50610dcc613a5c565b610d21565b6306b7c75960e31b8352600483fd5b50346103a657806003193601126103a657610df9612f77565b60016101375460a01c161561038857610136546065546001600160a01b0316906001600160801b031633829003610e9557610136839055610137839055610e6a90827f00000000000000000000000000000000000000000000000000000000000000006001600160a01b0316613537565b7f315b8a0ece450231870bda1ecceeabdc74b6d0e53d6eb663bb910e3a6f42d6f18280a26001805580f35b631cc6a69960e11b8352600483fd5b50346103a657806003193601126103a657610139546040516001600160a01b039091168152602090f35b50346103a657806003193601126103a65760c061013d5460ff604051918060020b8352818160181c16151560208401528060201c60060b6040840152818160581c161515606084015263ffffffff8160601c16608084015260801c16151560a0820152f35b50346103a65760603660031901126103a657610f4d612ad5565b610f55612aeb565b6044356001600160a01b03811691908281036105795784549160ff8360081c16159283809461117b575b8015611164575b156111085760ff1981166001178755836110f7575b506001600160a01b038516156110e8576001600160a01b03169384156110e857610fe690610fd860ff885460081c16610fd381614228565b614228565b610fe1336138e6565b6138e6565b84549261101b60ff8560081c16610ffc81614228565b61100581614228565b6001805561101281614228565b610fd381614228565b60fb805460ff1916905561012d80546001600160a01b031916861790555f1961012e556298968061012f5560405194865f51602061438c5f395f51905f528180a3156110d9576101388054610100600160a81b03191660089290921b610100600160a81b031691909117905561013980546001600160a01b031916331790556110a2578280f35b61ff0019168255600181527f7f26b83ff96e1f2b6a682f133852f6798a09c465da95921460cefb384740249890602090a15f808280f35b632711b74d60e11b8552600485fd5b63e6c4247b60e01b8652600486fd5b61ffff19166101011786555f610f9b565b60405162461bcd60e51b815260206004820152602e60248201527f496e697469616c697a61626c653a20636f6e747261637420697320616c72656160448201526d191e481a5b9a5d1a585b1a5e995960921b6064820152608490fd5b50303b158015610f865750600160ff821614610f86565b50600160ff821610610f7f565b50346103a65760203660031901126103a6576111a2612f1f565b60043561012e5580f35b50346103a657806003193601126103a657602060ff60fb54166040519015158152f35b50346103a657806003193601126103a6578060c09160a06040516111f281612b4b565b828152826020820152826040820152826060820152826080820152015260405161121b81612b4b565b818152602081019082825260408101838152606082019084825260a0608084019386855201938585526040519586525160208601525160408501525160608401525160808301525160a0820152f35b50346103a657806003193601126103a6575f5160206143ec5f395f51905f52546040516001600160a01b039091168152602090f35b50346103a657806003193601126103a6576101385460405160089190911c6001600160a01b03168152602090f35b50346103a657806003193601126103a6573033036112ed5761077f61391b565b63029a949d60e31b8152600490fd5b50346103a65760203660031901126103a657611316612ad5565b61131e612f1f565b6001600160a01b0316801561135f5761012d80546001600160a01b0319811683179091556001600160a01b03165f51602061438c5f395f51905f528380a380f35b63e6c4247b60e01b8252600482fd5b50346103a65760203660031901126103a65760043561138b612f1f565b80156113985761012f5580f35b63162908e360e11b8252600482fd5b50346103a657806003193601126103a6576065546040516001600160a01b039091168152602090f35b50346103a657806003193601126103a65761077f612ba4565b50346103a657806003193601126103a6576040517f00000000000000000000000000000000000000000000000000000000000000006001600160a01b03168152602090f35b50346103a657806003193601126103a65761012d546001600160a01b031633036103975760405161145e81612b4b565b61013d548060020b82526020820160ff8260181c1615928315825260408101938360201c60060b8552606082019260ff8560581c16159182158552608084019263ffffffff8760601c16845260ff60a086019760801c1615908115885282611722575b508161171a575b5061170b5780511515806116a1575b6116925761013d879055610138548551889160081c6001600160a01b03169061163d575b85516115e0575b825161158b575b5050517ff000de3b5096c53aedb085cd4564d31ac9b0dc0b37be5374f85b51f82868170e95610c5d93929115611584576001945b511561157d576002955b51156115715763ffffffff6004935b5160020b915160060b92511692604051968796171785612ef2565b63ffffffff8893611556565b8795611547565b879461153d565b845160020b813b156105755782916024839260405194859384926312cf138160e01b845260048401525af180156108e6571561150957816115cf9195949395612b66565b6115dc579091865f611509565b8680fd5b875160060b813b156105755760405190631b16146360e11b82526004820152828160248183865af190811561163257839161161d575b5050611502565b8161162791612b66565b6108f157815f611616565b6040513d85823e3d90fd5b63ffffffff845116813b156105755760405190631d27050f60e01b82526004820152828160248183865af190811561163257839161167d575b50506114fb565b8161168791612b66565b6108f157815f611676565b6313643c3b60e11b8752600487fd5b5061013854604051639bdde46b60e01b8152906020908290600490829060081c6001600160a01b03165afa9081156117005788916116e1575b50156114d7565b6116fa915060203d602011610aa557610a978183612b66565b5f6116da565b6040513d8a823e3d90fd5b63036764e560e21b8752600487fd5b90505f6114c8565b91505f6114c1565b50346103a65760403660031901126103a6576108f1612aeb565b50346103a657806003193601126103a657604061175f6135bb565b82519182526020820152f35b50346103a657806003193601126103a657606060ff61013a541661013b5460ff61013c541690604051928352602083015215156040820152f35b50346103a65760203660031901126103a657806117c0612ad5565b6117c8612f1f565b6101385460081c6001600160a01b031690813b15611829576040516378238c3760e01b81526001600160a01b0390911660048201529082908290602490829084905af180156108e6576118185750f35b8161182291612b66565b6103a65780f35b5050fd5b50346103a657806003193601126103a657611846612f1f565b606580546001600160a01b0319811690915581906001600160a01b03165f51602061440c5f395f51905f528280a380f35b50346103a657806003193601126103a6576040611892612e30565b82516001600160a01b03928316815291166020820152f35b50346103a657806003193601126103a6573033036112ed5761077f6133a4565b50346103a657806003193601126103a6576118e3612f1f565b600160ff19610138541617610138556118fa613577565b600160ff1960fb54161760fb555f51602061446c5f395f51905f526020604051338152a1303b156103a65760405163297664eb60e21b81528190818160048183305af1611a70575b5050303b156103a6576040516317de169760e21b81528190818160048183305af1611a5b575b50506040516370a0823160e01b81523060048201527f00000000000000000000000000000000000000000000000000000000000000006001600160a01b031690602081602481855afa908115611632578391611a18575b50805f5160206143cc5f395f51905f5292816040936119f9575b50508361013055836101365583610137558151908152426020820152a180f35b606554611a11926001600160a01b0390911690613537565b5f816119d9565b90506020813d602011611a53575b81611a3360209383612b66565b81010312611a4f57515f5160206143cc5f395f51905f526119bf565b5f80fd5b3d9150611a26565b81611a6591612b66565b6103a657805f611968565b81611a7a91612b66565b6103a657805f611942565b50346103a65760403660031901126103a657611a9f612ad5565b611aa7612aeb565b611aaf612f1f565b60ff610138541615610e95576001600160a01b038116918215611b7f576040516370a0823160e01b81523060048201526001600160a01b039190911691602082602481865afa918215610aac578592611b4b575b5081611b0d578480f35b81611b3c7f77023e19c7343ad491fd706c36335ca0e738340a91f29b1fd81e2673d44896c49360209386613537565b604051908152a35f8080808480f35b9091506020813d602011611b77575b81611b6760209383612b66565b81010312611a4f5751905f611b03565b3d9150611b5a565b63e6c4247b60e01b8452600484fd5b50346103a657806003193601126103a6577f00000000000000000000000000000000000000000000000000000000000000006001600160a01b03163003611be65760206040515f5160206143ec5f395f51905f528152f35b60405162461bcd60e51b815260206004820152603860248201527f555550535570677261646561626c653a206d757374206e6f742062652063616c6044820152771b1959081d1a1c9bdd59da0819195b1959d85d1958d85b1b60421b6064820152608490fd5b5060403660031901126103a657611c61612ad5565b602435906001600160401b03821161057557366023830112156105755782826004013592611c8e84612b89565b93611c9c6040519586612b66565b808552366024828401011161057557806024602093018387013784010152611d117f00000000000000000000000000000000000000000000000000000000000000006001600160a01b0316611cf330821415612d94565b5f5160206143ec5f395f51905f52546001600160a01b031614612de2565b611d1a816137a4565b5f51602061436c5f395f51905f525460ff1615611d3b5761077f9150614198565b6040516352d1902d60e01b81526020816004816001600160a01b0386165afa849181611e13575b50611db05760405162461bcd60e51b815260206004820152602e60248201525f5160206144ec5f395f51905f5260448201526d6f6e206973206e6f74205555505360901b6064820152608490fd5b5f5160206143ec5f395f51905f5203611dcf5761077f91600191613854565b60405162461bcd60e51b815260206004820152602960248201525f5160206144ac5f395f51905f526044820152681a58589b195555525160ba1b6064820152608490fd5b9091506020813d602011611e3f575b81611e2f60209383612b66565b810103126105795751905f611d62565b3d9150611e22565b50346103a657806003193601126103a657611e60612f77565b60026101375460a01c1615610388576065546001600160a01b03163381900361071857816101365581610137557f8b775bb80a5d4addc5ea2601b2378ae89a1bb9010227157ac02aa71498e799c48280a26001805580f35b50346103a657806003193601126103a65761012d546001600160a01b0316330361039757611ee4612f77565b7f1375724ea5b49914df0f50564c7584995f701511abaf28b91e714cea23cee49960a0604051838152836020820152836040820152836060820152426080820152a16001805580f35b50346103a657806003193601126103a65761012d546001600160a01b0316330361039757611f59612f77565b61013854819060081c6001600160a01b0316803b1561202c57818091600460405180948193630beebd3960e11b83525af180156108e65761202f575b506101385460081c6001600160a01b0316803b1561202c578190600460405180948193630d0e30db60e41b83525af180156108e657612017575b6040827f68d793b46909dd71f01302cc73514e67391ab192095cf26aec99f08ccca271e2606083518381528360208201524285820152a1600180558151908082526020820152f35b612022828092612b66565b6103a6575f611fcf565b50fd5b8161203991612b66565b6103a657805f611f95565b50346103a657806003193601126103a657602061012f54604051908152f35b50346103a657806003193601126103a657602061013054604051908152f35b50346103a657806003193601126103a65761209b612f1f565b6101395460405163b133f4d360e01b815290602090829060049082906001600160a01b03165afa9081156108e65782916121c2575b506001600160a01b03811690811515806121a1575b6120ed578280f35b6120f6816137a4565b60405190612105602083612b66565b83825260208201925f36853761211a82614198565b5f51602061442c5f395f51905f528580a28382511580159061219a575b612142575b50508280f35b806121909460405194612156606087612b66565b602786525f5160206144cc5f395f51905f526020870152660819985a5b195960ca1b60408701525190845af461218a614288565b916142b7565b505f80808361213c565b5080612137565b505f5160206143ec5f395f51905f52546001600160a01b03168214156120e5565b6121db915060203d602011610508576104f98183612b66565b5f6120d0565b50346103a65760203660031901126103a6576121fb612ad5565b6122347f00000000000000000000000000000000000000000000000000000000000000006001600160a01b0316611cf330821415612d94565b61223d816137a4565b60209060405161224d8382612b66565b838152601f19830136848301375f51602061436c5f395f51905f525460ff161561227c575061077f9150614198565b6040516352d1902d60e01b815290919083816004816001600160a01b0386165afa85918161236c575b506122f35760405162461bcd60e51b815260048101859052602e60248201525f5160206144ec5f395f51905f5260448201526d6f6e206973206e6f74205555505360901b6064820152608490fd5b919290917fc9f76b5ec45e5cdef99837d7b6d2467235c1df8933c8ca56df5c35afa2c7d44401612329575061077f918391613854565b6084906040519062461bcd60e51b82526004820152602960248201525f5160206144ac5f395f51905f526044820152681a58589b195555525160ba1b6064820152fd5b9091508481813d8311612394575b6123848183612b66565b81010312610cbf5751905f6122a5565b503d61237a565b50346103a657806003193601126103a6578060a09160806040516123be81612b30565b82815282602082015282604082015282606082015201526040516123e181612b30565b8181526020810190828252604081018381526080606083019285845201928484526040519485525160020b60208501525160020b6040840152516060830152516080820152f35b50346103a657806003193601126103a65760206107f1612c23565b50346103a65760203660031901126103a657600435612460613577565b612468612f77565b60655481906001600160a01b03163303610e955760ff6101375460a01c16610e955760ff6101385416610e955761249d612c23565b90811561255257811061254a575b50600260606040516124bc81612b01565b8481526001600160801b0384166020808301919091523360408084018290529390920193909352608084901b6001600160801b03191661013655610137805460ff60a01b1983166001600160a81b031990911617600160a11b17905590519283529182917f1d78e54183f79519732f07b15f3311310b120b8286121dea10e65ba6bb03a22391a36001805580f35b90505f6124ab565b631cc6a69960e11b8452600484fd5b5034611a4f576020366003190112611a4f5761257b612ac5565b61012d546001600160a01b031633036126185760020b5f811380159061260d575b6125fe576101385460081c6001600160a01b031690813b15611a4f575f916024839260405194859384926312cf138160e01b845260048401525af180156125f3576125e5575080f35b6125f191505f90612b66565b005b6040513d5f823e3d90fd5b6306b7c75960e31b5f5260045ffd5b506101f4811361259c565b635990781360e01b5f5260045ffd5b34611a4f575f366003190112611a4f576101c0610136546101375460a01c60ff61013a541661013b549060ff61013c5416928315612700575b83156126ef575b83156126de575b6002906040519560018060801b0381168752600182161515602088015260801c604087015216151560608501525f60808501525f60a08501525f60c08501525f60e08501525f6101008501525f6101208501525f61014085015261016084015261018083015215156101a0820152f35b61013d5460801c60ff16935061266e565b61013d5460581c60ff169350612667565b61013d5460181c60ff169350612660565b34611a4f576020366003190112611a4f5761012d546001600160a01b031633036126185761273d612f77565b6101375460028160a01c16156129795760018060a01b031660018060a01b03606554166101365460801c6101305480612905575b506040516370a0823160e01b81523060048201527f00000000000000000000000000000000000000000000000000000000000000006001600160a01b031690602081602481855afa9081156125f3575f916128d3575b50808311156128cc576127da9083612bd9565b806128bd575b506127e96133a4565b6040516370a0823160e01b815230600482015291602083602481855afa9283156125f3575f93612889575b50600435831061287a578260409281877f5809abf1a3b5a41e977dcbb37cad51dcd19fa047fea1828fc2edf10961d3b30896612869575b5050505f610136555f6101375582519182526020820152a360018055005b61287292613537565b86818761284b565b631e9acf1760e31b5f5260045ffd5b9092506020813d6020116128b5575b816128a560209383612b66565b81010312611a4f57519185612814565b3d9150612898565b6128c690612fe3565b506127e0565b505f6127da565b90506020813d6020116128fd575b816128ee60209383612b66565b81010312611a4f5751856127c7565b3d91506128e1565b61290d612c23565b90811561296e57612922826106068386612bb9565b5f19810190811161295a576129489261293a91612be6565b905b80821161295257612bd9565b6101305583612771565b905080612bd9565b634e487b7160e01b5f52601160045260245ffd5b61294891508061293c565b631cc6a69960e11b5f5260045ffd5b34611a4f576020366003190112611a4f5760043580151590818103611a4f576129af612f1f565b156129fa5760205f51602061448c5f395f51905f52916129cd613577565b600160ff1960fb54161760fb555f51602061446c5f395f51905f5282604051338152a15b604051908152a1005b60fb5460ff811615612a4d575f51602061448c5f395f51905f529160209160ff191660fb557f5db9ee0a495bf2e6ff9c91a7834c1ba4fdd244a5e8aa4e537bd38aeae4b073aa82604051338152a16129f1565b60405162461bcd60e51b815260206004820152601460248201527314185d5cd8589b194e881b9bdd081c185d5cd95960621b6044820152606490fd5b34611a4f575f366003190112611a4f57602060ff61013854166040519015158152f35b34611a4f576020366003190112611a4f576125f1612ba4565b600435908160020b8203611a4f57565b600435906001600160a01b0382168203611a4f57565b602435906001600160a01b0382168203611a4f57565b608081019081106001600160401b03821117612b1c57604052565b634e487b7160e01b5f52604160045260245ffd5b60a081019081106001600160401b03821117612b1c57604052565b60c081019081106001600160401b03821117612b1c57604052565b601f909101601f19168101906001600160401b03821190821017612b1c57604052565b6001600160401b038111612b1c57601f01601f191660200190565b61012d546001600160a01b0316330361261857565b8181029291811591840414171561295a57565b9190820180921161295a57565b9190820391821161295a57565b8115612bf0570490565b634e487b7160e01b5f52601260045260245ffd5b90816020910312611a4f57516001600160a01b0381168103611a4f5790565b612c2b6135bb565b90801580612d8c575b612d86576101385460405163501ad8ff60e11b8152929060081c6001600160a01b0316602084600481845afa9384156125f3575f94612d52575b508315612d4a5760206004916040519283809263017b859f60e61b82525afa9081156125f3575f91612d2b575b506001600160a01b039081167f000000000000000000000000000000000000000000000000000000000000000090911603612d07576a0c097ce7bc90715b34b9f160241b818102918015908304909114171561295a57612d0492612cfe91612be6565b90612bcc565b90565b90612d24612d04936a0c097ce7bc90715b34b9f160241b92612bb9565b0490612bcc565b612d44915060203d602011610508576104f98183612b66565b5f612c9b565b505050505f90565b9093506020813d602011612d7e575b81612d6e60209383612b66565b81010312611a4f5751925f612c6e565b3d9150612d61565b50505f90565b508115612c34565b15612d9b57565b60405162461bcd60e51b815260206004820152602c60248201525f5160206143ac5f395f51905f5260448201526b19195b1959d85d1958d85b1b60a21b6064820152608490fd5b15612de957565b60405162461bcd60e51b815260206004820152602c60248201525f5160206143ac5f395f51905f5260448201526b6163746976652070726f787960a01b6064820152608490fd5b6101385460081c6001600160a01b031680612e4c57505f905f90565b60405163017b859f60e61b81529190602083600481845afa9081156125f3576004935f92612eb8575b50602090604051948580926343bab15b60e11b82525afa9283156125f3575f93612e9e57509190565b612d0491935060203d602011610508576104f98183612b66565b6020919250612ed390823d8411610508576104f98183612b66565b9190612e75565b90816020910312611a4f57518015158103611a4f5790565b929363ffffffff91959460609360ff608087019816865260020b602086015260060b604085015216910152565b6065546001600160a01b03163303612f3357565b606460405162461bcd60e51b815260206004820152602060248201527f4f776e61626c653a2063616c6c6572206973206e6f7420746865206f776e65726044820152fd5b600260015414612f88576002600155565b60405162461bcd60e51b815260206004820152601f60248201527f5265656e7472616e637947756172643a207265656e7472616e742063616c6c006044820152606490fd5b9190826040910312611a4f576020825192015190565b6101385490915f9160081c6001600160a01b0316803b15611a4f575f8091600460405180948193630beebd3960e11b83525af180156125f35761338f575b506101385460408051630f77314d60e31b815260089290921c6001600160a01b0316949082600481885afa91821561056a578490859361335b575b50801580613353575b61334957613071613e76565b91821561333e578291818361309e9561036a9411613336575b61036a826130989394612bb9565b94612bb9565b9260405163017b859f60e61b8152602081600481895afa9081156108e6578291613317575b506040516343bab15b60e11b8152906020826004818a5afa9182156116325783926132f6575b506040516370a0823160e01b81523060048201526001600160a01b03919091169690916020836024818b5afa92831561056a5784936132c2575b506040516370a0823160e01b81523060048201526001600160a01b03919091169690946020866024818b5afa958615610aac57859661328e575b50823b15610579579060448592836040519586948593630441a3e760e41b8552600485015260248401525af1801561163257613279575b5060206024949596604051958680926370a0823160e01b82523060048301525afa9384156108e6578294613243575b506131d2602091602495612bd9565b95604051948580926370a0823160e01b82523060048301525afa9081156132375790613203575b612d049250612bd9565b506020823d60201161322f575b8161321d60209383612b66565b81010312611a4f57612d0491516131f9565b3d9150613210565b604051903d90823e3d90fd5b93506020843d602011613271575b8161325e60209383612b66565b81010312611a4f579251926131d26131c3565b3d9150613251565b613284838092612b66565b6108f1575f613194565b9095506020813d6020116132ba575b816132aa60209383612b66565b81010312611a4f5751945f61315d565b3d915061329d565b9092506020813d6020116132ee575b816132de60209383612b66565b81010312611a4f5751915f613123565b3d91506132d1565b61331091925060203d602011610508576104f98183612b66565b905f6130e9565b613330915060203d602011610508576104f98183612b66565b5f6130c3565b90508061308a565b509394508493505050565b5092935083925050565b508215613065565b905061338091925060403d604011613388575b6133788183612b66565b810190612fcd565b91905f61305c565b503d61336e565b61339c9192505f90612b66565b5f905f613021565b6101385460405163017b859f60e61b815260089190911c6001600160a01b031690602081600481855afa9081156125f3575f91613518575b506001600160a01b038181167f00000000000000000000000000000000000000000000000000000000000000009091160361351357506040516343bab15b60e11b8152602081600481855afa9081156125f3575f916134f4575b505b6040516370a0823160e01b8152306004820152906020826024816001600160a01b0385165afa9182156125f3575f926134bd575b506020600493604051948580926316f0115b60e01b82525afa80156125f35761349c935f9161349e575b50613f98565b565b6134b7915060203d602011610508576104f98183612b66565b5f613496565b9291506020833d6020116134ec575b816134d960209383612b66565b81010312611a4f5791519091602061346c565b3d91506134cc565b61350d915060203d602011610508576104f98183612b66565b5f613436565b613438565b613531915060203d602011610508576104f98183612b66565b5f6133dc565b60405163a9059cbb60e01b60208201526001600160a01b03909216602483015260448083019390935291815261349c91613572606483612b66565b6140b6565b60ff60fb541661358357565b60405162461bcd60e51b815260206004820152601060248201526f14185d5cd8589b194e881c185d5cd95960821b6044820152606490fd5b6101385460408051630f77314d60e31b815260089290921c6001600160a01b0316929082600481865afa80156125f3575f925f9161377f575b5060405163017b859f60e61b815292602084600481885afa9384156125f3575f9461375c575b50602060049495604051958680926343bab15b60e11b82525afa9384156125f3575f94613737575b506040516370a0823160e01b81523060048201529394929392602090849060249082906001600160a01b03165afa9283156125f3575f93613701575b5061368d602493602092612bcc565b6040516370a0823160e01b815230600482015290959093849182906001600160a01b03165afa9081156125f3575f916136cb575b612d049250612bcc565b90506020823d6020116136f9575b816136e660209383612b66565b81010312611a4f57612d049151906136c1565b3d91506136d9565b92506020833d60201161372f575b8161371c60209383612b66565b81010312611a4f5791519161368d61367e565b3d915061370f565b6024939450613754602091823d8411610508576104f98183612b66565b949350613642565b60049450613778602091823d8411610508576104f98183612b66565b945061361a565b905061379b91925060403d604011613388576133788183612b66565b9190915f6135f4565b6101395460405163b133f4d360e01b81529190602090839060049082906001600160a01b03165afa9182156125f3575f92613833575b506001600160a01b03908116911681148015919061382a575b5061381b576065546001600160a01b0316330361380c57565b63ea8e4eb560e01b5f5260045ffd5b632711b74d60e11b5f5260045ffd5b9050155f6137f3565b61384d91925060203d602011610508576104f98183612b66565b905f6137da565b9161385e83614198565b6001600160a01b0383165f51602061442c5f395f51905f525f80a2815115908115916138de575b5061388e575050565b6138db915f80604051936138a3606086612b66565b602785525f5160206144cc5f395f51905f526020860152660819985a5b195960ca1b6040860152602081519101845af461218a614288565b50565b90505f613885565b606580546001600160a01b039283166001600160a01b0319821681179092559091165f51602061440c5f395f51905f525f80a3565b6101385460408051630f77314d60e31b81525f92909160089190911c6001600160a01b03169082600481845afa9081156125f3575f925f92613a38575b50821580613a30575b613a2a57803b15611a4f575f8091600460405180948193630beebd3960e11b83525af180156125f357613a15575b506101385460081c6001600160a01b031691823b1561057d57839160448392836040519687948593630441a3e760e41b8552600485015260248401525af19182613a00575b50506138db57807fc934a2e092e37cdb20f410ba7f032dc2a47a3bb4f4137bff67faf9274a71a1f291a1565b81613a0a91612b66565b6108f157815f6139d4565b613a229193505f90612b66565b5f915f61398f565b50505050565b508115613961565b909250613a54915060403d604011613388576133788183612b66565b90915f613958565b61013d5460ff8160181c16908115613a84575b8115613a79575090565b60ff915060801c1690565b905060ff8160581c1690613a6f565b6101385460408051630f77314d60e31b815260089290921c6001600160a01b0316919081600481855afa9182156125f3575f915f93613b6c575b50811580613b64575b613b5d5760206004916040519283809263017b859f60e61b82525afa9081156125f3575f91613b3e575b506001600160a01b039081167f000000000000000000000000000000000000000000000000000000000000000090911603613b39575090565b905090565b613b57915060203d602011610508576104f98183612b66565b5f613b00565b5050505f90565b508215613ad6565b909250613b88915060403d604011613388576133788183612b66565b915f613acd565b6101385460405163017b859f60e61b8152919260089190911c6001600160a01b0316915f90602081600481875afa9081156125f3575f91613e57575b506040516343bab15b60e11b815294602086600481885afa9182156125f3576024965f93613e36575b506001600160a01b03818116927f0000000000000000000000000000000000000000000000000000000000000000909116838114928315613e2e57506020855b6040516370a0823160e01b81523060048201529a8b9182906001600160a01b03165afa9889156125f3575f99613df3575b5090602060249392604051948580926370a0823160e01b82523060048301525afa9283156125f3575f93613dbf575b50808311613db7575b5015613db15795945b861580613da9575b613d9d57803b15611a4f575f8091600460405180948193630beebd3960e11b83525af180156125f357613d88575b508580613d64575b50508380613d3e575b50506101385460081c6001600160a01b0316803b156108f157818091600460405180948193630d0e30db60e41b83525af180156108e657613d2c575050565b613d37828092612b66565b6103a65750565b61013854613d5d926001600160a01b0360089290921c82169116613537565b5f83613ced565b61013854613d819260089190911c6001600160a01b031690613537565b5f85613ce4565b613d959193505f90612b66565b5f915f613cdc565b505f9550859450505050565b508515613cae565b94613ca6565b91505f613c9d565b9092506020813d602011613deb575b81613ddb60209383612b66565b81010312611a4f5751915f613c94565b3d9150613dce565b92919098506020833d602011613e26575b81613e1160209383612b66565b81010312611a4f579151979091906020613c65565b3d9150613e04565b602090613c34565b613e5091935060203d602011610508576104f98183612b66565b915f613bf4565b613e70915060203d602011610508576104f98183612b66565b5f613bcb565b6101385460408051630f77314d60e31b815260089290921c6001600160a01b0316919081600481855afa80156125f3575f915f91613f77575b50811580613f6f575b613b5d5760405163501ad8ff60e11b815292602084600481845afa9384156125f3575f94612d5257508315612d4a5760206004916040519283809263017b859f60e61b82525afa9081156125f3575f91612d2b57506001600160a01b039081167f000000000000000000000000000000000000000000000000000000000000000090911603612d07576a0c097ce7bc90715b34b9f160241b818102918015908304909114171561295a57612d0492612cfe91612be6565b508015613eb8565b9050613f92915060403d604011613388576133788183612b66565b5f613eaf565b82156140b1576001600160a01b03169182156140a257604051630dfe168160e01b8152602081600481875afa9283156125f35760409360c4925f91614083575b506001600160a01b039182169116148015614067575f6401000276a4955b85519687958694630251596160e31b86523060048701526024860152604485015260018060a01b0316606484015260a060848401528160a48401525af180156125f3576140405750565b604090813d8311614060575b6140568183612b66565b81010312611a4f57565b503d61404c565b5f73fffd8963efd1fc6a506488495d951d5263988d2595613ff6565b61409c915060203d602011610508576104f98183612b66565b5f613fd8565b638b5f53cb60e01b5f5260045ffd5b505050565b906141109160018060a01b03165f80604051936140d4604086612b66565b602085527f5361666545524332303a206c6f772d6c6576656c2063616c6c206661696c6564602086015260208151910182855af161218a614288565b805190811591821561417e575b50501561412657565b60405162461bcd60e51b815260206004820152602a60248201527f5361666545524332303a204552433230206f7065726174696f6e20646964206e6044820152691bdd081cdd58d8d9595960b21b6064820152608490fd5b6141919250602080918301019101612eda565b5f8061411d565b803b156141cd575f5160206143ec5f395f51905f5280546001600160a01b0319166001600160a01b0392909216919091179055565b60405162461bcd60e51b815260206004820152602d60248201527f455243313936373a206e657720696d706c656d656e746174696f6e206973206e60448201526c1bdd08184818dbdb9d1c9858dd609a1b6064820152608490fd5b1561422f57565b60405162461bcd60e51b815260206004820152602b60248201527f496e697469616c697a61626c653a20636f6e7472616374206973206e6f74206960448201526a6e697469616c697a696e6760a81b6064820152608490fd5b3d156142b2573d9061429982612b89565b916142a76040519384612b66565b82523d5f602084013e565b606090565b9192901561431957508151156142cb575090565b3b156142d45790565b60405162461bcd60e51b815260206004820152601d60248201527f416464726573733a2063616c6c20746f206e6f6e2d636f6e74726163740000006044820152606490fd5b82519091501561432c5750805190602001fd5b604460209160405192839162461bcd60e51b83528160048401528051918291826024860152018484015e5f828201840152601f01601f19168101030190fdfe4910fdfa16fed3260ed0e7147f7cc6da11a60208b5b9406d12a635614ffd91431c87e2bbc4e5fa5d7f6f8c44d66cb241dff224b8602eb5435ca2076d2a5c6fc246756e6374696f6e206d7573742062652063616c6c6564207468726f75676820e69aa2e435ec063c41ddc8d262f8672906549b0cff0e2fcdec03de8a590a6329360894a13ba1a3210667c828492db98dca3e2076cc3735a920a3ca505d382bbc8be0079c531659141344cd1fd0a4f28419497f9722a3daafe3b4186f6b6457e0bc7cd75a20ee27fd9adebab32041f755214dbc6bffa90cc0225b39da2e5c2d3b7f957baf715b9d399a74e664bafdf932e3a6c16ab77a458385a6ef38ebc1a6d862e78cea01bee320cd4e420270b5ea74000d11b0c9f74754ebdbfc544b05a2588fb6c181ee25a520cf3dd6565006ef91229fcfe5a989566c2a3b8c115570cec545524331393637557067726164653a20756e737570706f727465642070726f78416464726573733a206c6f772d6c6576656c2064656c65676174652063616c6c45524331393637557067726164653a206e657720696d706c656d656e74617469a264697066735822122015ba5b0b629956d9261ea73d84286e59ed0d19857daaf9a6de7138460869ae1464736f6c634300081c0033","linkReferences":{}},"methodIdentifiers":{"USDC()":"89a30271","accrueMarginFees()":"8d5b9a0a","adjustHedge(uint256)":"02161330","balances()":"7bb98a68","calculateAMMDelta()":"f24e8f2c","controller()":"f77c4791","deposit(uint256)":"b6b55f25","depositCancel()":"cc28f73d","depositExecute()":"fcc47ed2","depositRegister(uint256)":"f6555082","doEmergencySwapAllToUSDC()":"5f785a5c","doEmergencyWithdrawFromAMM()":"a5d993ac","emergencyExit()":"5641ec03","emergencyExitTriggered()":"122b05ed","executeBatchConfigChange()":"87b6ad65","executeConfigChange()":"ec8e6d2a","factory()":"c45a0155","getCurrentAMM()":"35ef5724","getCurrentHedge()":"ab465a2a","getImplementation()":"aaf10f42","getPendingStates()":"21ec23b6","getVaultEquity()":"357e6379","harvest()":"4641257d","initialize(address,address,address)":"c0c53b8b","isPaused()":"b187bd26","maxTotalAssets()":"d820f492","minDeposit()":"41b3d185","owner()":"8da5cb5b","paused()":"5c975abb","pendingBatch()":"c25fe090","pendingConfig()":"73c6a288","proxiableUUID()":"52d1902d","queueBatchConfigChange(int24,bool,int56,bool,uint32,bool)":"e31cdab3","queueConfigChange(uint8,int256)":"d52b1a88","rebalanceAMM()":"481488ae","renounceOwnership()":"715018a6","rescueTokens(address,address)":"5431c94e","setController(address)":"92eefe9b","setMaxTotalAssets(uint256)":"bc2e47b7","setMinDeposit(uint256)":"8fcc9cfb","setPaused(bool)":"16c38b3c","setStrategyPositionWidth(int24)":"2265a1b4","setStrategyRewardPool(address)":"71bc9aae","strategy()":"a8c62e76","totalShares()":"3a98ef39","transferOwnership(address)":"f2fde38b","uniswapV3SwapCallback(int256,int256,bytes)":"fa461e33","upgradeTo(address)":"3659cfe6","upgradeToAndCall(address,bytes)":"4f1ef286","upgradeToLatest()":"367ad9e2","wants()":"65844934","withdraw(uint256)":"2e1a7d4d","withdrawCancel()":"4cf1f49b","withdrawExecute(uint256)":"1f48ddd8","withdrawRegister(uint256,address)":"80607952"},"id":106}