{"abi":[{"type":"constructor","inputs":[{"name":"_usdc","type":"address","internalType":"address"}],"stateMutability":"nonpayable"},{"type":"function","name":"USDC","inputs":[],"outputs":[{"name":"","type":"address","internalType":"address"}],"stateMutability":"view"},{"type":"function","name":"accrueMarginFees","inputs":[],"outputs":[],"stateMutability":"nonpayable"},{"type":"function","name":"adjustHedge","inputs":[{"name":"","type":"uint256","internalType":"uint256"}],"outputs":[],"stateMutability":"nonpayable"},{"type":"function","name":"balances","inputs":[],"outputs":[{"name":"amount0","type":"uint256","internalType":"uint256"},{"name":"amount1","type":"uint256","internalType":"uint256"}],"stateMutability":"view"},{"type":"function","name":"calculateAMMDelta","inputs":[],"outputs":[{"name":"deltaETH","type":"uint256","internalType":"uint256"}],"stateMutability":"view"},{"type":"function","name":"controller","inputs":[],"outputs":[{"name":"","type":"address","internalType":"address"}],"stateMutability":"view"},{"type":"function","name":"deposit","inputs":[{"name":"assets","type":"uint256","internalType":"uint256"}],"outputs":[],"stateMutability":"nonpayable"},{"type":"function","name":"depositCancel","inputs":[],"outputs":[],"stateMutability":"nonpayable"},{"type":"function","name":"depositExecute","inputs":[],"outputs":[],"stateMutability":"nonpayable"},{"type":"function","name":"depositRegister","inputs":[{"name":"amount","type":"uint256","internalType":"uint256"}],"outputs":[],"stateMutability":"nonpayable"},{"type":"function","name":"doEmergencySwapAllToUSDC","inputs":[],"outputs":[],"stateMutability":"nonpayable"},{"type":"function","name":"doEmergencyWithdrawFromAMM","inputs":[],"outputs":[],"stateMutability":"nonpayable"},{"type":"function","name":"emergencyExit","inputs":[],"outputs":[],"stateMutability":"nonpayable"},{"type":"function","name":"emergencyExitTriggered","inputs":[],"outputs":[{"name":"","type":"bool","internalType":"bool"}],"stateMutability":"view"},{"type":"function","name":"executeBatchConfigChange","inputs":[],"outputs":[],"stateMutability":"nonpayable"},{"type":"function","name":"executeConfigChange","inputs":[],"outputs":[],"stateMutability":"nonpayable"},{"type":"function","name":"factory","inputs":[],"outputs":[{"name":"","type":"address","internalType":"address"}],"stateMutability":"view"},{"type":"function","name":"getCurrentAMM","inputs":[],"outputs":[{"name":"","type":"tuple","internalType":"struct IHedgedVault.AMMPosition","components":[{"name":"liquidity","type":"uint256","internalType":"uint256"},{"name":"tickLower","type":"int24","internalType":"int24"},{"name":"tickUpper","type":"int24","internalType":"int24"},{"name":"feesEarned0","type":"uint256","internalType":"uint256"},{"name":"feesEarned1","type":"uint256","internalType":"uint256"}]}],"stateMutability":"pure"},{"type":"function","name":"getCurrentHedge","inputs":[],"outputs":[{"name":"","type":"tuple","internalType":"struct IHedgedVault.HedgePosition","components":[{"name":"isOpen","type":"bool","internalType":"bool"},{"name":"sizeUSD","type":"uint256","internalType":"uint256"},{"name":"collateralUSD","type":"uint256","internalType":"uint256"},{"name":"entryPrice","type":"uint256","internalType":"uint256"},{"name":"openedAt","type":"uint256","internalType":"uint256"},{"name":"marginFeesAccrued","type":"uint256","internalType":"uint256"}]}],"stateMutability":"view"},{"type":"function","name":"getImplementation","inputs":[],"outputs":[{"name":"","type":"address","internalType":"address"}],"stateMutability":"view"},{"type":"function","name":"getPendingStates","inputs":[],"outputs":[{"name":"depositAmount","type":"uint256","internalType":"uint256"},{"name":"depositPending","type":"bool","internalType":"bool"},{"name":"withdrawalAmount","type":"uint256","internalType":"uint256"},{"name":"withdrawalPending","type":"bool","internalType":"bool"},{"name":"swapToken0","type":"uint256","internalType":"uint256"},{"name":"swapToken1","type":"uint256","internalType":"uint256"},{"name":"swapRecipient","type":"address","internalType":"address"},{"name":"swapPending","type":"bool","internalType":"bool"},{"name":"deployAmount0","type":"uint256","internalType":"uint256"},{"name":"deployAmount1","type":"uint256","internalType":"uint256"},{"name":"deployPending","type":"bool","internalType":"bool"},{"name":"configType","type":"uint8","internalType":"uint8"},{"name":"configValue","type":"int256","internalType":"int256"},{"name":"configPending","type":"bool","internalType":"bool"}],"stateMutability":"view"},{"type":"function","name":"getVaultEquity","inputs":[],"outputs":[{"name":"","type":"uint256","internalType":"uint256"}],"stateMutability":"view"},{"type":"function","name":"harvest","inputs":[],"outputs":[{"name":"fees0","type":"uint256","internalType":"uint256"},{"name":"fees1","type":"uint256","internalType":"uint256"}],"stateMutability":"nonpayable"},{"type":"function","name":"initialize","inputs":[{"name":"_owner","type":"address","internalType":"address"},{"name":"_controller","type":"address","internalType":"address"},{"name":"_strategy","type":"address","internalType":"address"}],"outputs":[],"stateMutability":"nonpayable"},{"type":"function","name":"isPaused","inputs":[],"outputs":[{"name":"","type":"bool","internalType":"bool"}],"stateMutability":"view"},{"type":"function","name":"maxTotalAssets","inputs":[],"outputs":[{"name":"","type":"uint256","internalType":"uint256"}],"stateMutability":"view"},{"type":"function","name":"minDeposit","inputs":[],"outputs":[{"name":"","type":"uint256","internalType":"uint256"}],"stateMutability":"view"},{"type":"function","name":"owner","inputs":[],"outputs":[{"name":"","type":"address","internalType":"address"}],"stateMutability":"view"},{"type":"function","name":"paused","inputs":[],"outputs":[{"name":"","type":"bool","internalType":"bool"}],"stateMutability":"view"},{"type":"function","name":"pendingBatch","inputs":[],"outputs":[{"name":"positionWidth","type":"int24","internalType":"int24"},{"name":"hasPositionWidth","type":"bool","internalType":"bool"},{"name":"deviation","type":"int56","internalType":"int56"},{"name":"hasDeviation","type":"bool","internalType":"bool"},{"name":"twapInterval","type":"uint32","internalType":"uint32"},{"name":"hasTwapInterval","type":"bool","internalType":"bool"}],"stateMutability":"view"},{"type":"function","name":"pendingConfig","inputs":[],"outputs":[{"name":"changeType","type":"uint8","internalType":"uint8"},{"name":"value","type":"int256","internalType":"int256"},{"name":"isPending","type":"bool","internalType":"bool"}],"stateMutability":"view"},{"type":"function","name":"proxiableUUID","inputs":[],"outputs":[{"name":"","type":"bytes32","internalType":"bytes32"}],"stateMutability":"view"},{"type":"function","name":"queueBatchConfigChange","inputs":[{"name":"positionWidth","type":"int24","internalType":"int24"},{"name":"setWidth","type":"bool","internalType":"bool"},{"name":"deviation","type":"int56","internalType":"int56"},{"name":"setDev","type":"bool","internalType":"bool"},{"name":"twapInterval","type":"uint32","internalType":"uint32"},{"name":"setTwap","type":"bool","internalType":"bool"}],"outputs":[],"stateMutability":"nonpayable"},{"type":"function","name":"queueConfigChange","inputs":[{"name":"changeType","type":"uint8","internalType":"uint8"},{"name":"value","type":"int256","internalType":"int256"}],"outputs":[],"stateMutability":"nonpayable"},{"type":"function","name":"rebalanceAMM","inputs":[],"outputs":[],"stateMutability":"nonpayable"},{"type":"function","name":"renounceOwnership","inputs":[],"outputs":[],"stateMutability":"nonpayable"},{"type":"function","name":"rescueTokens","inputs":[{"name":"token","type":"address","internalType":"address"},{"name":"to","type":"address","internalType":"address"}],"outputs":[],"stateMutability":"nonpayable"},{"type":"function","name":"setController","inputs":[{"name":"_controller","type":"address","internalType":"address"}],"outputs":[],"stateMutability":"nonpayable"},{"type":"function","name":"setMaxTotalAssets","inputs":[{"name":"_maxTotalAssets","type":"uint256","internalType":"uint256"}],"outputs":[],"stateMutability":"nonpayable"},{"type":"function","name":"setMinDeposit","inputs":[{"name":"_minDeposit","type":"uint256","internalType":"uint256"}],"outputs":[],"stateMutability":"nonpayable"},{"type":"function","name":"setPaused","inputs":[{"name":"_paused","type":"bool","internalType":"bool"}],"outputs":[],"stateMutability":"nonpayable"},{"type":"function","name":"setStrategyPositionWidth","inputs":[{"name":"_width","type":"int24","internalType":"int24"}],"outputs":[],"stateMutability":"nonpayable"},{"type":"function","name":"setStrategyRewardPool","inputs":[{"name":"_rewardPool","type":"address","internalType":"address"}],"outputs":[],"stateMutability":"nonpayable"},{"type":"function","name":"strategy","inputs":[],"outputs":[{"name":"","type":"address","internalType":"contract IStrategyConcLiq"}],"stateMutability":"view"},{"type":"function","name":"totalShares","inputs":[],"outputs":[{"name":"","type":"uint256","internalType":"uint256"}],"stateMutability":"view"},{"type":"function","name":"transferOwnership","inputs":[{"name":"newOwner","type":"address","internalType":"address"}],"outputs":[],"stateMutability":"nonpayable"},{"type":"function","name":"uniswapV3SwapCallback","inputs":[{"name":"amount0Delta","type":"int256","internalType":"int256"},{"name":"amount1Delta","type":"int256","internalType":"int256"},{"name":"","type":"bytes","internalType":"bytes"}],"outputs":[],"stateMutability":"nonpayable"},{"type":"function","name":"upgradeTo","inputs":[{"name":"newImplementation","type":"address","internalType":"address"}],"outputs":[],"stateMutability":"nonpayable"},{"type":"function","name":"upgradeToAndCall","inputs":[{"name":"newImplementation","type":"address","internalType":"address"},{"name":"data","type":"bytes","internalType":"bytes"}],"outputs":[],"stateMutability":"payable"},{"type":"function","name":"upgradeToLatest","inputs":[],"outputs":[],"stateMutability":"nonpayable"},{"type":"function","name":"wants","inputs":[],"outputs":[{"name":"token0","type":"address","internalType":"address"},{"name":"token1","type":"address","internalType":"address"}],"stateMutability":"view"},{"type":"function","name":"withdraw","inputs":[{"name":"assets","type":"uint256","internalType":"uint256"}],"outputs":[],"stateMutability":"nonpayable"},{"type":"function","name":"withdrawCancel","inputs":[],"outputs":[],"stateMutability":"nonpayable"},{"type":"function","name":"withdrawExecute","inputs":[{"name":"minAmountOut","type":"uint256","internalType":"uint256"}],"outputs":[],"stateMutability":"nonpayable"},{"type":"function","name":"withdrawRegister","inputs":[{"name":"","type":"uint256","internalType":"uint256"},{"name":"","type":"address","internalType":"address"}],"outputs":[],"stateMutability":"pure"},{"type":"event","name":"AMMRebalanced","inputs":[{"name":"oldTickLower","type":"int24","indexed":false,"internalType":"int24"},{"name":"oldTickUpper","type":"int24","indexed":false,"internalType":"int24"},{"name":"newTickLower","type":"int24","indexed":false,"internalType":"int24"},{"name":"newTickUpper","type":"int24","indexed":false,"internalType":"int24"},{"name":"timestamp","type":"uint256","indexed":false,"internalType":"uint256"}],"anonymous":false},{"type":"event","name":"AdminChanged","inputs":[{"name":"previousAdmin","type":"address","indexed":false,"internalType":"address"},{"name":"newAdmin","type":"address","indexed":false,"internalType":"address"}],"anonymous":false},{"type":"event","name":"BatchConfigExec","inputs":[{"name":"flags","type":"uint8","indexed":false,"internalType":"uint8"},{"name":"positionWidth","type":"int24","indexed":false,"internalType":"int24"},{"name":"deviation","type":"int56","indexed":false,"internalType":"int56"},{"name":"twapInterval","type":"uint32","indexed":false,"internalType":"uint32"}],"anonymous":false},{"type":"event","name":"BatchConfigQueued","inputs":[{"name":"flags","type":"uint8","indexed":false,"internalType":"uint8"},{"name":"positionWidth","type":"int24","indexed":false,"internalType":"int24"},{"name":"deviation","type":"int56","indexed":false,"internalType":"int56"},{"name":"twapInterval","type":"uint32","indexed":false,"internalType":"uint32"}],"anonymous":false},{"type":"event","name":"BeaconUpgraded","inputs":[{"name":"beacon","type":"address","indexed":true,"internalType":"address"}],"anonymous":false},{"type":"event","name":"ConfigExec","inputs":[{"name":"changeType","type":"uint8","indexed":true,"internalType":"uint8"},{"name":"value","type":"int256","indexed":false,"internalType":"int256"}],"anonymous":false},{"type":"event","name":"ConfigQueued","inputs":[{"name":"changeType","type":"uint8","indexed":true,"internalType":"uint8"},{"name":"value","type":"int256","indexed":false,"internalType":"int256"}],"anonymous":false},{"type":"event","name":"ControllerUpdated","inputs":[{"name":"oldController","type":"address","indexed":true,"internalType":"address"},{"name":"newController","type":"address","indexed":true,"internalType":"address"}],"anonymous":false},{"type":"event","name":"DepositCancelled","inputs":[{"name":"user","type":"address","indexed":true,"internalType":"address"}],"anonymous":false},{"type":"event","name":"DepositExecuted","inputs":[{"name":"user","type":"address","indexed":true,"internalType":"address"},{"name":"assets","type":"uint256","indexed":false,"internalType":"uint256"},{"name":"shares","type":"uint256","indexed":false,"internalType":"uint256"}],"anonymous":false},{"type":"event","name":"DepositQueued","inputs":[{"name":"user","type":"address","indexed":true,"internalType":"address"},{"name":"amount","type":"uint256","indexed":false,"internalType":"uint256"}],"anonymous":false},{"type":"event","name":"EmergencyExit","inputs":[{"name":"usdcRecovered","type":"uint256","indexed":false,"internalType":"uint256"},{"name":"timestamp","type":"uint256","indexed":false,"internalType":"uint256"}],"anonymous":false},{"type":"event","name":"FeesHarvested","inputs":[{"name":"fees0","type":"uint256","indexed":false,"internalType":"uint256"},{"name":"fees1","type":"uint256","indexed":false,"internalType":"uint256"},{"name":"timestamp","type":"uint256","indexed":false,"internalType":"uint256"}],"anonymous":false},{"type":"event","name":"HedgeAdjusted","inputs":[{"name":"oldSize","type":"uint256","indexed":false,"internalType":"uint256"},{"name":"newSize","type":"uint256","indexed":false,"internalType":"uint256"},{"name":"timestamp","type":"uint256","indexed":false,"internalType":"uint256"}],"anonymous":false},{"type":"event","name":"HedgeClosed","inputs":[{"name":"sizeUSD","type":"uint256","indexed":false,"internalType":"uint256"},{"name":"exitPrice","type":"uint256","indexed":false,"internalType":"uint256"},{"name":"pnl","type":"int256","indexed":false,"internalType":"int256"},{"name":"timestamp","type":"uint256","indexed":false,"internalType":"uint256"}],"anonymous":false},{"type":"event","name":"HedgeOpened","inputs":[{"name":"sizeUSD","type":"uint256","indexed":false,"internalType":"uint256"},{"name":"entryPrice","type":"uint256","indexed":false,"internalType":"uint256"},{"name":"timestamp","type":"uint256","indexed":false,"internalType":"uint256"}],"anonymous":false},{"type":"event","name":"Initialized","inputs":[{"name":"version","type":"uint8","indexed":false,"internalType":"uint8"}],"anonymous":false},{"type":"event","name":"OwnershipTransferred","inputs":[{"name":"previousOwner","type":"address","indexed":true,"internalType":"address"},{"name":"newOwner","type":"address","indexed":true,"internalType":"address"}],"anonymous":false},{"type":"event","name":"PauseChanged","inputs":[{"name":"paused","type":"bool","indexed":false,"internalType":"bool"}],"anonymous":false},{"type":"event","name":"Paused","inputs":[{"name":"account","type":"address","indexed":false,"internalType":"address"}],"anonymous":false},{"type":"event","name":"TokensRescued","inputs":[{"name":"token","type":"address","indexed":true,"internalType":"address"},{"name":"to","type":"address","indexed":true,"internalType":"address"},{"name":"amount","type":"uint256","indexed":false,"internalType":"uint256"}],"anonymous":false},{"type":"event","name":"Unpaused","inputs":[{"name":"account","type":"address","indexed":false,"internalType":"address"}],"anonymous":false},{"type":"event","name":"Upgraded","inputs":[{"name":"implementation","type":"address","indexed":true,"internalType":"address"}],"anonymous":false},{"type":"event","name":"WithdrawCancelled","inputs":[{"name":"user","type":"address","indexed":true,"internalType":"address"}],"anonymous":false},{"type":"event","name":"WithdrawExecuted","inputs":[{"name":"user","type":"address","indexed":true,"internalType":"address"},{"name":"shares","type":"uint256","indexed":false,"internalType":"uint256"},{"name":"assets","type":"uint256","indexed":false,"internalType":"uint256"},{"name":"recipient","type":"address","indexed":true,"internalType":"address"}],"anonymous":false},{"type":"event","name":"WithdrawFromAMMFailed","inputs":[],"anonymous":false},{"type":"event","name":"WithdrawQueued","inputs":[{"name":"user","type":"address","indexed":true,"internalType":"address"},{"name":"shares","type":"uint256","indexed":false,"internalType":"uint256"},{"name":"recipient","type":"address","indexed":true,"internalType":"address"}],"anonymous":false},{"type":"error","name":"BelowMin","inputs":[]},{"type":"error","name":"ConfigPending","inputs":[]},{"type":"error","name":"ExceedsMax","inputs":[]},{"type":"error","name":"HedgeAlreadyOpen","inputs":[]},{"type":"error","name":"InsufficientBalance","inputs":[]},{"type":"error","name":"InvalidAddress","inputs":[]},{"type":"error","name":"InvalidAmount","inputs":[]},{"type":"error","name":"InvalidConfig","inputs":[]},{"type":"error","name":"InvalidOperation","inputs":[]},{"type":"error","name":"InvalidStrategy","inputs":[]},{"type":"error","name":"InvalidSwapPool","inputs":[]},{"type":"error","name":"NoConfig","inputs":[]},{"type":"error","name":"NoHedgeOpen","inputs":[]},{"type":"error","name":"NotAuthorized","inputs":[]},{"type":"error","name":"NotCalm","inputs":[]},{"type":"error","name":"NotPaused","inputs":[]},{"type":"error","name":"NotPool","inputs":[]},{"type":"error","name":"OnlyController","inputs":[]},{"type":"error","name":"OnlyFactory","inputs":[]},{"type":"error","name":"OnlyOwner","inputs":[]},{"type":"error","name":"OnlySelf","inputs":[]},{"type":"error","name":"SlippageExceeded","inputs":[]},{"type":"error","name":"VaultPaused","inputs":[]}],"bytecode":{"object":"0x60c0346100c457601f61462f38819003918201601f19168301916001600160401b038311848410176100c8578084926020946040528339810103126100c457516001600160a01b03811681036100c4573060805260a05260405161455290816100dd8239608051818181611ba101528181611cbf0152612205015260a05181818161065501528181610e3d015281816113ff0152818161197f015281816127a701528181612ce90152818161342a01528181613b4e01528181613c430152613f5a0152f35b5f80fd5b634e487b7160e01b5f52604160045260245ffdfe60806040526004361015610011575f80fd5b5f5f3560e01c80630216133014612abd578063122b05ed14612a9a57806316c38b3c146129995780631f48ddd81461273157806321ec23b6146126475780632265a1b4146125625780632e1a7d4d14612446578063357e63791461242c57806335ef57241461239f5780633659cfe6146121e7578063367ad9e2146120985780633a98ef391461207a57806341b3d1851461205c5780634641257d14611f2d578063481488ae14611eb85780634cf1f49b14611e475780634f1ef28614611c4c57806352d1902d14611b8e5780635431c94e14611a855780635641ec03146118ca5780635c975abb146111ac5780635f785a5c146118aa5780636584493414611877578063715018a61461182d57806371bc9aae146117a557806373c6a2881461176b5780637bb98a6814611744578063806079521461172a57806387b6ad651461142e57806389a30271146113e95780638d5b9a0a146113d05780638da5cb5b146113a75780638fcc9cfb1461136e57806392eefe9b146112fc578063a5d993ac146112cd578063a8c62e761461129f578063aaf10f421461126a578063ab465a2a146111cf578063b187bd26146111ac578063b6b55f25146105ab578063bc2e47b714611188578063c0c53b8b14610f33578063c25fe09014610ece578063c45a015514610ea4578063cc28f73d14610de0578063d52b1a8814610ce2578063d820f49214610cc3578063e31cdab314610ac6578063ec8e6d2a146107f9578063f24e8f2c146107d6578063f2fde38b14610745578063f6555082146105ab578063f77c479114610581578063fa461e33146103a95763fcc47ed214610277575f80fd5b346103a657806003193601126103a65761012d546001600160a01b03163303610397576102a2612fb7565b60016101375460a01c161561038857610136546065546001600160a01b0316907fcf75a80a22cde0edcefe708f860e644c73eb8921aac7890f3bec010eef965f64906040906001600160801b03166102f981613bcf565b505061013054610307612c63565b828082111561037f5761031991612bea565b905b829181151580610376575b610356575b508161033691612bdd565b610130558561013655856101375582519182526020820152a26001805580f35b81925061036f9061036a6103369386612bca565b612bf7565b919061032b565b50801515610326565b5050859061031b565b631cc6a69960e11b8152600490fd5b635990781360e01b8152600490fd5b80fd5b50346103a65760603660031901126103a6576004356024356044356001600160401b03811161057d573660238201121561057d5760048101356001600160401b038111610579573691016024011161057557610138546040516316f0115b60e01b8152906020908290600490829060081c6001600160a01b03165afa90811561056a57849161054b575b506001600160a01b0381163381900361053c57604051630dfe168160e01b815293602085600481855afa91821561050f57600495879361051a575b506020906040519687809263d21220a760e01b82525afa94851561050f5786956104de575b50828682136104c4575b5050508382136104ab578380f35b6104bd926001600160a01b0316613577565b5f80808380f35b6104d6926001600160a01b0316613577565b5f808261049d565b61050191955060203d602011610508575b6104f98183612b77565b810190612c44565b935f610493565b503d6104ef565b6040513d88823e3d90fd5b602091935061053590823d8411610508576104f98183612b77565b929061046e565b636f61f64160e01b8552600485fd5b610564915060203d602011610508576104f98183612b77565b5f610433565b6040513d86823e3d90fd5b8280fd5b8480fd5b8380fd5b50346103a657806003193601126103a65761012d546040516001600160a01b039091168152602090f35b50346103a65760203660031901126103a6576004356105c86135b7565b6105d0612fb7565b6065546001600160a01b031633036107185760ff6101375460a01c166107185761012f5481106107365761060b81610606612c63565b612bdd565b61012e54106107275760ff6101385416610718576106826040516323b872dd60e01b602082015233602482015230604482015282606482015260648152610653608482612b77565b7f00000000000000000000000000000000000000000000000000000000000000006001600160a01b03166140f6565b6040516001600160801b0382169060019060609061069f81612b12565b8381526020808201879052604080830188905292909101929092526101369290925561013780546001600160a81b031916600160a01b17905560655491519283526001600160a01b0391909116917f39b741a94a004f4e0edfdc3c607302b8ccb1b8c4c5a9b5f761fec94a116921fb9190a26001805580f35b631cc6a69960e11b8252600482fd5b6395e28b8560e01b8252600482fd5b6310906acb60e01b8252600482fd5b50346103a65760203660031901126103a65761075f612ae6565b610767612f5f565b6001600160a01b038116156107825761077f90613926565b80f35b60405162461bcd60e51b815260206004820152602660248201527f4f776e61626c653a206e6577206f776e657220697320746865207a65726f206160448201526564647265737360d01b6064820152608490fd5b50346103a657806003193601126103a65760206107f1613ad3565b604051908152f35b50346103a657806003193601126103a65761012d546001600160a01b031633036103975760ff61013c541615610ab75760ff61013a541661013b5460018214808091610a3d575b610a2e5761013a84905561013b84905561013c8490556101385460081c6001600160a01b0316901561091057627fffff1982128015610904575b6108f5578084913b156108f1578180916024604051809481936312cf138160e01b83528860020b60048401525af180156108e6576108d1575b505060205f51602061445d5f395f51905f52915b604051908152a280f35b816108db91612b77565b61057557825f6108b3565b6040513d84823e3d90fd5b5080fd5b6306b7c75960e31b8452600484fd5b50627fffff821361087a565b600283036109a057667fffffffffffff1982128015610990575b6108f5578084913b156108f157818091602460405180948193631b16146360e11b83528860060b60048401525af180156108e65761097b575b505060205f51602061445d5f395f51905f52916108c7565b8161098591612b77565b61057557825f610963565b50667fffffffffffff821361092a565b600383146109c0575b5060205f51602061445d5f395f51905f52916108c7565b8382128015610a21575b6108f5578084913b156108f157818091602460405180948193631d27050f60e01b835263ffffffff891660048401525af180156108e657610a0c575b506109a9565b81610a1691612b77565b61057557825f610a06565b5063ffffffff82116109ca565b6313643c3b60e11b8452600484fd5b5061013854604051639bdde46b60e01b8152906020908290600490829060081c6001600160a01b03165afa908115610aac578591610a7d575b5015610840565b610a9f915060203d602011610aa5575b610a978183612b77565b810190612f1a565b5f610a76565b503d610a8d565b6040513d87823e3d90fd5b63036764e560e21b8152600490fd5b50346103a65760c03660031901126103a657610ae0612ad6565b906024359182159081159081850361057d57604435908160060b95868303610cbf5760643593841590811590818703610cbb576084359963ffffffff8b16808c03610cb75760a435998a15801596878d03610cb357610b3d612f5f565b82610cab575b5081610ca3575b50610c945760ff61013c54168015610c86575b610c7757918460a0610c5d999795937f2888a8a876059a384156073d5e0985910285c8247d5f3612caca083a21658a369d9e99979560405191610b9f83612b5c565b8960020b835285602084015260408301528560608301526080820152015261013d549260ff60801b9060801b169260ff60801b199163ff00000063ffffffff60601b199260ff60581b199062ffffff8a169060018060581b03191617169160181b16171666ffffffffffffff60201b8760201b1617169060ff60581b9060581b161763ffffffff60601b8660601b16171761013d555f14610c70576001945b15610c69576002955b15610c635760045b604051968796171785612f32565b0390a180f35b87610c4f565b8795610c47565b8794610c3e565b637ed27eb760e01b8b5260048bfd5b50610c8f613a9c565b610b5d565b6306b7c75960e31b8b5260048bfd5b90505f610b4a565b91505f610b43565b8d80fd5b8a80fd5b8880fd5b8580fd5b50346103a657806003193601126103a657602061012e54604051908152f35b50346103a65760403660031901126103a65760043560ff81168091036108f157602435610d0d612f5f565b8115610dd15760ff61013c54168015610dc3575b610db457604051606081016001600160401b03811182821017610da05791600160406020937f2a45aecb5e74807f4204a70f50428bc49db88ba8b1799808a3b23dda36ad3e30958252868152838582015201528360ff1961013a54161761013a558061013b55600160ff1961013c54161761013c55604051908152a280f35b634e487b7160e01b85526041600452602485fd5b637ed27eb760e01b8352600483fd5b50610dcc613a9c565b610d21565b6306b7c75960e31b8352600483fd5b50346103a657806003193601126103a657610df9612fb7565b60016101375460a01c161561038857610136546065546001600160a01b0316906001600160801b031633829003610e9557610136839055610137839055610e6a90827f00000000000000000000000000000000000000000000000000000000000000006001600160a01b0316613577565b7f315b8a0ece450231870bda1ecceeabdc74b6d0e53d6eb663bb910e3a6f42d6f18280a26001805580f35b631cc6a69960e11b8352600483fd5b50346103a657806003193601126103a657610139546040516001600160a01b039091168152602090f35b50346103a657806003193601126103a65760c061013d5460ff604051918060020b8352818160181c16151560208401528060201c60060b6040840152818160581c161515606084015263ffffffff8160601c16608084015260801c16151560a0820152f35b50346103a65760603660031901126103a657610f4d612ae6565b610f55612afc565b6044356001600160a01b03811691908281036105795784549160ff8360081c16159283809461117b575b8015611164575b156111085760ff1981166001178755836110f7575b506001600160a01b038516156110e8576001600160a01b03169384156110e857610fe690610fd860ff885460081c16610fd381614268565b614268565b610fe133613926565b613926565b84549261101b60ff8560081c16610ffc81614268565b61100581614268565b6001805561101281614268565b610fd381614268565b60fb805460ff1916905561012d80546001600160a01b031916861790555f1961012e556298968061012f5560405194865f51602061439d5f395f51905f528180a3156110d9576101388054610100600160a81b03191660089290921b610100600160a81b031691909117905561013980546001600160a01b031916331790556110a2578280f35b61ff0019168255600181527f7f26b83ff96e1f2b6a682f133852f6798a09c465da95921460cefb384740249890602090a15f808280f35b632711b74d60e11b8552600485fd5b63e6c4247b60e01b8652600486fd5b61ffff19166101011786555f610f9b565b60405162461bcd60e51b815260206004820152602e60248201527f496e697469616c697a61626c653a20636f6e747261637420697320616c72656160448201526d191e481a5b9a5d1a585b1a5e995960921b6064820152608490fd5b50303b158015610f865750600160ff821614610f86565b50600160ff821610610f7f565b50346103a65760203660031901126103a6576111a2612f5f565b60043561012e5580f35b50346103a657806003193601126103a657602060ff60fb54166040519015158152f35b50346103a657806003193601126103a6578060c09160a06040516111f281612b5c565b828152826020820152826040820152826060820152826080820152015260405161121b81612b5c565b818152602081019082825260408101838152606082019084825260a0608084019386855201938585526040519586525160208601525160408501525160608401525160808301525160a0820152f35b50346103a657806003193601126103a6575f5160206143fd5f395f51905f52546040516001600160a01b039091168152602090f35b50346103a657806003193601126103a6576101385460405160089190911c6001600160a01b03168152602090f35b50346103a657806003193601126103a6573033036112ed5761077f61395b565b63029a949d60e31b8152600490fd5b50346103a65760203660031901126103a657611316612ae6565b61131e612f5f565b6001600160a01b0316801561135f5761012d80546001600160a01b0319811683179091556001600160a01b03165f51602061439d5f395f51905f528380a380f35b63e6c4247b60e01b8252600482fd5b50346103a65760203660031901126103a65760043561138b612f5f565b80156113985761012f5580f35b63162908e360e11b8252600482fd5b50346103a657806003193601126103a6576065546040516001600160a01b039091168152602090f35b50346103a657806003193601126103a65761077f612bb5565b50346103a657806003193601126103a6576040517f00000000000000000000000000000000000000000000000000000000000000006001600160a01b03168152602090f35b50346103a657806003193601126103a65761012d546001600160a01b031633036103975760405161145e81612b5c565b61013d548060020b82526020820160ff8260181c1615928315825260408101938360201c60060b8552606082019260ff8560581c16159182158552608084019263ffffffff8760601c16845260ff60a086019760801c1615908115885282611722575b508161171a575b5061170b5780511515806116a1575b6116925761013d879055610138548551889160081c6001600160a01b03169061163d575b85516115e0575b825161158b575b5050517ff000de3b5096c53aedb085cd4564d31ac9b0dc0b37be5374f85b51f82868170e95610c5d93929115611584576001945b511561157d576002955b51156115715763ffffffff6004935b5160020b915160060b92511692604051968796171785612f32565b63ffffffff8893611556565b8795611547565b879461153d565b845160020b813b156105755782916024839260405194859384926312cf138160e01b845260048401525af180156108e6571561150957816115cf9195949395612b77565b6115dc579091865f611509565b8680fd5b875160060b813b156105755760405190631b16146360e11b82526004820152828160248183865af190811561163257839161161d575b5050611502565b8161162791612b77565b6108f157815f611616565b6040513d85823e3d90fd5b63ffffffff845116813b156105755760405190631d27050f60e01b82526004820152828160248183865af190811561163257839161167d575b50506114fb565b8161168791612b77565b6108f157815f611676565b6313643c3b60e11b8752600487fd5b5061013854604051639bdde46b60e01b8152906020908290600490829060081c6001600160a01b03165afa9081156117005788916116e1575b50156114d7565b6116fa915060203d602011610aa557610a978183612b77565b5f6116da565b6040513d8a823e3d90fd5b63036764e560e21b8752600487fd5b90505f6114c8565b91505f6114c1565b50346103a65760403660031901126103a6576108f1612afc565b50346103a657806003193601126103a657604061175f6135fb565b82519182526020820152f35b50346103a657806003193601126103a657606060ff61013a541661013b5460ff61013c541690604051928352602083015215156040820152f35b50346103a65760203660031901126103a657806117c0612ae6565b6117c8612f5f565b6101385460081c6001600160a01b031690813b15611829576040516378238c3760e01b81526001600160a01b0390911660048201529082908290602490829084905af180156108e6576118185750f35b8161182291612b77565b6103a65780f35b5050fd5b50346103a657806003193601126103a657611846612f5f565b606580546001600160a01b0319811690915581906001600160a01b03165f51602061441d5f395f51905f528280a380f35b50346103a657806003193601126103a6576040611892612e70565b82516001600160a01b03928316815291166020820152f35b50346103a657806003193601126103a6573033036112ed5761077f6133e4565b50346103a657806003193601126103a6576118e3612f5f565b600160ff19610138541617610138556118fa6135b7565b600160ff1960fb54161760fb555f51602061447d5f395f51905f526020604051338152a1303b156103a65760405163297664eb60e21b81528190818160048183305af1611a70575b5050303b156103a6576040516317de169760e21b81528190818160048183305af1611a5b575b50506040516370a0823160e01b81523060048201527f00000000000000000000000000000000000000000000000000000000000000006001600160a01b031690602081602481855afa908115611632578391611a18575b50805f5160206143dd5f395f51905f5292816040936119f9575b50508361013055836101365583610137558151908152426020820152a180f35b606554611a11926001600160a01b0390911690613577565b5f816119d9565b90506020813d602011611a53575b81611a3360209383612b77565b81010312611a4f57515f5160206143dd5f395f51905f526119bf565b5f80fd5b3d9150611a26565b81611a6591612b77565b6103a657805f611968565b81611a7a91612b77565b6103a657805f611942565b50346103a65760403660031901126103a657611a9f612ae6565b611aa7612afc565b611aaf612f5f565b60ff610138541615610e95576001600160a01b038116918215611b7f576040516370a0823160e01b81523060048201526001600160a01b039190911691602082602481865afa918215610aac578592611b4b575b5081611b0d578480f35b81611b3c7f77023e19c7343ad491fd706c36335ca0e738340a91f29b1fd81e2673d44896c49360209386613577565b604051908152a35f8080808480f35b9091506020813d602011611b77575b81611b6760209383612b77565b81010312611a4f5751905f611b03565b3d9150611b5a565b63e6c4247b60e01b8452600484fd5b50346103a657806003193601126103a6577f00000000000000000000000000000000000000000000000000000000000000006001600160a01b03163003611be65760206040515f5160206143fd5f395f51905f528152f35b60405162461bcd60e51b815260206004820152603860248201527f555550535570677261646561626c653a206d757374206e6f742062652063616c6044820152771b1959081d1a1c9bdd59da0819195b1959d85d1958d85b1b60421b6064820152608490fd5b5060403660031901126103a657611c61612ae6565b602435906001600160401b03821161057557366023830112156105755782826004013592611c8e84612b9a565b93611c9c6040519586612b77565b808552366024828401011161057557806024602093018387013784010152611d117f00000000000000000000000000000000000000000000000000000000000000006001600160a01b0316611cf330821415612dd4565b5f5160206143fd5f395f51905f52546001600160a01b031614612e22565b611d1a816137e4565b5f51602061437d5f395f51905f525460ff1615611d3b5761077f91506141d8565b6040516352d1902d60e01b81526020816004816001600160a01b0386165afa849181611e13575b50611db05760405162461bcd60e51b815260206004820152602e60248201525f5160206144fd5f395f51905f5260448201526d6f6e206973206e6f74205555505360901b6064820152608490fd5b5f5160206143fd5f395f51905f5203611dcf5761077f91600191613894565b60405162461bcd60e51b815260206004820152602960248201525f5160206144bd5f395f51905f526044820152681a58589b195555525160ba1b6064820152608490fd5b9091506020813d602011611e3f575b81611e2f60209383612b77565b810103126105795751905f611d62565b3d9150611e22565b50346103a657806003193601126103a657611e60612fb7565b60026101375460a01c1615610388576065546001600160a01b03163381900361071857816101365581610137557f8b775bb80a5d4addc5ea2601b2378ae89a1bb9010227157ac02aa71498e799c48280a26001805580f35b50346103a657806003193601126103a65761012d546001600160a01b0316330361039757611ee4612fb7565b7f1375724ea5b49914df0f50564c7584995f701511abaf28b91e714cea23cee49960a0604051838152836020820152836040820152836060820152426080820152a16001805580f35b5034611a4f575f366003190112611a4f5761012d546001600160a01b0316330361204d57611f59612fb7565b6101385460081c6001600160a01b0316803b15611a4f575f8091600460405180948193630beebd3960e11b83525af180156120425761202f575b5061013854819060081c6001600160a01b0316803b1561202c578190600460405180948193630d0e30db60e41b83525af180156108e657612017575b6040827f68d793b46909dd71f01302cc73514e67391ab192095cf26aec99f08ccca271e2606083518381528360208201524285820152a1600180558151908082526020820152f35b612022828092612b77565b6103a6575f611fcf565b50fd5b61203b91505f90612b77565b5f5f611f93565b6040513d5f823e3d90fd5b635990781360e01b5f5260045ffd5b34611a4f575f366003190112611a4f57602061012f54604051908152f35b34611a4f575f366003190112611a4f57602061013054604051908152f35b34611a4f575f366003190112611a4f576120b0612f5f565b6101395460405163b133f4d360e01b815290602090829060049082906001600160a01b03165afa908115612042575f916121c8575b506001600160a01b03811690811515806121a7575b61210057005b612109816137e4565b60405190612118602083612b77565b5f80835260208301939036853761212e826141d8565b5f51602061443d5f395f51905f525f80a28151158015906121a0575b612151575b005b5f8061214f9460405194612166606087612b77565b602786525f5160206144dd5f395f51905f526020870152660819985a5b195960ca1b60408701525190845af461219a612c15565b916142c8565b505f61214a565b505f5160206143fd5f395f51905f52546001600160a01b03168214156120fa565b6121e1915060203d602011610508576104f98183612b77565b816120e5565b34611a4f576020366003190112611a4f57612200612ae6565b6122397f00000000000000000000000000000000000000000000000000000000000000006001600160a01b0316611cf330821415612dd4565b612242816137e4565b6040519060206122528184612b77565b5f8352601f19810136828501375f51602061437d5f395f51905f525460ff1615612281575061214f91506141d8565b6040516352d1902d60e01b815290919082816004816001600160a01b0386165afa5f9181612370575b506122f85760405162461bcd60e51b815260048101849052602e60248201525f5160206144fd5f395f51905f5260448201526d6f6e206973206e6f74205555505360901b6064820152608490fd5b9091907fc9f76b5ec45e5cdef99837d7b6d2467235c1df8933c8ca56df5c35afa2c7d4440161232d575061214f915f91613894565b6084906040519062461bcd60e51b82526004820152602960248201525f5160206144bd5f395f51905f526044820152681a58589b195555525160ba1b6064820152fd5b9091508381813d8311612398575b6123888183612b77565b81010312611a4f575190856122aa565b503d61237e565b34611a4f575f366003190112611a4f575f60806040516123be81612b41565b828152826020820152826040820152826060820152015260a06040516123e381612b41565b5f815260208101905f825260408101905f8252608060608201915f835201915f8352604051935f85525160020b60208501525160020b6040840152516060830152516080820152f35b34611a4f575f366003190112611a4f5760206107f1612c63565b34611a4f576020366003190112611a4f576004356124626135b7565b61246a612fb7565b60655481906001600160a01b031633036125535760ff6101375460a01c166125535760ff61013854166125535761249f612c63565b90811561255357811061254b575b50600260606040516124be81612b12565b5f81526001600160801b0384166020808301919091523360408084018290529390920193909352608084901b6001600160801b03191661013655610137805460ff60a01b1983166001600160a81b031990911617600160a11b17905590519283529182917f1d78e54183f79519732f07b15f3311310b120b8286121dea10e65ba6bb03a22391a360018055005b9050816124ad565b631cc6a69960e11b5f5260045ffd5b34611a4f576020366003190112611a4f5761257b612ad6565b61012d546001600160a01b0316330361204d5760020b5f811380159061263c575b61262d575f809160018060a01b036101385460081c16908260405160208101926312cf138160e01b84526024820152602481526125da604482612b77565b51925af16125e6612c15565b50156125ee57005b60405162461bcd60e51b81526020600482015260176024820152761cd95d141bdcda5d1a5bdb95da591d1a0819985a5b1959604a1b6044820152606490fd5b6306b7c75960e31b5f5260045ffd5b506101f4811361259c565b34611a4f575f366003190112611a4f576101c0610136546101375460a01c60ff61013a541661013b549060ff61013c5416928315612720575b831561270f575b83156126fe575b6002906040519560018060801b0381168752600182161515602088015260801c604087015216151560608501525f60808501525f60a08501525f60c08501525f60e08501525f6101008501525f6101208501525f61014085015261016084015261018083015215156101a0820152f35b61013d5460801c60ff16935061268e565b61013d5460581c60ff169350612687565b61013d5460181c60ff169350612680565b34611a4f576020366003190112611a4f5761012d546001600160a01b0316330361204d5761275d612fb7565b6101375460028160a01c16156125535760018060a01b031660018060a01b03606554166101365460801c6101305480612925575b506040516370a0823160e01b81523060048201527f00000000000000000000000000000000000000000000000000000000000000006001600160a01b031690602081602481855afa908115612042575f916128f3575b50808311156128ec576127fa9083612bea565b806128dd575b506128096133e4565b6040516370a0823160e01b815230600482015291602083602481855afa928315612042575f936128a9575b50600435831061289a578260409281877f5809abf1a3b5a41e977dcbb37cad51dcd19fa047fea1828fc2edf10961d3b30896612889575b5050505f610136555f6101375582519182526020820152a360018055005b61289292613577565b86818761286b565b631e9acf1760e31b5f5260045ffd5b9092506020813d6020116128d5575b816128c560209383612b77565b81010312611a4f57519185612834565b3d91506128b8565b6128e690613023565b50612800565b505f6127fa565b90506020813d60201161291d575b8161290e60209383612b77565b81010312611a4f5751856127e7565b3d9150612901565b61292d612c63565b90811561298e57612942826106068386612bca565b5f19810190811161297a576129689261295a91612bf7565b905b80821161297257612bea565b6101305583612791565b905080612bea565b634e487b7160e01b5f52601160045260245ffd5b61296891508061295c565b34611a4f576020366003190112611a4f5760043580151590818103611a4f576129c0612f5f565b15612a0b5760205f51602061449d5f395f51905f52916129de6135b7565b600160ff1960fb54161760fb555f51602061447d5f395f51905f5282604051338152a15b604051908152a1005b60fb5460ff811615612a5e575f51602061449d5f395f51905f529160209160ff191660fb557f5db9ee0a495bf2e6ff9c91a7834c1ba4fdd244a5e8aa4e537bd38aeae4b073aa82604051338152a1612a02565b60405162461bcd60e51b815260206004820152601460248201527314185d5cd8589b194e881b9bdd081c185d5cd95960621b6044820152606490fd5b34611a4f575f366003190112611a4f57602060ff61013854166040519015158152f35b34611a4f576020366003190112611a4f5761214f612bb5565b600435908160020b8203611a4f57565b600435906001600160a01b0382168203611a4f57565b602435906001600160a01b0382168203611a4f57565b608081019081106001600160401b03821117612b2d57604052565b634e487b7160e01b5f52604160045260245ffd5b60a081019081106001600160401b03821117612b2d57604052565b60c081019081106001600160401b03821117612b2d57604052565b601f909101601f19168101906001600160401b03821190821017612b2d57604052565b6001600160401b038111612b2d57601f01601f191660200190565b61012d546001600160a01b0316330361204d57565b8181029291811591840414171561297a57565b9190820180921161297a57565b9190820391821161297a57565b8115612c01570490565b634e487b7160e01b5f52601260045260245ffd5b3d15612c3f573d90612c2682612b9a565b91612c346040519384612b77565b82523d5f602084013e565b606090565b90816020910312611a4f57516001600160a01b0381168103611a4f5790565b612c6b6135fb565b90801580612dcc575b612dc6576101385460405163501ad8ff60e11b8152929060081c6001600160a01b0316602084600481845afa938415612042575f94612d92575b508315612d8a5760206004916040519283809263017b859f60e61b82525afa908115612042575f91612d6b575b506001600160a01b039081167f000000000000000000000000000000000000000000000000000000000000000090911603612d47576a0c097ce7bc90715b34b9f160241b818102918015908304909114171561297a57612d4492612d3e91612bf7565b90612bdd565b90565b90612d64612d44936a0c097ce7bc90715b34b9f160241b92612bca565b0490612bdd565b612d84915060203d602011610508576104f98183612b77565b5f612cdb565b505050505f90565b9093506020813d602011612dbe575b81612dae60209383612b77565b81010312611a4f5751925f612cae565b3d9150612da1565b50505f90565b508115612c74565b15612ddb57565b60405162461bcd60e51b815260206004820152602c60248201525f5160206143bd5f395f51905f5260448201526b19195b1959d85d1958d85b1b60a21b6064820152608490fd5b15612e2957565b60405162461bcd60e51b815260206004820152602c60248201525f5160206143bd5f395f51905f5260448201526b6163746976652070726f787960a01b6064820152608490fd5b6101385460081c6001600160a01b031680612e8c57505f905f90565b60405163017b859f60e61b81529190602083600481845afa908115612042576004935f92612ef8575b50602090604051948580926343bab15b60e11b82525afa928315612042575f93612ede57509190565b612d4491935060203d602011610508576104f98183612b77565b6020919250612f1390823d8411610508576104f98183612b77565b9190612eb5565b90816020910312611a4f57518015158103611a4f5790565b929363ffffffff91959460609360ff608087019816865260020b602086015260060b604085015216910152565b6065546001600160a01b03163303612f7357565b606460405162461bcd60e51b815260206004820152602060248201527f4f776e61626c653a2063616c6c6572206973206e6f7420746865206f776e65726044820152fd5b600260015414612fc8576002600155565b60405162461bcd60e51b815260206004820152601f60248201527f5265656e7472616e637947756172643a207265656e7472616e742063616c6c006044820152606490fd5b9190826040910312611a4f576020825192015190565b6101385490915f9160081c6001600160a01b0316803b15611a4f575f8091600460405180948193630beebd3960e11b83525af18015612042576133cf575b506101385460408051630f77314d60e31b815260089290921c6001600160a01b0316949082600481885afa91821561056a578490859361339b575b50801580613393575b613389576130b1613eb6565b91821561337e57829181836130de9561036a9411613376575b61036a826130d89394612bca565b94612bca565b9260405163017b859f60e61b8152602081600481895afa9081156108e6578291613357575b506040516343bab15b60e11b8152906020826004818a5afa918215611632578392613336575b506040516370a0823160e01b81523060048201526001600160a01b03919091169690916020836024818b5afa92831561056a578493613302575b506040516370a0823160e01b81523060048201526001600160a01b03919091169690946020866024818b5afa958615610aac5785966132ce575b50823b15610579579060448592836040519586948593630441a3e760e41b8552600485015260248401525af18015611632576132b9575b5060206024949596604051958680926370a0823160e01b82523060048301525afa9384156108e6578294613283575b50613212602091602495612bea565b95604051948580926370a0823160e01b82523060048301525afa9081156132775790613243575b612d449250612bea565b506020823d60201161326f575b8161325d60209383612b77565b81010312611a4f57612d449151613239565b3d9150613250565b604051903d90823e3d90fd5b93506020843d6020116132b1575b8161329e60209383612b77565b81010312611a4f57925192613212613203565b3d9150613291565b6132c4838092612b77565b6108f1575f6131d4565b9095506020813d6020116132fa575b816132ea60209383612b77565b81010312611a4f5751945f61319d565b3d91506132dd565b9092506020813d60201161332e575b8161331e60209383612b77565b81010312611a4f5751915f613163565b3d9150613311565b61335091925060203d602011610508576104f98183612b77565b905f613129565b613370915060203d602011610508576104f98183612b77565b5f613103565b9050806130ca565b509394508493505050565b5092935083925050565b5082156130a5565b90506133c091925060403d6040116133c8575b6133b88183612b77565b81019061300d565b91905f61309c565b503d6133ae565b6133dc9192505f90612b77565b5f905f613061565b6101385460405163017b859f60e61b815260089190911c6001600160a01b031690602081600481855afa908115612042575f91613558575b506001600160a01b038181167f00000000000000000000000000000000000000000000000000000000000000009091160361355357506040516343bab15b60e11b8152602081600481855afa908115612042575f91613534575b505b6040516370a0823160e01b8152306004820152906020826024816001600160a01b0385165afa918215612042575f926134fd575b506020600493604051948580926316f0115b60e01b82525afa8015612042576134dc935f916134de575b50613fd8565b565b6134f7915060203d602011610508576104f98183612b77565b5f6134d6565b9291506020833d60201161352c575b8161351960209383612b77565b81010312611a4f579151909160206134ac565b3d915061350c565b61354d915060203d602011610508576104f98183612b77565b5f613476565b613478565b613571915060203d602011610508576104f98183612b77565b5f61341c565b60405163a9059cbb60e01b60208201526001600160a01b0390921660248301526044808301939093529181526134dc916135b2606483612b77565b6140f6565b60ff60fb54166135c357565b60405162461bcd60e51b815260206004820152601060248201526f14185d5cd8589b194e881c185d5cd95960821b6044820152606490fd5b6101385460408051630f77314d60e31b815260089290921c6001600160a01b0316929082600481865afa8015612042575f925f916137bf575b5060405163017b859f60e61b815292602084600481885afa938415612042575f9461379c575b50602060049495604051958680926343bab15b60e11b82525afa938415612042575f94613777575b506040516370a0823160e01b81523060048201529394929392602090849060249082906001600160a01b03165afa928315612042575f93613741575b506136cd602493602092612bdd565b6040516370a0823160e01b815230600482015290959093849182906001600160a01b03165afa908115612042575f9161370b575b612d449250612bdd565b90506020823d602011613739575b8161372660209383612b77565b81010312611a4f57612d44915190613701565b3d9150613719565b92506020833d60201161376f575b8161375c60209383612b77565b81010312611a4f579151916136cd6136be565b3d915061374f565b6024939450613794602091823d8411610508576104f98183612b77565b949350613682565b600494506137b8602091823d8411610508576104f98183612b77565b945061365a565b90506137db91925060403d6040116133c8576133b88183612b77565b9190915f613634565b6101395460405163b133f4d360e01b81529190602090839060049082906001600160a01b03165afa918215612042575f92613873575b506001600160a01b03908116911681148015919061386a575b5061385b576065546001600160a01b0316330361384c57565b63ea8e4eb560e01b5f5260045ffd5b632711b74d60e11b5f5260045ffd5b9050155f613833565b61388d91925060203d602011610508576104f98183612b77565b905f61381a565b9161389e836141d8565b6001600160a01b0383165f51602061443d5f395f51905f525f80a28151159081159161391e575b506138ce575050565b61391b915f80604051936138e3606086612b77565b602785525f5160206144dd5f395f51905f526020860152660819985a5b195960ca1b6040860152602081519101845af461219a612c15565b50565b90505f6138c5565b606580546001600160a01b039283166001600160a01b0319821681179092559091165f51602061441d5f395f51905f525f80a3565b6101385460408051630f77314d60e31b81525f92909160089190911c6001600160a01b03169082600481845afa908115612042575f925f92613a78575b50821580613a70575b613a6a57803b15611a4f575f8091600460405180948193630beebd3960e11b83525af1801561204257613a55575b506101385460081c6001600160a01b031691823b1561057d57839160448392836040519687948593630441a3e760e41b8552600485015260248401525af19182613a40575b505061391b57807fc934a2e092e37cdb20f410ba7f032dc2a47a3bb4f4137bff67faf9274a71a1f291a1565b81613a4a91612b77565b6108f157815f613a14565b613a629193505f90612b77565b5f915f6139cf565b50505050565b5081156139a1565b909250613a94915060403d6040116133c8576133b88183612b77565b90915f613998565b61013d5460ff8160181c16908115613ac4575b8115613ab9575090565b60ff915060801c1690565b905060ff8160581c1690613aaf565b6101385460408051630f77314d60e31b815260089290921c6001600160a01b0316919081600481855afa918215612042575f915f93613bac575b50811580613ba4575b613b9d5760206004916040519283809263017b859f60e61b82525afa908115612042575f91613b7e575b506001600160a01b039081167f000000000000000000000000000000000000000000000000000000000000000090911603613b79575090565b905090565b613b97915060203d602011610508576104f98183612b77565b5f613b40565b5050505f90565b508215613b16565b909250613bc8915060403d6040116133c8576133b88183612b77565b915f613b0d565b6101385460405163017b859f60e61b8152919260089190911c6001600160a01b0316915f90602081600481875afa908115612042575f91613e97575b506040516343bab15b60e11b815294602086600481885afa918215612042576024965f93613e76575b506001600160a01b03818116927f0000000000000000000000000000000000000000000000000000000000000000909116838114928315613e6e57506020855b6040516370a0823160e01b81523060048201529a8b9182906001600160a01b03165afa988915612042575f99613e33575b5090602060249392604051948580926370a0823160e01b82523060048301525afa928315612042575f93613dff575b50808311613df7575b5015613df15795945b861580613de9575b613ddd57803b15611a4f575f8091600460405180948193630beebd3960e11b83525af1801561204257613dc8575b508580613da4575b50508380613d7e575b50506101385460081c6001600160a01b0316803b156108f157818091600460405180948193630d0e30db60e41b83525af180156108e657613d6c575050565b613d77828092612b77565b6103a65750565b61013854613d9d926001600160a01b0360089290921c82169116613577565b5f83613d2d565b61013854613dc19260089190911c6001600160a01b031690613577565b5f85613d24565b613dd59193505f90612b77565b5f915f613d1c565b505f9550859450505050565b508515613cee565b94613ce6565b91505f613cdd565b9092506020813d602011613e2b575b81613e1b60209383612b77565b81010312611a4f5751915f613cd4565b3d9150613e0e565b92919098506020833d602011613e66575b81613e5160209383612b77565b81010312611a4f579151979091906020613ca5565b3d9150613e44565b602090613c74565b613e9091935060203d602011610508576104f98183612b77565b915f613c34565b613eb0915060203d602011610508576104f98183612b77565b5f613c0b565b6101385460408051630f77314d60e31b815260089290921c6001600160a01b0316919081600481855afa8015612042575f915f91613fb7575b50811580613faf575b613b9d5760405163501ad8ff60e11b815292602084600481845afa938415612042575f94612d9257508315612d8a5760206004916040519283809263017b859f60e61b82525afa908115612042575f91612d6b57506001600160a01b039081167f000000000000000000000000000000000000000000000000000000000000000090911603612d47576a0c097ce7bc90715b34b9f160241b818102918015908304909114171561297a57612d4492612d3e91612bf7565b508015613ef8565b9050613fd2915060403d6040116133c8576133b88183612b77565b5f613eef565b82156140f1576001600160a01b03169182156140e257604051630dfe168160e01b8152602081600481875afa9283156120425760409360c4925f916140c3575b506001600160a01b0391821691161480156140a7575f6401000276a4955b85519687958694630251596160e31b86523060048701526024860152604485015260018060a01b0316606484015260a060848401528160a48401525af18015612042576140805750565b604090813d83116140a0575b6140968183612b77565b81010312611a4f57565b503d61408c565b5f73fffd8963efd1fc6a506488495d951d5263988d2595614036565b6140dc915060203d602011610508576104f98183612b77565b5f614018565b638b5f53cb60e01b5f5260045ffd5b505050565b906141509160018060a01b03165f8060405193614114604086612b77565b602085527f5361666545524332303a206c6f772d6c6576656c2063616c6c206661696c6564602086015260208151910182855af161219a612c15565b80519081159182156141be575b50501561416657565b60405162461bcd60e51b815260206004820152602a60248201527f5361666545524332303a204552433230206f7065726174696f6e20646964206e6044820152691bdd081cdd58d8d9595960b21b6064820152608490fd5b6141d19250602080918301019101612f1a565b5f8061415d565b803b1561420d575f5160206143fd5f395f51905f5280546001600160a01b0319166001600160a01b0392909216919091179055565b60405162461bcd60e51b815260206004820152602d60248201527f455243313936373a206e657720696d706c656d656e746174696f6e206973206e60448201526c1bdd08184818dbdb9d1c9858dd609a1b6064820152608490fd5b1561426f57565b60405162461bcd60e51b815260206004820152602b60248201527f496e697469616c697a61626c653a20636f6e7472616374206973206e6f74206960448201526a6e697469616c697a696e6760a81b6064820152608490fd5b9192901561432a57508151156142dc575090565b3b156142e55790565b60405162461bcd60e51b815260206004820152601d60248201527f416464726573733a2063616c6c20746f206e6f6e2d636f6e74726163740000006044820152606490fd5b82519091501561433d5750805190602001fd5b604460209160405192839162461bcd60e51b83528160048401528051918291826024860152018484015e5f828201840152601f01601f19168101030190fdfe4910fdfa16fed3260ed0e7147f7cc6da11a60208b5b9406d12a635614ffd91431c87e2bbc4e5fa5d7f6f8c44d66cb241dff224b8602eb5435ca2076d2a5c6fc246756e6374696f6e206d7573742062652063616c6c6564207468726f75676820e69aa2e435ec063c41ddc8d262f8672906549b0cff0e2fcdec03de8a590a6329360894a13ba1a3210667c828492db98dca3e2076cc3735a920a3ca505d382bbc8be0079c531659141344cd1fd0a4f28419497f9722a3daafe3b4186f6b6457e0bc7cd75a20ee27fd9adebab32041f755214dbc6bffa90cc0225b39da2e5c2d3b7f957baf715b9d399a74e664bafdf932e3a6c16ab77a458385a6ef38ebc1a6d862e78cea01bee320cd4e420270b5ea74000d11b0c9f74754ebdbfc544b05a2588fb6c181ee25a520cf3dd6565006ef91229fcfe5a989566c2a3b8c115570cec545524331393637557067726164653a20756e737570706f727465642070726f78416464726573733a206c6f772d6c6576656c2064656c65676174652063616c6c45524331393637557067726164653a206e657720696d706c656d656e74617469a2646970667358221220b0475639f238859c5c4615e65cc6e375ee9f398458a9eaf3fb8492bf938b70df64736f6c634300081c0033","linkReferences":{}},"methodIdentifiers":{"USDC()":"89a30271","accrueMarginFees()":"8d5b9a0a","adjustHedge(uint256)":"02161330","balances()":"7bb98a68","calculateAMMDelta()":"f24e8f2c","controller()":"f77c4791","deposit(uint256)":"b6b55f25","depositCancel()":"cc28f73d","depositExecute()":"fcc47ed2","depositRegister(uint256)":"f6555082","doEmergencySwapAllToUSDC()":"5f785a5c","doEmergencyWithdrawFromAMM()":"a5d993ac","emergencyExit()":"5641ec03","emergencyExitTriggered()":"122b05ed","executeBatchConfigChange()":"87b6ad65","executeConfigChange()":"ec8e6d2a","factory()":"c45a0155","getCurrentAMM()":"35ef5724","getCurrentHedge()":"ab465a2a","getImplementation()":"aaf10f42","getPendingStates()":"21ec23b6","getVaultEquity()":"357e6379","harvest()":"4641257d","initialize(address,address,address)":"c0c53b8b","isPaused()":"b187bd26","maxTotalAssets()":"d820f492","minDeposit()":"41b3d185","owner()":"8da5cb5b","paused()":"5c975abb","pendingBatch()":"c25fe090","pendingConfig()":"73c6a288","proxiableUUID()":"52d1902d","queueBatchConfigChange(int24,bool,int56,bool,uint32,bool)":"e31cdab3","queueConfigChange(uint8,int256)":"d52b1a88","rebalanceAMM()":"481488ae","renounceOwnership()":"715018a6","rescueTokens(address,address)":"5431c94e","setController(address)":"92eefe9b","setMaxTotalAssets(uint256)":"bc2e47b7","setMinDeposit(uint256)":"8fcc9cfb","setPaused(bool)":"16c38b3c","setStrategyPositionWidth(int24)":"2265a1b4","setStrategyRewardPool(address)":"71bc9aae","strategy()":"a8c62e76","totalShares()":"3a98ef39","transferOwnership(address)":"f2fde38b","uniswapV3SwapCallback(int256,int256,bytes)":"fa461e33","upgradeTo(address)":"3659cfe6","upgradeToAndCall(address,bytes)":"4f1ef286","upgradeToLatest()":"367ad9e2","wants()":"65844934","withdraw(uint256)":"2e1a7d4d","withdrawCancel()":"4cf1f49b","withdrawExecute(uint256)":"1f48ddd8","withdrawRegister(uint256,address)":"80607952"},"storageLayout":{"storage":[{"astId":139,"contract":"src/AnalogVault.sol:AnalogVault","label":"_initialized","offset":0,"slot":"0","type":"t_uint8"},{"astId":142,"contract":"src/AnalogVault.sol:AnalogVault","label":"_initializing","offset":1,"slot":"0","type":"t_bool"},{"astId":581,"contract":"src/AnalogVault.sol:AnalogVault","label":"_status","offset":0,"slot":"1","type":"t_uint256"},{"astId":650,"contract":"src/AnalogVault.sol:AnalogVault","label":"__gap","offset":0,"slot":"2","type":"t_array(t_uint256)49_storage"},{"astId":5923,"contract":"src/AnalogVault.sol:AnalogVault","label":"__gap","offset":0,"slot":"51","type":"t_array(t_uint256)50_storage"},{"astId":11,"contract":"src/AnalogVault.sol:AnalogVault","label":"_owner","offset":0,"slot":"101","type":"t_address"},{"astId":131,"contract":"src/AnalogVault.sol:AnalogVault","label":"__gap","offset":0,"slot":"102","type":"t_array(t_uint256)49_storage"},{"astId":6588,"contract":"src/AnalogVault.sol:AnalogVault","label":"__gap","offset":0,"slot":"151","type":"t_array(t_uint256)50_storage"},{"astId":437,"contract":"src/AnalogVault.sol:AnalogVault","label":"__gap","offset":0,"slot":"201","type":"t_array(t_uint256)50_storage"},{"astId":460,"contract":"src/AnalogVault.sol:AnalogVault","label":"_paused","offset":0,"slot":"251","type":"t_bool"},{"astId":565,"contract":"src/AnalogVault.sol:AnalogVault","label":"__gap","offset":0,"slot":"252","type":"t_array(t_uint256)49_storage"},{"astId":4130,"contract":"src/AnalogVault.sol:AnalogVault","label":"controller","offset":0,"slot":"301","type":"t_address"},{"astId":4133,"contract":"src/AnalogVault.sol:AnalogVault","label":"maxTotalAssets","offset":0,"slot":"302","type":"t_uint256"},{"astId":4136,"contract":"src/AnalogVault.sol:AnalogVault","label":"minDeposit","offset":0,"slot":"303","type":"t_uint256"},{"astId":4138,"contract":"src/AnalogVault.sol:AnalogVault","label":"totalShares","offset":0,"slot":"304","type":"t_uint256"},{"astId":4142,"contract":"src/AnalogVault.sol:AnalogVault","label":"_reserved","offset":0,"slot":"305","type":"t_array(t_uint256)5_storage"},{"astId":4145,"contract":"src/AnalogVault.sol:AnalogVault","label":"pending","offset":0,"slot":"310","type":"t_struct(PendingOps)5357_storage"},{"astId":4148,"contract":"src/AnalogVault.sol:AnalogVault","label":"emergencyExitTriggered","offset":0,"slot":"312","type":"t_bool"},{"astId":2679,"contract":"src/AnalogVault.sol:AnalogVault","label":"strategy","offset":1,"slot":"312","type":"t_contract(IStrategyConcLiq)2629"},{"astId":2681,"contract":"src/AnalogVault.sol:AnalogVault","label":"factory","offset":0,"slot":"313","type":"t_address"},{"astId":2691,"contract":"src/AnalogVault.sol:AnalogVault","label":"pendingConfig","offset":0,"slot":"314","type":"t_struct(PendingConfig)2688_storage"},{"astId":2707,"contract":"src/AnalogVault.sol:AnalogVault","label":"pendingBatch","offset":0,"slot":"317","type":"t_struct(PendingBatchConfig)2704_storage"}],"types":{"t_address":{"encoding":"inplace","label":"address","numberOfBytes":"20"},"t_array(t_uint256)49_storage":{"encoding":"inplace","label":"uint256[49]","numberOfBytes":"1568","base":"t_uint256"},"t_array(t_uint256)50_storage":{"encoding":"inplace","label":"uint256[50]","numberOfBytes":"1600","base":"t_uint256"},"t_array(t_uint256)5_storage":{"encoding":"inplace","label":"uint256[5]","numberOfBytes":"160","base":"t_uint256"},"t_bool":{"encoding":"inplace","label":"bool","numberOfBytes":"1"},"t_contract(IStrategyConcLiq)2629":{"encoding":"inplace","label":"contract IStrategyConcLiq","numberOfBytes":"20"},"t_int24":{"encoding":"inplace","label":"int24","numberOfBytes":"3"},"t_int256":{"encoding":"inplace","label":"int256","numberOfBytes":"32"},"t_int56":{"encoding":"inplace","label":"int56","numberOfBytes":"7"},"t_struct(PendingBatchConfig)2704_storage":{"encoding":"inplace","label":"struct AnalogVault.PendingBatchConfig","numberOfBytes":"32","members":[{"astId":2693,"contract":"src/AnalogVault.sol:AnalogVault","label":"positionWidth","offset":0,"slot":"0","type":"t_int24"},{"astId":2695,"contract":"src/AnalogVault.sol:AnalogVault","label":"hasPositionWidth","offset":3,"slot":"0","type":"t_bool"},{"astId":2697,"contract":"src/AnalogVault.sol:AnalogVault","label":"deviation","offset":4,"slot":"0","type":"t_int56"},{"astId":2699,"contract":"src/AnalogVault.sol:AnalogVault","label":"hasDeviation","offset":11,"slot":"0","type":"t_bool"},{"astId":2701,"contract":"src/AnalogVault.sol:AnalogVault","label":"twapInterval","offset":12,"slot":"0","type":"t_uint32"},{"astId":2703,"contract":"src/AnalogVault.sol:AnalogVault","label":"hasTwapInterval","offset":16,"slot":"0","type":"t_bool"}]},"t_struct(PendingConfig)2688_storage":{"encoding":"inplace","label":"struct AnalogVault.PendingConfig","numberOfBytes":"96","members":[{"astId":2683,"contract":"src/AnalogVault.sol:AnalogVault","label":"changeType","offset":0,"slot":"0","type":"t_uint8"},{"astId":2685,"contract":"src/AnalogVault.sol:AnalogVault","label":"value","offset":0,"slot":"1","type":"t_int256"},{"astId":2687,"contract":"src/AnalogVault.sol:AnalogVault","label":"isPending","offset":0,"slot":"2","type":"t_bool"}]},"t_struct(PendingOps)5357_storage":{"encoding":"inplace","label":"struct IHedgedVault.PendingOps","numberOfBytes":"64","members":[{"astId":5350,"contract":"src/AnalogVault.sol:AnalogVault","label":"depositAmount","offset":0,"slot":"0","type":"t_uint128"},{"astId":5352,"contract":"src/AnalogVault.sol:AnalogVault","label":"withdrawAmount","offset":16,"slot":"0","type":"t_uint128"},{"astId":5354,"contract":"src/AnalogVault.sol:AnalogVault","label":"withdrawRecipient","offset":0,"slot":"1","type":"t_address"},{"astId":5356,"contract":"src/AnalogVault.sol:AnalogVault","label":"flags","offset":20,"slot":"1","type":"t_uint8"}]},"t_uint128":{"encoding":"inplace","label":"uint128","numberOfBytes":"16"},"t_uint256":{"encoding":"inplace","label":"uint256","numberOfBytes":"32"},"t_uint32":{"encoding":"inplace","label":"uint32","numberOfBytes":"4"},"t_uint8":{"encoding":"inplace","label":"uint8","numberOfBytes":"1"}}},"id":28}