{"abi":[{"type":"constructor","inputs":[],"stateMutability":"nonpayable"},{"type":"receive","stateMutability":"payable"},{"type":"function","name":"DOMAIN_SEPARATOR","inputs":[],"outputs":[{"name":"","type":"bytes32","internalType":"bytes32"}],"stateMutability":"view"},{"type":"function","name":"allowance","inputs":[{"name":"owner","type":"address","internalType":"address"},{"name":"spender","type":"address","internalType":"address"}],"outputs":[{"name":"","type":"uint256","internalType":"uint256"}],"stateMutability":"view"},{"type":"function","name":"approve","inputs":[{"name":"spender","type":"address","internalType":"address"},{"name":"amount","type":"uint256","internalType":"uint256"}],"outputs":[{"name":"","type":"bool","internalType":"bool"}],"stateMutability":"nonpayable"},{"type":"function","name":"approveSwaps","inputs":[],"outputs":[],"stateMutability":"nonpayable"},{"type":"function","name":"balanceOf","inputs":[{"name":"account","type":"address","internalType":"address"}],"outputs":[{"name":"","type":"uint256","internalType":"uint256"}],"stateMutability":"view"},{"type":"function","name":"balances","inputs":[],"outputs":[{"name":"amount0","type":"uint256","internalType":"uint256"},{"name":"amount1","type":"uint256","internalType":"uint256"}],"stateMutability":"view"},{"type":"function","name":"cancel","inputs":[{"name":"typ","type":"uint8","internalType":"uint8"}],"outputs":[],"stateMutability":"nonpayable"},{"type":"function","name":"controller","inputs":[],"outputs":[{"name":"","type":"address","internalType":"address"}],"stateMutability":"view"},{"type":"function","name":"decimals","inputs":[],"outputs":[{"name":"","type":"uint8","internalType":"uint8"}],"stateMutability":"view"},{"type":"function","name":"decreaseAllowance","inputs":[{"name":"spender","type":"address","internalType":"address"},{"name":"subtractedValue","type":"uint256","internalType":"uint256"}],"outputs":[{"name":"","type":"bool","internalType":"bool"}],"stateMutability":"nonpayable"},{"type":"function","name":"deposit","inputs":[{"name":"_amount0","type":"uint256","internalType":"uint256"},{"name":"_amount1","type":"uint256","internalType":"uint256"},{"name":"_minShares","type":"uint256","internalType":"uint256"}],"outputs":[],"stateMutability":"nonpayable"},{"type":"function","name":"deposit","inputs":[{"name":"usdcAmount","type":"uint256","internalType":"uint256"}],"outputs":[],"stateMutability":"nonpayable"},{"type":"function","name":"eip712Domain","inputs":[],"outputs":[{"name":"fields","type":"bytes1","internalType":"bytes1"},{"name":"name","type":"string","internalType":"string"},{"name":"version","type":"string","internalType":"string"},{"name":"chainId","type":"uint256","internalType":"uint256"},{"name":"verifyingContract","type":"address","internalType":"address"},{"name":"salt","type":"bytes32","internalType":"bytes32"},{"name":"extensions","type":"uint256[]","internalType":"uint256[]"}],"stateMutability":"view"},{"type":"function","name":"executeConfigChange","inputs":[],"outputs":[],"stateMutability":"nonpayable"},{"type":"function","name":"executeDeploy","inputs":[],"outputs":[],"stateMutability":"nonpayable"},{"type":"function","name":"executeSwap","inputs":[{"name":"calls","type":"tuple[]","internalType":"struct SwapCall[]","components":[{"name":"target","type":"address","internalType":"address"},{"name":"data","type":"bytes","internalType":"bytes"},{"name":"value","type":"uint256","internalType":"uint256"}]},{"name":"minAmountOut","type":"uint256","internalType":"uint256"}],"outputs":[],"stateMutability":"nonpayable"},{"type":"function","name":"executeWithdrawal","inputs":[],"outputs":[],"stateMutability":"nonpayable"},{"type":"function","name":"factory","inputs":[],"outputs":[{"name":"","type":"address","internalType":"address"}],"stateMutability":"view"},{"type":"function","name":"getImplementation","inputs":[],"outputs":[{"name":"","type":"address","internalType":"address"}],"stateMutability":"view"},{"type":"function","name":"getPendingStates","inputs":[],"outputs":[{"name":"depositAmount","type":"uint256","internalType":"uint256"},{"name":"depositPending","type":"bool","internalType":"bool"},{"name":"withdrawalAmount","type":"uint256","internalType":"uint256"},{"name":"withdrawalPending","type":"bool","internalType":"bool"},{"name":"swapToken0","type":"uint256","internalType":"uint256"},{"name":"swapToken1","type":"uint256","internalType":"uint256"},{"name":"swapRecipient","type":"address","internalType":"address"},{"name":"swapPending","type":"bool","internalType":"bool"},{"name":"deployAmount0","type":"uint256","internalType":"uint256"},{"name":"deployAmount1","type":"uint256","internalType":"uint256"},{"name":"deployPending","type":"bool","internalType":"bool"},{"name":"configType","type":"uint8","internalType":"enum AnalogVault.ConfigChangeType"},{"name":"configValue","type":"int256","internalType":"int256"},{"name":"configPending","type":"bool","internalType":"bool"}],"stateMutability":"view"},{"type":"function","name":"inCaseTokensGetStuck","inputs":[{"name":"_token","type":"address","internalType":"address"}],"outputs":[],"stateMutability":"nonpayable"},{"type":"function","name":"increaseAllowance","inputs":[{"name":"spender","type":"address","internalType":"address"},{"name":"addedValue","type":"uint256","internalType":"uint256"}],"outputs":[{"name":"","type":"bool","internalType":"bool"}],"stateMutability":"nonpayable"},{"type":"function","name":"initialize","inputs":[{"name":"_strategy","type":"address","internalType":"address"},{"name":"_name","type":"string","internalType":"string"},{"name":"_symbol","type":"string","internalType":"string"},{"name":"_controller","type":"address","internalType":"address"},{"name":"_owner","type":"address","internalType":"address"}],"outputs":[],"stateMutability":"nonpayable"},{"type":"function","name":"initialize","inputs":[{"name":"_strategy","type":"address","internalType":"address"},{"name":"_name","type":"string","internalType":"string"},{"name":"_symbol","type":"string","internalType":"string"}],"outputs":[],"stateMutability":"nonpayable"},{"type":"function","name":"isCalm","inputs":[],"outputs":[{"name":"","type":"bool","internalType":"bool"}],"stateMutability":"view"},{"type":"function","name":"name","inputs":[],"outputs":[{"name":"","type":"string","internalType":"string"}],"stateMutability":"view"},{"type":"function","name":"nonces","inputs":[{"name":"owner","type":"address","internalType":"address"}],"outputs":[{"name":"","type":"uint256","internalType":"uint256"}],"stateMutability":"view"},{"type":"function","name":"owner","inputs":[],"outputs":[{"name":"","type":"address","internalType":"address"}],"stateMutability":"view"},{"type":"function","name":"pending","inputs":[],"outputs":[{"name":"depositUsdc","type":"uint128","internalType":"uint128"},{"name":"withdrawUsdc","type":"uint128","internalType":"uint128"},{"name":"swapToken0","type":"uint128","internalType":"uint128"},{"name":"swapToken1","type":"uint128","internalType":"uint128"},{"name":"deployAmount0","type":"uint128","internalType":"uint128"},{"name":"deployAmount1","type":"uint128","internalType":"uint128"},{"name":"swapRecipient","type":"address","internalType":"address"},{"name":"configType","type":"uint8","internalType":"enum AnalogVault.ConfigChangeType"},{"name":"configValue","type":"int256","internalType":"int256"},{"name":"flags","type":"uint8","internalType":"uint8"}],"stateMutability":"view"},{"type":"function","name":"permit","inputs":[{"name":"owner","type":"address","internalType":"address"},{"name":"spender","type":"address","internalType":"address"},{"name":"value","type":"uint256","internalType":"uint256"},{"name":"deadline","type":"uint256","internalType":"uint256"},{"name":"v","type":"uint8","internalType":"uint8"},{"name":"r","type":"bytes32","internalType":"bytes32"},{"name":"s","type":"bytes32","internalType":"bytes32"}],"outputs":[],"stateMutability":"nonpayable"},{"type":"function","name":"previewDeposit","inputs":[{"name":"_amount0","type":"uint256","internalType":"uint256"},{"name":"_amount1","type":"uint256","internalType":"uint256"}],"outputs":[{"name":"shares","type":"uint256","internalType":"uint256"},{"name":"amount0","type":"uint256","internalType":"uint256"},{"name":"amount1","type":"uint256","internalType":"uint256"},{"name":"fee0","type":"uint256","internalType":"uint256"},{"name":"fee1","type":"uint256","internalType":"uint256"}],"stateMutability":"view"},{"type":"function","name":"previewWithdraw","inputs":[{"name":"_shares","type":"uint256","internalType":"uint256"}],"outputs":[{"name":"amount0","type":"uint256","internalType":"uint256"},{"name":"amount1","type":"uint256","internalType":"uint256"}],"stateMutability":"view"},{"type":"function","name":"proxiableUUID","inputs":[],"outputs":[{"name":"","type":"bytes32","internalType":"bytes32"}],"stateMutability":"view"},{"type":"function","name":"queueConfigChange","inputs":[{"name":"changeType","type":"uint8","internalType":"enum AnalogVault.ConfigChangeType"},{"name":"value","type":"int256","internalType":"int256"}],"outputs":[],"stateMutability":"nonpayable"},{"type":"function","name":"renounceOwnership","inputs":[],"outputs":[],"stateMutability":"nonpayable"},{"type":"function","name":"setController","inputs":[{"name":"_controller","type":"address","internalType":"address"}],"outputs":[],"stateMutability":"nonpayable"},{"type":"function","name":"strategy","inputs":[],"outputs":[{"name":"","type":"address","internalType":"contract IStrategyConcLiq"}],"stateMutability":"view"},{"type":"function","name":"swapAndDeploy","inputs":[{"name":"calls","type":"tuple[]","internalType":"struct SwapCall[]","components":[{"name":"target","type":"address","internalType":"address"},{"name":"data","type":"bytes","internalType":"bytes"},{"name":"value","type":"uint256","internalType":"uint256"}]},{"name":"amount0","type":"uint256","internalType":"uint256"},{"name":"amount1","type":"uint256","internalType":"uint256"}],"outputs":[],"stateMutability":"nonpayable"},{"type":"function","name":"swapFee","inputs":[],"outputs":[{"name":"","type":"uint256","internalType":"uint256"}],"stateMutability":"view"},{"type":"function","name":"swapTokensToUSDC","inputs":[{"name":"calls","type":"tuple[]","internalType":"struct SwapCall[]","components":[{"name":"target","type":"address","internalType":"address"},{"name":"data","type":"bytes","internalType":"bytes"},{"name":"value","type":"uint256","internalType":"uint256"}]},{"name":"amount0","type":"uint256","internalType":"uint256"},{"name":"amount1","type":"uint256","internalType":"uint256"}],"outputs":[],"stateMutability":"nonpayable"},{"type":"function","name":"symbol","inputs":[],"outputs":[{"name":"","type":"string","internalType":"string"}],"stateMutability":"view"},{"type":"function","name":"totalSupply","inputs":[],"outputs":[{"name":"","type":"uint256","internalType":"uint256"}],"stateMutability":"view"},{"type":"function","name":"transfer","inputs":[{"name":"to","type":"address","internalType":"address"},{"name":"amount","type":"uint256","internalType":"uint256"}],"outputs":[{"name":"","type":"bool","internalType":"bool"}],"stateMutability":"nonpayable"},{"type":"function","name":"transferFrom","inputs":[{"name":"from","type":"address","internalType":"address"},{"name":"to","type":"address","internalType":"address"},{"name":"amount","type":"uint256","internalType":"uint256"}],"outputs":[{"name":"","type":"bool","internalType":"bool"}],"stateMutability":"nonpayable"},{"type":"function","name":"transferOwnership","inputs":[{"name":"newOwner","type":"address","internalType":"address"}],"outputs":[],"stateMutability":"nonpayable"},{"type":"function","name":"upgradeTo","inputs":[{"name":"newImplementation","type":"address","internalType":"address"}],"outputs":[],"stateMutability":"nonpayable"},{"type":"function","name":"upgradeToAndCall","inputs":[{"name":"newImplementation","type":"address","internalType":"address"},{"name":"data","type":"bytes","internalType":"bytes"}],"outputs":[],"stateMutability":"payable"},{"type":"function","name":"upgradeToLatest","inputs":[],"outputs":[],"stateMutability":"nonpayable"},{"type":"function","name":"usdc","inputs":[],"outputs":[{"name":"","type":"address","internalType":"address"}],"stateMutability":"view"},{"type":"function","name":"want","inputs":[],"outputs":[{"name":"_want","type":"address","internalType":"address"}],"stateMutability":"view"},{"type":"function","name":"wants","inputs":[],"outputs":[{"name":"token0","type":"address","internalType":"address"},{"name":"token1","type":"address","internalType":"address"}],"stateMutability":"view"},{"type":"function","name":"withdraw","inputs":[{"name":"usdcAmount","type":"uint256","internalType":"uint256"}],"outputs":[],"stateMutability":"nonpayable"},{"type":"function","name":"withdraw","inputs":[{"name":"_shares","type":"uint256","internalType":"uint256"},{"name":"_minAmount0","type":"uint256","internalType":"uint256"},{"name":"_minAmount1","type":"uint256","internalType":"uint256"}],"outputs":[],"stateMutability":"nonpayable"},{"type":"function","name":"withdrawAll","inputs":[{"name":"_minAmount0","type":"uint256","internalType":"uint256"},{"name":"_minAmount1","type":"uint256","internalType":"uint256"}],"outputs":[],"stateMutability":"nonpayable"},{"type":"event","name":"AdminChanged","inputs":[{"name":"previousAdmin","type":"address","indexed":false,"internalType":"address"},{"name":"newAdmin","type":"address","indexed":false,"internalType":"address"}],"anonymous":false},{"type":"event","name":"Approval","inputs":[{"name":"owner","type":"address","indexed":true,"internalType":"address"},{"name":"spender","type":"address","indexed":true,"internalType":"address"},{"name":"value","type":"uint256","indexed":false,"internalType":"uint256"}],"anonymous":false},{"type":"event","name":"BeaconUpgraded","inputs":[{"name":"beacon","type":"address","indexed":true,"internalType":"address"}],"anonymous":false},{"type":"event","name":"ConfigExec","inputs":[{"name":"changeType","type":"uint8","indexed":true,"internalType":"enum AnalogVault.ConfigChangeType"},{"name":"value","type":"int256","indexed":false,"internalType":"int256"}],"anonymous":false},{"type":"event","name":"ConfigQueued","inputs":[{"name":"changeType","type":"uint8","indexed":true,"internalType":"enum AnalogVault.ConfigChangeType"},{"name":"value","type":"int256","indexed":false,"internalType":"int256"}],"anonymous":false},{"type":"event","name":"CtrlUpdated","inputs":[{"name":"newController","type":"address","indexed":true,"internalType":"address"}],"anonymous":false},{"type":"event","name":"DeployCancel","inputs":[],"anonymous":false},{"type":"event","name":"DeployExec","inputs":[{"name":"amount0","type":"uint256","indexed":false,"internalType":"uint256"},{"name":"amount1","type":"uint256","indexed":false,"internalType":"uint256"}],"anonymous":false},{"type":"event","name":"DeployReg","inputs":[{"name":"amount0","type":"uint256","indexed":false,"internalType":"uint256"},{"name":"amount1","type":"uint256","indexed":false,"internalType":"uint256"}],"anonymous":false},{"type":"event","name":"Deposit","inputs":[{"name":"user","type":"address","indexed":true,"internalType":"address"},{"name":"shares","type":"uint256","indexed":false,"internalType":"uint256"},{"name":"amount0","type":"uint256","indexed":false,"internalType":"uint256"},{"name":"amount1","type":"uint256","indexed":false,"internalType":"uint256"},{"name":"fee0","type":"uint256","indexed":false,"internalType":"uint256"},{"name":"fee1","type":"uint256","indexed":false,"internalType":"uint256"}],"anonymous":false},{"type":"event","name":"DepositCancel","inputs":[],"anonymous":false},{"type":"event","name":"DepositExec","inputs":[{"name":"amount0","type":"uint256","indexed":false,"internalType":"uint256"},{"name":"amount1","type":"uint256","indexed":false,"internalType":"uint256"}],"anonymous":false},{"type":"event","name":"DepositReg","inputs":[{"name":"usdcAmount","type":"uint256","indexed":false,"internalType":"uint256"}],"anonymous":false},{"type":"event","name":"EIP712DomainChanged","inputs":[],"anonymous":false},{"type":"event","name":"Initialized","inputs":[{"name":"version","type":"uint8","indexed":false,"internalType":"uint8"}],"anonymous":false},{"type":"event","name":"OwnershipTransferred","inputs":[{"name":"previousOwner","type":"address","indexed":true,"internalType":"address"},{"name":"newOwner","type":"address","indexed":true,"internalType":"address"}],"anonymous":false},{"type":"event","name":"SwapCancel","inputs":[],"anonymous":false},{"type":"event","name":"SwapExec","inputs":[{"name":"usdcAmount","type":"uint256","indexed":false,"internalType":"uint256"},{"name":"recipient","type":"address","indexed":true,"internalType":"address"}],"anonymous":false},{"type":"event","name":"Transfer","inputs":[{"name":"from","type":"address","indexed":true,"internalType":"address"},{"name":"to","type":"address","indexed":true,"internalType":"address"},{"name":"value","type":"uint256","indexed":false,"internalType":"uint256"}],"anonymous":false},{"type":"event","name":"Upgraded","inputs":[{"name":"implementation","type":"address","indexed":true,"internalType":"address"}],"anonymous":false},{"type":"event","name":"Withdraw","inputs":[{"name":"user","type":"address","indexed":true,"internalType":"address"},{"name":"shares","type":"uint256","indexed":false,"internalType":"uint256"},{"name":"amount0","type":"uint256","indexed":false,"internalType":"uint256"},{"name":"amount1","type":"uint256","indexed":false,"internalType":"uint256"}],"anonymous":false},{"type":"event","name":"WithdrawCancel","inputs":[],"anonymous":false},{"type":"event","name":"WithdrawExec","inputs":[{"name":"token0Amount","type":"uint256","indexed":false,"internalType":"uint256"},{"name":"token1Amount","type":"uint256","indexed":false,"internalType":"uint256"},{"name":"recipient","type":"address","indexed":true,"internalType":"address"}],"anonymous":false},{"type":"event","name":"WithdrawReg","inputs":[{"name":"usdcAmount","type":"uint256","indexed":false,"internalType":"uint256"},{"name":"recipient","type":"address","indexed":true,"internalType":"address"}],"anonymous":false},{"type":"error","name":"ConfigPending","inputs":[]},{"type":"error","name":"DeployPending","inputs":[]},{"type":"error","name":"DepositPending","inputs":[]},{"type":"error","name":"Insufficient","inputs":[]},{"type":"error","name":"Invalid","inputs":[]},{"type":"error","name":"Invalid","inputs":[{"name":"selector","type":"bytes4","internalType":"bytes4"}]},{"type":"error","name":"InvalidImpl","inputs":[]},{"type":"error","name":"NoConfig","inputs":[]},{"type":"error","name":"NoDeploy","inputs":[]},{"type":"error","name":"NoDeposit","inputs":[]},{"type":"error","name":"NoShares","inputs":[]},{"type":"error","name":"NoSwap","inputs":[]},{"type":"error","name":"NoWithdraw","inputs":[]},{"type":"error","name":"NotCalm","inputs":[]},{"type":"error","name":"NotEnoughTokens","inputs":[]},{"type":"error","name":"OnlyCtrl","inputs":[]},{"type":"error","name":"OnlyFact","inputs":[]},{"type":"error","name":"OnlyOwner","inputs":[]},{"type":"error","name":"SwapFail","inputs":[]},{"type":"error","name":"SwapFail","inputs":[]},{"type":"error","name":"SwapPending","inputs":[]},{"type":"error","name":"TooMuchSlippage","inputs":[]},{"type":"error","name":"WithdrawPending","inputs":[]}],"bytecode":{"object":"0x60a080604052346100da57306080525f549060ff8260081c16610088575060ff8082160361004e575b604051615df290816100df8239608051818181612ee30152818161315c015261362a0152f35b60ff90811916175f557f7f26b83ff96e1f2b6a682f133852f6798a09c465da95921460cefb3847402498602060405160ff8152a15f610028565b62461bcd60e51b815260206004820152602760248201527f496e697469616c697a61626c653a20636f6e747261637420697320696e697469604482015266616c697a696e6760c81b6064820152608490fd5b5f80fdfe6080604052600436101561001a575b3615610018575f80fd5b005b5f5f3560e01c8062aeef8a14613dcb57806306fdde0314613d37578063095ea7b314613d105780630a28a47714613cd157806318160ddd14613cb35780631ea2008314613af15780631f1fcd5114613a7957806321ec23b6146139a557806323b872dd146138e35780632e1a7d4d146137fc578063313ce567146137e05780633644e515146137c55780633659cfe61461360b578063367ad9e21461335e578063395093511461330e5780633e413bee146132e45780634f1ef2861461311157806351e4ba5b14612f8e57806352d1902d14612ed057806354cf2aeb14612ead57806354d68c2014612b7e5780636584493414612b4957806369b00745146129435780636cf1dbed1461226857806370a082311461222f578063715018a6146121e55780637a7af70d146120005780637aff49d714611fdb5780637bb98a6814611fb45780637ecebe0014611f7b57806384b0196e14611e6b5780638da5cb5b14611e4257806390657147146117cb57806392eefe9b1461173f57806394df7a701461160c57806395d89b41146115385780639bdde46b146114c8578063a41fe49f146114b0578063a457c2d71461140d578063a8c62e76146113e3578063a9059cbb146113b1578063aaf10f421461137c578063b6b55f2514611203578063c45a0155146111d9578063ca047c5614610e4e578063d505accf14610cac578063d52b1a8814610be6578063dd62ed3e14610b93578063def68a9c14610af0578063e20ccec314610a4d578063ec8e6d2a146107fb578063f2fde38b1461076a578063f77c4791146107405763fa45aa0014610276575061000e565b34610711578060031936011261071157610197546001600160a01b03163303610731576102a1614aed565b61019d5460028116156107225761019880546001600160801b0316905560ff19811660fd919091161761019d556101305481906001600160a01b0316803b1561071f57818091600460405180948193630beebd3960e11b83525af18015610714576106fc575b50506103116147ce565b6103196146d1565b6040516370a0823160e01b81523060048201529390926001600160a01b0383169291602086602481875afa9586156106f15787966106bd575b506040516370a0823160e01b81523060048201526001600160a01b038616966020826024818b5afa9182156105f1578992610689575b508215801590610680575b6105fc575b6020602496604051978880926370a0823160e01b82523060048301525afa9586156105f15789966105bb575b506103d36020916024976143da565b97604051968780926370a0823160e01b82523060048301525afa8015610503578795899161057c575b5061040e61042a9392610424926143da565b9788928115801590610573575b610517576143da565b926143da565b90801580159061050e575b8061048b575b905f516020615c1d5f395f51905f5295604095949392610479575b5050505060018060a01b0360cc54169382519182526020820152a2600160fe5580f35b61048293615493565b5f808080610456565b50604051639bdde46b60e01b815293929190602085600481305afa958615610503575f516020615c1d5f395f51905f52966040968a916104d4575b50919293949550955061043b565b6104f6915060203d6020116104fc575b6104ee8183614285565b8101906146b9565b5f6104c6565b503d6104e4565b6040513d8a823e3d90fd5b50811515610435565b6001600160801b038216608085901b6001600160801b031916176101995560cc5461019b80546001600160a01b0319166001600160a01b039290921691909117905561019d805460ff19811660ff9091161760041790556143da565b5083151561041b565b92919550506020823d6020116105b3575b8161059a60209383614285565b810103126105af57905186949061040e6103fc565b5f80fd5b3d915061058d565b95506020863d6020116105e9575b816105d660209383614285565b810103126105af579451946103d36103c4565b3d91506105c9565b6040513d8b823e3d90fd5b6101305489906001600160a01b0316803b1561067c57818091604460405180958193630441a3e760e41b83528a60048401528b60248401525af19182610663575b5050602496602091155f1461065e57610654614abe565b505b965050610398565b610656565b8161066d91614285565b61067857895f61063d565b8980fd5b5080fd5b50831515610393565b9091506020813d6020116106b5575b816106a560209383614285565b810103126105af5751905f610388565b3d9150610698565b9095506020813d6020116106e9575b816106d960209383614285565b810103126105af5751945f610352565b3d91506106cc565b6040513d89823e3d90fd5b8161070691614285565b61071157805f610307565b80fd5b6040513d84823e3d90fd5b50fd5b630a5eb86760e21b8252600482fd5b637372ed1f60e01b8152600490fd5b5034610711578060031936011261071157610197546040516001600160a01b039091168152602090f35b503461071157602036600319011261071157610784614238565b61078c61500a565b6001600160a01b038116156107a7576107a4906156dc565b80f35b60405162461bcd60e51b815260206004820152602660248201527f4f776e61626c653a206e6577206f776e657220697320746865207a65726f206160448201526564647265737360d01b6064820152608490fd5b5034610711578060031936011261071157610197546001600160a01b0316330361073157610827614aed565b600861019d541615610a3e57604051639bdde46b60e01b8152602081600481305afa908115610714578291610a1f575b5015610a105760ff61019b5460a01c1661019c5460ff60a01b1961019b541661019b558261019c5561019d5460f781169060ff19161761019d5560018060a01b036101305416600483101590816109fc5784906001850361094c57803b1561067c578180916024604051809481936312cf138160e01b83528960020b60048401525af1801561071457610933575b50505b61091f5760207f7f957baf715b9d399a74e664bafdf932e3a6c16ab77a458385a6ef38ebc1a6d891604051908152a2600160fe5580f35b634e487b7160e01b83526021600452602483fd5b8161093d91614285565b61094857835f6108e5565b8380fd5b91508091600285145f146109a957803b1561067c57818091602460405180948193631b16146360e11b83528960060b60048401525af1801561071457610994575b50506108e8565b8161099e91614285565b61094857835f61098d565b91508091600385146109bc5750506108e8565b803b1561067c57818091602460405180948193631d27050f60e01b835263ffffffff8a1660048401525af18015610714571561098d578161099e91614285565b634e487b7160e01b85526021600452602485fd5b6313643c3b60e11b8152600490fd5b610a38915060203d6020116104fc576104ee8183614285565b5f610857565b63036764e560e21b8152600490fd5b5034610711578060031936011261071157610140610198546101995461019a54610ae261019b5461019c549260ff61019d5416946040519660018060801b038116885260801c602088015260018060801b038116604088015260801c606087015260018060801b038116608087015260801c60a086015260018060a01b03811660c086015260ff60e086019160a01c16614264565b610100830152610120820152f35b503461071157602036600319011261071157610b0a614238565b610b1261500a565b6040516370a0823160e01b8152306004820152906001600160a01b0316602082602481845afa908115610b88578391610b52575b6107a49250339061545a565b90506020823d602011610b80575b81610b6d60209383614285565b810103126105af576107a4915190610b46565b3d9150610b60565b6040513d85823e3d90fd5b5034610711576040366003190112610711576040610baf614238565b91610bb861424e565b9260018060a01b031681526034602052209060018060a01b03165f52602052602060405f2054604051908152f35b503461071157604036600319011261071157600435600481108015610ca85760243590610c1161500a565b8215610c9957600861019d5416610c8a571561091f5760207f2a45aecb5e74807f4204a70f50428bc49db88ba8b1799808a3b23dda36ad3e309161019b5460ff60a01b8560a01b169060ff60a01b19161761019b558061019c55600861019d5460ff81169060ff1916171761019d55604051908152a280f35b637ed27eb760e01b8452600484fd5b636dac6a0960e01b8452600484fd5b8280fd5b50346107115760e036600319011261071157610cc6614238565b610cce61424e565b6044359060643560843560ff81168103610e4a57814211610e0557610da1610da99160018060a01b03871693848952609960205260408920908154916001830190556040519060208201927f6e71edae12b1b97f4d1f60370fef10105fa2faae0126114a169c64845d6126c9845287604084015260018060a01b038916606084015289608084015260a083015260c082015260c08152610d6f60e082614285565b519020610d7a615807565b906040519161190160f01b83526002830152602282015260c43591604260a43592206158fe565b91909161596f565b6001600160a01b031603610dc0576107a492614f06565b60405162461bcd60e51b815260206004820152601e60248201527f45524332305065726d69743a20696e76616c6964207369676e617475726500006044820152606490fd5b60405162461bcd60e51b815260206004820152601d60248201527f45524332305065726d69743a206578706972656420646561646c696e650000006044820152606490fd5b8580fd5b503461071157610e5d3661433d565b6101975490939192906001600160a01b031633036111ca57610e7d614aed565b600361019d54166111bb57610e906146d1565b6040516370a0823160e01b81523060048201526001600160a01b039092169190602082602481865afa918215610503578892611187575b506040516370a0823160e01b8152306004820152956001600160a01b03919091169290602087602481875afa9687156105f1578997611153575b50801561114b57965b801561114357915b87159687918261113a575b8215611130575b508115611126575b506111175760cc54610195546001600160a01b03918216988a9891909216928314908161110e575b506110f9575b5050610195546001600160a01b03169186908314806110f0575b6110cf575b5050610195546040516370a0823160e01b8152306004820152929150602090839060249082906001600160a01b03165afa91821561108e578692611099575b50610fc39192615365565b610195546040516370a0823160e01b81523060048201526001600160a01b0390911691602082602481865afa801561108e57869061105a575b61100692506143da565b838161103e575b5050508061101f575b82600160fe5580f35b60205f516020615bdd5f395f51905f5291604051908152a25f80611016565b61104c82611052949561442c565b9361545a565b5f808361100d565b506020823d602011611086575b8161107460209383614285565b810103126105af576110069151610ffc565b3d9150611067565b6040513d88823e3d90fd5b91506020823d6020116110c7575b816110b460209383614285565b810103126105af57610fc3915191610fb8565b3d91506110a7565b906110e8916110e282602496959861442c565b9661545a565b905f85610f79565b50811515610f74565b61110791965087819761545a565b5f80610f5a565b9050155f610f54565b631dc930eb60e01b8852600488fd5b905082115f610f2c565b891191505f610f24565b84159250610f1d565b508591610f12565b508196610f0a565b9096506020813d60201161117f575b8161116f60209383614285565b810103126105af5751955f610f01565b3d9150611162565b9091506020813d6020116111b3575b816111a360209383614285565b810103126105af5751905f610ec7565b3d9150611196565b634cefbb2b60e01b8552600485fd5b637372ed1f60e01b8552600485fd5b5034610711578060031936011261071157610196546040516001600160a01b039091168152602090f35b50346107115760203660031901126107115760043561122061500a565b611228614aed565b80158015611303575b80156112f4575b6112e55760207f8dd3770f17ff59559692697c66c69e63fb8641c74aa5a6b7122b53f7e550ba91916112a560018060a01b036101955416604051906323b872dd60e01b858301526112a08261129286303360248501614ebc565b03601f198101845283614285565b6157ab565b61019880546001600160801b0319166001600160801b03831617905561019d805460ff19811660ff909116176001179055604051908152a1600160fe5580f35b631dc930eb60e01b8252600482fd5b50600161019d54161515611238565b50610195546040516370a0823160e01b815233600482015290602090829060249082906001600160a01b03165afa8015610b885782918491611347575b5010611231565b9150506020813d602011611374575b8161136360209383614285565b810103126105af578190515f611340565b3d9150611356565b50346107115780600319360112610711575f516020615c3d5f395f51905f52546040516001600160a01b039091168152602090f35b5034610711576040366003190112610711576113d86113ce614238565b6024359033615062565b602060405160018152f35b5034610711578060031936011261071157610130546040516001600160a01b039091168152602090f35b503461071157604036600319011261071157611427614238565b60406024359233815260346020522060018060a01b0382165f5260205260405f20549180831061145d576113d892039033614f06565b60405162461bcd60e51b815260206004820152602560248201527f45524332303a2064656372656173656420616c6c6f77616e63652062656c6f77604482015264207a65726f60d81b6064820152608490fd5b5034610711576107a46114c2366141fa565b9161483d565b503461071157806003193601126107115761013054604051639bdde46b60e01b815290602090829060049082906001600160a01b03165afa908115610714576020929161151b575b506040519015158152f35b6115329150823d84116104fc576104ee8183614285565b5f611510565b503461071157806003193601126107115760405190806037549061155b82614439565b80855291600181169081156115e5575060011461159b575b6115978461158381860382614285565b604051918291602083526020830190614214565b0390f35b603781525f516020615d3d5f395f51905f52939250905b8082106115cb5750909150810160200161158382611573565b9192600181602092548385880101520191019092916115b2565b60ff191660208087019190915292151560051b850190920192506115839150839050611573565b5034610711578060031936011261071157610197546001600160a01b0316330361073157611638614aed565b61019d54601081161561173057604051639bdde46b60e01b8152602081600481305afa908115610b88578391611711575b50156117025761019a80549083905560ff19821660ef9092169190911761019d556001600160801b0381169060801c81158015906116f9575b6116af5782600160fe5580f35b81816116e76040937f8ac5c72bb51c04d4d9bee4cf777f3edbc82be47a4753bd39cb683fbf1011e62b956116e16146d1565b90615493565b82519182526020820152a15f80611016565b508015156116a2565b6313643c3b60e11b8252600482fd5b61172a915060203d6020116104fc576104ee8183614285565b5f611669565b6367721c1560e01b8252600482fd5b503461071157602036600319011261071157611759614238565b60cc546001600160a01b0316331415806117b5575b6117a65761019780546001600160a01b0319166001600160a01b039290921691821790555f516020615bbd5f395f51905f528280a280f35b631323895160e21b8252600482fd5b50610196546001600160a01b031633141561176e565b5034610711576060366003190112610711576117e5614238565b906024356001600160401b03811161067c57611805903690600401614373565b92906044356001600160401b03811161094857611826903690600401614373565b8454600881901c60ff16159692611872918880611e35575b8015611e1e575b61184e9061476b565b60ff198116600117885588611e0d575b5061186a3685876142d7565b9236916142d7565b9061188c60ff875460081c166118878161567c565b61567c565b8051906001600160401b038211611df95781906118aa603654614439565b601f8111611d9e575b50602090601f8311600114611d3a578892611d2f575b50508160011b915f199060031b1c1916176036555b8051906001600160401b038211611d1b576118fa603754614439565b601f8111611ccb575b50602090601f8311600114611c625761193d94939291879183611c57575b50508160011b915f199060031b1c1916176037555b36916142d7565b9260ff835460081c16936119508561567c565b61197560405195611962604088614285565b60018752603160f81b602088015261567c565b8051906001600160401b038211611c43578190611993606754614439565b601f8111611be8575b50602090601f8311600114611b84578692611b79575b50508160011b915f199060031b1c1916176067555b83516001600160401b038111611b65576119e2606854614439565b601f8111611b15575b50602094601f8211600114611ab2579484958293949592611aa7575b50508160011b915f199060031b1c1916176068555b8260655582606655611a3860ff845460081c166118878161567c565b611a41336156dc565b825491611a5760ff8460081c166118878161567c565b600160fe5561013080546001600160a01b0319166001600160a01b0392909216919091179055611a85575080f35b61ff00191681555f516020615c7d5f395f51905f52602060405160018152a180f35b015190505f80611a07565b601f198216956068865280862091865b888110611afd57508360019596979810611ae5575b505050811b01606855611a1c565b01515f1960f88460031b161c191690555f8080611ad7565b91926020600181928685015181550194019201611ac2565b606885525f516020615cbd5f395f51905f52601f830160051c81019160208410611b5b575b601f0160051c01905b818110611b5057506119eb565b858155600101611b43565b9091508190611b3a565b634e487b7160e01b84526041600452602484fd5b015190505f806119b2565b606787528187209250601f198416875b818110611bd05750908460019594939210611bb8575b505050811b016067556119c7565b01515f1960f88460031b161c191690555f8080611baa565b92936020600181928786015181550195019301611b94565b606787529091505f516020615c5d5f395f51905f52601f840160051c81019160208510611c39575b90601f859493920160051c01905b818110611c2b575061199c565b878155849350600101611c1e565b9091508190611c10565b634e487b7160e01b85526041600452602485fd5b015190505f80611921565b603787528187209190601f198416885b818110611cb3575091600193918561193d9897969410611c9b575b505050811b01603755611936565b01515f1960f88460031b161c191690555f8080611c8d565b92936020600181928786015181550195019301611c72565b603787525f516020615d3d5f395f51905f52601f840160051c81019160208510611d11575b601f0160051c01905b818110611d065750611903565b878155600101611cf9565b9091508190611cf0565b634e487b7160e01b86526041600452602486fd5b015190505f806118c9565b603689528189209250601f198416895b818110611d865750908460019594939210611d6e575b505050811b016036556118de565b01515f1960f88460031b161c191690555f8080611d60565b92936020600181928786015181550195019301611d4a565b603689529091505f516020615b9d5f395f51905f52601f840160051c81019160208510611def575b90601f859493920160051c01905b818110611de157506118b3565b898155849350600101611dd4565b9091508190611dc6565b634e487b7160e01b87526041600452602487fd5b61ffff19166101011787555f61185e565b50303b158015611845575060ff8116600114611845565b50600160ff82161061183e565b503461071157806003193601126107115760cc546040516001600160a01b039091168152602090f35b50346107115780600319360112610711576065541580611f71575b15611f3457611ed890611e97614471565b90611ea0614515565b906020611ee660405193611eb48386614285565b8385525f368137604051968796600f60f81b885260e08589015260e0880190614214565b908682036040880152614214565b904660608601523060808601528260a086015284820360c08601528080855193848152019401925b828110611f1d57505050500390f35b835185528695509381019392810192600101611f0e565b60405162461bcd60e51b81526020600482015260156024820152741152540dcc4c8e88155b9a5b9a5d1a585b1a5e9959605a1b6044820152606490fd5b5060665415611e86565b5034610711576020366003190112610711576020906040906001600160a01b03611fa3614238565b168152609983522054604051908152f35b50346107115780600319360112610711576040611fcf6147ce565b82519182526020820152f35b5034610711576107a4611fed366143a0565b903384526033602052604084205461483d565b5034610711576004612011366143a0565b6101305460405163501ad8ff60e11b81529294929360209185919082906001600160a01b03165afa9283156107145782936121b1575b506120506147ce565b9490916120698387612060614652565b9184868a614b43565b9692989197909560355494851596876121a6575b50506120b661208c898b6143da565b8b6120af856120aa8c6a0c097ce7bc90715b34b9f160241b946143da565b6143fb565b049061442c565b9561216f57906120aa876120c99361442c565b6a0c097ce7bc90715b34b9f160241b8101929083811161215b576ec097ce7bc90715b34b9f0fffffffff0192831161214757506121399261212e87969593612117611597996121349561442c565b906a0c097ce7bc90715b34b9f160241b900461442c565b926143fb565b61440e565b935b604051958695866143b6565b634e487b7160e01b81526011600452602490fd5b634e487b7160e01b82526011600452602482fd5b505050959493929190506103e7198101908111612192579394506115979261213b565b634e487b7160e01b86526011600452602486fd5b915092505f8061207d565b9092506020813d6020116121dd575b816121cd60209383614285565b810103126105af5751915f612047565b3d91506121c0565b50346107115780600319360112610711576121fe61500a565b60cc80546001600160a01b0319811690915581906001600160a01b03165f516020615c9d5f395f51905f528280a380f35b5034610711576020366003190112610711576020906040906001600160a01b03612257614238565b168152603383522054604051908152f35b50346107115760a036600319011261071157612282614238565b6024356001600160401b038111610ca8576122a1903690600401614373565b916044356001600160401b03811161293f576122c1903690600401614373565b9190926064359460018060a01b03861680960361293b57608435936001600160a01b03851685036129375761236588549660ff8860081c16159788809961292a575b8015612913575b6123139061476b565b60ff1981166001178b5588612902575b5061019680546001600160a01b03199081163317909155610195805490911673833589fcd6edb6e08f4c7c32d4f71b54bda0291317905561186a3685876142d7565b9061237a60ff8a5460081c166118878161567c565b8051906001600160401b0382116128ee578190612398603654614439565b601f8111612893575b50602090601f831160011461282f578b92612824575b50508160011b915f199060031b1c1916176036555b8051906001600160401b038211612810576123e8603754614439565b601f81116127c0575b50602090601f831160011461277057612429949392918a9183611c575750508160011b915f199060031b1c19161760375536916142d7565b60ff865460081c169061243b8261567c565b6124606040519261244d604085614285565b60018452603160f81b602085015261567c565b8051906001600160401b03821161275c57819061247e606754614439565b601f8111612701575b50602090601f831160011461269d578992612692575b50508160011b915f199060031b1c1916176067555b8051906001600160401b038211611df9576124ce606854614439565b601f8111612642575b50602090601f83116001146125d95761257c949392918891836125ce575b50508160011b915f199060031b1c1916176068555b856065558560665561252660ff875460081c166118878161567c565b61252f336156dc565b61255660ff875460081c166125438161567c565b61254c8161567c565b600160fe5561567c565b61013080546001600160a01b0319166001600160a01b03929092169190911790556156dc565b61019780546001600160a01b03191683179055604051915f516020615bbd5f395f51905f528480a26125ac575080f35b60205f516020615c7d5f395f51905f529161ff0019845416845560018152a180f35b015190505f806124f5565b606888528188209190601f198416895b81811061262a575091600193918561257c9897969410612612575b505050811b0160685561250a565b01515f1960f88460031b161c191690555f8080612604565b929360206001819287860151815501950193016125e9565b606888525f516020615cbd5f395f51905f52601f840160051c81019160208510612688575b601f0160051c01905b81811061267d57506124d7565b888155600101612670565b9091508190612667565b015190505f8061249d565b60678a52818a209250601f1984168a5b8181106126e957509084600195949392106126d1575b505050811b016067556124b2565b01515f1960f88460031b161c191690555f80806126c3565b929360206001819287860151815501950193016126ad565b60678a529091505f516020615c5d5f395f51905f52601f840160051c81019160208510612752575b90601f859493920160051c01905b8181106127445750612487565b8a8155849350600101612737565b9091508190612729565b634e487b7160e01b88526041600452602488fd5b60378a52818a209190601f1984168b5b8181106127a857509160019391856124299897969410611c9b57505050811b01603755611936565b92936020600181928786015181550195019301612780565b60378a525f516020615d3d5f395f51905f52601f840160051c81019160208510612806575b601f0160051c01905b8181106127fb57506123f1565b8a81556001016127ee565b90915081906127e5565b634e487b7160e01b89526041600452602489fd5b015190505f806123b7565b60368c52818c209250601f1984168c5b81811061287b5750908460019594939210612863575b505050811b016036556123cc565b01515f1960f88460031b161c191690555f8080612855565b9293602060018192878601518155019501930161283f565b60368c529091505f516020615b9d5f395f51905f52601f840160051c810191602085106128e4575b90601f859493920160051c01905b8181106128d657506123a1565b8c81558493506001016128c9565b90915081906128bb565b634e487b7160e01b8a52604160045260248afd5b61ffff1916610101178a555f612323565b50303b15801561230a575060ff811660011461230a565b50600160ff821610612303565b8780fd5b8680fd5b8480fd5b5034610711578060031936011261071157610197546001600160a01b031633141580612b34575b610731576129766146d1565b91612a93576129d060405163095ea7b360e01b60208201525f516020615d1d5f395f51905f5260248201525f6044820152604481526129b6606482614285565b73833589fcd6edb6e08f4c7c32d4f71b54bda029136157ab565b6001600160a01b0316906129e382615583565b6001600160a01b03166129f581615583565b604051636eb1769f60e11b81523060048201525f516020615d1d5f395f51905f52602482015260208160448173833589fcd6edb6e08f4c7c32d4f71b54bda029135afa908115612b29575f91612af7575b50612a9357612a8e61001892612a8e60405163095ea7b360e01b60208201525f516020615d1d5f395f51905f5260248201525f196044820152604481526129b6606482614285565b6155c0565b60405162461bcd60e51b815260206004820152603660248201527f5361666545524332303a20617070726f76652066726f6d206e6f6e2d7a65726f60448201527520746f206e6f6e2d7a65726f20616c6c6f77616e636560501b6064820152608490fd5b90506020813d602011612b21575b81612b1260209383614285565b810103126105af57515f612a46565b3d9150612b05565b6040513d5f823e3d90fd5b5060cc546001600160a01b031633141561296a565b5034610711578060031936011261071157612b626146d1565b604080516001600160a01b039384168152919092166020820152f35b503461071157612b8d3661433d565b6101975490939192906001600160a01b031633036111ca57612bad614aed565b61019d546001811615612e9e5761019880546001600160801b0319811690915560ff19821660fe9092169190911761019d55610195546040516370a0823160e01b81523060048201529190602090839060249082906001600160a01b03165afa9182156106f1578792612e6a575b506001600160801b031611612e5b5780612e4b575b5050612c3a6146d1565b909180612e4557506040516370a0823160e01b81523060048201526020816024816001600160a01b0387165afa908115612e02578591612e13575b50925b80612e0d57506040516370a0823160e01b81523060048201526020816024816001600160a01b0386165afa908115612e02578591612dd0575b50915b8315801590612dc7575b612ccc575b84600160fe5580f35b604051639bdde46b60e01b8152602081600481305afa90811561108e578691612da8575b5015612d3c5791612d2781857f184b6cff4a77a2db9b5c43924eb40173cb18ae6e754cce93063c8b913649e6689694604096615493565b82519182526020820152a15b5f808080612cc3565b50506001600160801b038216608082901b6001600160801b0319161761019a5561019d805460ff19811660ff9091161760101790556040805192835260208301919091527f0b67fa77433f64db330d6489623ac8965c13f4345bc24b6c33db1043b31316d491a1612d33565b612dc1915060203d6020116104fc576104ee8183614285565b5f612cf0565b50821515612cbe565b90506020813d602011612dfa575b81612deb60209383614285565b810103126105af57515f612cb1565b3d9150612dde565b6040513d87823e3d90fd5b91612cb4565b90506020813d602011612e3d575b81612e2e60209383614285565b810103126105af57515f612c75565b3d9150612e21565b92612c78565b612e5491615365565b5f80612c30565b631dc930eb60e01b8552600485fd5b9091506020813d602011612e96575b81612e8660209383614285565b810103126105af5751905f612c1b565b3d9150612e79565b633a6a68b160e01b8652600486fd5b50346107115780600319360112610711576020612ec8614652565b604051908152f35b50346107115780600319360112610711577f00000000000000000000000000000000000000000000000000000000000000006001600160a01b03163003612f285760206040515f516020615c3d5f395f51905f528152f35b60405162461bcd60e51b815260206004820152603860248201527f555550535570677261646561626c653a206d757374206e6f742062652063616c6044820152771b1959081d1a1c9bdd59da0819195b1959d85d1958d85b1b60421b6064820152608490fd5b5034610711576040366003190112610711576004356001600160401b03811161067c57612fbf90369060040161430d565b610197546001600160a01b0316330361310257612fda614aed565b61019d549160048316156130f35761019b80546101998690556001600160a01b0319811690915560ff19841660fb9094169390931761019d556001600160a01b03909216916130299190615365565b610195546040516370a0823160e01b8152306004820152906001600160a01b0316602082602481845afa9182156130e85784926130b4575b5060243582106130a5578161307a575b83600160fe5580f35b816130965f516020615bdd5f395f51905f52938560209461545a565b604051908152a25f8080613071565b631dc930eb60e01b8452600484fd5b9091506020813d6020116130e0575b816130d060209383614285565b810103126105af5751905f613061565b3d91506130c3565b6040513d86823e3d90fd5b63c84be13560e01b8452600484fd5b637372ed1f60e01b8352600483fd5b50604036600319011261071157613126614238565b6024356001600160401b038111610ca85736602382011215610ca8576131569036906024816004013591016142d7565b906131ae7f00000000000000000000000000000000000000000000000000000000000000006001600160a01b0316613190308214156145b6565b5f516020615c3d5f395f51905f52546001600160a01b031614614604565b6131b7816151c8565b5f516020615b7d5f395f51905f525460ff16156131d8576107a4915061586e565b6040516352d1902d60e01b81526020816004816001600160a01b0386165afa8491816132b0575b5061324d5760405162461bcd60e51b815260206004820152602e60248201525f516020615d9d5f395f51905f5260448201526d6f6e206973206e6f74205555505360901b6064820152608490fd5b5f516020615c3d5f395f51905f520361326c576107a491600191615257565b60405162461bcd60e51b815260206004820152602960248201525f516020615d5d5f395f51905f526044820152681a58589b195555525160ba1b6064820152608490fd5b9091506020813d6020116132dc575b816132cc60209383614285565b8101031261293f5751905f6131ff565b3d91506132bf565b5034610711578060031936011261071157610195546040516001600160a01b039091168152602090f35b5034610711576040366003190112610711576113d890604061332e614238565b9133815260346020522060018060a01b0382165f5260205261335760405f20602435905461442c565b9033614f06565b503461071157806003193601126107115761337761500a565b6101965460405163b133f4d360e01b81526001600160a01b0390911690602081600481855afa918215610b885760049260209285916135ee575b506001600160a01b03811690811515806135cd575b613502575b50506040516309ef357160e41b815292839182905afa9081156107145782916134e3575b506001600160a01b031680613402575080f35b602060649160405192838092631f1097e560e01b8252846004830152601d60248301527f5374726174656779506173736976654d616e61676572556e697377617000000060448301525afa9081156107145782916134b4575b506001600160a01b031661346c5780f35b6101305481906001600160a01b0316803b1561071f57818091600460405180948193631b3d6cf160e11b83525af16134a357505080f35b816134ad91614285565b6107115780f35b6134d6915060203d6020116134dc575b6134ce8183614285565b810190614597565b5f61345b565b503d6134c4565b6134fc915060203d6020116134dc576134ce8183614285565b5f6133ef565b856101985585610199558561019a558561019b558561019c558561019d556040519061352e8583614285565b86825284820192601f1986013685376135468261586e565b5f516020615cdd5f395f51905f528880a2868251158015906135c6575b61356f575b50506133cb565b806135bc9460405194613583606087614285565b602786525f516020615d7d5f395f51905f5289870152660819985a5b195960ca1b60408701525190845af46135b6614abe565b91615adf565b505f808086613568565b5080613563565b505f516020615c3d5f395f51905f52546001600160a01b03168214156133c6565b6136059150833d85116134dc576134ce8183614285565b5f6133b1565b503461071157602036600319011261071157613625614238565b61365e7f00000000000000000000000000000000000000000000000000000000000000006001600160a01b0316613190308214156145b6565b613667816151c8565b6020906040516136778382614285565b838152601f19830136848301375f516020615b7d5f395f51905f525460ff16156136a657506107a4915061586e565b6040516352d1902d60e01b815290919083816004816001600160a01b0386165afa859181613796575b5061371d5760405162461bcd60e51b815260048101859052602e60248201525f516020615d9d5f395f51905f5260448201526d6f6e206973206e6f74205555505360901b6064820152608490fd5b919290917fc9f76b5ec45e5cdef99837d7b6d2467235c1df8933c8ca56df5c35afa2c7d4440161375357506107a4918391615257565b6084906040519062461bcd60e51b82526004820152602960248201525f516020615d5d5f395f51905f526044820152681a58589b195555525160ba1b6064820152fd5b9091508481813d83116137be575b6137ae8183614285565b81010312610e4a5751905f6136cf565b503d6137a4565b50346107115780600319360112610711576020612ec8615807565b5034610711578060031936011261071157602060405160128152f35b50346107115760203660031901126107115760043561381961500a565b613821614aed565b80156112e55761019d54600181166138d457600281166138c557601081166138b65761019880546001600160801b0316608084901b6001600160801b03191617905560ff19811660ff9091161760021761019d5560cc546040519182526001600160a01b0316907f6718aadc3dfc9e07c92e72d1196583f66f68ccee82ad7384cff549e53a37382790602090a2600160fe5580f35b630e42758360e41b8352600483fd5b63ceb0aaa560e01b8352600483fd5b634cefbb2b60e01b8352600483fd5b5034610711576060366003190112610711576138fd614238565b9061390661424e565b6001600160a01b038316825260346020908152604092839020335f9081529152919091205491604435919060018401613944575b6113d89350615062565b8284106139605761395b836113d895033383614f06565b61393a565b60405162461bcd60e51b815260206004820152601d60248201527f45524332303a20696e73756666696369656e7420616c6c6f77616e63650000006044820152606490fd5b50346107115780600319360112610711576101c061019854600861019d5461019954613a6861019b5461019a5461019c54936040519760018060801b038116895260018716151560208a015260801c6040890152600286161515606089015260018060801b038116608089015260801c60a088015260018060a01b03821660c088015260048516151560e088015260018060801b03811661010088015260801c61012087015260108416151561014087015260ff61016087019160a01c16614264565b6101808401521615156101a0820152f35b5034610711578060031936011261071157610130546040516316f0115b60e01b815290602090829060049082906001600160a01b03165afa9081156107145760209291613ad4575b506040516001600160a01b039091168152f35b613aeb9150823d84116134dc576134ce8183614285565b5f613ac1565b50346107115760203660031901126107115760043560ff811680910361067c57613b1961500a565b60018103613b86575061019d546001811615613b775761019880546001600160801b031916905560ff19811660fe919091161761019d557f89433bd1c57567f9ee00f2e9c583ba1cb1a1ffe2a0eeaf934c36419b1c7ee81e8180a180f35b633a6a68b160e01b8252600482fd5b60028103613be3575061019d5460028116156107225761019880546001600160801b0316905560ff19811660fd919091161761019d557fe0e4f04b6337ef9d11c2fcde90d7466365f20354fc620fc8b1f47374bbd39c358180a180f35b60048103613c56575061019d546004811615613c475761019982905561019b80546001600160a01b031916905560ff19811660fb919091161761019d557f4e24cbed9876f8f4aed49f226b8bc6edc7fb69b53aff9ebf7b94c584fba8b5d38180a180f35b63c84be13560e01b8252600482fd5b601003613ca45761019d546010811615611730578161019a5560ef81169060ff19161761019d557fae7d1fc397b1748debd27d5d95c9fe942c6a37475c5222792302cfca24f0d6e48180a180f35b636dac6a0960e01b8152600490fd5b50346107115780600319360112610711576020603554604051908152f35b5034610711576020366003190112610711576040613d0a611fcf60043561213481613cfa6147ce565b95906121346035549586926143fb565b946143fb565b5034610711576040366003190112610711576113d8613d2d614238565b6024359033614f06565b5034610711578060031936011261071157604051908060365490613d5a82614439565b80855291600181169081156115e55750600114613d81576115978461158381860382614285565b603681525f516020615b9d5f395f51905f52939250905b808210613db15750909150810160200161158382611573565b919260018160209254838588010152019101909291613d98565b50346105af57613dda366141fa565b91613de3614aed565b613deb6146d1565b61013054919290916001600160a01b0316803b156105af575f8091600460405180948193630beebd3960e11b83525af18015612b29576141e5575b50613e2f6147ce565b909260018060a01b036101305416956040519563501ad8ff60e11b87526020876004818b5afa9687156141da578a976141a6575b50613e79613e6f614652565b858885898c614b43565b9a91949097831190811561419c575b5061418d579087959493929181614171575b5050508061414e575b5050613ec181613ebb613eb46147ce565b97906143da565b956143da565b6101305490959089906001600160a01b0316803b1561067c57818091600460405180948193630d0e30db60e41b83525af1801561071457614135575b505083613f2a613f0d89896143da565b6a0c097ce7bc90715b34b9f160241b6120af856120aa868c6143da565b6035549081156140af5791613f466120aa92613f4c95946143fb565b9561442c565b6a0c097ce7bc90715b34b9f160241b8101919082811161409b576ec097ce7bc90715b34b9f0fffffffff0191821161408757613f96929161211788613f909361442c565b9061440e565b945b8510614078578415614069573315614024577ff943cf10ef4d1e3239f4716ddecdf546e8ba8ab0e41deafd9a71a99936827e459361401991613fdc8760355461442c565b603555338852603360205260408820878154019055604051878152885f516020615cfd5f395f51905f5260203393a36040519485943398866143b6565b0390a2600160fe5580f35b60405162461bcd60e51b815260206004820152601f60248201527f45524332303a206d696e7420746f20746865207a65726f2061646472657373006044820152606490fd5b63b317087b60e01b8652600486fd5b63fa6ad35560e01b8652600486fd5b634e487b7160e01b89526011600452602489fd5b634e487b7160e01b8a52601160045260248afd5b9450505050506103e719810190811161412157946035546103e8810180911161410d5760355561dead87526033602052604087206103e8815401905561dead875f516020615cfd5f395f51905f5260206040516103e88152a3613f98565b634e487b7160e01b88526011600452602488fd5b634e487b7160e01b87526011600452602487fd5b8161413f91614285565b61414a57885f613efd565b8880fd5b6101305461416a926001600160a01b0391821691339116614ede565b5f80613ea3565b6141859233906001600160a01b0316614ede565b5f8080613e9a565b6308aeed0f60e21b8c5260048cfd5b905084115f613e88565b9096506020813d6020116141d2575b816141c260209383614285565b810103126105af5751955f613e63565b3d91506141b5565b6040513d8c823e3d90fd5b6141f29196505f90614285565b5f945f613e26565b60609060031901126105af57600435906024359060443590565b805180835260209291819084018484015e5f828201840152601f01601f1916010190565b600435906001600160a01b03821682036105af57565b602435906001600160a01b03821682036105af57565b9060048210156142715752565b634e487b7160e01b5f52602160045260245ffd5b601f909101601f19168101906001600160401b038211908210176142a857604052565b634e487b7160e01b5f52604160045260245ffd5b6001600160401b0381116142a857601f01601f191660200190565b9291926142e3826142bc565b916142f16040519384614285565b8294818452818301116105af578281602093845f960137010152565b9181601f840112156105af578235916001600160401b0383116105af576020808501948460051b0101116105af57565b60606003198201126105af57600435906001600160401b0382116105af576143679160040161430d565b90916024359060443590565b9181601f840112156105af578235916001600160401b0383116105af57602083818601950101116105af57565b60409060031901126105af576004359060243590565b9192608093969594919660a084019784526020840152604083015260608201520152565b919082039182116143e757565b634e487b7160e01b5f52601160045260245ffd5b818102929181159184041417156143e757565b8115614418570490565b634e487b7160e01b5f52601260045260245ffd5b919082018092116143e757565b90600182811c92168015614467575b602083101461445357565b634e487b7160e01b5f52602260045260245ffd5b91607f1691614448565b604051905f826067549161448483614439565b80835292600181169081156144f657506001146144aa575b6144a892500383614285565b565b5060675f90815290915f516020615c5d5f395f51905f525b8183106144da5750509060206144a89282010161449c565b60209193508060019154838589010152019101909184926144c2565b602092506144a894915060ff191682840152151560051b82010161449c565b604051905f826068549161452883614439565b80835292600181169081156144f6575060011461454b576144a892500383614285565b5060685f90815290915f516020615cbd5f395f51905f525b81831061457b5750509060206144a89282010161449c565b6020919350806001915483858901015201910190918492614563565b908160209103126105af57516001600160a01b03811681036105af5790565b156145bd57565b60405162461bcd60e51b815260206004820152602c60248201525f516020615bfd5f395f51905f5260448201526b19195b1959d85d1958d85b1b60a21b6064820152608490fd5b1561460b57565b60405162461bcd60e51b815260206004820152602c60248201525f516020615bfd5f395f51905f5260448201526b6163746976652070726f787960a01b6064820152608490fd5b610130546040516354cf2aeb60e01b815290602090829060049082906001600160a01b03165afa908115612b29575f9161468a575090565b90506020813d6020116146b1575b816146a560209383614285565b810103126105af575190565b3d9150614698565b908160209103126105af575180151581036105af5790565b6101305460405163017b859f60e61b81526001600160a01b039091169190602081600481865afa908115612b29576004916020915f9161474e575b5093604051928380926343bab15b60e11b82525afa908115612b29575f91614732575090565b61474b915060203d6020116134dc576134ce8183614285565b90565b6147659150823d84116134dc576134ce8183614285565b5f61470c565b1561477257565b60405162461bcd60e51b815260206004820152602e60248201527f496e697469616c697a61626c653a20636f6e747261637420697320616c72656160448201526d191e481a5b9a5d1a585b1a5e995960921b6064820152608490fd5b6101305460408051630f77314d60e31b815291829060049082906001600160a01b03165afa8015612b29575f915f9161480657509091565b9150506040813d604011614835575b8161482260409383614285565b810103126105af57602081519101519091565b3d9150614815565b915f8315614aaf57610130546001600160a01b0316803b156105af575f8091600460405180948193630beebd3960e11b83525af18015612b2957614a9c575b50603554913315614a4d57338252603360205260408220548581106149fd578593846148f29233865260336020520360408520558460355403603555836040518681525f516020615cfd5f395f51905f5260203392a3612134856148ec836121346148e56147ce565b9a906143fb565b966143fb565b610130549094906001600160a01b0316803b1561094857838091604460405180948193630441a3e760e41b83528a60048401528b60248401525af180156130e8579084916149e8575b505083109081156149de575b5080156149cd575b6149be575061498682826149766149646146d1565b929033906001600160a01b031661545a565b33906001600160a01b031661545a565b604051928352602083015260408201527f02f25270a4d87bea75db541cdfe559334a275b4a233520ed6c0a2429667cca9460603392a2565b63fa6ad35560e01b8152600490fd5b508115801561494f5750821561494f565b905083105f614947565b816149f291614285565b610ca857825f61493b565b60405162461bcd60e51b815260206004820152602260248201527f45524332303a206275726e20616d6f756e7420657863656564732062616c616e604482015261636560f01b6064820152608490fd5b60405162461bcd60e51b815260206004820152602160248201527f45524332303a206275726e2066726f6d20746865207a65726f206164647265736044820152607360f81b6064820152608490fd5b614aa891505f90614285565b5f5f61487c565b63b317087b60e01b5f5260045ffd5b3d15614ae8573d90614acf826142bc565b91614add6040519384614285565b82523d5f602084013e565b606090565b600260fe5414614afe57600260fe55565b60405162461bcd60e51b815260206004820152601f60248201527f5265656e7472616e637947756172643a207265656e7472616e742063616c6c006044820152606490fd5b93959290959491945f945f92801580614eb4575b614ea757614b74826a0c097ce7bc90715b34b9f160241b926143fb565b049283831015614cde575082614b8a888461442c565b1115614cd857614ba383614b9e898561442c565b6143da565b6a0c097ce7bc90715b34b9f160241b81810291801590830490911417156143e75781614bce9161440e565b88811115614ccf57614bfd6a0c097ce7bc90715b34b9f160241b614bf6846120aa8d866143da565b04896143da565b975b614c0984866143da565b811015614cbe57925b6a0c097ce7bc90715b34b9f160241b858102919086830414861517156143e757614c548591614c4e614c5994614c4888886143fb565b9061442c565b9761442c565b61442c565b946001600160ff1b03821682036143e757614cad614cba95613f90670de0b6b3a764000098614cb3956120af6a0c097ce7bc90715b34b9f160241b986a0c097ce7bc90715b34b9f160241b9260011b6143fb565b906143fb565b04906143fb565b0490565b50614cc983856143da565b92614c12565b97508787614bff565b5f614bce565b9697969495509080614d096a0c097ce7bc90715b34b9f160241b614d02858b6143fb565b048561442c565b1115614ea057614d3681614b9e6a0c097ce7bc90715b34b9f160241b614d2f868c6143fb565b048661442c565b905b88821115614e9557614d4a89836143da565b6a0c097ce7bc90715b34b9f160241b81810291801590830490911417156143e757614d7884614d7e9261440e565b896143da565b98975b614d8b85836143da565b6a0c097ce7bc90715b34b9f160241b81810291801590830490911417156143e75784614db69161440e565b811015614e5957925b614dc9838361442c565b6a0c097ce7bc90715b34b9f160241b8082029691801590880490911417156143e757614e1392614df89161442c565b906a0c097ce7bc90715b34b9f160241b906120af90866143fb565b926001600160ff1b03821682036143e757670de0b6b3a764000094614cad614cb392613f90614e55976a0c097ce7bc90715b34b9f160241b9660011b9061442c565b0491565b50614e6484826143da565b6a0c097ce7bc90715b34b9f160241b81810291801590830490911417156143e75783614e8f9161440e565b92614dbf565b975086978197614d81565b5f90614d38565b505f955085949350505050565b508215614b57565b6001600160a01b03918216815291166020820152604081019190915260600190565b906112a0906112926144a8956040519586936323b872dd60e01b602086015260248501614ebc565b6001600160a01b0316908115614fb9576001600160a01b0316918215614f695760207f8c5be1e5ebec7d5bd14f71427d1e84f3dd0314c0f7b2291e5b200ac8c7c3b92591835f526034825260405f20855f5282528060405f2055604051908152a3565b60405162461bcd60e51b815260206004820152602260248201527f45524332303a20617070726f766520746f20746865207a65726f206164647265604482015261737360f01b6064820152608490fd5b60405162461bcd60e51b8152602060048201526024808201527f45524332303a20617070726f76652066726f6d20746865207a65726f206164646044820152637265737360e01b6064820152608490fd5b60cc546001600160a01b0316330361501e57565b606460405162461bcd60e51b815260206004820152602060248201527f4f776e61626c653a2063616c6c6572206973206e6f7420746865206f776e65726044820152fd5b6001600160a01b0316908115615175576001600160a01b031691821561512457815f52603360205260405f20548181106150d057815f516020615cfd5f395f51905f5292602092855f52603384520360405f2055845f526033825260405f20818154019055604051908152a3565b60405162461bcd60e51b815260206004820152602660248201527f45524332303a207472616e7366657220616d6f756e7420657863656564732062604482015265616c616e636560d01b6064820152608490fd5b60405162461bcd60e51b815260206004820152602360248201527f45524332303a207472616e7366657220746f20746865207a65726f206164647260448201526265737360e81b6064820152608490fd5b60405162461bcd60e51b815260206004820152602560248201527f45524332303a207472616e736665722066726f6d20746865207a65726f206164604482015264647265737360d81b6064820152608490fd5b6101965460405163b133f4d360e01b81529190602090839060049082906001600160a01b03165afa918215612b29575f92615236575b506001600160a01b03908116911681148015919061522d575b5061521e57565b63645a6cf960e11b5f5260045ffd5b9050155f615217565b61525091925060203d6020116134dc576134ce8183614285565b905f6151fe565b916152618361586e565b6001600160a01b0383165f516020615cdd5f395f51905f525f80a2815115908115916152e1575b50615291575050565b6152de915f80604051936152a6606086614285565b602785525f516020615d7d5f395f51905f526020860152660819985a5b195960ca1b6040860152602081519101845af46135b6614abe565b50565b90505f615288565b919081101561530b5760051b81013590605e19813603018212156105af570190565b634e487b7160e01b5f52603260045260245ffd5b356001600160a01b03811681036105af5790565b903590601e19813603018212156105af57018035906001600160401b0382116105af576020019181360383136105af57565b905f5b81811061537457505050565b5f516020615d1d5f395f51905f526001600160a01b0361539d6153988486886152e9565b61531f565b1603615414575b5f806153b46153988486886152e9565b60406153c18587896152e9565b01356153db6153d186888a6152e9565b6020810190615333565b9190826040519384928337810185815203925af16153f7614abe565b501561540557600101615368565b6316e128d760e31b5f5260045ffd5b6154226153d18284866152e9565b6004116105af57356001600160e01b03191663f6a1584d60e01b810161544857506153a4565b63836e86a560e01b5f5260045260245ffd5b60405163a9059cbb60e01b60208201526001600160a01b03909216602483015260448201929092526144a8916112a08260648101611292565b610130545f949293906001600160a01b0316803b156105af575f8091600460405180948193630beebd3960e11b83525af18015612b295761556e575b508061554d575b50508061552c575b5050610130546001600160a01b0316803b1561067c57818091600460405180948193630d0e30db60e41b83525af180156107145761551a575050565b615525828092614285565b6107115750565b61013054615546926001600160a01b03918216911661545a565b5f806154de565b61013054615567926001600160a01b03918216911661545a565b5f806154d6565b61557b9195505f90614285565b5f935f6154cf565b6144a8906040519063095ea7b360e01b60208301525f516020615d1d5f395f51905f5260248301525f6044830152604482526112a0606483614285565b604051636eb1769f60e11b81523060048201525f516020615d1d5f395f51905f5260248201526020816044816001600160a01b0386165afa908115612b29575f9161564a575b50612a935760405163095ea7b360e01b60208201525f516020615d1d5f395f51905f5260248201525f1960448083019190915281526144a8916112a0606483614285565b90506020813d602011615674575b8161566560209383614285565b810103126105af57515f615606565b3d9150615658565b1561568357565b60405162461bcd60e51b815260206004820152602b60248201527f496e697469616c697a61626c653a20636f6e7472616374206973206e6f74206960448201526a6e697469616c697a696e6760a81b6064820152608490fd5b60cc80546001600160a01b039283166001600160a01b0319821681179092559091165f516020615c9d5f395f51905f525f80a3565b60405190615720604083614285565b602082527f5361666545524332303a206c6f772d6c6576656c2063616c6c206661696c65646020830152565b1561575357565b60405162461bcd60e51b815260206004820152602a60248201527f5361666545524332303a204552433230206f7065726174696f6e20646964206e6044820152691bdd081cdd58d8d9595960b21b6064820152608490fd5b6144a8916157d9916001600160a01b03165f806157c6615711565b9360208151910182855af16135b6614abe565b80519081159182156157ed575b505061574c565b61580092506020809183010191016146b9565b5f806157e6565b61580f615a6e565b615817615ab9565b6040519060208201927f8b73c3c69bb8fe3d512ecc4cf759cc79239f7b179b0ffacaa9a75d522b39400f8452604083015260608201524660808201523060a082015260a0815261586860c082614285565b51902090565b803b156158a3575f516020615c3d5f395f51905f5280546001600160a01b0319166001600160a01b0392909216919091179055565b60405162461bcd60e51b815260206004820152602d60248201527f455243313936373a206e657720696d706c656d656e746174696f6e206973206e60448201526c1bdd08184818dbdb9d1c9858dd609a1b6064820152608490fd5b6fa2a8918ca85bafe22016d0b997e4df60600160ff1b038411615964576020935f9360ff60809460405194855216868401526040830152606082015282805260015afa15612b29575f516001600160a01b0381161561595c57905f90565b505f90600190565b505050505f90600390565b600581101561427157806159805750565b600181036159c85760405162461bcd60e51b815260206004820152601860248201527745434453413a20696e76616c6964207369676e617475726560401b6044820152606490fd5b60028103615a155760405162461bcd60e51b815260206004820152601f60248201527f45434453413a20696e76616c6964207369676e6174757265206c656e677468006044820152606490fd5b600314615a1e57565b60405162461bcd60e51b815260206004820152602260248201527f45434453413a20696e76616c6964207369676e6174757265202773272076616c604482015261756560f01b6064820152608490fd5b615a76614471565b8051908115615a86576020012090565b50506065548015615a945790565b507fc5d2460186f7233c927e7db2dcc703c0e500b653ca82273b7bfad8045d85a47090565b615ac1614515565b8051908115615ad1576020012090565b50506066548015615a945790565b91929015615b415750815115615af3575090565b3b15615afc5790565b60405162461bcd60e51b815260206004820152601d60248201527f416464726573733a2063616c6c20746f206e6f6e2d636f6e74726163740000006044820152606490fd5b825190915015615b545750805190602001fd5b60405162461bcd60e51b815260206004820152908190615b78906024830190614214565b0390fdfe4910fdfa16fed3260ed0e7147f7cc6da11a60208b5b9406d12a635614ffd91434a11f94e20a93c79f6ec743a1954ec4fc2c08429ae2122118bf234b2185c81b824f6f5dc9935e251ac94cdd4bdc9691cc642ab65c06e85e3599ee43156b370f372af7ab83481af10a5fd4d3b08aee8b4b9e21ed46571cbf1a132133212f6d5e846756e6374696f6e206d7573742062652063616c6c6564207468726f756768205b9393d429a646826130a66a46c826ec3d9289f3cfa5ae093ca57a3d2f442644360894a13ba1a3210667c828492db98dca3e2076cc3735a920a3ca505d382bbc9787eeb91fe3101235e4a76063c7023ecb40f923f97916639c598592fa30d6ae7f26b83ff96e1f2b6a682f133852f6798a09c465da95921460cefb38474024988be0079c531659141344cd1fd0a4f28419497f9722a3daafe3b4186f6b6457e0a2153420d844928b4421650203c77babc8b33d7f2e7b450e2966db0c22097753bc7cd75a20ee27fd9adebab32041f755214dbc6bffa90cc0225b39da2e5c2d3bddf252ad1be2c89b69c2b068fc378daa952ba7f163c4a11628f55a4df523b3ef000000000000000000000000111111125421ca6dc452d289314280a0f8842a6542a7b7dd785cd69714a189dffb3fd7d7174edc9ece837694ce50f7078f7c31ae45524331393637557067726164653a20756e737570706f727465642070726f78416464726573733a206c6f772d6c6576656c2064656c65676174652063616c6c45524331393637557067726164653a206e657720696d706c656d656e74617469a26469706673582212203d5fd0102d8b755b186d33c676f56028c7979878fb72ff8d07473489d2def1d564736f6c634300081c0033","linkReferences":{}},"methodIdentifiers":{"DOMAIN_SEPARATOR()":"3644e515","allowance(address,address)":"dd62ed3e","approve(address,uint256)":"095ea7b3","approveSwaps()":"69b00745","balanceOf(address)":"70a08231","balances()":"7bb98a68","cancel(uint8)":"1ea20083","controller()":"f77c4791","decimals()":"313ce567","decreaseAllowance(address,uint256)":"a457c2d7","deposit(uint256)":"b6b55f25","deposit(uint256,uint256,uint256)":"00aeef8a","eip712Domain()":"84b0196e","executeConfigChange()":"ec8e6d2a","executeDeploy()":"94df7a70","executeSwap((address,bytes,uint256)[],uint256)":"51e4ba5b","executeWithdrawal()":"fa45aa00","factory()":"c45a0155","getImplementation()":"aaf10f42","getPendingStates()":"21ec23b6","inCaseTokensGetStuck(address)":"def68a9c","increaseAllowance(address,uint256)":"39509351","initialize(address,string,string)":"90657147","initialize(address,string,string,address,address)":"6cf1dbed","isCalm()":"9bdde46b","name()":"06fdde03","nonces(address)":"7ecebe00","owner()":"8da5cb5b","pending()":"e20ccec3","permit(address,address,uint256,uint256,uint8,bytes32,bytes32)":"d505accf","previewDeposit(uint256,uint256)":"7a7af70d","previewWithdraw(uint256)":"0a28a477","proxiableUUID()":"52d1902d","queueConfigChange(uint8,int256)":"d52b1a88","renounceOwnership()":"715018a6","setController(address)":"92eefe9b","strategy()":"a8c62e76","swapAndDeploy((address,bytes,uint256)[],uint256,uint256)":"54d68c20","swapFee()":"54cf2aeb","swapTokensToUSDC((address,bytes,uint256)[],uint256,uint256)":"ca047c56","symbol()":"95d89b41","totalSupply()":"18160ddd","transfer(address,uint256)":"a9059cbb","transferFrom(address,address,uint256)":"23b872dd","transferOwnership(address)":"f2fde38b","upgradeTo(address)":"3659cfe6","upgradeToAndCall(address,bytes)":"4f1ef286","upgradeToLatest()":"367ad9e2","usdc()":"3e413bee","want()":"1f1fcd51","wants()":"65844934","withdraw(uint256)":"2e1a7d4d","withdraw(uint256,uint256,uint256)":"a41fe49f","withdrawAll(uint256,uint256)":"7aff49d7"},"id":111}