{"abi":[{"type":"function","name":"balances","inputs":[],"outputs":[{"name":"token0Bal","type":"uint256","internalType":"uint256"},{"name":"token1Bal","type":"uint256","internalType":"uint256"}],"stateMutability":"view"},{"type":"function","name":"balancesOfPool","inputs":[],"outputs":[{"name":"token0Bal","type":"uint256","internalType":"uint256"},{"name":"token1Bal","type":"uint256","internalType":"uint256"},{"name":"mainAmount0","type":"uint256","internalType":"uint256"},{"name":"mainAmount1","type":"uint256","internalType":"uint256"},{"name":"altAmount0","type":"uint256","internalType":"uint256"},{"name":"altAmount1","type":"uint256","internalType":"uint256"}],"stateMutability":"view"},{"type":"function","name":"balancesOfThis","inputs":[],"outputs":[{"name":"token0Bal","type":"uint256","internalType":"uint256"},{"name":"token1Bal","type":"uint256","internalType":"uint256"}],"stateMutability":"view"},{"type":"function","name":"beefyFeeConfig","inputs":[],"outputs":[{"name":"","type":"address","internalType":"contract IFeeConfig"}],"stateMutability":"view"},{"type":"function","name":"beefyFeeRecipient","inputs":[],"outputs":[{"name":"","type":"address","internalType":"address"}],"stateMutability":"view"},{"type":"function","name":"beforeAction","inputs":[],"outputs":[],"stateMutability":"nonpayable"},{"type":"function","name":"currentTick","inputs":[],"outputs":[{"name":"tick","type":"int24","internalType":"int24"}],"stateMutability":"view"},{"type":"function","name":"deposit","inputs":[],"outputs":[],"stateMutability":"nonpayable"},{"type":"function","name":"depositFee","inputs":[],"outputs":[{"name":"","type":"uint256","internalType":"uint256"}],"stateMutability":"view"},{"type":"function","name":"factory","inputs":[],"outputs":[{"name":"","type":"address","internalType":"contract IStrategyFactory"}],"stateMutability":"view"},{"type":"function","name":"fees","inputs":[],"outputs":[{"name":"","type":"uint256","internalType":"uint256"}],"stateMutability":"view"},{"type":"function","name":"gauge","inputs":[],"outputs":[{"name":"","type":"address","internalType":"address"}],"stateMutability":"view"},{"type":"function","name":"getAllFees","inputs":[],"outputs":[{"name":"","type":"tuple","internalType":"struct IFeeConfig.AllFees","components":[{"name":"performance","type":"tuple","internalType":"struct IFeeConfig.FeeCategory","components":[{"name":"total","type":"uint256","internalType":"uint256"},{"name":"beefy","type":"uint256","internalType":"uint256"},{"name":"call","type":"uint256","internalType":"uint256"},{"name":"strategist","type":"uint256","internalType":"uint256"},{"name":"label","type":"string","internalType":"string"},{"name":"active","type":"bool","internalType":"bool"}]},{"name":"deposit","type":"uint256","internalType":"uint256"},{"name":"withdraw","type":"uint256","internalType":"uint256"}]}],"stateMutability":"view"},{"type":"function","name":"getStratFeeId","inputs":[],"outputs":[{"name":"","type":"uint256","internalType":"uint256"}],"stateMutability":"view"},{"type":"function","name":"harvest","inputs":[{"name":"_callFeeRecipient","type":"address","internalType":"address"}],"outputs":[],"stateMutability":"nonpayable"},{"type":"function","name":"harvest","inputs":[],"outputs":[],"stateMutability":"nonpayable"},{"type":"function","name":"initialize","inputs":[{"name":"_pool","type":"address","internalType":"address"},{"name":"_quoter","type":"address","internalType":"address"},{"name":"_nftManager","type":"address","internalType":"address"},{"name":"_gauge","type":"address","internalType":"address"},{"name":"_rewardPool","type":"address","internalType":"address"},{"name":"_output","type":"address","internalType":"address"},{"name":"_positionWidth","type":"int24","internalType":"int24"},{"name":"_paths","type":"bytes[]","internalType":"bytes[]"},{"name":"_commonAddresses","type":"tuple","internalType":"struct StratFeeManagerInitializable.CommonAddresses","components":[{"name":"vault","type":"address","internalType":"address"},{"name":"unirouter","type":"address","internalType":"address"},{"name":"strategist","type":"address","internalType":"address"},{"name":"factory","type":"address","internalType":"address"}]}],"outputs":[],"stateMutability":"nonpayable"},{"type":"function","name":"isCalm","inputs":[],"outputs":[{"name":"","type":"bool","internalType":"bool"}],"stateMutability":"view"},{"type":"function","name":"keeper","inputs":[],"outputs":[{"name":"","type":"address","internalType":"address"}],"stateMutability":"view"},{"type":"function","name":"lastHarvest","inputs":[],"outputs":[{"name":"","type":"uint256","internalType":"uint256"}],"stateMutability":"view"},{"type":"function","name":"lastPositionAdjustment","inputs":[],"outputs":[{"name":"","type":"uint256","internalType":"uint256"}],"stateMutability":"view"},{"type":"function","name":"lockedProfit","inputs":[],"outputs":[{"name":"locked0","type":"uint256","internalType":"uint256"},{"name":"locked1","type":"uint256","internalType":"uint256"}],"stateMutability":"view"},{"type":"function","name":"lpToken0","inputs":[],"outputs":[{"name":"","type":"address","internalType":"address"}],"stateMutability":"view"},{"type":"function","name":"lpToken0ToNativePath","inputs":[],"outputs":[{"name":"","type":"bytes","internalType":"bytes"}],"stateMutability":"view"},{"type":"function","name":"lpToken0ToNativePrice","inputs":[],"outputs":[{"name":"","type":"uint256","internalType":"uint256"}],"stateMutability":"nonpayable"},{"type":"function","name":"lpToken1","inputs":[],"outputs":[{"name":"","type":"address","internalType":"address"}],"stateMutability":"view"},{"type":"function","name":"lpToken1ToNativePath","inputs":[],"outputs":[{"name":"","type":"bytes","internalType":"bytes"}],"stateMutability":"view"},{"type":"function","name":"lpToken1ToNativePrice","inputs":[],"outputs":[{"name":"","type":"uint256","internalType":"uint256"}],"stateMutability":"nonpayable"},{"type":"function","name":"maxTickDeviation","inputs":[],"outputs":[{"name":"","type":"int56","internalType":"int56"}],"stateMutability":"view"},{"type":"function","name":"moveTicks","inputs":[],"outputs":[],"stateMutability":"nonpayable"},{"type":"function","name":"native","inputs":[],"outputs":[{"name":"","type":"address","internalType":"address"}],"stateMutability":"view"},{"type":"function","name":"nftManager","inputs":[],"outputs":[{"name":"","type":"address","internalType":"address"}],"stateMutability":"view"},{"type":"function","name":"onERC721Received","inputs":[{"name":"","type":"address","internalType":"address"},{"name":"","type":"address","internalType":"address"},{"name":"","type":"uint256","internalType":"uint256"},{"name":"","type":"bytes","internalType":"bytes"}],"outputs":[{"name":"","type":"bytes4","internalType":"bytes4"}],"stateMutability":"pure"},{"type":"function","name":"output","inputs":[],"outputs":[{"name":"","type":"address","internalType":"address"}],"stateMutability":"view"},{"type":"function","name":"outputToNative","inputs":[],"outputs":[{"name":"","type":"address[]","internalType":"address[]"}],"stateMutability":"view"},{"type":"function","name":"outputToNativePath","inputs":[],"outputs":[{"name":"","type":"bytes","internalType":"bytes"}],"stateMutability":"view"},{"type":"function","name":"owner","inputs":[],"outputs":[{"name":"","type":"address","internalType":"address"}],"stateMutability":"view"},{"type":"function","name":"panic","inputs":[{"name":"_minAmount0","type":"uint256","internalType":"uint256"},{"name":"_minAmount1","type":"uint256","internalType":"uint256"}],"outputs":[],"stateMutability":"nonpayable"},{"type":"function","name":"paused","inputs":[],"outputs":[{"name":"","type":"bool","internalType":"bool"}],"stateMutability":"view"},{"type":"function","name":"pool","inputs":[],"outputs":[{"name":"","type":"address","internalType":"address"}],"stateMutability":"view"},{"type":"function","name":"positionAlt","inputs":[],"outputs":[{"name":"nftId","type":"uint256","internalType":"uint256"},{"name":"tickLower","type":"int24","internalType":"int24"},{"name":"tickUpper","type":"int24","internalType":"int24"}],"stateMutability":"view"},{"type":"function","name":"positionMain","inputs":[],"outputs":[{"name":"nftId","type":"uint256","internalType":"uint256"},{"name":"tickLower","type":"int24","internalType":"int24"},{"name":"tickUpper","type":"int24","internalType":"int24"}],"stateMutability":"view"},{"type":"function","name":"positionWidth","inputs":[],"outputs":[{"name":"","type":"int24","internalType":"int24"}],"stateMutability":"view"},{"type":"function","name":"price","inputs":[],"outputs":[{"name":"_price","type":"uint256","internalType":"uint256"}],"stateMutability":"view"},{"type":"function","name":"quoter","inputs":[],"outputs":[{"name":"","type":"address","internalType":"address"}],"stateMutability":"view"},{"type":"function","name":"range","inputs":[],"outputs":[{"name":"lowerPrice","type":"uint256","internalType":"uint256"},{"name":"upperPrice","type":"uint256","internalType":"uint256"}],"stateMutability":"view"},{"type":"function","name":"renounceOwnership","inputs":[],"outputs":[],"stateMutability":"nonpayable"},{"type":"function","name":"retireVault","inputs":[],"outputs":[],"stateMutability":"nonpayable"},{"type":"function","name":"rewardPool","inputs":[],"outputs":[{"name":"","type":"address","internalType":"address"}],"stateMutability":"view"},{"type":"function","name":"setDeviation","inputs":[{"name":"_maxDeviation","type":"int56","internalType":"int56"}],"outputs":[],"stateMutability":"nonpayable"},{"type":"function","name":"setPositionWidth","inputs":[{"name":"_width","type":"int24","internalType":"int24"}],"outputs":[],"stateMutability":"nonpayable"},{"type":"function","name":"setRewardPool","inputs":[{"name":"_rewardPool","type":"address","internalType":"address"}],"outputs":[],"stateMutability":"nonpayable"},{"type":"function","name":"setStratFeeId","inputs":[{"name":"_feeId","type":"uint256","internalType":"uint256"}],"outputs":[],"stateMutability":"nonpayable"},{"type":"function","name":"setStrategist","inputs":[{"name":"_strategist","type":"address","internalType":"address"}],"outputs":[],"stateMutability":"nonpayable"},{"type":"function","name":"setTwapInterval","inputs":[{"name":"_interval","type":"uint32","internalType":"uint32"}],"outputs":[],"stateMutability":"nonpayable"},{"type":"function","name":"setUnirouter","inputs":[{"name":"_unirouter","type":"address","internalType":"address"}],"outputs":[],"stateMutability":"nonpayable"},{"type":"function","name":"sqrtPrice","inputs":[],"outputs":[{"name":"sqrtPriceX96","type":"uint160","internalType":"uint160"}],"stateMutability":"view"},{"type":"function","name":"strategist","inputs":[],"outputs":[{"name":"","type":"address","internalType":"address"}],"stateMutability":"view"},{"type":"function","name":"swapFee","inputs":[],"outputs":[{"name":"fee","type":"uint256","internalType":"uint256"}],"stateMutability":"view"},{"type":"function","name":"totalLocked0","inputs":[],"outputs":[{"name":"","type":"uint256","internalType":"uint256"}],"stateMutability":"view"},{"type":"function","name":"totalLocked1","inputs":[],"outputs":[{"name":"","type":"uint256","internalType":"uint256"}],"stateMutability":"view"},{"type":"function","name":"transferOwnership","inputs":[{"name":"newOwner","type":"address","internalType":"address"}],"outputs":[],"stateMutability":"nonpayable"},{"type":"function","name":"twap","inputs":[],"outputs":[{"name":"twapTick","type":"int56","internalType":"int56"}],"stateMutability":"view"},{"type":"function","name":"twapInterval","inputs":[],"outputs":[{"name":"","type":"uint32","internalType":"uint32"}],"stateMutability":"view"},{"type":"function","name":"unirouter","inputs":[],"outputs":[{"name":"","type":"address","internalType":"address"}],"stateMutability":"view"},{"type":"function","name":"unpause","inputs":[],"outputs":[],"stateMutability":"nonpayable"},{"type":"function","name":"vault","inputs":[],"outputs":[{"name":"","type":"address","internalType":"address"}],"stateMutability":"view"},{"type":"function","name":"withdraw","inputs":[{"name":"_amount0","type":"uint256","internalType":"uint256"},{"name":"_amount1","type":"uint256","internalType":"uint256"}],"outputs":[],"stateMutability":"nonpayable"},{"type":"function","name":"withdrawFee","inputs":[],"outputs":[{"name":"","type":"uint256","internalType":"uint256"}],"stateMutability":"view"},{"type":"event","name":"ChargedFees","inputs":[{"name":"callFeeAmount","type":"uint256","indexed":false,"internalType":"uint256"},{"name":"beefyFeeAmount","type":"uint256","indexed":false,"internalType":"uint256"},{"name":"strategistFeeAmount","type":"uint256","indexed":false,"internalType":"uint256"}],"anonymous":false},{"type":"event","name":"ClaimedFees","inputs":[{"name":"fees","type":"uint256","indexed":false,"internalType":"uint256"}],"anonymous":false},{"type":"event","name":"Harvest","inputs":[{"name":"fees","type":"uint256","indexed":false,"internalType":"uint256"}],"anonymous":false},{"type":"event","name":"Initialized","inputs":[{"name":"version","type":"uint8","indexed":false,"internalType":"uint8"}],"anonymous":false},{"type":"event","name":"OwnershipTransferred","inputs":[{"name":"previousOwner","type":"address","indexed":true,"internalType":"address"},{"name":"newOwner","type":"address","indexed":true,"internalType":"address"}],"anonymous":false},{"type":"event","name":"Paused","inputs":[{"name":"account","type":"address","indexed":false,"internalType":"address"}],"anonymous":false},{"type":"event","name":"SetDeviation","inputs":[{"name":"maxTickDeviation","type":"int56","indexed":false,"internalType":"int56"}],"anonymous":false},{"type":"event","name":"SetOutputToNativePath","inputs":[{"name":"path","type":"bytes","indexed":false,"internalType":"bytes"}],"anonymous":false},{"type":"event","name":"SetPositionWidth","inputs":[{"name":"oldWidth","type":"int24","indexed":false,"internalType":"int24"},{"name":"width","type":"int24","indexed":false,"internalType":"int24"}],"anonymous":false},{"type":"event","name":"SetRewardPool","inputs":[{"name":"rewardPool","type":"address","indexed":false,"internalType":"address"}],"anonymous":false},{"type":"event","name":"SetStratFeeId","inputs":[{"name":"feeId","type":"uint256","indexed":false,"internalType":"uint256"}],"anonymous":false},{"type":"event","name":"SetStrategist","inputs":[{"name":"strategist","type":"address","indexed":false,"internalType":"address"}],"anonymous":false},{"type":"event","name":"SetTwapInterval","inputs":[{"name":"oldInterval","type":"uint32","indexed":false,"internalType":"uint32"},{"name":"interval","type":"uint32","indexed":false,"internalType":"uint32"}],"anonymous":false},{"type":"event","name":"SetUnirouter","inputs":[{"name":"unirouter","type":"address","indexed":false,"internalType":"address"}],"anonymous":false},{"type":"event","name":"TVL","inputs":[{"name":"bal0","type":"uint256","indexed":false,"internalType":"uint256"},{"name":"bal1","type":"uint256","indexed":false,"internalType":"uint256"}],"anonymous":false},{"type":"event","name":"Unpaused","inputs":[{"name":"account","type":"address","indexed":false,"internalType":"address"}],"anonymous":false},{"type":"error","name":"InvalidEntry","inputs":[]},{"type":"error","name":"InvalidInput","inputs":[]},{"type":"error","name":"InvalidOutput","inputs":[]},{"type":"error","name":"NotAuthorized","inputs":[]},{"type":"error","name":"NotCalm","inputs":[]},{"type":"error","name":"NotManager","inputs":[]},{"type":"error","name":"NotPool","inputs":[]},{"type":"error","name":"NotStrategist","inputs":[]},{"type":"error","name":"NotVault","inputs":[]},{"type":"error","name":"OverLimit","inputs":[]},{"type":"error","name":"StrategyPaused","inputs":[]},{"type":"error","name":"TooMuchSlippage","inputs":[]}],"bytecode":{"object":"0x6080806040523460bb575f549060ff8260081c166069575060ff808216036030575b604051615abd90816100c08239f35b60ff90811916175f557f7f26b83ff96e1f2b6a682f133852f6798a09c465da95921460cefb3847402498602060405160ff8152a15f6021565b62461bcd60e51b815260206004820152602760248201527f496e697469616c697a61626c653a20636f6e747261637420697320696e697469604482015266616c697a696e6760c81b6064820152608490fd5b5f80fdfe60806040526004361015610011575f80fd5b5f3560e01c8062a4b5c91461045e57806304c404b314610459578063065e5360146104545780630e5c011e1461044f57806311b0b42d1461044a5780631208aa181461044557806312cf13811461044057806313e120b11461043b578063150b7a021461043657806316b9cd9c1461043157806316f0115b1461042c57806317dd7a72146104275780631d27050f146104225780631dcfeddd1461041d5780631fe4a68614610418578063257ae0de146104135780632b950b661461040e578063362c28c6146104095780633c1d5df0146104045780633c334dd5146103ff5780633e55f932146103fa5780633f4ba83a146103f5578063441a3e70146103f057806344b81396146103eb5780634641257d146103e65780634746fb55146103e157806354cf2aeb146103dc5780635c975abb146103d75780635ee167c0146103d257806360991346146103cd57806366666aa9146103c857806367a527931461032d578063696c58e5146103c3578063715018a6146103be57806378238c37146103b95780637bb98a68146103b45780638097e249146103af578063865238d4146103aa578063877562b6146103a55780638cfc0250146103a05780638da5cb5b1461039b5780638e14545914610396578063953d329f1461039157806399cd24461461038c5780639af1d35a146103875780639bdde46b146103825780639c6d49041461037d578063a035b1fe14610378578063a6f19c8414610373578063aced16611461036e578063b20feaaf14610369578063b3a60cb314610364578063b83d26831461035f578063bc415d8a1461035a578063c45a015514610355578063c6bbd5a714610350578063c7b9d5301461034b578063c7d5413214610346578063d0e30db014610341578063d92f3d731461033c578063e48f98fd14610337578063e88b91ea14610332578063e941fa781461032d578063e97206a914610328578063f1a392da14610323578063f20eaeb81461031e578063f2fde38b14610319578063fbfa77cf146103145763fcc25e131461030f575f80fd5b611cd2565b611caa565b611c19565b611bf1565b611bd4565b611b89565b611284565b611b61565b611b3c565b611abc565b6119a4565b61190f565b611886565b61185e565b611836565b611804565b6117ea565b6116a8565b6115e1565b6115c7565b61159f565b61156c565b611552565b61152e565b611511565b6114df565b61149f565b611485565b61145d565b6113ce565b6113a6565b611389565b611369565b611351565b6112e1565b6112c1565b61129e565b61125c565b611162565b61113a565b611118565b611067565b61103b565b611022565b610fb4565b610ee6565b610e05565b610d1c565b610c80565b610c17565b610b81565b610b59565b610b31565b610b09565b610ac9565b6108bf565b610897565b61086f565b61084d565b6107da565b610776565b6105b4565b610575565b610547565b61050d565b6104cb565b6104ae565b610482565b5f91031261046d57565b5f80fd5b908152602081019190915260400190565b3461046d575f36600319011261046d5761049a611d2b565b906104aa60405192839283610471565b0390f35b3461046d575f36600319011261046d576020609d54604051908152f35b3461046d575f36600319011261046d5760206104e5611e76565b6040519060020b8152f35b6001600160a01b031690565b6001600160a01b0381160361046d57565b3461046d57602036600319011261046d5761053260043561052d816104fc565b613344565b005b6001600160a01b03909116815260200190565b3461046d575f36600319011261046d576097546040516001600160a01b039091168152602090f35b60060b90565b3461046d575f36600319011261046d57602061058f612130565b6040519060060b8152f35b8060020b0361046d57565b60c435906105b28261059a565b565b3461046d57602036600319011261046d576004356105d18161059a565b6105d96135e2565b7f69d927977053f4ff4a26e8d792564e367e844a869cda4df12630bf7b62a632de604060e15460020b81519081528360020b6020820152a161061961363a565b6106216137ec565b62ffffff1960e154169062ffffff16178060e15561063d6147d8565b610645611e76565b61065a610650614070565b809360020b61249c565b61068a610668848385615692565b91909160de549060181b65ffffff000000169065ffffff00000019161760de55565b62ffffff1960de54169062ffffff161760de556106a5611d2b565b5f9180610749575b50808210156106fc5750509180826106cc826106eb966106e596615692565b5062ffffff1960e054169062ffffff161760e055615692565b50614d61565b6106f442609f55565b610532613d8b565b9391931061070d575b5050506106eb565b6107419282610720838061073a96615692565b905062ffffff1960e054169062ffffff161760e055615692565b9050614d61565b5f8080610705565b9091506a0c097ce7bc90715b34b9f160241b9061076e90610768612f7c565b90612bf0565b04905f6106ad565b3461046d575f36600319011261046d5761078e612232565b60405180916020825260208201602080835192838152019201905f5b8181106107b8575050500390f35b82516001600160a01b03168452859450602093840193909201916001016107aa565b3461046d57608036600319011261046d576107f66004356104fc565b6108016024356104fc565b6064356001600160401b03811161046d573660238201121561046d5760048101356001600160401b03811161046d573691016024011161046d57604051630a85bd0160e11b8152602090f35b3461046d575f36600319011261046d576020610867612385565b604051908152f35b3461046d575f36600319011261046d5760d1546040516001600160a01b039091168152602090f35b3461046d575f36600319011261046d576108af61404d565b6108b761363a565b6105326137ec565b3461046d57602036600319011261046d5760043563ffffffff811680820361046d57603c906108ec6135e2565b7f86139943149914833c057d2c24f3a3967cce8e6aba2eb12e422500d8a51ffc7b604063ffffffff60e15460501c168151908152836020820152a1106109515760e1805463ffffffff60501b191660509290921b63ffffffff60501b16919091179055005b63b4fa3fb360e01b5f5260045ffd5b90600182811c9216801561098e575b602083101461097a57565b634e487b7160e01b5f52602260045260245ffd5b91607f169161096f565b5f92918154916109a783610960565b80835292600181169081156109fc57506001146109c357505050565b5f9081526020812093945091925b8383106109e2575060209250010190565b6001816020929493945483858701015201910191906109d1565b915050602093945060ff929192191683830152151560051b010190565b634e487b7160e01b5f52604160045260245ffd5b606081019081106001600160401b03821117610a4857604052565b610a19565b60c081019081106001600160401b03821117610a4857604052565b601f909101601f19168101906001600160401b03821190821017610a4857604052565b604051906105b282610a9e8160da610998565b0383610a68565b805180835260209291819084018484015e5f828201840152601f01601f1916010190565b3461046d575f36600319011261046d576104aa604051610af581610aee8160db610998565b0382610a68565b604051918291602083526020830190610aa5565b3461046d575f36600319011261046d57609a546040516001600160a01b039091168152602090f35b3461046d575f36600319011261046d576099546040516001600160a01b039091168152602090f35b3461046d575f36600319011261046d576020609c54604051908152f35b8060060b0361046d57565b3461046d57602036600319011261046d57600435610b9e81610b76565b610ba66135e2565b6040517f69d3f73bfb3c2f0de63dc1de2ed486cf45d88ebfff8cb1e8f124b085d2bafb9760208360060b92838152a1610be5610be0614070565b612488565b60020b13156109515760e1549060181b69ffffffffffffff000000169069ffffffffffffff00000019161760e1555f80f35b3461046d575f36600319011261046d57602063ffffffff60e15460501c16604051908152f35b9181601f8401121561046d578235916001600160401b03831161046d576020808501948460051b01011161046d57565b60809061010319011261046d5761010490565b3461046d5761018036600319011261046d57600435610c9e816104fc565b60243590610cab826104fc565b604435610cb7816104fc565b60643592610cc4846104fc565b608435610cd0816104fc565b60a435610cdc816104fc565b610ce46105a5565b60e435969092906001600160401b03881161046d57610d0a610532983690600401610c3d565b969095610d1636610c6d565b98612516565b3461046d575f602036600319011261046d576004356033546001600160a01b031633141580610deb575b610ddc576001600160a01b03610d5a612c03565b16803b1561046d575f8091602460405180948193631f2afc9960e11b83528760048401525af18015610dd757610dc0575b506040519081527f9163810ee1e29168d4ce900e48a333fb8fbd3fd070d2bef67f6d4db0846a469f9080602081015b0390a180f35b610dcd9192505f90610a68565b5f90610dba610d8b565b611d20565b63607e454560e11b5f5260045ffd5b506001600160a01b03610dfc612f92565b16331415610d46565b3461046d575f36600319011261046d576033546001600160a01b03163381141580610ecc575b610ddc5715610ebd57610e3c6142a3565b60655460ff811615610e815760ff19166065557f5db9ee0a495bf2e6ff9c91a7834c1ba4fdd244a5e8aa4e537bd38aeae4b073aa6020604051338152a16106f4613cb7565b60405162461bcd60e51b815260206004820152601460248201527314185d5cd8589b194e881b9bdd081c185d5cd95960621b6044820152606490fd5b63ea8e4eb560e01b5f5260045ffd5b506001600160a01b03610edd612f92565b16331415610e2b565b3461046d57604036600319011261046d57602435600435610f0561404d565b80610f90575b5080610f5f575b50610f22610f1e614372565b1590565b610f52575b5f5160206159e85f395f51905f52610f3d612d10565b90610f4d60405192839283610471565b0390a1005b610f5a613d8b565b610f27565b610f8a90610f79610f74610f7460d7546104f0565b6104f0565b610f846098546104f0565b90614338565b5f610f12565b60d654609854610fae92916001600160a01b031690610f84906104f0565b5f610f0b565b3461046d575f36600319011261046d57609e54420342811161101657610e1081101561101b57610e1003610e108111611016575b610e1061100581610ffb84609c54612bf0565b0492609d54612bf0565b04906104aa60405192839283610471565b6120b8565b505f610fe8565b3461046d575f36600319011261046d5761053232613344565b3461046d575f36600319011261046d576020611055612c03565b6040516001600160a01b039091168152f35b3461046d575f36600319011261046d5760d15460405163ddca3f4360e01b815290602090829060049082906001600160a01b03165afa908115610dd7575f916110d8575b6104aa6110c86110bf62ffffff8516612bcc565b620f4240900490565b6040519081529081906020820190565b90506020813d602011611110575b816110f360209383610a68565b8101031261046d575162ffffff8116810361046d576110c86110ab565b3d91506110e6565b3461046d575f36600319011261046d57602060ff606554166040519015158152f35b3461046d575f36600319011261046d5760d6546040516001600160a01b039091168152602090f35b3461046d57604036600319011261046d576004356024356033546001600160a01b031633141580611242575b610ddc5761119a61363a565b6111a26137ec565b6111aa6143d2565b60655460ff811661120a5760019060ff1916176065555f516020615a285f395f51905f526020604051338152a16111df612d10565b9211918215611200575b50506111f157005b63fa6ad35560e01b5f5260045ffd5b1090505f806111e9565b60405162461bcd60e51b815260206004820152601060248201526f14185d5cd8589b194e881c185d5cd95960821b6044820152606490fd5b506001600160a01b03611253612f92565b1633141561118e565b3461046d575f36600319011261046d5760d8546040516001600160a01b039091168152602090f35b3461046d575f36600319011261046d5760206040515f8152f35b3461046d575f36600319011261046d57602060e15460181c60060b604051908152f35b3461046d575f36600319011261046d576112d96135e2565b61053261444c565b3461046d57602036600319011261046d577f173d73afad648e625c4a53878536f7a2debed1f51a04f21d728bce3cf534fcc16020600435611321816104fc565b6113296135e2565b60d880546001600160a01b0319166001600160a01b03929092169182179055604051908152a1005b3461046d575f36600319011261046d5761049a612d10565b3461046d575f36600319011261046d57602060e15460020b604051908152f35b3461046d575f36600319011261046d576020609f54604051908152f35b3461046d575f36600319011261046d5760d7546040516001600160a01b039091168152602090f35b3461046d575f36600319011261046d57602460206001600160a01b036113f2612c03565b1660405192838092636788231160e11b82523060048301525afa8015610dd7576104aa915f9161142e575b506040519081529081906020820190565b611450915060203d602011611456575b6114488183610a68565b810190611d11565b5f61141d565b503d61143e565b3461046d575f36600319011261046d576033546040516001600160a01b039091168152602090f35b3461046d575f36600319011261046d576020611055612d3d565b3461046d575f36600319011261046d576104aa604051610af581610aee8160dc610998565b908152600291820b602082015291900b604082015260600190565b3461046d575f36600319011261046d5760df5460e054906104aa6040519283928160181c60020b9160020b90846114c4565b3461046d575f36600319011261046d57602060d954604051908152f35b3461046d575f36600319011261046d576020611548612db3565b6040519015158152f35b3461046d575f36600319011261046d576020610867612e4c565b3461046d575f36600319011261046d57602061086761159a6001600160a01b03611594612ffa565b166144ce565b612eea565b3461046d575f36600319011261046d5760d4546040516001600160a01b039091168152602090f35b3461046d575f36600319011261046d576020611055612f92565b3461046d575f36600319011261046d575f604080516115ff81610a2d565b611607612fc9565b815282602082015201526116196146b6565b6040519061162682610a2d565b815260208101905f825260408101915f83526040519283926020845251916060602085015282516080850152602083015160a0850152604083015160c0850152606083015160e085015260a061168d608085015160c0610100880152610140870190610aa5565b93015115156101208501525160408401525160608301520390f35b3461046d575f36600319011261046d576116c06135e2565b600460206116d5610f74610f746098546104f0565b6040516318160ddd60e01b815292839182905afa8015610dd7576103e8915f916117cb575b5003610ebd57611708612c63565b611710612d3d565b611721610f74610f7460d6546104f0565b6040516370a0823160e01b81526020818061173f3060048301610534565b0381855afa908115610dd75761175e9284915f936117aa575b50614338565b61176f610f74610f7460d7546104f0565b6040516370a0823160e01b8152916020838061178e3060048301610534565b0381855afa918215610dd7576112d9935f936117aa5750614338565b6117c491935060203d602011611456576114488183610a68565b915f611758565b6117e4915060203d602011611456576114488183610a68565b5f6116fa565b3461046d575f36600319011261046d576020611055612ffa565b3461046d575f36600319011261046d5760dd5460de54906104aa6040519283928160181c60020b9160020b90846114c4565b3461046d575f36600319011261046d57609b546040516001600160a01b039091168152602090f35b3461046d575f36600319011261046d5760d2546040516001600160a01b039091168152602090f35b3461046d57602036600319011261046d576004356118a3816104fc565b609a54906001600160a01b0382163303611900576001600160a01b03166001600160a01b0319919091168117609a556040519081527f46d58e3fa07bf19b1d27240f0e286b27e9f7c1b0d88933333fe833b60eec541290602090a1005b633163ba6d60e11b5f5260045ffd5b3461046d575f36600319011261046d576119276147d8565b609b546040516305226abd60e51b81529060209082906001600160a01b031681806119553360048301610534565b03915afa908115610dd7575f91611975575b5015610ebd576105326147f6565b611997915060203d60201161199d575b61198f8183610a68565b810190613052565b5f611967565b503d611985565b3461046d575f36600319011261046d576119bc6147d8565b6119c461404d565b60e15460ff8160701c16156119dc575b610f27613d8b565b6119e46147d8565b6119ec611e76565b6119f7610650614070565b611a05610668848385615692565b62ffffff1960de54169062ffffff161760de55611a20611d2b565b5f9180611a95575b5080821015611a695750509180826106cc82611a47966106e596615692565b611a5042609f55565b60e1805460ff60701b1916600160701b1790555f6119d4565b93919310611a7a575b505050611a47565b611a8d9282610720838061073a96615692565b5f8080611a72565b9091506a0c097ce7bc90715b34b9f160241b90611ab490610768612f7c565b04905f611a28565b3461046d57602036600319011261046d577f5ca6e64c4522e68e154aa9372f2c5969cd37d9640e59f66953dc472f54ee86fa6020600435611afc816104fc565b611b046135e2565b611b0c6143d2565b609980546001600160a01b0319166001600160a01b03929092169182179055611b336142a3565b604051908152a1005b3461046d575f36600319011261046d576104aa604051610af581610aee8160da610998565b3461046d575f36600319011261046d5760d3546040516001600160a01b039091168152602090f35b3461046d575f36600319011261046d5760de5461049a61159a611bbb816001600160a01b03611594600287900b614938565b926001600160a01b03906115949060181c60020b614938565b3461046d575f36600319011261046d576020609e54604051908152f35b3461046d575f36600319011261046d5760d5546040516001600160a01b039091168152602090f35b3461046d57602036600319011261046d57600435611c36816104fc565b611c3e6135e2565b6001600160a01b03811615611c56576105329061447c565b60405162461bcd60e51b815260206004820152602660248201527f4f776e61626c653a206e6577206f776e657220697320746865207a65726f206160448201526564647265737360d01b6064820152608490fd5b3461046d575f36600319011261046d576098546040516001600160a01b039091168152602090f35b3461046d575f36600319011261046d5760c0611cec61311d565b93604093919351958652602086015260408501526060840152608083015260a0820152f35b9081602091031261046d575190565b6040513d5f823e3d90fd5b611d3c610f74610f7460d6546104f0565b90602060405180936370a0823160e01b82528180611d5d3060048301610534565b03915afa918215610dd7575f92611dd5575b50611d81610f74610f7460d7546104f0565b91602060405180946370a0823160e01b82528180611da23060048301610534565b03915afa928315610dd7575f93611db857509190565b611dd291935060203d602011611456576114488183610a68565b90565b611def91925060203d602011611456576114488183610a68565b905f611d6f565b51906105b28261059a565b519061ffff8216820361046d57565b5190811515820361046d57565b91908260c091031261046d578151611e34816104fc565b916020810151611e438161059a565b91611e5060408301611e01565b91611e5d60608201611e01565b91611dd260a0611e6f60808501611e01565b9301611e10565b60d154604051633850c7bd60e01b81529060c090829060049082906001600160a01b03165afa908115610dd7575f91611ead575090565b611ecf915060c03d60c011611ed8575b611ec78183610a68565b810190611e1d565b50505050905090565b503d611ebd565b604051906105b260a083610a68565b604051906105b2608083610a68565b604051906105b261018083610a68565b6001600160401b038111610a485760051b60200190565b634e487b7160e01b5f52603260045260245ffd5b805115611f455760200190565b611f24565b805160011015611f455760400190565b8051821015611f455760209160051b010190565b9080601f8301121561046d578151611f8581611f0d565b92611f936040519485610a68565b81845260208085019260051b82010192831161046d57602001905b828210611fbb5750505090565b602080918351611fca816104fc565b815201910190611fae565b91909160408184031261046d5780516001600160401b03811161046d57810183601f8201121561046d5780519061200b82611f0d565b916120196040519384610a68565b80835260208084019160051b8301019186831161046d57602001905b82821061205f5750505060208201519093906001600160401b03811161046d57611dd29201611f6e565b60208091835161206e81610b76565b815201910190612035565b60206040818301928281528451809452019201905f5b81811061209c5750505090565b825163ffffffff1684526020938401939092019160010161208f565b634e487b7160e01b5f52601160045260245ffd5b600691820b910b0390667fffffffffffff198212667fffffffffffff83131761101657565b634e487b7160e01b5f52601260045260245ffd5b60060b9060060b90811561212b57667fffffffffffff1981145f19831416611016570590565b6120f1565b6040516060906121408282610a68565b600281526121b091601f190136602083013760e1545f9060501c63ffffffff16916121798361216e83611f38565b9063ffffffff169052565b8161218382611f4a565b52612195610f74610f7460d1546104f0565b604051808096819463883bdbfd60e01b835260048301612079565b03915afa918215610dd7576122036121f6611dd294612209935f9161220f575b506121f06121e36121ea6121e384611f4a565b5160060b90565b92611f38565b906120cc565b9263ffffffff1660030b90565b60030b90565b90612105565b61222b91503d805f833e6122238183610a68565b810190611fd5565b505f6121d0565b61223d60da54610960565b156122ef576040515f60da5461225281610960565b80845290600181169081156122cb5750600114612280575b509061227b81611dd2930382610a68565b613f91565b60da5f9081525f516020615a485f395f51905f52939250905b8082106122b15750909150810160200161227b61226a565b919260018160209254838588010152019101909291612299565b60ff191660208086019190915291151560051b8401909101915061227b905061226a565b6122f85f611f0d565b6123056040519182610a68565b5f8152601f196123145f611f0d565b0136602083013790565b9081602091031261046d575160ff8116810361046d5790565b60ff16604d811161101657600a0a90565b801561212b575f190490565b919060408352602061236a6040850160dc610998565b930152565b919060408352602061236a6040850160db610998565b61239060d7546104f0565b600460206123a0610f74846104f0565b60405163313ce56760e01b815292839182905afa908115610dd7576123d7916123d0915f91612459575b50612337565b600a900490565b906123e6610f746097546104f0565b6001600160a01b0390911614611dd257602061242b5f9261240e610f74610f7460d2546104f0565b9060405194858094819363cdca175360e01b835260048301612354565b03925af1908115610dd7575f91612440575090565b611dd2915060203d602011611456576114488183610a68565b61247b915060203d602011612481575b6124738183610a68565b81019061231e565b5f6123ca565b503d612469565b60020b60021b908160020b91820361101657565b9060020b9060020b02908160020b91820361101657565b156124ba57565b60405162461bcd60e51b815260206004820152602e60248201527f496e697469616c697a61626c653a20636f6e747261637420697320616c72656160448201526d191e481a5b9a5d1a585b1a5e995960921b6064820152608490fd5b989694929091612562989694925f549a61254860ff8d60081c16151515809d816125e1575b81156125c1575b506124b3565b8b612559600160ff195f5416175f55565b6125aa5761297b565b61256857565b61257661ff00195f54165f55565b604051600181527f7f26b83ff96e1f2b6a682f133852f6798a09c465da95921460cefb38474024989080602081015b0390a1565b6125bc61010061ff00195f5416175f55565b61297b565b303b159150816125d3575b505f612542565b60ff1660011490505f6125cc565b600160ff821610915061253b565b51906105b2826104fc565b9081602091031261046d5751611dd2816104fc565b9015611f4557803590601e198136030182121561046d5701803591906001600160401b03831161046d57602001823603811361046d579190565b9060011015611f4557602081013590601e198136030182121561046d5701803591906001600160401b03831161046d57602001823603811361046d579190565b9060021015611f4557604081013590601e198136030182121561046d5701803591906001600160401b03831161046d57602001823603811361046d579190565b601f82116126d657505050565b5f5260205f20906020601f840160051c8301931061270e575b601f0160051c01905b818110612703575050565b5f81556001016126f8565b90915081906126ef565b8160011b915f199060031b1c19161790565b91906001600160401b038111610a48576127508161274960da54610960565b60da6126c9565b5f601f821160011461278157819061277193945f92612776575b5050612718565b60da55565b013590505f8061276a565b60da5f52601f198216935f516020615a485f395f51905f52915f5b8681106127d357508360019596106127ba575b505050811b0160da55565b01355f19600384901b60f8161c191690555f80806127af565b9092602060018192868601358155019401910161279c565b91906001600160401b038111610a48576128118161280a60db54610960565b60db6126c9565b5f601f821160011461283657819061283193945f92612776575050612718565b60db55565b60db5f52601f198216937f4c0d3471ead8ee99fbd8249e33f683e07c6cd6071fe102dd09617b2c353de430915f5b86811061289b5750836001959610612882575b505050811b0160db55565b01355f19600384901b60f8161c191690555f8080612877565b90926020600181928686013581550194019101612864565b91906001600160401b038111610a48576128d9816128d260dc54610960565b60dc6126c9565b5f601f82116001146128fe5781906128f993945f92612776575050612718565b60dc55565b60dc5f52601f198216937f3162b0988d4210bff484413ed451d170a03887272177efc0b7d000f10abe9edf915f5b868110612963575083600195961061294a575b505050811b0160dc55565b01355f19600384901b60f8161c191690555f808061293f565b9092602060018192868601358155019401910161292c565b9598916129fb612a61966129d9612a1d9461299c612a3f98979d9c9d61413c565b60d180546001600160a01b0319166001600160a01b038d1617905560d280546001600160a01b0319166001600160a01b0392909216919091179055565b60d580546001600160a01b0319166001600160a01b0392909216919091179055565b60d380546001600160a01b0319166001600160a01b0392909216919091179055565b60d480546001600160a01b0319166001600160a01b0392909216919091179055565b60d880546001600160a01b0319166001600160a01b0392909216919091179055565b604051630dfe168160e01b815292906001600160a01b0316602084600481845afa908115610dd757612abc6020926004965f91612ba2575b5060d680546001600160a01b0319166001600160a01b0392909216919091179055565b60405163d21220a760e01b815294859182905afa8015610dd757612b5594612b0f612b2492612b4f965f91612b73575b5060d780546001600160a01b0319166001600160a01b0392909216919091179055565b62ffffff1960e154169062ffffff161760e155565b612b37612b31838361260f565b9061272a565b612b4a612b448383612649565b906127eb565b612689565b906128b3565b60e1805463ffffffff60501b1916600f60531b1790556105b26142a3565b612b95915060203d602011612b9b575b612b8d8183610a68565b8101906125fa565b5f612aec565b503d612b83565b612bb99150843d8611612b9b57612b8d8183610a68565b5f612a99565b9190820391821161101657565b90670de0b6b3a7640000820291808304670de0b6b3a7640000149015171561101657565b8181029291811591840414171561101657565b609b54604051634746fb5560e01b815290602090829060049082906001600160a01b03165afa908115610dd7575f91612c44575b506001600160a01b031690565b612c5d915060203d602011612b9b57612b8d8183610a68565b5f612c37565b6033546001600160a01b031633141580612ccd575b610ddc57612c8461363a565b612c8c6137ec565b612c946143d2565b60655460ff811661120a5760019060ff1916176065555f516020615a285f395f51905f526020604051338152a1612cc9612d10565b5050565b506001600160a01b03612cde612f92565b16331415612c78565b906001820180921161101657565b90601f820180921161101657565b9190820180921161101657565b612d18611d2b565b9190612d2261311d565b50505050908201809211611016578301809311611016579190565b609b54604051638e14545960e01b815290602090829060049082906001600160a01b03165afa908115610dd7575f91612d74575090565b611dd2915060203d602011612b9b57612b8d8183610a68565b9060060b9060060b0190667fffffffffffff198212667fffffffffffff83131761101657565b612dbb611e76565b612dc3612130565b612e0f61056f612e0760e15493612de08560181c60060b826120cc565b60060b620d89e719811315612e3e57612e019060060b5b9560181c60060b90565b90612d8d565b60060b6144b1565b9160020b809160060b13918215612e31575b505015612e2c575f90565b600190565b60060b1290505f80612e21565b50612e01620d89e719612df7565b612e5760d6546104f0565b60046020612e67610f74846104f0565b60405163313ce56760e01b815292839182905afa908115610dd757612e96916123d0915f916124595750612337565b90612ea5610f746097546104f0565b6001600160a01b0390911614611dd257602061242b5f92612ecd610f74610f7460d2546104f0565b9060405194858094819363cdca175360e01b83526004830161236f565b5f8115612f76578180600114612f6e57600214612f675760016101338310166001600b84101617612f5a575060015f1960025b60018111612f3357508290048111611016570290565b9280820481116110165760018416612f51575b80029260011c612f1d565b80920291612f46565b91906002900a9161101657565b5050600490565b505050600190565b50505f90565b611dd261159a6001600160a01b03611594612ffa565b609b5460405163aced166160e01b815290602090829060049082906001600160a01b03165afa908115610dd7575f91612d74575090565b60405190612fd682610a4d565b5f60a083828152826020820152826040820152826060820152606060808201520152565b60d154604051633850c7bd60e01b81529060c090829060049082906001600160a01b03165afa908115610dd7575f91613031575090565b61304a915060c03d60c011611ed857611ec78183610a68565b505050505090565b9081602091031261046d57611dd290611e10565b51906001600160801b038216820361046d57565b91908261018091031261046d5781516001600160601b038116810361046d57916130a6602082016125ef565b916130b3604083016125ef565b916130c0606082016125ef565b916130cd60808301611df6565b916130da60a08201611df6565b916130e760c08301611df6565b916130f460e08201613066565b916101008201519161012081015191611dd26101606131166101408501613066565b9301613066565b613125612ffa565b905f915f905f935f5f905f9260dd54806132a9575b5060df54806131d9575b50916131b46131ba926131ae6131a66131876131c0989760de546131806131716131766131718460020b90565b614938565b9260181c60020b90565b908c614ca3565b9a909960e0546131a06131716131766131718460020b90565b91614ca3565b9b9098612d03565b97612d03565b94612d03565b95612d03565b936131cb8184612d03565b946131d68184612d03565b94565b90955061018091935061321892506131f8610f74610f7460d3546104f0565b604051808095819463133f757160e31b8352600483019190602083019252565b03915afa8015610dd7576131c0925f915f935f9161324e575b5091956001600160801b03928316945092909116916131b4613144565b61318794506131ba93506131b49150916131ae6132856131a6946101803d81116132a2575b61327d8183610a68565b81019061307a565b9a509d999f98505050945050505050959794505050509192613231565b503d613273565b90506132e6975061018091506132c6610f74610f7460d3546104f0565b60405180809a819463133f757160e31b8352600483019190602083019252565b03915afa958615610dd7575f965f915f91613312575b506001600160801b03918216979116905f61313a565b91505061332f9196506101803d81116132a25761327d8183610a68565b99509e9950505094505050505096905f6132fc565b61334c61363a565b60d954905f9161335a6146b6565b5f91806134ee575b509161342c6133f16133c1936133ec6133c96133996060896133a761339960405f516020615a685f395f51905f529d015188612bf0565b670de0b6b3a7640000900490565b998a809a6133bc610f74610f746097546104f0565b614338565b015184612bf0565b9586926133ec846133e1610f74610f746097546104f0565b610f84609a546104f0565b612bbf565b9261340f84613407610f74610f746097546104f0565b610f84612d3d565b604051938493846040919493926060820195825260208201520152565b0390a16134385f60d955565b613449610f74610f7460d8546104f0565b9061345560d5546104f0565b91803b1561046d576040516328f362b160e21b81526001600160a01b03939093166004840152602483018290526201518060448401525f908390606490829084905af1908115610dd7577f80f97f878e16410266694f134ddf012f2be424f54f8b5cafa107eccc51d00d58926125a5926134d4575b506110c842609e55565b806134e25f6134e893610a68565b80610463565b5f6134ca565b93509161342c6133f1846133ec6133c961339960606133c19861352e6135276133998e5f516020615a685f395f51905f529e5190612bf0565b809d612bbf565b9b5f916135396154cc565b61354460d5546104f0565b613552610f746097546104f0565b6001600160a01b03909116036135b0575b5061356f60d5546104f0565b61357d610f746097546104f0565b6001600160a01b03909116036135a8576135979250612d03565b945b97995050505050935050613362565b505094613599565b6135db9193506135d3836135c56099546104f0565b6135cd610a8b565b906155ee565b6133ec6154cc565b915f613563565b6033546001600160a01b031633036135f657565b606460405162461bcd60e51b815260206004820152602060248201527f4f776e61626c653a2063616c6c6572206973206e6f7420746865206f776e65726044820152fd5b613642614d24565b60dd5480613700575b5060df5480613687575b506125a56136735f5160206159c85f395f51905f52926133ec614d24565b6110c86136828260d954612d03565b60d955565b613698610f74610f7460d4546104f0565b803b1561046d57604051631c4b774b60e01b815260048101929092525f908290602490829084905af18015610dd7575f5160206159c85f395f51905f52926125a592613673926136ec575b50925050613655565b806134e25f6136fa93610a68565b5f6136e3565b613711610f74610f7460d4546104f0565b803b1561046d57604051631c4b774b60e01b815260048101929092525f908290602490829084905af18015610dd7571561364b57806134e25f61375393610a68565b5f61364b565b6040519060a082016001600160401b03811183821017610a48576040525f6080838281528260208201528260408201528260608201520152565b60405190608082016001600160401b03811183821017610a48576040525f6060838281528260208201528260408201520152565b6001600160a01b039091169052565b919082604091031261046d576020825192015190565b5f5f9060dd5480613bee575b5060df5480613b25575b5061380b613759565b50613814613793565b506001600160801b038116613a4c575b506001600160801b0381166138365750565b5f604061390860df549361386061384b611edf565b8681526001600160801b039092166020830152565b8383820152836060820152426080820152613879611eee565b94855261388930602087016137c7565b6001600160801b03858401526001600160801b0360608601526138b3610f74610f7460d3546104f0565b8351630624e65f60e11b81528251600482015260208301516001600160801b031660248201526040830151604482015260608301516064820152608090920151608483015290938492839190829060a4820190565b03925af18015610dd7575f9260409261398b92613a30575b50613932610f74610f7460d3546104f0565b835163fc6f786560e01b81528251600482015260208301516001600160a01b0316602482015260408301516001600160801b03908116604483015260609093015190921660648301529093849283919082906084820190565b03925af18015610dd757613a02575b506139ac610f74610f7460d3546104f0565b60df5490803b1561046d57604051630852cd8d60e31b815260048101929092525f908290602490829084905af18015610dd7576139ee575b506105b25f60df55565b806134e25f6139fc93610a68565b5f6139e4565b613a239060403d604011613a29575b613a1b8183610a68565b8101906137d6565b5061399a565b503d613a11565b613a4690843d8611613a2957613a1b8183610a68565b50613920565b5f6040613a6160dd549361386061384b611edf565b03925af18015610dd7575f92604092613a8a92613a305750613932610f74610f7460d3546104f0565b03925af18015610dd757613b07575b50613aab610f74610f7460d3546104f0565b60dd5490803b1561046d57604051630852cd8d60e31b815260048101929092525f908290602490829084905af18015610dd757613af3575b50613aed5f60dd55565b5f613824565b806134e25f613b0193610a68565b5f613ae3565b613b1f9060403d604011613a2957613a1b8183610a68565b50613a99565b9150613b38610f74610f7460d3546104f0565b60405163133f757160e31b8152600481018490529061018090829060249082905afa908115610dd7575f91613bc3575b5091613b7b610f74610f7460d4546104f0565b803b1561046d57604051632e1a7d4d60e01b815260048101929092525f908290602490829084905af18015610dd7571561380257806134e25f613bbd93610a68565b5f613802565b613bdc91506101803d81116132a25761327d8183610a68565b5050505096505050505050505f613b68565b9050613c01610f74610f7460d3546104f0565b60405163133f757160e31b8152600481018390529061018090829060249082905afa908115610dd7575f91613c8c575b5090613c44610f74610f7460d4546104f0565b803b1561046d57604051632e1a7d4d60e01b815260048101929092525f908290602490829084905af18015610dd757156137f857806134e25f613c8693610a68565b5f6137f8565b613ca591506101803d81116132a25761327d8183610a68565b5050505096505050505050505f613c31565b613cbf6147d8565b613cc7611e76565b613ccf614070565b90613cdf8260e15460020b61249c565b613ced610668848385615692565b62ffffff1960de54169062ffffff161760de55613d08611d2b565b5f9180613d64575b5080821015613d385750509180826106cc82613d2f966106e596615692565b6105b242609f55565b93919310613d49575b505050613d2f565b613d5c9282610720838061073a96615692565b5f8080613d41565b9091506a0c097ce7bc90715b34b9f160241b90613d8390610768612f7c565b04905f613d10565b613d93614d80565b613d9b611d2b565b60de54908083613db3600285900b9460181c60020b90565b9360e05495613dcf613dc58860020b90565b9760181c60020b90565b95613e04613ddb612ffa565b95613dfb613de886614938565b91613df285614938565b9586848b614dfc565b93849188614ca3565b9390926001600160801b0316151580613f79575b613f54575b5050505090613e4d91613e45613e3287614938565b94613e3c87614938565b92838786614dfc565b938492614ca3565b9290916001600160801b0316151580613f42575b613f30575b5050505060dd5480613ed7575b5060df5480613e7f5750565b613e90610f74610f7460d4546104f0565b803b1561046d5760405163b6b55f2560e01b815260048101929092525f908290818381602481015b03925af18015610dd757613ec95750565b806134e25f6105b293610a68565b613ee8610f74610f7460d4546104f0565b803b1561046d5760405163b6b55f2560e01b815260048101929092525f908290602490829084905af18015610dd75715613e7357806134e25f613f2a93610a68565b5f613e73565b613f39936150ce565b5f808080613e66565b5081151580613e615750821515613e61565b9091929350613f64949550614f6a565b613e4d613f6f611d2b565b92915f8080613e1d565b5082158015613f89575b15613e18565b508315613f83565b8051601319810191908211611016576017916017900490600182019283831161101657613fbd84611f0d565b93613fcb6040519586610a68565b808552613fda601f1991611f0d565b013660208601375f915b838310613ff2575050505090565b614045816140406140046001946157b8565b6140118684511015615827565b61402e61401e8785615808565b91614029898c611f5a565b6137c7565b61402961403a88612ce7565b8a611f5a565b615126565b920191613fe4565b6098546001600160a01b0316330361406157565b6362df054560e01b5f5260045ffd5b60d1546040516334324e9f60e21b815290602090829060049082906001600160a01b03165afa908115610dd7575f916140a7575090565b90506020813d6020116140d4575b816140c260209383610a68565b8101031261046d5751611dd28161059a565b3d91506140b5565b156140e357565b60405162461bcd60e51b815260206004820152602b60248201527f496e697469616c697a61626c653a20636f6e7472616374206973206e6f74206960448201526a6e697469616c697a696e6760a81b6064820152608490fd5b6141fe610f7460606142209361415860ff5f5460081c166140dc565b6141606151c3565b6141686151e5565b61419661417482614299565b609880546001600160a01b0319166001600160a01b0392909216919091179055565b6141c76141a560208301614299565b609980546001600160a01b0319166001600160a01b0392909216919091179055565b6141f86141d660408301614299565b609a80546001600160a01b0319166001600160a01b0392909216919091179055565b01614299565b609b80546001600160a01b0319166001600160a01b0392909216919091179055565b60046020614232610f74609b546104f0565b6040516311b0b42d60e01b815292839182905afa8015610dd7576105b2915f9161427a575b50609780546001600160a01b0319166001600160a01b0392909216919091179055565b614293915060203d602011612b9b57612b8d8183610a68565b5f614257565b35611dd2816104fc565b60d5546099546142bf916001600160a01b039182169116615205565b60d55460d8546142db916001600160a01b039182169116615205565b60d65460d3546142fe916001600160a01b0316906142f8906104f0565b90615205565b6105b2614312610f74610f7460d7546104f0565b6142f860d3546104f0565b6001600160a01b039091168152602081019190915260400190565b61436d6105b2939261435f60405194859263a9059cbb60e01b60208501526024840161431d565b03601f198101845283610a68565b61531e565b60ff6065541680156143815790565b50609b54604051631e25aa9b60e31b815290602090829060049082906001600160a01b03165afa908115610dd7575f916143b9575090565b611dd2915060203d60201161199d5761198f8183610a68565b60d5546099546143ee916001600160a01b0391821691166152f7565b60d55460d85461440a916001600160a01b0391821691166152f7565b60d65460d35461442d916001600160a01b031690614427906104f0565b906152f7565b6105b2614441610f74610f7460d7546104f0565b61442760d3546104f0565b603380546001600160a01b031981169091555f906001600160a01b03165f516020615a085f395f51905f528280a3565b603380546001600160a01b039283166001600160a01b0319821681179092559091165f516020615a085f395f51905f525f80a3565b620d89e88112156144bf5790565b50620d89e890565b1561046d57565b5f19670de0b6b3a76400008209670de0b6b3a764000082029182808310920391808303921461452657600160601b82101561046d57600160601b90670de0b6b3a7640000900990828211900360a01b910360601c1790565b505060601c90565b5f19828209908281029283808410930392808403931461456d57600160601b83101561046d57600160601b910990828211900360a01b910360601c1790565b50505060601c90565b5f19600160601b8209918160601b918280851094039380850394146145fc5781906145a28583116144c7565b600160601b9009600182190182168092046002816003021880820260020302808202600203028082026002030280820260020302808202600203028091026002030293600183805f03040190848311900302920304170290565b50915061460a8215156144c7565b0490565b90915f19838309928083029283808610950394808603951461468c579082916146388684116144c7565b09600182190182168092046002816003021880820260020302808202600203028082026002030280820260020302808202600203028091026002030293600183805f03040190848311900302920304170290565b5050915061460a8215156144c7565b6001600160401b038111610a4857601f01601f191660200190565b6146be612fc9565b5060245f6001600160a01b036146d2612c03565b1660405192838092639af608c960e01b82523060048301525afa908115610dd7575f916146fd575090565b90503d805f833e61470e8183610a68565b81019060208183031261046d578051906001600160401b03821161046d57019060c08282031261046d576040519161474583610a4d565b8051835260208082015190840152604080820151908401526060808201519084015260808101516001600160401b03811161046d5781019082601f8301121561046d578151926147948461469b565b906147a26040519283610a68565b8482526020858501011161046d575f6020856147d0968260a097018386015e83010152608085015201611e10565b60a082015290565b6147e0612db3565b156147e757565b6313643c3b60e11b5f5260045ffd5b6147fe61363a565b6148066137ec565b61480e6147d8565b614816611e76565b61481e614070565b9061482e8260e15460020b61249c565b61483c610668848385615692565b62ffffff1960de54169062ffffff161760de55614857611d2b565b5f91806148e1575b50808210156148b55750509180826106cc8261487e966106e596615692565b61488742609f55565b61488f613d8b565b5f5160206159e85f395f51905f526148a5612d10565b906125a560405192839283610471565b939193106148c6575b50505061487e565b6148d99282610720838061073a96615692565b5f80806148be565b9091506a0c097ce7bc90715b34b9f160241b9061490090610768612f7c565b04905f61485f565b1561490f57565b60405162461bcd60e51b81526020600482015260016024820152601560fa1b6044820152606490fd5b60020b5f811215614c9d57805f03905b614957620d89e8831115614908565b6001821615614c93576ffffcb933bd6fad37aa2d162d1a5940015b6001600160881b03169160028116614c77575b60048116614c5b575b60088116614c3f575b60108116614c23575b60208116614c07575b60408116614beb575b60808116614bcf575b6101008116614bb3575b6102008116614b97575b6104008116614b7b575b6108008116614b5f575b6110008116614b43575b6120008116614b27575b6140008116614b0b575b6180008116614aef575b620100008116614ad3575b620200008116614ab8575b620400008116614a9d575b6208000016614a84575b5f12614a76575b614a54614a4a8260201c90565b9163ffffffff1690565b614a6e575f905b60ff91909116016001600160a01b031690565b600190614a5b565b614a7f90612348565b614a3d565b6b048a170391f7dc42444e8fa290910260801c90614a36565b6d2216e584f5fa1ea926041bedfe9890920260801c91614a2c565b916e5d6af8dedb81196699c329225ee6040260801c91614a21565b916f09aa508b5b7a84e1c677de54f3e99bc90260801c91614a16565b916f31be135f97d08fd981231505542fcfa60260801c91614a0b565b916f70d869a156d2a1b890bb3df62baf32f70260801c91614a01565b916fa9f746462d870fdf8a65dc1f90e061e50260801c916149f7565b916fd097f3bdfd2022b8845ad8f792aa58250260801c916149ed565b916fe7159475a2c29b7443b29c7fa6e889d90260801c916149e3565b916ff3392b0822b70005940c7a398e4b70f30260801c916149d9565b916ff987a7253ac413176f2b074cf7815e540260801c916149cf565b916ffcbe86c7900a88aedcffc83b479aa3a40260801c916149c5565b916ffe5dee046a99a2a811c461f1969c30530260801c916149bb565b916fff2ea16466c96a3843ec78b326b528610260801c916149b2565b916fff973b41fa98c081472e6896dfb254c00260801c916149a9565b916fffcb9843d60f6159c9db58835c9266440260801c916149a0565b916fffe5caca7e10e4e61c3624eaa0941cd00260801c91614997565b916ffff2e50f5f656932ef12357cf3c7fdcc0260801c9161498e565b916ffff97272373d413259a46990580e213a0260801c91614985565b600160801b614972565b80614948565b9093925f929091836001600160a01b0380841690881611614d1c575b6001600160a01b038281169088168111614ce457505050614ce1929394615462565b91565b93945090926001600160a01b0383161115614d10575090614d0a83611dd2949383615462565b9461541f565b94611dd293925061541f565b959195614cbf565b60d5546040516370a0823160e01b815230600482015290602090829060249082906001600160a01b03165afa908115610dd7575f91612440575090565b60e0549060181b65ffffff000000169065ffffff00000019161760e055565b60ff606554168015614da2575b614d9357565b63e628b94960e01b5f5260045ffd5b50609b54604051631e25aa9b60e31b815290602090829060049082906001600160a01b03165afa908115610dd7575f91614ddd575b50614d8d565b614df6915060203d60201161199d5761198f8183610a68565b5f614dd7565b936001600160a01b0383811690831611614e88575b6001600160a01b03858116959083168611614e32575050611dd29350615764565b919490939192906001600160a01b0382161115614e7c578291614e5991614e5f9594615764565b93615721565b6001600160801b038181169083161015614e77575090565b905090565b915050611dd292615721565b909190614e11565b919082608091031261046d57815191614eab60208201613066565b916060604083015192015190565b81516001600160a01b03168152610180810192916105b291906101609081906020818101516001600160a01b03169085015260408181015160020b9085015260608181015160020b9085015260808181015160020b9085015260a0818101519085015260c0808201519085015260e080820151908501526101008082015190850152610120808201516001600160a01b031690850152610140818101519085015201516001600160a01b0316910152565b5f93608093614fd761503894614fce614f8460d6546104f0565b95614fc4614f9360d7546104f0565b614fba614f9e614070565b91614fb1614faa611efd565b9b8c6137c7565b60208b016137c7565b60020b6040890152565b60020b6060870152565b60020b84870152565b60a083015260c08201528360e082015283610100820152614ffc3061012083016137c7565b426101408201528361016082015261501b610f74610f7460d3546104f0565b9060405194858094819363b5007d1f60e01b835260048301614eb9565b03925af1908115610dd7575f9161509c575b506150548160dd55565b615065610f74610f7460d3546104f0565b9061507160d4546104f0565b90823b1561046d57613eb8925f928360405180968195829463095ea7b360e01b84526004840161431d565b6150be915060803d6080116150c7575b6150b68183610a68565b810190614e90565b5050505f61504a565b503d6150ac565b5f93608093614fd76150e894614fce614f8460d6546104f0565b03925af1908115610dd7575f91615104575b506150548160df55565b61511d915060803d6080116150c7576150b68183610a68565b5050505f6150fa565b80519060178203918083116110165760179061514c8461514581612cf5565b101561586a565b615162835161515b8685612d03565b11156158a7565b036151795750506040515f81526020810160405290565b60405191601f8116916017831560051b80858701019484860193010101905b8084106151b05750508252601f01601f191660405290565b9092602080918551815201930190615198565b6151dc60ff5f5460081c166151d7816140dc565b6140dc565b6105b23361447c565b6151f960ff5f5460081c166151d7816140dc565b60ff1960655416606555565b6040519061526a6020830163095ea7b360e01b815261523b8461522d5f19886024840161431d565b03601f198101865285610a68565b83516001600160a01b038416915f91829182855af1906152596158e7565b826152c5575b50816152be57501590565b61527357505050565b60405163095ea7b360e01b60208201526001600160a01b0390931660248401525f60448401526105b29261436d906152b881606481015b03601f198101835282610a68565b8261531e565b3b15919050565b805191925081159182156152dd575b5050905f61525f565b6152f09250602080918301019101613052565b5f806152d4565b6040519061526a6020830163095ea7b360e01b815261523b8461522d5f886024840161431d565b9061537e9160018060a01b03165f806040519361533c604086610a68565b602085527f5361666545524332303a206c6f772d6c6576656c2063616c6c206661696c6564602086015260208151910182855af16153786158e7565b9161592a565b80519081159182156153ec575b50501561539457565b60405162461bcd60e51b815260206004820152602a60248201527f5361666545524332303a204552433230206f7065726174696f6e20646964206e6044820152691bdd081cdd58d8d9595960b21b6064820152608490fd5b6153ff9250602080918301019101613052565b5f8061538b565b6001600160a01b03918216908216039190821161101657565b611dd29291906001600160a01b038083169082161161545c575b6001600160a01b039161544c9190615406565b16906001600160801b031661452e565b90615439565b916154b0916001600160a01b03808216908516116154c6575b6001600160a01b0361548d8583615406565b6001600160a01b039092169291169060601b600160601b600160e01b031661460e565b6001600160a01b0390911690811561212b570490565b9261547b565b6097546040516370a0823160e01b815230600482015290602090829060249082906001600160a01b03165afa908115610dd7575f91612440575090565b6040805190919061551a8382610a68565b6001815291601f1901825f5b82811061553257505050565b806060602080938501015201615526565b9392919061555990606086526060860190610aa5565b908482036020860152805180835260208301926020808360051b8301019301935f915b838310615590575050505060409150930152565b909192936020806155ad600193601f198682030187528951610aa5565b970193019301919493929061557c565b939261236a90600193608093858060a01b0316875260208701525f604087015260a0606087015260a0860190610aa5565b90916156079061435f60405194859230602085016155bd565b61560f615509565b9161561983611f38565b5261562382611f38565b506040515f60208201526001600160a01b0391909116919061564881602181016152aa565b823b1561046d57613eb8925f9283604051809681958294630d64d59360e21b8452429160048501615543565b9060020b9060020b0190627fffff198212627fffff83131761101657565b9291909260020b8160020b90811561212b57627fffff1981145f1983141661101657818105915f82129182615712575b50506156fa575b906156d39161249c565b918060020b8360020b0390627fffff8213627fffff1983121761101657611dd29193615674565b60020b90627fffff19821461101657905f19016156c9565b0760020b151590505f806156c2565b611dd2926157599290916001600160a01b038083169082161161575e575b6001600160a01b03916157529190615406565b1690614576565b615916565b9061573f565b611dd292615759929091906001600160a01b03808216908316116157b2575b6157ab61579c6001600160a01b0383811690851661452e565b926001600160a01b0392615406565b169161460e565b90615783565b60148151106157cb576020015160601c90565b60405162461bcd60e51b8152602060048201526015602482015274746f416464726573735f6f75744f66426f756e647360581b6044820152606490fd5b908151601482019081831161101657106157cb57016020015160601c90565b1561582e57565b60405162461bcd60e51b8152602060048201526014602482015273746f55696e7432345f6f75744f66426f756e647360601b6044820152606490fd5b1561587157565b60405162461bcd60e51b815260206004820152600e60248201526d736c6963655f6f766572666c6f7760901b6044820152606490fd5b156158ae57565b60405162461bcd60e51b8152602060048201526011602482015270736c6963655f6f75744f66426f756e647360781b6044820152606490fd5b3d15615911573d906158f88261469b565b916159066040519384610a68565b82523d5f602084013e565b606090565b6001600160801b0381169190820361046d57565b9192901561598c575081511561593e575090565b3b156159475790565b60405162461bcd60e51b815260206004820152601d60248201527f416464726573733a2063616c6c20746f206e6f6e2d636f6e74726163740000006044820152606490fd5b82519091501561599f5750805190602001fd5b60405162461bcd60e51b8152602060048201529081906159c3906024830190610aa5565b0390fdfe1eae7da9527d10df3df1fd29ae9bb3dc5028f6e7606970c9feefadfe7f974673631c4f79c14099a717f4be2f25e6cef89e310b3944ef0e44ea2c0811ebb982a88be0079c531659141344cd1fd0a4f28419497f9722a3daafe3b4186f6b6457e062e78cea01bee320cd4e420270b5ea74000d11b0c9f74754ebdbfc544b05a258b3d6e86317c38844915b053a0c35ff2fc103b684e96cef2918ab06844eb51aafd255b592c7f268a73e534da5219a60ff911b4cf6daae21c7d20527dd657bd99aa2646970667358221220b683a9b668585782945dd0f020340c6d249ee01489fcee8ebf12b5b44bf7ea7b64736f6c634300081c0033","linkReferences":{}},"methodIdentifiers":{"balances()":"7bb98a68","balancesOfPool()":"fcc25e13","balancesOfThis()":"00a4b5c9","beefyFeeConfig()":"4746fb55","beefyFeeRecipient()":"8e145459","beforeAction()":"17dd7a72","currentTick()":"065e5360","deposit()":"d0e30db0","depositFee()":"67a52793","factory()":"c45a0155","fees()":"9af1d35a","gauge()":"a6f19c84","getAllFees()":"b20feaaf","getStratFeeId()":"8cfc0250","harvest()":"4641257d","harvest(address)":"0e5c011e","initialize(address,address,address,address,address,address,int24,bytes[],(address,address,address,address))":"3c334dd5","isCalm()":"9bdde46b","keeper()":"aced1661","lastHarvest()":"f1a392da","lastPositionAdjustment()":"865238d4","lockedProfit()":"44b81396","lpToken0()":"5ee167c0","lpToken0ToNativePath()":"1dcfeddd","lpToken0ToNativePrice()":"9c6d4904","lpToken1()":"877562b6","lpToken1ToNativePath()":"953d329f","lpToken1ToNativePrice()":"16b9cd9c","maxTickDeviation()":"696c58e5","moveTicks()":"c7d54132","native()":"11b0b42d","nftManager()":"e88b91ea","onERC721Received(address,address,uint256,bytes)":"150b7a02","output()":"f20eaeb8","outputToNative()":"13e120b1","outputToNativePath()":"e48f98fd","owner()":"8da5cb5b","panic(uint256,uint256)":"60991346","paused()":"5c975abb","pool()":"16f0115b","positionAlt()":"99cd2446","positionMain()":"bc415d8a","positionWidth()":"8097e249","price()":"a035b1fe","quoter()":"c6bbd5a7","range()":"e97206a9","renounceOwnership()":"715018a6","retireVault()":"b3a60cb3","rewardPool()":"66666aa9","setDeviation(int56)":"362c28c6","setPositionWidth(int24)":"12cf1381","setRewardPool(address)":"78238c37","setStratFeeId(uint256)":"3e55f932","setStrategist(address)":"c7b9d530","setTwapInterval(uint32)":"1d27050f","setUnirouter(address)":"d92f3d73","sqrtPrice()":"b83d2683","strategist()":"1fe4a686","swapFee()":"54cf2aeb","totalLocked0()":"2b950b66","totalLocked1()":"04c404b3","transferOwnership(address)":"f2fde38b","twap()":"1208aa18","twapInterval()":"3c1d5df0","unirouter()":"257ae0de","unpause()":"3f4ba83a","vault()":"fbfa77cf","withdraw(uint256,uint256)":"441a3e70","withdrawFee()":"e941fa78"},"id":164}