{"abi":[{"type":"function","name":"balances","inputs":[],"outputs":[{"name":"token0Bal","type":"uint256","internalType":"uint256"},{"name":"token1Bal","type":"uint256","internalType":"uint256"}],"stateMutability":"view"},{"type":"function","name":"balancesOfPool","inputs":[],"outputs":[{"name":"token0Bal","type":"uint256","internalType":"uint256"},{"name":"token1Bal","type":"uint256","internalType":"uint256"},{"name":"mainAmount0","type":"uint256","internalType":"uint256"},{"name":"mainAmount1","type":"uint256","internalType":"uint256"},{"name":"altAmount0","type":"uint256","internalType":"uint256"},{"name":"altAmount1","type":"uint256","internalType":"uint256"}],"stateMutability":"view"},{"type":"function","name":"balancesOfThis","inputs":[],"outputs":[{"name":"token0Bal","type":"uint256","internalType":"uint256"},{"name":"token1Bal","type":"uint256","internalType":"uint256"}],"stateMutability":"view"},{"type":"function","name":"beefyFeeConfig","inputs":[],"outputs":[{"name":"","type":"address","internalType":"contract IFeeConfig"}],"stateMutability":"view"},{"type":"function","name":"beefyFeeRecipient","inputs":[],"outputs":[{"name":"","type":"address","internalType":"address"}],"stateMutability":"view"},{"type":"function","name":"beforeAction","inputs":[],"outputs":[],"stateMutability":"nonpayable"},{"type":"function","name":"currentTick","inputs":[],"outputs":[{"name":"tick","type":"int24","internalType":"int24"}],"stateMutability":"view"},{"type":"function","name":"deposit","inputs":[],"outputs":[],"stateMutability":"nonpayable"},{"type":"function","name":"depositFee","inputs":[],"outputs":[{"name":"","type":"uint256","internalType":"uint256"}],"stateMutability":"view"},{"type":"function","name":"factory","inputs":[],"outputs":[{"name":"","type":"address","internalType":"contract IStrategyFactory"}],"stateMutability":"view"},{"type":"function","name":"fees","inputs":[],"outputs":[{"name":"","type":"uint256","internalType":"uint256"}],"stateMutability":"view"},{"type":"function","name":"gauge","inputs":[],"outputs":[{"name":"","type":"address","internalType":"address"}],"stateMutability":"view"},{"type":"function","name":"getAllFees","inputs":[],"outputs":[{"name":"","type":"tuple","internalType":"struct IFeeConfig.AllFees","components":[{"name":"performance","type":"tuple","internalType":"struct IFeeConfig.FeeCategory","components":[{"name":"total","type":"uint256","internalType":"uint256"},{"name":"beefy","type":"uint256","internalType":"uint256"},{"name":"call","type":"uint256","internalType":"uint256"},{"name":"strategist","type":"uint256","internalType":"uint256"},{"name":"label","type":"string","internalType":"string"},{"name":"active","type":"bool","internalType":"bool"}]},{"name":"deposit","type":"uint256","internalType":"uint256"},{"name":"withdraw","type":"uint256","internalType":"uint256"}]}],"stateMutability":"view"},{"type":"function","name":"getStratFeeId","inputs":[],"outputs":[{"name":"","type":"uint256","internalType":"uint256"}],"stateMutability":"view"},{"type":"function","name":"harvest","inputs":[{"name":"_callFeeRecipient","type":"address","internalType":"address"}],"outputs":[],"stateMutability":"nonpayable"},{"type":"function","name":"harvest","inputs":[],"outputs":[],"stateMutability":"nonpayable"},{"type":"function","name":"initialize","inputs":[{"name":"_pool","type":"address","internalType":"address"},{"name":"_quoter","type":"address","internalType":"address"},{"name":"_nftManager","type":"address","internalType":"address"},{"name":"_gauge","type":"address","internalType":"address"},{"name":"_rewardPool","type":"address","internalType":"address"},{"name":"_output","type":"address","internalType":"address"},{"name":"_positionWidth","type":"int24","internalType":"int24"},{"name":"_paths","type":"bytes[]","internalType":"bytes[]"},{"name":"_commonAddresses","type":"tuple","internalType":"struct StratFeeManagerInitializable.CommonAddresses","components":[{"name":"vault","type":"address","internalType":"address"},{"name":"unirouter","type":"address","internalType":"address"},{"name":"strategist","type":"address","internalType":"address"},{"name":"factory","type":"address","internalType":"address"}]}],"outputs":[],"stateMutability":"nonpayable"},{"type":"function","name":"isCalm","inputs":[],"outputs":[{"name":"","type":"bool","internalType":"bool"}],"stateMutability":"view"},{"type":"function","name":"keeper","inputs":[],"outputs":[{"name":"","type":"address","internalType":"address"}],"stateMutability":"view"},{"type":"function","name":"lastHarvest","inputs":[],"outputs":[{"name":"","type":"uint256","internalType":"uint256"}],"stateMutability":"view"},{"type":"function","name":"lastPositionAdjustment","inputs":[],"outputs":[{"name":"","type":"uint256","internalType":"uint256"}],"stateMutability":"view"},{"type":"function","name":"lockedProfit","inputs":[],"outputs":[{"name":"locked0","type":"uint256","internalType":"uint256"},{"name":"locked1","type":"uint256","internalType":"uint256"}],"stateMutability":"view"},{"type":"function","name":"lpToken0","inputs":[],"outputs":[{"name":"","type":"address","internalType":"address"}],"stateMutability":"view"},{"type":"function","name":"lpToken0ToNativePath","inputs":[],"outputs":[{"name":"","type":"bytes","internalType":"bytes"}],"stateMutability":"view"},{"type":"function","name":"lpToken0ToNativePrice","inputs":[],"outputs":[{"name":"","type":"uint256","internalType":"uint256"}],"stateMutability":"nonpayable"},{"type":"function","name":"lpToken1","inputs":[],"outputs":[{"name":"","type":"address","internalType":"address"}],"stateMutability":"view"},{"type":"function","name":"lpToken1ToNativePath","inputs":[],"outputs":[{"name":"","type":"bytes","internalType":"bytes"}],"stateMutability":"view"},{"type":"function","name":"lpToken1ToNativePrice","inputs":[],"outputs":[{"name":"","type":"uint256","internalType":"uint256"}],"stateMutability":"nonpayable"},{"type":"function","name":"maxTickDeviation","inputs":[],"outputs":[{"name":"","type":"int56","internalType":"int56"}],"stateMutability":"view"},{"type":"function","name":"moveTicks","inputs":[],"outputs":[],"stateMutability":"nonpayable"},{"type":"function","name":"native","inputs":[],"outputs":[{"name":"","type":"address","internalType":"address"}],"stateMutability":"view"},{"type":"function","name":"nftManager","inputs":[],"outputs":[{"name":"","type":"address","internalType":"address"}],"stateMutability":"view"},{"type":"function","name":"onERC721Received","inputs":[{"name":"","type":"address","internalType":"address"},{"name":"","type":"address","internalType":"address"},{"name":"","type":"uint256","internalType":"uint256"},{"name":"","type":"bytes","internalType":"bytes"}],"outputs":[{"name":"","type":"bytes4","internalType":"bytes4"}],"stateMutability":"pure"},{"type":"function","name":"output","inputs":[],"outputs":[{"name":"","type":"address","internalType":"address"}],"stateMutability":"view"},{"type":"function","name":"outputToNative","inputs":[],"outputs":[{"name":"","type":"address[]","internalType":"address[]"}],"stateMutability":"view"},{"type":"function","name":"outputToNativePath","inputs":[],"outputs":[{"name":"","type":"bytes","internalType":"bytes"}],"stateMutability":"view"},{"type":"function","name":"owner","inputs":[],"outputs":[{"name":"","type":"address","internalType":"address"}],"stateMutability":"view"},{"type":"function","name":"panic","inputs":[{"name":"_minAmount0","type":"uint256","internalType":"uint256"},{"name":"_minAmount1","type":"uint256","internalType":"uint256"}],"outputs":[],"stateMutability":"nonpayable"},{"type":"function","name":"paused","inputs":[],"outputs":[{"name":"","type":"bool","internalType":"bool"}],"stateMutability":"view"},{"type":"function","name":"pool","inputs":[],"outputs":[{"name":"","type":"address","internalType":"address"}],"stateMutability":"view"},{"type":"function","name":"positionAlt","inputs":[],"outputs":[{"name":"nftId","type":"uint256","internalType":"uint256"},{"name":"tickLower","type":"int24","internalType":"int24"},{"name":"tickUpper","type":"int24","internalType":"int24"}],"stateMutability":"view"},{"type":"function","name":"positionMain","inputs":[],"outputs":[{"name":"nftId","type":"uint256","internalType":"uint256"},{"name":"tickLower","type":"int24","internalType":"int24"},{"name":"tickUpper","type":"int24","internalType":"int24"}],"stateMutability":"view"},{"type":"function","name":"positionWidth","inputs":[],"outputs":[{"name":"","type":"int24","internalType":"int24"}],"stateMutability":"view"},{"type":"function","name":"price","inputs":[],"outputs":[{"name":"_price","type":"uint256","internalType":"uint256"}],"stateMutability":"view"},{"type":"function","name":"quoter","inputs":[],"outputs":[{"name":"","type":"address","internalType":"address"}],"stateMutability":"view"},{"type":"function","name":"range","inputs":[],"outputs":[{"name":"lowerPrice","type":"uint256","internalType":"uint256"},{"name":"upperPrice","type":"uint256","internalType":"uint256"}],"stateMutability":"view"},{"type":"function","name":"renounceOwnership","inputs":[],"outputs":[],"stateMutability":"nonpayable"},{"type":"function","name":"retireVault","inputs":[],"outputs":[],"stateMutability":"nonpayable"},{"type":"function","name":"rewardPool","inputs":[],"outputs":[{"name":"","type":"address","internalType":"address"}],"stateMutability":"view"},{"type":"function","name":"setDeviation","inputs":[{"name":"_maxDeviation","type":"int56","internalType":"int56"}],"outputs":[],"stateMutability":"nonpayable"},{"type":"function","name":"setPositionWidth","inputs":[{"name":"_width","type":"int24","internalType":"int24"}],"outputs":[],"stateMutability":"nonpayable"},{"type":"function","name":"setRewardPool","inputs":[{"name":"_rewardPool","type":"address","internalType":"address"}],"outputs":[],"stateMutability":"nonpayable"},{"type":"function","name":"setStratFeeId","inputs":[{"name":"_feeId","type":"uint256","internalType":"uint256"}],"outputs":[],"stateMutability":"nonpayable"},{"type":"function","name":"setStrategist","inputs":[{"name":"_strategist","type":"address","internalType":"address"}],"outputs":[],"stateMutability":"nonpayable"},{"type":"function","name":"setTwapInterval","inputs":[{"name":"_interval","type":"uint32","internalType":"uint32"}],"outputs":[],"stateMutability":"nonpayable"},{"type":"function","name":"setUnirouter","inputs":[{"name":"_unirouter","type":"address","internalType":"address"}],"outputs":[],"stateMutability":"nonpayable"},{"type":"function","name":"sqrtPrice","inputs":[],"outputs":[{"name":"sqrtPriceX96","type":"uint160","internalType":"uint160"}],"stateMutability":"view"},{"type":"function","name":"strategist","inputs":[],"outputs":[{"name":"","type":"address","internalType":"address"}],"stateMutability":"view"},{"type":"function","name":"swapFee","inputs":[],"outputs":[{"name":"fee","type":"uint256","internalType":"uint256"}],"stateMutability":"view"},{"type":"function","name":"totalLocked0","inputs":[],"outputs":[{"name":"","type":"uint256","internalType":"uint256"}],"stateMutability":"view"},{"type":"function","name":"totalLocked1","inputs":[],"outputs":[{"name":"","type":"uint256","internalType":"uint256"}],"stateMutability":"view"},{"type":"function","name":"transferOwnership","inputs":[{"name":"newOwner","type":"address","internalType":"address"}],"outputs":[],"stateMutability":"nonpayable"},{"type":"function","name":"twap","inputs":[],"outputs":[{"name":"twapTick","type":"int56","internalType":"int56"}],"stateMutability":"view"},{"type":"function","name":"twapInterval","inputs":[],"outputs":[{"name":"","type":"uint32","internalType":"uint32"}],"stateMutability":"view"},{"type":"function","name":"unirouter","inputs":[],"outputs":[{"name":"","type":"address","internalType":"address"}],"stateMutability":"view"},{"type":"function","name":"unpause","inputs":[],"outputs":[],"stateMutability":"nonpayable"},{"type":"function","name":"vault","inputs":[],"outputs":[{"name":"","type":"address","internalType":"address"}],"stateMutability":"view"},{"type":"function","name":"withdraw","inputs":[{"name":"_amount0","type":"uint256","internalType":"uint256"},{"name":"_amount1","type":"uint256","internalType":"uint256"}],"outputs":[],"stateMutability":"nonpayable"},{"type":"function","name":"withdrawFee","inputs":[],"outputs":[{"name":"","type":"uint256","internalType":"uint256"}],"stateMutability":"view"},{"type":"event","name":"ChargedFees","inputs":[{"name":"callFeeAmount","type":"uint256","indexed":false,"internalType":"uint256"},{"name":"beefyFeeAmount","type":"uint256","indexed":false,"internalType":"uint256"},{"name":"strategistFeeAmount","type":"uint256","indexed":false,"internalType":"uint256"}],"anonymous":false},{"type":"event","name":"ClaimedFees","inputs":[{"name":"fees","type":"uint256","indexed":false,"internalType":"uint256"}],"anonymous":false},{"type":"event","name":"Harvest","inputs":[{"name":"fees","type":"uint256","indexed":false,"internalType":"uint256"}],"anonymous":false},{"type":"event","name":"Initialized","inputs":[{"name":"version","type":"uint8","indexed":false,"internalType":"uint8"}],"anonymous":false},{"type":"event","name":"OwnershipTransferred","inputs":[{"name":"previousOwner","type":"address","indexed":true,"internalType":"address"},{"name":"newOwner","type":"address","indexed":true,"internalType":"address"}],"anonymous":false},{"type":"event","name":"Paused","inputs":[{"name":"account","type":"address","indexed":false,"internalType":"address"}],"anonymous":false},{"type":"event","name":"SetDeviation","inputs":[{"name":"maxTickDeviation","type":"int56","indexed":false,"internalType":"int56"}],"anonymous":false},{"type":"event","name":"SetOutputToNativePath","inputs":[{"name":"path","type":"bytes","indexed":false,"internalType":"bytes"}],"anonymous":false},{"type":"event","name":"SetPositionWidth","inputs":[{"name":"oldWidth","type":"int24","indexed":false,"internalType":"int24"},{"name":"width","type":"int24","indexed":false,"internalType":"int24"}],"anonymous":false},{"type":"event","name":"SetRewardPool","inputs":[{"name":"rewardPool","type":"address","indexed":false,"internalType":"address"}],"anonymous":false},{"type":"event","name":"SetStratFeeId","inputs":[{"name":"feeId","type":"uint256","indexed":false,"internalType":"uint256"}],"anonymous":false},{"type":"event","name":"SetStrategist","inputs":[{"name":"strategist","type":"address","indexed":false,"internalType":"address"}],"anonymous":false},{"type":"event","name":"SetTwapInterval","inputs":[{"name":"oldInterval","type":"uint32","indexed":false,"internalType":"uint32"},{"name":"interval","type":"uint32","indexed":false,"internalType":"uint32"}],"anonymous":false},{"type":"event","name":"SetUnirouter","inputs":[{"name":"unirouter","type":"address","indexed":false,"internalType":"address"}],"anonymous":false},{"type":"event","name":"TVL","inputs":[{"name":"bal0","type":"uint256","indexed":false,"internalType":"uint256"},{"name":"bal1","type":"uint256","indexed":false,"internalType":"uint256"}],"anonymous":false},{"type":"event","name":"Unpaused","inputs":[{"name":"account","type":"address","indexed":false,"internalType":"address"}],"anonymous":false},{"type":"error","name":"InvalidEntry","inputs":[]},{"type":"error","name":"InvalidInput","inputs":[]},{"type":"error","name":"InvalidOutput","inputs":[]},{"type":"error","name":"NotAuthorized","inputs":[]},{"type":"error","name":"NotCalm","inputs":[]},{"type":"error","name":"NotManager","inputs":[]},{"type":"error","name":"NotPool","inputs":[]},{"type":"error","name":"NotStrategist","inputs":[]},{"type":"error","name":"NotVault","inputs":[]},{"type":"error","name":"OverLimit","inputs":[]},{"type":"error","name":"StrategyPaused","inputs":[]},{"type":"error","name":"TooMuchSlippage","inputs":[]}],"bytecode":{"object":"0x6080806040523460bb575f549060ff8260081c166069575060ff808216036030575b604051615a3990816100c08239f35b60ff90811916175f557f7f26b83ff96e1f2b6a682f133852f6798a09c465da95921460cefb3847402498602060405160ff8152a15f6021565b62461bcd60e51b815260206004820152602760248201527f496e697469616c697a61626c653a20636f6e747261637420697320696e697469604482015266616c697a696e6760c81b6064820152608490fd5b5f80fdfe60806040526004361015610011575f80fd5b5f3560e01c8062a4b5c91461045e57806304c404b314610459578063065e5360146104545780630e5c011e1461044f57806311b0b42d1461044a5780631208aa181461044557806312cf13811461044057806313e120b11461043b578063150b7a021461043657806316b9cd9c1461043157806316f0115b1461042c57806317dd7a72146104275780631d27050f146104225780631dcfeddd1461041d5780631fe4a68614610418578063257ae0de146104135780632b950b661461040e578063362c28c6146104095780633c1d5df0146104045780633c334dd5146103ff5780633e55f932146103fa5780633f4ba83a146103f5578063441a3e70146103f057806344b81396146103eb5780634641257d146103e65780634746fb55146103e157806354cf2aeb146103dc5780635c975abb146103d75780635ee167c0146103d257806360991346146103cd57806366666aa9146103c857806367a527931461032d578063696c58e5146103c3578063715018a6146103be57806378238c37146103b95780637bb98a68146103b45780638097e249146103af578063865238d4146103aa578063877562b6146103a55780638cfc0250146103a05780638da5cb5b1461039b5780638e14545914610396578063953d329f1461039157806399cd24461461038c5780639af1d35a146103875780639bdde46b146103825780639c6d49041461037d578063a035b1fe14610378578063a6f19c8414610373578063aced16611461036e578063b20feaaf14610369578063b3a60cb314610364578063b83d26831461035f578063bc415d8a1461035a578063c45a015514610355578063c6bbd5a714610350578063c7b9d5301461034b578063c7d5413214610346578063d0e30db014610341578063d92f3d731461033c578063e48f98fd14610337578063e88b91ea14610332578063e941fa781461032d578063e97206a914610328578063f1a392da14610323578063f20eaeb81461031e578063f2fde38b14610319578063fbfa77cf146103145763fcc25e131461030f575f80fd5b611d7f565b611d57565b611cc6565b611c9e565b611c81565b611c36565b6112a7565b611c0e565b611be9565b611b69565b611a52565b611932565b6118a9565b611881565b611859565b611827565b61180d565b6116cb565b611604565b6115ea565b6115c2565b61158f565b611575565b611551565b611534565b611502565b6114c2565b6114a8565b611480565b6113f1565b6113c9565b6113ac565b61138c565b611374565b611304565b6112e4565b6112c1565b61127f565b611185565b61115d565b61113b565b61108a565b61105e565b61103d565b610fcf565b610eee565b610e0d565b610d24565b610c88565b610c1f565b610b89565b610b61565b610b39565b610b11565b610ad1565b6108c7565b61089f565b610877565b610855565b6107e2565b61077e565b6105bc565b61057d565b61054f565b61050d565b6104cb565b6104ae565b610482565b5f91031261046d57565b5f80fd5b908152602081019190915260400190565b3461046d575f36600319011261046d5761049a611dd8565b906104aa60405192839283610471565b0390f35b3461046d575f36600319011261046d576020609d54604051908152f35b3461046d575f36600319011261046d5760206104e5611f23565b6040519060020b8152f35b6001600160a01b031690565b6001600160a01b0381160361046d57565b3461046d57602036600319011261046d5761053a60043561052d816104fc565b6105356133dd565b613435565b005b6001600160a01b03909116815260200190565b3461046d575f36600319011261046d576097546040516001600160a01b039091168152602090f35b60060b90565b3461046d575f36600319011261046d5760206105976121dd565b6040519060060b8152f35b8060020b0361046d57565b60c435906105ba826105a2565b565b3461046d57602036600319011261046d576004356105d9816105a2565b6105e16133dd565b7f69d927977053f4ff4a26e8d792564e367e844a869cda4df12630bf7b62a632de604060e15460020b81519081528360020b6020820152a16106216136d3565b610629613885565b62ffffff1960e154169062ffffff16178060e155610645614895565b61064d611f23565b610662610658614109565b809360020b612549565b61069261067084838561562e565b91909160de549060181b65ffffff000000169065ffffff00000019161760de55565b62ffffff1960de54169062ffffff161760de556106ad611dd8565b5f9180610751575b50808210156107045750509180826106d4826106f3966106ed9661562e565b5062ffffff1960e054169062ffffff161760e05561562e565b50614cfd565b6106fc42609f55565b61053a613e24565b93919310610715575b5050506106f3565b610749928261072883806107429661562e565b905062ffffff1960e054169062ffffff161760e05561562e565b9050614cfd565b5f808061070d565b9091506a0c097ce7bc90715b34b9f160241b9061077690610770613029565b90612c9d565b04905f6106b5565b3461046d575f36600319011261046d576107966122df565b60405180916020825260208201602080835192838152019201905f5b8181106107c0575050500390f35b82516001600160a01b03168452859450602093840193909201916001016107b2565b3461046d57608036600319011261046d576107fe6004356104fc565b6108096024356104fc565b6064356001600160401b03811161046d573660238201121561046d5760048101356001600160401b03811161046d573691016024011161046d57604051630a85bd0160e11b8152602090f35b3461046d575f36600319011261046d57602061086f612432565b604051908152f35b3461046d575f36600319011261046d5760d1546040516001600160a01b039091168152602090f35b3461046d575f36600319011261046d576108b76140e6565b6108bf6136d3565b61053a613885565b3461046d57602036600319011261046d5760043563ffffffff811680820361046d57603c906108f46133dd565b7f86139943149914833c057d2c24f3a3967cce8e6aba2eb12e422500d8a51ffc7b604063ffffffff60e15460501c168151908152836020820152a1106109595760e1805463ffffffff60501b191660509290921b63ffffffff60501b16919091179055005b63b4fa3fb360e01b5f5260045ffd5b90600182811c92168015610996575b602083101461098257565b634e487b7160e01b5f52602260045260245ffd5b91607f1691610977565b5f92918154916109af83610968565b8083529260018116908115610a0457506001146109cb57505050565b5f9081526020812093945091925b8383106109ea575060209250010190565b6001816020929493945483858701015201910191906109d9565b915050602093945060ff929192191683830152151560051b010190565b634e487b7160e01b5f52604160045260245ffd5b606081019081106001600160401b03821117610a5057604052565b610a21565b60c081019081106001600160401b03821117610a5057604052565b601f909101601f19168101906001600160401b03821190821017610a5057604052565b604051906105ba82610aa68160da6109a0565b0383610a70565b805180835260209291819084018484015e5f828201840152601f01601f1916010190565b3461046d575f36600319011261046d576104aa604051610afd81610af68160db6109a0565b0382610a70565b604051918291602083526020830190610aad565b3461046d575f36600319011261046d57609a546040516001600160a01b039091168152602090f35b3461046d575f36600319011261046d576099546040516001600160a01b039091168152602090f35b3461046d575f36600319011261046d576020609c54604051908152f35b8060060b0361046d57565b3461046d57602036600319011261046d57600435610ba681610b7e565b610bae6133dd565b6040517f69d3f73bfb3c2f0de63dc1de2ed486cf45d88ebfff8cb1e8f124b085d2bafb9760208360060b92838152a1610bed610be8614109565b612535565b60020b13156109595760e1549060181b69ffffffffffffff000000169069ffffffffffffff00000019161760e1555f80f35b3461046d575f36600319011261046d57602063ffffffff60e15460501c16604051908152f35b9181601f8401121561046d578235916001600160401b03831161046d576020808501948460051b01011161046d57565b60809061010319011261046d5761010490565b3461046d5761018036600319011261046d57600435610ca6816104fc565b60243590610cb3826104fc565b604435610cbf816104fc565b60643592610ccc846104fc565b608435610cd8816104fc565b60a435610ce4816104fc565b610cec6105ad565b60e435969092906001600160401b03881161046d57610d1261053a983690600401610c45565b969095610d1e36610c75565b986125c3565b3461046d575f602036600319011261046d576004356033546001600160a01b031633141580610df3575b610de4576001600160a01b03610d62612cb0565b16803b1561046d575f8091602460405180948193631f2afc9960e11b83528760048401525af18015610ddf57610dc8575b506040519081527f9163810ee1e29168d4ce900e48a333fb8fbd3fd070d2bef67f6d4db0846a469f9080602081015b0390a180f35b610dd59192505f90610a70565b5f90610dc2610d93565b611dcd565b63607e454560e11b5f5260045ffd5b506001600160a01b03610e0461303f565b16331415610d4e565b3461046d575f36600319011261046d576033546001600160a01b03163381141580610ed4575b610de45715610ec557610e4461433c565b60655460ff811615610e895760ff19166065557f5db9ee0a495bf2e6ff9c91a7834c1ba4fdd244a5e8aa4e537bd38aeae4b073aa6020604051338152a16106fc613d50565b60405162461bcd60e51b815260206004820152601460248201527314185d5cd8589b194e881b9bdd081c185d5cd95960621b6044820152606490fd5b63ea8e4eb560e01b5f5260045ffd5b506001600160a01b03610ee561303f565b16331415610e33565b3461046d57604036600319011261046d57602435600435610f0d6140e6565b80610fab575b5080610f7a575b50610f2a610f2661441f565b1590565b610f6d575b7f631c4f79c14099a717f4be2f25e6cef89e310b3944ef0e44ea2c0811ebb982a8610f58612dbd565b90610f6860405192839283610471565b0390a1005b610f75613e24565b610f2f565b610fa590610f94610f8f610f8f60d7546104f0565b6104f0565b610f9f6098546104f0565b906143d1565b5f610f1a565b60d654609854610fc992916001600160a01b031690610f9f906104f0565b5f610f13565b3461046d575f36600319011261046d57609e54420342811161103157610e1081101561103657610e1003610e108111611031575b610e106110208161101684609c54612c9d565b0492609d54612c9d565b04906104aa60405192839283610471565b612165565b505f611003565b3461046d575f36600319011261046d576110556133dd565b61053a32613435565b3461046d575f36600319011261046d576020611078612cb0565b6040516001600160a01b039091168152f35b3461046d575f36600319011261046d5760d15460405163ddca3f4360e01b815290602090829060049082906001600160a01b03165afa908115610ddf575f916110fb575b6104aa6110eb6110e262ffffff8516612c79565b620f4240900490565b6040519081529081906020820190565b90506020813d602011611133575b8161111660209383610a70565b8101031261046d575162ffffff8116810361046d576110eb6110ce565b3d9150611109565b3461046d575f36600319011261046d57602060ff606554166040519015158152f35b3461046d575f36600319011261046d5760d6546040516001600160a01b039091168152602090f35b3461046d57604036600319011261046d576004356024356033546001600160a01b031633141580611265575b610de4576111bd6136d3565b6111c5613885565b6111cd61448f565b60655460ff811661122d5760019060ff1916176065555f5160206159a45f395f51905f526020604051338152a1611202612dbd565b9211918215611223575b505061121457005b63fa6ad35560e01b5f5260045ffd5b1090505f8061120c565b60405162461bcd60e51b815260206004820152601060248201526f14185d5cd8589b194e881c185d5cd95960821b6044820152606490fd5b506001600160a01b0361127661303f565b163314156111b1565b3461046d575f36600319011261046d5760d8546040516001600160a01b039091168152602090f35b3461046d575f36600319011261046d5760206040515f8152f35b3461046d575f36600319011261046d57602060e15460181c60060b604051908152f35b3461046d575f36600319011261046d576112fc6133dd565b61053a614509565b3461046d57602036600319011261046d577f173d73afad648e625c4a53878536f7a2debed1f51a04f21d728bce3cf534fcc16020600435611344816104fc565b61134c6133dd565b60d880546001600160a01b0319166001600160a01b03929092169182179055604051908152a1005b3461046d575f36600319011261046d5761049a612dbd565b3461046d575f36600319011261046d57602060e15460020b604051908152f35b3461046d575f36600319011261046d576020609f54604051908152f35b3461046d575f36600319011261046d5760d7546040516001600160a01b039091168152602090f35b3461046d575f36600319011261046d57602460206001600160a01b03611415612cb0565b1660405192838092636788231160e11b82523060048301525afa8015610ddf576104aa915f91611451575b506040519081529081906020820190565b611473915060203d602011611479575b61146b8183610a70565b810190611dbe565b5f611440565b503d611461565b3461046d575f36600319011261046d576033546040516001600160a01b039091168152602090f35b3461046d575f36600319011261046d576020611078612dea565b3461046d575f36600319011261046d576104aa604051610afd81610af68160dc6109a0565b908152600291820b602082015291900b604082015260600190565b3461046d575f36600319011261046d5760df5460e054906104aa6040519283928160181c60020b9160020b90846114e7565b3461046d575f36600319011261046d57602060d954604051908152f35b3461046d575f36600319011261046d57602061156b612e60565b6040519015158152f35b3461046d575f36600319011261046d57602061086f612ef9565b3461046d575f36600319011261046d57602061086f6115bd6001600160a01b036115b76130a7565b1661458b565b612f97565b3461046d575f36600319011261046d5760d4546040516001600160a01b039091168152602090f35b3461046d575f36600319011261046d57602061107861303f565b3461046d575f36600319011261046d575f6040805161162281610a35565b61162a613076565b8152826020820152015261163c614773565b6040519061164982610a35565b815260208101905f825260408101915f83526040519283926020845251916060602085015282516080850152602083015160a0850152604083015160c0850152606083015160e085015260a06116b0608085015160c0610100880152610140870190610aad565b93015115156101208501525160408401525160608301520390f35b3461046d575f36600319011261046d576116e36133dd565b600460206116f8610f8f610f8f6098546104f0565b6040516318160ddd60e01b815292839182905afa8015610ddf576103e8915f916117ee575b5003610ec55761172b612d10565b611733612dea565b611744610f8f610f8f60d6546104f0565b6040516370a0823160e01b815260208180611762306004830161053c565b0381855afa908115610ddf576117819284915f936117cd575b506143d1565b611792610f8f610f8f60d7546104f0565b6040516370a0823160e01b815291602083806117b1306004830161053c565b0381855afa918215610ddf576112fc935f936117cd57506143d1565b6117e791935060203d6020116114795761146b8183610a70565b915f61177b565b611807915060203d6020116114795761146b8183610a70565b5f61171d565b3461046d575f36600319011261046d5760206110786130a7565b3461046d575f36600319011261046d5760dd5460de54906104aa6040519283928160181c60020b9160020b90846114e7565b3461046d575f36600319011261046d57609b546040516001600160a01b039091168152602090f35b3461046d575f36600319011261046d5760d2546040516001600160a01b039091168152602090f35b3461046d57602036600319011261046d576004356118c6816104fc565b609a54906001600160a01b0382163303611923576001600160a01b03166001600160a01b0319919091168117609a556040519081527f46d58e3fa07bf19b1d27240f0e286b27e9f7c1b0d88933333fe833b60eec541290602090a1005b633163ba6d60e11b5f5260045ffd5b3461046d575f36600319011261046d5761194a6133dd565b611952612e60565b15611a435761195f6136d3565b611967613885565b61196f614895565b611977611f23565b61197f614109565b9061198f8260e15460020b612549565b61199d61067084838561562e565b62ffffff1960de54169062ffffff161760de556119b8611dd8565b5f9180611a1c575b50808210156119f05750509180826106d4826119df966106ed9661562e565b6119e842609f55565b610f2f613e24565b93919310611a01575b5050506119df565b611a14928261072883806107429661562e565b5f80806119f9565b9091506a0c097ce7bc90715b34b9f160241b90611a3b90610770613029565b04905f6119c0565b6313643c3b60e11b5f5260045ffd5b3461046d575f36600319011261046d57611a6a614895565b611a726140e6565b60e15460ff8160701c1615611a8957610f2f613e24565b611a91614895565b611a99611f23565b611aa4610658614109565b611ab261067084838561562e565b62ffffff1960de54169062ffffff161760de55611acd611dd8565b5f9180611b42575b5080821015611b165750509180826106d482611af4966106ed9661562e565b611afd42609f55565b60e1805460ff60701b1916600160701b1790555f6119e8565b93919310611b27575b505050611af4565b611b3a928261072883806107429661562e565b5f8080611b1f565b9091506a0c097ce7bc90715b34b9f160241b90611b6190610770613029565b04905f611ad5565b3461046d57602036600319011261046d577f5ca6e64c4522e68e154aa9372f2c5969cd37d9640e59f66953dc472f54ee86fa6020600435611ba9816104fc565b611bb16133dd565b611bb961448f565b609980546001600160a01b0319166001600160a01b03929092169182179055611be061433c565b604051908152a1005b3461046d575f36600319011261046d576104aa604051610afd81610af68160da6109a0565b3461046d575f36600319011261046d5760d3546040516001600160a01b039091168152602090f35b3461046d575f36600319011261046d5760de5461049a6115bd611c68816001600160a01b036115b7600287900b6148d4565b926001600160a01b03906115b79060181c60020b6148d4565b3461046d575f36600319011261046d576020609e54604051908152f35b3461046d575f36600319011261046d5760d5546040516001600160a01b039091168152602090f35b3461046d57602036600319011261046d57600435611ce3816104fc565b611ceb6133dd565b6001600160a01b03811615611d035761053a90614539565b60405162461bcd60e51b815260206004820152602660248201527f4f776e61626c653a206e6577206f776e657220697320746865207a65726f206160448201526564647265737360d01b6064820152608490fd5b3461046d575f36600319011261046d576098546040516001600160a01b039091168152602090f35b3461046d575f36600319011261046d5760c0611d996131b6565b93604093919351958652602086015260408501526060840152608083015260a0820152f35b9081602091031261046d575190565b6040513d5f823e3d90fd5b611de9610f8f610f8f60d6546104f0565b90602060405180936370a0823160e01b82528180611e0a306004830161053c565b03915afa918215610ddf575f92611e82575b50611e2e610f8f610f8f60d7546104f0565b91602060405180946370a0823160e01b82528180611e4f306004830161053c565b03915afa928315610ddf575f93611e6557509190565b611e7f91935060203d6020116114795761146b8183610a70565b90565b611e9c91925060203d6020116114795761146b8183610a70565b905f611e1c565b51906105ba826105a2565b519061ffff8216820361046d57565b5190811515820361046d57565b91908260c091031261046d578151611ee1816104fc565b916020810151611ef0816105a2565b91611efd60408301611eae565b91611f0a60608201611eae565b91611e7f60a0611f1c60808501611eae565b9301611ebd565b60d154604051633850c7bd60e01b81529060c090829060049082906001600160a01b03165afa908115610ddf575f91611f5a575090565b611f7c915060c03d60c011611f85575b611f748183610a70565b810190611eca565b50505050905090565b503d611f6a565b604051906105ba60a083610a70565b604051906105ba608083610a70565b604051906105ba61018083610a70565b6001600160401b038111610a505760051b60200190565b634e487b7160e01b5f52603260045260245ffd5b805115611ff25760200190565b611fd1565b805160011015611ff25760400190565b8051821015611ff25760209160051b010190565b9080601f8301121561046d57815161203281611fba565b926120406040519485610a70565b81845260208085019260051b82010192831161046d57602001905b8282106120685750505090565b602080918351612077816104fc565b81520191019061205b565b91909160408184031261046d5780516001600160401b03811161046d57810183601f8201121561046d578051906120b882611fba565b916120c66040519384610a70565b80835260208084019160051b8301019186831161046d57602001905b82821061210c5750505060208201519093906001600160401b03811161046d57611e7f920161201b565b60208091835161211b81610b7e565b8152019101906120e2565b60206040818301928281528451809452019201905f5b8181106121495750505090565b825163ffffffff1684526020938401939092019160010161213c565b634e487b7160e01b5f52601160045260245ffd5b600691820b910b0390667fffffffffffff198212667fffffffffffff83131761103157565b634e487b7160e01b5f52601260045260245ffd5b60060b9060060b9081156121d857667fffffffffffff1981145f19831416611031570590565b61219e565b6040516060906121ed8282610a70565b6002815261225d91601f190136602083013760e1545f9060501c63ffffffff16916122268361221b83611fe5565b9063ffffffff169052565b8161223082611ff7565b52612242610f8f610f8f60d1546104f0565b604051808096819463883bdbfd60e01b835260048301612126565b03915afa918215610ddf576122b06122a3611e7f946122b6935f916122bc575b5061229d61229061229761229084611ff7565b5160060b90565b92611fe5565b90612179565b9263ffffffff1660030b90565b60030b90565b906121b2565b6122d891503d805f833e6122d08183610a70565b810190612082565b505f61227d565b6122ea60da54610968565b1561239c576040515f60da546122ff81610968565b8084529060018116908115612378575060011461232d575b509061232881611e7f930382610a70565b61402a565b60da5f9081525f5160206159c45f395f51905f52939250905b80821061235e57509091508101602001612328612317565b919260018160209254838588010152019101909291612346565b60ff191660208086019190915291151560051b840190910191506123289050612317565b6123a55f611fba565b6123b26040519182610a70565b5f8152601f196123c15f611fba565b0136602083013790565b9081602091031261046d575160ff8116810361046d5790565b60ff16604d811161103157600a0a90565b80156121d8575f190490565b91906040835260206124176040850160dc6109a0565b930152565b91906040835260206124176040850160db6109a0565b61243d60d7546104f0565b6004602061244d610f8f846104f0565b60405163313ce56760e01b815292839182905afa908115610ddf576124849161247d915f91612506575b506123e4565b600a900490565b90612493610f8f6097546104f0565b6001600160a01b0390911614611e7f5760206124d85f926124bb610f8f610f8f60d2546104f0565b9060405194858094819363cdca175360e01b835260048301612401565b03925af1908115610ddf575f916124ed575090565b611e7f915060203d6020116114795761146b8183610a70565b612528915060203d60201161252e575b6125208183610a70565b8101906123cb565b5f612477565b503d612516565b60020b60021b908160020b91820361103157565b9060020b9060020b02908160020b91820361103157565b1561256757565b60405162461bcd60e51b815260206004820152602e60248201527f496e697469616c697a61626c653a20636f6e747261637420697320616c72656160448201526d191e481a5b9a5d1a585b1a5e995960921b6064820152608490fd5b98969492909161260f989694925f549a6125f560ff8d60081c16151515809d8161268e575b811561266e575b50612560565b8b612606600160ff195f5416175f55565b61265757612a28565b61261557565b61262361ff00195f54165f55565b604051600181527f7f26b83ff96e1f2b6a682f133852f6798a09c465da95921460cefb38474024989080602081015b0390a1565b61266961010061ff00195f5416175f55565b612a28565b303b15915081612680575b505f6125ef565b60ff1660011490505f612679565b600160ff82161091506125e8565b51906105ba826104fc565b9081602091031261046d5751611e7f816104fc565b9015611ff257803590601e198136030182121561046d5701803591906001600160401b03831161046d57602001823603811361046d579190565b9060011015611ff257602081013590601e198136030182121561046d5701803591906001600160401b03831161046d57602001823603811361046d579190565b9060021015611ff257604081013590601e198136030182121561046d5701803591906001600160401b03831161046d57602001823603811361046d579190565b601f821161278357505050565b5f5260205f20906020601f840160051c830193106127bb575b601f0160051c01905b8181106127b0575050565b5f81556001016127a5565b909150819061279c565b8160011b915f199060031b1c19161790565b91906001600160401b038111610a50576127fd816127f660da54610968565b60da612776565b5f601f821160011461282e57819061281e93945f92612823575b50506127c5565b60da55565b013590505f80612817565b60da5f52601f198216935f5160206159c45f395f51905f52915f5b8681106128805750836001959610612867575b505050811b0160da55565b01355f19600384901b60f8161c191690555f808061285c565b90926020600181928686013581550194019101612849565b91906001600160401b038111610a50576128be816128b760db54610968565b60db612776565b5f601f82116001146128e35781906128de93945f926128235750506127c5565b60db55565b60db5f52601f198216937f4c0d3471ead8ee99fbd8249e33f683e07c6cd6071fe102dd09617b2c353de430915f5b868110612948575083600195961061292f575b505050811b0160db55565b01355f19600384901b60f8161c191690555f8080612924565b90926020600181928686013581550194019101612911565b91906001600160401b038111610a50576129868161297f60dc54610968565b60dc612776565b5f601f82116001146129ab5781906129a693945f926128235750506127c5565b60dc55565b60dc5f52601f198216937f3162b0988d4210bff484413ed451d170a03887272177efc0b7d000f10abe9edf915f5b868110612a1057508360019596106129f7575b505050811b0160dc55565b01355f19600384901b60f8161c191690555f80806129ec565b909260206001819286860135815501940191016129d9565b959891612aa8612b0e96612a86612aca94612a49612aec98979d9c9d6141d5565b60d180546001600160a01b0319166001600160a01b038d1617905560d280546001600160a01b0319166001600160a01b0392909216919091179055565b60d580546001600160a01b0319166001600160a01b0392909216919091179055565b60d380546001600160a01b0319166001600160a01b0392909216919091179055565b60d480546001600160a01b0319166001600160a01b0392909216919091179055565b60d880546001600160a01b0319166001600160a01b0392909216919091179055565b604051630dfe168160e01b815292906001600160a01b0316602084600481845afa908115610ddf57612b696020926004965f91612c4f575b5060d680546001600160a01b0319166001600160a01b0392909216919091179055565b60405163d21220a760e01b815294859182905afa8015610ddf57612c0294612bbc612bd192612bfc965f91612c20575b5060d780546001600160a01b0319166001600160a01b0392909216919091179055565b62ffffff1960e154169062ffffff161760e155565b612be4612bde83836126bc565b906127d7565b612bf7612bf183836126f6565b90612898565b612736565b90612960565b60e1805463ffffffff60501b1916600f60531b1790556105ba61433c565b612c42915060203d602011612c48575b612c3a8183610a70565b8101906126a7565b5f612b99565b503d612c30565b612c669150843d8611612c4857612c3a8183610a70565b5f612b46565b9190820391821161103157565b90670de0b6b3a7640000820291808304670de0b6b3a7640000149015171561103157565b8181029291811591840414171561103157565b609b54604051634746fb5560e01b815290602090829060049082906001600160a01b03165afa908115610ddf575f91612cf1575b506001600160a01b031690565b612d0a915060203d602011612c4857612c3a8183610a70565b5f612ce4565b6033546001600160a01b031633141580612d7a575b610de457612d316136d3565b612d39613885565b612d4161448f565b60655460ff811661122d5760019060ff1916176065555f5160206159a45f395f51905f526020604051338152a1612d76612dbd565b5050565b506001600160a01b03612d8b61303f565b16331415612d25565b906001820180921161103157565b90601f820180921161103157565b9190820180921161103157565b612dc5611dd8565b9190612dcf6131b6565b50505050908201809211611031578301809311611031579190565b609b54604051638e14545960e01b815290602090829060049082906001600160a01b03165afa908115610ddf575f91612e21575090565b611e7f915060203d602011612c4857612c3a8183610a70565b9060060b9060060b0190667fffffffffffff198212667fffffffffffff83131761103157565b612e68611f23565b612e706121dd565b612ebc610577612eb460e15493612e8d8560181c60060b82612179565b60060b620d89e719811315612eeb57612eae9060060b5b9560181c60060b90565b90612e3a565b60060b61456e565b9160020b809160060b13918215612ede575b505015612ed9575f90565b600190565b60060b1290505f80612ece565b50612eae620d89e719612ea4565b612f0460d6546104f0565b60046020612f14610f8f846104f0565b60405163313ce56760e01b815292839182905afa908115610ddf57612f439161247d915f9161250657506123e4565b90612f52610f8f6097546104f0565b6001600160a01b0390911614611e7f5760206124d85f92612f7a610f8f610f8f60d2546104f0565b9060405194858094819363cdca175360e01b83526004830161241c565b5f811561302357818060011461301b576002146130145760016101338310166001600b84101617613007575060015f1960025b60018111612fe057508290048111611031570290565b9280820481116110315760018416612ffe575b80029260011c612fca565b80920291612ff3565b91906002900a9161103157565b5050600490565b505050600190565b50505f90565b611e7f6115bd6001600160a01b036115b76130a7565b609b5460405163aced166160e01b815290602090829060049082906001600160a01b03165afa908115610ddf575f91612e21575090565b6040519061308382610a55565b5f60a083828152826020820152826040820152826060820152606060808201520152565b60d154604051633850c7bd60e01b81529060c090829060049082906001600160a01b03165afa908115610ddf575f916130de575090565b6130f7915060c03d60c011611f8557611f748183610a70565b505050505090565b51906001600160801b038216820361046d57565b91908261018091031261046d5781516001600160601b038116810361046d579161313f6020820161269c565b9161314c6040830161269c565b916131596060820161269c565b9161316660808301611ea3565b9161317360a08201611ea3565b9161318060c08301611ea3565b9161318d60e082016130ff565b916101008201519161012081015191611e7f6101606131af61014085016130ff565b93016130ff565b6131be6130a7565b905f915f905f935f5f905f9260dd5480613342575b5060df5480613272575b509161324d6132539261324761323f613220613259989760de5461321961320a61320f61320a8460020b90565b6148d4565b9260181c60020b90565b908c614c3f565b9a909960e05461323961320a61320f61320a8460020b90565b91614c3f565b9b9098612db0565b97612db0565b94612db0565b95612db0565b936132648184612db0565b9461326f8184612db0565b94565b9095506101809193506132b19250613291610f8f610f8f60d3546104f0565b604051808095819463133f757160e31b8352600483019190602083019252565b03915afa8015610ddf57613259925f915f935f916132e7575b5091956001600160801b039283169450929091169161324d6131dd565b6132209450613253935061324d91509161324761331e61323f946101803d811161333b575b6133168183610a70565b810190613113565b9a509d999f985050509450505050509597945050505091926132ca565b503d61330c565b905061337f9750610180915061335f610f8f610f8f60d3546104f0565b60405180809a819463133f757160e31b8352600483019190602083019252565b03915afa958615610ddf575f965f915f916133ab575b506001600160801b03918216979116905f6131d3565b9150506133c89196506101803d811161333b576133168183610a70565b99509e9950505094505050505096905f613395565b6033546001600160a01b031633036133f157565b606460405162461bcd60e51b815260206004820152602060248201527f4f776e61626c653a2063616c6c6572206973206e6f7420746865206f776e65726044820152fd5b61343d6136d3565b60d954905f9161344b614773565b5f91806135df575b509161351d6134e26134b2936134dd6134ba61348a60608961349861348a60405f5160206159e45f395f51905f529d015188612c9d565b670de0b6b3a7640000900490565b998a809a6134ad610f8f610f8f6097546104f0565b6143d1565b015184612c9d565b9586926134dd846134d2610f8f610f8f6097546104f0565b610f9f609a546104f0565b612c6c565b92613500846134f8610f8f610f8f6097546104f0565b610f9f612dea565b604051938493846040919493926060820195825260208201520152565b0390a16135295f60d955565b61353a610f8f610f8f60d8546104f0565b9061354660d5546104f0565b91803b1561046d576040516328f362b160e21b81526001600160a01b03939093166004840152602483018290526201518060448401525f908390606490829084905af1908115610ddf577f80f97f878e16410266694f134ddf012f2be424f54f8b5cafa107eccc51d00d5892612652926135c5575b506110eb42609e55565b806135d35f6135d993610a70565b80610463565b5f6135bb565b93509161351d6134e2846134dd6134ba61348a60606134b29861361f61361861348a8e5f5160206159e45f395f51905f529e5190612c9d565b809d612c6c565b9b5f9161362a615468565b61363560d5546104f0565b613643610f8f6097546104f0565b6001600160a01b03909116036136a1575b5061366060d5546104f0565b61366e610f8f6097546104f0565b6001600160a01b0390911603613699576136889250612db0565b945b97995050505050935050613453565b50509461368a565b6136cc9193506136c4836136b66099546104f0565b6136be610a93565b9061558a565b6134dd615468565b915f613654565b6136db614cc0565b60dd5480613799575b5060df5480613720575b5061265261370c5f5160206159645f395f51905f52926134dd614cc0565b6110eb61371b8260d954612db0565b60d955565b613731610f8f610f8f60d4546104f0565b803b1561046d57604051631c4b774b60e01b815260048101929092525f908290602490829084905af18015610ddf575f5160206159645f395f51905f52926126529261370c92613785575b509250506136ee565b806135d35f61379393610a70565b5f61377c565b6137aa610f8f610f8f60d4546104f0565b803b1561046d57604051631c4b774b60e01b815260048101929092525f908290602490829084905af18015610ddf57156136e457806135d35f6137ec93610a70565b5f6136e4565b6040519060a082016001600160401b03811183821017610a50576040525f6080838281528260208201528260408201528260608201520152565b60405190608082016001600160401b03811183821017610a50576040525f6060838281528260208201528260408201520152565b6001600160a01b039091169052565b919082604091031261046d576020825192015190565b5f5f9060dd5480613c87575b5060df5480613bbe575b506138a46137f2565b506138ad61382c565b506001600160801b038116613ae5575b506001600160801b0381166138cf5750565b5f60406139a160df54936138f96138e4611f8c565b8681526001600160801b039092166020830152565b8383820152836060820152426080820152613912611f9b565b9485526139223060208701613860565b6001600160801b03858401526001600160801b03606086015261394c610f8f610f8f60d3546104f0565b8351630624e65f60e11b81528251600482015260208301516001600160801b031660248201526040830151604482015260608301516064820152608090920151608483015290938492839190829060a4820190565b03925af18015610ddf575f92604092613a2492613ac9575b506139cb610f8f610f8f60d3546104f0565b835163fc6f786560e01b81528251600482015260208301516001600160a01b0316602482015260408301516001600160801b03908116604483015260609093015190921660648301529093849283919082906084820190565b03925af18015610ddf57613a9b575b50613a45610f8f610f8f60d3546104f0565b60df5490803b1561046d57604051630852cd8d60e31b815260048101929092525f908290602490829084905af18015610ddf57613a87575b506105ba5f60df55565b806135d35f613a9593610a70565b5f613a7d565b613abc9060403d604011613ac2575b613ab48183610a70565b81019061386f565b50613a33565b503d613aaa565b613adf90843d8611613ac257613ab48183610a70565b506139b9565b5f6040613afa60dd54936138f96138e4611f8c565b03925af18015610ddf575f92604092613b2392613ac957506139cb610f8f610f8f60d3546104f0565b03925af18015610ddf57613ba0575b50613b44610f8f610f8f60d3546104f0565b60dd5490803b1561046d57604051630852cd8d60e31b815260048101929092525f908290602490829084905af18015610ddf57613b8c575b50613b865f60dd55565b5f6138bd565b806135d35f613b9a93610a70565b5f613b7c565b613bb89060403d604011613ac257613ab48183610a70565b50613b32565b9150613bd1610f8f610f8f60d3546104f0565b60405163133f757160e31b8152600481018490529061018090829060249082905afa908115610ddf575f91613c5c575b5091613c14610f8f610f8f60d4546104f0565b803b1561046d57604051632e1a7d4d60e01b815260048101929092525f908290602490829084905af18015610ddf571561389b57806135d35f613c5693610a70565b5f61389b565b613c7591506101803d811161333b576133168183610a70565b5050505096505050505050505f613c01565b9050613c9a610f8f610f8f60d3546104f0565b60405163133f757160e31b8152600481018390529061018090829060249082905afa908115610ddf575f91613d25575b5090613cdd610f8f610f8f60d4546104f0565b803b1561046d57604051632e1a7d4d60e01b815260048101929092525f908290602490829084905af18015610ddf571561389157806135d35f613d1f93610a70565b5f613891565b613d3e91506101803d811161333b576133168183610a70565b5050505096505050505050505f613cca565b613d58614895565b613d60611f23565b613d68614109565b90613d788260e15460020b612549565b613d8661067084838561562e565b62ffffff1960de54169062ffffff161760de55613da1611dd8565b5f9180613dfd575b5080821015613dd15750509180826106d482613dc8966106ed9661562e565b6105ba42609f55565b93919310613de2575b505050613dc8565b613df5928261072883806107429661562e565b5f8080613dda565b9091506a0c097ce7bc90715b34b9f160241b90613e1c90610770613029565b04905f613da9565b613e2c614d1c565b613e34611dd8565b60de54908083613e4c600285900b9460181c60020b90565b9360e05495613e68613e5e8860020b90565b9760181c60020b90565b95613e9d613e746130a7565b95613e94613e81866148d4565b91613e8b856148d4565b9586848b614d98565b93849188614c3f565b9390926001600160801b0316151580614012575b613fed575b5050505090613ee691613ede613ecb876148d4565b94613ed5876148d4565b92838786614d98565b938492614c3f565b9290916001600160801b0316151580613fdb575b613fc9575b5050505060dd5480613f70575b5060df5480613f185750565b613f29610f8f610f8f60d4546104f0565b803b1561046d5760405163b6b55f2560e01b815260048101929092525f908290818381602481015b03925af18015610ddf57613f625750565b806135d35f6105ba93610a70565b613f81610f8f610f8f60d4546104f0565b803b1561046d5760405163b6b55f2560e01b815260048101929092525f908290602490829084905af18015610ddf5715613f0c57806135d35f613fc393610a70565b5f613f0c565b613fd29361506a565b5f808080613eff565b5081151580613efa5750821515613efa565b9091929350613ffd949550614f06565b613ee6614008611dd8565b92915f8080613eb6565b5082158015614022575b15613eb1565b50831561401c565b805160131981019190821161103157601791601790049060018201928383116110315761405684611fba565b936140646040519586610a70565b808552614073601f1991611fba565b013660208601375f915b83831061408b575050505090565b6140de816140d961409d600194615754565b6140aa86845110156157c3565b6140c76140b787856157a4565b916140c2898c612007565b613860565b6140c26140d388612d94565b8a612007565b6150c2565b92019161407d565b6098546001600160a01b031633036140fa57565b6362df054560e01b5f5260045ffd5b60d1546040516334324e9f60e21b815290602090829060049082906001600160a01b03165afa908115610ddf575f91614140575090565b90506020813d60201161416d575b8161415b60209383610a70565b8101031261046d5751611e7f816105a2565b3d915061414e565b1561417c57565b60405162461bcd60e51b815260206004820152602b60248201527f496e697469616c697a61626c653a20636f6e7472616374206973206e6f74206960448201526a6e697469616c697a696e6760a81b6064820152608490fd5b614297610f8f60606142b9936141f160ff5f5460081c16614175565b6141f961515f565b614201615181565b61422f61420d82614332565b609880546001600160a01b0319166001600160a01b0392909216919091179055565b61426061423e60208301614332565b609980546001600160a01b0319166001600160a01b0392909216919091179055565b61429161426f60408301614332565b609a80546001600160a01b0319166001600160a01b0392909216919091179055565b01614332565b609b80546001600160a01b0319166001600160a01b0392909216919091179055565b600460206142cb610f8f609b546104f0565b6040516311b0b42d60e01b815292839182905afa8015610ddf576105ba915f91614313575b50609780546001600160a01b0319166001600160a01b0392909216919091179055565b61432c915060203d602011612c4857612c3a8183610a70565b5f6142f0565b35611e7f816104fc565b60d554609954614358916001600160a01b0391821691166151a1565b60d55460d854614374916001600160a01b0391821691166151a1565b60d65460d354614397916001600160a01b031690614391906104f0565b906151a1565b6105ba6143ab610f8f610f8f60d7546104f0565b61439160d3546104f0565b6001600160a01b039091168152602081019190915260400190565b6144066105ba93926143f860405194859263a9059cbb60e01b6020850152602484016143b6565b03601f198101845283610a70565b6152ba565b9081602091031261046d57611e7f90611ebd565b60ff60655416801561442e5790565b50609b54604051631e25aa9b60e31b815290602090829060049082906001600160a01b03165afa908115610ddf575f91614466575090565b611e7f915060203d602011614488575b6144808183610a70565b81019061440b565b503d614476565b60d5546099546144ab916001600160a01b039182169116615293565b60d55460d8546144c7916001600160a01b039182169116615293565b60d65460d3546144ea916001600160a01b0316906144e4906104f0565b90615293565b6105ba6144fe610f8f610f8f60d7546104f0565b6144e460d3546104f0565b603380546001600160a01b031981169091555f906001600160a01b03165f5160206159845f395f51905f528280a3565b603380546001600160a01b039283166001600160a01b0319821681179092559091165f5160206159845f395f51905f525f80a3565b620d89e881121561457c5790565b50620d89e890565b1561046d57565b5f19670de0b6b3a76400008209670de0b6b3a76400008202918280831092039180830392146145e357600160601b82101561046d57600160601b90670de0b6b3a7640000900990828211900360a01b910360601c1790565b505060601c90565b5f19828209908281029283808410930392808403931461462a57600160601b83101561046d57600160601b910990828211900360a01b910360601c1790565b50505060601c90565b5f19600160601b8209918160601b918280851094039380850394146146b957819061465f858311614584565b600160601b9009600182190182168092046002816003021880820260020302808202600203028082026002030280820260020302808202600203028091026002030293600183805f03040190848311900302920304170290565b5091506146c7821515614584565b0490565b90915f198383099280830292838086109503948086039514614749579082916146f5868411614584565b09600182190182168092046002816003021880820260020302808202600203028082026002030280820260020302808202600203028091026002030293600183805f03040190848311900302920304170290565b505091506146c7821515614584565b6001600160401b038111610a5057601f01601f191660200190565b61477b613076565b5060245f6001600160a01b0361478f612cb0565b1660405192838092639af608c960e01b82523060048301525afa908115610ddf575f916147ba575090565b90503d805f833e6147cb8183610a70565b81019060208183031261046d578051906001600160401b03821161046d57019060c08282031261046d576040519161480283610a55565b8051835260208082015190840152604080820151908401526060808201519084015260808101516001600160401b03811161046d5781019082601f8301121561046d5781519261485184614758565b9061485f6040519283610a70565b8482526020858501011161046d575f60208561488d968260a097018386015e83010152608085015201611ebd565b60a082015290565b61489d612e60565b15611a4357565b156148ab57565b60405162461bcd60e51b81526020600482015260016024820152601560fa1b6044820152606490fd5b60020b5f811215614c3957805f03905b6148f3620d89e88311156148a4565b6001821615614c2f576ffffcb933bd6fad37aa2d162d1a5940015b6001600160881b03169160028116614c13575b60048116614bf7575b60088116614bdb575b60108116614bbf575b60208116614ba3575b60408116614b87575b60808116614b6b575b6101008116614b4f575b6102008116614b33575b6104008116614b17575b6108008116614afb575b6110008116614adf575b6120008116614ac3575b6140008116614aa7575b6180008116614a8b575b620100008116614a6f575b620200008116614a54575b620400008116614a39575b6208000016614a20575b5f12614a12575b6149f06149e68260201c90565b9163ffffffff1690565b614a0a575f905b60ff91909116016001600160a01b031690565b6001906149f7565b614a1b906123f5565b6149d9565b6b048a170391f7dc42444e8fa290910260801c906149d2565b6d2216e584f5fa1ea926041bedfe9890920260801c916149c8565b916e5d6af8dedb81196699c329225ee6040260801c916149bd565b916f09aa508b5b7a84e1c677de54f3e99bc90260801c916149b2565b916f31be135f97d08fd981231505542fcfa60260801c916149a7565b916f70d869a156d2a1b890bb3df62baf32f70260801c9161499d565b916fa9f746462d870fdf8a65dc1f90e061e50260801c91614993565b916fd097f3bdfd2022b8845ad8f792aa58250260801c91614989565b916fe7159475a2c29b7443b29c7fa6e889d90260801c9161497f565b916ff3392b0822b70005940c7a398e4b70f30260801c91614975565b916ff987a7253ac413176f2b074cf7815e540260801c9161496b565b916ffcbe86c7900a88aedcffc83b479aa3a40260801c91614961565b916ffe5dee046a99a2a811c461f1969c30530260801c91614957565b916fff2ea16466c96a3843ec78b326b528610260801c9161494e565b916fff973b41fa98c081472e6896dfb254c00260801c91614945565b916fffcb9843d60f6159c9db58835c9266440260801c9161493c565b916fffe5caca7e10e4e61c3624eaa0941cd00260801c91614933565b916ffff2e50f5f656932ef12357cf3c7fdcc0260801c9161492a565b916ffff97272373d413259a46990580e213a0260801c91614921565b600160801b61490e565b806148e4565b9093925f929091836001600160a01b0380841690881611614cb8575b6001600160a01b038281169088168111614c8057505050614c7d9293946153fe565b91565b93945090926001600160a01b0383161115614cac575090614ca683611e7f9493836153fe565b946153bb565b94611e7f9392506153bb565b959195614c5b565b60d5546040516370a0823160e01b815230600482015290602090829060249082906001600160a01b03165afa908115610ddf575f916124ed575090565b60e0549060181b65ffffff000000169065ffffff00000019161760e055565b60ff606554168015614d3e575b614d2f57565b63e628b94960e01b5f5260045ffd5b50609b54604051631e25aa9b60e31b815290602090829060049082906001600160a01b03165afa908115610ddf575f91614d79575b50614d29565b614d92915060203d602011614488576144808183610a70565b5f614d73565b936001600160a01b0383811690831611614e24575b6001600160a01b03858116959083168611614dce575050611e7f9350615700565b919490939192906001600160a01b0382161115614e18578291614df591614dfb9594615700565b936156bd565b6001600160801b038181169083161015614e13575090565b905090565b915050611e7f926156bd565b909190614dad565b919082608091031261046d57815191614e47602082016130ff565b916060604083015192015190565b81516001600160a01b03168152610180810192916105ba91906101609081906020818101516001600160a01b03169085015260408181015160020b9085015260608181015160020b9085015260808181015160020b9085015260a0818101519085015260c0808201519085015260e080820151908501526101008082015190850152610120808201516001600160a01b031690850152610140818101519085015201516001600160a01b0316910152565b5f93608093614f73614fd494614f6a614f2060d6546104f0565b95614f60614f2f60d7546104f0565b614f56614f3a614109565b91614f4d614f46611faa565b9b8c613860565b60208b01613860565b60020b6040890152565b60020b6060870152565b60020b84870152565b60a083015260c08201528360e082015283610100820152614f98306101208301613860565b4261014082015283610160820152614fb7610f8f610f8f60d3546104f0565b9060405194858094819363b5007d1f60e01b835260048301614e55565b03925af1908115610ddf575f91615038575b50614ff08160dd55565b615001610f8f610f8f60d3546104f0565b9061500d60d4546104f0565b90823b1561046d57613f51925f928360405180968195829463095ea7b360e01b8452600484016143b6565b61505a915060803d608011615063575b6150528183610a70565b810190614e2c565b5050505f614fe6565b503d615048565b5f93608093614f7361508494614f6a614f2060d6546104f0565b03925af1908115610ddf575f916150a0575b50614ff08160df55565b6150b9915060803d608011615063576150528183610a70565b5050505f615096565b8051906017820391808311611031576017906150e8846150e181612da2565b1015615806565b6150fe83516150f78685612db0565b1115615843565b036151155750506040515f81526020810160405290565b60405191601f8116916017831560051b80858701019484860193010101905b80841061514c5750508252601f01601f191660405290565b9092602080918551815201930190615134565b61517860ff5f5460081c1661517381614175565b614175565b6105ba33614539565b61519560ff5f5460081c1661517381614175565b60ff1960655416606555565b604051906152066020830163095ea7b360e01b81526151d7846151c95f1988602484016143b6565b03601f198101865285610a70565b83516001600160a01b038416915f91829182855af1906151f5615883565b82615261575b508161525a57501590565b61520f57505050565b60405163095ea7b360e01b60208201526001600160a01b0390931660248401525f60448401526105ba926144069061525481606481015b03601f198101835282610a70565b826152ba565b3b15919050565b80519192508115918215615279575b5050905f6151fb565b61528c925060208091830101910161440b565b5f80615270565b604051906152066020830163095ea7b360e01b81526151d7846151c95f88602484016143b6565b9061531a9160018060a01b03165f80604051936152d8604086610a70565b602085527f5361666545524332303a206c6f772d6c6576656c2063616c6c206661696c6564602086015260208151910182855af1615314615883565b916158c6565b8051908115918215615388575b50501561533057565b60405162461bcd60e51b815260206004820152602a60248201527f5361666545524332303a204552433230206f7065726174696f6e20646964206e6044820152691bdd081cdd58d8d9595960b21b6064820152608490fd5b61539b925060208091830101910161440b565b5f80615327565b6001600160a01b03918216908216039190821161103157565b611e7f9291906001600160a01b03808316908216116153f8575b6001600160a01b03916153e891906153a2565b16906001600160801b03166145eb565b906153d5565b9161544c916001600160a01b0380821690851611615462575b6001600160a01b0361542985836153a2565b6001600160a01b039092169291169060601b600160601b600160e01b03166146cb565b6001600160a01b039091169081156121d8570490565b92615417565b6097546040516370a0823160e01b815230600482015290602090829060249082906001600160a01b03165afa908115610ddf575f916124ed575090565b604080519091906154b68382610a70565b6001815291601f1901825f5b8281106154ce57505050565b8060606020809385010152016154c2565b939291906154f590606086526060860190610aad565b908482036020860152805180835260208301926020808360051b8301019301935f915b83831061552c575050505060409150930152565b90919293602080615549600193601f198682030187528951610aad565b9701930193019194939290615518565b939261241790600193608093858060a01b0316875260208701525f604087015260a0606087015260a0860190610aad565b90916155a3906143f86040519485923060208501615559565b6155ab6154a5565b916155b583611fe5565b526155bf82611fe5565b506040515f60208201526001600160a01b039190911691906155e48160218101615246565b823b1561046d57613f51925f9283604051809681958294630d64d59360e21b84524291600485016154df565b9060020b9060020b0190627fffff198212627fffff83131761103157565b9291909260020b8160020b9081156121d857627fffff1981145f1983141661103157818105915f821291826156ae575b5050615696575b9061566f91612549565b918060020b8360020b0390627fffff8213627fffff1983121761103157611e7f9193615610565b60020b90627fffff19821461103157905f1901615665565b0760020b151590505f8061565e565b611e7f926156f59290916001600160a01b03808316908216116156fa575b6001600160a01b03916156ee91906153a2565b1690614633565b6158b2565b906156db565b611e7f926156f5929091906001600160a01b038082169083161161574e575b6157476157386001600160a01b038381169085166145eb565b926001600160a01b03926153a2565b16916146cb565b9061571f565b6014815110615767576020015160601c90565b60405162461bcd60e51b8152602060048201526015602482015274746f416464726573735f6f75744f66426f756e647360581b6044820152606490fd5b9081516014820190818311611031571061576757016020015160601c90565b156157ca57565b60405162461bcd60e51b8152602060048201526014602482015273746f55696e7432345f6f75744f66426f756e647360601b6044820152606490fd5b1561580d57565b60405162461bcd60e51b815260206004820152600e60248201526d736c6963655f6f766572666c6f7760901b6044820152606490fd5b1561584a57565b60405162461bcd60e51b8152602060048201526011602482015270736c6963655f6f75744f66426f756e647360781b6044820152606490fd5b3d156158ad573d9061589482614758565b916158a26040519384610a70565b82523d5f602084013e565b606090565b6001600160801b0381169190820361046d57565b9192901561592857508151156158da575090565b3b156158e35790565b60405162461bcd60e51b815260206004820152601d60248201527f416464726573733a2063616c6c20746f206e6f6e2d636f6e74726163740000006044820152606490fd5b82519091501561593b5750805190602001fd5b60405162461bcd60e51b81526020600482015290819061595f906024830190610aad565b0390fdfe1eae7da9527d10df3df1fd29ae9bb3dc5028f6e7606970c9feefadfe7f9746738be0079c531659141344cd1fd0a4f28419497f9722a3daafe3b4186f6b6457e062e78cea01bee320cd4e420270b5ea74000d11b0c9f74754ebdbfc544b05a258b3d6e86317c38844915b053a0c35ff2fc103b684e96cef2918ab06844eb51aafd255b592c7f268a73e534da5219a60ff911b4cf6daae21c7d20527dd657bd99aa264697066735822122078783a68c931746a6ed8b74138b32717a1770f85b3893d066089cb992107d59764736f6c634300081c0033","linkReferences":{}},"methodIdentifiers":{"balances()":"7bb98a68","balancesOfPool()":"fcc25e13","balancesOfThis()":"00a4b5c9","beefyFeeConfig()":"4746fb55","beefyFeeRecipient()":"8e145459","beforeAction()":"17dd7a72","currentTick()":"065e5360","deposit()":"d0e30db0","depositFee()":"67a52793","factory()":"c45a0155","fees()":"9af1d35a","gauge()":"a6f19c84","getAllFees()":"b20feaaf","getStratFeeId()":"8cfc0250","harvest()":"4641257d","harvest(address)":"0e5c011e","initialize(address,address,address,address,address,address,int24,bytes[],(address,address,address,address))":"3c334dd5","isCalm()":"9bdde46b","keeper()":"aced1661","lastHarvest()":"f1a392da","lastPositionAdjustment()":"865238d4","lockedProfit()":"44b81396","lpToken0()":"5ee167c0","lpToken0ToNativePath()":"1dcfeddd","lpToken0ToNativePrice()":"9c6d4904","lpToken1()":"877562b6","lpToken1ToNativePath()":"953d329f","lpToken1ToNativePrice()":"16b9cd9c","maxTickDeviation()":"696c58e5","moveTicks()":"c7d54132","native()":"11b0b42d","nftManager()":"e88b91ea","onERC721Received(address,address,uint256,bytes)":"150b7a02","output()":"f20eaeb8","outputToNative()":"13e120b1","outputToNativePath()":"e48f98fd","owner()":"8da5cb5b","panic(uint256,uint256)":"60991346","paused()":"5c975abb","pool()":"16f0115b","positionAlt()":"99cd2446","positionMain()":"bc415d8a","positionWidth()":"8097e249","price()":"a035b1fe","quoter()":"c6bbd5a7","range()":"e97206a9","renounceOwnership()":"715018a6","retireVault()":"b3a60cb3","rewardPool()":"66666aa9","setDeviation(int56)":"362c28c6","setPositionWidth(int24)":"12cf1381","setRewardPool(address)":"78238c37","setStratFeeId(uint256)":"3e55f932","setStrategist(address)":"c7b9d530","setTwapInterval(uint32)":"1d27050f","setUnirouter(address)":"d92f3d73","sqrtPrice()":"b83d2683","strategist()":"1fe4a686","swapFee()":"54cf2aeb","totalLocked0()":"2b950b66","totalLocked1()":"04c404b3","transferOwnership(address)":"f2fde38b","twap()":"1208aa18","twapInterval()":"3c1d5df0","unirouter()":"257ae0de","unpause()":"3f4ba83a","vault()":"fbfa77cf","withdraw(uint256,uint256)":"441a3e70","withdrawFee()":"e941fa78"},"id":125}