{"abi":[{"type":"constructor","inputs":[],"stateMutability":"nonpayable"},{"type":"function","name":"allVaults","inputs":[{"name":"","type":"uint256","internalType":"uint256"}],"outputs":[{"name":"","type":"address","internalType":"address"}],"stateMutability":"view"},{"type":"function","name":"clearBrokenVault","inputs":[{"name":"user","type":"address","internalType":"address"}],"outputs":[],"stateMutability":"nonpayable"},{"type":"function","name":"controller","inputs":[],"outputs":[{"name":"","type":"address","internalType":"address"}],"stateMutability":"view"},{"type":"function","name":"createVault","inputs":[{"name":"user","type":"address","internalType":"address"},{"name":"strategyName","type":"string","internalType":"string"}],"outputs":[{"name":"vault","type":"address","internalType":"address"},{"name":"strategy","type":"address","internalType":"address"}],"stateMutability":"nonpayable"},{"type":"function","name":"getAllVaults","inputs":[],"outputs":[{"name":"","type":"address[]","internalType":"address[]"}],"stateMutability":"view"},{"type":"function","name":"getVault","inputs":[{"name":"user","type":"address","internalType":"address"}],"outputs":[{"name":"","type":"address","internalType":"address"}],"stateMutability":"view"},{"type":"function","name":"getVaultCount","inputs":[],"outputs":[{"name":"","type":"uint256","internalType":"uint256"}],"stateMutability":"view"},{"type":"function","name":"getVaultsNeedingUpgrade","inputs":[],"outputs":[{"name":"","type":"address[]","internalType":"address[]"}],"stateMutability":"view"},{"type":"function","name":"initialize","inputs":[{"name":"_owner","type":"address","internalType":"address"},{"name":"_usdc","type":"address","internalType":"address"},{"name":"_strategyFactory","type":"address","internalType":"address"},{"name":"_controller","type":"address","internalType":"address"},{"name":"_implementation","type":"address","internalType":"address"}],"outputs":[],"stateMutability":"nonpayable"},{"type":"function","name":"isVaultInitialized","inputs":[{"name":"vaultAddress","type":"address","internalType":"address"}],"outputs":[{"name":"","type":"bool","internalType":"bool"}],"stateMutability":"view"},{"type":"function","name":"latestImplementation","inputs":[],"outputs":[{"name":"","type":"address","internalType":"address"}],"stateMutability":"view"},{"type":"function","name":"owner","inputs":[],"outputs":[{"name":"","type":"address","internalType":"address"}],"stateMutability":"view"},{"type":"function","name":"predictVaultAddress","inputs":[{"name":"caller","type":"address","internalType":"address"},{"name":"strategyAddr","type":"address","internalType":"address"},{"name":"timestamp","type":"uint256","internalType":"uint256"}],"outputs":[{"name":"","type":"address","internalType":"address"}],"stateMutability":"view"},{"type":"function","name":"proxiableUUID","inputs":[],"outputs":[{"name":"","type":"bytes32","internalType":"bytes32"}],"stateMutability":"view"},{"type":"function","name":"renounceOwnership","inputs":[],"outputs":[],"stateMutability":"nonpayable"},{"type":"function","name":"setController","inputs":[{"name":"_controller","type":"address","internalType":"address"}],"outputs":[],"stateMutability":"nonpayable"},{"type":"function","name":"setLatestImplementation","inputs":[{"name":"_implementation","type":"address","internalType":"address"}],"outputs":[],"stateMutability":"nonpayable"},{"type":"function","name":"strategyFactory","inputs":[],"outputs":[{"name":"","type":"address","internalType":"address"}],"stateMutability":"view"},{"type":"function","name":"transferOwnership","inputs":[{"name":"newOwner","type":"address","internalType":"address"}],"outputs":[],"stateMutability":"nonpayable"},{"type":"function","name":"transferVaultOwnership","inputs":[{"name":"vault","type":"address","internalType":"address"},{"name":"newOwner","type":"address","internalType":"address"}],"outputs":[],"stateMutability":"nonpayable"},{"type":"function","name":"upgradeTo","inputs":[{"name":"newImplementation","type":"address","internalType":"address"}],"outputs":[],"stateMutability":"nonpayable"},{"type":"function","name":"upgradeToAndCall","inputs":[{"name":"newImplementation","type":"address","internalType":"address"},{"name":"data","type":"bytes","internalType":"bytes"}],"outputs":[],"stateMutability":"payable"},{"type":"function","name":"usdc","inputs":[],"outputs":[{"name":"","type":"address","internalType":"address"}],"stateMutability":"view"},{"type":"function","name":"vaults","inputs":[{"name":"","type":"address","internalType":"address"}],"outputs":[{"name":"","type":"address","internalType":"address"}],"stateMutability":"view"},{"type":"event","name":"AdminChanged","inputs":[{"name":"previousAdmin","type":"address","indexed":false,"internalType":"address"},{"name":"newAdmin","type":"address","indexed":false,"internalType":"address"}],"anonymous":false},{"type":"event","name":"BeaconUpgraded","inputs":[{"name":"beacon","type":"address","indexed":true,"internalType":"address"}],"anonymous":false},{"type":"event","name":"ControllerUpdated","inputs":[{"name":"oldController","type":"address","indexed":true,"internalType":"address"},{"name":"newController","type":"address","indexed":true,"internalType":"address"}],"anonymous":false},{"type":"event","name":"ImplementationUpdated","inputs":[{"name":"oldImplementation","type":"address","indexed":true,"internalType":"address"},{"name":"newImplementation","type":"address","indexed":true,"internalType":"address"}],"anonymous":false},{"type":"event","name":"Initialized","inputs":[{"name":"version","type":"uint8","indexed":false,"internalType":"uint8"}],"anonymous":false},{"type":"event","name":"OwnershipTransferred","inputs":[{"name":"previousOwner","type":"address","indexed":true,"internalType":"address"},{"name":"newOwner","type":"address","indexed":true,"internalType":"address"}],"anonymous":false},{"type":"event","name":"Upgraded","inputs":[{"name":"implementation","type":"address","indexed":true,"internalType":"address"}],"anonymous":false},{"type":"event","name":"VaultCreated","inputs":[{"name":"user","type":"address","indexed":true,"internalType":"address"},{"name":"vault","type":"address","indexed":true,"internalType":"address"},{"name":"strategy","type":"address","indexed":true,"internalType":"address"}],"anonymous":false},{"type":"error","name":"InitializationFailed","inputs":[]},{"type":"error","name":"InvalidController","inputs":[]},{"type":"error","name":"InvalidImplementation","inputs":[]},{"type":"error","name":"InvalidStrategyFactory","inputs":[]},{"type":"error","name":"InvalidUSDC","inputs":[]},{"type":"error","name":"InvalidUser","inputs":[]},{"type":"error","name":"StrategyCreationFailed","inputs":[]},{"type":"error","name":"VaultAlreadyExists","inputs":[]},{"type":"error","name":"VaultNotInitialized","inputs":[]}],"bytecode":{"object":"0x60a080604052346100da57306080525f549060ff8260081c16610088575060ff8082160361004e575b604051611f4890816100df8239608051818181610ace01528181610bee0152610e5e0152f35b60ff90811916175f557f7f26b83ff96e1f2b6a682f133852f6798a09c465da95921460cefb3847402498602060405160ff8152a15f610028565b62461bcd60e51b815260206004820152602760248201527f496e697469616c697a61626c653a20636f6e747261637420697320696e697469604482015266616c697a696e6760c81b6064820152608490fd5b5f80fdfe6080806040526004361015610012575f80fd5b5f905f3560e01c9081630eb9af38146112b3575080631459457a1461109a5780633659cfe614610e405780633e413bee14610e185780634f1ef28614610b7957806352d1902d14610abc5780636215772714610a8f578063715018a614610a4757806374d4e49114610a2a5780638da5cb5b14610a025780639094a91e146109c057806392eefe9b1461093e57806397331bf9146108c15780639c6aed1c1461077c5780639ef3571014610754578063a622ee7c14610714578063b133f4d3146106ec578063b771f73d1461037a578063bb453394146102f8578063c5aeb76d146102cd578063c72eafae146102a4578063f2fde38b14610217578063f77c4791146101ef5763fdc10daf14610126575f80fd5b346101c75760403660031901126101c75761013f6112f2565b610147611308565b6033546001600160a01b0316331415806101da575b6101cb576001600160a01b03169081156101cb576001600160a01b031690813b156101c7575f9160248392604051948593849263f2fde38b60e01b845260048401525af180156101bc576101ae575080f35b6101ba91505f9061131e565b005b6040513d5f823e3d90fd5b5f80fd5b63fd684c3b60e01b5f5260045ffd5b5060cb546001600160a01b031633141561015c565b346101c7575f3660031901126101c75760cb546040516001600160a01b039091168152602090f35b346101c75760203660031901126101c7576102306112f2565b6102386118cf565b6001600160a01b03811615610250576101ba9061189a565b60405162461bcd60e51b815260206004820152602660248201527f4f776e61626c653a206e6577206f776e657220697320746865207a65726f206160448201526564647265737360d01b6064820152608490fd5b346101c75760203660031901126101c7576101ba6102c06112f2565b6102c86118cf565b611783565b346101c7575f3660031901126101c7576102f46102e8611635565b60405191829182611388565b0390f35b346101c75760203660031901126101c7576103116112f2565b6103196118cf565b6001600160a01b0316801561036b5760cc80546001600160a01b0319811683179091556001600160a01b03167faa3f731066a578e5f39b4215468d826cdd15373cbc0dfc9cb9bdc649718ef7da5f80a3005b63340aafcd60e11b5f5260045ffd5b346101c75760403660031901126101c7576103936112f2565b6024356001600160401b0381116101c757366023820112156101c75760048101356001600160401b0381116101c75736602482840101116101c7576033546001600160a01b0316331415806106d7575b6101cb576001600160a01b0383169182156101cb578160209160245f604460018060a01b0360ca5416936040519788968795869363116fd50160e01b85528a6004860152828286015201848401378181018301849052601f01601f191681010301925af19081156101bc575f916106b8575b506001600160a01b0381169283156106a95761048361049160ce54604051928391602083019542908761154a565b03601f19810183528261131e565b51902060cb5460405163c0c53b8b60e01b602082015291926104c6918391610483916001600160a01b0316336024850161156c565b60cc54604051916103be808401929091906001600160a01b03166001600160401b0384118585101761062457849361050293611a5586396115b3565b03905ff580156101bc57604051638da5cb5b60e01b81526001600160a01b03919091169290602081600481875afa9081156101bc575f9161068a575b50604051635463173b60e11b815290602082600481885afa9182156101bc575f92610659575b506001600160a01b031615908115610647575b506106385760ce5492600160401b8410156106245761059e8460016040960160ce5561135c565b81546001600160a01b0360039290921b82811b199091169084901b179091555f84815260cd602052859020541615610603575b81818551947f897c133dfbfe1f6239e98b4ffd7e4f6c86a62350a131a7a37790419f58af02f95f80a482526020820152f35b5f83815260cd60205284902080546001600160a01b031916821790556105d1565b634e487b7160e01b5f52604160045260245ffd5b630337323560e31b5f5260045ffd5b6001600160a01b031615905084610577565b61067c91925060203d602011610683575b610674818361131e565b810190611466565b9085610564565b503d61066a565b6106a3915060203d60201161068357610674818361131e565b8461053e565b6310be6f5360e01b5f5260045ffd5b6106d1915060203d60201161068357610674818361131e565b83610455565b5060cb546001600160a01b03163314156103e3565b346101c7575f3660031901126101c75760cc546040516001600160a01b039091168152602090f35b346101c75760203660031901126101c7576001600160a01b036107356112f2565b165f5260cd602052602060018060a01b0360405f205416604051908152f35b346101c7575f3660031901126101c75760ca546040516001600160a01b039091168152602090f35b346101c75760603660031901126101c75760206107976112f2565b61079f611308565b6107ef60ce546040516107bd8161048388820194604435898761154a565b51902060cb5460405163c0c53b8b60e01b87820152919491938492610483926001600160a01b0316906024850161156c565b6108376108766103be85604051946108098284018761131e565b82865281860192611a55843960cc54604051958387019261084592889291906001600160a01b0316856115b3565b03601f19810187528661131e565b60405194859383850197518091895e840190838201905f8252519283915e01015f815203601f19810183528261131e565b51902090604051918383019160ff60f81b83523060601b602185015260358401526055830152605582526108ab60758361131e565b905190206040516001600160a01b039091168152f35b346101c7575f3660031901126101c75760405160ce80548083525f91825260208301917fd36cd1c74ef8d7326d8021b776c18fb5a5724b7f7bc93c2f42e43e10ef27d12a91905b81811061091f576102f4856102e88187038261131e565b82546001600160a01b0316845260209093019260019283019201610908565b346101c75760203660031901126101c7576109576112f2565b61095f6118cf565b6001600160a01b031680156109b15760cb80546001600160a01b0319811683179091556001600160a01b03167f1c87e2bbc4e5fa5d7f6f8c44d66cb241dff224b8602eb5435ca2076d2a5c6fc25f80a3005b6336abb4df60e11b5f5260045ffd5b346101c75760203660031901126101c75760043560ce548110156101c7576109e960209161135c565b905460405160039290921b1c6001600160a01b03168152f35b346101c7575f3660031901126101c7576033546040516001600160a01b039091168152602090f35b346101c7575f3660031901126101c757602060ce54604051908152f35b346101c7575f3660031901126101c757610a5f6118cf565b603380546001600160a01b031981169091555f906001600160a01b03165f516020611e735f395f51905f528280a3005b346101c75760203660031901126101c7576020610ab2610aad6112f2565b611485565b6040519015158152f35b346101c7575f3660031901126101c7577f00000000000000000000000000000000000000000000000000000000000000006001600160a01b03163003610b135760206040515f516020611e535f395f51905f528152f35b60405162461bcd60e51b815260206004820152603860248201527f555550535570677261646561626c653a206d757374206e6f742062652063616c6044820152771b1959081d1a1c9bdd59da0819195b1959d85d1958d85b1b60421b6064820152608490fd5b60403660031901126101c757610b8d6112f2565b602435906001600160401b0382116101c757366023830112156101c7578160040135610bb881611341565b90610bc6604051928361131e565b808252602082019336602483830101116101c757815f92602460209301873783010152610c407f00000000000000000000000000000000000000000000000000000000000000006001600160a01b0316610c22308214156113ca565b5f516020611e535f395f51905f52546001600160a01b031614611418565b610c486118cf565b5f516020611e135f395f51905f525460ff1615610c6a57506101ba9150611927565b6040516352d1902d60e01b81529091906001600160a01b03821690602081600481855afa5f9181610de4575b50610ce45760405162461bcd60e51b815260206004820152602e60248201525f516020611ef35f395f51905f5260448201526d6f6e206973206e6f74205555505360901b6064820152608490fd5b5f516020611e535f395f51905f5203610da057610d0082611927565b5f516020611e935f395f51905f525f80a2815115801590610d98575b610d2257005b5f806101ba9460405194610d3760608761131e565b602786525f516020611ed35f395f51905f526020870152660819985a5b195960ca1b60408701525190845af43d15610d90573d91610d7483611341565b92610d82604051948561131e565b83523d5f602085013e6119b7565b6060916119b7565b506001610d1c565b60405162461bcd60e51b815260206004820152602960248201525f516020611eb35f395f51905f526044820152681a58589b195555525160ba1b6064820152608490fd5b9091506020813d602011610e10575b81610e006020938361131e565b810103126101c757519086610c96565b3d9150610df3565b346101c7575f3660031901126101c75760c9546040516001600160a01b039091168152602090f35b346101c75760203660031901126101c757610e596112f2565b610e927f00000000000000000000000000000000000000000000000000000000000000006001600160a01b0316610c22308214156113ca565b610e9a6118cf565b604051906020610eaa818461131e565b5f835280830192601f1982013685375f516020611e135f395f51905f525460ff1615610edc5750506101ba9150611927565b6040516352d1902d60e01b8152919290916001600160a01b038216908481600481855afa5f918161106b575b50610f565760405162461bcd60e51b815260048101869052602e60248201525f516020611ef35f395f51905f5260448201526d6f6e206973206e6f74205555505360901b6064820152608490fd5b9293927fc9f76b5ec45e5cdef99837d7b6d2467235c1df8933c8ca56df5c35afa2c7d4440161102757610f8882611927565b5f516020611e935f395f51905f525f80a2825115801590611020575b610faa57005b5f806101ba9560405195610fbf60608861131e565b602787525f516020611ed35f395f51905f5286880152660819985a5b195960ca1b60408801525190845af4903d15611017573d610ffb81611341565b90611009604051928361131e565b81525f81943d92013e6119b7565b606092506119b7565b505f610fa4565b60405162461bcd60e51b815260048101849052602960248201525f516020611eb35f395f51905f526044820152681a58589b195555525160ba1b6064820152608490fd5b9091508581813d8311611093575b611083818361131e565b810103126101c757519087610f08565b503d611079565b346101c75760a03660031901126101c7576110b36112f2565b6110bb611308565b906044356001600160a01b038116908190036101c7576064356001600160a01b038116908190036101c7576084356001600160a01b03811692908390036101c7575f5460ff8160081c1615948580966112a6575b801561128f575b156112335760ff1982166001175f556111579186611222575b5061114960ff5f5460081c166111448161183a565b61183a565b6111523361189a565b61189a565b5f549461116960ff8760081c1661183a565b6001600160a01b031680156112135781156112045782156109b157831561036b5760018060a01b031960c954161760c95560018060a01b031960ca54161760ca5560018060a01b031960cb54161760cb5560018060a01b031960cc54161760cc556111d057005b61ff0019165f557f7f26b83ff96e1f2b6a682f133852f6798a09c465da95921460cefb3847402498602060405160018152a1005b632f9b373360e11b5f5260045ffd5b634e05805760e01b5f5260045ffd5b61ffff1916610101175f558761112f565b60405162461bcd60e51b815260206004820152602e60248201527f496e697469616c697a61626c653a20636f6e747261637420697320616c72656160448201526d191e481a5b9a5d1a585b1a5e995960921b6064820152608490fd5b50303b1580156111165750600160ff831614611116565b50600160ff83161061110f565b346101c75760203660031901126101c7576020906001600160a01b036112d76112f2565b165f90815260cd835260409020546001600160a01b03168152f35b600435906001600160a01b03821682036101c757565b602435906001600160a01b03821682036101c757565b601f909101601f19168101906001600160401b0382119082101761062457604052565b6001600160401b03811161062457601f01601f191660200190565b60ce548110156113745760ce5f5260205f2001905f90565b634e487b7160e01b5f52603260045260245ffd5b60206040818301928281528451809452019201905f5b8181106113ab5750505090565b82516001600160a01b031684526020938401939092019160010161139e565b156113d157565b60405162461bcd60e51b815260206004820152602c60248201525f516020611e335f395f51905f5260448201526b19195b1959d85d1958d85b1b60a21b6064820152608490fd5b1561141f57565b60405162461bcd60e51b815260206004820152602c60248201525f516020611e335f395f51905f5260448201526b6163746976652070726f787960a01b6064820152608490fd5b908160209103126101c757516001600160a01b03811681036101c75790565b6001600160a01b0316801561152457604051638da5cb5b60e01b8152602081600481855afa5f9181611529575b506114bd5750505f90565b6001600160a01b03161561152457602060049160405192838092635463173b60e11b82525afa5f9181611503575b506114f557505f90565b6001600160a01b0316151590565b61151d91925060203d60201161068357610674818361131e565b905f6114eb565b505f90565b61154391925060203d60201161068357610674818361131e565b905f6114b2565b916054939160018060601b03199060601b168352601483015260348201520190565b6001600160a01b0391821681529181166020830152909116604082015260600190565b805180835260209291819084018484015e5f828201840152601f01601f1916010190565b6001600160a01b0390911681526040602082018190526115d59291019061158f565b90565b6001600160401b0381116106245760051b60200190565b906115f9826115d8565b611606604051918261131e565b8281528092611617601f19916115d8565b0190602036910137565b80518210156113745760209160051b010190565b60cc546001600160a01b03169081156117695760ce5491611655836115ef565b925f915f5b8281106116a65750505061166d816115ef565b905f5b81811061167e575090925050565b6001906001600160a01b036116938288611621565b511661169f8286611621565b5201611670565b600460206116b38361135c565b905460405163557887a160e11b81529384929091839160031b1c6001600160a01b03165afa80156101bc5783915f9161174b575b506001600160a01b0316036116ff575b60010161165a565b926117098461135c565b905460039190911b1c6001600160a01b03166117258288611621565b525f19811461173757600101926116f7565b634e487b7160e01b5f52601160045260245ffd5b611763915060203d811161068357610674818361131e565b5f6116e7565b905060405161177960208261131e565b5f81525f36813790565b6001600160a01b031680156101cb575f81815260cd60205260409020546001600160a01b0316801561183657602060049160405192838092638da5cb5b60e01b82525afa5f9181611815575b506117f3575b505f90815260cd6020526040902080546001600160a01b0319169055565b6001600160a01b0316611806575f6117d5565b639a09fd8760e01b5f5260045ffd5b61182f91925060203d60201161068357610674818361131e565b905f6117cf565b5050565b1561184157565b60405162461bcd60e51b815260206004820152602b60248201527f496e697469616c697a61626c653a20636f6e7472616374206973206e6f74206960448201526a6e697469616c697a696e6760a81b6064820152608490fd5b603380546001600160a01b039283166001600160a01b0319821681179092559091165f516020611e735f395f51905f525f80a3565b6033546001600160a01b031633036118e357565b606460405162461bcd60e51b815260206004820152602060248201527f4f776e61626c653a2063616c6c6572206973206e6f7420746865206f776e65726044820152fd5b803b1561195c575f516020611e535f395f51905f5280546001600160a01b0319166001600160a01b0392909216919091179055565b60405162461bcd60e51b815260206004820152602d60248201527f455243313936373a206e657720696d706c656d656e746174696f6e206973206e60448201526c1bdd08184818dbdb9d1c9858dd609a1b6064820152608490fd5b91929015611a1957508151156119cb575090565b3b156119d45790565b60405162461bcd60e51b815260206004820152601d60248201527f416464726573733a2063616c6c20746f206e6f6e2d636f6e74726163740000006044820152606490fd5b825190915015611a2c5750805190602001fd5b60405162461bcd60e51b815260206004820152908190611a5090602483019061158f565b0390fdfe60806040526103be80380380610014816101f2565b9283398101906040818303126101ee5780516001600160a01b038116918282036101ee576020810151906001600160401b0382116101ee57019183601f840112156101ee57825161006c6100678261022b565b6101f2565b938185526020850195602083830101116101ee57815f926020809301885e85010152813b15610193577f360894a13ba1a3210667c828492db98dca3e2076cc3735a920a3ca505d382bbc80546001600160a01b031916821790557fbc7cd75a20ee27fd9adebab32041f755214dbc6bffa90cc0225b39da2e5c2d3b5f80a281511580159061018c575b610108575b60405160c390816102fb8239f35b5f8061017b9461011860606101f2565b94602786527f416464726573733a206c6f772d6c6576656c2064656c65676174652063616c6c6020870152660819985a5b195960ca1b60408701525190845af43d15610184573d9161016c6100678461022b565b9283523d5f602085013e610246565b505f80806100fa565b606091610246565b505f6100f5565b60405162461bcd60e51b815260206004820152602d60248201527f455243313936373a206e657720696d706c656d656e746174696f6e206973206e60448201526c1bdd08184818dbdb9d1c9858dd609a1b6064820152608490fd5b5f80fd5b6040519190601f01601f191682016001600160401b0381118382101761021757604052565b634e487b7160e01b5f52604160045260245ffd5b6001600160401b03811161021757601f01601f191660200190565b919290156102a8575081511561025a575090565b3b156102635790565b60405162461bcd60e51b815260206004820152601d60248201527f416464726573733a2063616c6c20746f206e6f6e2d636f6e74726163740000006044820152606490fd5b8251909150156102bb5750805190602001fd5b604460209160405192839162461bcd60e51b83528160048401528051918291826024860152018484015e5f828201840152601f01601f19168101030190fdfe60806040523615603d575f516020606e5f395f51905f52545f9081906001600160a01b0316368280378136915af43d5f803e156039573d5ff35b3d5ffd5b5f516020606e5f395f51905f52545f9081906001600160a01b0316368280378136915af43d5f803e156039573d5ff3fe360894a13ba1a3210667c828492db98dca3e2076cc3735a920a3ca505d382bbca2646970667358221220b298ecb79d7191e13df659c873f9d4f8912c4067cd08ed944f20fd53a8cbc25a64736f6c634300081c00334910fdfa16fed3260ed0e7147f7cc6da11a60208b5b9406d12a635614ffd914346756e6374696f6e206d7573742062652063616c6c6564207468726f75676820360894a13ba1a3210667c828492db98dca3e2076cc3735a920a3ca505d382bbc8be0079c531659141344cd1fd0a4f28419497f9722a3daafe3b4186f6b6457e0bc7cd75a20ee27fd9adebab32041f755214dbc6bffa90cc0225b39da2e5c2d3b45524331393637557067726164653a20756e737570706f727465642070726f78416464726573733a206c6f772d6c6576656c2064656c65676174652063616c6c45524331393637557067726164653a206e657720696d706c656d656e74617469a26469706673582212201320c5691de27a6bade8cedf33ffae8d27ee619113bfb066aece02c851bee23264736f6c634300081c0033","linkReferences":{}},"methodIdentifiers":{"allVaults(uint256)":"9094a91e","clearBrokenVault(address)":"c72eafae","controller()":"f77c4791","createVault(address,string)":"b771f73d","getAllVaults()":"97331bf9","getVault(address)":"0eb9af38","getVaultCount()":"74d4e491","getVaultsNeedingUpgrade()":"c5aeb76d","initialize(address,address,address,address,address)":"1459457a","isVaultInitialized(address)":"62157727","latestImplementation()":"b133f4d3","owner()":"8da5cb5b","predictVaultAddress(address,address,uint256)":"9c6aed1c","proxiableUUID()":"52d1902d","renounceOwnership()":"715018a6","setController(address)":"92eefe9b","setLatestImplementation(address)":"bb453394","strategyFactory()":"9ef35710","transferOwnership(address)":"f2fde38b","transferVaultOwnership(address,address)":"fdc10daf","upgradeTo(address)":"3659cfe6","upgradeToAndCall(address,bytes)":"4f1ef286","usdc()":"3e413bee","vaults(address)":"a622ee7c"},"id":107}