{"abi":[{"type":"constructor","inputs":[],"stateMutability":"nonpayable"},{"type":"function","name":"allVaults","inputs":[{"name":"","type":"uint256","internalType":"uint256"}],"outputs":[{"name":"","type":"address","internalType":"address"}],"stateMutability":"view"},{"type":"function","name":"clearBrokenVault","inputs":[{"name":"user","type":"address","internalType":"address"}],"outputs":[],"stateMutability":"nonpayable"},{"type":"function","name":"controller","inputs":[],"outputs":[{"name":"","type":"address","internalType":"address"}],"stateMutability":"view"},{"type":"function","name":"createVault","inputs":[{"name":"user","type":"address","internalType":"address"},{"name":"strategyName","type":"string","internalType":"string"},{"name":"vaultName","type":"string","internalType":"string"},{"name":"vaultSymbol","type":"string","internalType":"string"}],"outputs":[{"name":"vault","type":"address","internalType":"address"},{"name":"strategy","type":"address","internalType":"address"}],"stateMutability":"nonpayable"},{"type":"function","name":"getAllVaults","inputs":[],"outputs":[{"name":"","type":"address[]","internalType":"address[]"}],"stateMutability":"view"},{"type":"function","name":"getVault","inputs":[{"name":"user","type":"address","internalType":"address"}],"outputs":[{"name":"","type":"address","internalType":"address"}],"stateMutability":"view"},{"type":"function","name":"getVaultCount","inputs":[],"outputs":[{"name":"","type":"uint256","internalType":"uint256"}],"stateMutability":"view"},{"type":"function","name":"getVaultsNeedingUpgrade","inputs":[],"outputs":[{"name":"","type":"address[]","internalType":"address[]"}],"stateMutability":"view"},{"type":"function","name":"initialize","inputs":[{"name":"_owner","type":"address","internalType":"address"},{"name":"_usdc","type":"address","internalType":"address"},{"name":"_strategyFactory","type":"address","internalType":"address"},{"name":"_controller","type":"address","internalType":"address"},{"name":"_implementation","type":"address","internalType":"address"}],"outputs":[],"stateMutability":"nonpayable"},{"type":"function","name":"isVaultInitialized","inputs":[{"name":"vaultAddress","type":"address","internalType":"address"}],"outputs":[{"name":"","type":"bool","internalType":"bool"}],"stateMutability":"view"},{"type":"function","name":"latestImplementation","inputs":[],"outputs":[{"name":"","type":"address","internalType":"address"}],"stateMutability":"view"},{"type":"function","name":"owner","inputs":[],"outputs":[{"name":"","type":"address","internalType":"address"}],"stateMutability":"view"},{"type":"function","name":"predictVaultAddress","inputs":[{"name":"user","type":"address","internalType":"address"},{"name":"strategy","type":"address","internalType":"address"},{"name":"vaultName","type":"string","internalType":"string"},{"name":"vaultSymbol","type":"string","internalType":"string"}],"outputs":[{"name":"","type":"address","internalType":"address"}],"stateMutability":"view"},{"type":"function","name":"proxiableUUID","inputs":[],"outputs":[{"name":"","type":"bytes32","internalType":"bytes32"}],"stateMutability":"view"},{"type":"function","name":"renounceOwnership","inputs":[],"outputs":[],"stateMutability":"nonpayable"},{"type":"function","name":"setController","inputs":[{"name":"_controller","type":"address","internalType":"address"}],"outputs":[],"stateMutability":"nonpayable"},{"type":"function","name":"setLatestImplementation","inputs":[{"name":"_implementation","type":"address","internalType":"address"}],"outputs":[],"stateMutability":"nonpayable"},{"type":"function","name":"strategyFactory","inputs":[],"outputs":[{"name":"","type":"address","internalType":"address"}],"stateMutability":"view"},{"type":"function","name":"transferOwnership","inputs":[{"name":"newOwner","type":"address","internalType":"address"}],"outputs":[],"stateMutability":"nonpayable"},{"type":"function","name":"transferVaultOwnership","inputs":[{"name":"vault","type":"address","internalType":"address"},{"name":"newOwner","type":"address","internalType":"address"}],"outputs":[],"stateMutability":"nonpayable"},{"type":"function","name":"upgradeTo","inputs":[{"name":"newImplementation","type":"address","internalType":"address"}],"outputs":[],"stateMutability":"nonpayable"},{"type":"function","name":"upgradeToAndCall","inputs":[{"name":"newImplementation","type":"address","internalType":"address"},{"name":"data","type":"bytes","internalType":"bytes"}],"outputs":[],"stateMutability":"payable"},{"type":"function","name":"usdc","inputs":[],"outputs":[{"name":"","type":"address","internalType":"address"}],"stateMutability":"view"},{"type":"function","name":"vaults","inputs":[{"name":"","type":"address","internalType":"address"}],"outputs":[{"name":"","type":"address","internalType":"address"}],"stateMutability":"view"},{"type":"event","name":"AdminChanged","inputs":[{"name":"previousAdmin","type":"address","indexed":false,"internalType":"address"},{"name":"newAdmin","type":"address","indexed":false,"internalType":"address"}],"anonymous":false},{"type":"event","name":"BeaconUpgraded","inputs":[{"name":"beacon","type":"address","indexed":true,"internalType":"address"}],"anonymous":false},{"type":"event","name":"ControllerUpdated","inputs":[{"name":"oldController","type":"address","indexed":true,"internalType":"address"},{"name":"newController","type":"address","indexed":true,"internalType":"address"}],"anonymous":false},{"type":"event","name":"ImplementationUpdated","inputs":[{"name":"oldImplementation","type":"address","indexed":true,"internalType":"address"},{"name":"newImplementation","type":"address","indexed":true,"internalType":"address"}],"anonymous":false},{"type":"event","name":"Initialized","inputs":[{"name":"version","type":"uint8","indexed":false,"internalType":"uint8"}],"anonymous":false},{"type":"event","name":"OwnershipTransferred","inputs":[{"name":"previousOwner","type":"address","indexed":true,"internalType":"address"},{"name":"newOwner","type":"address","indexed":true,"internalType":"address"}],"anonymous":false},{"type":"event","name":"Upgraded","inputs":[{"name":"implementation","type":"address","indexed":true,"internalType":"address"}],"anonymous":false},{"type":"event","name":"VaultCreated","inputs":[{"name":"user","type":"address","indexed":true,"internalType":"address"},{"name":"vault","type":"address","indexed":true,"internalType":"address"},{"name":"strategy","type":"address","indexed":true,"internalType":"address"}],"anonymous":false},{"type":"error","name":"InitializationFailed","inputs":[]},{"type":"error","name":"InvalidController","inputs":[]},{"type":"error","name":"InvalidImplementation","inputs":[]},{"type":"error","name":"InvalidStrategyFactory","inputs":[]},{"type":"error","name":"InvalidUSDC","inputs":[]},{"type":"error","name":"InvalidUser","inputs":[]},{"type":"error","name":"StrategyCreationFailed","inputs":[]},{"type":"error","name":"VaultAlreadyExists","inputs":[]},{"type":"error","name":"VaultNotInitialized","inputs":[]}],"bytecode":{"object":"0x60a080604052346100da57306080525f549060ff8260081c16610088575060ff8082160361004e575b60405161200390816100df823960805181818161079c015281816108bc0152610ec00152f35b60ff90811916175f557f7f26b83ff96e1f2b6a682f133852f6798a09c465da95921460cefb3847402498602060405160ff8152a15f610028565b62461bcd60e51b815260206004820152602760248201527f496e697469616c697a61626c653a20636f6e747261637420697320696e697469604482015266616c697a696e6760c81b6064820152608490fd5b5f80fdfe6080806040526004361015610012575f80fd5b5f905f3560e01c9081630eb9af3814611315575080631459457a146110fc5780633659cfe614610ea257806336e5621e14610b0e5780633e413bee14610ae65780634f1ef2861461084757806352d1902d1461078a5780635bfaab371461060557806362157727146105d8578063715018a61461059057806374d4e491146105735780638da5cb5b1461054b5780639094a91e1461050957806392eefe9b1461048757806397331bf91461040a5780639ef35710146103e2578063a622ee7c146103a2578063b133f4d31461037a578063bb453394146102f8578063c5aeb76d146102cd578063c72eafae146102a4578063f2fde38b14610217578063f77c4791146101ef5763fdc10daf14610126575f80fd5b346101c75760403660031901126101c75761013f611354565b61014761136a565b6033546001600160a01b0316331415806101da575b6101cb576001600160a01b03169081156101cb576001600160a01b031690813b156101c7575f9160248392604051948593849263f2fde38b60e01b845260048401525af180156101bc576101ae575080f35b6101ba91505f906113ad565b005b6040513d5f823e3d90fd5b5f80fd5b63fd684c3b60e01b5f5260045ffd5b5060cb546001600160a01b031633141561015c565b346101c7575f3660031901126101c75760cb546040516001600160a01b039091168152602090f35b346101c75760203660031901126101c757610230611354565b61023861198a565b6001600160a01b03811615610250576101ba90611955565b60405162461bcd60e51b815260206004820152602660248201527f4f776e61626c653a206e6577206f776e657220697320746865207a65726f206160448201526564647265737360d01b6064820152608490fd5b346101c75760203660031901126101c7576101ba6102c0611354565b6102c861198a565b61183e565b346101c7575f3660031901126101c7576102f46102e86116f0565b60405191829182611417565b0390f35b346101c75760203660031901126101c757610311611354565b61031961198a565b6001600160a01b0316801561036b5760cc80546001600160a01b0319811683179091556001600160a01b03167faa3f731066a578e5f39b4215468d826cdd15373cbc0dfc9cb9bdc649718ef7da5f80a3005b63340aafcd60e11b5f5260045ffd5b346101c7575f3660031901126101c75760cc546040516001600160a01b039091168152602090f35b346101c75760203660031901126101c7576001600160a01b036103c3611354565b165f5260cd602052602060018060a01b0360405f205416604051908152f35b346101c7575f3660031901126101c75760ca546040516001600160a01b039091168152602090f35b346101c7575f3660031901126101c75760405160ce80548083525f91825260208301917fd36cd1c74ef8d7326d8021b776c18fb5a5724b7f7bc93c2f42e43e10ef27d12a91905b818110610468576102f4856102e8818703826113ad565b82546001600160a01b0316845260209093019260019283019201610451565b346101c75760203660031901126101c7576104a0611354565b6104a861198a565b6001600160a01b031680156104fa5760cb80546001600160a01b0319811683179091556001600160a01b03167f1c87e2bbc4e5fa5d7f6f8c44d66cb241dff224b8602eb5435ca2076d2a5c6fc25f80a3005b6336abb4df60e11b5f5260045ffd5b346101c75760203660031901126101c75760043560ce548110156101c7576105326020916113eb565b905460405160039290921b1c6001600160a01b03168152f35b346101c7575f3660031901126101c7576033546040516001600160a01b039091168152602090f35b346101c7575f3660031901126101c757602060ce54604051908152f35b346101c7575f3660031901126101c7576105a861198a565b603380546001600160a01b031981169091555f906001600160a01b03165f516020611f2e5f395f51905f528280a3005b346101c75760203660031901126101c75760206105fb6105f6611354565b6115ce565b6040519015158152f35b346101c75760803660031901126101c75761061e611354565b61062661136a565b906044356001600160401b0381116101c757610646903690600401611380565b92606435906001600160401b0382116101c757610699846020966106716106a7953690600401611380565b9060018060a01b0360cb541692604051988997636cf1dbed60e01b8d8a015260248901611534565b03601f1981018352826113ad565b6106ef61072e6103be85604051946106c1828401876113ad565b82865281860192611b10843960cc5460405195838701926106fd92889291906001600160a01b0316856115a9565b03601f1981018752866113ad565b60405194859383850197518091895e840190838201905f8252519283915e01015f815203601f1981018352826113ad565b5190206040516001600160f81b03198482019081523060601b60218301526001600160a01b039093166035820152605580820192909252908152906107746075836113ad565b905190206040516001600160a01b039091168152f35b346101c7575f3660031901126101c7577f00000000000000000000000000000000000000000000000000000000000000006001600160a01b031630036107e15760206040515f516020611f0e5f395f51905f528152f35b60405162461bcd60e51b815260206004820152603860248201527f555550535570677261646561626c653a206d757374206e6f742062652063616c6044820152771b1959081d1a1c9bdd59da0819195b1959d85d1958d85b1b60421b6064820152608490fd5b60403660031901126101c75761085b611354565b602435906001600160401b0382116101c757366023830112156101c7578160040135610886816113d0565b9061089460405192836113ad565b808252602082019336602483830101116101c757815f9260246020930187378301015261090e7f00000000000000000000000000000000000000000000000000000000000000006001600160a01b03166108f030821415611459565b5f516020611f0e5f395f51905f52546001600160a01b0316146114a7565b61091661198a565b5f516020611ece5f395f51905f525460ff161561093857506101ba91506119e2565b6040516352d1902d60e01b81529091906001600160a01b03821690602081600481855afa5f9181610ab2575b506109b25760405162461bcd60e51b815260206004820152602e60248201525f516020611fae5f395f51905f5260448201526d6f6e206973206e6f74205555505360901b6064820152608490fd5b5f516020611f0e5f395f51905f5203610a6e576109ce826119e2565b5f516020611f4e5f395f51905f525f80a2815115801590610a66575b6109f057005b5f806101ba9460405194610a056060876113ad565b602786525f516020611f8e5f395f51905f526020870152660819985a5b195960ca1b60408701525190845af43d15610a5e573d91610a42836113d0565b92610a5060405194856113ad565b83523d5f602085013e611a72565b606091611a72565b5060016109ea565b60405162461bcd60e51b815260206004820152602960248201525f516020611f6e5f395f51905f526044820152681a58589b195555525160ba1b6064820152608490fd5b9091506020813d602011610ade575b81610ace602093836113ad565b810103126101c757519086610964565b3d9150610ac1565b346101c7575f3660031901126101c75760c9546040516001600160a01b039091168152602090f35b346101c75760803660031901126101c757610b27611354565b6024356001600160401b0381116101c757610b46903690600401611380565b90916044356001600160401b0381116101c757610b67903690600401611380565b90916064356001600160401b0381116101c757610b88903690600401611380565b93909160018060a01b036033541633141580610e8d575b6101cb576001600160a01b0381169586156101cb57610beb9760209160018060a01b0360ca5416905f604051809c8195829463116fd50160e01b84528860048501526024840191611514565b03925af19687156101bc575f97610e6c575b506001600160a01b038716968715610e5d57610c7a936106999260ce5460405190602082019260018060601b03199060601b168352426034830152605482015260548152610c4c6074826113ad565b5190209660018060a01b0360cb541691604051978896636cf1dbed60e01b6020890152339560248901611534565b60cc54604051916103be808401929091906001600160a01b03166001600160401b03841185851017610dd8578493610cb693611b1086396115a9565b03905ff580156101bc57604051638da5cb5b60e01b81526001600160a01b03919091169290602081600481875afa9081156101bc575f91610e3e575b50604051635463173b60e11b815290602082600481885afa9182156101bc575f92610e0d575b506001600160a01b031615908115610dfb575b50610dec5760ce5492600160401b841015610dd857610d528460016040960160ce556113eb565b81546001600160a01b0360039290921b82811b199091169084901b179091555f84815260cd602052859020541615610db7575b81818551947f897c133dfbfe1f6239e98b4ffd7e4f6c86a62350a131a7a37790419f58af02f95f80a482526020820152f35b5f83815260cd60205284902080546001600160a01b03191682179055610d85565b634e487b7160e01b5f52604160045260245ffd5b630337323560e31b5f5260045ffd5b6001600160a01b031615905084610d2b565b610e3091925060203d602011610e37575b610e2881836113ad565b8101906114f5565b9085610d18565b503d610e1e565b610e57915060203d602011610e3757610e2881836113ad565b84610cf2565b6310be6f5360e01b5f5260045ffd5b610e8691975060203d602011610e3757610e2881836113ad565b9587610bfd565b5060cb546001600160a01b0316331415610b9f565b346101c75760203660031901126101c757610ebb611354565b610ef47f00000000000000000000000000000000000000000000000000000000000000006001600160a01b03166108f030821415611459565b610efc61198a565b604051906020610f0c81846113ad565b5f835280830192601f1982013685375f516020611ece5f395f51905f525460ff1615610f3e5750506101ba91506119e2565b6040516352d1902d60e01b8152919290916001600160a01b038216908481600481855afa5f91816110cd575b50610fb85760405162461bcd60e51b815260048101869052602e60248201525f516020611fae5f395f51905f5260448201526d6f6e206973206e6f74205555505360901b6064820152608490fd5b9293927fc9f76b5ec45e5cdef99837d7b6d2467235c1df8933c8ca56df5c35afa2c7d4440161108957610fea826119e2565b5f516020611f4e5f395f51905f525f80a2825115801590611082575b61100c57005b5f806101ba95604051956110216060886113ad565b602787525f516020611f8e5f395f51905f5286880152660819985a5b195960ca1b60408801525190845af4903d15611079573d61105d816113d0565b9061106b60405192836113ad565b81525f81943d92013e611a72565b60609250611a72565b505f611006565b60405162461bcd60e51b815260048101849052602960248201525f516020611f6e5f395f51905f526044820152681a58589b195555525160ba1b6064820152608490fd5b9091508581813d83116110f5575b6110e581836113ad565b810103126101c757519087610f6a565b503d6110db565b346101c75760a03660031901126101c757611115611354565b61111d61136a565b906044356001600160a01b038116908190036101c7576064356001600160a01b038116908190036101c7576084356001600160a01b03811692908390036101c7575f5460ff8160081c161594858096611308575b80156112f1575b156112955760ff1982166001175f556111b99186611284575b506111ab60ff5f5460081c166111a6816118f5565b6118f5565b6111b433611955565b611955565b5f54946111cb60ff8760081c166118f5565b6001600160a01b031680156112755781156112665782156104fa57831561036b5760018060a01b031960c954161760c95560018060a01b031960ca54161760ca5560018060a01b031960cb54161760cb5560018060a01b031960cc54161760cc5561123257005b61ff0019165f557f7f26b83ff96e1f2b6a682f133852f6798a09c465da95921460cefb3847402498602060405160018152a1005b632f9b373360e11b5f5260045ffd5b634e05805760e01b5f5260045ffd5b61ffff1916610101175f5587611191565b60405162461bcd60e51b815260206004820152602e60248201527f496e697469616c697a61626c653a20636f6e747261637420697320616c72656160448201526d191e481a5b9a5d1a585b1a5e995960921b6064820152608490fd5b50303b1580156111785750600160ff831614611178565b50600160ff831610611171565b346101c75760203660031901126101c7576020906001600160a01b03611339611354565b165f90815260cd835260409020546001600160a01b03168152f35b600435906001600160a01b03821682036101c757565b602435906001600160a01b03821682036101c757565b9181601f840112156101c7578235916001600160401b0383116101c757602083818601950101116101c757565b601f909101601f19168101906001600160401b03821190821017610dd857604052565b6001600160401b038111610dd857601f01601f191660200190565b60ce548110156114035760ce5f5260205f2001905f90565b634e487b7160e01b5f52603260045260245ffd5b60206040818301928281528451809452019201905f5b81811061143a5750505090565b82516001600160a01b031684526020938401939092019160010161142d565b1561146057565b60405162461bcd60e51b815260206004820152602c60248201525f516020611eee5f395f51905f5260448201526b19195b1959d85d1958d85b1b60a21b6064820152608490fd5b156114ae57565b60405162461bcd60e51b815260206004820152602c60248201525f516020611eee5f395f51905f5260448201526b6163746976652070726f787960a01b6064820152608490fd5b908160209103126101c757516001600160a01b03811681036101c75790565b908060209392818452848401375f828201840152601f01601f1916010190565b95979693916115609061156e946080979360018060a01b0316895260a060208a015260a0890191611514565b918683036040880152611514565b6001600160a01b0395861660608501529416910152565b805180835260209291819084018484015e5f828201840152601f01601f1916010190565b6001600160a01b0390911681526040602082018190526115cb92910190611585565b90565b6001600160a01b0316801561166d57604051638da5cb5b60e01b8152602081600481855afa5f9181611672575b506116065750505f90565b6001600160a01b03161561166d57602060049160405192838092635463173b60e11b82525afa5f918161164c575b5061163e57505f90565b6001600160a01b0316151590565b61166691925060203d602011610e3757610e2881836113ad565b905f611634565b505f90565b61168c91925060203d602011610e3757610e2881836113ad565b905f6115fb565b6001600160401b038111610dd85760051b60200190565b906116b482611693565b6116c160405191826113ad565b82815280926116d2601f1991611693565b0190602036910137565b80518210156114035760209160051b010190565b60cc546001600160a01b03169081156118245760ce5491611710836116aa565b925f915f5b82811061176157505050611728816116aa565b905f5b818110611739575090925050565b6001906001600160a01b0361174e82886116dc565b511661175a82866116dc565b520161172b565b6004602061176e836113eb565b905460405163557887a160e11b81529384929091839160031b1c6001600160a01b03165afa80156101bc5783915f91611806575b506001600160a01b0316036117ba575b600101611715565b926117c4846113eb565b905460039190911b1c6001600160a01b03166117e082886116dc565b525f1981146117f257600101926117b2565b634e487b7160e01b5f52601160045260245ffd5b61181e915060203d8111610e3757610e2881836113ad565b5f6117a2565b90506040516118346020826113ad565b5f81525f36813790565b6001600160a01b031680156101cb575f81815260cd60205260409020546001600160a01b031680156118f157602060049160405192838092638da5cb5b60e01b82525afa5f91816118d0575b506118ae575b505f90815260cd6020526040902080546001600160a01b0319169055565b6001600160a01b03166118c1575f611890565b639a09fd8760e01b5f5260045ffd5b6118ea91925060203d602011610e3757610e2881836113ad565b905f61188a565b5050565b156118fc57565b60405162461bcd60e51b815260206004820152602b60248201527f496e697469616c697a61626c653a20636f6e7472616374206973206e6f74206960448201526a6e697469616c697a696e6760a81b6064820152608490fd5b603380546001600160a01b039283166001600160a01b0319821681179092559091165f516020611f2e5f395f51905f525f80a3565b6033546001600160a01b0316330361199e57565b606460405162461bcd60e51b815260206004820152602060248201527f4f776e61626c653a2063616c6c6572206973206e6f7420746865206f776e65726044820152fd5b803b15611a17575f516020611f0e5f395f51905f5280546001600160a01b0319166001600160a01b0392909216919091179055565b60405162461bcd60e51b815260206004820152602d60248201527f455243313936373a206e657720696d706c656d656e746174696f6e206973206e60448201526c1bdd08184818dbdb9d1c9858dd609a1b6064820152608490fd5b91929015611ad45750815115611a86575090565b3b15611a8f5790565b60405162461bcd60e51b815260206004820152601d60248201527f416464726573733a2063616c6c20746f206e6f6e2d636f6e74726163740000006044820152606490fd5b825190915015611ae75750805190602001fd5b60405162461bcd60e51b815260206004820152908190611b0b906024830190611585565b0390fdfe60806040526103be80380380610014816101f2565b9283398101906040818303126101ee5780516001600160a01b038116918282036101ee576020810151906001600160401b0382116101ee57019183601f840112156101ee57825161006c6100678261022b565b6101f2565b938185526020850195602083830101116101ee57815f926020809301885e85010152813b15610193577f360894a13ba1a3210667c828492db98dca3e2076cc3735a920a3ca505d382bbc80546001600160a01b031916821790557fbc7cd75a20ee27fd9adebab32041f755214dbc6bffa90cc0225b39da2e5c2d3b5f80a281511580159061018c575b610108575b60405160c390816102fb8239f35b5f8061017b9461011860606101f2565b94602786527f416464726573733a206c6f772d6c6576656c2064656c65676174652063616c6c6020870152660819985a5b195960ca1b60408701525190845af43d15610184573d9161016c6100678461022b565b9283523d5f602085013e610246565b505f80806100fa565b606091610246565b505f6100f5565b60405162461bcd60e51b815260206004820152602d60248201527f455243313936373a206e657720696d706c656d656e746174696f6e206973206e60448201526c1bdd08184818dbdb9d1c9858dd609a1b6064820152608490fd5b5f80fd5b6040519190601f01601f191682016001600160401b0381118382101761021757604052565b634e487b7160e01b5f52604160045260245ffd5b6001600160401b03811161021757601f01601f191660200190565b919290156102a8575081511561025a575090565b3b156102635790565b60405162461bcd60e51b815260206004820152601d60248201527f416464726573733a2063616c6c20746f206e6f6e2d636f6e74726163740000006044820152606490fd5b8251909150156102bb5750805190602001fd5b604460209160405192839162461bcd60e51b83528160048401528051918291826024860152018484015e5f828201840152601f01601f19168101030190fdfe60806040523615603d575f516020606e5f395f51905f52545f9081906001600160a01b0316368280378136915af43d5f803e156039573d5ff35b3d5ffd5b5f516020606e5f395f51905f52545f9081906001600160a01b0316368280378136915af43d5f803e156039573d5ff3fe360894a13ba1a3210667c828492db98dca3e2076cc3735a920a3ca505d382bbca2646970667358221220b298ecb79d7191e13df659c873f9d4f8912c4067cd08ed944f20fd53a8cbc25a64736f6c634300081c00334910fdfa16fed3260ed0e7147f7cc6da11a60208b5b9406d12a635614ffd914346756e6374696f6e206d7573742062652063616c6c6564207468726f75676820360894a13ba1a3210667c828492db98dca3e2076cc3735a920a3ca505d382bbc8be0079c531659141344cd1fd0a4f28419497f9722a3daafe3b4186f6b6457e0bc7cd75a20ee27fd9adebab32041f755214dbc6bffa90cc0225b39da2e5c2d3b45524331393637557067726164653a20756e737570706f727465642070726f78416464726573733a206c6f772d6c6576656c2064656c65676174652063616c6c45524331393637557067726164653a206e657720696d706c656d656e74617469a2646970667358221220defcb76b60737310f3c0c8e89cc51e2525107c2d1827fe4aa7ea9e0a45264b6764736f6c634300081c0033","linkReferences":{}},"methodIdentifiers":{"allVaults(uint256)":"9094a91e","clearBrokenVault(address)":"c72eafae","controller()":"f77c4791","createVault(address,string,string,string)":"36e5621e","getAllVaults()":"97331bf9","getVault(address)":"0eb9af38","getVaultCount()":"74d4e491","getVaultsNeedingUpgrade()":"c5aeb76d","initialize(address,address,address,address,address)":"1459457a","isVaultInitialized(address)":"62157727","latestImplementation()":"b133f4d3","owner()":"8da5cb5b","predictVaultAddress(address,address,string,string)":"5bfaab37","proxiableUUID()":"52d1902d","renounceOwnership()":"715018a6","setController(address)":"92eefe9b","setLatestImplementation(address)":"bb453394","strategyFactory()":"9ef35710","transferOwnership(address)":"f2fde38b","transferVaultOwnership(address,address)":"fdc10daf","upgradeTo(address)":"3659cfe6","upgradeToAndCall(address,bytes)":"4f1ef286","usdc()":"3e413bee","vaults(address)":"a622ee7c"},"id":133}