{"abi":[{"type":"constructor","inputs":[],"stateMutability":"nonpayable"},{"type":"function","name":"allVaults","inputs":[{"name":"","type":"uint256","internalType":"uint256"}],"outputs":[{"name":"","type":"address","internalType":"address"}],"stateMutability":"view"},{"type":"function","name":"batchUpdateAllVaultControllers","inputs":[{"name":"_controller","type":"address","internalType":"address"}],"outputs":[],"stateMutability":"nonpayable"},{"type":"function","name":"batchUpdateVaultController","inputs":[{"name":"vaultAddresses","type":"address[]","internalType":"address[]"},{"name":"_controller","type":"address","internalType":"address"}],"outputs":[],"stateMutability":"nonpayable"},{"type":"function","name":"clearBrokenVault","inputs":[{"name":"user","type":"address","internalType":"address"}],"outputs":[],"stateMutability":"nonpayable"},{"type":"function","name":"controller","inputs":[],"outputs":[{"name":"","type":"address","internalType":"address"}],"stateMutability":"view"},{"type":"function","name":"createVault","inputs":[{"name":"user","type":"address","internalType":"address"},{"name":"strategyName","type":"string","internalType":"string"},{"name":"vaultName","type":"string","internalType":"string"},{"name":"vaultSymbol","type":"string","internalType":"string"}],"outputs":[{"name":"vault","type":"address","internalType":"address"},{"name":"strategy","type":"address","internalType":"address"}],"stateMutability":"nonpayable"},{"type":"function","name":"getAllVaults","inputs":[],"outputs":[{"name":"","type":"address[]","internalType":"address[]"}],"stateMutability":"view"},{"type":"function","name":"getVault","inputs":[{"name":"user","type":"address","internalType":"address"}],"outputs":[{"name":"","type":"address","internalType":"address"}],"stateMutability":"view"},{"type":"function","name":"getVaultCount","inputs":[],"outputs":[{"name":"","type":"uint256","internalType":"uint256"}],"stateMutability":"view"},{"type":"function","name":"getVaultsNeedingUpgrade","inputs":[],"outputs":[{"name":"","type":"address[]","internalType":"address[]"}],"stateMutability":"view"},{"type":"function","name":"initialize","inputs":[{"name":"_usdc","type":"address","internalType":"address"},{"name":"_strategyFactory","type":"address","internalType":"address"},{"name":"_controller","type":"address","internalType":"address"},{"name":"_implementation","type":"address","internalType":"address"}],"outputs":[],"stateMutability":"nonpayable"},{"type":"function","name":"isVaultInitialized","inputs":[{"name":"vaultAddress","type":"address","internalType":"address"}],"outputs":[{"name":"","type":"bool","internalType":"bool"}],"stateMutability":"view"},{"type":"function","name":"latestImplementation","inputs":[],"outputs":[{"name":"","type":"address","internalType":"address"}],"stateMutability":"view"},{"type":"function","name":"owner","inputs":[],"outputs":[{"name":"","type":"address","internalType":"address"}],"stateMutability":"view"},{"type":"function","name":"predictVaultAddress","inputs":[{"name":"user","type":"address","internalType":"address"},{"name":"strategy","type":"address","internalType":"address"},{"name":"vaultName","type":"string","internalType":"string"},{"name":"vaultSymbol","type":"string","internalType":"string"}],"outputs":[{"name":"","type":"address","internalType":"address"}],"stateMutability":"view"},{"type":"function","name":"proxiableUUID","inputs":[],"outputs":[{"name":"","type":"bytes32","internalType":"bytes32"}],"stateMutability":"view"},{"type":"function","name":"renounceOwnership","inputs":[],"outputs":[],"stateMutability":"nonpayable"},{"type":"function","name":"setController","inputs":[{"name":"_controller","type":"address","internalType":"address"}],"outputs":[],"stateMutability":"nonpayable"},{"type":"function","name":"setLatestImplementation","inputs":[{"name":"_implementation","type":"address","internalType":"address"}],"outputs":[],"stateMutability":"nonpayable"},{"type":"function","name":"strategyFactory","inputs":[],"outputs":[{"name":"","type":"address","internalType":"address"}],"stateMutability":"view"},{"type":"function","name":"transferOwnership","inputs":[{"name":"newOwner","type":"address","internalType":"address"}],"outputs":[],"stateMutability":"nonpayable"},{"type":"function","name":"transferVaultOwnership","inputs":[{"name":"vault","type":"address","internalType":"address"},{"name":"newOwner","type":"address","internalType":"address"}],"outputs":[],"stateMutability":"nonpayable"},{"type":"function","name":"updateVaultController","inputs":[{"name":"vault","type":"address","internalType":"address"},{"name":"_controller","type":"address","internalType":"address"}],"outputs":[],"stateMutability":"nonpayable"},{"type":"function","name":"upgradeTo","inputs":[{"name":"newImplementation","type":"address","internalType":"address"}],"outputs":[],"stateMutability":"nonpayable"},{"type":"function","name":"upgradeToAndCall","inputs":[{"name":"newImplementation","type":"address","internalType":"address"},{"name":"data","type":"bytes","internalType":"bytes"}],"outputs":[],"stateMutability":"payable"},{"type":"function","name":"usdc","inputs":[],"outputs":[{"name":"","type":"address","internalType":"address"}],"stateMutability":"view"},{"type":"function","name":"vaults","inputs":[{"name":"","type":"address","internalType":"address"}],"outputs":[{"name":"","type":"address","internalType":"address"}],"stateMutability":"view"},{"type":"event","name":"AdminChanged","inputs":[{"name":"previousAdmin","type":"address","indexed":false,"internalType":"address"},{"name":"newAdmin","type":"address","indexed":false,"internalType":"address"}],"anonymous":false},{"type":"event","name":"BeaconUpgraded","inputs":[{"name":"beacon","type":"address","indexed":true,"internalType":"address"}],"anonymous":false},{"type":"event","name":"ControllerUpdated","inputs":[{"name":"oldController","type":"address","indexed":true,"internalType":"address"},{"name":"newController","type":"address","indexed":true,"internalType":"address"}],"anonymous":false},{"type":"event","name":"ImplementationUpdated","inputs":[{"name":"oldImplementation","type":"address","indexed":true,"internalType":"address"},{"name":"newImplementation","type":"address","indexed":true,"internalType":"address"}],"anonymous":false},{"type":"event","name":"Initialized","inputs":[{"name":"version","type":"uint8","indexed":false,"internalType":"uint8"}],"anonymous":false},{"type":"event","name":"OwnershipTransferred","inputs":[{"name":"previousOwner","type":"address","indexed":true,"internalType":"address"},{"name":"newOwner","type":"address","indexed":true,"internalType":"address"}],"anonymous":false},{"type":"event","name":"Upgraded","inputs":[{"name":"implementation","type":"address","indexed":true,"internalType":"address"}],"anonymous":false},{"type":"event","name":"VaultCreated","inputs":[{"name":"user","type":"address","indexed":true,"internalType":"address"},{"name":"vault","type":"address","indexed":true,"internalType":"address"},{"name":"strategy","type":"address","indexed":true,"internalType":"address"}],"anonymous":false},{"type":"error","name":"InitializationFailed","inputs":[]},{"type":"error","name":"InvalidController","inputs":[]},{"type":"error","name":"InvalidImplementation","inputs":[]},{"type":"error","name":"InvalidStrategyFactory","inputs":[]},{"type":"error","name":"InvalidUSDC","inputs":[]},{"type":"error","name":"InvalidUser","inputs":[]},{"type":"error","name":"StrategyCreationFailed","inputs":[]},{"type":"error","name":"VaultAlreadyExists","inputs":[]},{"type":"error","name":"VaultNotInitialized","inputs":[]}],"bytecode":{"object":"0x60a080604052346100da57306080525f549060ff8260081c16610088575060ff8082160361004e575b6040516121dc90816100df8239608051818181610b1401528181610c3401526112b20152f35b60ff90811916175f557f7f26b83ff96e1f2b6a682f133852f6798a09c465da95921460cefb3847402498602060405160ff8152a15f610028565b62461bcd60e51b815260206004820152602760248201527f496e697469616c697a61626c653a20636f6e747261637420697320696e697469604482015266616c697a696e6760c81b6064820152608490fd5b5f80fdfe6080806040526004361015610012575f80fd5b5f3560e01c9081630eb9af38146114ee575080633659cfe61461129457806336e5621e14610f2b5780633e413bee14610f035780634093d4b714610e5e5780634f1ef28614610bbf57806352d1902d14610b025780635bfaab371461097d5780636215772714610950578063715018a61461090857806374d4e491146108eb578063771a01a7146108095780638da5cb5b146107e15780639094a91e1461079f57806392eefe9b1461072c57806397331bf9146106af5780639ef3571014610687578063a622ee7c14610647578063b133f4d31461061f578063bb453394146105ac578063c5aeb76d14610581578063c72eafae14610558578063f2fde38b146104cb578063f31b21ef14610456578063f77c47911461042e578063f8c8765e1461020a5763fdc10daf14610145575f80fd5b346101e25760403660031901126101e25761015e61152d565b610166611543565b6033546001600160a01b0316331415806101f5575b6101e6576001600160a01b03169081156101e6576001600160a01b031690813b156101e2575f9160248392604051948593849263f2fde38b60e01b845260048401525af180156101d7576101cb57005b5f6101d591611586565b005b6040513d5f823e3d90fd5b5f80fd5b63fd684c3b60e01b5f5260045ffd5b5060cb546001600160a01b031633141561017b565b346101e25760803660031901126101e25761022361152d565b61022b611543565b6044356001600160a01b038116908190036101e2576064356001600160a01b03811691908290036101e2575f549260ff8460081c161593848095610421575b801561040a575b156103ae5760ff1981166001175f558461039d575b506102a060ff5f5460081c1661029b81611b5b565b611b5b565b6102a933611b26565b5f54946102bb60ff8760081c16611b5b565b6001600160a01b031690811561038e576001600160a01b031690811561037f5782156103705783156103615760018060a01b031960c954161760c95560018060a01b031960ca54161760ca5560018060a01b031960cb54161760cb5560018060a01b031960cc54161760cc5561032d57005b61ff0019165f557f7f26b83ff96e1f2b6a682f133852f6798a09c465da95921460cefb3847402498602060405160018152a1005b63340aafcd60e11b5f5260045ffd5b6336abb4df60e11b5f5260045ffd5b632f9b373360e11b5f5260045ffd5b634e05805760e01b5f5260045ffd5b61ffff1916610101175f5585610286565b60405162461bcd60e51b815260206004820152602e60248201527f496e697469616c697a61626c653a20636f6e747261637420697320616c72656160448201526d191e481a5b9a5d1a585b1a5e995960921b6064820152608490fd5b50303b1580156102715750600160ff821614610271565b50600160ff82161061026a565b346101e2575f3660031901126101e25760cb546040516001600160a01b039091168152602090f35b346101e25760403660031901126101e25761046f61152d565b610477611543565b61047f611ace565b6001600160a01b0316908115610370576001600160a01b031690813b156101e2575f916024839260405194859384926392eefe9b60e01b845260048401525af180156101d7576101cb57005b346101e25760203660031901126101e2576104e461152d565b6104ec611ace565b6001600160a01b03811615610504576101d590611b26565b60405162461bcd60e51b815260206004820152602660248201527f4f776e61626c653a206e6577206f776e657220697320746865207a65726f206160448201526564647265737360d01b6064820152608490fd5b346101e25760203660031901126101e2576101d561057461152d565b61057c611ace565b611a17565b346101e2575f3660031901126101e2576105a861059c6118c9565b604051918291826115f0565b0390f35b346101e25760203660031901126101e2576105c561152d565b6105cd611ace565b6001600160a01b031680156103615760cc80546001600160a01b0319811683179091556001600160a01b03167faa3f731066a578e5f39b4215468d826cdd15373cbc0dfc9cb9bdc649718ef7da5f80a3005b346101e2575f3660031901126101e25760cc546040516001600160a01b039091168152602090f35b346101e25760203660031901126101e2576001600160a01b0361066861152d565b165f5260cd602052602060018060a01b0360405f205416604051908152f35b346101e2575f3660031901126101e25760ca546040516001600160a01b039091168152602090f35b346101e2575f3660031901126101e25760405160ce80548083525f91825260208301917fd36cd1c74ef8d7326d8021b776c18fb5a5724b7f7bc93c2f42e43e10ef27d12a91905b81811061070d576105a88561059c81870382611586565b82546001600160a01b03168452602090930192600192830192016106f6565b346101e25760203660031901126101e25761074561152d565b61074d611ace565b6001600160a01b031680156103705760cb80546001600160a01b0319811683179091556001600160a01b03167f1c87e2bbc4e5fa5d7f6f8c44d66cb241dff224b8602eb5435ca2076d2a5c6fc25f80a3005b346101e25760203660031901126101e25760043560ce548110156101e2576107c86020916115c4565b905460405160039290921b1c6001600160a01b03168152f35b346101e2575f3660031901126101e2576033546040516001600160a01b039091168152602090f35b346101e25760403660031901126101e2576004356001600160401b0381116101e257366023820112156101e25760048101356001600160401b0381116101e2573660248260051b840101116101e257610860611543565b610868611ace565b6001600160a01b0316918215610370575f5b828110156101d5576024600582901b830101356001600160a01b03811691908290036101e257813b156101e2575f80926024604051809581936392eefe9b60e01b83528a60048401525af19182156101d7576001926108db575b500161087a565b5f6108e591611586565b856108d4565b346101e2575f3660031901126101e257602060ce54604051908152f35b346101e2575f3660031901126101e257610920611ace565b603380546001600160a01b031981169091555f906001600160a01b03165f5160206121075f395f51905f528280a3005b346101e25760203660031901126101e257602061097361096e61152d565b6117a7565b6040519015158152f35b346101e25760803660031901126101e25761099661152d565b61099e611543565b906044356001600160401b0381116101e2576109be903690600401611559565b92606435906001600160401b0382116101e257610a11846020966109e9610a1f953690600401611559565b9060018060a01b0360cb541692604051988997636cf1dbed60e01b8d8a01526024890161170d565b03601f198101835282611586565b610a67610aa66103be8560405194610a3982840187611586565b82865281860192611ce9843960cc546040519583870192610a7592889291906001600160a01b031685611782565b03601f198101875286611586565b60405194859383850197518091895e840190838201905f8252519283915e01015f815203601f198101835282611586565b5190206040516001600160f81b03198482019081523060601b60218301526001600160a01b03909316603582015260558082019290925290815290610aec607583611586565b905190206040516001600160a01b039091168152f35b346101e2575f3660031901126101e2577f00000000000000000000000000000000000000000000000000000000000000006001600160a01b03163003610b595760206040515f5160206120e75f395f51905f528152f35b60405162461bcd60e51b815260206004820152603860248201527f555550535570677261646561626c653a206d757374206e6f742062652063616c6044820152771b1959081d1a1c9bdd59da0819195b1959d85d1958d85b1b60421b6064820152608490fd5b60403660031901126101e257610bd361152d565b602435906001600160401b0382116101e257366023830112156101e2578160040135610bfe816115a9565b90610c0c6040519283611586565b808252602082019336602483830101116101e257815f92602460209301873783010152610c867f00000000000000000000000000000000000000000000000000000000000000006001600160a01b0316610c6830821415611632565b5f5160206120e75f395f51905f52546001600160a01b031614611680565b610c8e611ace565b5f5160206120a75f395f51905f525460ff1615610cb057506101d59150611bbb565b6040516352d1902d60e01b81529091906001600160a01b03821690602081600481855afa5f9181610e2a575b50610d2a5760405162461bcd60e51b815260206004820152602e60248201525f5160206121875f395f51905f5260448201526d6f6e206973206e6f74205555505360901b6064820152608490fd5b5f5160206120e75f395f51905f5203610de657610d4682611bbb565b5f5160206121275f395f51905f525f80a2815115801590610dde575b610d6857005b5f806101d59460405194610d7d606087611586565b602786525f5160206121675f395f51905f526020870152660819985a5b195960ca1b60408701525190845af43d15610dd6573d91610dba836115a9565b92610dc86040519485611586565b83523d5f602085013e611c4b565b606091611c4b565b506001610d62565b60405162461bcd60e51b815260206004820152602960248201525f5160206121475f395f51905f526044820152681a58589b195555525160ba1b6064820152608490fd5b9091506020813d602011610e56575b81610e4660209383611586565b810103126101e257519086610cdc565b3d9150610e39565b346101e25760203660031901126101e257610e7761152d565b610e7f611ace565b6001600160a01b031680156103705760ce545f5b818110610e9c57005b610ea5816115c4565b905460039190911b1c6001600160a01b031690813b156101e2575f80926024604051809581936392eefe9b60e01b83528960048401525af19182156101d757600192610ef3575b5001610e93565b5f610efd91611586565b84610eec565b346101e2575f3660031901126101e25760c9546040516001600160a01b039091168152602090f35b346101e25760803660031901126101e257610f4461152d565b6024356001600160401b0381116101e257610f63903690600401611559565b90916044356001600160401b0381116101e257610f84903690600401611559565b90916064356001600160401b0381116101e257610fa5903690600401611559565b6001600160a01b03831695909491929086156101e657610ff29760209160018060a01b0360ca5416905f604051809c8195829463116fd50160e01b845288600485015260248401916116ed565b03925af19687156101d7575f97611273575b506001600160a01b0387169687156112645761108193610a119260ce5460405190602082019260018060601b03199060601b168352426034830152605482015260548152611053607482611586565b5190209660018060a01b0360cb541691604051978896636cf1dbed60e01b602089015233956024890161170d565b60cc54604051916103be808401929091906001600160a01b03166001600160401b038411858510176111df5784936110bd93611ce98639611782565b03905ff580156101d757604051638da5cb5b60e01b81526001600160a01b03919091169290602081600481875afa9081156101d7575f91611245575b50604051635463173b60e11b815290602082600481885afa9182156101d7575f92611214575b506001600160a01b031615908115611202575b506111f35760ce5492600160401b8410156111df576111598460016040960160ce556115c4565b81546001600160a01b0360039290921b82811b199091169084901b179091555f84815260cd6020528590205416156111be575b81818551947f897c133dfbfe1f6239e98b4ffd7e4f6c86a62350a131a7a37790419f58af02f95f80a482526020820152f35b5f83815260cd60205284902080546001600160a01b0319168217905561118c565b634e487b7160e01b5f52604160045260245ffd5b630337323560e31b5f5260045ffd5b6001600160a01b031615905084611132565b61123791925060203d60201161123e575b61122f8183611586565b8101906116ce565b908561111f565b503d611225565b61125e915060203d60201161123e5761122f8183611586565b846110f9565b6310be6f5360e01b5f5260045ffd5b61128d91975060203d60201161123e5761122f8183611586565b9587611004565b346101e25760203660031901126101e2576112ad61152d565b6112e67f00000000000000000000000000000000000000000000000000000000000000006001600160a01b0316610c6830821415611632565b6112ee611ace565b6040519060206112fe8184611586565b5f835280830192601f1982013685375f5160206120a75f395f51905f525460ff16156113305750506101d59150611bbb565b6040516352d1902d60e01b8152919290916001600160a01b038216908481600481855afa5f91816114bf575b506113aa5760405162461bcd60e51b815260048101869052602e60248201525f5160206121875f395f51905f5260448201526d6f6e206973206e6f74205555505360901b6064820152608490fd5b9293927fc9f76b5ec45e5cdef99837d7b6d2467235c1df8933c8ca56df5c35afa2c7d4440161147b576113dc82611bbb565b5f5160206121275f395f51905f525f80a2825115801590611474575b6113fe57005b5f806101d59560405195611413606088611586565b602787525f5160206121675f395f51905f5286880152660819985a5b195960ca1b60408801525190845af4903d1561146b573d61144f816115a9565b9061145d6040519283611586565b81525f81943d92013e611c4b565b60609250611c4b565b505f6113f8565b60405162461bcd60e51b815260048101849052602960248201525f5160206121475f395f51905f526044820152681a58589b195555525160ba1b6064820152608490fd5b9091508581813d83116114e7575b6114d78183611586565b810103126101e25751908761135c565b503d6114cd565b346101e25760203660031901126101e2576020906001600160a01b0361151261152d565b165f90815260cd835260409020546001600160a01b03168152f35b600435906001600160a01b03821682036101e257565b602435906001600160a01b03821682036101e257565b9181601f840112156101e2578235916001600160401b0383116101e257602083818601950101116101e257565b601f909101601f19168101906001600160401b038211908210176111df57604052565b6001600160401b0381116111df57601f01601f191660200190565b60ce548110156115dc5760ce5f5260205f2001905f90565b634e487b7160e01b5f52603260045260245ffd5b60206040818301928281528451809452019201905f5b8181106116135750505090565b82516001600160a01b0316845260209384019390920191600101611606565b1561163957565b60405162461bcd60e51b815260206004820152602c60248201525f5160206120c75f395f51905f5260448201526b19195b1959d85d1958d85b1b60a21b6064820152608490fd5b1561168757565b60405162461bcd60e51b815260206004820152602c60248201525f5160206120c75f395f51905f5260448201526b6163746976652070726f787960a01b6064820152608490fd5b908160209103126101e257516001600160a01b03811681036101e25790565b908060209392818452848401375f828201840152601f01601f1916010190565b959796939161173990611747946080979360018060a01b0316895260a060208a015260a08901916116ed565b9186830360408801526116ed565b6001600160a01b0395861660608501529416910152565b805180835260209291819084018484015e5f828201840152601f01601f1916010190565b6001600160a01b0390911681526040602082018190526117a49291019061175e565b90565b6001600160a01b0316801561184657604051638da5cb5b60e01b8152602081600481855afa5f918161184b575b506117df5750505f90565b6001600160a01b03161561184657602060049160405192838092635463173b60e11b82525afa5f9181611825575b5061181757505f90565b6001600160a01b0316151590565b61183f91925060203d60201161123e5761122f8183611586565b905f61180d565b505f90565b61186591925060203d60201161123e5761122f8183611586565b905f6117d4565b6001600160401b0381116111df5760051b60200190565b9061188d8261186c565b61189a6040519182611586565b82815280926118ab601f199161186c565b0190602036910137565b80518210156115dc5760209160051b010190565b60cc546001600160a01b03169081156119fd5760ce54916118e983611883565b925f915f5b82811061193a5750505061190181611883565b905f5b818110611912575090925050565b6001906001600160a01b0361192782886118b5565b511661193382866118b5565b5201611904565b60046020611947836115c4565b905460405163557887a160e11b81529384929091839160031b1c6001600160a01b03165afa80156101d75783915f916119df575b506001600160a01b031603611993575b6001016118ee565b9261199d846115c4565b905460039190911b1c6001600160a01b03166119b982886118b5565b525f1981146119cb576001019261198b565b634e487b7160e01b5f52601160045260245ffd5b6119f7915060203d811161123e5761122f8183611586565b5f61197b565b9050604051611a0d602082611586565b5f81525f36813790565b6001600160a01b031680156101e6575f81815260cd60205260409020546001600160a01b03168015611aca57602060049160405192838092638da5cb5b60e01b82525afa5f9181611aa9575b50611a87575b505f90815260cd6020526040902080546001600160a01b0319169055565b6001600160a01b0316611a9a575f611a69565b639a09fd8760e01b5f5260045ffd5b611ac391925060203d60201161123e5761122f8183611586565b905f611a63565b5050565b6033546001600160a01b03163303611ae257565b606460405162461bcd60e51b815260206004820152602060248201527f4f776e61626c653a2063616c6c6572206973206e6f7420746865206f776e65726044820152fd5b603380546001600160a01b039283166001600160a01b0319821681179092559091165f5160206121075f395f51905f525f80a3565b15611b6257565b60405162461bcd60e51b815260206004820152602b60248201527f496e697469616c697a61626c653a20636f6e7472616374206973206e6f74206960448201526a6e697469616c697a696e6760a81b6064820152608490fd5b803b15611bf0575f5160206120e75f395f51905f5280546001600160a01b0319166001600160a01b0392909216919091179055565b60405162461bcd60e51b815260206004820152602d60248201527f455243313936373a206e657720696d706c656d656e746174696f6e206973206e60448201526c1bdd08184818dbdb9d1c9858dd609a1b6064820152608490fd5b91929015611cad5750815115611c5f575090565b3b15611c685790565b60405162461bcd60e51b815260206004820152601d60248201527f416464726573733a2063616c6c20746f206e6f6e2d636f6e74726163740000006044820152606490fd5b825190915015611cc05750805190602001fd5b60405162461bcd60e51b815260206004820152908190611ce490602483019061175e565b0390fdfe60806040526103be80380380610014816101f2565b9283398101906040818303126101ee5780516001600160a01b038116918282036101ee576020810151906001600160401b0382116101ee57019183601f840112156101ee57825161006c6100678261022b565b6101f2565b938185526020850195602083830101116101ee57815f926020809301885e85010152813b15610193577f360894a13ba1a3210667c828492db98dca3e2076cc3735a920a3ca505d382bbc80546001600160a01b031916821790557fbc7cd75a20ee27fd9adebab32041f755214dbc6bffa90cc0225b39da2e5c2d3b5f80a281511580159061018c575b610108575b60405160c390816102fb8239f35b5f8061017b9461011860606101f2565b94602786527f416464726573733a206c6f772d6c6576656c2064656c65676174652063616c6c6020870152660819985a5b195960ca1b60408701525190845af43d15610184573d9161016c6100678461022b565b9283523d5f602085013e610246565b505f80806100fa565b606091610246565b505f6100f5565b60405162461bcd60e51b815260206004820152602d60248201527f455243313936373a206e657720696d706c656d656e746174696f6e206973206e60448201526c1bdd08184818dbdb9d1c9858dd609a1b6064820152608490fd5b5f80fd5b6040519190601f01601f191682016001600160401b0381118382101761021757604052565b634e487b7160e01b5f52604160045260245ffd5b6001600160401b03811161021757601f01601f191660200190565b919290156102a8575081511561025a575090565b3b156102635790565b60405162461bcd60e51b815260206004820152601d60248201527f416464726573733a2063616c6c20746f206e6f6e2d636f6e74726163740000006044820152606490fd5b8251909150156102bb5750805190602001fd5b604460209160405192839162461bcd60e51b83528160048401528051918291826024860152018484015e5f828201840152601f01601f19168101030190fdfe60806040523615603d575f516020606e5f395f51905f52545f9081906001600160a01b0316368280378136915af43d5f803e156039573d5ff35b3d5ffd5b5f516020606e5f395f51905f52545f9081906001600160a01b0316368280378136915af43d5f803e156039573d5ff3fe360894a13ba1a3210667c828492db98dca3e2076cc3735a920a3ca505d382bbca2646970667358221220d6f56c175e9054c55bc2dfab07a5ab2cd7e125a57f612e3d470bd8651a9b7ae464736f6c634300081c00334910fdfa16fed3260ed0e7147f7cc6da11a60208b5b9406d12a635614ffd914346756e6374696f6e206d7573742062652063616c6c6564207468726f75676820360894a13ba1a3210667c828492db98dca3e2076cc3735a920a3ca505d382bbc8be0079c531659141344cd1fd0a4f28419497f9722a3daafe3b4186f6b6457e0bc7cd75a20ee27fd9adebab32041f755214dbc6bffa90cc0225b39da2e5c2d3b45524331393637557067726164653a20756e737570706f727465642070726f78416464726573733a206c6f772d6c6576656c2064656c65676174652063616c6c45524331393637557067726164653a206e657720696d706c656d656e74617469a2646970667358221220cd63b8172234715da1f2078a971b95f802856064b6f8f346baa81fb3ff6c0eec64736f6c634300081c0033","linkReferences":{}},"methodIdentifiers":{"allVaults(uint256)":"9094a91e","batchUpdateAllVaultControllers(address)":"4093d4b7","batchUpdateVaultController(address[],address)":"771a01a7","clearBrokenVault(address)":"c72eafae","controller()":"f77c4791","createVault(address,string,string,string)":"36e5621e","getAllVaults()":"97331bf9","getVault(address)":"0eb9af38","getVaultCount()":"74d4e491","getVaultsNeedingUpgrade()":"c5aeb76d","initialize(address,address,address,address)":"f8c8765e","isVaultInitialized(address)":"62157727","latestImplementation()":"b133f4d3","owner()":"8da5cb5b","predictVaultAddress(address,address,string,string)":"5bfaab37","proxiableUUID()":"52d1902d","renounceOwnership()":"715018a6","setController(address)":"92eefe9b","setLatestImplementation(address)":"bb453394","strategyFactory()":"9ef35710","transferOwnership(address)":"f2fde38b","transferVaultOwnership(address,address)":"fdc10daf","updateVaultController(address,address)":"f31b21ef","upgradeTo(address)":"3659cfe6","upgradeToAndCall(address,bytes)":"4f1ef286","usdc()":"3e413bee","vaults(address)":"a622ee7c"},"id":112}