{"abi":[{"type":"constructor","inputs":[{"name":"_usdc","type":"address","internalType":"address"},{"name":"_strategyFactory","type":"address","internalType":"address"},{"name":"_controller","type":"address","internalType":"address"},{"name":"_implementation","type":"address","internalType":"address"}],"stateMutability":"nonpayable"},{"type":"function","name":"allVaults","inputs":[{"name":"","type":"uint256","internalType":"uint256"}],"outputs":[{"name":"","type":"address","internalType":"address"}],"stateMutability":"view"},{"type":"function","name":"batchUpdateAllVaultControllers","inputs":[{"name":"_controller","type":"address","internalType":"address"}],"outputs":[],"stateMutability":"nonpayable"},{"type":"function","name":"batchUpdateVaultController","inputs":[{"name":"vaultAddresses","type":"address[]","internalType":"address[]"},{"name":"_controller","type":"address","internalType":"address"}],"outputs":[],"stateMutability":"nonpayable"},{"type":"function","name":"clearBrokenVault","inputs":[{"name":"user","type":"address","internalType":"address"}],"outputs":[],"stateMutability":"nonpayable"},{"type":"function","name":"controller","inputs":[],"outputs":[{"name":"","type":"address","internalType":"address"}],"stateMutability":"view"},{"type":"function","name":"createVault","inputs":[{"name":"user","type":"address","internalType":"address"},{"name":"strategyName","type":"string","internalType":"string"},{"name":"vaultName","type":"string","internalType":"string"},{"name":"vaultSymbol","type":"string","internalType":"string"}],"outputs":[{"name":"vault","type":"address","internalType":"address"},{"name":"strategy","type":"address","internalType":"address"}],"stateMutability":"nonpayable"},{"type":"function","name":"getAllVaults","inputs":[],"outputs":[{"name":"","type":"address[]","internalType":"address[]"}],"stateMutability":"view"},{"type":"function","name":"getVault","inputs":[{"name":"user","type":"address","internalType":"address"}],"outputs":[{"name":"","type":"address","internalType":"address"}],"stateMutability":"view"},{"type":"function","name":"getVaultCount","inputs":[],"outputs":[{"name":"","type":"uint256","internalType":"uint256"}],"stateMutability":"view"},{"type":"function","name":"getVaultsNeedingUpgrade","inputs":[],"outputs":[{"name":"","type":"address[]","internalType":"address[]"}],"stateMutability":"view"},{"type":"function","name":"isVaultInitialized","inputs":[{"name":"vaultAddress","type":"address","internalType":"address"}],"outputs":[{"name":"","type":"bool","internalType":"bool"}],"stateMutability":"view"},{"type":"function","name":"latestImplementation","inputs":[],"outputs":[{"name":"","type":"address","internalType":"address"}],"stateMutability":"view"},{"type":"function","name":"owner","inputs":[],"outputs":[{"name":"","type":"address","internalType":"address"}],"stateMutability":"view"},{"type":"function","name":"predictVaultAddress","inputs":[{"name":"user","type":"address","internalType":"address"},{"name":"strategyName","type":"string","internalType":"string"},{"name":"vaultName","type":"string","internalType":"string"},{"name":"vaultSymbol","type":"string","internalType":"string"}],"outputs":[{"name":"","type":"address","internalType":"address"}],"stateMutability":"view"},{"type":"function","name":"renounceOwnership","inputs":[],"outputs":[],"stateMutability":"nonpayable"},{"type":"function","name":"setController","inputs":[{"name":"_controller","type":"address","internalType":"address"}],"outputs":[],"stateMutability":"nonpayable"},{"type":"function","name":"setLatestImplementation","inputs":[{"name":"_implementation","type":"address","internalType":"address"}],"outputs":[],"stateMutability":"nonpayable"},{"type":"function","name":"strategyFactory","inputs":[],"outputs":[{"name":"","type":"address","internalType":"address"}],"stateMutability":"view"},{"type":"function","name":"transferOwnership","inputs":[{"name":"newOwner","type":"address","internalType":"address"}],"outputs":[],"stateMutability":"nonpayable"},{"type":"function","name":"updateVaultController","inputs":[{"name":"vault","type":"address","internalType":"address"},{"name":"_controller","type":"address","internalType":"address"}],"outputs":[],"stateMutability":"nonpayable"},{"type":"function","name":"usdc","inputs":[],"outputs":[{"name":"","type":"address","internalType":"address"}],"stateMutability":"view"},{"type":"function","name":"vaults","inputs":[{"name":"","type":"address","internalType":"address"}],"outputs":[{"name":"","type":"address","internalType":"address"}],"stateMutability":"view"},{"type":"event","name":"ControllerUpdated","inputs":[{"name":"oldController","type":"address","indexed":true,"internalType":"address"},{"name":"newController","type":"address","indexed":true,"internalType":"address"}],"anonymous":false},{"type":"event","name":"ImplementationUpdated","inputs":[{"name":"oldImplementation","type":"address","indexed":true,"internalType":"address"},{"name":"newImplementation","type":"address","indexed":true,"internalType":"address"}],"anonymous":false},{"type":"event","name":"OwnershipTransferred","inputs":[{"name":"previousOwner","type":"address","indexed":true,"internalType":"address"},{"name":"newOwner","type":"address","indexed":true,"internalType":"address"}],"anonymous":false},{"type":"event","name":"VaultCreated","inputs":[{"name":"user","type":"address","indexed":true,"internalType":"address"},{"name":"vault","type":"address","indexed":true,"internalType":"address"},{"name":"strategy","type":"address","indexed":true,"internalType":"address"}],"anonymous":false},{"type":"error","name":"InitializationFailed","inputs":[]},{"type":"error","name":"InvalidController","inputs":[]},{"type":"error","name":"InvalidImplementation","inputs":[]},{"type":"error","name":"InvalidStrategyFactory","inputs":[]},{"type":"error","name":"InvalidUSDC","inputs":[]},{"type":"error","name":"InvalidUser","inputs":[]},{"type":"error","name":"StrategyCreationFailed","inputs":[]},{"type":"error","name":"VaultAlreadyExists","inputs":[]},{"type":"error","name":"VaultNotInitialized","inputs":[]}],"bytecode":{"object":"0x60c03461014757601f61179938819003918201601f19168301916001600160401b0383118484101761014b57808492608094604052833981010312610147576100478161015f565b906100546020820161015f565b61006c60606100656040850161015f565b930161015f565b9161007633610173565b61007f33610173565b6001600160a01b03841615610138576001600160a01b03821615610129576001600160a01b031691821561011a576001600160a01b031692831561010b5760805260a05260018060a01b0319600154161760015560018060a01b031960025416176002556040516115df90816101ba82396080518161078d015260a0518181816103db01526108290152f35b63340aafcd60e11b5f5260045ffd5b6336abb4df60e11b5f5260045ffd5b632f9b373360e11b5f5260045ffd5b634e05805760e01b5f5260045ffd5b5f80fd5b634e487b7160e01b5f52604160045260245ffd5b51906001600160a01b038216820361014757565b5f80546001600160a01b039283166001600160a01b03198216811783559216907f8be0079c531659141344cd1fd0a4f28419497f9722a3daafe3b4186f6b6457e09080a356fe6080806040526004361015610012575f80fd5b5f3560e01c9081630eb9af3814610c2257508063358aa58514610af057806336e5621e146107bc5780633e413bee146107785780634093d4b7146106d357806362157727146106a6578063715018a61461066257806374d4e49114610645578063771a01a7146105635780638da5cb5b1461053c5780639094a91e146104fa57806392eefe9b1461048757806397331bf91461040a5780639ef35710146103c6578063a622ee7c14610386578063b133f4d31461035e578063bb453394146102dc578063c5aeb76d146102b1578063c72eafae14610288578063f2fde38b146101d5578063f31b21ef1461013a5763f77c47911461010e575f80fd5b34610136575f366003190112610136576001546040516001600160a01b039091168152602090f35b5f80fd5b3461013657604036600319011261013657610153610c61565b61015b610c77565b610163611174565b6001600160a01b03169081156101c6576001600160a01b031690813b15610136575f916024839260405194859384926392eefe9b60e01b845260048401525af180156101bb576101af57005b5f6101b991610dcf565b005b6040513d5f823e3d90fd5b6336abb4df60e11b5f5260045ffd5b34610136576020366003190112610136576101ee610c61565b6101f6611174565b6001600160a01b03168015610234575f80546001600160a01b03198116831782556001600160a01b0316905f51602061158a5f395f51905f529080a3005b60405162461bcd60e51b815260206004820152602660248201527f4f776e61626c653a206e6577206f776e657220697320746865207a65726f206160448201526564647265737360d01b6064820152608490fd5b34610136576020366003190112610136576101b96102a4610c61565b6102ac611174565b6110bd565b34610136575f366003190112610136576102d86102cc610f6f565b60405191829182610d6d565b0390f35b34610136576020366003190112610136576102f5610c61565b6102fd611174565b6001600160a01b0316801561034f57600280546001600160a01b0319811683179091556001600160a01b03167faa3f731066a578e5f39b4215468d826cdd15373cbc0dfc9cb9bdc649718ef7da5f80a3005b63340aafcd60e11b5f5260045ffd5b34610136575f366003190112610136576002546040516001600160a01b039091168152602090f35b34610136576020366003190112610136576001600160a01b036103a7610c61565b165f526003602052602060018060a01b0360405f205416604051908152f35b34610136575f366003190112610136576040517f00000000000000000000000000000000000000000000000000000000000000006001600160a01b03168152602090f35b34610136575f36600319011261013657604051600480548083525f91825260208301917f8a35acfbc15ff81a39ae7d344fd709f28e8600b4aa8c65c6b64bfe7fe36bd19b91905b818110610468576102d8856102cc81870382610dcf565b82546001600160a01b0316845260209093019260019283019201610451565b34610136576020366003190112610136576104a0610c61565b6104a8611174565b6001600160a01b031680156101c657600180546001600160a01b0319811683179091556001600160a01b03167f1c87e2bbc4e5fa5d7f6f8c44d66cb241dff224b8602eb5435ca2076d2a5c6fc25f80a3005b346101365760203660031901126101365760043560045481101561013657610523602091610d41565b905460405160039290921b1c6001600160a01b03168152f35b34610136575f366003190112610136575f546040516001600160a01b039091168152602090f35b34610136576040366003190112610136576004356001600160401b03811161013657366023820112156101365760048101356001600160401b038111610136573660248260051b84010111610136576105ba610c77565b6105c2611174565b6001600160a01b03169182156101c6575f5b828110156101b9576024600582901b830101356001600160a01b038116919082900361013657813b15610136575f80926024604051809581936392eefe9b60e01b83528a60048401525af19182156101bb57600192610635575b50016105d4565b5f61063f91610dcf565b8561062e565b34610136575f366003190112610136576020600454604051908152f35b34610136575f3660031901126101365761067a611174565b5f80546001600160a01b0319811682556001600160a01b03165f51602061158a5f395f51905f528280a3005b346101365760203660031901126101365760206106c96106c4610c61565b610e4d565b6040519015158152f35b34610136576020366003190112610136576106ec610c61565b6106f4611174565b6001600160a01b031680156101c6576004545f5b81811061071157005b61071a81610d41565b905460039190911b1c6001600160a01b031690813b15610136575f80926024604051809581936392eefe9b60e01b83528960048401525af19182156101bb57600192610768575b5001610708565b5f61077291610dcf565b84610761565b34610136575f366003190112610136576040517f00000000000000000000000000000000000000000000000000000000000000006001600160a01b03168152602090f35b34610136576107ca36610cba565b956001600160a01b03169492939092908515610ae1575f868152600360205260409020546001600160a01b0316610ad25761082491602091604051938492839263116fd50160e01b84528560048501526024840191610daf565b03815f7f00000000000000000000000000000000000000000000000000000000000000006001600160a01b03165af19081156101bb575f91610ab3575b506001600160a01b0316948515610aa4576108c46108de9360018060a01b0360015416926108b2604051978896636cf1dbed60e01b60208901528b602489015260a0604489015260c4880191610daf565b85810360231901606487015291610daf565b9060848301528460a483015203601f198101835282610dcf565b6002546040516001600160a01b03909116916103be808301918383106001600160401b03841117610a1f578594849361091b936111cc8639610df2565b03905ff580156101bb57604051638da5cb5b60e01b81526001600160a01b03919091169290602081600481875afa9081156101bb575f91610a85575b50604051635463173b60e11b815290602082600481885afa9182156101bb575f92610a54575b506001600160a01b031615908115610a42575b50610a33575f82815260036020526040902080546001600160a01b0319168417905560045492600160401b841015610a1f576109d484600160409601600455610d41565b81549060031b9083821b9160018060a01b03901b191617905581818551947f897c133dfbfe1f6239e98b4ffd7e4f6c86a62350a131a7a37790419f58af02f95f80a482526020820152f35b634e487b7160e01b5f52604160045260245ffd5b630337323560e31b5f5260045ffd5b6001600160a01b031615905084610990565b610a7791925060203d602011610a7e575b610a6f8183610dcf565b810190610e2e565b908561097d565b503d610a65565b610a9e915060203d602011610a7e57610a6f8183610dcf565b84610957565b6310be6f5360e01b5f5260045ffd5b610acc915060203d602011610a7e57610a6f8183610dcf565b86610861565b6304aabf3360e01b5f5260045ffd5b63fd684c3b60e01b5f5260045ffd5b34610136576020610b506108c4610b0636610cba565b600154604051636cf1dbed60e01b8c8201525f602482015260a060448201526001600160a01b039889169a909990988a9850909116955093919290916108b29160c4880191610daf565b610b98610bd76103be8560405194610b6a82840187610dcf565b828652818601926111cc84396002546040519583870192610ba692889291906001600160a01b031685610df2565b03601f198101875286610dcf565b60405194859383850197518091895e840190838201905f8252519283915e01015f815203601f198101835282610dcf565b51902090604051918383019160ff60f81b83523060601b60218501526035840152605583015260558252610c0c607583610dcf565b905190206040516001600160a01b039091168152f35b34610136576020366003190112610136576020906001600160a01b03610c46610c61565b165f9081526003835260409020546001600160a01b03168152f35b600435906001600160a01b038216820361013657565b602435906001600160a01b038216820361013657565b9181601f84011215610136578235916001600160401b038311610136576020838186019501011161013657565b906080600319830112610136576004356001600160a01b038116810361013657916024356001600160401b0381116101365781610cf991600401610c8d565b909290916044356001600160401b0381116101365781610d1b91600401610c8d565b90929091606435906001600160401b03821161013657610d3d91600401610c8d565b9091565b600454811015610d595760045f5260205f2001905f90565b634e487b7160e01b5f52603260045260245ffd5b60206040818301928281528451809452019201905f5b818110610d905750505090565b82516001600160a01b0316845260209384019390920191600101610d83565b908060209392818452848401375f828201840152601f01601f1916010190565b601f909101601f19168101906001600160401b03821190821017610a1f57604052565b6001600160a01b0390911681526040602080830182905283519183018290526060938291018484015e5f828201840152601f01601f1916010190565b9081602091031261013657516001600160a01b03811681036101365790565b6001600160a01b03168015610eec57604051638da5cb5b60e01b8152602081600481855afa5f9181610ef1575b50610e855750505f90565b6001600160a01b031615610eec57602060049160405192838092635463173b60e11b82525afa5f9181610ecb575b50610ebd57505f90565b6001600160a01b0316151590565b610ee591925060203d602011610a7e57610a6f8183610dcf565b905f610eb3565b505f90565b610f0b91925060203d602011610a7e57610a6f8183610dcf565b905f610e7a565b6001600160401b038111610a1f5760051b60200190565b90610f3382610f12565b610f406040519182610dcf565b8281528092610f51601f1991610f12565b0190602036910137565b8051821015610d595760209160051b010190565b6002546001600160a01b03169081156110a35760045491610f8f83610f29565b925f915f5b828110610fe057505050610fa781610f29565b905f5b818110610fb8575090925050565b6001906001600160a01b03610fcd8288610f5b565b5116610fd98286610f5b565b5201610faa565b60046020610fed83610d41565b905460405163557887a160e11b81529384929091839160031b1c6001600160a01b03165afa80156101bb5783915f91611085575b506001600160a01b031603611039575b600101610f94565b9261104384610d41565b905460039190911b1c6001600160a01b031661105f8288610f5b565b525f1981146110715760010192611031565b634e487b7160e01b5f52601160045260245ffd5b61109d915060203d8111610a7e57610a6f8183610dcf565b5f611021565b90506040516110b3602082610dcf565b5f81525f36813790565b6001600160a01b03168015610ae1575f818152600360205260409020546001600160a01b0316801561117057602060049160405192838092638da5cb5b60e01b82525afa5f918161114f575b5061112d575b505f90815260036020526040902080546001600160a01b0319169055565b6001600160a01b0316611140575f61110f565b639a09fd8760e01b5f5260045ffd5b61116991925060203d602011610a7e57610a6f8183610dcf565b905f611109565b5050565b5f546001600160a01b0316330361118757565b606460405162461bcd60e51b815260206004820152602060248201527f4f776e61626c653a2063616c6c6572206973206e6f7420746865206f776e65726044820152fdfe60806040526103be80380380610014816101f2565b9283398101906040818303126101ee5780516001600160a01b038116918282036101ee576020810151906001600160401b0382116101ee57019183601f840112156101ee57825161006c6100678261022b565b6101f2565b938185526020850195602083830101116101ee57815f926020809301885e85010152813b15610193577f360894a13ba1a3210667c828492db98dca3e2076cc3735a920a3ca505d382bbc80546001600160a01b031916821790557fbc7cd75a20ee27fd9adebab32041f755214dbc6bffa90cc0225b39da2e5c2d3b5f80a281511580159061018c575b610108575b60405160c390816102fb8239f35b5f8061017b9461011860606101f2565b94602786527f416464726573733a206c6f772d6c6576656c2064656c65676174652063616c6c6020870152660819985a5b195960ca1b60408701525190845af43d15610184573d9161016c6100678461022b565b9283523d5f602085013e610246565b505f80806100fa565b606091610246565b505f6100f5565b60405162461bcd60e51b815260206004820152602d60248201527f455243313936373a206e657720696d706c656d656e746174696f6e206973206e60448201526c1bdd08184818dbdb9d1c9858dd609a1b6064820152608490fd5b5f80fd5b6040519190601f01601f191682016001600160401b0381118382101761021757604052565b634e487b7160e01b5f52604160045260245ffd5b6001600160401b03811161021757601f01601f191660200190565b919290156102a8575081511561025a575090565b3b156102635790565b60405162461bcd60e51b815260206004820152601d60248201527f416464726573733a2063616c6c20746f206e6f6e2d636f6e74726163740000006044820152606490fd5b8251909150156102bb5750805190602001fd5b604460209160405192839162461bcd60e51b83528160048401528051918291826024860152018484015e5f828201840152601f01601f19168101030190fdfe60806040523615603d575f516020606e5f395f51905f52545f9081906001600160a01b0316368280378136915af43d5f803e156039573d5ff35b3d5ffd5b5f516020606e5f395f51905f52545f9081906001600160a01b0316368280378136915af43d5f803e156039573d5ff3fe360894a13ba1a3210667c828492db98dca3e2076cc3735a920a3ca505d382bbca264697066735822122052d0ea1d8c95fe289a1430661d889a32c965356027f01319e06c66153779a5b464736f6c634300081c00338be0079c531659141344cd1fd0a4f28419497f9722a3daafe3b4186f6b6457e0a264697066735822122031aee2858801d7fb7f4c9178db5e878672a2f07acefa4a54051cadf8b091214b64736f6c634300081c0033","linkReferences":{}},"methodIdentifiers":{"allVaults(uint256)":"9094a91e","batchUpdateAllVaultControllers(address)":"4093d4b7","batchUpdateVaultController(address[],address)":"771a01a7","clearBrokenVault(address)":"c72eafae","controller()":"f77c4791","createVault(address,string,string,string)":"36e5621e","getAllVaults()":"97331bf9","getVault(address)":"0eb9af38","getVaultCount()":"74d4e491","getVaultsNeedingUpgrade()":"c5aeb76d","isVaultInitialized(address)":"62157727","latestImplementation()":"b133f4d3","owner()":"8da5cb5b","predictVaultAddress(address,string,string,string)":"358aa585","renounceOwnership()":"715018a6","setController(address)":"92eefe9b","setLatestImplementation(address)":"bb453394","strategyFactory()":"9ef35710","transferOwnership(address)":"f2fde38b","updateVaultController(address,address)":"f31b21ef","usdc()":"3e413bee","vaults(address)":"a622ee7c"},"id":115}