{"abi":[{"type":"constructor","inputs":[],"stateMutability":"nonpayable"},{"type":"function","name":"allAdapters","inputs":[{"name":"","type":"uint256","internalType":"uint256"}],"outputs":[{"name":"","type":"address","internalType":"address"}],"stateMutability":"view"},{"type":"function","name":"createDefaultAdapter","inputs":[{"name":"ethUsdFeed","type":"address","internalType":"address"}],"outputs":[{"name":"adapter","type":"address","internalType":"address"}],"stateMutability":"nonpayable"},{"type":"function","name":"createSharedAdapter","inputs":[{"name":"ethUsdFeed","type":"address","internalType":"address"}],"outputs":[{"name":"adapter","type":"address","internalType":"address"}],"stateMutability":"nonpayable"},{"type":"function","name":"createVaultAdapter","inputs":[{"name":"vault","type":"address","internalType":"address"},{"name":"ethUsdFeed","type":"address","internalType":"address"}],"outputs":[{"name":"adapter","type":"address","internalType":"address"}],"stateMutability":"nonpayable"},{"type":"function","name":"defaultAdapter","inputs":[],"outputs":[{"name":"","type":"address","internalType":"address"}],"stateMutability":"view"},{"type":"function","name":"defaultEthUsdFeed","inputs":[],"outputs":[{"name":"","type":"address","internalType":"address"}],"stateMutability":"view"},{"type":"function","name":"getAdapter","inputs":[{"name":"vault","type":"address","internalType":"address"}],"outputs":[{"name":"adapter","type":"address","internalType":"address"}],"stateMutability":"view"},{"type":"function","name":"getAdapterCount","inputs":[],"outputs":[{"name":"","type":"uint256","internalType":"uint256"}],"stateMutability":"view"},{"type":"function","name":"getAllAdapters","inputs":[],"outputs":[{"name":"","type":"address[]","internalType":"address[]"}],"stateMutability":"view"},{"type":"function","name":"initialize","inputs":[{"name":"_defaultEthUsdFeed","type":"address","internalType":"address"},{"name":"_latestImplementation","type":"address","internalType":"address"}],"outputs":[],"stateMutability":"nonpayable"},{"type":"function","name":"latestImplementation","inputs":[],"outputs":[{"name":"","type":"address","internalType":"address"}],"stateMutability":"view"},{"type":"function","name":"owner","inputs":[],"outputs":[{"name":"","type":"address","internalType":"address"}],"stateMutability":"view"},{"type":"function","name":"proxiableUUID","inputs":[],"outputs":[{"name":"","type":"bytes32","internalType":"bytes32"}],"stateMutability":"view"},{"type":"function","name":"renounceOwnership","inputs":[],"outputs":[],"stateMutability":"nonpayable"},{"type":"function","name":"setDefaultAdapter","inputs":[{"name":"adapter","type":"address","internalType":"address"}],"outputs":[],"stateMutability":"nonpayable"},{"type":"function","name":"setLatestImplementation","inputs":[{"name":"_implementation","type":"address","internalType":"address"}],"outputs":[],"stateMutability":"nonpayable"},{"type":"function","name":"transferOwnership","inputs":[{"name":"newOwner","type":"address","internalType":"address"}],"outputs":[],"stateMutability":"nonpayable"},{"type":"function","name":"upgradeTo","inputs":[{"name":"newImplementation","type":"address","internalType":"address"}],"outputs":[],"stateMutability":"nonpayable"},{"type":"function","name":"upgradeToAndCall","inputs":[{"name":"newImplementation","type":"address","internalType":"address"},{"name":"data","type":"bytes","internalType":"bytes"}],"outputs":[],"stateMutability":"payable"},{"type":"function","name":"vaultAdapters","inputs":[{"name":"","type":"address","internalType":"address"}],"outputs":[{"name":"","type":"address","internalType":"address"}],"stateMutability":"view"},{"type":"event","name":"AdapterCreated","inputs":[{"name":"adapter","type":"address","indexed":true,"internalType":"address"},{"name":"vault","type":"address","indexed":true,"internalType":"address"},{"name":"ethUsdFeed","type":"address","indexed":true,"internalType":"address"}],"anonymous":false},{"type":"event","name":"AdminChanged","inputs":[{"name":"previousAdmin","type":"address","indexed":false,"internalType":"address"},{"name":"newAdmin","type":"address","indexed":false,"internalType":"address"}],"anonymous":false},{"type":"event","name":"BeaconUpgraded","inputs":[{"name":"beacon","type":"address","indexed":true,"internalType":"address"}],"anonymous":false},{"type":"event","name":"DefaultAdapterUpdated","inputs":[{"name":"oldAdapter","type":"address","indexed":true,"internalType":"address"},{"name":"newAdapter","type":"address","indexed":true,"internalType":"address"}],"anonymous":false},{"type":"event","name":"Initialized","inputs":[{"name":"version","type":"uint8","indexed":false,"internalType":"uint8"}],"anonymous":false},{"type":"event","name":"OwnershipTransferred","inputs":[{"name":"previousOwner","type":"address","indexed":true,"internalType":"address"},{"name":"newOwner","type":"address","indexed":true,"internalType":"address"}],"anonymous":false},{"type":"event","name":"Upgraded","inputs":[{"name":"implementation","type":"address","indexed":true,"internalType":"address"}],"anonymous":false},{"type":"error","name":"AdapterAlreadyExists","inputs":[]},{"type":"error","name":"InvalidETHFeed","inputs":[]}],"bytecode":{"object":"0x60a080604052346100da57306080525f549060ff8260081c16610088575060ff8082160361004e575b6040516117d790816100df82396080518181816105e1015281816107010152610b110152f35b60ff90811916175f557f7f26b83ff96e1f2b6a682f133852f6798a09c465da95921460cefb3847402498602060405160ff8152a15f610028565b62461bcd60e51b815260206004820152602760248201527f496e697469616c697a61626c653a20636f6e747261637420697320696e697469604482015266616c697a696e6760c81b6064820152608490fd5b5f80fdfe60806040526004361015610011575f80fd5b5f3560e01c806311962e8514610dc557806332cd76f814610d4d5780633659cfe614610af3578063485cc9551461096b5780634adde6e61461092b5780634f1ef2861461068c57806352d1902d146105cf57806360acf071146105a7578063715018a61461055f578063734e6cad1461053757806382257e3f146104e15780638a12fad9146104c45780638da5cb5b1461049c578063b133f4d314610474578063bb45339414610431578063c157c57c146103d0578063e31ada9714610325578063f2fde38b14610296578063f76894be146101dc5763fa02e6a6146100f5575f80fd5b346101d85760403660031901126101d85761010e610e33565b610116610e49565b906001600160a01b031680156101c9575f81815260cc60205260409020546001600160a01b03166101ba576020916001600160a01b0381166101b4575060c9546001600160a01b0316905b61016a82610f71565b5f82815260cc8552604080822080546001600160a01b0319166001600160a01b0394851690811790915590519490939216919083905f5160206116a25f395f51905f529080a48152f35b90610161565b633cb3e7d960e21b5f5260045ffd5b632cf144b760e21b5f5260045ffd5b5f80fd5b346101d85760203660031901126101d8576101f5610e33565b6101fd6110e9565b60cb546001600160a01b03166101ba576001600160a01b03811661028e575060c9546020906001600160a01b03165b61023581610f71565b60cb80546001600160a01b039283166001600160a01b0319821681179092556040519391928392165f835f5160206116a25f395f51905f528280a46001600160a01b03165f5160206117625f395f51905f525f80a38152f35b60209061022c565b346101d85760203660031901126101d8576102af610e33565b6102b76110e9565b6001600160a01b038116156102d1576102cf90611141565b005b60405162461bcd60e51b815260206004820152602660248201527f4f776e61626c653a206e6577206f776e657220697320746865207a65726f206160448201526564647265737360d01b6064820152608490fd5b346101d8575f3660031901126101d85760405180602060cd549283815201809260cd5f5260205f20905f5b8181106103b15750505081610366910382610e5f565b604051918291602083019060208452518091526040830191905f5b81811061038f575050500390f35b82516001600160a01b0316845285945060209384019390920191600101610381565b82546001600160a01b0316845260209093019260019283019201610350565b346101d85760203660031901126101d8576103e9610e33565b6001600160a01b039081165f90815260cc602052604090205416801561041f575b6040516001600160a01b039091168152602090f35b5060cb546001600160a01b031661040a565b346101d85760203660031901126101d85761044a610e33565b6104526110e9565b60ca80546001600160a01b0319166001600160a01b0392909216919091179055005b346101d8575f3660031901126101d85760ca546040516001600160a01b039091168152602090f35b346101d8575f3660031901126101d8576033546040516001600160a01b039091168152602090f35b346101d8575f3660031901126101d857602060cd54604051908152f35b346101d85760203660031901126101d8576104fa610e33565b6105026110e9565b60cb80546001600160a01b039283166001600160a01b0319821681179092559091165f5160206117625f395f51905f525f80a3005b346101d8575f3660031901126101d85760cb546040516001600160a01b039091168152602090f35b346101d8575f3660031901126101d8576105776110e9565b603380546001600160a01b031981169091555f906001600160a01b03165f5160206116e25f395f51905f528280a3005b346101d8575f3660031901126101d85760c9546040516001600160a01b039091168152602090f35b346101d8575f3660031901126101d8577f00000000000000000000000000000000000000000000000000000000000000006001600160a01b031630036106265760206040515f5160206116c25f395f51905f528152f35b60405162461bcd60e51b815260206004820152603860248201527f555550535570677261646561626c653a206d757374206e6f742062652063616c6044820152771b1959081d1a1c9bdd59da0819195b1959d85d1958d85b1b60421b6064820152608490fd5b60403660031901126101d8576106a0610e33565b602435906001600160401b0382116101d857366023830112156101d85781600401356106cb81610e96565b906106d96040519283610e5f565b808252602082019336602483830101116101d857815f926024602093018737830101526107537f00000000000000000000000000000000000000000000000000000000000000006001600160a01b031661073530821415610eb1565b5f5160206116c25f395f51905f52546001600160a01b031614610eff565b61075b6110e9565b5f5160206116625f395f51905f525460ff161561077d57506102cf9150611176565b6040516352d1902d60e01b81529091906001600160a01b03821690602081600481855afa5f91816108f7575b506107f75760405162461bcd60e51b815260206004820152602e60248201525f5160206117825f395f51905f5260448201526d6f6e206973206e6f74205555505360901b6064820152608490fd5b5f5160206116c25f395f51905f52036108b35761081382611176565b5f5160206117025f395f51905f525f80a28151158015906108ab575b61083557005b5f806102cf946040519461084a606087610e5f565b602786525f5160206117425f395f51905f526020870152660819985a5b195960ca1b60408701525190845af43d156108a3573d9161088783610e96565b926108956040519485610e5f565b83523d5f602085013e611206565b606091611206565b50600161082f565b60405162461bcd60e51b815260206004820152602960248201525f5160206117225f395f51905f526044820152681a58589b195555525160ba1b6064820152608490fd5b9091506020813d602011610923575b8161091360209383610e5f565b810103126101d8575190866107a9565b3d9150610906565b346101d85760203660031901126101d8576001600160a01b0361094c610e33565b165f5260cc602052602060018060a01b0360405f205416604051908152f35b346101d85760403660031901126101d857610984610e33565b61098c610e49565b5f549060ff8260081c161591828093610ae6575b8015610acf575b15610a735760ff1981166001175f5582610a62575b506109d660ff5f5460081c166109d181611089565b611089565b6109df33611141565b5f54926109f160ff8560081c16611089565b6001600160a01b031680156101c95760018060a01b031960c954161760c95560018060a01b031660018060a01b031960ca54161760ca55610a2e57005b61ff0019165f557f7f26b83ff96e1f2b6a682f133852f6798a09c465da95921460cefb3847402498602060405160018152a1005b61ffff1916610101175f55836109bc565b60405162461bcd60e51b815260206004820152602e60248201527f496e697469616c697a61626c653a20636f6e747261637420697320616c72656160448201526d191e481a5b9a5d1a585b1a5e995960921b6064820152608490fd5b50303b1580156109a75750600160ff8216146109a7565b50600160ff8216106109a0565b346101d85760203660031901126101d857610b0c610e33565b610b457f00000000000000000000000000000000000000000000000000000000000000006001600160a01b031661073530821415610eb1565b610b4d6110e9565b604051906020610b5d8184610e5f565b5f835280830192601f1982013685375f5160206116625f395f51905f525460ff1615610b8f5750506102cf9150611176565b6040516352d1902d60e01b8152919290916001600160a01b038216908481600481855afa5f9181610d1e575b50610c095760405162461bcd60e51b815260048101869052602e60248201525f5160206117825f395f51905f5260448201526d6f6e206973206e6f74205555505360901b6064820152608490fd5b9293927fc9f76b5ec45e5cdef99837d7b6d2467235c1df8933c8ca56df5c35afa2c7d44401610cda57610c3b82611176565b5f5160206117025f395f51905f525f80a2825115801590610cd3575b610c5d57005b5f806102cf9560405195610c72606088610e5f565b602787525f5160206117425f395f51905f5286880152660819985a5b195960ca1b60408801525190845af4903d15610cca573d610cae81610e96565b90610cbc6040519283610e5f565b81525f81943d92013e611206565b60609250611206565b505f610c57565b60405162461bcd60e51b815260048101849052602960248201525f5160206117225f395f51905f526044820152681a58589b195555525160ba1b6064820152608490fd5b9091508581813d8311610d46575b610d368183610e5f565b810103126101d857519087610bbb565b503d610d2c565b346101d85760203660031901126101d857610d66610e33565b6001600160a01b038116610dbd575060c9546020906001600160a01b03165b6001600160a01b03610d9682610f71565b604051929116906001600160a01b03165f825f5160206116a25f395f51905f528280a48152f35b602090610d85565b346101d85760203660031901126101d85760043560cd548110156101d857610dee602091610e07565b905460405160039290921b1c6001600160a01b03168152f35b60cd54811015610e1f5760cd5f5260205f2001905f90565b634e487b7160e01b5f52603260045260245ffd5b600435906001600160a01b03821682036101d857565b602435906001600160a01b03821682036101d857565b601f909101601f19168101906001600160401b03821190821017610e8257604052565b634e487b7160e01b5f52604160045260245ffd5b6001600160401b038111610e8257601f01601f191660200190565b15610eb857565b60405162461bcd60e51b815260206004820152602c60248201525f5160206116825f395f51905f5260448201526b19195b1959d85d1958d85b1b60a21b6064820152608490fd5b15610f0657565b60405162461bcd60e51b815260206004820152602c60248201525f5160206116825f395f51905f5260448201526b6163746976652070726f787960a01b6064820152608490fd5b805180835260209291819084018484015e5f828201840152601f01601f1916010190565b60ca546001600160a01b03169081156110505760405163189acdbd60e31b60208201526001600160a01b039091166024808301919091528152610fb5604482610e5f565b604051916103be80840192906001600160401b03841185851017610e82578493610ff0936040926112a4873981528160208201520190610f4d565b03905ff080156110455760cd546001600160a01b039190911690600160401b811015610e8257806001611026920160cd55610e07565b81546001600160a01b0360039290921b91821b19169083901b17905590565b6040513d5f823e3d90fd5b60405162461bcd60e51b815260206004820152601160248201527027379034b6b83632b6b2b73a30ba34b7b760791b6044820152606490fd5b1561109057565b60405162461bcd60e51b815260206004820152602b60248201527f496e697469616c697a61626c653a20636f6e7472616374206973206e6f74206960448201526a6e697469616c697a696e6760a81b6064820152608490fd5b6033546001600160a01b031633036110fd57565b606460405162461bcd60e51b815260206004820152602060248201527f4f776e61626c653a2063616c6c6572206973206e6f7420746865206f776e65726044820152fd5b603380546001600160a01b039283166001600160a01b0319821681179092559091165f5160206116e25f395f51905f525f80a3565b803b156111ab575f5160206116c25f395f51905f5280546001600160a01b0319166001600160a01b0392909216919091179055565b60405162461bcd60e51b815260206004820152602d60248201527f455243313936373a206e657720696d706c656d656e746174696f6e206973206e60448201526c1bdd08184818dbdb9d1c9858dd609a1b6064820152608490fd5b91929015611268575081511561121a575090565b3b156112235790565b60405162461bcd60e51b815260206004820152601d60248201527f416464726573733a2063616c6c20746f206e6f6e2d636f6e74726163740000006044820152606490fd5b82519091501561127b5750805190602001fd5b60405162461bcd60e51b81526020600482015290819061129f906024830190610f4d565b0390fdfe60806040526103be80380380610014816101f2565b9283398101906040818303126101ee5780516001600160a01b038116918282036101ee576020810151906001600160401b0382116101ee57019183601f840112156101ee57825161006c6100678261022b565b6101f2565b938185526020850195602083830101116101ee57815f926020809301885e85010152813b15610193577f360894a13ba1a3210667c828492db98dca3e2076cc3735a920a3ca505d382bbc80546001600160a01b031916821790557fbc7cd75a20ee27fd9adebab32041f755214dbc6bffa90cc0225b39da2e5c2d3b5f80a281511580159061018c575b610108575b60405160c390816102fb8239f35b5f8061017b9461011860606101f2565b94602786527f416464726573733a206c6f772d6c6576656c2064656c65676174652063616c6c6020870152660819985a5b195960ca1b60408701525190845af43d15610184573d9161016c6100678461022b565b9283523d5f602085013e610246565b505f80806100fa565b606091610246565b505f6100f5565b60405162461bcd60e51b815260206004820152602d60248201527f455243313936373a206e657720696d706c656d656e746174696f6e206973206e60448201526c1bdd08184818dbdb9d1c9858dd609a1b6064820152608490fd5b5f80fd5b6040519190601f01601f191682016001600160401b0381118382101761021757604052565b634e487b7160e01b5f52604160045260245ffd5b6001600160401b03811161021757601f01601f191660200190565b919290156102a8575081511561025a575090565b3b156102635790565b60405162461bcd60e51b815260206004820152601d60248201527f416464726573733a2063616c6c20746f206e6f6e2d636f6e74726163740000006044820152606490fd5b8251909150156102bb5750805190602001fd5b604460209160405192839162461bcd60e51b83528160048401528051918291826024860152018484015e5f828201840152601f01601f19168101030190fdfe60806040523615603d575f516020606e5f395f51905f52545f9081906001600160a01b0316368280378136915af43d5f803e156039573d5ff35b3d5ffd5b5f516020606e5f395f51905f52545f9081906001600160a01b0316368280378136915af43d5f803e156039573d5ff3fe360894a13ba1a3210667c828492db98dca3e2076cc3735a920a3ca505d382bbca2646970667358221220d6f56c175e9054c55bc2dfab07a5ab2cd7e125a57f612e3d470bd8651a9b7ae464736f6c634300081c00334910fdfa16fed3260ed0e7147f7cc6da11a60208b5b9406d12a635614ffd914346756e6374696f6e206d7573742062652063616c6c6564207468726f756768203e8e97a02f0bbf3dc5b8151a18a3f1c65dabbcca9808178c282a5bfc93025589360894a13ba1a3210667c828492db98dca3e2076cc3735a920a3ca505d382bbc8be0079c531659141344cd1fd0a4f28419497f9722a3daafe3b4186f6b6457e0bc7cd75a20ee27fd9adebab32041f755214dbc6bffa90cc0225b39da2e5c2d3b45524331393637557067726164653a20756e737570706f727465642070726f78416464726573733a206c6f772d6c6576656c2064656c65676174652063616c6c252c9638739f756de907b6979150561927a2cec1dc0bbf30853abac0c9a69c9145524331393637557067726164653a206e657720696d706c656d656e74617469a2646970667358221220c6317651b31e980dd5b47d185fdc3d1975cb07413b3f2fe849c368a48795da5864736f6c634300081c0033","linkReferences":{}},"methodIdentifiers":{"allAdapters(uint256)":"11962e85","createDefaultAdapter(address)":"f76894be","createSharedAdapter(address)":"32cd76f8","createVaultAdapter(address,address)":"fa02e6a6","defaultAdapter()":"734e6cad","defaultEthUsdFeed()":"60acf071","getAdapter(address)":"c157c57c","getAdapterCount()":"8a12fad9","getAllAdapters()":"e31ada97","initialize(address,address)":"485cc955","latestImplementation()":"b133f4d3","owner()":"8da5cb5b","proxiableUUID()":"52d1902d","renounceOwnership()":"715018a6","setDefaultAdapter(address)":"82257e3f","setLatestImplementation(address)":"bb453394","transferOwnership(address)":"f2fde38b","upgradeTo(address)":"3659cfe6","upgradeToAndCall(address,bytes)":"4f1ef286","vaultAdapters(address)":"4adde6e6"},"id":131}