{"abi":[{"type":"constructor","inputs":[{"name":"_usdc","type":"address","internalType":"address"},{"name":"_weth","type":"address","internalType":"address"},{"name":"_pool","type":"address","internalType":"address"},{"name":"_ethUsdFeed","type":"address","internalType":"address"}],"stateMutability":"nonpayable"},{"type":"function","name":"ETH_USD_FEED","inputs":[],"outputs":[{"name":"","type":"address","internalType":"contract AggregatorV3Interface"}],"stateMutability":"view"},{"type":"function","name":"POOL","inputs":[],"outputs":[{"name":"","type":"address","internalType":"address"}],"stateMutability":"view"},{"type":"function","name":"USDC","inputs":[],"outputs":[{"name":"","type":"address","internalType":"address"}],"stateMutability":"view"},{"type":"function","name":"WETH","inputs":[],"outputs":[{"name":"","type":"address","internalType":"address"}],"stateMutability":"view"},{"type":"function","name":"accrueMarginFees","inputs":[],"outputs":[],"stateMutability":"nonpayable"},{"type":"function","name":"adjustHedge","inputs":[{"name":"targetDeltaETH","type":"uint256","internalType":"uint256"}],"outputs":[],"stateMutability":"nonpayable"},{"type":"function","name":"allowance","inputs":[{"name":"owner","type":"address","internalType":"address"},{"name":"spender","type":"address","internalType":"address"}],"outputs":[{"name":"","type":"uint256","internalType":"uint256"}],"stateMutability":"view"},{"type":"function","name":"approve","inputs":[{"name":"spender","type":"address","internalType":"address"},{"name":"amount","type":"uint256","internalType":"uint256"}],"outputs":[{"name":"","type":"bool","internalType":"bool"}],"stateMutability":"nonpayable"},{"type":"function","name":"approveSwaps","inputs":[],"outputs":[],"stateMutability":"nonpayable"},{"type":"function","name":"balanceOf","inputs":[{"name":"account","type":"address","internalType":"address"}],"outputs":[{"name":"","type":"uint256","internalType":"uint256"}],"stateMutability":"view"},{"type":"function","name":"balances","inputs":[],"outputs":[{"name":"amount0","type":"uint256","internalType":"uint256"},{"name":"amount1","type":"uint256","internalType":"uint256"}],"stateMutability":"view"},{"type":"function","name":"calculateAMMDelta","inputs":[],"outputs":[{"name":"deltaETH","type":"uint256","internalType":"uint256"}],"stateMutability":"view"},{"type":"function","name":"controller","inputs":[],"outputs":[{"name":"","type":"address","internalType":"address"}],"stateMutability":"view"},{"type":"function","name":"currentAMM","inputs":[],"outputs":[{"name":"liquidity","type":"uint256","internalType":"uint256"},{"name":"tickLower","type":"int24","internalType":"int24"},{"name":"tickUpper","type":"int24","internalType":"int24"},{"name":"feesEarned0","type":"uint256","internalType":"uint256"},{"name":"feesEarned1","type":"uint256","internalType":"uint256"}],"stateMutability":"view"},{"type":"function","name":"decimals","inputs":[],"outputs":[{"name":"","type":"uint8","internalType":"uint8"}],"stateMutability":"view"},{"type":"function","name":"decreaseAllowance","inputs":[{"name":"spender","type":"address","internalType":"address"},{"name":"subtractedValue","type":"uint256","internalType":"uint256"}],"outputs":[{"name":"","type":"bool","internalType":"bool"}],"stateMutability":"nonpayable"},{"type":"function","name":"deposit","inputs":[{"name":"assets","type":"uint256","internalType":"uint256"}],"outputs":[],"stateMutability":"nonpayable"},{"type":"function","name":"depositCancel","inputs":[],"outputs":[],"stateMutability":"nonpayable"},{"type":"function","name":"depositExecute","inputs":[{"name":"swapCalls","type":"tuple[]","internalType":"struct SwapCall[]","components":[{"name":"target","type":"address","internalType":"address"},{"name":"data","type":"bytes","internalType":"bytes"},{"name":"value","type":"uint256","internalType":"uint256"}]}],"outputs":[],"stateMutability":"nonpayable"},{"type":"function","name":"depositRegister","inputs":[{"name":"amount","type":"uint256","internalType":"uint256"}],"outputs":[],"stateMutability":"nonpayable"},{"type":"function","name":"emergencyExit","inputs":[],"outputs":[],"stateMutability":"nonpayable"},{"type":"function","name":"emergencyExitTriggered","inputs":[],"outputs":[{"name":"","type":"bool","internalType":"bool"}],"stateMutability":"view"},{"type":"function","name":"executeConfigChange","inputs":[],"outputs":[],"stateMutability":"nonpayable"},{"type":"function","name":"factory","inputs":[],"outputs":[{"name":"","type":"address","internalType":"address"}],"stateMutability":"view"},{"type":"function","name":"getCurrentAMM","inputs":[],"outputs":[{"name":"","type":"tuple","internalType":"struct IHedgedVault.AMMPosition","components":[{"name":"liquidity","type":"uint256","internalType":"uint256"},{"name":"tickLower","type":"int24","internalType":"int24"},{"name":"tickUpper","type":"int24","internalType":"int24"},{"name":"feesEarned0","type":"uint256","internalType":"uint256"},{"name":"feesEarned1","type":"uint256","internalType":"uint256"}]}],"stateMutability":"pure"},{"type":"function","name":"getCurrentHedge","inputs":[],"outputs":[{"name":"","type":"tuple","internalType":"struct IHedgedVault.HedgePosition","components":[{"name":"isOpen","type":"bool","internalType":"bool"},{"name":"sizeUSD","type":"uint256","internalType":"uint256"},{"name":"collateralUSD","type":"uint256","internalType":"uint256"},{"name":"entryPrice","type":"uint256","internalType":"uint256"},{"name":"openedAt","type":"uint256","internalType":"uint256"},{"name":"marginFeesAccrued","type":"uint256","internalType":"uint256"}]}],"stateMutability":"view"},{"type":"function","name":"getImplementation","inputs":[],"outputs":[{"name":"","type":"address","internalType":"address"}],"stateMutability":"view"},{"type":"function","name":"getPendingConfig","inputs":[],"outputs":[{"name":"","type":"tuple","internalType":"struct AnalogHedgedUniswapVault.PendingConfig","components":[{"name":"changeType","type":"uint8","internalType":"enum AnalogHedgedUniswapVault.ConfigChangeType"},{"name":"value","type":"int256","internalType":"int256"},{"name":"isPending","type":"bool","internalType":"bool"}]}],"stateMutability":"view"},{"type":"function","name":"getPendingStates","inputs":[],"outputs":[{"name":"depositAmount","type":"uint256","internalType":"uint256"},{"name":"depositPending","type":"bool","internalType":"bool"},{"name":"withdrawalAmount","type":"uint256","internalType":"uint256"},{"name":"withdrawalPending","type":"bool","internalType":"bool"},{"name":"swapToken0","type":"uint256","internalType":"uint256"},{"name":"swapToken1","type":"uint256","internalType":"uint256"},{"name":"swapRecipient","type":"address","internalType":"address"},{"name":"swapPending","type":"bool","internalType":"bool"},{"name":"deployAmount0","type":"uint256","internalType":"uint256"},{"name":"deployAmount1","type":"uint256","internalType":"uint256"},{"name":"deployPending","type":"bool","internalType":"bool"},{"name":"configType","type":"uint8","internalType":"uint8"},{"name":"configValue","type":"int256","internalType":"int256"},{"name":"configPending","type":"bool","internalType":"bool"}],"stateMutability":"view"},{"type":"function","name":"getVaultEquity","inputs":[],"outputs":[{"name":"","type":"uint256","internalType":"uint256"}],"stateMutability":"view"},{"type":"function","name":"harvest","inputs":[],"outputs":[{"name":"fees0","type":"uint256","internalType":"uint256"},{"name":"fees1","type":"uint256","internalType":"uint256"}],"stateMutability":"nonpayable"},{"type":"function","name":"hedgeAdapter","inputs":[],"outputs":[{"name":"","type":"address","internalType":"contract IHedgeAdapter"}],"stateMutability":"view"},{"type":"function","name":"increaseAllowance","inputs":[{"name":"spender","type":"address","internalType":"address"},{"name":"addedValue","type":"uint256","internalType":"uint256"}],"outputs":[{"name":"","type":"bool","internalType":"bool"}],"stateMutability":"nonpayable"},{"type":"function","name":"initialize","inputs":[{"name":"_owner","type":"address","internalType":"address"},{"name":"_controller","type":"address","internalType":"address"},{"name":"_usdc","type":"address","internalType":"address"},{"name":"_weth","type":"address","internalType":"address"},{"name":"_strategy","type":"address","internalType":"address"}],"outputs":[],"stateMutability":"nonpayable"},{"type":"function","name":"isPaused","inputs":[],"outputs":[{"name":"","type":"bool","internalType":"bool"}],"stateMutability":"view"},{"type":"function","name":"maxTotalAssets","inputs":[],"outputs":[{"name":"","type":"uint256","internalType":"uint256"}],"stateMutability":"view"},{"type":"function","name":"minDeposit","inputs":[],"outputs":[{"name":"","type":"uint256","internalType":"uint256"}],"stateMutability":"view"},{"type":"function","name":"name","inputs":[],"outputs":[{"name":"","type":"string","internalType":"string"}],"stateMutability":"view"},{"type":"function","name":"owner","inputs":[],"outputs":[{"name":"","type":"address","internalType":"address"}],"stateMutability":"view"},{"type":"function","name":"paused","inputs":[],"outputs":[{"name":"","type":"bool","internalType":"bool"}],"stateMutability":"view"},{"type":"function","name":"pendingConfig","inputs":[],"outputs":[{"name":"changeType","type":"uint8","internalType":"enum AnalogHedgedUniswapVault.ConfigChangeType"},{"name":"value","type":"int256","internalType":"int256"},{"name":"isPending","type":"bool","internalType":"bool"}],"stateMutability":"view"},{"type":"function","name":"proxiableUUID","inputs":[],"outputs":[{"name":"","type":"bytes32","internalType":"bytes32"}],"stateMutability":"view"},{"type":"function","name":"queueConfigChange","inputs":[{"name":"changeType","type":"uint8","internalType":"enum AnalogHedgedUniswapVault.ConfigChangeType"},{"name":"value","type":"int256","internalType":"int256"}],"outputs":[],"stateMutability":"nonpayable"},{"type":"function","name":"rebalanceAMM","inputs":[],"outputs":[],"stateMutability":"nonpayable"},{"type":"function","name":"renounceOwnership","inputs":[],"outputs":[],"stateMutability":"nonpayable"},{"type":"function","name":"setController","inputs":[{"name":"_controller","type":"address","internalType":"address"}],"outputs":[],"stateMutability":"nonpayable"},{"type":"function","name":"setHedgeAdapter","inputs":[{"name":"_adapter","type":"address","internalType":"address"}],"outputs":[],"stateMutability":"nonpayable"},{"type":"function","name":"setMaxTotalAssets","inputs":[{"name":"_maxTotalAssets","type":"uint256","internalType":"uint256"}],"outputs":[],"stateMutability":"nonpayable"},{"type":"function","name":"setMinDeposit","inputs":[{"name":"_minDeposit","type":"uint256","internalType":"uint256"}],"outputs":[],"stateMutability":"nonpayable"},{"type":"function","name":"setPaused","inputs":[{"name":"_paused","type":"bool","internalType":"bool"}],"outputs":[],"stateMutability":"nonpayable"},{"type":"function","name":"strategy","inputs":[],"outputs":[{"name":"","type":"address","internalType":"contract IStrategyConcLiq"}],"stateMutability":"view"},{"type":"function","name":"symbol","inputs":[],"outputs":[{"name":"","type":"string","internalType":"string"}],"stateMutability":"view"},{"type":"function","name":"totalSupply","inputs":[],"outputs":[{"name":"","type":"uint256","internalType":"uint256"}],"stateMutability":"view"},{"type":"function","name":"transfer","inputs":[{"name":"to","type":"address","internalType":"address"},{"name":"amount","type":"uint256","internalType":"uint256"}],"outputs":[{"name":"","type":"bool","internalType":"bool"}],"stateMutability":"nonpayable"},{"type":"function","name":"transferFrom","inputs":[{"name":"from","type":"address","internalType":"address"},{"name":"to","type":"address","internalType":"address"},{"name":"amount","type":"uint256","internalType":"uint256"}],"outputs":[{"name":"","type":"bool","internalType":"bool"}],"stateMutability":"nonpayable"},{"type":"function","name":"transferOwnership","inputs":[{"name":"newOwner","type":"address","internalType":"address"}],"outputs":[],"stateMutability":"nonpayable"},{"type":"function","name":"upgradeTo","inputs":[{"name":"newImplementation","type":"address","internalType":"address"}],"outputs":[],"stateMutability":"nonpayable"},{"type":"function","name":"upgradeToAndCall","inputs":[{"name":"newImplementation","type":"address","internalType":"address"},{"name":"data","type":"bytes","internalType":"bytes"}],"outputs":[],"stateMutability":"payable"},{"type":"function","name":"upgradeToLatest","inputs":[],"outputs":[],"stateMutability":"nonpayable"},{"type":"function","name":"wants","inputs":[],"outputs":[{"name":"token0","type":"address","internalType":"address"},{"name":"token1","type":"address","internalType":"address"}],"stateMutability":"view"},{"type":"function","name":"withdraw","inputs":[{"name":"assets","type":"uint256","internalType":"uint256"}],"outputs":[],"stateMutability":"nonpayable"},{"type":"function","name":"withdrawCancel","inputs":[],"outputs":[],"stateMutability":"nonpayable"},{"type":"function","name":"withdrawExecute","inputs":[{"name":"swapCalls","type":"tuple[]","internalType":"struct SwapCall[]","components":[{"name":"target","type":"address","internalType":"address"},{"name":"data","type":"bytes","internalType":"bytes"},{"name":"value","type":"uint256","internalType":"uint256"}]},{"name":"minAmountOut","type":"uint256","internalType":"uint256"}],"outputs":[],"stateMutability":"nonpayable"},{"type":"function","name":"withdrawRegister","inputs":[{"name":"shares","type":"uint256","internalType":"uint256"},{"name":"recipient","type":"address","internalType":"address"}],"outputs":[],"stateMutability":"nonpayable"},{"type":"event","name":"AMMRebalanced","inputs":[{"name":"oldTickLower","type":"int24","indexed":false,"internalType":"int24"},{"name":"oldTickUpper","type":"int24","indexed":false,"internalType":"int24"},{"name":"newTickLower","type":"int24","indexed":false,"internalType":"int24"},{"name":"newTickUpper","type":"int24","indexed":false,"internalType":"int24"},{"name":"timestamp","type":"uint256","indexed":false,"internalType":"uint256"}],"anonymous":false},{"type":"event","name":"AdminChanged","inputs":[{"name":"previousAdmin","type":"address","indexed":false,"internalType":"address"},{"name":"newAdmin","type":"address","indexed":false,"internalType":"address"}],"anonymous":false},{"type":"event","name":"Approval","inputs":[{"name":"owner","type":"address","indexed":true,"internalType":"address"},{"name":"spender","type":"address","indexed":true,"internalType":"address"},{"name":"value","type":"uint256","indexed":false,"internalType":"uint256"}],"anonymous":false},{"type":"event","name":"BeaconUpgraded","inputs":[{"name":"beacon","type":"address","indexed":true,"internalType":"address"}],"anonymous":false},{"type":"event","name":"ConfigExec","inputs":[{"name":"changeType","type":"uint8","indexed":true,"internalType":"enum AnalogHedgedUniswapVault.ConfigChangeType"},{"name":"value","type":"int256","indexed":false,"internalType":"int256"}],"anonymous":false},{"type":"event","name":"ConfigQueued","inputs":[{"name":"changeType","type":"uint8","indexed":true,"internalType":"enum AnalogHedgedUniswapVault.ConfigChangeType"},{"name":"value","type":"int256","indexed":false,"internalType":"int256"}],"anonymous":false},{"type":"event","name":"ControllerUpdated","inputs":[{"name":"oldController","type":"address","indexed":true,"internalType":"address"},{"name":"newController","type":"address","indexed":true,"internalType":"address"}],"anonymous":false},{"type":"event","name":"DepositCancelled","inputs":[{"name":"user","type":"address","indexed":true,"internalType":"address"}],"anonymous":false},{"type":"event","name":"DepositExecuted","inputs":[{"name":"user","type":"address","indexed":true,"internalType":"address"},{"name":"assets","type":"uint256","indexed":false,"internalType":"uint256"},{"name":"shares","type":"uint256","indexed":false,"internalType":"uint256"}],"anonymous":false},{"type":"event","name":"DepositQueued","inputs":[{"name":"user","type":"address","indexed":true,"internalType":"address"},{"name":"amount","type":"uint256","indexed":false,"internalType":"uint256"}],"anonymous":false},{"type":"event","name":"EmergencyExit","inputs":[{"name":"usdcRecovered","type":"uint256","indexed":false,"internalType":"uint256"},{"name":"timestamp","type":"uint256","indexed":false,"internalType":"uint256"}],"anonymous":false},{"type":"event","name":"FeesHarvested","inputs":[{"name":"fees0","type":"uint256","indexed":false,"internalType":"uint256"},{"name":"fees1","type":"uint256","indexed":false,"internalType":"uint256"},{"name":"timestamp","type":"uint256","indexed":false,"internalType":"uint256"}],"anonymous":false},{"type":"event","name":"HedgeAdjusted","inputs":[{"name":"oldSize","type":"uint256","indexed":false,"internalType":"uint256"},{"name":"newSize","type":"uint256","indexed":false,"internalType":"uint256"},{"name":"timestamp","type":"uint256","indexed":false,"internalType":"uint256"}],"anonymous":false},{"type":"event","name":"HedgeClosed","inputs":[{"name":"sizeUSD","type":"uint256","indexed":false,"internalType":"uint256"},{"name":"exitPrice","type":"uint256","indexed":false,"internalType":"uint256"},{"name":"pnl","type":"int256","indexed":false,"internalType":"int256"},{"name":"timestamp","type":"uint256","indexed":false,"internalType":"uint256"}],"anonymous":false},{"type":"event","name":"HedgeOpened","inputs":[{"name":"sizeUSD","type":"uint256","indexed":false,"internalType":"uint256"},{"name":"entryPrice","type":"uint256","indexed":false,"internalType":"uint256"},{"name":"timestamp","type":"uint256","indexed":false,"internalType":"uint256"}],"anonymous":false},{"type":"event","name":"Initialized","inputs":[{"name":"version","type":"uint8","indexed":false,"internalType":"uint8"}],"anonymous":false},{"type":"event","name":"OwnershipTransferred","inputs":[{"name":"previousOwner","type":"address","indexed":true,"internalType":"address"},{"name":"newOwner","type":"address","indexed":true,"internalType":"address"}],"anonymous":false},{"type":"event","name":"Paused","inputs":[{"name":"account","type":"address","indexed":false,"internalType":"address"}],"anonymous":false},{"type":"event","name":"Paused","inputs":[{"name":"paused","type":"bool","indexed":false,"internalType":"bool"}],"anonymous":false},{"type":"event","name":"Transfer","inputs":[{"name":"from","type":"address","indexed":true,"internalType":"address"},{"name":"to","type":"address","indexed":true,"internalType":"address"},{"name":"value","type":"uint256","indexed":false,"internalType":"uint256"}],"anonymous":false},{"type":"event","name":"Unpaused","inputs":[{"name":"account","type":"address","indexed":false,"internalType":"address"}],"anonymous":false},{"type":"event","name":"Upgraded","inputs":[{"name":"implementation","type":"address","indexed":true,"internalType":"address"}],"anonymous":false},{"type":"event","name":"WithdrawCancelled","inputs":[{"name":"user","type":"address","indexed":true,"internalType":"address"}],"anonymous":false},{"type":"event","name":"WithdrawExecuted","inputs":[{"name":"user","type":"address","indexed":true,"internalType":"address"},{"name":"shares","type":"uint256","indexed":false,"internalType":"uint256"},{"name":"assets","type":"uint256","indexed":false,"internalType":"uint256"},{"name":"recipient","type":"address","indexed":true,"internalType":"address"}],"anonymous":false},{"type":"event","name":"WithdrawQueued","inputs":[{"name":"user","type":"address","indexed":true,"internalType":"address"},{"name":"shares","type":"uint256","indexed":false,"internalType":"uint256"},{"name":"recipient","type":"address","indexed":true,"internalType":"address"}],"anonymous":false},{"type":"error","name":"BelowMin","inputs":[]},{"type":"error","name":"ConfigPending","inputs":[]},{"type":"error","name":"ExceedsMax","inputs":[]},{"type":"error","name":"HedgeAlreadyOpen","inputs":[]},{"type":"error","name":"InsufficientBalance","inputs":[]},{"type":"error","name":"Invalid","inputs":[{"name":"selector","type":"bytes4","internalType":"bytes4"}]},{"type":"error","name":"InvalidAddress","inputs":[]},{"type":"error","name":"InvalidAmount","inputs":[]},{"type":"error","name":"InvalidOperation","inputs":[]},{"type":"error","name":"InvalidPool","inputs":[]},{"type":"error","name":"InvalidStrategy","inputs":[]},{"type":"error","name":"NoConfig","inputs":[]},{"type":"error","name":"NoHedgeOpen","inputs":[]},{"type":"error","name":"NotAuthorized","inputs":[]},{"type":"error","name":"NotCalm","inputs":[]},{"type":"error","name":"NotPaused","inputs":[]},{"type":"error","name":"OnlyController","inputs":[]},{"type":"error","name":"OnlyFactory","inputs":[]},{"type":"error","name":"OnlyOwner","inputs":[]},{"type":"error","name":"SlippageExceeded","inputs":[]},{"type":"error","name":"SwapFail","inputs":[]},{"type":"error","name":"VaultPaused","inputs":[]}],"bytecode":{"object":"0x6101203461018557601f6160fa38819003918201601f19168301916001600160401b0383118484101761018957808492608094604052833981010312610185576100488161019d565b906100556020820161019d565b61006d60606100666040850161019d565b930161019d565b3060805260a09390935260c0526001600160a01b038116156101775760e0526001600160a01b031661010052604051615f4890816101b28239608051818181611a1601528181611b34015261239d015260a0518181816103c0015281816109d001528181610f0c0152818161102b015281816114e80152818161178a015281816118f301528181612b7f0152818161307401528181613c21015281816143ff0152615b9f015260c051818181610b16015281816117bc015281816118a20152818161309e0152818161382401528181613c4b015281816143a2015281816146940152818161514e0152615b5e015260e05181611681015261010051818181610db70152613e9e0152f35b62820f3560e61b5f5260045ffd5b5f80fd5b634e487b7160e01b5f52604160045260245ffd5b51906001600160a01b03821682036101855756fe60806040526004361015610011575f80fd5b5f5f3560e01c8063021613301461349b57806306fdde03146133e4578063095ea7b3146133be578063122b05ed1461339b5780631459457a14612e4357806316c38b3c14612d3e57806318160ddd14612d215780631c3705221461296b57806321ec23b6146128ab57806323b872dd146127e95780632e1a7d4d146126815780632f01b97514612600578063313ce567146125e4578063357e6379146125c957806335ef57241461253c5780633659cfe61461237e578063367ad9e214611ffc5780633950935114611fac5780633f4a1e1414611f6257806341b3d18514611f435780634641257d14611e2e578063481488ae14611d2e5780634cf1f49b14611cbc5780634f1ef28614611ac157806352d1902d14611a035780635641ec03146118125780635c975abb14610adc57806365844934146117e957806369b007451461177457806370a082311461173b578063715018a6146116f157806373c6a288146116b05780637535d2461461166b5780637bb98a6814611399578063806079521461133c57806380b0dac014610f3b57806389a3027114610ef65780638d5b9a0a14610eba5780638da5cb5b14610e915780638fcc9cfb14610e5857806392eefe9b14610de657806394d8572a14610da157806395d89b4114610cd5578063a457c2d714610c32578063a8c62e7614610c04578063a9059cbb14610bd2578063aaf10f4214610b9d578063ab465a2a14610b45578063ad5c464814610b00578063b187bd2614610adc578063b6b55f2514610abf578063bc2e47b714610a9b578063c45a015514610a71578063c60fea3714610a47578063cc28f73d14610973578063d52b1a881461087e578063d820f4921461085f578063dca59f5514610835578063dd62ed3e146107e2578063ec8e6d2a14610565578063f24e8f2c14610542578063f2fde38b146104b1578063f6555082146103065763f77c4791146102da575f80fd5b3461030357806003193601126103035761015f546040516001600160a01b039091168152602090f35b80fd5b50346103035760203660031901126103035760043561032361487c565b61032b613e14565b61033361487c565b61033b613e14565b6097546001600160a01b031633036104845760ff6101685460a01c16610484576101615481106104a257610376816103716137b4565b613766565b61016054106104935760ff6101695416610484576103ed6040516323b872dd60e01b6020820152336024820152306044820152826064820152606481526103be608482613618565b7f00000000000000000000000000000000000000000000000000000000000000006001600160a01b0316615a93565b6040516001600160801b0382169060019060609061040a816135ac565b8381526020808201879052604080830188905292909101929092526101679290925561016880546001600160a81b031916600160a01b17905560975491519283526001600160a01b0391909116917f39b741a94a004f4e0edfdc3c607302b8ccb1b8c4c5a9b5f761fec94a116921fb9190a2600160655580f35b631cc6a69960e11b8252600482fd5b6395e28b8560e01b8252600482fd5b6310906acb60e01b8252600482fd5b5034610303576020366003190112610303576104cb613503565b6104d361412b565b6001600160a01b038116156104ee576104eb90615381565b80f35b60405162461bcd60e51b815260206004820152602660248201527f4f776e61626c653a206e6577206f776e657220697320746865207a65726f206160448201526564647265737360d01b6064820152608490fd5b5034610303578060031936011261030357602061055d61461c565b604051908152f35b503461030357806003193601126103035761015f546001600160a01b031633036107d35760ff61016d5416156107c45761016954604051639bdde46b60e01b815260089190911c6001600160a01b031690602081600481855afa9081156107b957839161077b575b501561076c5760ff61016b54169061016c54908361016b558361016c558361016d5560048310159081610758578490600185036106a857803b156106a4578180916024604051809481936312cf138160e01b83528960020b60048401525af1801561069957610680575b50505b61066c5760207f7f957baf715b9d399a74e664bafdf932e3a6c16ab77a458385a6ef38ebc1a6d891604051908152a280f35b634e487b7160e01b83526021600452602483fd5b8161068a91613618565b61069557835f610637565b8380fd5b6040513d84823e3d90fd5b5080fd5b91508091600285145f1461070557803b156106a457818091602460405180948193631b16146360e11b83528960060b60048401525af18015610699576106f0575b505061063a565b816106fa91613618565b61069557835f6106e9565b915080916003851461071857505061063a565b803b156106a457818091602460405180948193631d27050f60e01b835263ffffffff8a1660048401525af1801561069957156106e957816106fa91613618565b634e487b7160e01b85526021600452602485fd5b6313643c3b60e11b8252600482fd5b90506020813d6020116107b1575b8161079660209383613618565b810103126107ad576107a790613a5a565b5f6105cd565b8280fd5b3d9150610789565b6040513d85823e3d90fd5b63036764e560e21b8152600490fd5b635990781360e01b8152600490fd5b50346103035760403660031901126103035760406107fe613503565b91610807613519565b9260018060a01b031681526034602052209060018060a01b03165f52602052602060405f2054604051908152f35b5034610303576020366003190112610303576104eb610852613503565b61085a61412b565b613bd7565b5034610303578060031936011261030357602061016054604051908152f35b50346103035760403660031901126103035760043560048110156106a4576024356108a761412b565b81156109645760ff61016d5416610955576040516108c4816135c7565b6108ce8382613773565b6020810182815260408201916001835251600481101561094157917f2a45aecb5e74807f4204a70f50428bc49db88ba8b1799808a3b23dda36ad3e30939160209360ff801961016b541691161761016b555161016c5551151560ff801961016d541691161761016d55604051908152a280f35b634e487b7160e01b86526021600452602486fd5b637ed27eb760e01b8352600483fd5b632711b74d60e11b8352600483fd5b503461030357806003193601126103035761098c613e14565b60016101685460a01c1615610a3857610167546097546001600160a01b0316906001600160801b031633829003610a29576101678390556101688390556109fd90827f00000000000000000000000000000000000000000000000000000000000000006001600160a01b031661583f565b7f315b8a0ece450231870bda1ecceeabdc74b6d0e53d6eb663bb910e3a6f42d6f18280a2600160655580f35b631cc6a69960e11b8352600483fd5b631cc6a69960e11b8152600490fd5b5034610303578060031936011261030357610162546040516001600160a01b039091168152602090f35b503461030357806003193601126103035761016a546040516001600160a01b039091168152602090f35b503461030357602036600319011261030357610ab561412b565b6004356101605580f35b50346103035760203660031901126103035760043561033361487c565b5034610303578060031936011261030357602060ff61012d54166040519015158152f35b50346103035780600319360112610303576040517f00000000000000000000000000000000000000000000000000000000000000006001600160a01b03168152602090f35b503461030357806003193601126103035760c0610b60613abe565b60a06040519180511515835260208101516020840152604081015160408401526060810151606084015260808101516080840152015160a0820152f35b50346103035780600319360112610303575f516020615dd35f395f51905f52546040516001600160a01b039091168152602090f35b503461030357604036600319011261030357610bf9610bef613503565b6024359033614716565b602060405160018152f35b50346103035780600319360112610303576101695460405160089190911c6001600160a01b03168152602090f35b503461030357604036600319011261030357610c4c613503565b60406024359233815260346020522060018060a01b0382165f5260205260405f205491808310610c8257610bf992039033614027565b60405162461bcd60e51b815260206004820152602560248201527f45524332303a2064656372656173656420616c6c6f77616e63652062656c6f77604482015264207a65726f60d81b6064820152608490fd5b5034610303578060031936011261030357604051908060375490610cf882613712565b8085529160018116908115610d7a5750600114610d30575b610d2c84610d2081860382613618565b604051918291826134d9565b0390f35b603781525f516020615e935f395f51905f52939250905b808210610d6057509091508101602001610d2082610d10565b919260018160209254838588010152019101909291610d47565b60ff191660208087019190915292151560051b85019092019250610d209150839050610d10565b50346103035780600319360112610303576040517f00000000000000000000000000000000000000000000000000000000000000006001600160a01b03168152602090f35b503461030357602036600319011261030357610e00613503565b610e0861412b565b6001600160a01b03168015610e495761015f80546001600160a01b0319811683179091556001600160a01b03165f516020615d735f395f51905f528380a380f35b63e6c4247b60e01b8252600482fd5b503461030357602036600319011261030357600435610e7561412b565b8015610e82576101615580f35b63162908e360e11b8252600482fd5b50346103035780600319360112610303576097546040516001600160a01b039091168152602090f35b503461030357806003193601126103035761015f546001600160a01b031633036107d357610ee6613e14565b610eee613a18565b600160655580f35b50346103035780600319360112610303576040517f00000000000000000000000000000000000000000000000000000000000000006001600160a01b03168152602090f35b5034610303576040366003190112610303576004356001600160401b0381116106a457610f6c90369060040161355b565b61015f546001600160a01b0316330361132d57610f87613e14565b6101685460028160a01c161561131e5760018060a01b03169160018060a01b0360975416916101675460801c9160355491610fc06137b4565b92879381611301575b505084156112b257848752603360205260408720548481106112625784908689526033602052036040882055836035540360355586855f516020615e335f395f51905f526020604051888152a36040516370a0823160e01b81523060048201527f00000000000000000000000000000000000000000000000000000000000000006001600160a01b03169390602081602481885afa908115611257578991611225575b508082111561121d5761107e9161374a565b8061120e575b50806111fe575b50508461109661461c565b610162546001600160a01b03169081611194575b50506040516370a0823160e01b8152306004820152919050602082602481845afa918215611189578692611151575b5060243582106111425791817f5809abf1a3b5a41e977dcbb37cad51dcd19fa047fea1828fc2edf10961d3b308938187604095611131575b5050508661016755866101685582519182526020820152a3600160655580f35b61113a9261583f565b5f8187611111565b631e9acf1760e31b8652600486fd5b9091506020813d602011611181575b8161116d60209383613618565b8101031261117d5751905f6110d9565b5f80fd5b3d9150611160565b6040513d88823e3d90fd5b68327cb2734119d3b7a9601e1b906111b4906111ae613e8f565b90613670565b04813b156107ad5782916024839260405194859384926221613360e41b845260048401525af16111e5575b806110aa565b816111ef91613618565b6111fa57845f6111df565b8480fd5b6112079161422e565b5f8061108b565b61121790615494565b50611084565b50508661107e565b90506020813d60201161124f575b8161124060209383613618565b8101031261117d57515f61106c565b3d9150611233565b6040513d8b823e3d90fd5b60405162461bcd60e51b815260206004820152602260248201527f45524332303a206275726e20616d6f756e7420657863656564732062616c616e604482015261636560f01b6064820152608490fd5b60405162461bcd60e51b815260206004820152602160248201527f45524332303a206275726e2066726f6d20746865207a65726f206164647265736044820152607360f81b6064820152608490fd5b6113169294506113119086613670565b613683565b915f80610fc9565b631cc6a69960e11b8452600484fd5b635990781360e01b8352600483fd5b503461030357604036600319011261030357611356613519565b5061135f61487c565b611367613e14565b60405162461bcd60e51b815260206004820152600a60248201526911195c1c9958d85d195960b21b6044820152606490fd5b50346103035780600319360112610303576101695460408051630f77314d60e31b815260089290921c6001600160a01b031692919081600481865afa91821561165f578091819361162c575b5060405163017b859f60e61b815293602085600481845afa9081156106995760049495839261160a575b50602090604051958680926343bab15b60e11b82525afa9384156106995782946115d9575b506040516370a0823160e01b81523060048201526001600160a01b039190911692602082602481875afa9081156107b95783916115a3575b6114769250613766565b6040516370a0823160e01b815230600482015290936001600160a01b031690602081602481855afa9081156107b9578391611570575b506114b990604096613766565b610162549093906001600160a01b03166114dd575b50505082519182526020820152f35b6114e56153b6565b917f00000000000000000000000000000000000000000000000000000000000000006001600160a01b03169182036115405750506115249192936139fd565b908082131561153957505b905b5f80806114ce565b905061152f565b1461154d575b5050611531565b61155791926139fd565b908082131561156957505b5f80611546565b9050611562565b90506020813d60201161159b575b8161158b60209383613618565b8101031261117d575160406114ac565b3d915061157e565b90506020823d6020116115d1575b816115be60209383613618565b8101031261117d5761147691519061146c565b3d91506115b1565b6115fc91945060203d602011611603575b6115f48183613618565b810190613795565b925f611434565b503d6115ea565b602091925061162590823d8411611603576115f48183613618565b919061140f565b909250611651915060403d604011611658575b6116498183613618565b81019061377f565b915f6113e5565b503d61163f565b604051903d90823e3d90fd5b50346103035780600319360112610303576040517f00000000000000000000000000000000000000000000000000000000000000006001600160a01b03168152602090f35b5034610303578060031936011261030357606060ff61016b541661016c5460ff61016d5416906116e3604051809461358b565b602083015215156040820152f35b503461030357806003193601126103035761170a61412b565b609780546001600160a01b0319811690915581906001600160a01b03165f516020615df35f395f51905f528280a380f35b5034610303576020366003190112610303576020906040906001600160a01b03611763613503565b168152603383522054604051908152f35b50346103035780600319360112610303576117b77f00000000000000000000000000000000000000000000000000000000000000006001600160a01b03166152b7565b6104eb7f00000000000000000000000000000000000000000000000000000000000000006001600160a01b03166152b7565b5034610303578060031936011261030357611802613953565b90610d2c60405192839283613656565b503461030357806003193601126103035761182b61412b565b600160ff196101695416176101695561184261487c565b600160ff1961012d54161761012d555f516020615e735f395f51905f526020604051338152a16101625481906001600160a01b0316806119c1575b5050611887614fb8565b6040516370a0823160e01b81523060048201526020816024817f00000000000000000000000000000000000000000000000000000000000000006001600160a01b03165afa801561069957611992575b506040516370a0823160e01b81523060048201526020816024817f00000000000000000000000000000000000000000000000000000000000000006001600160a01b03165afa90811561069957829161195f575b5060407fe69aa2e435ec063c41ddc8d262f8672906549b0cff0e2fcdec03de8a590a6329918151908152426020820152a180f35b90506020813d60201161198a575b8161197a60209383613618565b8101031261117d5751604061192b565b3d915061196d565b6119b39060203d6020116119ba575b6119ab8183613618565b810190613757565b505f6118d7565b503d6119a1565b803b15611a00578180916004604051809481936304b6925160e11b83525af18015610699571561187d57816119f591613618565b61030357805f61187d565b50fd5b50346103035780600319360112610303577f00000000000000000000000000000000000000000000000000000000000000006001600160a01b03163003611a5b5760206040515f516020615dd35f395f51905f528152f35b60405162461bcd60e51b815260206004820152603860248201527f555550535570677261646561626c653a206d757374206e6f742062652063616c6044820152771b1959081d1a1c9bdd59da0819195b1959d85d1958d85b1b60421b6064820152608490fd5b50604036600319011261030357611ad6613503565b602435906001600160401b0382116107ad57366023830112156107ad5782826004013592611b038461363b565b93611b116040519586613618565b80855236602482840101116107ad57806024602093018387013784010152611b867f00000000000000000000000000000000000000000000000000000000000000006001600160a01b0316611b68308214156138b7565b5f516020615dd35f395f51905f52546001600160a01b031614613905565b611b8f816148c1565b5f516020615d535f395f51905f525460ff1615611bb0576104eb9150615969565b6040516352d1902d60e01b81526020816004816001600160a01b0386165afa849181611c88575b50611c255760405162461bcd60e51b815260206004820152602e60248201525f516020615ef35f395f51905f5260448201526d6f6e206973206e6f74205555505360901b6064820152608490fd5b5f516020615dd35f395f51905f5203611c44576104eb916001916149ea565b60405162461bcd60e51b815260206004820152602960248201525f516020615eb35f395f51905f526044820152681a58589b195555525160ba1b6064820152608490fd5b9091506020813d602011611cb4575b81611ca460209383613618565b810103126111fa5751905f611bd7565b3d9150611c97565b5034610303578060031936011261030357611cd5613e14565b60026101685460a01c1615610a38576097546001600160a01b03163381900361048457816101675581610168557f8b775bb80a5d4addc5ea2601b2378ae89a1bb9010227157ac02aa71498e799c48280a2600160655580f35b503461030357806003193601126103035761015f546001600160a01b031633036107d357611d5a613e14565b611d62614a79565b80611d6b61461c565b610162546001600160a01b03169081611dca575b827f1375724ea5b49914df0f50564c7584995f701511abaf28b91e714cea23cee49960a0604051838152836020820152836040820152836060820152426080820152a1600160655580f35b68327cb2734119d3b7a9601e1b90611de4906111ae613e8f565b04813b15611e2a5782916024839260405194859384926221613360e41b845260048401525af1611e15575b80611d7f565b81611e1f91613618565b61030357805f611e0f565b5050fd5b503461030357806003193601126103035761015f546001600160a01b031633036107d357611e5a613e14565b61016954819060081c6001600160a01b0316803b15611a0057818091600460405180948193630beebd3960e11b83525af1801561069957611f2e575b506101695460081c6001600160a01b0316803b15611a00578190600460405180948193630d0e30db60e41b83525af1801561069957611f19575b6040827f68d793b46909dd71f01302cc73514e67391ab192095cf26aec99f08ccca271e2606083518381528360208201524285820152a160016065558151908082526020820152f35b611f24828092613618565b610303575f611ed0565b81611f3891613618565b61030357805f611e96565b5034610303578060031936011261030357602061016154604051908152f35b503461030357806003193601126103035760a061016354610164546101655461016654916040519384528060020b602085015260181c60020b604084015260608301526080820152f35b503461030357604036600319011261030357610bf9906040611fcc613503565b9133815260346020522060018060a01b0382165f52602052611ff560405f206024359054613766565b9033614027565b503461030357806003193601126103035761201561412b565b61016a5460405163b133f4d360e01b815282916001600160a01b031690602081600481855afa9081156107b957839161235f575b506001600160a01b038116908115158061233e575b612292575b50506040516309ef357160e41b8152602081600481855afa9081156107b9578391612273575b506001600160a01b031680612195575b50610162546001600160a01b031690816120b1575050f35b602060049160405192838092631df4739960e11b82525afa9081156107b9578391612176575b506001600160a01b0316806120ea575050f35b60206004916040519283809263b133f4d360e01b82525afa9081156107b9578391612157575b506001600160a01b0316612122575b50f35b803b15611a0057818091600460405180948193631b3d6cf160e11b83525af11561211f578161215091613618565b6103035780f35b612170915060203d602011611603576115f48183613618565b5f612110565b61218f915060203d602011611603576115f48183613618565b5f6120d7565b602060649160405192838092631f1097e560e01b8252846004830152601d60248301527f5374726174656779506173736976654d616e61676572556e697377617000000060448301525afa9081156107b9578391612254575b506001600160a01b0316612203575b5f612099565b6101695460081c6001600160a01b0316803b15611e2a5782808092600460405180948193631b3d6cf160e11b83525af161223f575b50506121fd565b8161224991613618565b611a0057815f612238565b61226d915060203d602011611603576115f48183613618565b5f6121ee565b61228c915060203d602011611603576115f48183613618565b5f612089565b604051906122a1602083613618565b84825260208201925f3685376122b682615969565b5f516020615e135f395f51905f528680a284825115801590612337575b6122df575b5050612063565b8061232d94604051946122f3606087613618565b602786525f516020615ed35f395f51905f526020870152660819985a5b195960ca1b60408701525190845af46123276141ff565b91615cbd565b505f8080846122d8565b50806122d3565b505f516020615dd35f395f51905f52546001600160a01b031682141561205e565b612378915060203d602011611603576115f48183613618565b5f612049565b503461030357602036600319011261030357612398613503565b6123d17f00000000000000000000000000000000000000000000000000000000000000006001600160a01b0316611b68308214156138b7565b6123da816148c1565b6020906040516123ea8382613618565b838152601f19830136848301375f516020615d535f395f51905f525460ff161561241957506104eb9150615969565b6040516352d1902d60e01b815290919083816004816001600160a01b0386165afa859181612509575b506124905760405162461bcd60e51b815260048101859052602e60248201525f516020615ef35f395f51905f5260448201526d6f6e206973206e6f74205555505360901b6064820152608490fd5b919290917fc9f76b5ec45e5cdef99837d7b6d2467235c1df8933c8ca56df5c35afa2c7d444016124c657506104eb9183916149ea565b6084906040519062461bcd60e51b82526004820152602960248201525f516020615eb35f395f51905f526044820152681a58589b195555525160ba1b6064820152fd5b9091508481813d8311612535575b6125218183613618565b810103126125315751905f612442565b8580fd5b503d612517565b50346103035780600319360112610303578060a091608060405161255f816135e2565b8281528260208201528260408201528260608201520152604051612582816135e2565b8181526020810190828252604081018381526080606083019285845201928484526040519485525160020b60208501525160020b6040840152516060830152516080820152f35b5034610303578060031936011261030357602061055d6137b4565b5034610303578060031936011261030357602060405160128152f35b50346103035780600319360112610303576040805161261e816135c7565b82815282602082015201526060604051612637816135c7565b61264760ff61016b541682613773565b61016c546020820190815260ff61016d54169060408301911515825261267160405180945161358b565b5160208301525115156040820152f35b50346103035760203660031901126103035761269b61487c565b6126a3613e14565b6097546001600160a01b03163303610a385760ff6101685460a01c16610a385760ff6101695416610a38576035546126d96137b4565b90811580156127e1575b610a2957816103716126f792600435613670565b5f1981019081116127cd579061270c91613683565b3382526033602052806040832054106127be576002606060405161272f816135ac565b8481526001600160801b0384166020808301919091523360408084018290529390920193909352608084901b6001600160801b03191661016755610168805460ff60a01b1983166001600160a81b031990911617600160a11b17905590519283529182917f1d78e54183f79519732f07b15f3311310b120b8286121dea10e65ba6bb03a22391a3600160655580f35b631e9acf1760e31b8252600482fd5b634e487b7160e01b83526011600452602483fd5b5080156126e3565b503461030357606036600319011261030357612803613503565b9061280c613519565b6001600160a01b038316825260346020908152604092839020335f908152915291909120549160443591906001840161284a575b610bf99350614716565b8284106128665761286183610bf995033383614027565b612840565b60405162461bcd60e51b815260206004820152601d60248201527f45524332303a20696e73756666696369656e7420616c6c6f77616e63650000006044820152606490fd5b5034610303578060031936011261030357610167546101685460a01c60ff61016b5416600481101561295757926101c09361016c5491600260ff61016d5416946040519660018060801b0381168852600182161515602089015260801c604088015216151560608601528060808601528060a08601528060c08601528060e0860152806101008601528061012086015261014085015261016084015261018083015215156101a0820152f35b634e487b7160e01b84526021600452602484fd5b503461117d57602036600319011261117d576004356001600160401b03811161117d5761299c90369060040161355b565b61015f546001600160a01b03163303612d12576129b7613e14565b60016101685460a01c1615612d035780612cf3575b505061016754609754610162546001600160a01b03918216926001600160801b0316915f9116612c62575b612a09612a04828461374a565b61432a565b5050612a1361461c565b610162546001600160a01b0316919082612b46575b505050603554612a366137b4565b8280821115612b3d57612a489161374a565b915b809282151580612b34575b612b1d575b508315612ad85782612a8f7fcf75a80a22cde0edcefe708f860e644c73eb8921aac7890f3bec010eef965f6494604094613766565b603555848652603360205282862081815401905584865f516020615e335f395f51905f5260208651858152a38561016755856101685582519182526020820152a2600160655580f35b60405162461bcd60e51b815260206004820152601f60248201527f45524332303a206d696e7420746f20746865207a65726f2061646472657373006044820152606490fd5b81935061131183612b2d93613670565b915f612a5a565b50801515612a55565b50508391612a4a565b68327cb2734119d3b7a9601e1b90612b60906111ae613e8f565b6040516370a0823160e01b8152306004820152919004916020826024817f00000000000000000000000000000000000000000000000000000000000000006001600160a01b03165afa918215612c57575f92612c23575b50811090811591612c14575b50612bcf575b80612a28565b813b1561117d575f916024839260405194859384926221613360e41b845260048401525af1612bff575b80612bc9565b612c0c9193505f90613618565b5f915f612bf9565b6302faf080915010155f612bc3565b9091506020813d602011612c4f575b81612c3f60209383613618565b8101031261117d5751905f612bb7565b3d9150612c32565b6040513d5f823e3d90fd5b506377359400811015612cc657600a8102818104600a1482151715612cb257606490045b6014820282810460141483151715612cb25760649004808211612caa575b506129f7565b90505f612ca4565b634e487b7160e01b5f52601160045260245ffd5b6005810281810460051482151715612cb25760649004630bebc200811015612c865750630bebc200612c86565b612cfc9161422e565b5f806129cc565b631cc6a69960e11b5f5260045ffd5b635990781360e01b5f5260045ffd5b3461117d575f36600319011261117d576020603554604051908152f35b3461117d57602036600319011261117d576004358015159081810361117d57612d6561412b565b15612db25760205f516020615e535f395f51905f5291612d8361487c565b600160ff1961012d54161761012d555f516020615e735f395f51905f5282604051338152a15b604051908152a1005b61012d5460ff811615612e07575f516020615e535f395f51905f529160209160ff191661012d557f5db9ee0a495bf2e6ff9c91a7834c1ba4fdd244a5e8aa4e537bd38aeae4b073aa82604051338152a1612da9565b60405162461bcd60e51b815260206004820152601460248201527314185d5cd8589b194e881b9bdd081c185d5cd95960621b6044820152606490fd5b3461117d5760a036600319011261117d57612e5c613503565b612e64613519565b612e6c61352f565b50612e75613545565b506084356001600160a01b03811680820361117d575f549260ff8460081c16159384809561338e575b8015613377575b1561331b5760ff1981166001175f558461330a575b506040948551612eca8782613618565b601b81527a105b985b1bd9c812195919d95908155b9a5cddd85c0815985d5b1d602a1b6020820152865190612eff8883613618565b600f82526e6168554e492d574554482d5553444360881b6020830152612f3460ff5f5460081c16612f2f81615874565b615874565b8051906001600160401b03821161322a578190612f52603654613712565b601f81116132af575b50602090601f8311600114613249575f9261323e575b50508160011b915f199060031b1c1916176036555b8051906001600160401b03821161322a57612fa2603754613712565b601f81116131da575b50602090601f831160011461317157612fff9392915f9183613166575b50508160011b915f199060031b1c1916176037555b612ff160ff5f5460081c16612f2f81615874565b612ffa33615381565b615381565b61303360ff5f5460081c1661301381615874565b61301c81615874565b600160655561302a81615874565b612f2f81615874565b61012d805460ff1916905561015f80546001600160a01b0319166001600160a01b039283169081179091555f196101605562989680610161559490613099907f0000000000000000000000000000000000000000000000000000000000000000166152b7565b6130cb7f00000000000000000000000000000000000000000000000000000000000000006001600160a01b03166152b7565b51935f5f516020615d735f395f51905f528180a315613157576101698054610100600160a81b03191660089290921b610100600160a81b031691909117905561016a80546001600160a01b0319163317905561312357005b60207f7f26b83ff96e1f2b6a682f133852f6798a09c465da95921460cefb38474024989161ff00195f54165f5560018152a1005b632711b74d60e11b5f5260045ffd5b015190508980612fc8565b90601f1983169160375f52815f20925f5b8181106131c25750916001939185612fff979694106131aa575b505050811b01603755612fdd565b01515f1960f88460031b161c1916905589808061319c565b92936020600181928786015181550195019301613182565b60375f525f516020615e935f395f51905f52601f840160051c81019160208510613220575b601f0160051c01905b8181106132155750612fab565b5f8155600101613208565b90915081906131ff565b634e487b7160e01b5f52604160045260245ffd5b015190508980612f71565b60365f9081528281209350601f198516905b818110613297575090846001959493921061327f575b505050811b01603655612f86565b01515f1960f88460031b161c19169055898080613271565b9293602060018192878601518155019501930161325b565b60365f529091505f516020615d935f395f51905f52601f840160051c81019160208510613300575b90601f859493920160051c01905b8181106132f25750612f5b565b5f81558493506001016132e5565b90915081906132d7565b61ffff1916610101175f5585612eba565b60405162461bcd60e51b815260206004820152602e60248201527f496e697469616c697a61626c653a20636f6e747261637420697320616c72656160448201526d191e481a5b9a5d1a585b1a5e995960921b6064820152608490fd5b50303b158015612ea55750600160ff821614612ea5565b50600160ff821610612e9e565b3461117d575f36600319011261117d57602060ff61016954166040519015158152f35b3461117d57604036600319011261117d57610bf96133da613503565b6024359033614027565b3461117d575f36600319011261117d576040515f60365461340481613712565b8084529060018116908115613477575060011461342c575b610d2c83610d2081850382613618565b60365f9081525f516020615d935f395f51905f52939250905b80821061345d57509091508101602001610d2061341c565b919260018160209254838588010152019101909291613445565b60ff191660208086019190915291151560051b84019091019150610d20905061341c565b3461117d57602036600319011261117d5761015f546001600160a01b03163303612d12576134c7613e14565b6134d26004356136a1565b6001606555005b602060409281835280519182918282860152018484015e5f828201840152601f01601f1916010190565b600435906001600160a01b038216820361117d57565b602435906001600160a01b038216820361117d57565b604435906001600160a01b038216820361117d57565b606435906001600160a01b038216820361117d57565b9181601f8401121561117d578235916001600160401b03831161117d576020808501948460051b01011161117d57565b9060048210156135985752565b634e487b7160e01b5f52602160045260245ffd5b608081019081106001600160401b0382111761322a57604052565b606081019081106001600160401b0382111761322a57604052565b60a081019081106001600160401b0382111761322a57604052565b60c081019081106001600160401b0382111761322a57604052565b601f909101601f19168101906001600160401b0382119082101761322a57604052565b6001600160401b03811161322a57601f01601f191660200190565b6001600160a01b0391821681529116602082015260400190565b81810292918115918404141715612cb257565b811561368d570490565b634e487b7160e01b5f52601260045260245ffd5b610162546001600160a01b031690811561370e5768327cb2734119d3b7a9601e1b906136cf906111ae613e8f565b04813b1561117d575f916024839260405194859384926221613360e41b845260048401525af18015612c57576137025750565b5f61370c91613618565b565b5050565b90600182811c92168015613740575b602083101461372c57565b634e487b7160e01b5f52602260045260245ffd5b91607f1691613721565b91908203918211612cb257565b9081602091031261117d575190565b91908201809211612cb257565b60048210156135985752565b919082604091031261117d576020825192015190565b9081602091031261117d57516001600160a01b038116810361117d5790565b60408051630f77314d60e31b81529081600481305afa8015612c57576004915f905f92613895575b506101695460405163017b859f60e61b815293602091859190829060081c6001600160a01b03165afa8015612c575761386d935f91613876575b506001600160a01b039081167f000000000000000000000000000000000000000000000000000000000000000090911603613870575b68327cb2734119d3b7a9601e1b90613866906111ae613e8f565b0490613766565b90565b9061384c565b61388f915060203d602011611603576115f48183613618565b5f613816565b90506138b0915060403d604011611658576116498183613618565b905f6137dc565b156138be57565b60405162461bcd60e51b815260206004820152602c60248201525f516020615db35f395f51905f5260448201526b19195b1959d85d1958d85b1b60a21b6064820152608490fd5b1561390c57565b60405162461bcd60e51b815260206004820152602c60248201525f516020615db35f395f51905f5260448201526b6163746976652070726f787960a01b6064820152608490fd5b6101695460081c6001600160a01b03168061396f57505f905f90565b60405163017b859f60e61b81529190602083600481845afa908115612c57576004935f926139db575b50602090604051948580926343bab15b60e11b82525afa928315612c57575f936139c157509190565b61386d91935060203d602011611603576115f48183613618565b60209192506139f690823d8411611603576115f48183613618565b9190613998565b9190915f8382019384129112908015821691151617612cb257565b610162546001600160a01b03168015613a5757803b1561117d575f80916004604051809481936346adcd0560e11b83525af18015612c57576137025750565b50565b5190811515820361117d57565b908160c091031261117d5760a060405191613a81836135fd565b613a8a81613a5a565b835260208101516020840152604081015160408401526060810151606084015260808101516080840152015160a082015290565b604051613aca816135fd565b5f81525f60208201525f60408201525f60608201525f60808201525f60a08201525060018060a01b0361016254168015613ba65760c060249160405192838092634ebc9be360e01b82523060048301525afa908115612c57575f91613b77575b508051151590602081015190604081015160608201519060a060808401519301519360405195613b59876135fd565b8652602086015260408501526060840152608083015260a082015290565b613b99915060c03d60c011613b9f575b613b918183613618565b810190613a67565b5f613b2a565b503d613b87565b50604051613bb3816135fd565b5f81525f60208201525f60408201525f60608201525f60808201525f60a082015290565b6001600160a01b038116905f908215613db45761016280546001600160a01b03191684179055823b156106a45760405163b47657a960e01b81523060048201526001600160a01b037f00000000000000000000000000000000000000000000000000000000000000008116602483018190527f000000000000000000000000000000000000000000000000000000000000000090911660448301529190838160648183895af18015613da957908491613d94575b5050604051636eb1769f60e11b81529060209082908190613cb0903060048401613656565b0381855afa9081156107b9578391613d62575b50613cfe5761370c926040519263095ea7b360e01b60208501525060248301525f19604483015260448252613cf9606483613618565b615a93565b60405162461bcd60e51b815260206004820152603660248201527f5361666545524332303a20617070726f76652066726f6d206e6f6e2d7a65726f60448201527520746f206e6f6e2d7a65726f20616c6c6f77616e636560501b6064820152608490fd5b90506020813d602011613d8c575b81613d7d60209383613618565b8101031261117d57515f613cc3565b3d9150613d70565b81613d9e91613618565b6107ad57825f613c8b565b6040513d86823e3d90fd5b5050610162546001600160a01b0316905080613ddf575b5061016280546001600160a01b0319169055565b613e0e906040519063095ea7b360e01b602083015260248201525f6044820152604481526103be606482613618565b5f613dcb565b600260655414613e25576002606555565b60405162461bcd60e51b815260206004820152601f60248201527f5265656e7472616e637947756172643a207265656e7472616e742063616c6c006044820152606490fd5b51906001600160501b038216820361117d57565b60ff16604d8111612cb257600a0a90565b604051633fabe5a360e21b81527f00000000000000000000000000000000000000000000000000000000000000006001600160a01b031660a082600481845afa918215612c57575f92613fd8575b505f821315613f995760206004916040519283809263313ce56760e01b82525afa8015612c57575f90613f5c575b60ff1690506012811015613f31576012039060ff8211612cb2576111ae61386d92613e7e565b60128111613f3d575090565b601119019060ff8211612cb257613f5661386d92613e7e565b90613683565b506020813d602011613f91575b81613f7660209383613618565b8101031261117d575160ff8116810361117d5760ff90613f0b565b3d9150613f69565b60405162461bcd60e51b8152602060048201526017602482015276496e76616c696420436861696e6c696e6b20707269636560481b6044820152606490fd5b90915060a0813d60a01161401f575b81613ff460a09383613618565b8101031261117d5761400581613e6a565b50614017608060208301519201613e6a565b50905f613edd565b3d9150613fe7565b6001600160a01b03169081156140da576001600160a01b031691821561408a5760207f8c5be1e5ebec7d5bd14f71427d1e84f3dd0314c0f7b2291e5b200ac8c7c3b92591835f526034825260405f20855f5282528060405f2055604051908152a3565b60405162461bcd60e51b815260206004820152602260248201527f45524332303a20617070726f766520746f20746865207a65726f206164647265604482015261737360f01b6064820152608490fd5b60405162461bcd60e51b8152602060048201526024808201527f45524332303a20617070726f76652066726f6d20746865207a65726f206164646044820152637265737360e01b6064820152608490fd5b6097546001600160a01b0316330361413f57565b606460405162461bcd60e51b815260206004820152602060248201527f4f776e61626c653a2063616c6c6572206973206e6f7420746865206f776e65726044820152fd5b91908110156141a55760051b81013590605e198136030182121561117d570190565b634e487b7160e01b5f52603260045260245ffd5b356001600160a01b038116810361117d5790565b903590601e198136030182121561117d57018035906001600160401b03821161117d5760200191813603831361117d57565b3d15614229573d906142108261363b565b9161421e6040519384613618565b82523d5f602084013e565b606090565b905f5b81811061423d57505050565b73111111125421ca6dc452d289314280a0f8842a656001600160a01b0361426d614268848688614183565b6141b9565b16036142e4575b5f80614284614268848688614183565b6040614291858789614183565b01356142ab6142a186888a614183565b60208101906141cd565b9190826040519384928337810185815203925af16142c76141ff565b50156142d557600101614231565b6316e128d760e31b5f5260045ffd5b6142f26142a1828486614183565b60041161117d57356001600160e01b03191663f6a1584d60e01b81016143185750614274565b63836e86a560e01b5f5260045260245ffd5b6101695460405163017b859f60e61b815260089190911c6001600160a01b03169291905f90602081600481885afa908115612c57575f916145fd575b506040516343bab15b60e11b815290602082600481895afa918215612c57575f926145dc575b506040516370a0823160e01b81523060048201527f00000000000000000000000000000000000000000000000000000000000000006001600160a01b031691602082602481865afa918215612c57575f926145a8575b506040516370a0823160e01b8152306004820152956020876024817f00000000000000000000000000000000000000000000000000000000000000006001600160a01b03165afa968715612c57575f97614574575b5080871161456c575b506001600160a01b03169182036145665793955b84158061455e575b61455157803b1561117d575f8091600460405180948193630beebd3960e11b83525af18015612c575761453c575b508380614518575b505084806144f2575b50506101695460081c6001600160a01b0316803b156106a457818091600460405180948193630d0e30db60e41b83525af18015610699576144dd575b50509190565b6144e8828092613618565b61030357806144d7565b61016954614511926001600160a01b0360089290921c821691166158d4565b5f8461449b565b610169546145359260089190911c6001600160a01b0316906158d4565b5f83614492565b6145499193505f90613618565b5f915f61448a565b505050505090505f905f90565b50861561445c565b95614454565b95505f614440565b9096506020813d6020116145a0575b8161459060209383613618565b8101031261117d5751955f614437565b3d9150614583565b9091506020813d6020116145d4575b816145c460209383613618565b8101031261117d5751905f6143e2565b3d91506145b7565b6145f691925060203d602011611603576115f48183613618565b905f61438c565b614616915060203d602011611603576115f48183613618565b5f614366565b6101695460408051630f77314d60e31b81529160081c6001600160a01b03169082600481845afa908115612c57575f925f926146f2575b508215806146ea575b6146e35760206004916040519283809263017b859f60e61b82525afa908115612c57575f916146c4575b506001600160a01b039081167f0000000000000000000000000000000000000000000000000000000000000000909116036146bf575090565b905090565b6146dd915060203d602011611603576115f48183613618565b5f614686565b5050505f90565b50811561465c565b90925061470e915060403d604011611658576116498183613618565b90915f614653565b6001600160a01b0316908115614829576001600160a01b03169182156147d857815f52603360205260405f205481811061478457815f516020615e335f395f51905f5292602092855f52603384520360405f2055845f526033825260405f20818154019055604051908152a3565b60405162461bcd60e51b815260206004820152602660248201527f45524332303a207472616e7366657220616d6f756e7420657863656564732062604482015265616c616e636560d01b6064820152608490fd5b60405162461bcd60e51b815260206004820152602360248201527f45524332303a207472616e7366657220746f20746865207a65726f206164647260448201526265737360e81b6064820152608490fd5b60405162461bcd60e51b815260206004820152602560248201527f45524332303a207472616e736665722066726f6d20746865207a65726f206164604482015264647265737360d81b6064820152608490fd5b60ff61012d541661488957565b60405162461bcd60e51b815260206004820152601060248201526f14185d5cd8589b194e881c185d5cd95960821b6044820152606490fd5b61016a5460405163b133f4d360e01b81529190602090839060049082906001600160a01b03165afa918215612c57575f926149c9575b506001600160a01b0390811691168114801591906149c0575b50614982576097546001600160a01b03163314158061496c575b61493057565b60405162461bcd60e51b8152602060048201526014602482015273556e617574686f72697a6564207570677261646560601b6044820152606490fd5b5061015f546001600160a01b031633141561492a565b60405162461bcd60e51b815260206004820152601660248201527524b73b30b634b21034b6b83632b6b2b73a30ba34b7b760511b6044820152606490fd5b9050155f614910565b6149e391925060203d602011611603576115f48183613618565b905f6148f7565b916149f483615969565b6001600160a01b0383165f516020615e135f395f51905f525f80a281511590811591614a71575b50614a24575050565b613a57915f8060405193614a39606086613618565b602785525f516020615ed35f395f51905f526020860152660819985a5b195960ca1b6040860152602081519101845af46123276141ff565b90505f614a1b565b6101695460408051630f77314d60e31b81525f9260081c6001600160a01b03169181600481855afa908115612c57575f905f92614f96575b50159081614f8d575b5061370e5760405163017b859f60e61b8152602081600481855afa908115612c57575f91614f6e575b506040516343bab15b60e11b815291602083600481845afa928315612c57575f93614f4d575b50604051639bdde46b60e01b8152602081600481855afa908115612c57575f91614f13575b50614f0d57803b1561117d575f8091600460405180948193630beebd3960e11b83525af18015612c5757614ef8575b50610169546040516370a0823160e01b815260089190911c6001600160a01b03908116600483018190529391921690602083602481855afa928315614eed578593614eb9575b506040516370a0823160e01b8152600481018590526001600160a01b039190911693602082602481885afa918215611189578692614e85575b506040516370a0823160e01b815230600482015291602083602481875afa928315614e7a578793614e46575b506040516370a0823160e01b8152306004820152946020866024818a5afa958615614e3b578896614e07575b50823b15614e0357879160448392836040519687948593630441a3e760e41b8552600485015260248401525af19182614dee575b5050614c75575050505050565b6040516370a0823160e01b815230600482015290602082602481865afa8015611189578690614dba575b614ca9925061374a565b6040516370a0823160e01b81523060048201529092602082602481885afa8015611189578690614d86575b614cde925061374a565b9180614d62575b505080614d3e575b50506101695460081c6001600160a01b0316803b156106a457818091600460405180948193630d0e30db60e41b83525af1801561069957614d2c575050565b614d37828092613618565b6103035750565b61016954614d5b9260089190911c6001600160a01b0316906158d4565b5f80614ced565b61016954614d7f9260089190911c6001600160a01b0316906158d4565b5f80614ce5565b506020823d602011614db2575b81614da060209383613618565b8101031261117d57614cde9151614cd4565b3d9150614d93565b506020823d602011614de6575b81614dd460209383613618565b8101031261117d57614ca99151614c9f565b3d9150614dc7565b81614df891613618565b61253157855f614c68565b8780fd5b9095506020813d602011614e33575b81614e2360209383613618565b8101031261117d5751945f614c34565b3d9150614e16565b6040513d8a823e3d90fd5b9092506020813d602011614e72575b81614e6260209383613618565b8101031261117d5751915f614c08565b3d9150614e55565b6040513d89823e3d90fd5b9091506020813d602011614eb1575b81614ea160209383613618565b8101031261117d5751905f614bdc565b3d9150614e94565b9092506020813d602011614ee5575b81614ed560209383613618565b8101031261117d5751915f614ba3565b3d9150614ec8565b6040513d87823e3d90fd5b614f059193505f90613618565b5f915f614b5d565b50505050565b90506020813d602011614f45575b81614f2e60209383613618565b8101031261117d57614f3f90613a5a565b5f614b2e565b3d9150614f21565b614f6791935060203d602011611603576115f48183613618565b915f614b09565b614f87915060203d602011611603576115f48183613618565b5f614ae3565b9050155f614aba565b9050614fb1915060403d604011611658576116498183613618565b905f614ab1565b6101695460408051630f77314d60e31b81525f9260081c6001600160a01b03169181600481855afa908115612c57575f905f9261527a575b50159081615271575b5061370e57803b1561117d575f8091600460405180948193630beebd3960e11b83525af18015612c575761525e575b506101695460405163017b859f60e61b815260089190911c6001600160a01b031690602081600481855afa9081156107b957839161523f575b506040516343bab15b60e11b815290602082600481865afa918215613da9579060249291859261521d575b506040516370a0823160e01b8152600481018590529260209184919082906001600160a01b03165afa918215613da95784926151e8575b506040516370a0823160e01b8152600481018490529190602090839060249082906001600160a01b03165afa918215613da95784926151b4575b50823b156106955783929160448492836040519586948593630441a3e760e41b8552600485015260248401525af161519f575b50506040516370a0823160e01b8152306004820152906020826024817f00000000000000000000000000000000000000000000000000000000000000006001600160a01b03165afa90811561165f57506151875750565b613a579060203d6020116119ba576119ab8183613618565b816151a991613618565b61030357805f615130565b9091506020813d6020116151e0575b816151d060209383613618565b8101031261117d5751905f6150fd565b3d91506151c3565b91506020823d602011615215575b8161520360209383613618565b8101031261117d5790519060206150c3565b3d91506151f6565b602091925061523890823d8411611603576115f48183613618565b919061508c565b615258915060203d602011611603576115f48183613618565b5f615061565b61526a91505f90613618565b5f5f615028565b9050155f614ff9565b9050615295915060403d604011611658576116498183613618565b905f614ff0565b6001600160a01b039091168152602081019190915260400190565b604051636eb1769f60e11b815230600482015273111111125421ca6dc452d289314280a0f8842a6560248201526020816044816001600160a01b0386165afa908115612c57575f9161534f575b50613cfe5760405163095ea7b360e01b602082015273111111125421ca6dc452d289314280a0f8842a6560248201525f19604480830191909152815261370c91613cf9606483613618565b90506020813d602011615379575b8161536a60209383613618565b8101031261117d57515f615304565b3d915061535d565b609780546001600160a01b039283166001600160a01b0319821681179092559091165f516020615df35f395f51905f525f80a3565b610162546001600160a01b0316801561548f57604051634ebc9be360e01b815230600482015260c081602481855afa908115612c57575f91615470575b5080511561546a5760206024926040519384809262e3bb5d60e71b82523060048301525afa918215612c57575f92615435575b5090604061386d9201516139fd565b91506020823d602011615462575b8161545060209383613618565b8101031261117d579051906040615426565b3d9150615443565b50505f90565b615489915060c03d60c011613b9f57613b918183613618565b5f6153f3565b505f90565b6101695460408051630f77314d60e31b81525f9460089390931c6001600160a01b031693909182600481875afa918215612c57575f905f9361581b575b50801580615813575b615808576154e6615abe565b9182156157fc57829181836155139561131194116157f4575b6113118261550d9394613670565b94613670565b92803b1561117d575f8091600460405180948193630beebd3960e11b83525af18015612c57576157df575b506101695460405163017b859f60e61b815260089190911c6001600160a01b03169490602081600481895afa9081156106995782916157c0575b506040516343bab15b60e11b8152906020826004818a5afa9182156107b957839261579f575b506040516370a0823160e01b81523060048201526001600160a01b03919091169690916020836024818b5afa928315613da957849361576b575b506040516370a0823160e01b81523060048201526001600160a01b03919091169690946020866024818b5afa958615614eed578596615737575b50823b156111fa579060448592836040519586948593630441a3e760e41b8552600485015260248401525af180156107b957615722575b5060206024949596604051958680926370a0823160e01b82523060048301525afa9384156106995782946156ec575b5061568760209160249561374a565b95604051948580926370a0823160e01b82523060048301525afa90811561165f57906156b8575b61386d925061374a565b506020823d6020116156e4575b816156d260209383613618565b8101031261117d5761386d91516156ae565b3d91506156c5565b93506020843d60201161571a575b8161570760209383613618565b8101031261117d57925192615687615678565b3d91506156fa565b61572d838092613618565b6106a4575f615649565b9095506020813d602011615763575b8161575360209383613618565b8101031261117d5751945f615612565b3d9150615746565b9092506020813d602011615797575b8161578760209383613618565b8101031261117d5751915f6155d8565b3d915061577a565b6157b991925060203d602011611603576115f48183613618565b905f61559e565b6157d9915060203d602011611603576115f48183613618565b5f615578565b6157ec9194505f90613618565b5f925f61553e565b9050806154ff565b505f9550859450505050565b505f94508493505050565b5082156154da565b905061583791925060403d604011611658576116498183613618565b91905f6154d1565b613cf961370c939261586660405194859263a9059cbb60e01b60208501526024840161529c565b03601f198101845283613618565b1561587b57565b60405162461bcd60e51b815260206004820152602b60248201527f496e697469616c697a61626c653a20636f6e7472616374206973206e6f74206960448201526a6e697469616c697a696e6760a81b6064820152608490fd5b905f806159009361590e61592f96604051968791602083019763a9059cbb60e01b89526024840161529c565b03601f198101875286613618565b6001600160a01b0316926159206159f9565b94519082855af16123276141ff565b80518015908115615946575b5061370c9150615a34565b6020915082908101031261117d57615963602061370c9201613a5a565b5f61593b565b803b1561599e575f516020615dd35f395f51905f5280546001600160a01b0319166001600160a01b0392909216919091179055565b60405162461bcd60e51b815260206004820152602d60248201527f455243313936373a206e657720696d706c656d656e746174696f6e206973206e60448201526c1bdd08184818dbdb9d1c9858dd609a1b6064820152608490fd5b60405190615a08604083613618565b602082527f5361666545524332303a206c6f772d6c6576656c2063616c6c206661696c65646020830152565b15615a3b57565b60405162461bcd60e51b815260206004820152602a60248201527f5361666545524332303a204552433230206f7065726174696f6e20646964206e6044820152691bdd081cdd58d8d9595960b21b6064820152608490fd5b61592f91906001600160a01b03165f80615aab6159f9565b9360208151910182855af16123276141ff565b6101695460408051630f77314d60e31b81529160081c6001600160a01b03169082600481845afa908115612c57575f925f92615c99575b508215928380615c91575b615c895760405163017b859f60e61b815290602082600481865afa918215612c57575f92615c66575b50602060049293604051938480926343bab15b60e11b82525afa918215612c57575f92615c45575b505f946001600160a01b037f00000000000000000000000000000000000000000000000000000000000000008116941684149081615c3c575b50615c17575b506001600160a01b03908116907f000000000000000000000000000000000000000000000000000000000000000016811480615c0e575b15615bd757505061386d91613766565b1480615c05575b615be6575090565b61386d919068327cb2734119d3b7a9601e1b90613866906111ae613e8f565b50801515615bde565b50821515615bc7565b90935068327cb2734119d3b7a9601e1b90615c34906111ae613e8f565b04925f615b90565b9050155f615b8a565b615c5f91925060203d602011611603576115f48183613618565b905f615b51565b60049250615c82602091823d8411611603576115f48183613618565b9250615b29565b505050505f90565b508215615b00565b909250615cb5915060403d604011611658576116498183613618565b90915f615af5565b91929015615d1f5750815115615cd1575090565b3b15615cda5790565b60405162461bcd60e51b815260206004820152601d60248201527f416464726573733a2063616c6c20746f206e6f6e2d636f6e74726163740000006044820152606490fd5b825190915015615d325750805190602001fd5b60405162461bcd60e51b8152908190615d4e90600483016134d9565b0390fdfe4910fdfa16fed3260ed0e7147f7cc6da11a60208b5b9406d12a635614ffd91431c87e2bbc4e5fa5d7f6f8c44d66cb241dff224b8602eb5435ca2076d2a5c6fc24a11f94e20a93c79f6ec743a1954ec4fc2c08429ae2122118bf234b2185c81b846756e6374696f6e206d7573742062652063616c6c6564207468726f75676820360894a13ba1a3210667c828492db98dca3e2076cc3735a920a3ca505d382bbc8be0079c531659141344cd1fd0a4f28419497f9722a3daafe3b4186f6b6457e0bc7cd75a20ee27fd9adebab32041f755214dbc6bffa90cc0225b39da2e5c2d3bddf252ad1be2c89b69c2b068fc378daa952ba7f163c4a11628f55a4df523b3ef0e2fb031ee032dc02d8011dc50b816eb450cf856abd8261680dac74f72165bd262e78cea01bee320cd4e420270b5ea74000d11b0c9f74754ebdbfc544b05a25842a7b7dd785cd69714a189dffb3fd7d7174edc9ece837694ce50f7078f7c31ae45524331393637557067726164653a20756e737570706f727465642070726f78416464726573733a206c6f772d6c6576656c2064656c65676174652063616c6c45524331393637557067726164653a206e657720696d706c656d656e74617469a2646970667358221220654c789ac049113e7ebfb45e8dda64784e979671dffeea2b373c4d387fef497b64736f6c634300081c0033","linkReferences":{}},"methodIdentifiers":{"ETH_USD_FEED()":"94d8572a","POOL()":"7535d246","USDC()":"89a30271","WETH()":"ad5c4648","accrueMarginFees()":"8d5b9a0a","adjustHedge(uint256)":"02161330","allowance(address,address)":"dd62ed3e","approve(address,uint256)":"095ea7b3","approveSwaps()":"69b00745","balanceOf(address)":"70a08231","balances()":"7bb98a68","calculateAMMDelta()":"f24e8f2c","controller()":"f77c4791","currentAMM()":"3f4a1e14","decimals()":"313ce567","decreaseAllowance(address,uint256)":"a457c2d7","deposit(uint256)":"b6b55f25","depositCancel()":"cc28f73d","depositExecute((address,bytes,uint256)[])":"1c370522","depositRegister(uint256)":"f6555082","emergencyExit()":"5641ec03","emergencyExitTriggered()":"122b05ed","executeConfigChange()":"ec8e6d2a","factory()":"c45a0155","getCurrentAMM()":"35ef5724","getCurrentHedge()":"ab465a2a","getImplementation()":"aaf10f42","getPendingConfig()":"2f01b975","getPendingStates()":"21ec23b6","getVaultEquity()":"357e6379","harvest()":"4641257d","hedgeAdapter()":"c60fea37","increaseAllowance(address,uint256)":"39509351","initialize(address,address,address,address,address)":"1459457a","isPaused()":"b187bd26","maxTotalAssets()":"d820f492","minDeposit()":"41b3d185","name()":"06fdde03","owner()":"8da5cb5b","paused()":"5c975abb","pendingConfig()":"73c6a288","proxiableUUID()":"52d1902d","queueConfigChange(uint8,int256)":"d52b1a88","rebalanceAMM()":"481488ae","renounceOwnership()":"715018a6","setController(address)":"92eefe9b","setHedgeAdapter(address)":"dca59f55","setMaxTotalAssets(uint256)":"bc2e47b7","setMinDeposit(uint256)":"8fcc9cfb","setPaused(bool)":"16c38b3c","strategy()":"a8c62e76","symbol()":"95d89b41","totalSupply()":"18160ddd","transfer(address,uint256)":"a9059cbb","transferFrom(address,address,uint256)":"23b872dd","transferOwnership(address)":"f2fde38b","upgradeTo(address)":"3659cfe6","upgradeToAndCall(address,bytes)":"4f1ef286","upgradeToLatest()":"367ad9e2","wants()":"65844934","withdraw(uint256)":"2e1a7d4d","withdrawCancel()":"4cf1f49b","withdrawExecute((address,bytes,uint256)[],uint256)":"80b0dac0","withdrawRegister(uint256,address)":"80607952"},"id":101}