{"abi":[{"type":"function","name":"balances","inputs":[],"outputs":[{"name":"token0Bal","type":"uint256","internalType":"uint256"},{"name":"token1Bal","type":"uint256","internalType":"uint256"}],"stateMutability":"view"},{"type":"function","name":"balancesOfPool","inputs":[],"outputs":[{"name":"token0Bal","type":"uint256","internalType":"uint256"},{"name":"token1Bal","type":"uint256","internalType":"uint256"},{"name":"mainAmount0","type":"uint256","internalType":"uint256"},{"name":"mainAmount1","type":"uint256","internalType":"uint256"},{"name":"altAmount0","type":"uint256","internalType":"uint256"},{"name":"altAmount1","type":"uint256","internalType":"uint256"}],"stateMutability":"view"},{"type":"function","name":"balancesOfThis","inputs":[],"outputs":[{"name":"token0Bal","type":"uint256","internalType":"uint256"},{"name":"token1Bal","type":"uint256","internalType":"uint256"}],"stateMutability":"view"},{"type":"function","name":"beefyFeeConfig","inputs":[],"outputs":[{"name":"","type":"address","internalType":"contract IFeeConfig"}],"stateMutability":"view"},{"type":"function","name":"beefyFeeRecipient","inputs":[],"outputs":[{"name":"","type":"address","internalType":"address"}],"stateMutability":"view"},{"type":"function","name":"beforeAction","inputs":[],"outputs":[],"stateMutability":"nonpayable"},{"type":"function","name":"claimEarnings","inputs":[],"outputs":[{"name":"fee0","type":"uint256","internalType":"uint256"},{"name":"fee1","type":"uint256","internalType":"uint256"},{"name":"feeAlt0","type":"uint256","internalType":"uint256"},{"name":"feeAlt1","type":"uint256","internalType":"uint256"}],"stateMutability":"nonpayable"},{"type":"function","name":"currentTick","inputs":[],"outputs":[{"name":"tick","type":"int24","internalType":"int24"}],"stateMutability":"view"},{"type":"function","name":"deposit","inputs":[],"outputs":[],"stateMutability":"nonpayable"},{"type":"function","name":"depositFee","inputs":[],"outputs":[{"name":"","type":"uint256","internalType":"uint256"}],"stateMutability":"view"},{"type":"function","name":"factory","inputs":[],"outputs":[{"name":"","type":"address","internalType":"contract IStrategyFactory"}],"stateMutability":"view"},{"type":"function","name":"fees0","inputs":[],"outputs":[{"name":"","type":"uint256","internalType":"uint256"}],"stateMutability":"view"},{"type":"function","name":"fees1","inputs":[],"outputs":[{"name":"","type":"uint256","internalType":"uint256"}],"stateMutability":"view"},{"type":"function","name":"getAllFees","inputs":[],"outputs":[{"name":"","type":"tuple","internalType":"struct IFeeConfig.AllFees","components":[{"name":"performance","type":"tuple","internalType":"struct IFeeConfig.FeeCategory","components":[{"name":"total","type":"uint256","internalType":"uint256"},{"name":"beefy","type":"uint256","internalType":"uint256"},{"name":"call","type":"uint256","internalType":"uint256"},{"name":"strategist","type":"uint256","internalType":"uint256"},{"name":"label","type":"string","internalType":"string"},{"name":"active","type":"bool","internalType":"bool"}]},{"name":"deposit","type":"uint256","internalType":"uint256"},{"name":"withdraw","type":"uint256","internalType":"uint256"}]}],"stateMutability":"view"},{"type":"function","name":"getKeys","inputs":[],"outputs":[{"name":"keyMain","type":"bytes32","internalType":"bytes32"},{"name":"keyAlt","type":"bytes32","internalType":"bytes32"}],"stateMutability":"view"},{"type":"function","name":"getStratFeeId","inputs":[],"outputs":[{"name":"","type":"uint256","internalType":"uint256"}],"stateMutability":"view"},{"type":"function","name":"harvest","inputs":[{"name":"_callFeeRecipient","type":"address","internalType":"address"}],"outputs":[],"stateMutability":"nonpayable"},{"type":"function","name":"harvest","inputs":[],"outputs":[],"stateMutability":"nonpayable"},{"type":"function","name":"initialize","inputs":[{"name":"_pool","type":"address","internalType":"address"},{"name":"_quoter","type":"address","internalType":"address"},{"name":"_positionWidth","type":"int24","internalType":"int24"},{"name":"_lpToken0ToNativePath","type":"bytes","internalType":"bytes"},{"name":"_lpToken1ToNativePath","type":"bytes","internalType":"bytes"},{"name":"_commonAddresses","type":"tuple","internalType":"struct StratFeeManagerInitializable.CommonAddresses","components":[{"name":"vault","type":"address","internalType":"address"},{"name":"unirouter","type":"address","internalType":"address"},{"name":"strategist","type":"address","internalType":"address"},{"name":"factory","type":"address","internalType":"address"}]}],"outputs":[],"stateMutability":"nonpayable"},{"type":"function","name":"isCalm","inputs":[],"outputs":[{"name":"","type":"bool","internalType":"bool"}],"stateMutability":"view"},{"type":"function","name":"keeper","inputs":[],"outputs":[{"name":"","type":"address","internalType":"address"}],"stateMutability":"view"},{"type":"function","name":"lastHarvest","inputs":[],"outputs":[{"name":"","type":"uint256","internalType":"uint256"}],"stateMutability":"view"},{"type":"function","name":"lastPositionAdjustment","inputs":[],"outputs":[{"name":"","type":"uint256","internalType":"uint256"}],"stateMutability":"view"},{"type":"function","name":"lockedProfit","inputs":[],"outputs":[{"name":"locked0","type":"uint256","internalType":"uint256"},{"name":"locked1","type":"uint256","internalType":"uint256"}],"stateMutability":"view"},{"type":"function","name":"lpToken0","inputs":[],"outputs":[{"name":"","type":"address","internalType":"address"}],"stateMutability":"view"},{"type":"function","name":"lpToken0ToNative","inputs":[],"outputs":[{"name":"","type":"address[]","internalType":"address[]"}],"stateMutability":"view"},{"type":"function","name":"lpToken0ToNativePath","inputs":[],"outputs":[{"name":"","type":"bytes","internalType":"bytes"}],"stateMutability":"view"},{"type":"function","name":"lpToken0ToNativePrice","inputs":[],"outputs":[{"name":"","type":"uint256","internalType":"uint256"}],"stateMutability":"nonpayable"},{"type":"function","name":"lpToken1","inputs":[],"outputs":[{"name":"","type":"address","internalType":"address"}],"stateMutability":"view"},{"type":"function","name":"lpToken1ToNative","inputs":[],"outputs":[{"name":"","type":"address[]","internalType":"address[]"}],"stateMutability":"view"},{"type":"function","name":"lpToken1ToNativePath","inputs":[],"outputs":[{"name":"","type":"bytes","internalType":"bytes"}],"stateMutability":"view"},{"type":"function","name":"lpToken1ToNativePrice","inputs":[],"outputs":[{"name":"","type":"uint256","internalType":"uint256"}],"stateMutability":"nonpayable"},{"type":"function","name":"maxTickDeviation","inputs":[],"outputs":[{"name":"","type":"int56","internalType":"int56"}],"stateMutability":"view"},{"type":"function","name":"moveTicks","inputs":[],"outputs":[],"stateMutability":"nonpayable"},{"type":"function","name":"native","inputs":[],"outputs":[{"name":"","type":"address","internalType":"address"}],"stateMutability":"view"},{"type":"function","name":"owner","inputs":[],"outputs":[{"name":"","type":"address","internalType":"address"}],"stateMutability":"view"},{"type":"function","name":"panic","inputs":[{"name":"_minAmount0","type":"uint256","internalType":"uint256"},{"name":"_minAmount1","type":"uint256","internalType":"uint256"}],"outputs":[],"stateMutability":"nonpayable"},{"type":"function","name":"paused","inputs":[],"outputs":[{"name":"","type":"bool","internalType":"bool"}],"stateMutability":"view"},{"type":"function","name":"pool","inputs":[],"outputs":[{"name":"","type":"address","internalType":"address"}],"stateMutability":"view"},{"type":"function","name":"positionAlt","inputs":[],"outputs":[{"name":"tickLower","type":"int24","internalType":"int24"},{"name":"tickUpper","type":"int24","internalType":"int24"}],"stateMutability":"view"},{"type":"function","name":"positionMain","inputs":[],"outputs":[{"name":"tickLower","type":"int24","internalType":"int24"},{"name":"tickUpper","type":"int24","internalType":"int24"}],"stateMutability":"view"},{"type":"function","name":"positionWidth","inputs":[],"outputs":[{"name":"","type":"int24","internalType":"int24"}],"stateMutability":"view"},{"type":"function","name":"price","inputs":[],"outputs":[{"name":"_price","type":"uint256","internalType":"uint256"}],"stateMutability":"view"},{"type":"function","name":"proxiableUUID","inputs":[],"outputs":[{"name":"","type":"bytes32","internalType":"bytes32"}],"stateMutability":"view"},{"type":"function","name":"quoter","inputs":[],"outputs":[{"name":"","type":"address","internalType":"address"}],"stateMutability":"view"},{"type":"function","name":"range","inputs":[],"outputs":[{"name":"lowerPrice","type":"uint256","internalType":"uint256"},{"name":"upperPrice","type":"uint256","internalType":"uint256"}],"stateMutability":"view"},{"type":"function","name":"renounceOwnership","inputs":[],"outputs":[],"stateMutability":"nonpayable"},{"type":"function","name":"retireVault","inputs":[],"outputs":[],"stateMutability":"nonpayable"},{"type":"function","name":"setDeviation","inputs":[{"name":"_maxDeviation","type":"int56","internalType":"int56"}],"outputs":[],"stateMutability":"nonpayable"},{"type":"function","name":"setLpToken0ToNativePath","inputs":[{"name":"_path","type":"bytes","internalType":"bytes"}],"outputs":[],"stateMutability":"nonpayable"},{"type":"function","name":"setLpToken1ToNativePath","inputs":[{"name":"_path","type":"bytes","internalType":"bytes"}],"outputs":[],"stateMutability":"nonpayable"},{"type":"function","name":"setPositionWidth","inputs":[{"name":"_width","type":"int24","internalType":"int24"}],"outputs":[],"stateMutability":"nonpayable"},{"type":"function","name":"setStratFeeId","inputs":[{"name":"_feeId","type":"uint256","internalType":"uint256"}],"outputs":[],"stateMutability":"nonpayable"},{"type":"function","name":"setStrategist","inputs":[{"name":"_strategist","type":"address","internalType":"address"}],"outputs":[],"stateMutability":"nonpayable"},{"type":"function","name":"setTwapInterval","inputs":[{"name":"_interval","type":"uint32","internalType":"uint32"}],"outputs":[],"stateMutability":"nonpayable"},{"type":"function","name":"setUnirouter","inputs":[{"name":"_unirouter","type":"address","internalType":"address"}],"outputs":[],"stateMutability":"nonpayable"},{"type":"function","name":"sqrtPrice","inputs":[],"outputs":[{"name":"sqrtPriceX96","type":"uint160","internalType":"uint160"}],"stateMutability":"view"},{"type":"function","name":"strategist","inputs":[],"outputs":[{"name":"","type":"address","internalType":"address"}],"stateMutability":"view"},{"type":"function","name":"swapFee","inputs":[],"outputs":[{"name":"fee","type":"uint256","internalType":"uint256"}],"stateMutability":"view"},{"type":"function","name":"totalLocked0","inputs":[],"outputs":[{"name":"","type":"uint256","internalType":"uint256"}],"stateMutability":"view"},{"type":"function","name":"totalLocked1","inputs":[],"outputs":[{"name":"","type":"uint256","internalType":"uint256"}],"stateMutability":"view"},{"type":"function","name":"transferOwnership","inputs":[{"name":"newOwner","type":"address","internalType":"address"}],"outputs":[],"stateMutability":"nonpayable"},{"type":"function","name":"twap","inputs":[],"outputs":[{"name":"twapTick","type":"int56","internalType":"int56"}],"stateMutability":"view"},{"type":"function","name":"twapInterval","inputs":[],"outputs":[{"name":"","type":"uint32","internalType":"uint32"}],"stateMutability":"view"},{"type":"function","name":"unirouter","inputs":[],"outputs":[{"name":"","type":"address","internalType":"address"}],"stateMutability":"view"},{"type":"function","name":"uniswapV3MintCallback","inputs":[{"name":"amount0","type":"uint256","internalType":"uint256"},{"name":"amount1","type":"uint256","internalType":"uint256"},{"name":"","type":"bytes","internalType":"bytes"}],"outputs":[],"stateMutability":"nonpayable"},{"type":"function","name":"unpause","inputs":[],"outputs":[],"stateMutability":"nonpayable"},{"type":"function","name":"upgradeTo","inputs":[{"name":"newImplementation","type":"address","internalType":"address"}],"outputs":[],"stateMutability":"nonpayable"},{"type":"function","name":"upgradeToAndCall","inputs":[{"name":"newImplementation","type":"address","internalType":"address"},{"name":"data","type":"bytes","internalType":"bytes"}],"outputs":[],"stateMutability":"payable"},{"type":"function","name":"upgradeToLatest","inputs":[],"outputs":[],"stateMutability":"nonpayable"},{"type":"function","name":"vault","inputs":[],"outputs":[{"name":"","type":"address","internalType":"address"}],"stateMutability":"view"},{"type":"function","name":"withdraw","inputs":[{"name":"_amount0","type":"uint256","internalType":"uint256"},{"name":"_amount1","type":"uint256","internalType":"uint256"}],"outputs":[],"stateMutability":"nonpayable"},{"type":"function","name":"withdrawFee","inputs":[],"outputs":[{"name":"","type":"uint256","internalType":"uint256"}],"stateMutability":"view"},{"type":"event","name":"AdminChanged","inputs":[{"name":"previousAdmin","type":"address","indexed":false,"internalType":"address"},{"name":"newAdmin","type":"address","indexed":false,"internalType":"address"}],"anonymous":false},{"type":"event","name":"BeaconUpgraded","inputs":[{"name":"beacon","type":"address","indexed":true,"internalType":"address"}],"anonymous":false},{"type":"event","name":"ChargedFees","inputs":[{"name":"callFeeAmount","type":"uint256","indexed":false,"internalType":"uint256"},{"name":"beefyFeeAmount","type":"uint256","indexed":false,"internalType":"uint256"},{"name":"strategistFeeAmount","type":"uint256","indexed":false,"internalType":"uint256"}],"anonymous":false},{"type":"event","name":"ClaimedFees","inputs":[{"name":"feeMain0","type":"uint256","indexed":false,"internalType":"uint256"},{"name":"feeMain1","type":"uint256","indexed":false,"internalType":"uint256"},{"name":"feeAlt0","type":"uint256","indexed":false,"internalType":"uint256"},{"name":"feeAlt1","type":"uint256","indexed":false,"internalType":"uint256"}],"anonymous":false},{"type":"event","name":"Harvest","inputs":[{"name":"fee0","type":"uint256","indexed":false,"internalType":"uint256"},{"name":"fee1","type":"uint256","indexed":false,"internalType":"uint256"}],"anonymous":false},{"type":"event","name":"Initialized","inputs":[{"name":"version","type":"uint8","indexed":false,"internalType":"uint8"}],"anonymous":false},{"type":"event","name":"OwnershipTransferred","inputs":[{"name":"previousOwner","type":"address","indexed":true,"internalType":"address"},{"name":"newOwner","type":"address","indexed":true,"internalType":"address"}],"anonymous":false},{"type":"event","name":"Paused","inputs":[{"name":"account","type":"address","indexed":false,"internalType":"address"}],"anonymous":false},{"type":"event","name":"SetDeviation","inputs":[{"name":"maxTickDeviation","type":"int56","indexed":false,"internalType":"int56"}],"anonymous":false},{"type":"event","name":"SetLpToken0ToNativePath","inputs":[{"name":"path","type":"bytes","indexed":false,"internalType":"bytes"}],"anonymous":false},{"type":"event","name":"SetLpToken1ToNativePath","inputs":[{"name":"path","type":"bytes","indexed":false,"internalType":"bytes"}],"anonymous":false},{"type":"event","name":"SetPositionWidth","inputs":[{"name":"oldWidth","type":"int24","indexed":false,"internalType":"int24"},{"name":"width","type":"int24","indexed":false,"internalType":"int24"}],"anonymous":false},{"type":"event","name":"SetQuoter","inputs":[{"name":"quoter","type":"address","indexed":false,"internalType":"address"}],"anonymous":false},{"type":"event","name":"SetStratFeeId","inputs":[{"name":"feeId","type":"uint256","indexed":false,"internalType":"uint256"}],"anonymous":false},{"type":"event","name":"SetStrategist","inputs":[{"name":"strategist","type":"address","indexed":false,"internalType":"address"}],"anonymous":false},{"type":"event","name":"SetTwapInterval","inputs":[{"name":"oldInterval","type":"uint32","indexed":false,"internalType":"uint32"},{"name":"interval","type":"uint32","indexed":false,"internalType":"uint32"}],"anonymous":false},{"type":"event","name":"SetUnirouter","inputs":[{"name":"unirouter","type":"address","indexed":false,"internalType":"address"}],"anonymous":false},{"type":"event","name":"TVL","inputs":[{"name":"bal0","type":"uint256","indexed":false,"internalType":"uint256"},{"name":"bal1","type":"uint256","indexed":false,"internalType":"uint256"}],"anonymous":false},{"type":"event","name":"Unpaused","inputs":[{"name":"account","type":"address","indexed":false,"internalType":"address"}],"anonymous":false},{"type":"event","name":"Upgraded","inputs":[{"name":"implementation","type":"address","indexed":true,"internalType":"address"}],"anonymous":false},{"type":"error","name":"InvalidEntry","inputs":[]},{"type":"error","name":"InvalidInput","inputs":[]},{"type":"error","name":"InvalidOutput","inputs":[]},{"type":"error","name":"InvalidTicks","inputs":[]},{"type":"error","name":"NotAuthorized","inputs":[]},{"type":"error","name":"NotCalm","inputs":[]},{"type":"error","name":"NotManager","inputs":[]},{"type":"error","name":"NotPool","inputs":[]},{"type":"error","name":"NotStrategist","inputs":[]},{"type":"error","name":"NotVault","inputs":[]},{"type":"error","name":"OverLimit","inputs":[]},{"type":"error","name":"StrategyPaused","inputs":[]},{"type":"error","name":"TooMuchSlippage","inputs":[]}],"bytecode":{"object":"0x60a06040523461004c5761001161005b565b610019610051565b61b4f16103008239608051818181613a9901528181613add015281816144280152818161446c0152614588015261b4f190f35b610057565b60405190565b5f80fd5b6100636100a7565b565b60018060a01b031690565b90565b61008761008261008c92610065565b610070565b610065565b90565b61009890610073565b90565b6100a49061008f565b90565b6100af6100bd565b6100b83061009b565b608052565b6100c56100c7565b565b6100cf6100d1565b565b6100d96100db565b565b6100e3610276565b565b60081c90565b60ff1690565b6100fd610102916100e5565b6100eb565b90565b61010f90546100f1565b90565b151590565b60209181520190565b60207f616c697a696e6700000000000000000000000000000000000000000000000000917f496e697469616c697a61626c653a20636f6e747261637420697320696e6974695f8201520152565b61017a6027604092610117565b61018381610120565b0190565b61019c9060208101905f81830391015261016d565b90565b156101a657565b6101ae610051565b62461bcd60e51b8152806101c460048201610187565b0390fd5b5f1c90565b60ff1690565b6101df6101e4916101c8565b6101cd565b90565b6101f190546101d3565b90565b60ff1690565b5f1b90565b9061020b60ff916101fa565b9181191691161790565b61022961022461022e926101f4565b610070565b6101f4565b90565b90565b9061024961024461025092610215565b610231565b82546101ff565b9055565b61025d906101f4565b9052565b9190610274905f60208501940190610254565b565b61029061028b6102855f610105565b15610112565b61019f565b6102995f6101e7565b6102ac6102a660ff6101f4565b916101f4565b036102b4575b565b6102bf60ff5f610234565b60ff6102f77f7f26b83ff96e1f2b6a682f133852f6798a09c465da95921460cefb3847402498916102ee610051565b91829182610261565b0390a16102b256fe60806040526004361015610013575b6120dd565b61001d5f356104ab565b8062a4b5c9146104a657806304c404b3146104a1578063065e53601461049c57806308898ea0146104975780630e5c011e1461049257806311b0b42d1461048d5780631208aa181461048857806312cf13811461048357806316b9cd9c1461047e57806316f0115b1461047957806317dd7a72146104745780631d27050f1461046f5780631dcfeddd1461046a5780631fe4a686146104655780632150c51814610460578063236db0421461045b578063257ae0de146104565780632b950b66146104515780632e773d321461044c578063362c28c6146104475780633659cfe614610442578063367ad9e21461043d5780633c1d5df0146104385780633e55f932146104335780633f4ba83a1461042e578063441a3e701461042957806344b81396146104245780634641257d1461041f5780634746fb551461041a5780634c02a21c146104155780634f1ef2861461041057806352d1902d1461040b57806354cf2aeb146104065780635c975abb146104015780635ee167c0146103fc57806360991346146103f757806367a52793146103f2578063696c58e5146103ed578063715018a6146103e85780637bb98a68146103e35780637f10e4b9146103de5780638097e249146103d9578063865238d4146103d4578063877562b6146103cf5780638cfc0250146103ca5780638da5cb5b146103c55780638e145459146103c057806393f1c442146103bb578063953d329f146103b657806399cd2446146103b15780639bdde46b146103ac5780639c6d4904146103a7578063a035b1fe146103a2578063aced16611461039d578063b20feaaf14610398578063b3a60cb314610393578063b83d26831461038e578063bc415d8a14610389578063c45a015514610384578063c6bbd5a71461037f578063c6ebd4ae1461037a578063c7b9d53014610375578063c7d5413214610370578063d0e30db01461036b578063d348799714610366578063d92f3d7314610361578063d9ceab131461035c578063e941fa7814610357578063e97206a914610352578063f1a392da1461034d578063f2fde38b14610348578063fbfa77cf146103435763fcc25e130361000e576120a1565b612011565b611fcf565b611f9a565b611f55565b611f20565b611ee7565b611e76565b611e42565b611dc0565b611d8d565b611d5a565b611d25565b611cf0565b611cac565b611c08565b611bb7565b611b62565b611b2d565b6119d4565b61199f565b61196a565b611935565b6118ff565b61183e565b6117fa565b6117b6565b611781565b61174c565b611717565b6116d3565b61168f565b611617565b611537565b611504565b6114cf565b61145e565b61142a565b6113f5565b6113b1565b611355565b611320565b6112e1565b6111cb565b611187565b6110fb565b6110c5565b611091565b611031565b610ffe565b610f88565b610ef4565b610ec1565b610e8e565b610e18565b610d44565b610d00565b610cbd565b610c87565b610c1f565b610bdb565b6109bd565b610940565b61090b565b6108c7565b610894565b61081e565b6107c1565b61072c565b6106a0565b6105e5565b610588565b610501565b60e01c90565b60405190565b5f80fd5b5f80fd5b5f9103126104c957565b6104bb565b90565b6104da906104ce565b9052565b9160206104ff9294936104f860408201965f8301906104d1565b01906104d1565b565b34610532576105113660046104bf565b61051961217d565b9061052e6105256104b1565b928392836104de565b0390f35b6104b7565b1c90565b90565b61054e9060086105539302610537565b61053b565b90565b90610561915461053e565b90565b610570609d5f90610556565b90565b9190610586905f602085019401906104d1565b565b346105b8576105983660046104bf565b6105b46105a3610564565b6105ab6104b1565b91829182610573565b0390f35b6104b7565b60020b90565b6105cc906105bd565b9052565b91906105e3905f602085019401906105c3565b565b34610615576105f53660046104bf565b6106116106006123e7565b6106086104b1565b918291826105d0565b0390f35b6104b7565b5f80fd5b5f80fd5b5f80fd5b5f80fd5b909182601f830112156106625781359160018060401b03831161065d57602001926001830284011161065857565b610626565b610622565b61061e565b90602082820312610696575f82013560018060401b0381116106915761068d920161062a565b9091565b61061a565b6104bb565b5f0190565b346106cf576106b96106b3366004610667565b906128ea565b6106c16104b1565b806106cb8161069b565b0390f35b6104b7565b60018060a01b031690565b6106e8906106d4565b90565b6106f4816106df565b036106fb57565b5f80fd5b9050359061070c826106eb565b565b9060208282031261072757610724915f016106ff565b90565b6104bb565b3461075a5761074461073f36600461070e565b6128f6565b61074c6104b1565b806107568161069b565b0390f35b6104b7565b60018060a01b031690565b61077a90600861077f9302610537565b61075f565b90565b9061078d915461076a565b90565b61079c60975f90610782565b90565b6107a8906106df565b9052565b91906107bf905f6020850194019061079f565b565b346107f1576107d13660046104bf565b6107ed6107dc610790565b6107e46104b1565b918291826107ac565b0390f35b6104b7565b60060b90565b610805906107f6565b9052565b919061081c905f602085019401906107fc565b565b3461084e5761082e3660046104bf565b61084a610839612d1a565b6108416104b1565b91829182610809565b0390f35b6104b7565b61085c816105bd565b0361086357565b5f80fd5b9050359061087482610853565b565b9060208282031261088f5761088c915f01610867565b90565b6104bb565b346108c2576108ac6108a7366004610876565b612f49565b6108b46104b1565b806108be8161069b565b0390f35b6104b7565b346108f7576108d73660046104bf565b6108f36108e2613103565b6108ea6104b1565b91829182610573565b0390f35b6104b7565b61090860d15f90610782565b90565b3461093b5761091b3660046104bf565b6109376109266108fc565b61092e6104b1565b918291826107ac565b0390f35b6104b7565b3461096e576109503660046104bf565b61095861329e565b6109606104b1565b8061096a8161069b565b0390f35b6104b7565b63ffffffff1690565b61098581610973565b0361098c57565b5f80fd5b9050359061099d8261097c565b565b906020828203126109b8576109b5915f01610990565b90565b6104bb565b346109eb576109d56109d036600461099f565b6133f8565b6109dd6104b1565b806109e78161069b565b0390f35b6104b7565b634e487b7160e01b5f525f60045260245ffd5b634e487b7160e01b5f52602260045260245ffd5b9060016002830492168015610a37575b6020831014610a3257565b610a03565b91607f1691610a27565b60209181520190565b5f5260205f2090565b905f9291805490610a6d610a6683610a17565b8094610a41565b916001811690815f14610ac45750600114610a88575b505050565b610a959192939450610a4a565b915f925b818410610aac57505001905f8080610a83565b60018160209295939554848601520191019290610a99565b92949550505060ff19168252151560200201905f8080610a83565b90610ae991610a53565b90565b601f801991011690565b634e487b7160e01b5f52604160045260245ffd5b90610b1490610aec565b810190811060018060401b03821117610b2c57604052565b610af6565b90610b51610b4a92610b416104b1565b93848092610adf565b0383610b0a565b565b905f10610b6657610b6390610b31565b90565b6109f0565b610b7760d75f90610b53565b90565b5190565b60209181520190565b90825f9392825e0152565b610bb1610bba602093610bbf93610ba881610b7a565b93848093610b7e565b95869101610b87565b610aec565b0190565b610bd89160208201915f818403910152610b92565b90565b34610c0b57610beb3660046104bf565b610c07610bf6610b6b565b610bfe6104b1565b91829182610bc3565b0390f35b6104b7565b610c1c609a5f90610782565b90565b34610c4f57610c2f3660046104bf565b610c4b610c3a610c10565b610c426104b1565b918291826107ac565b0390f35b6104b7565b90565b610c6090610c54565b9052565b916020610c85929493610c7e60408201965f830190610c57565b0190610c57565b565b34610cb857610c973660046104bf565b610c9f613493565b90610cb4610cab6104b1565b92839283610c64565b0390f35b6104b7565b34610cec57610cd6610cd0366004610667565b906136c3565b610cde6104b1565b80610ce88161069b565b0390f35b6104b7565b610cfd60995f90610782565b90565b34610d3057610d103660046104bf565b610d2c610d1b610cf1565b610d236104b1565b918291826107ac565b0390f35b6104b7565b610d41609c5f90610556565b90565b34610d7457610d543660046104bf565b610d70610d5f610d35565b610d676104b1565b91829182610573565b0390f35b6104b7565b5190565b60209181520190565b60200190565b610d95906106df565b9052565b90610da681602093610d8c565b0190565b60200190565b90610dcd610dc7610dc084610d79565b8093610d7d565b92610d86565b905f5b818110610ddd5750505090565b909192610df6610df06001928651610d99565b94610daa565b9101919091610dd0565b610e159160208201915f818403910152610db0565b90565b34610e4857610e283660046104bf565b610e44610e3361374b565b610e3b6104b1565b91829182610e00565b0390f35b6104b7565b610e56816107f6565b03610e5d57565b5f80fd5b90503590610e6e82610e4d565b565b90602082820312610e8957610e86915f01610e61565b90565b6104bb565b34610ebc57610ea6610ea1366004610e70565b613911565b610eae6104b1565b80610eb88161069b565b0390f35b6104b7565b34610eef57610ed9610ed436600461070e565b613b7e565b610ee16104b1565b80610eeb8161069b565b0390f35b6104b7565b34610f2257610f043660046104bf565b610f0c613de5565b610f146104b1565b80610f1e8161069b565b0390f35b6104b7565b63ffffffff1690565b610f40906008610f459302610537565b610f27565b90565b90610f539154610f30565b90565b610f6360db600a90610f48565b90565b610f6f90610973565b9052565b9190610f86905f60208501940190610f66565b565b34610fb857610f983660046104bf565b610fb4610fa3610f56565b610fab6104b1565b91829182610f73565b0390f35b6104b7565b610fc6816104ce565b03610fcd57565b5f80fd5b90503590610fde82610fbd565b565b90602082820312610ff957610ff6915f01610fd1565b90565b6104bb565b3461102c57611016611011366004610fe0565b613f34565b61101e6104b1565b806110288161069b565b0390f35b6104b7565b3461105f576110413660046104bf565b611049614012565b6110516104b1565b8061105b8161069b565b0390f35b6104b7565b919060408382031261108c5780611080611089925f8601610fd1565b93602001610fd1565b90565b6104bb565b346110c0576110aa6110a4366004611064565b90614055565b6110b26104b1565b806110bc8161069b565b0390f35b6104b7565b346110f6576110d53660046104bf565b6110dd6141e4565b906110f26110e96104b1565b928392836104de565b0390f35b6104b7565b346111295761110b3660046104bf565b611113614351565b61111b6104b1565b806111258161069b565b0390f35b6104b7565b90565b61114561114061114a926106d4565b61112e565b6106d4565b90565b61115690611131565b90565b6111629061114d565b90565b61116e90611159565b9052565b9190611185905f60208501940190611165565b565b346111b7576111973660046104bf565b6111b36111a2614378565b6111aa6104b1565b91829182611172565b0390f35b6104b7565b6111c860d65f90610556565b90565b346111fb576111db3660046104bf565b6111f76111e66111bc565b6111ee6104b1565b91829182610573565b0390f35b6104b7565b5f80fd5b906112176112106104b1565b9283610b0a565b565b60018060401b03811161123557611231602091610aec565b0190565b610af6565b90825f939282370152565b9092919261125a61125582611219565b611204565b93818552602085019082840111611276576112749261123a565b565b611200565b9080601f830112156112995781602061129693359101611245565b90565b61061e565b9190916040818403126112dc576112b7835f83016106ff565b92602082013560018060401b0381116112d7576112d4920161127b565b90565b61061a565b6104bb565b6112f56112ef36600461129e565b906144bc565b6112fd6104b1565b806113078161069b565b0390f35b919061131e905f60208501940190610c57565b565b34611350576113303660046104bf565b61134c61133b614617565b6113436104b1565b9182918261130b565b0390f35b6104b7565b34611385576113653660046104bf565b6113816113706146e1565b6113786104b1565b91829182610573565b0390f35b6104b7565b151590565b6113989061138a565b9052565b91906113af905f6020850194019061138f565b565b346113e1576113c13660046104bf565b6113dd6113cc6147d2565b6113d46104b1565b9182918261139c565b0390f35b6104b7565b6113f260d35f90610782565b90565b34611425576114053660046104bf565b6114216114106113e6565b6114186104b1565b918291826107ac565b0390f35b6104b7565b346114595761144361143d366004611064565b906148e5565b61144b6104b1565b806114558161069b565b0390f35b6104b7565b3461148e5761146e3660046104bf565b61148a6114796148f1565b6114816104b1565b91829182610573565b0390f35b6104b7565b60060b90565b6114a99060086114ae9302610537565b611493565b90565b906114bc9154611499565b90565b6114cc60db6003906114b1565b90565b346114ff576114df3660046104bf565b6114fb6114ea6114bf565b6114f26104b1565b91829182610809565b0390f35b6104b7565b34611532576115143660046104bf565b61151c61492b565b6115246104b1565b8061152e8161069b565b0390f35b6104b7565b34611568576115473660046104bf565b61154f614935565b9061156461155b6104b1565b928392836104de565b0390f35b6104b7565b5f80fd5b9081608091031261157f5790565b61156d565b610120818303126116125761159b825f83016106ff565b926115a983602084016106ff565b926115b78160408501610867565b92606081013560018060401b03811161160d57826115d691830161062a565b929093608083013560018060401b038111611608576115fa8361160592860161062a565b93909460a001611571565b90565b61061a565b61061a565b6104bb565b3461164f5761163961162a366004611584565b96959095949194939293614ee4565b6116416104b1565b8061164b8161069b565b0390f35b6104b7565b60020b90565b61166a90600861166f9302610537565b611654565b90565b9061167d915461165a565b90565b61168c60db5f90611672565b90565b346116bf5761169f3660046104bf565b6116bb6116aa611680565b6116b26104b1565b918291826105d0565b0390f35b6104b7565b6116d0609f5f90610556565b90565b34611703576116e33660046104bf565b6116ff6116ee6116c4565b6116f66104b1565b91829182610573565b0390f35b6104b7565b61171460d45f90610782565b90565b34611747576117273660046104bf565b611743611732611708565b61173a6104b1565b918291826107ac565b0390f35b6104b7565b3461177c5761175c3660046104bf565b611778611767614f02565b61176f6104b1565b91829182610573565b0390f35b6104b7565b346117b1576117913660046104bf565b6117ad61179c614f9f565b6117a46104b1565b918291826107ac565b0390f35b6104b7565b346117e6576117c63660046104bf565b6117e26117d1614fb5565b6117d96104b1565b918291826107ac565b0390f35b6104b7565b6117f760d55f90610556565b90565b3461182a5761180a3660046104bf565b6118266118156117eb565b61181d6104b1565b91829182610573565b0390f35b6104b7565b61183b60d85f90610b53565b90565b3461186e5761184e3660046104bf565b61186a61185961182f565b6118616104b1565b91829182610bc3565b0390f35b6104b7565b5f1c90565b61188461188991611873565b611654565b90565b6118969054611878565b90565b60181c90565b6118ab6118b091611899565b611654565b90565b6118bd905461189f565b90565b60da906118d95f6118d281850161188c565b93016118b3565b90565b9160206118fd9294936118f660408201965f8301906105c3565b01906105c3565b565b346119305761190f3660046104bf565b6119176118c0565b9061192c6119236104b1565b928392836118dc565b0390f35b6104b7565b34611965576119453660046104bf565b611961611950615132565b6119586104b1565b9182918261139c565b0390f35b6104b7565b3461199a5761197a3660046104bf565b611996611985615215565b61198d6104b1565b91829182610573565b0390f35b6104b7565b346119cf576119af3660046104bf565b6119cb6119ba61551e565b6119c26104b1565b91829182610573565b0390f35b6104b7565b34611a04576119e43660046104bf565b611a006119ef61556b565b6119f76104b1565b918291826107ac565b0390f35b6104b7565b611a12906104ce565b9052565b5190565b60209181520190565b611a42611a4b602093611a5093611a3981611a16565b93848093611a1a565b95869101610b87565b610aec565b0190565b611a5d9061138a565b9052565b90611ad39060a080611ac860c08401611a805f8801515f870190611a09565b611a9260208801516020870190611a09565b611aa460408801516040870190611a09565b611ab660608801516060870190611a09565b60808701518582036080870152611a23565b940151910190611a54565b90565b90611b1290604080611af5606084015f8701518582035f870152611a61565b94611b0860208201516020860190611a09565b0151910190611a09565b90565b611b2a9160208201915f818403910152611ad6565b90565b34611b5d57611b3d3660046104bf565b611b59611b486156dd565b611b506104b1565b91829182611b15565b0390f35b6104b7565b34611b9057611b723660046104bf565b611b7a615a3b565b611b826104b1565b80611b8c8161069b565b0390f35b6104b7565b611b9e906106d4565b9052565b9190611bb5905f60208501940190611b95565b565b34611be757611bc73660046104bf565b611be3611bd2615a49565b611bda6104b1565b91829182611ba2565b0390f35b6104b7565b60d990611c055f611bfe81850161188c565b93016118b3565b90565b34611c3957611c183660046104bf565b611c20611bec565b90611c35611c2c6104b1565b928392836118dc565b0390f35b6104b7565b60018060a01b031690565b611c59906008611c5e9302610537565b611c3e565b90565b90611c6c9154611c49565b90565b611c7b609b5f90611c61565b90565b611c879061114d565b90565b611c9390611c7e565b9052565b9190611caa905f60208501940190611c8a565b565b34611cdc57611cbc3660046104bf565b611cd8611cc7611c6f565b611ccf6104b1565b91829182611c97565b0390f35b6104b7565b611ced60d25f90610782565b90565b34611d2057611d003660046104bf565b611d1c611d0b611ce1565b611d136104b1565b918291826107ac565b0390f35b6104b7565b34611d5557611d353660046104bf565b611d51611d40615ae4565b611d486104b1565b91829182610e00565b0390f35b6104b7565b34611d8857611d72611d6d36600461070e565b615b37565b611d7a6104b1565b80611d848161069b565b0390f35b6104b7565b34611dbb57611d9d3660046104bf565b611da5615cae565b611dad6104b1565b80611db78161069b565b0390f35b6104b7565b34611dee57611dd03660046104bf565b611dd8615df7565b611de06104b1565b80611dea8161069b565b0390f35b6104b7565b91606083830312611e3d57611e0a825f8501610fd1565b92611e188360208301610fd1565b92604082013560018060401b038111611e3857611e35920161127b565b90565b61061a565b6104bb565b34611e7157611e5b611e55366004611df3565b91615e67565b611e636104b1565b80611e6d8161069b565b0390f35b6104b7565b34611ea457611e8e611e8936600461070e565b615ff0565b611e966104b1565b80611ea08161069b565b0390f35b6104b7565b611ede611ee594611ed4606094989795611eca608086019a5f8701906104d1565b60208501906104d1565b60408301906104d1565b01906104d1565b565b34611f1b57611ef73660046104bf565b611f17611f02615ffb565b90611f0e9492946104b1565b94859485611ea9565b0390f35b6104b7565b34611f5057611f303660046104bf565b611f4c611f3b61602d565b611f436104b1565b91829182610573565b0390f35b6104b7565b34611f8657611f653660046104bf565b611f6d616042565b90611f82611f796104b1565b928392836104de565b0390f35b6104b7565b611f97609e5f90610556565b90565b34611fca57611faa3660046104bf565b611fc6611fb5611f8b565b611fbd6104b1565b91829182610573565b0390f35b6104b7565b34611ffd57611fe7611fe236600461070e565b6161dd565b611fef6104b1565b80611ff98161069b565b0390f35b6104b7565b61200e60985f90610782565b90565b34612041576120213660046104bf565b61203d61202c612002565b6120346104b1565b918291826107ac565b0390f35b6104b7565b919461208e6120989298979561208460a09661207a61209f9a61207060c08a019e5f8b01906104d1565b60208901906104d1565b60408701906104d1565b60608501906104d1565b60808301906104d1565b01906104d1565b565b346120d8576120b13660046104bf565b6120d46120bc616288565b926120cb9694969291926104b1565b96879687612046565b0390f35b6104b7565b5f80fd5b5f90565b6120f16120f691611873565b61075f565b90565b61210390546120e5565b90565b61210f90611131565b90565b61211b90612106565b90565b6121279061114d565b90565b6121339061114d565b90565b5f80fd5b60e01b90565b9050519061214d82610fbd565b565b9060208282031261216857612165915f01612140565b90565b6104bb565b6121756104b1565b3d5f823e3d90fd5b6121856120e1565b5061218e6120e1565b506121e060206121ae6121a96121a460d36120f9565b612112565b61211e565b6370a08231906121d56121c03061212a565b926121c96104b1565b9586948593849361213a565b8352600483016107ac565b03915afa9081156122bc575f9161228e575b5090612245602061221361220e61220960d46120f9565b612112565b61211e565b6370a082319061223a6122253061212a565b9261222e6104b1565b9586948593849361213a565b8352600483016107ac565b03915afa908115612289575f9161225b575b5090565b61227c915060203d8111612282575b6122748183610b0a565b81019061214f565b5f612257565b503d61226a565b61216d565b6122af915060203d81116122b5575b6122a78183610b0a565b81019061214f565b5f6121f2565b503d61229d565b61216d565b5f90565b6122ce90611131565b90565b6122da906122c5565b90565b6122e69061114d565b90565b6122f2816106d4565b036122f957565b5f80fd5b9050519061230a826122e9565b565b9050519061231982610853565b565b61ffff1690565b61232b8161231b565b0361233257565b5f80fd5b9050519061234382612322565b565b905051906123528261097c565b565b61235d8161138a565b0361236457565b5f80fd5b9050519061237582612354565b565b60e0818303126123e25761238d825f83016122fd565b9261239b836020840161230c565b926123a98160408501612336565b926123b78260608301612336565b926123df6123c88460808501612336565b936123d68160a08601612345565b9360c001612368565b90565b6104bb565b6123ef6122c1565b5061242560e061240f61240a61240560d16120f9565b6122d1565b6122dd565b633850c7bd9061241d6104b1565b93849261213a565b825281806124356004820161069b565b03915afa908115612481575f8092905061244e575b5090565b61246f915060e03d811161247a575b6124678183610b0a565b810190612377565b50505050509061244a565b503d61245d565b61216d565b906124989161249361659a565b6127a0565b565b5090565b90565b6124b56124b06124ba9261249e565b61112e565b6104ce565b90565b6124c8913691611245565b90565b634e487b7160e01b5f52603260045260245ffd5b906124e982610d79565b8110156124fa576020809102010190565b6124cb565b61250990516106df565b90565b90565b61252361251e6125289261250c565b61112e565b6104ce565b90565b634e487b7160e01b5f52601160045260245ffd5b61254e612554919392936104ce565b926104ce565b820391821161255f57565b61252b565b601f602091010490565b1b90565b9190600861258d9102916125875f198461256e565b9261256e565b9181191691161790565b6125ab6125a66125b0926104ce565b61112e565b6104ce565b90565b90565b91906125cc6125c76125d493612597565b6125b3565b908354612572565b9055565b6125ea916125e46120e1565b916125b6565b565b5b8181106125f8575050565b806126055f6001936125d8565b016125ed565b9190601f811161261b575b505050565b61262761264c93610a4a565b90602061263384612564565b83019310612654575b61264590612564565b01906125ec565b5f8080612616565b91506126458192905061263c565b90612672905f1990600802610537565b191690565b8161268191612662565b906002021790565b91612694908261249a565b9060018060401b038211612751576126b6826126b08554610a17565b8561260b565b5f90601f83116001146126e9579180916126d8935f926126dd575b5050612677565b90555b565b90915001355f806126d1565b601f198316916126f885610a4a565b925f5b8181106127395750916002939185600196941061271f575b505050020190556126db565b61272f910135601f841690612662565b90555f8080612713565b919360206001819287870135815501950192016126fb565b610af6565b906127619291612689565b565b919061277d816127768161278295610b7e565b809561123a565b610aec565b0190565b909161279d9260208301925f818503910152612763565b90565b6127ab81839061249a565b6127bd6127b75f6124a1565b916104ce565b116127c7575b5050565b6127da6127d58284906124bd565b6165e3565b6127f56127f0826127ea5f6124a1565b906124df565b6124ff565b61281061280a61280560d46120f9565b6106df565b916106df565b036128ce5761283f816128396128296128449492610d79565b612833600161250f565b9061253f565b906124df565b6124ff565b61285f61285961285460976120f9565b6106df565b916106df565b036128b25761287181839060d8612756565b907f1b9728f4ac995937074d8e70e21a1660544fb7c16be984e1c289f262f2be9c74916128a861289f6104b1565b92839283612786565b0390a15f806127c3565b5f6398f7360960e01b8152806128ca6004820161069b565b0390fd5b5f63b4fa3fb360e01b8152806128e66004820161069b565b0390fd5b906128f491612486565b565b6128ff9061678b565b565b5f90565b90565b61291c61291761292192612905565b61112e565b6104ce565b90565b60018060401b03811161293a5760208091020190565b610af6565b9061295161294c83612924565b611204565b918252565b369037565b906129806129688361293f565b926020806129768693612924565b9201910390612956565b565b60501c90565b61299461299991612982565b610f27565b90565b6129a69054612988565b90565b5190565b906129b7826129a9565b8110156129c8576020809102010190565b6124cb565b906129d790610973565b9052565b6129ef6129ea6129f49261249e565b61112e565b610973565b90565b60018060401b038111612a0d5760208091020190565b610af6565b90505190612a1f82610e4d565b565b90929192612a36612a31826129f7565b611204565b9381855260208086019202830192818411612a7357915b838310612a5a5750505050565b60208091612a688486612a12565b815201920191612a4d565b610626565b9080601f83011215612a9657816020612a9393519101612a21565b90565b61061e565b60018060401b038111612ab15760208091020190565b610af6565b90929192612acb612ac682612a9b565b611204565b9381855260208086019202830192818411612b0857915b838310612aef5750505050565b60208091612afd84866122fd565b815201920191612ae2565b610626565b9080601f83011215612b2b57816020612b2893519101612ab6565b90565b61061e565b919091604081840312612b84575f81015160018060401b038111612b7f5783612b5a918301612a78565b92602082015160018060401b038111612b7a57612b779201612b0d565b90565b61061a565b61061a565b6104bb565b60209181520190565b60200190565b612ba190610973565b9052565b90612bb281602093612b98565b0190565b60200190565b90612bd9612bd3612bcc846129a9565b8093612b89565b92612b92565b905f5b818110612be95750505090565b909192612c02612bfc6001928651612ba5565b94612bb6565b9101919091612bdc565b612c219160208201915f818403910152612bbc565b90565b5190565b90612c3282612c24565b811015612c43576020809102010190565b6124cb565b612c5290516107f6565b90565b612c61612c67916107f6565b916107f6565b900390667fffffffffffff8213667fffffffffffff19831217612c8657565b61252b565b60030b90565b612ca5612ca0612caa92610973565b61112e565b612c8b565b90565b612cc1612cbc612cc692612c8b565b61112e565b6107f6565b90565b634e487b7160e01b5f52601260045260245ffd5b612ce9612cef916107f6565b916107f6565b908115612d155760015f038214667fffffffffffff19821416612d10570590565b61252b565b612cc9565b612d22612901565b50612dc45f612d39612d346002612908565b61295b565b612d5e612d4660db61299c565b612d5983612d53866124a1565b906129ad565b6129cd565b612d83612d6a836129db565b612d7e83612d78600161250f565b906129ad565b6129cd565b612d9d612d98612d9360d16120f9565b6122d1565b6122dd565b612db963883bdbfd612dad6104b1565b9586948593849361213a565b835260048301612c0c565b03915afa908115612e6057612e3c91612e1c915f91612e3f575b50612e16612e11612e01612dfc84612df6600161250f565b90612c28565b612c48565b92612e0b5f6124a1565b90612c28565b612c48565b90612c55565b612e36612e31612e2c60db61299c565b612c91565b612cad565b90612cdd565b90565b612e5b91503d805f833e612e538183610b0a565b810190612b30565b612dde565b61216d565b612e7690612e7161659a565b612ed4565b565b5f1b90565b90612e8b62ffffff91612e78565b9181191691161790565b612ea9612ea4612eae926105bd565b61112e565b6105bd565b90565b90565b90612ec9612ec4612ed092612e95565b612eb1565b8254612e7d565b9055565b612f3790612ee260db61188c565b817f69d927977053f4ff4a26e8d792564e367e844a869cda4df12630bf7b62a632de91612f19612f106104b1565b928392836118dc565b0390a1612f246168a5565b50505050612f30616dfa565b60db612eb4565b612f3f61727d565b612f4761763b565b565b612f5290612e65565b565b60ff1690565b612f6381612f54565b03612f6a57565b5f80fd5b90505190612f7b82612f5a565b565b90602082820312612f9657612f93915f01612f6e565b90565b6104bb565b90565b612fb2612fad612fb792612f9b565b61112e565b6104ce565b90565b612fc390612f54565b604d8111612fd157600a0a90565b61252b565b612fe2612fe8916104ce565b916104ce565b908115612ff3570490565b612cc9565b61300761300d919392936104ce565b926104ce565b916130198382026104ce565b92818404149015171561302857565b61252b565b61303690611131565b90565b6130429061302d565b90565b61304e9061114d565b90565b905f929180549061306b61306483610a17565b8094610b7e565b916001811690815f146130c25750600114613086575b505050565b6130939192939450610a4a565b915f925b8184106130aa57505001905f8080613081565b60018160209295939554848601520191019290613097565b92949550505060ff19168252151560200201905f8080613081565b929160206130f96131019360408701908782035f890152613051565b9401906104d1565b565b61310b6120e1565b50613141602061312b61312661312160d46120f9565b612112565b61211e565b63313ce567906131396104b1565b93849261213a565b825281806131516004820161069b565b03915afa9081156132995761318191613171915f9161326b575b50612fba565b61317b600a612f9e565b90612fd6565b61318b60d46120f9565b6131a66131a061319b60976120f9565b6106df565b916106df565b146132545760206131c76131c26131bd60d26120f9565b613039565b613045565b9163cdca1753926131ed5f60d893956131f86131e16104b1565b9788968795869461213a565b8452600484016130dd565b03925af1801561324f5761321e915f91613221575b50613218600a612f9e565b90612ff8565b90565b613242915060203d8111613248575b61323a8183610b0a565b81019061214f565b5f61320d565b503d613230565b61216d565b61326890613262600a612f9e565b90612ff8565b90565b61328c915060203d8111613292575b6132848183610b0a565b810190612f7d565b5f61316b565b503d61327a565b61216d565b6132a6617645565b6132ae6168a5565b505050506132ba616dfa565b565b6132cd906132c861659a565b613372565b565b9160206132f09294936132e960408201965f830190610f66565b0190610f66565b565b90565b61330961330461330e926132f2565b61112e565b610973565b90565b60501b90565b9061332963ffffffff60501b91613311565b9181191691161790565b61334761334261334c92610973565b61112e565b610973565b90565b90565b9061336761336261336e92613333565b61334f565b8254613317565b9055565b61337c60db61299c565b817f86139943149914833c057d2c24f3a3967cce8e6aba2eb12e422500d8a51ffc7b916133b36133aa6104b1565b928392836132cf565b0390a1806133ca6133c4603c6132f5565b91610973565b106133dc576133da9060db613352565b565b5f63b4fa3fb360e01b8152806133f46004820161069b565b0390fd5b613401906132bc565b565b5f90565b60601b90565b61341690613407565b90565b6134229061340d565b90565b613431613436916106df565b613419565b9052565b60e81b90565b6134499061343a565b90565b61345861345d916105bd565b613440565b9052565b60039392613481601483613479889561348997613425565b01809261344c565b01809261344c565b0190565b60200190565b61349b613403565b506134a4613403565b506134ae3061212a565b6134f06134bd5f60d90161188c565b916134e16134cd5f60d9016118b3565b6134d56104b1565b94859360208501613461565b60208201810382520382610b0a565b6135026134fc82610b7a565b9161348d565b209061350d3061212a565b61354f61351c5f60da0161188c565b9161354061352c5f60da016118b3565b6135346104b1565b94859360208501613461565b60208201810382520382610b0a565b61356161355b82610b7a565b9161348d565b2090565b906135779161357261659a565b613579565b565b61358481839061249a565b6135966135905f6124a1565b916104ce565b116135a0575b5050565b6135b36135ae8284906124bd565b6165e3565b6135ce6135c9826135c35f6124a1565b906124df565b6124ff565b6135e96135e36135de60d36120f9565b6106df565b916106df565b036136a7576136188161361261360261361d9492610d79565b61360c600161250f565b9061253f565b906124df565b6124ff565b61363861363261362d60976120f9565b6106df565b916106df565b0361368b5761364a81839060d7612756565b907f203244158601764729526c0736d6b833b1f3da905ae0a631a059bbb9040541f0916136816136786104b1565b92839283612786565b0390a15f8061359c565b5f6398f7360960e01b8152806136a36004820161069b565b0390fd5b5f63b4fa3fb360e01b8152806136bf6004820161069b565b0390fd5b906136cd91613565565b565b606090565b6136de9054610a17565b90565b60018060401b0381116136f75760208091020190565b610af6565b9061370e613709836136e1565b611204565b918252565b369037565b9061373d613725836136fc565b9260208061373386936136e1565b9201910390613713565b565b61374890610b31565b90565b6137536136cf565b5061375e60d76136d4565b61377061376a5f6124a1565b916104ce565b1461378a5761378761378260d761373f565b6165e3565b90565b61379b6137965f6124a1565b613718565b90565b6137af906137aa61659a565b61387b565b565b90565b6137c86137c36137cd926137b1565b61112e565b6105bd565b90565b6137dc6137e2916105bd565b916105bd565b02906137ed826105bd565b9182036137f657565b61252b565b61380f61380a613814926105bd565b61112e565b6107f6565b90565b60181b90565b9061383269ffffffffffffff00000091613817565b9181191691161790565b61385061384b613855926107f6565b61112e565b6107f6565b90565b90565b9061387061386b6138779261383c565b613858565b825461381d565b9055565b806138b27f69d3f73bfb3c2f0de63dc1de2ed486cf45d88ebfff8cb1e8f124b085d2bafb97916138a96104b1565b91829182610809565b0390a1806138e26138dc6138d76138c76176a2565b6138d160046137b4565b906137d0565b6137fb565b916107f6565b12156138f5576138f39060db61385b565b565b5f63b4fa3fb360e01b81528061390d6004820161069b565b0390fd5b61391a9061379e565b565b6139259061114d565b90565b60209181520190565b60207f64656c656761746563616c6c0000000000000000000000000000000000000000917f46756e6374696f6e206d7573742062652063616c6c6564207468726f756768205f8201520152565b61398b602c604092613928565b61399481613931565b0190565b6139ad9060208101905f81830391015261397e565b90565b156139b757565b6139bf6104b1565b62461bcd60e51b8152806139d560048201613998565b0390fd5b60207f6163746976652070726f78790000000000000000000000000000000000000000917f46756e6374696f6e206d7573742062652063616c6c6564207468726f756768205f8201520152565b613a33602c604092613928565b613a3c816139d9565b0190565b613a559060208101905f818303910152613a26565b90565b15613a5f57565b613a676104b1565b62461bcd60e51b815280613a7d60048201613a40565b0390fd5b613b1290613aca613a913061391c565b613ac3613abd7f00000000000000000000000000000000000000000000000000000000000000006106df565b916106df565b14156139b0565b613b0d613ad5617739565b613b07613b017f00000000000000000000000000000000000000000000000000000000000000006106df565b916106df565b14613a58565b613b57565b565b90613b26613b2183611219565b611204565b918252565b369037565b90613b55613b3d83613b14565b92602080613b4b8693611219565b9201910390613b2b565b565b613b7c90613b64816177e1565b613b75613b705f6124a1565b613b30565b5f91617a69565b565b613b8790613a81565b565b613b9161659a565b613b99613d10565b565b613ba7613bac91611873565b611c3e565b90565b613bb99054613b9b565b90565b613bc590611131565b90565b613bd190613bbc565b90565b613bdd9061114d565b90565b90505190613bed826106eb565b565b90602082820312613c0857613c05915f01613be0565b90565b6104bb565b5f7f5374726174656779506173736976654d616e61676572556e6973776170000000910152565b613c41601d602092613928565b613c4a81613c0d565b0190565b613c639060208101905f818303910152613c34565b90565b613c7a613c75613c7f9261249e565b61112e565b6106d4565b90565b613c8b90613c66565b90565b5f7f4e6f20696d706c656d656e746174696f6e207369676e616c6564000000000000910152565b613cc2601a602092613928565b613ccb81613c8e565b0190565b613ce49060208101905f818303910152613cb5565b90565b15613cee57565b613cf66104b1565b62461bcd60e51b815280613d0c60048201613ccf565b0390fd5b613d4d6020613d37613d32613d2d613d28609b613baf565b611c7e565b613bc8565b613bd4565b631f1097e590613d456104b1565b93849261213a565b82528180613d5d60048201613c4e565b03915afa8015613de057613db0915f91613db2575b50613d9881613d91613d8b613d865f613c82565b6106df565b916106df565b1415613ce7565b613da9613da45f6124a1565b613b30565b5f91617b80565b565b613dd3915060203d8111613dd9575b613dcb8183610b0a565b810190613bef565b5f613d72565b503d613dc1565b61216d565b613ded613b89565b565b33613e09613e03613dfe614f9f565b6106df565b916106df565b141580613e3c575b613e2057613e1e90613e6d565b565b5f63607e454560e11b815280613e386004820161069b565b0390fd5b5033613e57613e51613e4c61556b565b6106df565b916106df565b1415613e11565b5f910312613e6857565b6104bb565b613e7d613e78614378565b611159565b633e55f93282823b15613f2f57613eb392613ea85f8094613e9c6104b1565b9687958694859361213a565b835260048301610573565b03925af18015613f2a57613efe575b50613ef97f9163810ee1e29168d4ce900e48a333fb8fbd3fd070d2bef67f6d4db0846a469f91613ef06104b1565b91829182610573565b0390a1565b613f1d905f3d8111613f23575b613f158183610b0a565b810190613e5e565b5f613ec2565b503d613f0b565b61216d565b612136565b613f3d90613def565b565b33613f59613f53613f4e614f9f565b6106df565b916106df565b141580613f8b575b613f6f57613f6d613fad565b565b5f63607e454560e11b815280613f876004820161069b565b0390fd5b5033613fa6613fa0613f9b61556b565b6106df565b916106df565b1415613f61565b613fb5614f9f565b613fcf613fc9613fc45f613c82565b6106df565b916106df565b14613ff657613fdc617bd1565b613fe4617cb1565b613fec61727d565b613ff461763b565b565b5f63ea8e4eb560e01b81528061400e6004820161069b565b0390fd5b61401a613f3f565b565b61402861402d91611873565b61053b565b90565b61403a905461401c565b90565b61404690611131565b90565b6140529061403d565b90565b61405d617645565b4261407961407361406e60dc614030565b6104ce565b916104ce565b14614185575b8061409261408c5f6124a1565b916104ce565b1161414f575b50806140ac6140a65f6124a1565b916104ce565b11614119575b506140c46140be617d90565b1561138a565b61410c575b6140d1614935565b7f631c4f79c14099a717f4be2f25e6cef89e310b3944ef0e44ea2c0811ebb982a8916141076140fe6104b1565b928392836104de565b0390a1565b61411461763b565b6140c9565b6141499061413761413261412d60d46120f9565b612112565b614049565b9061414260986120f9565b9091617d45565b5f6140b2565b61417f9061416d61416861416360d36120f9565b612112565b614049565b9061417860986120f9565b9091617d45565b5f614098565b61418d617cbb565b61407f565b6141a16141a7919392936104ce565b926104ce565b82018092116141b257565b61252b565b90565b6141ce6141c96141d3926141b7565b61112e565b6104ce565b90565b6141e1610e106141ba565b90565b61421f906141f06120e1565b506141f96120e1565b5061420261217d565b929061421961420f616288565b5050505092614192565b93614192565b916142344261422e609e614030565b9061253f565b8061424e6142486142436141d6565b6104ce565b916104ce565b105f1461434257614266906142616141d6565b61253f565b5b908061428461427e614279609c614030565b6104ce565b916104ce565b115f1461432057506142b16142a361429c609c614030565b8390612ff8565b6142ab6141d6565b90612fd6565b925b806142cf6142c96142c4609d614030565b6104ce565b916104ce565b115f146142ff57506142ed6142fb916142e8609d614030565b612ff8565b6142f56141d6565b90612fd6565b905b565b61431a9161430c91612ff8565b6143146141d6565b90612fd6565b906142fd565b61432e61433c918390612ff8565b6143366141d6565b90612fd6565b926142b3565b5061434c5f6124a1565b614267565b61435a3261678b565b565b5f90565b61436990611131565b90565b61437590614360565b90565b61438061435c565b506143ae6020614398614393609b613baf565b611c7e565b634746fb55906143a66104b1565b93849261213a565b825281806143be6004820161069b565b03915afa801561440a576143d9915f916143dc575b5061436c565b90565b6143fd915060203d8111614403575b6143f58183610b0a565b810190613bef565b5f6143d3565b503d6143eb565b61216d565b906144a1916144596144203061391c565b61445261444c7f00000000000000000000000000000000000000000000000000000000000000006106df565b916106df565b14156139b0565b61449c614464617739565b6144966144907f00000000000000000000000000000000000000000000000000000000000000006106df565b916106df565b14613a58565b6144a3565b565b906144ba916144b1816177e1565b90600191617a69565b565b906144c69161440f565b565b60207f6c6564207468726f7567682064656c656761746563616c6c0000000000000000917f555550535570677261646561626c653a206d757374206e6f742062652063616c5f8201520152565b6145226038604092613928565b61452b816144c8565b0190565b6145449060208101905f818303910152614515565b90565b1561454e57565b6145566104b1565b62461bcd60e51b81528061456c6004820161452f565b0390fd5b6145bd906145b86145803061391c565b6145b26145ac7f00000000000000000000000000000000000000000000000000000000000000006106df565b916106df565b14614547565b61460b565b90565b90565b6145d76145d26145dc926145c0565b612e78565b610c54565b90565b6146087f360894a13ba1a3210667c828492db98dca3e2076cc3735a920a3ca505d382bbc6145c3565b90565b506146146145df565b90565b614627614622613403565b614570565b90565b62ffffff1690565b61463b8161462a565b0361464257565b5f80fd5b9050519061465382614632565b565b9060208282031261466e5761466b915f01614646565b90565b6104bb565b61468761468261468c9261462a565b61112e565b6104ce565b90565b90565b6146a66146a16146ab9261468f565b61112e565b6104ce565b90565b6146bf670de0b6b3a7640000614692565b90565b90565b6146d96146d46146de926146c2565b61112e565b6104ce565b90565b6146e96120e1565b5061471f60206147096147046146ff60d16120f9565b6122d1565b6122dd565b63ddca3f43906147176104b1565b93849261213a565b8252818061472f6004820161069b565b03915afa80156147a25761475161475f91614771935f91614774575b50614673565b6147596146ae565b90612ff8565b61476b620f42406146c5565b90612fd6565b90565b614795915060203d811161479b575b61478d8183610b0a565b810190614655565b5f61474b565b503d614783565b61216d565b5f90565b60ff1690565b6147bd6147c291611873565b6147ab565b90565b6147cf90546147b1565b90565b6147da6147a7565b506147e560656147c5565b90565b90336148036147fd6147f8614f9f565b6106df565b916106df565b141580614836575b61481a5761481891614858565b565b5f63607e454560e11b8152806148326004820161069b565b0390fd5b503361485161484b61484661556b565b6106df565b916106df565b141561480b565b90614894916148656168a5565b50505050614871616dfa565b614879617e34565b614881617f03565b61489a61488c614935565b9490926104ce565b916104ce565b109182156148c7575b50506148ab57565b5f63fa6ad35560e01b8152806148c36004820161069b565b0390fd5b6148dd9192506148d790926104ce565b916104ce565b105f806148a3565b906148ef916147e8565b565b6148f96120e1565b506149035f6124a1565b90565b61490e61659a565b614916614918565b565b6149296149245f613c82565b617f0d565b565b614933614906565b565b614990906149416120e1565b5061494a6120e1565b506149e861495661217d565b939061498b614985614966616288565b5050505091906149806149776141e4565b92909296614192565b61253f565b96614192565b61253f565b9261499b60d5614030565b6149a560d6614030565b90806149b96149b3856104ce565b916104ce565b116149f8575b816149d26149cc886104ce565b916104ce565b116149eb575b6149e2919261253f565b9361253f565b90565b6149e291508591506149d8565b50816149bf565b60081c90565b614a11614a16916149ff565b6147ab565b90565b614a239054614a05565b90565b60ff1690565b614a38614a3d91611873565b614a26565b90565b614a4a9054614a2c565b90565b614a61614a5c614a669261250c565b61112e565b612f54565b90565b614a729061114d565b90565b60207f647920696e697469616c697a6564000000000000000000000000000000000000917f496e697469616c697a61626c653a20636f6e747261637420697320616c7265615f8201520152565b614acf602e604092613928565b614ad881614a75565b0190565b614af19060208101905f818303910152614ac2565b90565b15614afb57565b614b036104b1565b62461bcd60e51b815280614b1960048201614adc565b0390fd5b90614b2960ff91612e78565b9181191691161790565b614b47614b42614b4c92612f54565b61112e565b612f54565b90565b90565b90614b67614b62614b6e92614b33565b614b4f565b8254614b1d565b9055565b60081b90565b90614b8561ff0091614b72565b9181191691161790565b614b989061138a565b90565b90565b90614bb3614bae614bba92614b8f565b614b9b565b8254614b78565b9055565b614bc790614a4d565b9052565b9190614bde905f60208501940190614bbe565b565b9694929091614c33969492614bfd614bf75f614a19565b1561138a565b988980614ce2575b8015614c94575b614c1590614af4565b614c28614c226001614a4d565b5f614b52565b89614c84575b614d6e565b614c3a575b565b614c445f5f614b9e565b6001614c7c7f7f26b83ff96e1f2b6a682f133852f6798a09c465da95921460cefb384740249891614c736104b1565b91829182614bcb565b0390a1614c38565b614c8f60015f614b9e565b614c2e565b50614caf614ca9614ca430614a69565b617f6e565b1561138a565b80614cba575b614c0c565b50614c15614cc75f614a40565b614cda614cd46001614a4d565b91612f54565b149050614cb5565b50614cec5f614a40565b614cff614cf96001614a4d565b91612f54565b10614c05565b90614d1660018060a01b0391612e78565b9181191691161790565b614d299061114d565b90565b90565b90614d44614d3f614d4b92614d20565b614d2c565b8254614d05565b9055565b90565b614d66614d61614d6b92614d4f565b61112e565b610973565b90565b90614d9490614d82614dbd969594996181a4565b614d8d8360d1614d2f565b60d2614d2f565b6020614da7614da2836122d1565b6122dd565b630dfe168190614db56104b1565b96879261213a565b82528180614dcd6004820161069b565b03915afa938415614edf57614dfd602092614df8614e1897614e02945f91614eb2575b5060d3614d2f565b6122d1565b6122dd565b63d21220a790614e106104b1565b95869261213a565b82528180614e286004820161069b565b03915afa8015614ead57614e6196614e50614e5792614e5c965f91614e7f575b5060d4614d2f565b60db612eb4565b6136c3565b6128ea565b614e75614e6e6078614d52565b60db613352565b614e7d617bd1565b565b614ea0915060203d8111614ea6575b614e988183610b0a565b810190613bef565b5f614e48565b503d614e8e565b61216d565b614ed29150863d8111614ed8575b614eca8183610b0a565b810190613bef565b5f614df0565b503d614ec0565b61216d565b90614ef497969594939291614be0565b565b614eff9061114d565b90565b614f0a6120e1565b50614f526020614f20614f1b614378565b611159565b63cf10462290614f47614f3230614ef6565b92614f3b6104b1565b9586948593849361213a565b8352600483016107ac565b03915afa908115614f96575f91614f68575b5090565b614f89915060203d8111614f8f575b614f818183610b0a565b81019061214f565b5f614f64565b503d614f77565b61216d565b5f90565b614fa7614f9b565b50614fb260336120f9565b90565b614fbd614f9b565b50614feb6020614fd5614fd0609b613baf565b611c7e565b638e14545990614fe36104b1565b93849261213a565b82528180614ffb6004820161069b565b03915afa90811561503f575f91615011575b5090565b615032915060203d8111615038575b61502a8183610b0a565b810190613bef565b5f61500d565b503d615020565b61216d565b61505061505591611899565b611493565b90565b6150629054615044565b90565b90565b61507c61507761508192615065565b61112e565b6107f6565b90565b615091620d89e719615068565b90565b90565b6150ab6150a66150b0926107f6565b61112e565b615094565b90565b6150c76150c26150cc92615094565b61112e565b6107f6565b90565b6150db6150e1916107f6565b916107f6565b0190667fffffffffffff198212667fffffffffffff8313176150ff57565b61252b565b90565b61511b61511661512092615104565b61112e565b6107f6565b90565b61512f620d89e8615107565b90565b61513a6147a7565b506151436123e7565b61514b612d1a565b906151ca6151c56151a561519461518f61516f8761516960db615058565b90612c55565b61518961518361517d615084565b92615097565b91615097565b906181b3565b6150b3565b9461519f60db615058565b906150cf565b6151bf6151b96151b3615123565b92615097565b91615097565b906181e3565b6150b3565b916151dd6151d7836137fb565b916107f6565b139182156151f7575b50505f146151f2575f90565b600190565b61520d91925061520790926137fb565b916107f6565b125f806151e6565b61521d6120e1565b50615253602061523d61523861523360d36120f9565b612112565b61211e565b63313ce5679061524b6104b1565b93849261213a565b825281806152636004820161069b565b03915afa9081156153ab5761529391615283915f9161537d575b50612fba565b61528d600a612f9e565b90612fd6565b61529d60d36120f9565b6152b86152b26152ad60976120f9565b6106df565b916106df565b146153665760206152d96152d46152cf60d26120f9565b613039565b613045565b9163cdca1753926152ff5f60d7939561530a6152f36104b1565b9788968795869461213a565b8452600484016130dd565b03925af1801561536157615330915f91615333575b5061532a600a612f9e565b90612ff8565b90565b615354915060203d811161535a575b61534c8183610b0a565b81019061214f565b5f61531f565b503d615342565b61216d565b61537a90615374600a612f9e565b90612ff8565b90565b61539e915060203d81116153a4575b6153968183610b0a565b810190612f7d565b5f61527d565b503d61538c565b61216d565b6153c46153bf6153c9926106d4565b61112e565b6104ce565b90565b90565b6153e36153de6153e8926153cc565b61112e565b6104ce565b90565b6153ff6153fa61540492612905565b61112e565b612f54565b90565b60011c90565b939190925b6001821161541e575050565b90919280820481116154575760018316615448575b8061543f910292615407565b90929192615412565b938461543f9102949050615433565b61252b565b92919281156154f45780156154ec5780806001146154e2576002146154c35760208210610133821016604e8310600b831016176154b457926154a291819394600161540d565b80920481116154af570290565b61252b565b0a9182116154be57565b61252b565b5060ff81116154dd5760020a9182116154d857565b61252b565b61252b565b5050509050600190565b505090505f90565b50509050600190565b9061551361550d61551b936104ce565b91612f54565b5f199161545c565b90565b6155266120e1565b5061556861555861553d615538615a49565b6153b0565b6155456146ae565b615552600160601b6153cf565b91618267565b61556260026153eb565b906154fd565b90565b615573614f9b565b506155a1602061558b615586609b613baf565b611c7e565b63aced1661906155996104b1565b93849261213a565b825281806155b16004820161069b565b03915afa9081156155f5575f916155c7575b5090565b6155e8915060203d81116155ee575b6155e08183610b0a565b810190613bef565b5f6155c3565b503d6155d6565b61216d565b6156046060611204565b90565b61561160c0611204565b90565b5f90565b606090565b5f90565b615629615607565b90602080808080808761563a615614565b815201615645615614565b815201615650615614565b81520161565b615614565b815201615666615618565b81520161567161561d565b81525050565b61567f615621565b90565b61568a6155fa565b906020808084615698615677565b8152016156a3615614565b8152016156ae615614565b81525050565b6156bc615682565b90565b6156c96060611204565b90565b52565b906156d9906104ce565b9052565b6156e56156b4565b506156ee6185ae565b61572b6156f96148f1565b61572261570461602d565b916157196157106156bf565b955f87016156cc565b602085016156cf565b604083016156cf565b90565b61573661659a565b61573e615783565b565b61574990611131565b90565b61575590615740565b90565b6157619061114d565b90565b90565b61577b61577661578092615764565b61112e565b6104ce565b90565b6157b860206157a261579d61579860986120f9565b61574c565b615758565b6318160ddd906157b06104b1565b93849261213a565b825281806157c86004820161069b565b03915afa908115615a36575f91615a08575b506157ef6157e96103e8615767565b916104ce565b036159ec576158115f61580b6158055f926124a1565b916124a1565b906148e5565b615819614fb5565b61582161217d565b9061583461582e5f6124a1565b916104ce565b1161592a575b61584c6158465f6124a1565b916104ce565b11615866575b5061586461585f5f613c82565b617f0d565b565b6158d39061588461587f61587a60d46120f9565b612112565b614049565b9060206158a161589c61589760d46120f9565b612112565b61211e565b6370a08231906158c86158b33061212a565b926158bc6104b1565b9788948593849361213a565b8352600483016107ac565b03915afa918215615925576158ef935f936158f5575b50617d45565b5f615852565b61591791935060203d811161591e575b61590f8183610b0a565b81019061214f565b915f6158e9565b503d615905565b61216d565b61599661594761594261593d60d36120f9565b612112565b614049565b83602061596461595f61595a60d36120f9565b612112565b61211e565b6370a082319061598b6159763061212a565b9261597f6104b1565b9788948593849361213a565b8352600483016107ac565b03915afa9182156159e7576159b2935f936159b7575b50617d45565b61583a565b6159d991935060203d81116159e0575b6159d18183610b0a565b81019061214f565b915f6159ac565b503d6159c7565b61216d565b5f63ea8e4eb560e01b815280615a046004820161069b565b0390fd5b615a29915060203d8111615a2f575b615a218183610b0a565b81019061214f565b5f6157da565b503d615a17565b61216d565b615a4361572e565b565b5f90565b615a51615a45565b50615a8760e0615a71615a6c615a6760d16120f9565b6122d1565b6122dd565b633850c7bd90615a7f6104b1565b93849261213a565b82528180615a976004820161069b565b03915afa908115615adf575f91615aad575b5090565b615ace915060e03d8111615ad8575b615ac68183610b0a565b810190612377565b5050505050615aa9565b503d615abc565b61216d565b615aec6136cf565b50615af760d86136d4565b615b09615b035f6124a1565b916104ce565b14615b2357615b20615b1b60d861373f565b6165e3565b90565b615b34615b2f5f6124a1565b613718565b90565b33615b53615b4d615b48609a6120f9565b6106df565b916106df565b03615b9e57615b6381609a614d2f565b615b997f46d58e3fa07bf19b1d27240f0e286b27e9f7c1b0d88933333fe833b60eec541291615b906104b1565b918291826107ac565b0390a1565b5f633163ba6d60e11b815280615bb66004820161069b565b0390fd5b615bc2617cbb565b615bca615bea565b565b90602082820312615be557615be2915f01612368565b90565b6104bb565b615c2b6020615c01615bfc609b613baf565b611c7e565b63a44d57a090615c203392615c146104b1565b9586948593849361213a565b8352600483016107ac565b03915afa8015615c9f57615c47915f91615c71575b501561138a565b615c5557615c53615ca4565b565b5f63ea8e4eb560e01b815280615c6d6004820161069b565b0390fd5b615c92915060203d8111615c98575b615c8a8183610b0a565b810190615bcc565b5f615c40565b503d615c80565b61216d565b615cac61863a565b565b615cb6615bba565b565b615cc0617cbb565b615cc8615d66565b565b60781c90565b615cdc615ce191615cca565b6147ab565b90565b615cee9054615cd0565b90565b60781b90565b90615d0660ff60781b91615cf1565b9181191691161790565b90615d25615d20615d2c92614b8f565b614b9b565b8254615cf7565b9055565b90615d3c5f1991612e78565b9181191691161790565b90615d5b615d56615d6292612597565b6125b3565b8254615d30565b9055565b615d6e617645565b615d81615d7b60db615ce4565b1561138a565b615dde575b615d8e61763b565b615d96614935565b90615da24260dc615d46565b907f631c4f79c14099a717f4be2f25e6cef89e310b3944ef0e44ea2c0811ebb982a891615dd9615dd06104b1565b928392836104de565b0390a1565b615de661727d565b615df2600160db615d10565b615d86565b615dff615cb8565b565b60701c90565b615e13615e1891615e01565b6147ab565b90565b615e259054615e07565b90565b60701b90565b90615e3d60ff60701b91615e28565b9181191691161790565b90615e5c615e57615e6392614b8f565b614b9b565b8254615e2e565b9055565b90915033615e86615e80615e7b60d16120f9565b6106df565b916106df565b03615f6b57615e9e615e9860db615e1b565b1561138a565b615f4f5780615eb5615eaf5f6124a1565b916104ce565b11615f19575b5080615ecf615ec95f6124a1565b916104ce565b11615ee3575b50615ee15f60db615e47565b565b615f1390615f01615efc615ef760d46120f9565b612112565b614049565b90615f0c60d16120f9565b9091617d45565b5f615ed5565b615f4990615f37615f32615f2d60d36120f9565b612112565b614049565b90615f4260d16120f9565b9091617d45565b5f615ebb565b5f63887efaa560e01b815280615f676004820161069b565b0390fd5b5f636f61f64160e01b815280615f836004820161069b565b0390fd5b615f9890615f9361659a565b615f9a565b565b615fa2617e34565b615fad816099614d2f565b615fb5617bd1565b615feb7f5ca6e64c4522e68e154aa9372f2c5969cd37d9640e59f66953dc472f54ee86fa91615fe26104b1565b918291826107ac565b0390a1565b615ff990615f87565b565b6160036120e1565b5061600c6120e1565b506160156120e1565b5061601e6120e1565b506160276168a5565b90919293565b6160356120e1565b5061603f5f6124a1565b90565b61604a6120e1565b506160536120e1565b506160a161609161607661607161606c5f60d90161188c565b618dc5565b6153b0565b61607e6146ae565b61608b600160601b6153cf565b91618267565b61609b60026153eb565b906154fd565b906160ef6160df6160c46160bf6160ba5f60d9016118b3565b618dc5565b6153b0565b6160cc6146ae565b6160d9600160601b6153cf565b91618267565b6160e960026153eb565b906154fd565b90565b616103906160fe61659a565b6161ad565b565b60207f6464726573730000000000000000000000000000000000000000000000000000917f4f776e61626c653a206e6577206f776e657220697320746865207a65726f20615f8201520152565b61615f6026604092613928565b61616881616105565b0190565b6161819060208101905f818303910152616152565b90565b1561618b57565b6161936104b1565b62461bcd60e51b8152806161a96004820161616c565b0390fd5b6161db906161d6816161cf6161c96161c45f613c82565b6106df565b916106df565b1415616184565b617f0d565b565b6161e6906160f2565b565b60018060801b031690565b6161fc816161e8565b0361620357565b5f80fd5b90505190616214826161f3565b565b919060a0838203126162675761622e815f8501616207565b9261623c8260208301612140565b9261626461624d8460408501612140565b9361625b8160608601616207565b93608001616207565b90565b6104bb565b61628061627b616285926161e8565b61112e565b6104ce565b90565b6162906120e1565b506162996120e1565b506162a26120e1565b506162ab6120e1565b506162b46120e1565b506162bd6120e1565b506162c6613493565b91909161631860a06162d6615a49565b946162f16162ec6162e760d16120f9565b6122d1565b6122dd565b61630d63514ea4bf6163016104b1565b9586948593849361213a565b83526004830161130b565b03915afa938415616514575f808080809592509790506164ce575b509060a061634e61634861639095949861626c565b9361626c565b9461636961636461635f60d16120f9565b6122d1565b6122dd565b61638563514ea4bf6163796104b1565b9788948593849361213a565b83526004830161130b565b03915afa9182156164c9575f80808080969150929150616473575b616458949550616451929161644361643a6164076163d56163cf61644a969561626c565b9a61626c565b9c88906163ec6163e75f60d90161188c565b618dc5565b6164006163fb5f60d9016118b3565b618dc5565b9192619686565b9390979061641f61641a5f60da0161188c565b618dc5565b61643361642e5f60da016118b3565b618dc5565b9192619686565b96909490614192565b9790614192565b9490614192565b9590614192565b93616464838290614192565b94616470838290614192565b94565b505061645892506164519061644a6163cf61644361643a6164076164b06163d59a60a03d81116164c2575b6164a88183610b0a565b810190616216565b9c5098995050509450505050506163ab565b503d61649e565b61216d565b6163489650616390935061634e9291506164ff60a091823d811161650d575b6164f78183610b0a565b810190616216565b975099505050919250616333565b503d6164ed565b61216d565b5f7f4f776e61626c653a2063616c6c6572206973206e6f7420746865206f776e6572910152565b61654c60208092613928565b61655581616519565b0190565b61656e9060208101905f818303910152616540565b90565b1561657857565b6165806104b1565b62461bcd60e51b81528061659660048201616559565b0390fd5b6165c46165a5614f9f565b6165be6165b86165b3619745565b6106df565b916106df565b14616571565b565b60016165d291016104ce565b90565b906165df906106df565b9052565b906165ec6136cf565b506165f6826197a7565b9061661361660e83616608600161250f565b90614192565b613718565b9061661c6120e1565b935b8461663161662b866104ce565b916104ce565b10156166985761668c8161668761666261664d616692956197e2565b50919061665d89918c90926124df565b6165d5565b616682879161667b8b616675600161250f565b90614192565b90926124df565b6165d5565b61983e565b946165c6565b9361661e565b509250905090565b6166b1906166ac617cbb565b6166b3565b565b6166e5906166bf6168a5565b505050506166cb616dfa565b6166d560d5614030565b6166df60d6614030565b91619920565b906166ee61763b565b6167016166fa5f6124a1565b60d5615d46565b61671461670d5f6124a1565b60d6615d46565b61674461673d6167306167376167286141e4565b929086614192565b609c615d46565b84614192565b609d615d46565b61674f42609e615d46565b907f6c8433a8e155f0af04dba058d4e4695f7da554578963d876bdf4a6d8d6399d9c9161678661677d6104b1565b928392836104de565b0390a1565b616794906166a0565b565b6167aa6167a56167af9261249e565b61112e565b6161e8565b90565b91906040838203126167da57806167ce6167d7925f8601612140565b93602001612140565b90565b6104bb565b6167e890616796565b9052565b60409061681561681c949695939661680b60608401985f8501906105c3565b60208301906105c3565b01906167df565b565b9190604083820312616846578061683a616843925f8601616207565b93602001616207565b90565b6104bb565b616854906161e8565b9052565b909594926168a39461689261689c9261688860809661687e60a088019c5f89019061079f565b60208701906105c3565b60408501906105c3565b606083019061684b565b019061684b565b565b6168ad6120e1565b506168b66120e1565b506168bf6120e1565b506168c86120e1565b5060a06169196168d6613493565b92906168f26168ed6168e860d16120f9565b6122d1565b6122dd565b61690e63514ea4bf6169026104b1565b9586948593849361213a565b83526004830161130b565b03915afa908115616dc3576169759160a0915f91616d94575b509261694e61694961694460d16120f9565b6122d1565b6122dd565b61696a63514ea4bf61695e6104b1565b9586948593849361213a565b83526004830161130b565b03915afa908115616d8f575f91616d5f575b509061699b6169955f616796565b916161e8565b11616cb5575b6169b36169ad5f616796565b916161e8565b11616c0b575b6169d36169ce6169c960d16120f9565b6122d1565b6122dd565b6040634f1eb3d8916169e43061212a565b90616a285f6169f58160d90161188c565b95616a33616a058360d9016118b3565b60018060801b0360018060801b0391616a1c6104b1565b9a8b998a98899761213a565b875260048701616858565b03925af1908115616c06575f80919092616bcd575b50616a55616a5b9161626c565b9161626c565b91616a76616a71616a6c60d16120f9565b6122d1565b6122dd565b6040634f1eb3d891616a873061212a565b90616acb5f616a988160da0161188c565b95616ad6616aa88360da016118b3565b60018060801b0360018060801b0391616abf6104b1565b9a8b998a98899761213a565b875260048701616858565b03925af1908115616bc8575f80919092616b8f575b50616af8616afe9161626c565b9161626c565b91616b27616b20616b19616b1260d5614030565b8890614192565b8590614192565b60d5615d46565b616b4f616b48616b41616b3a60d6614030565b8790614192565b8490614192565b60d6615d46565b84848491616b8a857f6fe7c663aa15def6e80578b76ddd894fcefeabf14a0106afbec24da4a6c5787294616b816104b1565b94859485611ea9565b0390a1565b616af89250616afe9150616bb99060403d8111616bc1575b616bb18183610b0a565b81019061681e565b915091616aeb565b503d616ba7565b61216d565b616a559250616a5b9150616bf79060403d8111616bff575b616bef8183610b0a565b81019061681e565b915091616a48565b503d616be5565b61216d565b616c25616c20616c1b60d16120f9565b6122d1565b6122dd565b604063a34123a791616c395f60da0161188c565b90616c635f616c4a8160da016118b3565b95616c6e82616c576104b1565b9889978896879561213a565b8552600485016167ec565b03925af18015616cb057616c83575b506169b9565b616ca39060403d8111616ca9575b616c9b8183610b0a565b8101906167b2565b50616c7d565b503d616c91565b61216d565b616ccf616cca616cc560d16120f9565b6122d1565b6122dd565b604063a34123a791616ce35f60d90161188c565b90616d0d5f616cf48160d9016118b3565b95616d1882616d016104b1565b9889978896879561213a565b8552600485016167ec565b03925af18015616d5a57616d2d575b506169a1565b616d4d9060403d8111616d53575b616d458183610b0a565b8101906167b2565b50616d27565b503d616d3b565b61216d565b616d80915060a03d8111616d88575b616d788183610b0a565b810190616216565b505050616987565b503d616d6e565b61216d565b616db49150823d8111616dbc575b616dac8183610b0a565b810190616216565b505050616932565b503d616da2565b61216d565b604090616df1616df89496959396616de760608401985f8501906105c3565b60208301906105c3565b019061684b565b565b60a0616e4a616e07613493565b9290616e23616e1e616e1960d16120f9565b6122d1565b6122dd565b616e3f63514ea4bf616e336104b1565b9586948593849361213a565b83526004830161130b565b03915afa90811561721c57616ea69160a0915f916171ed575b5092616e7f616e7a616e7560d16120f9565b6122d1565b6122dd565b616e9b63514ea4bf616e8f6104b1565b9586948593849361213a565b83526004830161130b565b03915afa9081156171e8575f916171b8575b509080616ecd616ec75f616796565b916161e8565b11617054575b5080616ee7616ee15f616796565b916161e8565b11616ef0575b50565b6040616f0c616f07616f0260d16120f9565b6122d1565b6122dd565b63a34123a790616f475f616f228160da0161188c565b93616f52616f328360da016118b3565b97616f3b6104b1565b9889978896879561213a565b855260048501616dc8565b03925af1801561704f57617022575b50616f7c616f77616f7260d16120f9565b6122d1565b6122dd565b6040634f1eb3d891616f8d3061212a565b90616fd15f616f9e8160da0161188c565b95616fdc616fae8360da016118b3565b60018060801b0360018060801b0391616fc56104b1565b9a8b998a98899761213a565b875260048701616858565b03925af1801561701d57616ff0575b616eed565b6170109060403d8111617016575b6170088183610b0a565b81019061681e565b50616feb565b503d616ffe565b61216d565b6170429060403d8111617048575b61703a8183610b0a565b8101906167b2565b50616f61565b503d617030565b61216d565b604061707061706b61706660d16120f9565b6122d1565b6122dd565b63a34123a7906170ab5f6170868160d90161188c565b936170b66170968360d9016118b3565b9761709f6104b1565b9889978896879561213a565b855260048501616dc8565b03925af180156171b357617186575b506170e06170db6170d660d16120f9565b6122d1565b6122dd565b6040634f1eb3d8916170f13061212a565b906171355f6171028160d90161188c565b956171406171128360d9016118b3565b60018060801b0360018060801b03916171296104b1565b9a8b998a98899761213a565b875260048701616858565b03925af1801561718157617154575b616ed3565b6171749060403d811161717a575b61716c8183610b0a565b81019061681e565b5061714f565b503d617162565b61216d565b6171a69060403d81116171ac575b61719e8183610b0a565b8101906167b2565b506170c5565b503d617194565b61216d565b6171d9915060a03d81116171e1575b6171d18183610b0a565b810190616216565b505050616eb8565b503d6171c7565b61216d565b61720d9150823d8111617215575b6172058183610b0a565b810190616216565b505050616e63565b503d6171fb565b61216d565b617229617cbb565b617231617233565b565b61727061723e6123e7565b6172466176a2565b9061725b61725460db61188c565b83906137d0565b9061726881848491619dca565b919091619e2c565b61727b42609f615d46565b565b617285617221565b565b61728f617cbb565b6172976173bb565b565b5f7f4265656679204d61696e00000000000000000000000000000000000000000000910152565b6172cd600a602092610b7e565b6172d681617299565b0190565b919361731061731a9294617306617327976172fc60a08801985f89019061079f565b60208701906105c3565b60408501906105c3565b606083019061684b565b60808183039101526172c0565b90565b5f7f426565667920416c740000000000000000000000000000000000000000000000910152565b61735e6009602092610b7e565b6173678161732a565b0190565b91936173a16173ab92946173976173b89761738d60a08801985f89019061079f565b60208701906105c3565b60408501906105c3565b606083019061684b565b6080818303910152617351565b90565b6173c3619fb7565b61740b6173ce61217d565b91906173d8615a49565b9283916173ef6173ea5f60d90161188c565b618dc5565b6174036173fe5f60d9016118b3565b618dc5565b91929361a075565b9061742e8261741c5f60d90161188c565b6174285f60d9016118b3565b9161a149565b8261744161743b5f616796565b916161e8565b119081617633575b505f146176215761745c600160db615e47565b604061747861747361746e60d16120f9565b6122d1565b6122dd565b633c8a7d8d906174bc5f61748b3061212a565b936174c761749b8360d90161188c565b986174a88460d9016118b3565b6174b06104b1565b9a8b988997889661213a565b8652600486016172da565b03925af191821561761c57617516926175ef575b505b6174e561217d565b906174fa6174f55f60da0161188c565b618dc5565b61750e6175095f60da016118b3565b618dc5565b91929361a075565b806175296175235f616796565b916161e8565b11617532575b50565b61753e600160db615e47565b604061755a61755561755060d16120f9565b6122d1565b6122dd565b633c8a7d8d9061759e5f61756d3061212a565b936175a961757d8360da0161188c565b9761758a8460da016118b3565b6175926104b1565b998a988997889661213a565b86526004860161736b565b03925af180156175ea576175bd575b61752f565b6175dd9060403d81116175e3575b6175d58183610b0a565b8101906167b2565b506175b8565b503d6175cb565b61216d565b61760f9060403d8111617615575b6176078183610b0a565b8101906167b2565b506174db565b503d6175fd565b61216d565b617516915061762e617cbb565b6174dd565b90505f617449565b617643617287565b565b3361766161765b61765660986120f9565b6106df565b916106df565b0361766857565b5f6362df054560e01b8152806176806004820161069b565b0390fd5b9060208282031261769d5761769a915f0161230c565b90565b6104bb565b6176aa6122c1565b506176e060206176ca6176c56176c060d16120f9565b6122d1565b6122dd565b63d0c93a7c906176d86104b1565b93849261213a565b825281806176f06004820161069b565b03915afa908115617734575f91617706575b5090565b617727915060203d811161772d575b61771f8183610b0a565b810190617684565b5f617702565b503d617715565b61216d565b617741614f9b565b5061775c5f6177566177516145df565b61a1be565b016120f9565b90565b5f7f496e76616c696420696d706c656d656e746174696f6e00000000000000000000910152565b6177936016602092613928565b61779c8161775f565b0190565b6177b59060208101905f818303910152617786565b90565b156177bf57565b6177c76104b1565b62461bcd60e51b8152806177dd600482016177a0565b0390fd5b61781f9060206178096178046177ff6177fa609b613baf565b611c7e565b613bc8565b613bd4565b631f1097e5906178176104b1565b94859261213a565b8252818061782f60048201613c4e565b03915afa801561788d576178516178579161785d945f9161785f575b506106df565b916106df565b146177b8565b565b617880915060203d8111617886575b6178788183610b0a565b810190613bef565b5f61784b565b503d61786e565b61216d565b90565b6178a96178a46178ae92617892565b612e78565b610c54565b90565b6178da7f4910fdfa16fed3260ed0e7147f7cc6da11a60208b5b9406d12a635614ffd9143617895565b90565b6178e690611131565b90565b6178f2906178dd565b90565b6178fe9061114d565b90565b61790a81610c54565b0361791157565b5f80fd5b9050519061792282617901565b565b9060208282031261793d5761793a915f01617915565b90565b6104bb565b60207f6961626c65555549440000000000000000000000000000000000000000000000917f45524331393637557067726164653a20756e737570706f727465642070726f785f8201520152565b61799c6029604092613928565b6179a581617942565b0190565b6179be9060208101905f81830391015261798f565b90565b156179c857565b6179d06104b1565b62461bcd60e51b8152806179e6600482016179a9565b0390fd5b60207f6f6e206973206e6f742055555053000000000000000000000000000000000000917f45524331393637557067726164653a206e657720696d706c656d656e746174695f8201520152565b617a44602e604092613928565b617a4d816179ea565b0190565b617a669060208101905f818303910152617a37565b90565b91617a845f617a7e617a796178b1565b61a1c1565b016147c5565b5f14617a98575050617a959061a26c565b5b565b617ac46020617aae617aa9866178e9565b6178f5565b6352d1902d90617abc6104b1565b93849261213a565b82528180617ad46004820161069b565b03915afa80915f92617b50575b50155f14617b2457506001617b0257617afd925b919091617b80565b617a96565b617b0a6104b1565b62461bcd60e51b815280617b2060048201617a51565b0390fd5b92617b4b617afd94617b45617b3f617b3a6145df565b610c54565b91610c54565b146179c1565b617af5565b617b7291925060203d8111617b79575b617b6a8183610b0a565b810190617924565b905f617ae1565b503d617b60565b91617b8a8361a29a565b617b9382610b7a565b617ba5617b9f5f6124a1565b916104ce565b11908115617bc9575b50617bb8575b5050565b617bc19161a36d565b505f80617bb4565b90505f617bae565b617c00617bee617be9617be460d36120f9565b612112565b614049565b617bf860996120f9565b5f199161a3bd565b617c2f617c1d617c18617c1360d46120f9565b612112565b614049565b617c2760996120f9565b5f199161a3bd565b565b617c3961a4f9565b617c41617c63565b565b90617c58617c53617c5f92614b8f565b614b9b565b8254614b1d565b9055565b617c6e5f6065617c43565b617c76619745565b617cac7f5db9ee0a495bf2e6ff9c91a7834c1ba4fdd244a5e8aa4e537bd38aeae4b073aa91617ca36104b1565b918291826107ac565b0390a1565b617cb9617c31565b565b617ccc617cc6615132565b1561138a565b617cd257565b5f6313643c3b60e11b815280617cea6004820161069b565b0390fd5b617cf79061114d565b90565b63ffffffff60e01b1690565b617d1a617d15617d1f92610973565b61213a565b617cfa565b90565b916020617d43929493617d3c60408201965f83019061079f565b01906104d1565b565b91617d89600492617d7a617d8e9593617d6163a9059cbb617d06565b92617d6a6104b1565b9687946020860190815201617d22565b60208201810382520383610b0a565b61a5fe565b565b617d986147a7565b50617da16147d2565b8015617dab575b90565b50617dd96020617dc3617dbe609b613baf565b611c7e565b63f12d54d890617dd16104b1565b93849261213a565b82528180617de96004820161069b565b03915afa908115617e2f575f91617e01575b50617da8565b617e22915060203d8111617e28575b617e1a8183610b0a565b810190615bcc565b5f617dfb565b503d617e10565b61216d565b617e6a617e51617e4c617e4760d36120f9565b612112565b614049565b617e5b60996120f9565b617e645f6124a1565b9161a3bd565b617ea0617e87617e82617e7d60d46120f9565b612112565b614049565b617e9160996120f9565b617e9a5f6124a1565b9161a3bd565b565b617eaa61a6ec565b617eb2617eb4565b565b617ec060016065617c43565b617ec8619745565b617efe7f62e78cea01bee320cd4e420270b5ea74000d11b0c9f74754ebdbfc544b05a25891617ef56104b1565b918291826107ac565b0390a1565b617f0b617ea2565b565b617f1760336120f9565b617f22826033614d2f565b90617f56617f507f8be0079c531659141344cd1fd0a4f28419497f9722a3daafe3b4186f6b6457e093614d20565b91614d20565b91617f5f6104b1565b80617f698161069b565b0390a3565b617f766147a7565b503b617f8a617f845f6124a1565b916104ce565b1190565b60207f6e697469616c697a696e67000000000000000000000000000000000000000000917f496e697469616c697a61626c653a20636f6e7472616374206973206e6f7420695f8201520152565b617fe8602b604092613928565b617ff181617f8e565b0190565b61800a9060208101905f818303910152617fdb565b90565b1561801457565b61801c6104b1565b62461bcd60e51b81528061803260048201617ff5565b0390fd5b6180509061804b6180465f614a19565b61800d565b6180a6565b565b3561805c816106eb565b90565b61806890611131565b90565b6180749061805f565b90565b6180809061805f565b90565b90565b9061809b6180966180a292618077565b618083565b8254614d05565b9055565b61810e6181096060618115936180ba61a72c565b6180c261a75b565b6180d76180d05f8301618052565b6098614d2f565b6180ed6180e660208301618052565b6099614d2f565b6181036180fc60408301618052565b609a614d2f565b01618052565b61806b565b609b618086565b618142602061812c618127609b613baf565b611c7e565b6311b0b42d9061813a6104b1565b93849261213a565b825281806181526004820161069b565b03915afa801561819f5761816f915f91618171575b506097614d2f565b565b618192915060203d8111618198575b61818a8183610b0a565b810190613bef565b5f618167565b503d618180565b61216d565b6181ad90618036565b565b5f90565b906181bc6181af565b50816181d06181ca83615094565b91615094565b135f146181dc57505b90565b90506181d9565b906181ec6181af565b50816182006181fa83615094565b91615094565b125f1461820c57505b90565b9050618209565b1561821a57565b5f80fd5b9061822991016104ce565b90565b9061823791026104ce565b90565b90565b61825161824c6182569261823a565b61112e565b6104ce565b90565b9061826491036104ce565b90565b61826f6120e1565b506182786120e1565b506182816120e1565b505f1982820991808202928380821091030391826182a76182a15f6124a1565b916104ce565b1461842d576184249285809361831b936182d661842a996182d06182ca876104ce565b916104ce565b11618213565b6182de6120e1565b50099085821190039403936001836183086182f986196104ce565b6183028461250f565b9061821e565b1680809504960493805f0304019061822c565b179161841e6184026183de6183ba618396618372618343600361833e899161823d565b61822c565b61834d6002612908565b1861836c60026183676183618b859061822c565b91612908565b618259565b9061822c565b618390600261838b6183858a859061822c565b91612908565b618259565b9061822c565b6183b460026183af6183a989859061822c565b91612908565b618259565b9061822c565b6183d860026183d36183cd88859061822c565b91612908565b618259565b9061822c565b6183fc60026183f76183f187859061822c565b91612908565b618259565b9061822c565b91618419618413600292859061822c565b91612908565b618259565b9061822c565b9061822c565b90565b50505061844c826184466184405f6124a1565b916104ce565b11618213565b0490565b618458615621565b90565b5f80fd5b5f80fd5b60018060401b03811161847f5761847b602091610aec565b0190565b610af6565b9092919261849961849482618463565b611204565b938185526020850190828401116184b5576184b392610b87565b565b611200565b9080601f830112156184d8578160206184d593519101618484565b90565b61061e565b91909160c081840312618576576184f460c0611204565b92618501815f8401612140565b5f8501526185128160208401612140565b60208501526185248160408401612140565b60408501526185368160608401612140565b606085015260808201519160018060401b0383116185715761855d8261856a9483016184ba565b608086015260a001612368565b60a0830152565b61845f565b61845b565b906020828203126185a9575f82015160018060401b0381116185a4576185a192016184dd565b90565b61061a565b6104bb565b6185b6618450565b506185fd5f6185cb6185c6614378565b611159565b639af608c9906185f26185dd30614ef6565b926185e66104b1565b9586948593849361213a565b8352600483016107ac565b03915afa908115618635575f91618613575b5090565b61862f91503d805f833e6186278183610b0a565b81019061857b565b5f61860f565b61216d565b6186426168a5565b5050505061864e616dfa565b61865661727d565b61865e61763b565b618666614935565b7f631c4f79c14099a717f4be2f25e6cef89e310b3944ef0e44ea2c0811ebb982a89161869c6186936104b1565b928392836104de565b0390a1565b6186b56186b06186ba9261249e565b61112e565b6105bd565b90565b6186d16186cc6186d6926105bd565b61112e565b615094565b90565b6186e4905f03615094565b90565b6186fb6186f661870092615094565b61112e565b6104ce565b90565b61871761871261871c92615065565b61112e565b6105bd565b90565b61872c620d89e719618703565b90565b61873a905f036105bd565b90565b61874d61874861871f565b61872f565b90565b5f7f5400000000000000000000000000000000000000000000000000000000000000910152565b6187846001602092613928565b61878d81618750565b0190565b6187a69060208101905f818303910152618777565b90565b156187b057565b6187b86104b1565b62461bcd60e51b8152806187ce60048201618791565b0390fd5b90565b60018060881b031690565b6187f46187ef6187f9926187d2565b61112e565b6187d5565b90565b90565b61881361880e618818926187fc565b61112e565b6187d5565b90565b61882f61882a618834926187d5565b61112e565b6104ce565b90565b90565b61884e61884961885392618837565b61112e565b6104ce565b90565b90565b61886d61886861887292618856565b61112e565b612f54565b90565b6188949061888e61888861889994612f54565b916104ce565b90610537565b6104ce565b90565b6188b06188ab6188b5926137b1565b61112e565b6104ce565b90565b90565b6188cf6188ca6188d4926188b8565b61112e565b6104ce565b90565b90565b6188ee6188e96188f3926188d7565b61112e565b6104ce565b90565b90565b61890d618908618912926188f6565b61112e565b6104ce565b90565b90565b61892c61892761893192618915565b61112e565b6104ce565b90565b90565b61894b61894661895092618934565b61112e565b6104ce565b90565b90565b61896a61896561896f92618953565b61112e565b6104ce565b90565b90565b61898961898461898e92618972565b61112e565b6104ce565b90565b90565b6189a86189a36189ad92618991565b61112e565b6104ce565b90565b90565b6189c76189c26189cc926189b0565b61112e565b6104ce565b90565b6189e36189de6189e892618856565b61112e565b6104ce565b90565b90565b618a026189fd618a07926189eb565b61112e565b6104ce565b90565b90565b618a21618a1c618a2692618a0a565b61112e565b6104ce565b90565b90565b618a40618a3b618a4592618a29565b61112e565b6104ce565b90565b90565b618a5f618a5a618a6492618a48565b61112e565b6104ce565b90565b90565b618a7e618a79618a8392618a67565b61112e565b6104ce565b90565b90565b618a9d618a98618aa292618a86565b61112e565b6104ce565b90565b90565b618abc618ab7618ac192618aa5565b61112e565b6104ce565b90565b90565b618adb618ad6618ae092618ac4565b61112e565b6104ce565b90565b90565b618afa618af5618aff92618ae3565b61112e565b6104ce565b90565b90565b618b19618b14618b1e92618b02565b61112e565b6104ce565b90565b90565b618b38618b33618b3d92618b21565b61112e565b6104ce565b90565b90565b618b57618b52618b5c92618b40565b61112e565b6104ce565b90565b90565b618b76618b71618b7b92618b5f565b61112e565b6104ce565b90565b90565b618b95618b90618b9a92618b7e565b61112e565b6104ce565b90565b90565b618bb4618baf618bb992618b9d565b61112e565b6104ce565b90565b90565b618bd3618bce618bd892618bbc565b61112e565b6104ce565b90565b90565b618bf2618bed618bf792618bdb565b61112e565b6104ce565b90565b90565b618c11618c0c618c1692618bfa565b61112e565b6104ce565b90565b90565b618c30618c2b618c3592618c19565b61112e565b6104ce565b90565b90565b618c4f618c4a618c5492618c38565b61112e565b6104ce565b90565b90565b618c6e618c69618c7392618c57565b61112e565b6104ce565b90565b90565b618c8d618c88618c9292618c76565b61112e565b6104ce565b90565b90565b618cac618ca7618cb192618c95565b61112e565b6104ce565b90565b90565b618ccb618cc6618cd092618cb4565b61112e565b6104ce565b90565b90565b618cea618ce5618cef92618cd3565b61112e565b6104ce565b90565b618cfe618d04916104ce565b916104ce565b908115618d0f570490565b612cc9565b618d28618d23618d2d92618953565b61112e565b612f54565b90565b90565b618d47618d42618d4c92618d30565b61112e565b6104ce565b90565b618d5b618d61916104ce565b916104ce565b908115618d6c570690565b612cc9565b618d85618d80618d8a9261249e565b61112e565b612f54565b90565b618da1618d9c618da692612f54565b61112e565b6104ce565b90565b618dbd618db8618dc2926104ce565b61112e565b6106d4565b90565b6191b66191bb91618dd4615a45565b5080618de8618de25f6186a1565b916105bd565b125f1461967557618e09618e03618dfe836186bd565b6186d9565b5b6186e7565b90618e3e82618e37618e31618e2c618e27618e2261873d565b6186bd565b6186e7565b6104ce565b916104ce565b11156187a9565b81618e49600161250f565b16618e5c618e565f6124a1565b916104ce565b14155f1461966057618e86618e806ffffcb933bd6fad37aa2d162d1a5940016187ff565b5b61881b565b9180618e926002612908565b16618ea5618e9f5f6124a1565b916104ce565b03619623575b80618eb6600461889c565b16618ec9618ec35f6124a1565b916104ce565b036195e6575b80618eda60086188da565b16618eed618ee75f6124a1565b916104ce565b036195a9575b80618efe6010618918565b16618f11618f0b5f6124a1565b916104ce565b0361956c575b80618f226020618956565b16618f35618f2f5f6124a1565b916104ce565b0361952f575b80618f466040618994565b16618f59618f535f6124a1565b916104ce565b036194f2575b80618f6a60806189cf565b16618f7d618f775f6124a1565b916104ce565b036194b5575b80618f8f610100618a0d565b16618fa2618f9c5f6124a1565b916104ce565b03619478575b80618fb4610200618a4b565b16618fc7618fc15f6124a1565b916104ce565b0361943b575b80618fd9610400618a89565b16618fec618fe65f6124a1565b916104ce565b036193fe575b80618ffe610800618ac7565b1661901161900b5f6124a1565b916104ce565b036193c1575b80619023611000618b05565b166190366190305f6124a1565b916104ce565b03619384575b80619048612000618b43565b1661905b6190555f6124a1565b916104ce565b03619347575b8061906d614000618b81565b1661908061907a5f6124a1565b916104ce565b0361930a575b80619092618000618bbf565b166190a561909f5f6124a1565b916104ce565b036192cd575b806190b862010000618bfd565b166190cb6190c55f6124a1565b916104ce565b03619290575b806190de62020000618c3b565b166190f16190eb5f6124a1565b916104ce565b03619254575b8061910462040000618c79565b166191176191115f6124a1565b916104ce565b03619219575b61912962080000618cb7565b1661913c6191365f6124a1565b916104ce565b036191e0575b61915461914e5f6186a1565b916105bd565b136191d0575b6191856191718261916b6020618d14565b90618875565b9161917f600160201b618d33565b90618d4f565b6191976191915f6124a1565b916104ce565b145f146191be576191b06191aa5f618d71565b5b618d8d565b9061821e565b618da9565b90565b6191b06191cb6001614a4d565b6191ab565b6191db905f19618cf2565b61915a565b90619203619213916191fd6b048a170391f7dc42444e8fa2618cd6565b9061822c565b61920d6080618859565b90618875565b90619142565b9161923e61924e916192386d2216e584f5fa1ea926041bedfe98618c98565b9061822c565b6192486080618859565b90618875565b9161911d565b9161927a61928a916192746e5d6af8dedb81196699c329225ee604618c5a565b9061822c565b6192846080618859565b90618875565b916190f7565b916192b76192c7916192b16f09aa508b5b7a84e1c677de54f3e99bc9618c1c565b9061822c565b6192c16080618859565b90618875565b916190d1565b916192f4619304916192ee6f31be135f97d08fd981231505542fcfa6618bde565b9061822c565b6192fe6080618859565b90618875565b916190ab565b916193316193419161932b6f70d869a156d2a1b890bb3df62baf32f7618ba0565b9061822c565b61933b6080618859565b90618875565b91619086565b9161936e61937e916193686fa9f746462d870fdf8a65dc1f90e061e5618b62565b9061822c565b6193786080618859565b90618875565b91619061565b916193ab6193bb916193a56fd097f3bdfd2022b8845ad8f792aa5825618b24565b9061822c565b6193b56080618859565b90618875565b9161903c565b916193e86193f8916193e26fe7159475a2c29b7443b29c7fa6e889d9618ae6565b9061822c565b6193f26080618859565b90618875565b91619017565b916194256194359161941f6ff3392b0822b70005940c7a398e4b70f3618aa8565b9061822c565b61942f6080618859565b90618875565b91618ff2565b916194626194729161945c6ff987a7253ac413176f2b074cf7815e54618a6a565b9061822c565b61946c6080618859565b90618875565b91618fcd565b9161949f6194af916194996ffcbe86c7900a88aedcffc83b479aa3a4618a2c565b9061822c565b6194a96080618859565b90618875565b91618fa8565b916194dc6194ec916194d66ffe5dee046a99a2a811c461f1969c30536189ee565b9061822c565b6194e66080618859565b90618875565b91618f83565b91619519619529916195136fff2ea16466c96a3843ec78b326b528616189b3565b9061822c565b6195236080618859565b90618875565b91618f5f565b91619556619566916195506fff973b41fa98c081472e6896dfb254c0618975565b9061822c565b6195606080618859565b90618875565b91618f3b565b916195936195a39161958d6fffcb9843d60f6159c9db58835c926644618937565b9061822c565b61959d6080618859565b90618875565b91618f17565b916195d06195e0916195ca6fffe5caca7e10e4e61c3624eaa0941cd06188f9565b9061822c565b6195da6080618859565b90618875565b91618ef3565b9161960d61961d916196076ffff2e50f5f656932ef12357cf3c7fdcc6188bb565b9061822c565b6196176080618859565b90618875565b91618ecf565b9161964a61965a916196446ffff97272373d413259a46990580e213a61883a565b9061822c565b6196546080618859565b90618875565b91618eab565b618e86619670600160801b6187e0565b618e81565b618e09619681826186bd565b618e04565b919093926196926120e1565b9261969b6120e1565b93866196af6196a9866106d4565b916106d4565b1161973d575b816196c86196c2896106d4565b916106d4565b11155f146196e45750506196e092939491909161a851565b915b565b908093969594506196fd6196f7886106d4565b916106d4565b105f1461972757506197176197209394958390839161a851565b9491909161a79e565b905b6196e2565b949150619737929391909161a79e565b90619722565b9592956196b5565b61974d614f9b565b503390565b90565b61976961976461976e92619752565b61112e565b6104ce565b90565b61977b6014619755565b90565b619788600361823d565b90565b6197a4619796619771565b61979e61977e565b90614192565b90565b6197cd6197bf6197db926197b96120e1565b50610b7a565b6197c7619771565b9061253f565b6197d561978b565b90612fd6565b90565b5f90565b906197eb614f9b565b506197f4614f9b565b506197fd6197de565b506198118261980b5f6124a1565b9061a968565b9161983661982782619821619771565b9061aac6565b9161983061978b565b9061a968565b91565b606090565b6198749061984a619839565b508061986e61986061985a61978b565b92610b7a565b61986861978b565b9061253f565b9161ac6a565b90565b61988190516104ce565b90565b619895670de0b6b3a7640000614692565b90565b6198a190611131565b90565b6198ad90619898565b90565b6198b99061114d565b90565b6040906198e56198ec94969593966198db60608401985f85019061079f565b602083019061079f565b01906104d1565b565b60409061991761991e949695939661990d60608401985f8501906104d1565b60208301906104d1565b01906104d1565b565b92909261992b6120e1565b936199346120e1565b9361993d6185ae565b906199466120e1565b928061995a6199545f6124a1565b916104ce565b11619c2b575b508061997461996e5f6124a1565b916104ce565b11619a9e575b50619a2c6199f66199e8619a33936199d56199b26199a48861999e60408601619877565b90612ff8565b6199ac619884565b90612fd6565b976199cd6199c86199c360976120f9565b612112565b614049565b908991617d45565b6199e26060879201619877565b90612ff8565b6199f0619884565b90612fd6565b92619a25619a14619a0f619a0a60976120f9565b612112565b614049565b619a1e609a6120f9565b8691617d45565b849061253f565b829061253f565b91619a60619a51619a4c619a4760976120f9565b612112565b614049565b619a59614fb5565b8591617d45565b919091619a997fd255b592c7f268a73e534da5219a60ff911b4cf6daae21c7d20527dd657bd99a93619a906104b1565b938493846198ee565b0390a1565b90919450619ad3619acb619abd83619ab75f8701619877565b90612ff8565b619ac5619884565b90612fd6565b91829061253f565b94619adc6120e1565b619ae660d46120f9565b619b01619afb619af660976120f9565b6106df565b916106df565b03619b69575b6199e8619a3393619a2c936199f693619b2060d46120f9565b619b3b619b35619b3060976120f9565b6106df565b916106df565b145f14619b585750619b4d9190614192565b945b9350505061997a565b619b63925090614192565b94619b4f565b50619b84619b7f619b7a60996120f9565b6198a4565b6198b0565b602063df791e5091619b9660d46120f9565b90619bbe5f619ba560976120f9565b95619bc989619bb26104b1565b9889978896879561213a565b8552600485016198bc565b03925af1908115619c2657619a3393619a2c936199f6936199e8935f91619bf8575b5093509350935050619b07565b619c19915060203d8111619c1f575b619c118183610b0a565b81019061214f565b5f619beb565b503d619c07565b61216d565b90929650619c60619c58619c4a83619c445f8701619877565b90612ff8565b619c52619884565b90612fd6565b91829061253f565b96619c696120e1565b619c7360d36120f9565b619c8e619c88619c8360976120f9565b6106df565b916106df565b03619ce4575b619c9e60d36120f9565b619cb9619cb3619cae60976120f9565b6106df565b916106df565b145f14619cd35750619ccb9190614192565b915b5f619960565b619cde925090614192565b91619ccd565b50619cff619cfa619cf560996120f9565b6198a4565b6198b0565b602063df791e5091619d1160d36120f9565b90619d395f619d2060976120f9565b95619d4489619d2d6104b1565b9889978896879561213a565b8552600485016198bc565b03925af1908115619d8a575f91619d5c575b50619c94565b619d7d915060203d8111619d83575b619d758183610b0a565b81019061214f565b5f619d56565b503d619d6b565b61216d565b90619da065ffffff00000091613817565b9181191691161790565b90619dbf619dba619dc692612e95565b612eb1565b8254619d8f565b9055565b91619ddb91619df19391909161ada3565b619dec5f60d901915f60d901619daa565b612eb4565b565b90565b619e0a619e05619e0f92619df3565b61112e565b6104ce565b90565b619e296a0c097ce7bc90715b34b9f160241b619df6565b90565b9091619e3661217d565b619e3e6120e1565b9180619e52619e4c5f6124a1565b916104ce565b11619f8a575b5081619e6c619e66836104ce565b916104ce565b105f14619f2c5750509181619e97619e8d619ea995619e9f9590859161ada3565b505f60da01612eb4565b90809161ada3565b505f60da01619daa565b5b619eb65f60d90161188c565b619ed3619ecd619ec85f60da0161188c565b6105bd565b916105bd565b1480619efc575b619ee057565b5f631434ed7f60e01b815280619ef86004820161069b565b0390fd5b50619f095f60d9016118b3565b619f26619f20619f1b5f60da016118b3565b6105bd565b916105bd565b14619eda565b619f39619f3f91926104ce565b916104ce565b10619f4d575b505050619eaa565b619f829282619f6f619f64619f779584859161ada3565b90505f60da01612eb4565b91909161ada3565b90505f60da01619daa565b5f8080619f45565b619fb0919250619fa290619f9c61551e565b90612ff8565b619faa619e12565b90612fd6565b905f619e58565b619fbf6147d2565b8015619fe8575b619fcc57565b5f63e628b94960e01b815280619fe46004820161069b565b0390fd5b5061a016602061a000619ffb609b613baf565b611c7e565b63f12d54d89061a00e6104b1565b93849261213a565b8252818061a0266004820161069b565b03915afa90811561a06c575f9161a03e575b50619fc6565b61a05f915060203d811161a065575b61a0578183610b0a565b810190615bcc565b5f61a038565b503d61a04d565b61216d565b5f90565b909392919261a08261a071565b508461a09661a090866106d4565b916106d4565b1161a141575b8161a0af61a0a9876106d4565b916106d4565b11155f1461a0c957505061a0c59291909161ae3e565b905b565b9181939161a0df61a0d9846106d4565b916106d4565b105f1461a12c5783929161a0f99161a1029591909161ae3e565b9391909161add9565b8161a11561a10f836161e8565b916161e8565b105f1461a12557505b905b61a0c7565b905061a11e565b50915061a13b9291909161add9565b9061a120565b93929361a09c565b61a1779261a1556147a7565b5061a17061a16a61a164615a49565b94618dc5565b91618dc5565b9192619686565b9061a18a61a1845f6124a1565b916104ce565b1490811561a1a3575b505f1461a19e575f90565b600190565b905061a1b761a1b15f6124a1565b916104ce565b145f61a193565b90565b90565b60207f6f74206120636f6e747261637400000000000000000000000000000000000000917f455243313936373a206e657720696d706c656d656e746174696f6e206973206e5f8201520152565b61a21e602d604092613928565b61a2278161a1c4565b0190565b61a2409060208101905f81830391015261a211565b90565b1561a24a57565b61a2526104b1565b62461bcd60e51b81528061a2686004820161a22b565b0390fd5b61a2989061a28161a27c82617f6e565b61a243565b5f61a29261a28d6145df565b61a1be565b01614d2f565b565b61a2a38161a26c565b61a2cd7fbc7cd75a20ee27fd9adebab32041f755214dbc6bffa90cc0225b39da2e5c2d3b91614d20565b9061a2d66104b1565b8061a2e08161069b565b0390a2565b9061a2f761a2f283618463565b611204565b918252565b60207f206661696c656400000000000000000000000000000000000000000000000000917f416464726573733a206c6f772d6c6576656c2064656c65676174652063616c6c5f8201520152565b61a353602761a2e5565b9061a3606020830161a2fc565b565b61a36a61a349565b90565b9061a38a9161a37a619839565b509061a38461a362565b9161aedd565b90565b61a39690618d71565b9052565b91602061a3bb92949361a3b460408201965f83019061079f565b019061a38d565b565b909161a3fe60049161a3ef61a3d563095ea7b3617d06565b918661a3df6104b1565b9586946020860190815201617d22565b60208201810382520382610b0a565b9061a41361a40d82849061af0f565b1561138a565b61a41d575b505050565b61a46a600461a46f9461a465849161a45661a43b63095ea7b3617d06565b915f9061a4466104b1565b968794602086019081520161a39a565b60208201810382520383610b0a565b61a5fe565b61a5fe565b5f808061a418565b5f7f5061757361626c653a206e6f7420706175736564000000000000000000000000910152565b61a4ab6014602092613928565b61a4b48161a477565b0190565b61a4cd9060208101905f81830391015261a49e565b90565b1561a4d757565b61a4df6104b1565b62461bcd60e51b81528061a4f56004820161a4b8565b0390fd5b61a50961a5046147d2565b61a4d0565b565b5f7f5361666545524332303a206c6f772d6c6576656c2063616c6c206661696c6564910152565b61a53c602061a2e5565b9061a5496020830161a50b565b565b61a55361a532565b90565b60207f6f74207375636365656400000000000000000000000000000000000000000000917f5361666545524332303a204552433230206f7065726174696f6e20646964206e5f8201520152565b61a5b0602a604092613928565b61a5b98161a556565b0190565b61a5d29060208101905f81830391015261a5a3565b90565b1561a5dc57565b61a5e46104b1565b62461bcd60e51b81528061a5fa6004820161a5bd565b0390fd5b61a6479161a60e61a61d92617cee565b9061a61761a54b565b9161afb1565b61a62681610b7a565b61a63861a6325f6124a1565b916104ce565b1490811561a649575b5061a5d5565b565b61a6649150602061a65982610b7a565b818301019101615bcc565b5f61a641565b5f7f5061757361626c653a2070617573656400000000000000000000000000000000910152565b61a69e6010602092613928565b61a6a78161a66a565b0190565b61a6c09060208101905f81830391015261a691565b90565b1561a6ca57565b61a6d26104b1565b62461bcd60e51b81528061a6e86004820161a6ab565b0390fd5b61a70561a70061a6fa6147d2565b1561138a565b61a6c3565b565b61a71861a7135f614a19565b61800d565b61a72061a722565b565b61a72a61b000565b565b61a73461a707565b565b61a74761a7425f614a19565b61800d565b61a74f61a751565b565b61a75961b032565b565b61a76361a736565b565b61a77161a777916106d4565b916106d4565b90039060018060a01b03821161a78957565b61252b565b61a79b600160601b6153cf565b90565b61a7ef9261a7aa6120e1565b508161a7be61a7b8856106d4565b916106d4565b1161a7f2575b9061a7cf919261a765565b61a7e961a7e361a7dd61a78e565b9361626c565b916153b0565b90618267565b90565b61a7cf9192915061a7c4565b90565b61a81561a81061a81a9261a7fe565b61112e565b612f54565b90565b61a827606061a801565b90565b61a8499061a84361a83d61a84e94612f54565b916104ce565b9061256e565b6104ce565b90565b9061a8c89261a85e6120e1565b508261a87261a86c846106d4565b916106d4565b1161a8cb575b61a8c29161a89961a88b61a8bc9361626c565b61a89361a81d565b9061a82a565b9061a8b661a8b061a8ab83889061a765565b6153b0565b916153b0565b91618267565b916153b0565b90612fd6565b90565b9161a8bc9061a89961a88b61a8c2949593505050915061a878565b5f7f746f416464726573735f6f75744f66426f756e64730000000000000000000000910152565b61a91a6015602092613928565b61a9238161a8e6565b0190565b61a93c9060208101905f81830391015261a90d565b90565b1561a94657565b61a94e6104b1565b62461bcd60e51b81528061a9646004820161a927565b0390fd5b9061a971614f9b565b5061a9aa61a97e83610b7a565b61a9a361a99d61a9988561a9926014619755565b90614192565b6104ce565b916104ce565b101561a93f565b61a9b2614f9b565b506020600160601b920101510490565b5f7f746f55696e7432345f6f766572666c6f77000000000000000000000000000000910152565b61a9f66011602092613928565b61a9ff8161a9c2565b0190565b61aa189060208101905f81830391015261a9e9565b90565b1561aa2257565b61aa2a6104b1565b62461bcd60e51b81528061aa406004820161aa03565b0390fd5b5f7f746f55696e7432345f6f75744f66426f756e6473000000000000000000000000910152565b61aa786014602092613928565b61aa818161aa44565b0190565b61aa9a9060208101905f81830391015261aa6b565b90565b1561aaa457565b61aaac6104b1565b62461bcd60e51b81528061aac26004820161aa85565b0390fd5b60039061aad16197de565b5061ab0161aae88461aae28561823d565b90614192565b61aafa61aaf4866104ce565b916104ce565b101561aa1b565b61ab3861ab0d82610b7a565b61ab3161ab2b61ab268761ab208861823d565b90614192565b6104ce565b916104ce565b101561aa9d565b61ab406197de565b5001015190565b90565b61ab5e61ab5961ab639261ab47565b61112e565b6104ce565b90565b5f7f736c6963655f6f766572666c6f77000000000000000000000000000000000000910152565b61ab9a600e602092613928565b61aba38161ab66565b0190565b61abbc9060208101905f81830391015261ab8d565b90565b1561abc657565b61abce6104b1565b62461bcd60e51b81528061abe46004820161aba7565b0390fd5b5f7f736c6963655f6f75744f66426f756e6473000000000000000000000000000000910152565b61ac1c6011602092613928565b61ac258161abe8565b0190565b61ac3e9060208101905f81830391015261ac0f565b90565b1561ac4857565b61ac506104b1565b62461bcd60e51b81528061ac666004820161ac29565b0390fd5b909161ac74619839565b5061aca561ac8c8261ac86601f61ab4a565b90614192565b61ac9e61ac98846104ce565b916104ce565b101561abbf565b61acd461acb183610b7a565b61accd61acc761acc2878690614192565b6104ce565b916104ce565b101561ac41565b61acdc619839565b5080155f1461acf9575050506040515f8152602081016040525b90565b60405192601f8216908115602002828601019383850192801560200291010101905b80841061ad355750508252601f801991011660405261acf6565b909260208091855181520193019061ad1b565b61ad5461ad5a916105bd565b916105bd565b900390627fffff8213627fffff1983121761ad7157565b61252b565b61ad8261ad88916105bd565b916105bd565b0190627fffff198212627fffff83131761ad9e57565b61252b565b61add691939261adc49161adb56122c1565b5061adbe6122c1565b5061b0b7565b9261add084829061ad48565b9361ad76565b90565b61ae249161ae299361ade961a071565b508261adfd61adf7846106d4565b916106d4565b1161ae2c575b61ae1961ae1e919361ae1361a78e565b9361a765565b6153b0565b91618267565b61b14a565b90565b919061ae1961ae1e919391505061ae03565b9161aea69161aeab9361ae4f61a071565b508061ae6361ae5d846106d4565b916106d4565b1161aeae575b61ae9b8161ae9561aea0938561ae8f61ae8961ae8361a78e565b936153b0565b916153b0565b90618267565b9361a765565b6153b0565b91618267565b61b14a565b90565b9061ae69565b3d5f1461aecf5761aec43d613b14565b903d5f602084013e5b565b61aed7619839565b9061aecd565b90915f8061af0c9461aeed619839565b508490602081019051915af49161af0261aeb4565b909290919261b1fe565b90565b905f809161af1b6147a7565b5061af2584617cee565b9082602082019151925af161af3861aeb4565b8161af63575b50908161af4a575b5090565b61af5d915061af5890617cee565b61b253565b5f61af46565b905061af6e81610b7a565b61af8061af7a5f6124a1565b916104ce565b1490811561af90575b505f61af3e565b61afab9150602061afa082610b7a565b818301019101615bcc565b5f61af89565b9061afd0929161afbf619839565b509061afca5f6124a1565b9161b327565b90565b61afe461afdf5f614a19565b61800d565b61afec61afee565b565b61affe61aff9619745565b617f0d565b565b61b00861afd3565b565b61b01b61b0165f614a19565b61800d565b61b02361b025565b565b61b0305f6065617c43565b565b61b03a61b00a565b565b61b04861b04e916105bd565b916105bd565b90811561b0705760015f038214627fffff1982141661b06b570590565b61252b565b612cc9565b61b08161b087916105bd565b916105bd565b90811561b092570790565b612cc9565b61b0a0906105bd565b627fffff19811461b0b2576001900390565b61252b565b9061b0f79161b0c46122c1565b5061b0d081839061b03c565b908061b0e461b0de5f6186a1565b916105bd565b12908161b108575b5061b0fa575b6137d0565b90565b61b1039061b097565b61b0f2565b61b1149150839061b075565b61b12661b1205f6186a1565b916105bd565b14155f61b0ec565b61b14261b13d61b147926104ce565b61112e565b6161e8565b90565b9061b15361a071565b5061b17a61b1608361b12e565b9261b17461b16e85926104ce565b9161626c565b14618213565b565b5f7f416464726573733a2063616c6c20746f206e6f6e2d636f6e7472616374000000910152565b61b1b0601d602092613928565b61b1b98161b17c565b0190565b61b1d29060208101905f81830391015261b1a3565b90565b1561b1dc57565b61b1e46104b1565b62461bcd60e51b81528061b1fa6004820161b1bd565b0390fd5b91929061b209619839565b505f1461b24d575061b21a82610b7a565b61b22c61b2265f6124a1565b916104ce565b1461b236575b5090565b61b24261b24791617f6e565b61b1d5565b5f61b232565b8261b3c9565b61b25b6147a7565b503b61b26f61b2695f6124a1565b916104ce565b1190565b61b27c9061114d565b90565b60207f722063616c6c0000000000000000000000000000000000000000000000000000917f416464726573733a20696e73756666696369656e742062616c616e636520666f5f8201520152565b61b2d96026604092613928565b61b2e28161b27f565b0190565b61b2fb9060208101905f81830391015261b2cc565b90565b1561b30557565b61b30d6104b1565b62461bcd60e51b81528061b3236004820161b2e6565b0390fd5b915f809161b37d959361b338619839565b5061b35f61b3453061b273565b3161b35861b352856104ce565b916104ce565b101561b2fe565b8591602082019151925af19161b37361aeb4565b909290919261b41a565b90565b61b39f61b3a860209361b3ad9361b39681611a16565b93848093613928565b95869101610b87565b610aec565b0190565b61b3c69160208201915f81840391015261b380565b90565b9061b3d382610b7a565b61b3e561b3df5f6124a1565b916104ce565b115f1461b3f55750805190602001fd5b61b4169061b4016104b1565b91829162461bcd60e51b83526004830161b3b1565b0390fd5b91929061b425619839565b505f1461b469575061b43682610b7a565b61b44861b4425f6124a1565b916104ce565b1461b452575b5090565b61b45e61b4639161b253565b61b1d5565b5f61b44e565b829061b47482610b7a565b61b48661b4805f6124a1565b916104ce565b115f1461b4965750805190602001fd5b61b4b79061b4a26104b1565b91829162461bcd60e51b83526004830161b3b1565b0390fdfea264697066735822122089ab7fb309caba1639c639b79045d1ef81ecd0d0b5031bf7b4e447c25b2a01c264736f6c634300081c0033","linkReferences":{}},"methodIdentifiers":{"balances()":"7bb98a68","balancesOfPool()":"fcc25e13","balancesOfThis()":"00a4b5c9","beefyFeeConfig()":"4746fb55","beefyFeeRecipient()":"8e145459","beforeAction()":"17dd7a72","claimEarnings()":"d9ceab13","currentTick()":"065e5360","deposit()":"d0e30db0","depositFee()":"67a52793","factory()":"c45a0155","fees0()":"93f1c442","fees1()":"4c02a21c","getAllFees()":"b20feaaf","getKeys()":"2150c518","getStratFeeId()":"8cfc0250","harvest()":"4641257d","harvest(address)":"0e5c011e","initialize(address,address,int24,bytes,bytes,(address,address,address,address))":"7f10e4b9","isCalm()":"9bdde46b","keeper()":"aced1661","lastHarvest()":"f1a392da","lastPositionAdjustment()":"865238d4","lockedProfit()":"44b81396","lpToken0()":"5ee167c0","lpToken0ToNative()":"2e773d32","lpToken0ToNativePath()":"1dcfeddd","lpToken0ToNativePrice()":"9c6d4904","lpToken1()":"877562b6","lpToken1ToNative()":"c6ebd4ae","lpToken1ToNativePath()":"953d329f","lpToken1ToNativePrice()":"16b9cd9c","maxTickDeviation()":"696c58e5","moveTicks()":"c7d54132","native()":"11b0b42d","owner()":"8da5cb5b","panic(uint256,uint256)":"60991346","paused()":"5c975abb","pool()":"16f0115b","positionAlt()":"99cd2446","positionMain()":"bc415d8a","positionWidth()":"8097e249","price()":"a035b1fe","proxiableUUID()":"52d1902d","quoter()":"c6bbd5a7","range()":"e97206a9","renounceOwnership()":"715018a6","retireVault()":"b3a60cb3","setDeviation(int56)":"362c28c6","setLpToken0ToNativePath(bytes)":"236db042","setLpToken1ToNativePath(bytes)":"08898ea0","setPositionWidth(int24)":"12cf1381","setStratFeeId(uint256)":"3e55f932","setStrategist(address)":"c7b9d530","setTwapInterval(uint32)":"1d27050f","setUnirouter(address)":"d92f3d73","sqrtPrice()":"b83d2683","strategist()":"1fe4a686","swapFee()":"54cf2aeb","totalLocked0()":"2b950b66","totalLocked1()":"04c404b3","transferOwnership(address)":"f2fde38b","twap()":"1208aa18","twapInterval()":"3c1d5df0","unirouter()":"257ae0de","uniswapV3MintCallback(uint256,uint256,bytes)":"d3487997","unpause()":"3f4ba83a","upgradeTo(address)":"3659cfe6","upgradeToAndCall(address,bytes)":"4f1ef286","upgradeToLatest()":"367ad9e2","vault()":"fbfa77cf","withdraw(uint256,uint256)":"441a3e70","withdrawFee()":"e941fa78"},"id":143}