{"abi":[{"type":"function","name":"balances","inputs":[],"outputs":[{"name":"token0Bal","type":"uint256","internalType":"uint256"},{"name":"token1Bal","type":"uint256","internalType":"uint256"}],"stateMutability":"view"},{"type":"function","name":"balancesOfPool","inputs":[],"outputs":[{"name":"token0Bal","type":"uint256","internalType":"uint256"},{"name":"token1Bal","type":"uint256","internalType":"uint256"},{"name":"mainAmount0","type":"uint256","internalType":"uint256"},{"name":"mainAmount1","type":"uint256","internalType":"uint256"},{"name":"altAmount0","type":"uint256","internalType":"uint256"},{"name":"altAmount1","type":"uint256","internalType":"uint256"}],"stateMutability":"view"},{"type":"function","name":"balancesOfThis","inputs":[],"outputs":[{"name":"token0Bal","type":"uint256","internalType":"uint256"},{"name":"token1Bal","type":"uint256","internalType":"uint256"}],"stateMutability":"view"},{"type":"function","name":"beefyFeeConfig","inputs":[],"outputs":[{"name":"","type":"address","internalType":"contract IFeeConfig"}],"stateMutability":"view"},{"type":"function","name":"beefyFeeRecipient","inputs":[],"outputs":[{"name":"","type":"address","internalType":"address"}],"stateMutability":"view"},{"type":"function","name":"beforeAction","inputs":[],"outputs":[],"stateMutability":"nonpayable"},{"type":"function","name":"claimEarnings","inputs":[],"outputs":[{"name":"fee0","type":"uint256","internalType":"uint256"},{"name":"fee1","type":"uint256","internalType":"uint256"},{"name":"feeAlt0","type":"uint256","internalType":"uint256"},{"name":"feeAlt1","type":"uint256","internalType":"uint256"}],"stateMutability":"nonpayable"},{"type":"function","name":"currentTick","inputs":[],"outputs":[{"name":"tick","type":"int24","internalType":"int24"}],"stateMutability":"view"},{"type":"function","name":"deposit","inputs":[],"outputs":[],"stateMutability":"nonpayable"},{"type":"function","name":"depositFee","inputs":[],"outputs":[{"name":"","type":"uint256","internalType":"uint256"}],"stateMutability":"view"},{"type":"function","name":"factory","inputs":[],"outputs":[{"name":"","type":"address","internalType":"contract IStrategyFactory"}],"stateMutability":"view"},{"type":"function","name":"fees0","inputs":[],"outputs":[{"name":"","type":"uint256","internalType":"uint256"}],"stateMutability":"view"},{"type":"function","name":"fees1","inputs":[],"outputs":[{"name":"","type":"uint256","internalType":"uint256"}],"stateMutability":"view"},{"type":"function","name":"getAllFees","inputs":[],"outputs":[{"name":"","type":"tuple","internalType":"struct IFeeConfig.AllFees","components":[{"name":"performance","type":"tuple","internalType":"struct IFeeConfig.FeeCategory","components":[{"name":"total","type":"uint256","internalType":"uint256"},{"name":"beefy","type":"uint256","internalType":"uint256"},{"name":"call","type":"uint256","internalType":"uint256"},{"name":"strategist","type":"uint256","internalType":"uint256"},{"name":"label","type":"string","internalType":"string"},{"name":"active","type":"bool","internalType":"bool"}]},{"name":"deposit","type":"uint256","internalType":"uint256"},{"name":"withdraw","type":"uint256","internalType":"uint256"}]}],"stateMutability":"view"},{"type":"function","name":"getKeys","inputs":[],"outputs":[{"name":"keyMain","type":"bytes32","internalType":"bytes32"},{"name":"keyAlt","type":"bytes32","internalType":"bytes32"}],"stateMutability":"view"},{"type":"function","name":"getStratFeeId","inputs":[],"outputs":[{"name":"","type":"uint256","internalType":"uint256"}],"stateMutability":"view"},{"type":"function","name":"harvest","inputs":[{"name":"_callFeeRecipient","type":"address","internalType":"address"}],"outputs":[],"stateMutability":"nonpayable"},{"type":"function","name":"harvest","inputs":[],"outputs":[],"stateMutability":"nonpayable"},{"type":"function","name":"initialize","inputs":[{"name":"_pool","type":"address","internalType":"address"},{"name":"_quoter","type":"address","internalType":"address"},{"name":"_positionWidth","type":"int24","internalType":"int24"},{"name":"_lpToken0ToNativePath","type":"bytes","internalType":"bytes"},{"name":"_lpToken1ToNativePath","type":"bytes","internalType":"bytes"},{"name":"_commonAddresses","type":"tuple","internalType":"struct StratFeeManagerInitializable.CommonAddresses","components":[{"name":"vault","type":"address","internalType":"address"},{"name":"unirouter","type":"address","internalType":"address"},{"name":"strategist","type":"address","internalType":"address"},{"name":"factory","type":"address","internalType":"address"}]}],"outputs":[],"stateMutability":"nonpayable"},{"type":"function","name":"isCalm","inputs":[],"outputs":[{"name":"","type":"bool","internalType":"bool"}],"stateMutability":"view"},{"type":"function","name":"keeper","inputs":[],"outputs":[{"name":"","type":"address","internalType":"address"}],"stateMutability":"view"},{"type":"function","name":"lastHarvest","inputs":[],"outputs":[{"name":"","type":"uint256","internalType":"uint256"}],"stateMutability":"view"},{"type":"function","name":"lastPositionAdjustment","inputs":[],"outputs":[{"name":"","type":"uint256","internalType":"uint256"}],"stateMutability":"view"},{"type":"function","name":"lockedProfit","inputs":[],"outputs":[{"name":"locked0","type":"uint256","internalType":"uint256"},{"name":"locked1","type":"uint256","internalType":"uint256"}],"stateMutability":"view"},{"type":"function","name":"lpToken0","inputs":[],"outputs":[{"name":"","type":"address","internalType":"address"}],"stateMutability":"view"},{"type":"function","name":"lpToken0ToNative","inputs":[],"outputs":[{"name":"","type":"address[]","internalType":"address[]"}],"stateMutability":"view"},{"type":"function","name":"lpToken0ToNativePath","inputs":[],"outputs":[{"name":"","type":"bytes","internalType":"bytes"}],"stateMutability":"view"},{"type":"function","name":"lpToken0ToNativePrice","inputs":[],"outputs":[{"name":"","type":"uint256","internalType":"uint256"}],"stateMutability":"nonpayable"},{"type":"function","name":"lpToken1","inputs":[],"outputs":[{"name":"","type":"address","internalType":"address"}],"stateMutability":"view"},{"type":"function","name":"lpToken1ToNative","inputs":[],"outputs":[{"name":"","type":"address[]","internalType":"address[]"}],"stateMutability":"view"},{"type":"function","name":"lpToken1ToNativePath","inputs":[],"outputs":[{"name":"","type":"bytes","internalType":"bytes"}],"stateMutability":"view"},{"type":"function","name":"lpToken1ToNativePrice","inputs":[],"outputs":[{"name":"","type":"uint256","internalType":"uint256"}],"stateMutability":"nonpayable"},{"type":"function","name":"maxTickDeviation","inputs":[],"outputs":[{"name":"","type":"int56","internalType":"int56"}],"stateMutability":"view"},{"type":"function","name":"moveTicks","inputs":[],"outputs":[],"stateMutability":"nonpayable"},{"type":"function","name":"native","inputs":[],"outputs":[{"name":"","type":"address","internalType":"address"}],"stateMutability":"view"},{"type":"function","name":"owner","inputs":[],"outputs":[{"name":"","type":"address","internalType":"address"}],"stateMutability":"view"},{"type":"function","name":"panic","inputs":[{"name":"_minAmount0","type":"uint256","internalType":"uint256"},{"name":"_minAmount1","type":"uint256","internalType":"uint256"}],"outputs":[],"stateMutability":"nonpayable"},{"type":"function","name":"paused","inputs":[],"outputs":[{"name":"","type":"bool","internalType":"bool"}],"stateMutability":"view"},{"type":"function","name":"pool","inputs":[],"outputs":[{"name":"","type":"address","internalType":"address"}],"stateMutability":"view"},{"type":"function","name":"positionAlt","inputs":[],"outputs":[{"name":"tickLower","type":"int24","internalType":"int24"},{"name":"tickUpper","type":"int24","internalType":"int24"}],"stateMutability":"view"},{"type":"function","name":"positionMain","inputs":[],"outputs":[{"name":"tickLower","type":"int24","internalType":"int24"},{"name":"tickUpper","type":"int24","internalType":"int24"}],"stateMutability":"view"},{"type":"function","name":"positionWidth","inputs":[],"outputs":[{"name":"","type":"int24","internalType":"int24"}],"stateMutability":"view"},{"type":"function","name":"price","inputs":[],"outputs":[{"name":"_price","type":"uint256","internalType":"uint256"}],"stateMutability":"view"},{"type":"function","name":"proxiableUUID","inputs":[],"outputs":[{"name":"","type":"bytes32","internalType":"bytes32"}],"stateMutability":"view"},{"type":"function","name":"quoter","inputs":[],"outputs":[{"name":"","type":"address","internalType":"address"}],"stateMutability":"view"},{"type":"function","name":"range","inputs":[],"outputs":[{"name":"lowerPrice","type":"uint256","internalType":"uint256"},{"name":"upperPrice","type":"uint256","internalType":"uint256"}],"stateMutability":"view"},{"type":"function","name":"renounceOwnership","inputs":[],"outputs":[],"stateMutability":"nonpayable"},{"type":"function","name":"retireVault","inputs":[],"outputs":[],"stateMutability":"nonpayable"},{"type":"function","name":"setDeviation","inputs":[{"name":"_maxDeviation","type":"int56","internalType":"int56"}],"outputs":[],"stateMutability":"nonpayable"},{"type":"function","name":"setLpToken0ToNativePath","inputs":[{"name":"_path","type":"bytes","internalType":"bytes"}],"outputs":[],"stateMutability":"nonpayable"},{"type":"function","name":"setLpToken1ToNativePath","inputs":[{"name":"_path","type":"bytes","internalType":"bytes"}],"outputs":[],"stateMutability":"nonpayable"},{"type":"function","name":"setPositionWidth","inputs":[{"name":"_width","type":"int24","internalType":"int24"}],"outputs":[],"stateMutability":"nonpayable"},{"type":"function","name":"setStratFeeId","inputs":[{"name":"_feeId","type":"uint256","internalType":"uint256"}],"outputs":[],"stateMutability":"nonpayable"},{"type":"function","name":"setStrategist","inputs":[{"name":"_strategist","type":"address","internalType":"address"}],"outputs":[],"stateMutability":"nonpayable"},{"type":"function","name":"setTwapInterval","inputs":[{"name":"_interval","type":"uint32","internalType":"uint32"}],"outputs":[],"stateMutability":"nonpayable"},{"type":"function","name":"setUnirouter","inputs":[{"name":"_unirouter","type":"address","internalType":"address"}],"outputs":[],"stateMutability":"nonpayable"},{"type":"function","name":"sqrtPrice","inputs":[],"outputs":[{"name":"sqrtPriceX96","type":"uint160","internalType":"uint160"}],"stateMutability":"view"},{"type":"function","name":"strategist","inputs":[],"outputs":[{"name":"","type":"address","internalType":"address"}],"stateMutability":"view"},{"type":"function","name":"swapFee","inputs":[],"outputs":[{"name":"fee","type":"uint256","internalType":"uint256"}],"stateMutability":"view"},{"type":"function","name":"totalLocked0","inputs":[],"outputs":[{"name":"","type":"uint256","internalType":"uint256"}],"stateMutability":"view"},{"type":"function","name":"totalLocked1","inputs":[],"outputs":[{"name":"","type":"uint256","internalType":"uint256"}],"stateMutability":"view"},{"type":"function","name":"transferOwnership","inputs":[{"name":"newOwner","type":"address","internalType":"address"}],"outputs":[],"stateMutability":"nonpayable"},{"type":"function","name":"twap","inputs":[],"outputs":[{"name":"twapTick","type":"int56","internalType":"int56"}],"stateMutability":"view"},{"type":"function","name":"twapInterval","inputs":[],"outputs":[{"name":"","type":"uint32","internalType":"uint32"}],"stateMutability":"view"},{"type":"function","name":"unirouter","inputs":[],"outputs":[{"name":"","type":"address","internalType":"address"}],"stateMutability":"view"},{"type":"function","name":"uniswapV3MintCallback","inputs":[{"name":"amount0","type":"uint256","internalType":"uint256"},{"name":"amount1","type":"uint256","internalType":"uint256"},{"name":"","type":"bytes","internalType":"bytes"}],"outputs":[],"stateMutability":"nonpayable"},{"type":"function","name":"unpause","inputs":[],"outputs":[],"stateMutability":"nonpayable"},{"type":"function","name":"upgradeTo","inputs":[{"name":"newImplementation","type":"address","internalType":"address"}],"outputs":[],"stateMutability":"nonpayable"},{"type":"function","name":"upgradeToAndCall","inputs":[{"name":"newImplementation","type":"address","internalType":"address"},{"name":"data","type":"bytes","internalType":"bytes"}],"outputs":[],"stateMutability":"payable"},{"type":"function","name":"upgradeToLatest","inputs":[],"outputs":[],"stateMutability":"nonpayable"},{"type":"function","name":"vault","inputs":[],"outputs":[{"name":"","type":"address","internalType":"address"}],"stateMutability":"view"},{"type":"function","name":"withdraw","inputs":[{"name":"_amount0","type":"uint256","internalType":"uint256"},{"name":"_amount1","type":"uint256","internalType":"uint256"}],"outputs":[],"stateMutability":"nonpayable"},{"type":"function","name":"withdrawFee","inputs":[],"outputs":[{"name":"","type":"uint256","internalType":"uint256"}],"stateMutability":"view"},{"type":"event","name":"AdminChanged","inputs":[{"name":"previousAdmin","type":"address","indexed":false,"internalType":"address"},{"name":"newAdmin","type":"address","indexed":false,"internalType":"address"}],"anonymous":false},{"type":"event","name":"BeaconUpgraded","inputs":[{"name":"beacon","type":"address","indexed":true,"internalType":"address"}],"anonymous":false},{"type":"event","name":"ChargedFees","inputs":[{"name":"callFeeAmount","type":"uint256","indexed":false,"internalType":"uint256"},{"name":"beefyFeeAmount","type":"uint256","indexed":false,"internalType":"uint256"},{"name":"strategistFeeAmount","type":"uint256","indexed":false,"internalType":"uint256"}],"anonymous":false},{"type":"event","name":"ClaimedFees","inputs":[{"name":"feeMain0","type":"uint256","indexed":false,"internalType":"uint256"},{"name":"feeMain1","type":"uint256","indexed":false,"internalType":"uint256"},{"name":"feeAlt0","type":"uint256","indexed":false,"internalType":"uint256"},{"name":"feeAlt1","type":"uint256","indexed":false,"internalType":"uint256"}],"anonymous":false},{"type":"event","name":"Harvest","inputs":[{"name":"fee0","type":"uint256","indexed":false,"internalType":"uint256"},{"name":"fee1","type":"uint256","indexed":false,"internalType":"uint256"}],"anonymous":false},{"type":"event","name":"Initialized","inputs":[{"name":"version","type":"uint8","indexed":false,"internalType":"uint8"}],"anonymous":false},{"type":"event","name":"OwnershipTransferred","inputs":[{"name":"previousOwner","type":"address","indexed":true,"internalType":"address"},{"name":"newOwner","type":"address","indexed":true,"internalType":"address"}],"anonymous":false},{"type":"event","name":"Paused","inputs":[{"name":"account","type":"address","indexed":false,"internalType":"address"}],"anonymous":false},{"type":"event","name":"SetDeviation","inputs":[{"name":"maxTickDeviation","type":"int56","indexed":false,"internalType":"int56"}],"anonymous":false},{"type":"event","name":"SetLpToken0ToNativePath","inputs":[{"name":"path","type":"bytes","indexed":false,"internalType":"bytes"}],"anonymous":false},{"type":"event","name":"SetLpToken1ToNativePath","inputs":[{"name":"path","type":"bytes","indexed":false,"internalType":"bytes"}],"anonymous":false},{"type":"event","name":"SetPositionWidth","inputs":[{"name":"oldWidth","type":"int24","indexed":false,"internalType":"int24"},{"name":"width","type":"int24","indexed":false,"internalType":"int24"}],"anonymous":false},{"type":"event","name":"SetQuoter","inputs":[{"name":"quoter","type":"address","indexed":false,"internalType":"address"}],"anonymous":false},{"type":"event","name":"SetStratFeeId","inputs":[{"name":"feeId","type":"uint256","indexed":false,"internalType":"uint256"}],"anonymous":false},{"type":"event","name":"SetStrategist","inputs":[{"name":"strategist","type":"address","indexed":false,"internalType":"address"}],"anonymous":false},{"type":"event","name":"SetTwapInterval","inputs":[{"name":"oldInterval","type":"uint32","indexed":false,"internalType":"uint32"},{"name":"interval","type":"uint32","indexed":false,"internalType":"uint32"}],"anonymous":false},{"type":"event","name":"SetUnirouter","inputs":[{"name":"unirouter","type":"address","indexed":false,"internalType":"address"}],"anonymous":false},{"type":"event","name":"TVL","inputs":[{"name":"bal0","type":"uint256","indexed":false,"internalType":"uint256"},{"name":"bal1","type":"uint256","indexed":false,"internalType":"uint256"}],"anonymous":false},{"type":"event","name":"Unpaused","inputs":[{"name":"account","type":"address","indexed":false,"internalType":"address"}],"anonymous":false},{"type":"event","name":"Upgraded","inputs":[{"name":"implementation","type":"address","indexed":true,"internalType":"address"}],"anonymous":false},{"type":"error","name":"InvalidEntry","inputs":[]},{"type":"error","name":"InvalidInput","inputs":[]},{"type":"error","name":"InvalidOutput","inputs":[]},{"type":"error","name":"InvalidTicks","inputs":[]},{"type":"error","name":"NotAuthorized","inputs":[]},{"type":"error","name":"NotCalm","inputs":[]},{"type":"error","name":"NotManager","inputs":[]},{"type":"error","name":"NotPool","inputs":[]},{"type":"error","name":"NotStrategist","inputs":[]},{"type":"error","name":"NotVault","inputs":[]},{"type":"error","name":"OverLimit","inputs":[]},{"type":"error","name":"StrategyPaused","inputs":[]},{"type":"error","name":"TooMuchSlippage","inputs":[]}],"bytecode":{"object":"0x60a080604052346100da575f549060ff8260081c16610088575060ff8082160361004e575b3060805260405161669c90816100df82396080518181816112d801528181611b590152611c4e0152f35b60ff90811916175f557f7f26b83ff96e1f2b6a682f133852f6798a09c465da95921460cefb3847402498602060405160ff8152a15f610024565b62461bcd60e51b815260206004820152602760248201527f496e697469616c697a61626c653a20636f6e747261637420697320696e697469604482015266616c697a696e6760c81b6064820152608490fd5b5f80fdfe60806040526004361015610011575f80fd5b5f3560e01c8062a4b5c91461049e57806304c404b314610499578063065e53601461049457806308898ea01461048f5780630e5c011e1461048a57806311b0b42d146104855780631208aa181461048057806312cf13811461047b57806316b9cd9c1461047657806316f0115b1461047157806317dd7a721461046c5780631d27050f146104675780631dcfeddd146104625780631fe4a6861461045d5780632150c51814610458578063236db04214610453578063257ae0de1461044e5780632b950b66146104495780632e773d3214610444578063362c28c61461043f5780633659cfe61461043a578063367ad9e2146104355780633c1d5df0146104305780633e55f9321461042b5780633f4ba83a14610426578063441a3e701461042157806344b813961461041c5780634641257d146104175780634746fb55146104125780634c02a21c1461040d5780634f1ef2861461040857806352d1902d1461040357806354cf2aeb146103fe5780635c975abb146103f95780635ee167c0146103f457806360991346146103ef57806367a5279314610354578063696c58e5146103ea578063715018a6146103e55780637bb98a68146103e05780637f10e4b9146103db5780638097e249146103d6578063865238d4146103d1578063877562b6146103cc5780638cfc0250146103c75780638da5cb5b146103c25780638e145459146103bd57806393f1c442146103b8578063953d329f146103b357806399cd2446146103ae5780639bdde46b146103a95780639c6d4904146103a4578063a035b1fe1461039f578063aced16611461039a578063b20feaaf14610395578063b3a60cb314610390578063b83d26831461038b578063bc415d8a14610386578063c45a015514610381578063c6bbd5a71461037c578063c6ebd4ae14610377578063c7b9d53014610372578063c7d541321461036d578063d0e30db014610368578063d348799714610363578063d92f3d731461035e578063d9ceab1314610359578063e941fa7814610354578063e97206a91461034f578063f1a392da1461034a578063f2fde38b14610345578063fbfa77cf146103405763fcc25e131461033b575f80fd5b612a6d565b612a45565b6129b4565b612997565b61294c565b611ef3565b612921565b612885565b6127a1565b61261f565b61258a565b612501565b6124e6565b6124be565b612496565b612469565b61244f565b6122e8565b612221565b612207565b6121d4565b6121ba565b612196565b612169565b612139565b61211c565b612102565b6120da565b61205b565b612033565b612016565b611ff6565b611f68565b611f50565b611f30565b611f0d565b611df5565b611dcd565b611dab565b611cfa565b611c3c565b611b1d565b611a91565b611a65565b611778565b611760565b61168b565b6115aa565b6114c6565b6114a0565b6113e9565b6112b6565b611220565b6111ee565b61118f565b611167565b6110ca565b6110a4565b61107c565b61104d565b610dc4565b610d8a565b610d62565b610d40565b610b1a565b610aea565b610abc565b61068a565b610581565b610501565b6104e4565b6104b4565b908152602081019190915260400190565b346104e0575f3660031901126104e0576104cc612ac6565b906104dc604051928392836104a3565b0390f35b5f80fd5b346104e0575f3660031901126104e0576020609d54604051908152f35b346104e0575f3660031901126104e057602061051b612c11565b6040519060020b8152f35b9181601f840112156104e0578235916001600160401b0383116104e057602083818601950101116104e057565b60206003198201126104e057600435906001600160401b0382116104e05761057d91600401610526565b9091565b346104e05761058f36610553565b6105976143d5565b8061059e57005b6105b16105ac368385611ac9565b61442d565b6105ca6105bd82612d35565b516001600160a01b031690565b6105dd6105d860d45461066d565b61066d565b6001600160a01b039091160361065e576105bd816105fe6106049351612d7f565b90612d57565b6106126105d860975461066d565b6001600160a01b039091160361064f578161063b825f5160206165875f395f51905f5294612dfe565b61064a60405192839283612f8e565b0390a1005b6398f7360960e01b5f5260045ffd5b63b4fa3fb360e01b5f5260045ffd5b6001600160a01b031690565b6001600160a01b038116036104e057565b346104e05760203660031901126104e0576004356106a781610679565b6106af615165565b6106b7614523565b505050506106c3614895565b60d55460d654915f905f926106d6615686565b945f91806109c7575b5080610825575b505f5160206166475f395f51905f52916107c46107896107539361078461075b61072b60608c61073961072b5f5160206164e75f395f51905f529f6040015188613301565b670de0b6b3a7640000900490565b998a809a61074e6105d86105d860975461066d565b61519e565b015184613301565b958692610784846107736105d86105d860975461066d565b61077e609a5461066d565b9061519e565b612da2565b926107a78461079f6105d86105d860975461066d565b61077e613ced565b604051938493846040919493926060820195825260208201520152565b0390a16107cf614c0c565b6107d85f60d555565b6107e15f60d655565b61080d6108086107fd6108026107f5613821565b929086613814565b609c55565b84613814565b609d55565b61081642609e55565b61064a604051928392836104a3565b935061083f61083861072b875187613301565b8095612da2565b935f61084c60d45461066d565b61085760975461066d565b6108608161066d565b6001600160a01b038316036108fd575b50506107895f5160206164e75f395f51905f529761078461075b61072b6060610753985f5160206166475f395f51905f529a986107c4986108b260d45461066d565b6108c06105d860975461066d565b6001600160a01b03909116036108ec57506108da91613814565b945b9c505050505093505050916106e6565b90506108f791613814565b946108dc565b61093a925092602091819596945f61091c6105d86105d860995461066d565b9260405196879586948593630df791e560e41b855260048501615c61565b03925af19081156109c2575f5160206164e75f395f51905f529761078461075b61072b60605f5160206166475f395f51905f5299610753996107c498610789985f91610993575b509850989a5098505050505097610870565b6109b5915060203d6020116109bb575b6109ad8183610ee0565b810190612aac565b5f610981565b503d6109a3565b612abb565b9350906109db61083861072b885187613301565b935f916109e960d35461066d565b6109f460975461066d565b6109fd8161066d565b6001600160a01b03831603610a52575b5050610a1a60d35461066d565b610a286105d860975461066d565b6001600160a01b0390911603610a4a57610a429250613814565b905b5f6106df565b505090610a44565b610a6f92945060209184915f61091c6105d86105d860995461066d565b03925af19081156109c2575f91610a8a575b50915f80610a0d565b610aa3915060203d6020116109bb576109ad8183610ee0565b5f610a81565b6001600160a01b03909116815260200190565b346104e0575f3660031901126104e0576097546040516001600160a01b039091168152602090f35b60060b90565b346104e0575f3660031901126104e0576020610b0461317a565b6040519060060b8152f35b8060020b036104e057565b346104e05760203660031901126104e057600435610b3781610b0f565b610b3f6143d5565b7f69d927977053f4ff4a26e8d792564e367e844a869cda4df12630bf7b62a632de8160db5460020b610b7660405192839283612154565b0390a1610b81614523565b50505050610b8d614895565b62ffffff1960db54169062ffffff16178060db55610ba9615165565b610bb1612c11565b610bc6610bbc614e7c565b809360020b6136af565b610bf6610bd48483856162c4565b91909160d9549060181b65ffffff000000169065ffffff00000019161760d955565b62ffffff1960d954169062ffffff161760d955610c11612ac6565b5f9180610d0d575b5080821015610cd0575050918082610c41610c3b83610c4c97610c46976162c4565b5061327c565b6162c4565b50615c83565b60d954610c598160020b90565b60da5490610c70610c6a8360020b90565b60020b90565b9060020b149182610ca4575b5050610c9557610c8b42609f55565b610c93614c0c565b005b631434ed7f60e01b5f5260045ffd5b610cc4919250610cba610c6a9160181c60020b90565b9260181c60020b90565b9060020b145f80610c7c565b93919310610ce1575b505050610c4c565b610d059282610c41610cf78480610cfe976162c4565b905061327c565b9050615c83565b5f8080610cd9565b610d39919250610d2590610d1f613f2c565b90613301565b6a0c097ce7bc90715b34b9f160241b900490565b905f610c19565b346104e0575f3660031901126104e0576020610d5a613429565b604051908152f35b346104e0575f3660031901126104e05760d1546040516001600160a01b039091168152602090f35b346104e0575f3660031901126104e057610da2614e59565b610daa614523565b50505050610c93614895565b63ffffffff8116036104e057565b346104e05760203660031901126104e057600435610de181610db6565b610de96143d5565b603c63ffffffff60db5460501c166040519081527f86139943149914833c057d2c24f3a3967cce8e6aba2eb12e422500d8a51ffc7b604063ffffffff851692836020820152a11061065e5760db805463ffffffff60501b191660509290921b63ffffffff60501b16919091179055005b90600182811c92168015610e87575b6020831014610e7357565b634e487b7160e01b5f52602260045260245ffd5b91607f1691610e68565b634e487b7160e01b5f52604160045260245ffd5b606081019081106001600160401b03821117610ec057604052565b610e91565b60c081019081106001600160401b03821117610ec057604052565b601f909101601f19168101906001600160401b03821190821017610ec057604052565b604051905f8260d75491610f1683610e59565b8083529260018116908115610f885750600114610f3c575b610f3a92500383610ee0565b565b5060d75f90815290915f5160206166075f395f51905f525b818310610f6c575050906020610f3a92820101610f2e565b6020919350806001915483858901015201910190918492610f54565b60209250610f3a94915060ff191682840152151560051b820101610f2e565b604051905f8260d85491610fba83610e59565b8083529260018116908115610f885750600114610fdd57610f3a92500383610ee0565b5060d85f90815290915f5160206165075f395f51905f525b81831061100d575050906020610f3a92820101610f2e565b6020919350806001915483858901015201910190918492610ff5565b805180835260209291819084018484015e5f828201840152601f01601f1916010190565b346104e0575f3660031901126104e0576104dc611068610f03565b604051918291602083526020830190611029565b346104e0575f3660031901126104e057609a546040516001600160a01b039091168152602090f35b346104e0575f3660031901126104e05760406110be61356b565b82519182526020820152f35b346104e0576110d836610553565b6110e06143d5565b806110e757005b6110f56105ac368385611ac9565b6111016105bd82612d35565b61110f6105d860d35461066d565b6001600160a01b039091160361065e576105bd816105fe6111309351612d7f565b61113e6105d860975461066d565b6001600160a01b039091160361064f578161063b825f5160206165475f395f51905f5294612ecc565b346104e0575f3660031901126104e0576099546040516001600160a01b039091168152602090f35b346104e0575f3660031901126104e0576020609c54604051908152f35b60206040818301928281528451809452019201905f5b8181106111cf5750505090565b82516001600160a01b03168452602093840193909201916001016111c2565b346104e0575f3660031901126104e0576104dc611209613678565b604051918291826111ac565b8060060b036104e057565b346104e05760203660031901126104e05760043561123d81611215565b6112456143d5565b6040517f69d3f73bfb3c2f0de63dc1de2ed486cf45d88ebfff8cb1e8f124b085d2bafb9760208360060b92838152a161128461127f614e7c565b61369b565b60020b131561065e5760db549060181b69ffffffffffffff000000169069ffffffffffffff00000019161760db555f80f35b346104e05760203660031901126104e0576004356112d381610679565b61132a7f00000000000000000000000000000000000000000000000000000000000000006001600160a01b031661130c308214156136c6565b5f5160206165675f395f51905f52546001600160a01b031614613714565b61133381614ee8565b61133b61365d565b5f5160206164c75f395f51905f525460ff161561135c5750610c9390615dee565b6040516352d1902d60e01b8152906020826004816001600160a01b0387165afa5f92816113c8575b506113a65760405162461bcd60e51b8152806113a260048201614ff7565b0390fd5b610c93926113c35f5160206165675f395f51905f525f9414614f99565b6150eb565b6113e291935060203d6020116109bb576109ad8183610ee0565b915f611384565b346104e0575f3660031901126104e0576114016143d5565b609b5461141a906105d8906001600160a01b031661066d565b60206040518092631f1097e560e01b8252818061143960048201613777565b03915afa80156109c257610c93915f91611471575b506114636001600160a01b03821615156137af565b61146b61365d565b90615046565b611493915060203d602011611499575b61148b8183610ee0565b810190613762565b5f61144e565b503d611481565b346104e0575f3660031901126104e057602063ffffffff60db5460501c16604051908152f35b346104e0575f60203660031901126104e0576004356033546001600160a01b031633141580611590575b611581576001600160a01b036115046138d7565b16803b156104e0575f8091602460405180948193631f2afc9960e11b83528760048401525af180156109c25761156a575b506040519081527f9163810ee1e29168d4ce900e48a333fb8fbd3fd070d2bef67f6d4db0846a469f9080602081015b0390a180f35b6115779192505f90610ee0565b5f90611564611535565b63607e454560e11b5f5260045ffd5b506001600160a01b036115a1613f42565b163314156114f0565b346104e0575f3660031901126104e0576033546001600160a01b03163381141580611671575b6115815715611662576115e161512d565b60655460ff8116156116265760ff19166065557f5db9ee0a495bf2e6ff9c91a7834c1ba4fdd244a5e8aa4e537bd38aeae4b073aa6020604051338152a1610c8b614aee565b60405162461bcd60e51b815260206004820152601460248201527314185d5cd8589b194e881b9bdd081c185d5cd95960621b6044820152606490fd5b63ea8e4eb560e01b5f5260045ffd5b506001600160a01b03611682613f42565b163314156115d0565b346104e05760403660031901126104e0576024356004356116aa614e59565b60dc544214611753575b8061172f575b5080611709575b506116d16116cd6151d8565b1590565b6116fc575b5f5160206165a75f395f51905f526116ec6139bf565b9061064a604051928392836104a3565b611704614c0c565b6116d6565b6117299061171e6105d86105d860d45461066d565b61077e60985461066d565b5f6116c1565b60d35461174d919061171e906105d8906001600160a01b031661066d565b5f6116ba565b61175b615165565b6116b4565b346104e0575f3660031901126104e0576104cc613821565b346104e0575f3660031901126104e057611790615165565b611798614523565b505050506117a4614895565b60d55460d654905f5f916117b6615686565b935f9180611983575b5080611820575b506060846107c46107895f5160206166475f395f51905f529461078461075b61072b61180761072b60405f5160206164e75f395f51905f529e015186613301565b978897610753893261074e6105d86105d860975461066d565b925061183a61183361072b865186613301565b8094612da2565b925f61184760d45461066d565b61185260975461066d565b61185b8161066d565b6001600160a01b038316036118e3575b5050946107c46107895f5160206166475f395f51905f52946060945f5160206164e75f395f51905f52996118a060d45461066d565b6118ae6105d860975461066d565b6001600160a01b03909116036118d357506118c891613814565b9450505094506117c6565b90506118de91613814565b6118c8565b61191e97925060209184915f6119006105d86105d860995461066d565b926040519b8c9586948593630df791e560e41b855260048501615c61565b03925af180156109c2576107895f5160206166475f395f51905f52946060946107c4935f5160206164e75f395f51905f529a5f91611964575b509499509450945061186b565b61197d915060203d6020116109bb576109ad8183610ee0565b5f611957565b92509061199761183361072b875186613301565b925f916119a560d35461066d565b6119b060975461066d565b6119b98161066d565b6001600160a01b03831603611a0e575b50506119d660d35461066d565b6119e46105d860975461066d565b6001600160a01b0390911603611a06576119fe9250613814565b905b5f6117bf565b505090611a00565b611a2b92945060209184915f61091c6105d86105d860995461066d565b03925af19081156109c2575f91611a46575b50915f806119c9565b611a5f915060203d6020116109bb576109ad8183610ee0565b5f611a3d565b346104e0575f3660031901126104e0576020611a7f6138d7565b6040516001600160a01b039091168152f35b346104e0575f3660031901126104e057602060d654604051908152f35b6001600160401b038111610ec057601f01601f191660200190565b929192611ad582611aae565b91611ae36040519384610ee0565b8294818452818301116104e0578281602093845f960137010152565b9080601f830112156104e057816020611b1a93359101611ac9565b90565b60403660031901126104e057600435611b3581610679565b6024356001600160401b0381116104e057611b54903690600401611aff565b611b8d7f00000000000000000000000000000000000000000000000000000000000000006001600160a01b031661130c308214156136c6565b611b9682614ee8565b5f5160206164c75f395f51905f525460ff1615611bb75750610c9390615dee565b6040516352d1902d60e01b8152906020826004816001600160a01b0387165afa5f9281611c1b575b50611bfd5760405162461bcd60e51b8152806113a260048201614ff7565b610c93926113c35f5160206165675f395f51905f5260019414614f99565b611c3591935060203d6020116109bb576109ad8183610ee0565b915f611bdf565b346104e0575f3660031901126104e0577f00000000000000000000000000000000000000000000000000000000000000006001600160a01b03163003611c94576040515f5160206165675f395f51905f528152602090f35b60405162461bcd60e51b815260206004820152603860248201527f555550535570677261646561626c653a206d757374206e6f742062652063616c6044820152771b1959081d1a1c9bdd59da0819195b1959d85d1958d85b1b60421b6064820152608490fd5b346104e0575f3660031901126104e05760d15460405163ddca3f4360e01b815290602090829060049082906001600160a01b03165afa9081156109c2575f91611d6b575b6104dc611d5b611d5262ffffff85166132c7565b620f4240900490565b6040519081529081906020820190565b90506020813d602011611da3575b81611d8660209383610ee0565b810103126104e0575162ffffff811681036104e057611d5b611d3e565b3d9150611d79565b346104e0575f3660031901126104e057602060ff606554166040519015158152f35b346104e0575f3660031901126104e05760d3546040516001600160a01b039091168152602090f35b346104e05760403660031901126104e0576004356024356033546001600160a01b031633141580611ed9575b61158157611e2d614523565b50505050611e39614895565b611e41615238565b60655460ff8116611ea15760019060ff1916176065555f5160206166275f395f51905f526020604051338152a1611e766139bf565b9211918215611e97575b5050611e8857005b63fa6ad35560e01b5f5260045ffd5b1090505f80611e80565b60405162461bcd60e51b815260206004820152601060248201526f14185d5cd8589b194e881c185d5cd95960821b6044820152606490fd5b506001600160a01b03611eea613f42565b16331415611e21565b346104e0575f3660031901126104e05760206040515f8152f35b346104e0575f3660031901126104e057602060db5460181c60060b604051908152f35b346104e0575f3660031901126104e057611f486143d5565b610c93615270565b346104e0575f3660031901126104e0576104cc6139bf565b346104e0576101203660031901126104e057600435611f8681610679565b602435611f9281610679565b60443590611f9f82610b0f565b6064356001600160401b0381116104e057611fbe903690600401610526565b906084356001600160401b0381116104e057611fde903690600401610526565b94909360803660a31901126104e057610c9396613aa1565b346104e0575f3660031901126104e057602060db5460020b604051908152f35b346104e0575f3660031901126104e0576020609f54604051908152f35b346104e0575f3660031901126104e05760d4546040516001600160a01b039091168152602090f35b346104e0575f3660031901126104e057602460206001600160a01b0361207f6138d7565b1660405192838092636788231160e11b82523060048301525afa80156109c2576104dc915f916120bb575b506040519081529081906020820190565b6120d4915060203d6020116109bb576109ad8183610ee0565b5f6120aa565b346104e0575f3660031901126104e0576033546040516001600160a01b039091168152602090f35b346104e0575f3660031901126104e0576020611a7f613ced565b346104e0575f3660031901126104e057602060d554604051908152f35b346104e0575f3660031901126104e0576104dc611068610fa7565b600291820b815291900b602082015260400190565b346104e0575f3660031901126104e0576104dc60da546040519181839260181c60020b9060020b83612154565b346104e0575f3660031901126104e05760206121b0613d63565b6040519015158152f35b346104e0575f3660031901126104e0576020610d5a613dfc565b346104e0575f3660031901126104e0576020610d5a6122026001600160a01b036121fc613faa565b166154b9565b613e9a565b346104e0575f3660031901126104e0576020611a7f613f42565b346104e0575f3660031901126104e0575f6040805161223f81610ea5565b612247613f79565b81528260208201520152612259615686565b6040519061226682610ea5565b815260208101905f825260408101915f83526040519283926020845251916060602085015282516080850152602083015160a0850152604083015160c0850152606083015160e085015260a06122cd608085015160c0610100880152610140870190611029565b93015115156101208501525160408401525160608301520390f35b346104e0575f3660031901126104e0576123006143d5565b600460206123156105d86105d860985461066d565b6040516318160ddd60e01b815292839182905afa80156109c2576103e8915f91612430575b500361166257612348613937565b612350613ced565b612358612ac6565b906123de575b61236a57610c93615270565b61237b6105d86105d860d45461066d565b6040516370a0823160e01b8152916020838061239a3060048301610aa9565b0381855afa9182156109c2576123b7935f936123bd575b5061519e565b5f611f48565b6123d791935060203d6020116109bb576109ad8183610ee0565b915f6123b1565b6123ef6105d86105d860d35461066d565b6040516370a0823160e01b81526020818061240d3060048301610aa9565b0381855afa9081156109c25761242b9285915f936123bd575061519e565b61235e565b612449915060203d6020116109bb576109ad8183610ee0565b5f61233a565b346104e0575f3660031901126104e0576020611a7f613faa565b346104e0575f3660031901126104e0576104dc60d9546040519181839260181c60020b9060020b83612154565b346104e0575f3660031901126104e057609b546040516001600160a01b039091168152602090f35b346104e0575f3660031901126104e05760d2546040516001600160a01b039091168152602090f35b346104e0575f3660031901126104e0576104dc611209614003565b346104e05760203660031901126104e05760043561251e81610679565b609a54906001600160a01b038216330361257b576001600160a01b03166001600160a01b0319919091168117609a556040519081527f46d58e3fa07bf19b1d27240f0e286b27e9f7c1b0d88933333fe833b60eec541290602090a1005b633163ba6d60e11b5f5260045ffd5b346104e0575f3660031901126104e0576125a2615165565b609b546040516305226abd60e51b81529060209082906001600160a01b031681806125d03360048301610aa9565b03915afa9081156109c2575f916125f0575b501561166257610c93614032565b612612915060203d602011612618575b61260a8183610ee0565b81019061401e565b5f6125e2565b503d612600565b346104e0575f3660031901126104e057612637615165565b61263f614e59565b60db5460ff8160781c1615612677575b612657614c0c565b5f5160206165a75f395f51905f5261266d6139bf565b906108164260dc55565b61267f615165565b612687612c11565b612692610bbc614e7c565b6126a0610bd48483856162c4565b62ffffff1960d954169062ffffff161760d9556126bb612ac6565b5f9180612788575b5080821015612759575050918082610c41610c3b836126e597610c46976162c4565b60d9546126f28160020b90565b60da5490612703610c6a8360020b90565b9060020b149182612737575b5050610c955761271e42609f55565b60db805460ff60781b1916600160781b1790555f61264f565b61274d919250610cba610c6a9160181c60020b90565b9060020b145f8061270f565b9391931061276a575b5050506126e5565b6127809282610c41610cf78480610cfe976162c4565b5f8080612762565b61279a919250610d2590610d1f613f2c565b905f6126c3565b346104e05760603660031901126104e0576024356004356044356001600160401b0381116104e0576127d7903690600401611aff565b506127e360d15461066d565b906127ed8261066d565b33036128765760db546128049060701c60ff161590565b612867578061284b575b505080612825575b60db805460ff60701b19169055005b6128459061283a6105d86105d860d45461066d565b61077e60d15461066d565b5f612816565b6128609161074e6105d86105d860d35461066d565b5f8061280e565b63887efaa560e01b5f5260045ffd5b636f61f64160e01b5f5260045ffd5b346104e05760203660031901126104e0577f5ca6e64c4522e68e154aa9372f2c5969cd37d9640e59f66953dc472f54ee86fa60206004356128c581610679565b6128cd6143d5565b6128d5615238565b609980546001600160a01b0319166001600160a01b039290921691821790556128fc61512d565b604051908152a1005b9094939260609260808301968352602083015260408201520152565b346104e0575f3660031901126104e0576104dc61293c614523565b9060409492945194859485612905565b346104e0575f3660031901126104e05760d9546104cc61220261297e816001600160a01b036121fc600287900b6157d8565b926001600160a01b03906121fc9060181c60020b6157d8565b346104e0575f3660031901126104e0576020609e54604051908152f35b346104e05760203660031901126104e0576004356129d181610679565b6129d96143d5565b6001600160a01b038116156129f157610c93906152a0565b60405162461bcd60e51b815260206004820152602660248201527f4f776e61626c653a206e6577206f776e657220697320746865207a65726f206160448201526564647265737360d01b6064820152608490fd5b346104e0575f3660031901126104e0576098546040516001600160a01b039091168152602090f35b346104e0575f3660031901126104e05760c0612a876141f4565b93604093919351958652602086015260408501526060840152608083015260a0820152f35b908160209103126104e0575190565b6040513d5f823e3d90fd5b612ad76105d86105d860d35461066d565b90602060405180936370a0823160e01b82528180612af83060048301610aa9565b03915afa9182156109c2575f92612b6d575b50612b1c6105d86105d860d45461066d565b91602060405180946370a0823160e01b82528180612b3d3060048301610aa9565b03915afa9283156109c2575f93612b5357509190565b611b1a91935060203d6020116109bb576109ad8183610ee0565b612b8791925060203d6020116109bb576109ad8183610ee0565b905f612b0a565b519061ffff821682036104e057565b519081151582036104e057565b908160e09103126104e0578051612bc081610679565b916020820151612bcf81610b0f565b91612bdc60408201612b8e565b91612be960608301612b8e565b91612bf660808201612b8e565b91611b1a60c060a0840151612c0a81610db6565b9301612b9d565b60d154604051633850c7bd60e01b81529060e090829060049082906001600160a01b03165afa9081156109c2575f91612c48575090565b612c6a915060e03d60e011612c74575b612c628183610ee0565b810190612baa565b5050505050905090565b503d612c58565b90612c846143d5565b80612c8d575050565b612c9b6105ac368385611ac9565b612ca76105bd82612d35565b612cb56105d860d45461066d565b6001600160a01b039091160361065e576105bd816105fe612cd69351612d7f565b612ce46105d860975461066d565b6001600160a01b039091160361064f5781612d0d825f5160206165875f395f51905f5294612dfe565b612d1c60405192839283612f8e565b0390a1565b634e487b7160e01b5f52603260045260245ffd5b805115612d425760200190565b612d21565b805160011015612d425760400190565b8051821015612d425760209160051b010190565b634e487b7160e01b5f52601160045260245ffd5b5f19810191908211612d8d57565b612d6b565b610e100390610e108211612d8d57565b91908203918211612d8d57565b601f8211612dbc57505050565b5f5260205f20906020601f840160051c83019310612df4575b601f0160051c01905b818110612de9575050565b5f8155600101612dde565b9091508190612dd5565b91906001600160401b038111610ec057612e2481612e1d60d854610e59565b60d8612daf565b5f601f8211600114612e62578190612e5293945f92612e57575b50508160011b915f199060031b1c19161790565b60d855565b013590505f80612e3e565b60d85f52601f198216935f5160206165075f395f51905f52915f5b868110612eb45750836001959610612e9b575b505050811b0160d855565b01355f19600384901b60f8161c191690555f8080612e90565b90926020600181928686013581550194019101612e7d565b91906001600160401b038111610ec057612ef281612eeb60d754610e59565b60d7612daf565b5f601f8211600114612f24578190612f1f93945f92612e575750508160011b915f199060031b1c19161790565b60d755565b60d75f52601f198216935f5160206166075f395f51905f52915f5b868110612f765750836001959610612f5d575b505050811b0160d755565b01355f19600384901b60f8161c191690555f8080612f52565b90926020600181928686013581550194019101612f3f565b90918060409360208452816020850152848401375f828201840152601f01601f1916010190565b6001600160401b038111610ec05760051b60200190565b9080601f830112156104e0578151612fe381612fb5565b92612ff16040519485610ee0565b81845260208085019260051b8201019283116104e057602001905b8282106130195750505090565b60208091835161302881610679565b81520191019061300c565b9190916040818403126104e05780516001600160401b0381116104e057810183601f820112156104e05780519061306982612fb5565b916130776040519384610ee0565b80835260208084019160051b830101918683116104e057602001905b8282106130bd5750505060208201519093906001600160401b0381116104e057611b1a9201612fcc565b6020809183516130cc81611215565b815201910190613093565b60206040818301928281528451809452019201905f5b8181106130fa5750505090565b825163ffffffff168452602093840193909201916001016130ed565b600691820b910b0390667fffffffffffff198212667fffffffffffff831317612d8d57565b634e487b7160e01b5f52601260045260245ffd5b60060b9060060b90811561317557667fffffffffffff1981145f19831416612d8d570590565b61313b565b60405160609061318a8282610ee0565b600281526131fa91601f190136602083013760db545f9060501c63ffffffff16916131c3836131b883612d35565b9063ffffffff169052565b816131cd82612d47565b526131df6105d86105d860d15461066d565b604051808096819463883bdbfd60e01b8352600483016130d7565b03915afa9182156109c25761324d613240611b1a94613253935f91613259575b5061323a61322d61323461322d84612d47565b5160060b90565b92612d35565b90613116565b9263ffffffff1660030b90565b60030b90565b9061314f565b61327591503d805f833e61326d8183610ee0565b810190613033565b505f61321a565b62ffffff1960da54169062ffffff161760da55565b908160209103126104e0575160ff811681036104e05790565b60ff16604d8111612d8d57600a0a90565b8015613175575f190490565b90670de0b6b3a7640000820291808304670de0b6b3a76400001490151715612d8d57565b90600a820291808304600a1490151715612d8d57565b81810292918115918404141715612d8d57565b9190604083525f60d8549061332882610e59565b918260408701526001811690815f14613390575060011461334d575b60209150930152565b5060d85f9081525f5160206165075f395f51905f525b8282106133795750602091508401606001613344565b600181602092546060858a01015201910190613363565b60609250602093915060ff191682870152151560051b850101613344565b9190604083525f60d754906133c282610e59565b918260408701526001811690815f1461339057506001146133e65760209150930152565b5060d75f9081525f5160206166075f395f51905f525b8282106134125750602091508401606001613344565b600181602092546060858a010152019101906133fc565b61343460d45461066d565b600460206134446105d88461066d565b60405163313ce56760e01b815292839182905afa9081156109c25761347b91613474915f91613512575b506132aa565b600a900490565b9061348a6105d860975461066d565b6001600160a01b03909116146135095760206134cf5f926134b26105d86105d860d25461066d565b9060405194858094819363cdca175360e01b835260048301613314565b03925af180156109c257611b1a915f916134ea575b506132eb565b613503915060203d6020116109bb576109ad8183610ee0565b5f6134e4565b611b1a906132eb565b613534915060203d60201161353a575b61352c8183610ee0565b810190613291565b5f61346e565b503d613522565b60609190911b6001600160601b031916815260e891821b601482015291901b6017820152601a0190565b60d95460405161359d8161358f60208201948060181c60020b9060020b3087613541565b03601f198101835282610ee0565b5190209060da546040516135c58161358f60208201948060181c60020b9060020b3087613541565b51902090565b906135d46143d5565b806135dd575050565b6135eb6105ac368385611ac9565b6135f76105bd82612d35565b6136056105d860d35461066d565b6001600160a01b039091160361065e576105bd816105fe6136269351612d7f565b6136346105d860975461066d565b6001600160a01b039091160361064f5781612d0d825f5160206165475f395f51905f5294612ecc565b6040519061366c602083610ee0565b5f808352366020840137565b61368360d754610e59565b1561369357611b1a6105ac610f03565b611b1a61365d565b60020b60021b908160020b918203612d8d57565b9060020b9060020b02908160020b918203612d8d57565b156136cd57565b60405162461bcd60e51b815260206004820152602c60248201525f5160206165275f395f51905f5260448201526b19195b1959d85d1958d85b1b60a21b6064820152608490fd5b1561371b57565b60405162461bcd60e51b815260206004820152602c60248201525f5160206165275f395f51905f5260448201526b6163746976652070726f787960a01b6064820152608490fd5b908160209103126104e05751611b1a81610679565b60609060208152601d60208201527f5374726174656779506173736976654d616e61676572556e697377617000000060408201520190565b156137b657565b60405162461bcd60e51b815260206004820152601a602482015279139bc81a5b5c1b195b595b9d185d1a5bdb881cda59db985b195960321b6044820152606490fd5b9060018201809211612d8d57565b90601f8201809211612d8d57565b91908201809211612d8d57565b613829612ac6565b91906138336141f4565b50505050908201809211612d8d578301809311612d8d57613856609e5442612da2565b610e108110156138ce5761386990612d92565b80915b609c5490818111156138b9575061388e9161388691613301565b610e10900490565b925b609d5490818111156138aa5750611b1a9161388691613301565b613886915091611b1a92613301565b6138869150916138c892613301565b92613890565b505f809161386c565b609b54604051634746fb5560e01b815290602090829060049082906001600160a01b03165afa9081156109c2575f91613918575b506001600160a01b031690565b613931915060203d6020116114995761148b8183610ee0565b5f61390b565b6033546001600160a01b0316331415806139a5575b61158157613958614523565b50505050613964614895565b61396c615238565b60655460ff8116611ea15760019060ff1916176065555f5160206166275f395f51905f526020604051338152a16139a16139bf565b5050565b506001600160a01b036139b6613f42565b1633141561394c565b6139c7612ac6565b91906139d16141f4565b505050506139dd613821565b928401809411612d8d578303928311612d8d578401809411612d8d578303928311612d8d5760d55460d65490828111613a37575b848211613a2f575b8203918211612d8d578303928311612d8d579190565b849150613a19565b5081613a11565b15613a4557565b60405162461bcd60e51b815260206004820152602e60248201527f496e697469616c697a61626c653a20636f6e747261637420697320616c72656160448201526d191e481a5b9a5d1a585b1a5e995960921b6064820152608490fd5b9592613aeb959260a495925f5498613ad160ff8b60081c16151515809b81613b69575b8115613b49575b50613a3e565b89613ae2600160ff195f5416175f55565b613b3257613b77565b613af157565b613aff61ff00195f54165f55565b604051600181527f7f26b83ff96e1f2b6a682f133852f6798a09c465da95921460cefb3847402498908060208101612d1c565b613b4461010061ff00195f5416175f55565b613b77565b303b15915081613b5b575b505f613acb565b60ff1660011490505f613b54565b600160ff8216109150613ac4565b919690613b89613bc692959495615335565b60d180546001600160a01b0319166001600160a01b03851617905560d280546001600160a01b0319166001600160a01b0392909216919091179055565b604051630dfe168160e01b815292906001600160a01b0316602084600481845afa9081156109c257613c216020926004965f91613cd0575b5060d380546001600160a01b0319166001600160a01b0392909216919091179055565b60405163d21220a760e01b815294859182905afa80156109c257613c9396613c74613c8992613c8e965f91613cb1575b5060d480546001600160a01b0319166001600160a01b0392909216919091179055565b62ffffff1960db54169062ffffff161760db55565b6135cb565b612c7b565b60db805463ffffffff60501b1916600f60531b179055610f3a61512d565b613cca915060203d6020116114995761148b8183610ee0565b5f613c51565b613ce79150843d86116114995761148b8183610ee0565b5f613bfe565b609b54604051638e14545960e01b815290602090829060049082906001600160a01b03165afa9081156109c2575f91613d24575090565b611b1a915060203d6020116114995761148b8183610ee0565b9060060b9060060b0190667fffffffffffff198212667fffffffffffff831317612d8d57565b613d6b612c11565b613d7361317a565b613dbf610ae4613db760db5493613d908560181c60060b82613116565b60060b620d89e719811315613dee57613db19060060b5b9560181c60060b90565b90613d3d565b60060b61549c565b9160020b809160060b13918215613de1575b505015613ddc575f90565b600190565b60060b1290505f80613dd1565b50613db1620d89e719613da7565b613e0760d35461066d565b60046020613e176105d88461066d565b60405163313ce56760e01b815292839182905afa9081156109c257613e4691613474915f9161351257506132aa565b90613e556105d860975461066d565b6001600160a01b03909116146135095760206134cf5f92613e7d6105d86105d860d25461066d565b9060405194858094819363cdca175360e01b8352600483016133ae565b5f8115613f26578180600114613f1e57600214613f175760016101338310166001600b84101617613f0a575060015f1960025b60018111613ee357508290048111612d8d570290565b928082048111612d8d5760018416613f01575b80029260011c613ecd565b80920291613ef6565b91906002900a91612d8d57565b5050600490565b505050600190565b50505f90565b611b1a6122026001600160a01b036121fc613faa565b609b5460405163aced166160e01b815290602090829060049082906001600160a01b03165afa9081156109c2575f91613d24575090565b60405190613f8682610ec5565b5f60a083828152826020820152826040820152826060820152606060808201520152565b60d154604051633850c7bd60e01b81529060e090829060049082906001600160a01b03165afa9081156109c2575f91613fe1575090565b613ffa915060e03d60e011612c7457612c628183610ee0565b50505050505090565b61400e60d854610e59565b1561369357611b1a6105ac610fa7565b908160209103126104e057611b1a90612b9d565b61403a614523565b50505050614046614895565b61404e615165565b614056612c11565b61405e614e7c565b9061406e8260db5460020b6136af565b61407c610bd48483856162c4565b62ffffff1960d954169062ffffff161760d955614097612ac6565b5f9180614179575b508082101561414a575050918082610c41610c3b836140c197610c46976162c4565b60d9546140ce8160020b90565b60da54906140df610c6a8360020b90565b9060020b149182614128575b5050610c95576140fa42609f55565b614102614c0c565b5f5160206165a75f395f51905f526141186139bf565b90612d1c604051928392836104a3565b61413e919250610cba610c6a9160181c60020b90565b9060020b145f806140eb565b9391931061415b575b5050506140c1565b6141719282610c41610cf78480610cfe976162c4565b5f8080614153565b61418b919250610d2590610d1f613f2c565b905f61409f565b60db805460ff60701b1916600160701b179055565b51906001600160801b03821682036104e057565b908160a09103126104e0576141cf816141a7565b91602082015191604081015191611b1a60806141ed606085016141a7565b93016141a7565b6141fc61356b565b614207929192613faa565b61423d60a061421d6105d86105d860d15461066d565b956040518093819263514ea4bf60e01b8352600483019190602083019252565b0381885afa9283156109c2575f955f925f9561439e575b5060405163514ea4bf60e01b815260048101929092529092919060a09084908180602481015b03915afa9586156109c2575f905f945f98614343575b509161430a61431a926142fa6142e86142c961432a989760d9546142c26142bd610cba6142bd8460020b90565b6157d8565b908a615b43565b93909760da546142e26142bd610cba6142bd8460020b90565b91615b43565b9690946001600160801b031690613814565b976001600160801b031690613814565b946001600160801b031690613814565b956001600160801b031690613814565b936143358184613814565b946143408184613814565b94565b61432a94939198506142e8955061431a92506142c96142fa61437f61430a9360a03d60a011614397575b6143778183610ee0565b8101906141bb565b9b93915094915093999c959798505050509250614290565b503d61436d565b60a0809398506143c192965061427a9594503d8411614397576143778183610ee0565b949391509891509792959150919293614254565b6033546001600160a01b031633036143e957565b606460405162461bcd60e51b815260206004820152602060248201527f4f776e61626c653a2063616c6c6572206973206e6f7420746865206f776e65726044820152fd5b8051601319810191908211612d8d5760179160179004906001820192838311612d8d5761445984612fb5565b936144676040519586610ee0565b808552614476601f1991612fb5565b013660208601375f915b83831061448e575050505090565b6144eb816144e66144a0600194616177565b6144ad86845110156161e6565b6144d46144ba87856161c7565b916144c5898c612d57565b6001600160a01b039091169052565b6144c56144e0886137f8565b8a612d57565b615bc4565b920191614480565b91908260409103126104e0576020825192015190565b91908260409103126104e057611b1a60206141ed846141a7565b61456161452e61356b565b60a06145416105d86105d860d15461066d565b926040518095819263514ea4bf60e01b8352600483019190602083019252565b0381855afa9081156109c25761459b935f9261486f575b5060a0906040518095819263514ea4bf60e01b8352600483019190602083019252565b0381855afa9283156109c2575f9361484a575b506001600160801b0316614806575b506001600160801b0316614768575b61463c60406145e26105d86105d860d15461066d565b60d954906145f3610cba8360020b90565b83516309e3d67b60e31b8152306004820152600293840b6024820152920b60448301526001600160801b03606483018190526084830152909283919082905f90829060a4820190565b03925af180156109c2575f915f91614747575b5060018060801b03169060018060801b03169161468960406146786105d86105d860d15461066d565b60da54906145f3610cba8360020b90565b03925af180156109c2575f915f91614716575b5060018060801b03169060018060801b0316916146cc6146c7846146c28860d554613814565b613814565b60d555565b6146e46146df836146c28760d654613814565b60d655565b7f6fe7c663aa15def6e80578b76ddd894fcefeabf14a0106afbec24da4a6c5787260405180612d1c8587898b85612905565b905061473a915060403d604011614740575b6147328183610ee0565b810190614509565b5f61469c565b503d614728565b9050614762915060403d604011614740576147328183610ee0565b5f61464f565b6147c3604061477e6105d86105d860d15461066d565b60da549061478f610cba8360020b90565b835163a34123a760e01b8152600293840b6004820152920b60248301525f6044830181905291938492839182906064820190565b03925af180156109c2576147d8575b506145cc565b6147f99060403d6040116147ff575b6147f18183610ee0565b8101906144f3565b506147d2565b503d6147e7565b604061481d9160d9549061478f610cba8360020b90565b03925af180156109c257156145bd576148449060403d6040116147ff576147f18183610ee0565b506145bd565b61486491935060a03d60a011614397576143778183610ee0565b50505050915f6145ae565b60a091925061488a90823d8411614397576143778183610ee0565b505050509190614578565b6148d46148a061356b565b9060a06148b46105d86105d860d15461066d565b916040518095819263514ea4bf60e01b8352600483019190602083019252565b0381845afa9182156109c25761490d935f93614ac8575060a0906040518095819263514ea4bf60e01b8352600483019190602083019252565b0381845afa9283156109c2575f93614aa3575b506001600160801b038216614a14575b50506001600160801b038116614944575b50565b60406149a79161495b6105d86105d860d15461066d565b60da545f61496c610cba8360020b90565b855163a34123a760e01b8152600293840b6004820152920b60248301526001600160801b039093166044820152938492839182906064820190565b03925af180156109c2576149f6575b506149cd60406146786105d86105d860d15461066d565b03925af180156109c2576149de5750565b6139a19060403d604011614740576147328183610ee0565b614a0e9060403d6040116147ff576147f18183610ee0565b506149b6565b614a2c9160409160d9545f61496c610cba8360020b90565b03925af180156109c257614a85575b50614a5260406145e26105d86105d860d15461066d565b03925af180156109c257614a67575b80614930565b614a7f9060403d604011614740576147328183610ee0565b50614a61565b614a9d9060403d6040116147ff576147f18183610ee0565b50614a3b565b614abd91935060a03d60a011614397576143778183610ee0565b50505050915f614920565b60a0919350614ae390823d8411614397576143778183610ee0565b505050509290614578565b614af6615165565b614afe612c11565b614b06614e7c565b90614b168260db5460020b6136af565b614b24610bd48483856162c4565b62ffffff1960d954169062ffffff161760d955614b3f612ac6565b5f9180614bf3575b5080821015614bc4575050918082610c41610c3b83614b6997610c46976162c4565b60d954614b768160020b90565b60da5490614b87610c6a8360020b90565b9060020b149182614ba2575b5050610c9557610f3a42609f55565b614bb8919250610cba610c6a9160181c60020b90565b9060020b145f80614b93565b93919310614bd5575b505050614b69565b614beb9282610c41610cf78480610cfe976162c4565b5f8080614bcd565b614c05919250610d2590610d1f613f2c565b905f614b47565b614c14615165565b614c1c615ca2565b614c24612ac6565b614c70614c2f613faa565b91614c6960d95491614c418360020b90565b95614c58614c4e886157d8565b9460181c60020b90565b93614c62856157d8565b9087615d1e565b9384615db2565b6001600160801b03831615159081614e51575b5015614e3f576040614d1b92614c97614192565b614ca86105d86105d860d15461066d565b60d9545f614cb9610cba8360020b90565b8551633c8a7d8d60e01b8152306004820152600293840b6024820152920b60448301526001600160801b03909316606482015260a06084820152600a60a4820152692132b2b33c9026b0b4b760b11b60c48201529485928391829060e4820190565b03925af19182156109c257614d5692614e21575b505b614d39612ac6565b9160da54614d506142bd610cba6142bd8460020b90565b91615d1e565b6001600160801b038116614d675750565b6040614df891614d75614192565b614d866105d86105d860d15461066d565b60da545f614d97610cba8360020b90565b8551633c8a7d8d60e01b8152306004820152600293840b6024820152920b60448301526001600160801b03909316606482015260a06084820152600960a482015268109959599e48105b1d60ba1b60c48201529384928391829060e4820190565b03925af180156109c257614e095750565b6139a19060403d6040116147ff576147f18183610ee0565b614e399060403d6040116147ff576147f18183610ee0565b50614d2f565b614d569150614e4c615165565b614d31565b90505f614c83565b6098546001600160a01b03163303614e6d57565b6362df054560e01b5f5260045ffd5b60d1546040516334324e9f60e21b815290602090829060049082906001600160a01b03165afa9081156109c2575f91614eb3575090565b90506020813d602011614ee0575b81614ece60209383610ee0565b810103126104e05751611b1a81610b0f565b3d9150614ec1565b609b54604051631f1097e560e01b81529060209082906001600160a01b03168180614f1560048201613777565b03915afa9081156109c2575f91614f7a575b506001600160a01b03908116911603614f3c57565b60405162461bcd60e51b815260206004820152601660248201527524b73b30b634b21034b6b83632b6b2b73a30ba34b7b760511b6044820152606490fd5b614f93915060203d6020116114995761148b8183610ee0565b5f614f27565b15614fa057565b60405162461bcd60e51b815260206004820152602960248201527f45524331393637557067726164653a20756e737570706f727465642070726f786044820152681a58589b195555525160ba1b6064820152608490fd5b60809060208152602e60208201527f45524331393637557067726164653a206e657720696d706c656d656e7461746960408201526d6f6e206973206e6f74205555505360901b60608201520190565b9061505082615dee565b6001600160a01b0382165f5160206165e75f395f51905f525f80a28051158015906150e4575b61507e575050565b614941915f8060405193615093606086610ee0565b602785527f416464726573733a206c6f772d6c6576656c2064656c65676174652063616c6c6020860152660819985a5b195960ca1b6040860152602081519101845af46150de6163ea565b9161642d565b505f615076565b916150f583615dee565b6001600160a01b0383165f5160206165e75f395f51905f525f80a281511590811591615125575b5061507e575050565b90505f61511c565b60d354609954615149916001600160a01b039182169116615e7e565b60d454609954610f3a916001600160a01b039182169116615e7e565b61516d613d63565b1561517457565b6313643c3b60e11b5f5260045ffd5b6001600160a01b039091168152602081019190915260400190565b6151d3610f3a93926151c560405194859263a9059cbb60e01b602085015260248401615183565b03601f198101845283610ee0565b615f8d565b60ff6065541680156151e75790565b50609b54604051631e25aa9b60e31b815290602090829060049082906001600160a01b03165afa9081156109c2575f9161521f575090565b611b1a915060203d6020116126185761260a8183610ee0565b60d354609954615254916001600160a01b039182169116615f66565b60d454609954610f3a916001600160a01b039182169116615f66565b603380546001600160a01b031981169091555f906001600160a01b03165f5160206165c75f395f51905f528280a3565b603380546001600160a01b039283166001600160a01b0319821681179092559091165f5160206165c75f395f51905f525f80a3565b156152dc57565b60405162461bcd60e51b815260206004820152602b60248201527f496e697469616c697a61626c653a20636f6e7472616374206973206e6f74206960448201526a6e697469616c697a696e6760a81b6064820152608490fd5b6153f76105d860606154199361535160ff5f5460081c166152d5565b61535961606f565b615361616091565b61538f61536d82615492565b609880546001600160a01b0319166001600160a01b0392909216919091179055565b6153c061539e60208301615492565b609980546001600160a01b0319166001600160a01b0392909216919091179055565b6153f16153cf60408301615492565b609a80546001600160a01b0319166001600160a01b0392909216919091179055565b01615492565b609b80546001600160a01b0319166001600160a01b0392909216919091179055565b6004602061542b6105d8609b5461066d565b6040516311b0b42d60e01b815292839182905afa80156109c257610f3a915f91615473575b50609780546001600160a01b0319166001600160a01b0392909216919091179055565b61548c915060203d6020116114995761148b8183610ee0565b5f615450565b35611b1a81610679565b620d89e88112156154aa5790565b50620d89e890565b156104e057565b5f19670de0b6b3a76400008209670de0b6b3a764000082029182808310920391808303921461551157600160601b8210156104e057600160601b90670de0b6b3a7640000900990828211900360a01b910360601c1790565b505060601c90565b5f19828209908281029283808410930392808403931461555857600160601b8310156104e057600160601b910990828211900360a01b910360601c1790565b50505060601c90565b5f19600160601b8209918160601b918280851094039380850394146155e757819061558d8583116154b2565b600160601b9009600182190182168092046002816003021880820260020302808202600203028082026002030280820260020302808202600203028091026002030293600183805f03040190848311900302920304170290565b5091506155f58215156154b2565b0490565b90915f198383099280830292838086109503948086039514615677579082916156238684116154b2565b09600182190182168092046002816003021880820260020302808202600203028082026002030280820260020302808202600203028091026002030293600183805f03040190848311900302920304170290565b505091506155f58215156154b2565b61568e613f79565b5060245f6001600160a01b036156a26138d7565b1660405192838092639af608c960e01b82523060048301525afa9081156109c2575f916156cd575090565b90503d805f833e6156de8183610ee0565b8101906020818303126104e0578051906001600160401b0382116104e057019060c0828203126104e0576040519161571583610ec5565b8051835260208082015190840152604080820151908401526060808201519084015260808101516001600160401b0381116104e05781019082601f830112156104e05781519261576484611aae565b906157726040519283610ee0565b848252602085850101116104e0575f6020856157a0968260a097018386015e83010152608085015201612b9d565b60a082015290565b156157af57565b60405162461bcd60e51b81526020600482015260016024820152601560fa1b6044820152606490fd5b60020b5f811215615b3d57805f03905b6157f7620d89e88311156157a8565b6001821615615b33576ffffcb933bd6fad37aa2d162d1a5940015b6001600160881b03169160028116615b17575b60048116615afb575b60088116615adf575b60108116615ac3575b60208116615aa7575b60408116615a8b575b60808116615a6f575b6101008116615a53575b6102008116615a37575b6104008116615a1b575b61080081166159ff575b61100081166159e3575b61200081166159c7575b61400081166159ab575b618000811661598f575b620100008116615973575b620200008116615958575b62040000811661593d575b6208000016615924575b5f12615916575b6158f46158ea8260201c90565b9163ffffffff1690565b61590e575f905b60ff91909116016001600160a01b031690565b6001906158fb565b61591f906132bb565b6158dd565b6b048a170391f7dc42444e8fa290910260801c906158d6565b6d2216e584f5fa1ea926041bedfe9890920260801c916158cc565b916e5d6af8dedb81196699c329225ee6040260801c916158c1565b916f09aa508b5b7a84e1c677de54f3e99bc90260801c916158b6565b916f31be135f97d08fd981231505542fcfa60260801c916158ab565b916f70d869a156d2a1b890bb3df62baf32f70260801c916158a1565b916fa9f746462d870fdf8a65dc1f90e061e50260801c91615897565b916fd097f3bdfd2022b8845ad8f792aa58250260801c9161588d565b916fe7159475a2c29b7443b29c7fa6e889d90260801c91615883565b916ff3392b0822b70005940c7a398e4b70f30260801c91615879565b916ff987a7253ac413176f2b074cf7815e540260801c9161586f565b916ffcbe86c7900a88aedcffc83b479aa3a40260801c91615865565b916ffe5dee046a99a2a811c461f1969c30530260801c9161585b565b916fff2ea16466c96a3843ec78b326b528610260801c91615852565b916fff973b41fa98c081472e6896dfb254c00260801c91615849565b916fffcb9843d60f6159c9db58835c9266440260801c91615840565b916fffe5caca7e10e4e61c3624eaa0941cd00260801c91615837565b916ffff2e50f5f656932ef12357cf3c7fdcc0260801c9161582e565b916ffff97272373d413259a46990580e213a0260801c91615825565b600160801b615812565b806157e8565b9093925f929091836001600160a01b0380841690881611615bbc575b6001600160a01b038281169088168111615b8457505050615b8192939461610d565b91565b93945090926001600160a01b0383161115615bb0575090615baa83611b1a94938361610d565b946160ca565b94611b1a9392506160ca565b959195615b5f565b8051906017820391808311612d8d57601790615bea84615be381613806565b1015616229565b615c008351615bf98685613814565b1115616266565b03615c175750506040515f81526020810160405290565b60405191601f8116916017831560051b80858701019484860193010101905b808410615c4e5750508252601f01601f191660405290565b9092602080918551815201930190615c36565b6001600160a01b03918216815291166020820152604081019190915260600190565b60da549060181b65ffffff000000169065ffffff00000019161760da55565b60ff606554168015615cc4575b615cb557565b63e628b94960e01b5f5260045ffd5b50609b54604051631e25aa9b60e31b815290602090829060049082906001600160a01b03165afa9081156109c2575f91615cff575b50615caf565b615d18915060203d6020116126185761260a8183610ee0565b5f615cf9565b936001600160a01b0383811690831611615daa575b6001600160a01b03858116959083168611615d54575050611b1a9350616396565b919490939192906001600160a01b0382161115615d9e578291615d7b91615d819594616396565b93616353565b6001600160801b038181169083161015615d99575090565b905090565b915050611b1a92616353565b909190615d33565b90615dd1926142e2615dcb615dc5613faa565b936157d8565b916157d8565b9015908115615de5575b5015613ddc575f90565b9050155f615ddb565b803b15615e23575f5160206165675f395f51905f5280546001600160a01b0319166001600160a01b0392909216919091179055565b60405162461bcd60e51b815260206004820152602d60248201527f455243313936373a206e657720696d706c656d656e746174696f6e206973206e60448201526c1bdd08184818dbdb9d1c9858dd609a1b6064820152608490fd5b60405190615ee36020830163095ea7b360e01b8152615eb484615ea65f198860248401615183565b03601f198101865285610ee0565b83516001600160a01b038416915f91829182855af190615ed26163ea565b82615f34575b5081615f2d57501590565b615eec57505050565b60405163095ea7b360e01b60208201526001600160a01b0390931660248401525f6044840152610f3a926151d390615f27816064810161358f565b82615f8d565b3b15919050565b80519192508115918215615f4c575b5050905f615ed8565b615f5f925060208091830101910161401e565b5f80615f43565b60405190615ee36020830163095ea7b360e01b8152615eb484615ea65f8860248401615183565b90615fe79160018060a01b03165f8060405193615fab604086610ee0565b602085527f5361666545524332303a206c6f772d6c6576656c2063616c6c206661696c6564602086015260208151910182855af16150de6163ea565b8051908115918215616055575b505015615ffd57565b60405162461bcd60e51b815260206004820152602a60248201527f5361666545524332303a204552433230206f7065726174696f6e20646964206e6044820152691bdd081cdd58d8d9595960b21b6064820152608490fd5b616068925060208091830101910161401e565b5f80615ff4565b61608860ff5f5460081c16616083816152d5565b6152d5565b610f3a336152a0565b6160a560ff5f5460081c16616083816152d5565b60ff1960655416606555565b6001600160a01b039182169082160391908211612d8d57565b611b1a9291906001600160a01b0380831690821611616107575b6001600160a01b03916160f791906160b1565b16906001600160801b0316615519565b906160e4565b9161615b916001600160a01b0380821690851611616171575b6001600160a01b0361613885836160b1565b6001600160a01b039092169291169060601b600160601b600160e01b03166155f9565b6001600160a01b03909116908115613175570490565b92616126565b601481511061618a576020015160601c90565b60405162461bcd60e51b8152602060048201526015602482015274746f416464726573735f6f75744f66426f756e647360581b6044820152606490fd5b9081516014820190818311612d8d571061618a57016020015160601c90565b156161ed57565b60405162461bcd60e51b8152602060048201526014602482015273746f55696e7432345f6f75744f66426f756e647360601b6044820152606490fd5b1561623057565b60405162461bcd60e51b815260206004820152600e60248201526d736c6963655f6f766572666c6f7760901b6044820152606490fd5b1561626d57565b60405162461bcd60e51b8152602060048201526011602482015270736c6963655f6f75744f66426f756e647360781b6044820152606490fd5b9060020b9060020b0190627fffff198212627fffff831317612d8d57565b9291909260020b8160020b90811561317557627fffff1981145f19831416612d8d57818105915f82129182616344575b505061632c575b90616305916136af565b918060020b8360020b0390627fffff8213627fffff19831217612d8d57611b1a91936162a6565b60020b90627fffff198214612d8d57905f19016162fb565b0760020b151590505f806162f4565b611b1a9261638b9290916001600160a01b0380831690821611616390575b6001600160a01b039161638491906160b1565b1690615561565b616419565b90616371565b611b1a9261638b929091906001600160a01b03808216908316116163e4575b6163dd6163ce6001600160a01b03838116908516615519565b926001600160a01b03926160b1565b16916155f9565b906163b5565b3d15616414573d906163fb82611aae565b916164096040519384610ee0565b82523d5f602084013e565b606090565b6001600160801b038116919082036104e057565b9192901561648f5750815115616441575090565b3b1561644a5790565b60405162461bcd60e51b815260206004820152601d60248201527f416464726573733a2063616c6c20746f206e6f6e2d636f6e74726163740000006044820152606490fd5b8251909150156164a25750805190602001fd5b60405162461bcd60e51b8152602060048201529081906113a290602483019061102956fe4910fdfa16fed3260ed0e7147f7cc6da11a60208b5b9406d12a635614ffd91436c8433a8e155f0af04dba058d4e4695f7da554578963d876bdf4a6d8d6399d9c5320ad99a619a90804cd2efe3a5cf0ac1ac5c41ad9ff2c61cf699efdad77109646756e6374696f6e206d7573742062652063616c6c6564207468726f75676820203244158601764729526c0736d6b833b1f3da905ae0a631a059bbb9040541f0360894a13ba1a3210667c828492db98dca3e2076cc3735a920a3ca505d382bbc1b9728f4ac995937074d8e70e21a1660544fb7c16be984e1c289f262f2be9c74631c4f79c14099a717f4be2f25e6cef89e310b3944ef0e44ea2c0811ebb982a88be0079c531659141344cd1fd0a4f28419497f9722a3daafe3b4186f6b6457e0bc7cd75a20ee27fd9adebab32041f755214dbc6bffa90cc0225b39da2e5c2d3b8a012a6de2943a5aa4d77acf5e695d4456760a3f1f30a5d6dc2079599187a07162e78cea01bee320cd4e420270b5ea74000d11b0c9f74754ebdbfc544b05a258d255b592c7f268a73e534da5219a60ff911b4cf6daae21c7d20527dd657bd99aa2646970667358221220fafb9b3334fe143ff2f5033b75bab656635e76e164fe562a26a728cfd3a8daf764736f6c634300081c0033","linkReferences":{}},"methodIdentifiers":{"balances()":"7bb98a68","balancesOfPool()":"fcc25e13","balancesOfThis()":"00a4b5c9","beefyFeeConfig()":"4746fb55","beefyFeeRecipient()":"8e145459","beforeAction()":"17dd7a72","claimEarnings()":"d9ceab13","currentTick()":"065e5360","deposit()":"d0e30db0","depositFee()":"67a52793","factory()":"c45a0155","fees0()":"93f1c442","fees1()":"4c02a21c","getAllFees()":"b20feaaf","getKeys()":"2150c518","getStratFeeId()":"8cfc0250","harvest()":"4641257d","harvest(address)":"0e5c011e","initialize(address,address,int24,bytes,bytes,(address,address,address,address))":"7f10e4b9","isCalm()":"9bdde46b","keeper()":"aced1661","lastHarvest()":"f1a392da","lastPositionAdjustment()":"865238d4","lockedProfit()":"44b81396","lpToken0()":"5ee167c0","lpToken0ToNative()":"2e773d32","lpToken0ToNativePath()":"1dcfeddd","lpToken0ToNativePrice()":"9c6d4904","lpToken1()":"877562b6","lpToken1ToNative()":"c6ebd4ae","lpToken1ToNativePath()":"953d329f","lpToken1ToNativePrice()":"16b9cd9c","maxTickDeviation()":"696c58e5","moveTicks()":"c7d54132","native()":"11b0b42d","owner()":"8da5cb5b","panic(uint256,uint256)":"60991346","paused()":"5c975abb","pool()":"16f0115b","positionAlt()":"99cd2446","positionMain()":"bc415d8a","positionWidth()":"8097e249","price()":"a035b1fe","proxiableUUID()":"52d1902d","quoter()":"c6bbd5a7","range()":"e97206a9","renounceOwnership()":"715018a6","retireVault()":"b3a60cb3","setDeviation(int56)":"362c28c6","setLpToken0ToNativePath(bytes)":"236db042","setLpToken1ToNativePath(bytes)":"08898ea0","setPositionWidth(int24)":"12cf1381","setStratFeeId(uint256)":"3e55f932","setStrategist(address)":"c7b9d530","setTwapInterval(uint32)":"1d27050f","setUnirouter(address)":"d92f3d73","sqrtPrice()":"b83d2683","strategist()":"1fe4a686","swapFee()":"54cf2aeb","totalLocked0()":"2b950b66","totalLocked1()":"04c404b3","transferOwnership(address)":"f2fde38b","twap()":"1208aa18","twapInterval()":"3c1d5df0","unirouter()":"257ae0de","uniswapV3MintCallback(uint256,uint256,bytes)":"d3487997","unpause()":"3f4ba83a","upgradeTo(address)":"3659cfe6","upgradeToAndCall(address,bytes)":"4f1ef286","upgradeToLatest()":"367ad9e2","vault()":"fbfa77cf","withdraw(uint256,uint256)":"441a3e70","withdrawFee()":"e941fa78"},"id":128}