{"abi":[{"type":"constructor","inputs":[],"stateMutability":"nonpayable"},{"type":"function","name":"balances","inputs":[],"outputs":[{"name":"token0Bal","type":"uint256","internalType":"uint256"},{"name":"token1Bal","type":"uint256","internalType":"uint256"}],"stateMutability":"view"},{"type":"function","name":"balancesOfPool","inputs":[],"outputs":[{"name":"token0Bal","type":"uint256","internalType":"uint256"},{"name":"token1Bal","type":"uint256","internalType":"uint256"},{"name":"mainAmount0","type":"uint256","internalType":"uint256"},{"name":"mainAmount1","type":"uint256","internalType":"uint256"},{"name":"altAmount0","type":"uint256","internalType":"uint256"},{"name":"altAmount1","type":"uint256","internalType":"uint256"}],"stateMutability":"view"},{"type":"function","name":"balancesOfThis","inputs":[],"outputs":[{"name":"token0Bal","type":"uint256","internalType":"uint256"},{"name":"token1Bal","type":"uint256","internalType":"uint256"}],"stateMutability":"view"},{"type":"function","name":"beefyFeeConfig","inputs":[],"outputs":[{"name":"","type":"address","internalType":"contract IFeeConfig"}],"stateMutability":"view"},{"type":"function","name":"beefyFeeRecipient","inputs":[],"outputs":[{"name":"","type":"address","internalType":"address"}],"stateMutability":"view"},{"type":"function","name":"beforeAction","inputs":[],"outputs":[],"stateMutability":"nonpayable"},{"type":"function","name":"currentTick","inputs":[],"outputs":[{"name":"tick","type":"int24","internalType":"int24"}],"stateMutability":"view"},{"type":"function","name":"deposit","inputs":[],"outputs":[],"stateMutability":"nonpayable"},{"type":"function","name":"depositFee","inputs":[],"outputs":[{"name":"","type":"uint256","internalType":"uint256"}],"stateMutability":"view"},{"type":"function","name":"factory","inputs":[],"outputs":[{"name":"","type":"address","internalType":"contract IStrategyFactory"}],"stateMutability":"view"},{"type":"function","name":"fees0","inputs":[],"outputs":[{"name":"","type":"uint256","internalType":"uint256"}],"stateMutability":"view"},{"type":"function","name":"fees1","inputs":[],"outputs":[{"name":"","type":"uint256","internalType":"uint256"}],"stateMutability":"view"},{"type":"function","name":"getAllFees","inputs":[],"outputs":[{"name":"","type":"tuple","internalType":"struct IFeeConfig.AllFees","components":[{"name":"performance","type":"tuple","internalType":"struct IFeeConfig.FeeCategory","components":[{"name":"total","type":"uint256","internalType":"uint256"},{"name":"beefy","type":"uint256","internalType":"uint256"},{"name":"call","type":"uint256","internalType":"uint256"},{"name":"strategist","type":"uint256","internalType":"uint256"},{"name":"label","type":"string","internalType":"string"},{"name":"active","type":"bool","internalType":"bool"}]},{"name":"deposit","type":"uint256","internalType":"uint256"},{"name":"withdraw","type":"uint256","internalType":"uint256"}]}],"stateMutability":"view"},{"type":"function","name":"getKeys","inputs":[],"outputs":[{"name":"keyMain","type":"bytes32","internalType":"bytes32"},{"name":"keyAlt","type":"bytes32","internalType":"bytes32"}],"stateMutability":"view"},{"type":"function","name":"getStratFeeId","inputs":[],"outputs":[{"name":"","type":"uint256","internalType":"uint256"}],"stateMutability":"view"},{"type":"function","name":"harvest","inputs":[{"name":"_callFeeRecipient","type":"address","internalType":"address"}],"outputs":[],"stateMutability":"nonpayable"},{"type":"function","name":"harvest","inputs":[],"outputs":[],"stateMutability":"nonpayable"},{"type":"function","name":"initialize","inputs":[{"name":"_pool","type":"address","internalType":"address"},{"name":"_quoter","type":"address","internalType":"address"},{"name":"_positionWidth","type":"int24","internalType":"int24"},{"name":"_lpToken0ToNativePath","type":"bytes","internalType":"bytes"},{"name":"_lpToken1ToNativePath","type":"bytes","internalType":"bytes"},{"name":"_commonAddresses","type":"tuple","internalType":"struct StratFeeManagerInitializable.CommonAddresses","components":[{"name":"vault","type":"address","internalType":"address"},{"name":"unirouter","type":"address","internalType":"address"},{"name":"strategist","type":"address","internalType":"address"},{"name":"factory","type":"address","internalType":"address"}]}],"outputs":[],"stateMutability":"nonpayable"},{"type":"function","name":"isCalm","inputs":[],"outputs":[{"name":"","type":"bool","internalType":"bool"}],"stateMutability":"view"},{"type":"function","name":"keeper","inputs":[],"outputs":[{"name":"","type":"address","internalType":"address"}],"stateMutability":"view"},{"type":"function","name":"lastHarvest","inputs":[],"outputs":[{"name":"","type":"uint256","internalType":"uint256"}],"stateMutability":"view"},{"type":"function","name":"lastPositionAdjustment","inputs":[],"outputs":[{"name":"","type":"uint256","internalType":"uint256"}],"stateMutability":"view"},{"type":"function","name":"lockedProfit","inputs":[],"outputs":[{"name":"locked0","type":"uint256","internalType":"uint256"},{"name":"locked1","type":"uint256","internalType":"uint256"}],"stateMutability":"view"},{"type":"function","name":"lpToken0","inputs":[],"outputs":[{"name":"","type":"address","internalType":"address"}],"stateMutability":"view"},{"type":"function","name":"lpToken0ToNativePath","inputs":[],"outputs":[{"name":"","type":"bytes","internalType":"bytes"}],"stateMutability":"view"},{"type":"function","name":"lpToken1","inputs":[],"outputs":[{"name":"","type":"address","internalType":"address"}],"stateMutability":"view"},{"type":"function","name":"lpToken1ToNativePath","inputs":[],"outputs":[{"name":"","type":"bytes","internalType":"bytes"}],"stateMutability":"view"},{"type":"function","name":"maxTickDeviation","inputs":[],"outputs":[{"name":"","type":"int56","internalType":"int56"}],"stateMutability":"view"},{"type":"function","name":"moveTicks","inputs":[],"outputs":[],"stateMutability":"nonpayable"},{"type":"function","name":"native","inputs":[],"outputs":[{"name":"","type":"address","internalType":"address"}],"stateMutability":"view"},{"type":"function","name":"owner","inputs":[],"outputs":[{"name":"","type":"address","internalType":"address"}],"stateMutability":"view"},{"type":"function","name":"panic","inputs":[{"name":"_minAmount0","type":"uint256","internalType":"uint256"},{"name":"_minAmount1","type":"uint256","internalType":"uint256"}],"outputs":[],"stateMutability":"nonpayable"},{"type":"function","name":"paused","inputs":[],"outputs":[{"name":"","type":"bool","internalType":"bool"}],"stateMutability":"view"},{"type":"function","name":"pool","inputs":[],"outputs":[{"name":"","type":"address","internalType":"address"}],"stateMutability":"view"},{"type":"function","name":"positionAlt","inputs":[],"outputs":[{"name":"tickLower","type":"int24","internalType":"int24"},{"name":"tickUpper","type":"int24","internalType":"int24"}],"stateMutability":"view"},{"type":"function","name":"positionMain","inputs":[],"outputs":[{"name":"tickLower","type":"int24","internalType":"int24"},{"name":"tickUpper","type":"int24","internalType":"int24"}],"stateMutability":"view"},{"type":"function","name":"positionWidth","inputs":[],"outputs":[{"name":"","type":"int24","internalType":"int24"}],"stateMutability":"view"},{"type":"function","name":"price","inputs":[],"outputs":[{"name":"_price","type":"uint256","internalType":"uint256"}],"stateMutability":"view"},{"type":"function","name":"proxiableUUID","inputs":[],"outputs":[{"name":"","type":"bytes32","internalType":"bytes32"}],"stateMutability":"view"},{"type":"function","name":"quoter","inputs":[],"outputs":[{"name":"","type":"address","internalType":"address"}],"stateMutability":"view"},{"type":"function","name":"renounceOwnership","inputs":[],"outputs":[],"stateMutability":"nonpayable"},{"type":"function","name":"setDeviation","inputs":[{"name":"_maxDeviation","type":"int56","internalType":"int56"}],"outputs":[],"stateMutability":"nonpayable"},{"type":"function","name":"setLpToken0ToNativePath","inputs":[{"name":"_path","type":"bytes","internalType":"bytes"}],"outputs":[],"stateMutability":"nonpayable"},{"type":"function","name":"setLpToken1ToNativePath","inputs":[{"name":"_path","type":"bytes","internalType":"bytes"}],"outputs":[],"stateMutability":"nonpayable"},{"type":"function","name":"setPositionWidth","inputs":[{"name":"_width","type":"int24","internalType":"int24"}],"outputs":[],"stateMutability":"nonpayable"},{"type":"function","name":"setStratFeeId","inputs":[{"name":"_feeId","type":"uint256","internalType":"uint256"}],"outputs":[],"stateMutability":"nonpayable"},{"type":"function","name":"setStrategist","inputs":[{"name":"_strategist","type":"address","internalType":"address"}],"outputs":[],"stateMutability":"nonpayable"},{"type":"function","name":"setTwapInterval","inputs":[{"name":"_interval","type":"uint32","internalType":"uint32"}],"outputs":[],"stateMutability":"nonpayable"},{"type":"function","name":"setUnirouter","inputs":[{"name":"_unirouter","type":"address","internalType":"address"}],"outputs":[],"stateMutability":"nonpayable"},{"type":"function","name":"sqrtPrice","inputs":[],"outputs":[{"name":"sqrtPriceX96","type":"uint160","internalType":"uint160"}],"stateMutability":"view"},{"type":"function","name":"strategist","inputs":[],"outputs":[{"name":"","type":"address","internalType":"address"}],"stateMutability":"view"},{"type":"function","name":"swapFee","inputs":[],"outputs":[{"name":"fee","type":"uint256","internalType":"uint256"}],"stateMutability":"view"},{"type":"function","name":"totalLocked0","inputs":[],"outputs":[{"name":"","type":"uint256","internalType":"uint256"}],"stateMutability":"view"},{"type":"function","name":"totalLocked1","inputs":[],"outputs":[{"name":"","type":"uint256","internalType":"uint256"}],"stateMutability":"view"},{"type":"function","name":"transferOwnership","inputs":[{"name":"newOwner","type":"address","internalType":"address"}],"outputs":[],"stateMutability":"nonpayable"},{"type":"function","name":"twap","inputs":[],"outputs":[{"name":"twapTick","type":"int56","internalType":"int56"}],"stateMutability":"view"},{"type":"function","name":"twapInterval","inputs":[],"outputs":[{"name":"","type":"uint32","internalType":"uint32"}],"stateMutability":"view"},{"type":"function","name":"unirouter","inputs":[],"outputs":[{"name":"","type":"address","internalType":"address"}],"stateMutability":"view"},{"type":"function","name":"uniswapV3MintCallback","inputs":[{"name":"amount0","type":"uint256","internalType":"uint256"},{"name":"amount1","type":"uint256","internalType":"uint256"},{"name":"","type":"bytes","internalType":"bytes"}],"outputs":[],"stateMutability":"nonpayable"},{"type":"function","name":"unpause","inputs":[],"outputs":[],"stateMutability":"nonpayable"},{"type":"function","name":"upgradeTo","inputs":[{"name":"newImplementation","type":"address","internalType":"address"}],"outputs":[],"stateMutability":"nonpayable"},{"type":"function","name":"upgradeToAndCall","inputs":[{"name":"newImplementation","type":"address","internalType":"address"},{"name":"data","type":"bytes","internalType":"bytes"}],"outputs":[],"stateMutability":"payable"},{"type":"function","name":"upgradeToLatest","inputs":[],"outputs":[],"stateMutability":"nonpayable"},{"type":"function","name":"vault","inputs":[],"outputs":[{"name":"","type":"address","internalType":"address"}],"stateMutability":"view"},{"type":"function","name":"withdraw","inputs":[{"name":"_amount0","type":"uint256","internalType":"uint256"},{"name":"_amount1","type":"uint256","internalType":"uint256"}],"outputs":[],"stateMutability":"nonpayable"},{"type":"function","name":"withdrawFee","inputs":[],"outputs":[{"name":"","type":"uint256","internalType":"uint256"}],"stateMutability":"view"},{"type":"event","name":"AdminChanged","inputs":[{"name":"previousAdmin","type":"address","indexed":false,"internalType":"address"},{"name":"newAdmin","type":"address","indexed":false,"internalType":"address"}],"anonymous":false},{"type":"event","name":"BeaconUpgraded","inputs":[{"name":"beacon","type":"address","indexed":true,"internalType":"address"}],"anonymous":false},{"type":"event","name":"ChargedFees","inputs":[{"name":"callFeeAmount","type":"uint256","indexed":false,"internalType":"uint256"},{"name":"beefyFeeAmount","type":"uint256","indexed":false,"internalType":"uint256"},{"name":"strategistFeeAmount","type":"uint256","indexed":false,"internalType":"uint256"}],"anonymous":false},{"type":"event","name":"ClaimedFees","inputs":[{"name":"feeMain0","type":"uint256","indexed":false,"internalType":"uint256"},{"name":"feeMain1","type":"uint256","indexed":false,"internalType":"uint256"},{"name":"feeAlt0","type":"uint256","indexed":false,"internalType":"uint256"},{"name":"feeAlt1","type":"uint256","indexed":false,"internalType":"uint256"}],"anonymous":false},{"type":"event","name":"Harvest","inputs":[{"name":"fee0","type":"uint256","indexed":false,"internalType":"uint256"},{"name":"fee1","type":"uint256","indexed":false,"internalType":"uint256"}],"anonymous":false},{"type":"event","name":"Initialized","inputs":[{"name":"version","type":"uint8","indexed":false,"internalType":"uint8"}],"anonymous":false},{"type":"event","name":"OwnershipTransferred","inputs":[{"name":"previousOwner","type":"address","indexed":true,"internalType":"address"},{"name":"newOwner","type":"address","indexed":true,"internalType":"address"}],"anonymous":false},{"type":"event","name":"Paused","inputs":[{"name":"account","type":"address","indexed":false,"internalType":"address"}],"anonymous":false},{"type":"event","name":"SetDeviation","inputs":[{"name":"maxTickDeviation","type":"int56","indexed":false,"internalType":"int56"}],"anonymous":false},{"type":"event","name":"SetLpToken0ToNativePath","inputs":[{"name":"path","type":"bytes","indexed":false,"internalType":"bytes"}],"anonymous":false},{"type":"event","name":"SetLpToken1ToNativePath","inputs":[{"name":"path","type":"bytes","indexed":false,"internalType":"bytes"}],"anonymous":false},{"type":"event","name":"SetPositionWidth","inputs":[{"name":"oldWidth","type":"int24","indexed":false,"internalType":"int24"},{"name":"width","type":"int24","indexed":false,"internalType":"int24"}],"anonymous":false},{"type":"event","name":"SetQuoter","inputs":[{"name":"quoter","type":"address","indexed":false,"internalType":"address"}],"anonymous":false},{"type":"event","name":"SetStratFeeId","inputs":[{"name":"feeId","type":"uint256","indexed":false,"internalType":"uint256"}],"anonymous":false},{"type":"event","name":"SetStrategist","inputs":[{"name":"strategist","type":"address","indexed":false,"internalType":"address"}],"anonymous":false},{"type":"event","name":"SetTwapInterval","inputs":[{"name":"oldInterval","type":"uint32","indexed":false,"internalType":"uint32"},{"name":"interval","type":"uint32","indexed":false,"internalType":"uint32"}],"anonymous":false},{"type":"event","name":"SetUnirouter","inputs":[{"name":"unirouter","type":"address","indexed":false,"internalType":"address"}],"anonymous":false},{"type":"event","name":"TVL","inputs":[{"name":"bal0","type":"uint256","indexed":false,"internalType":"uint256"},{"name":"bal1","type":"uint256","indexed":false,"internalType":"uint256"}],"anonymous":false},{"type":"event","name":"Unpaused","inputs":[{"name":"account","type":"address","indexed":false,"internalType":"address"}],"anonymous":false},{"type":"event","name":"Upgraded","inputs":[{"name":"implementation","type":"address","indexed":true,"internalType":"address"}],"anonymous":false},{"type":"error","name":"InvalidEntry","inputs":[]},{"type":"error","name":"InvalidInput","inputs":[]},{"type":"error","name":"InvalidOutput","inputs":[]},{"type":"error","name":"InvalidTicks","inputs":[]},{"type":"error","name":"NotAuthorized","inputs":[]},{"type":"error","name":"NotCalm","inputs":[]},{"type":"error","name":"NotManager","inputs":[]},{"type":"error","name":"NotPool","inputs":[]},{"type":"error","name":"NotStrategist","inputs":[]},{"type":"error","name":"NotVault","inputs":[]},{"type":"error","name":"OverLimit","inputs":[]},{"type":"error","name":"StrategyPaused","inputs":[]},{"type":"error","name":"TooMuchSlippage","inputs":[]}],"bytecode":{"object":"0x60a080604052346100da57306080525f549060ff8260081c16610088575060ff8082160361004e575b604051615f8790816100df823960805181818161117901528181611a020152611af70152f35b60ff90811916175f557f7f26b83ff96e1f2b6a682f133852f6798a09c465da95921460cefb3847402498602060405160ff8152a15f610028565b62461bcd60e51b815260206004820152602760248201527f496e697469616c697a61626c653a20636f6e747261637420697320696e697469604482015266616c697a696e6760c81b6064820152608490fd5b5f80fdfe60806040526004361015610011575f80fd5b5f3560e01c8062a4b5c91461042e57806304c404b314610429578063065e53601461042457806308898ea01461041f5780630e5c011e1461041a57806311b0b42d146104155780631208aa181461041057806312cf13811461040b57806316f0115b1461040657806317dd7a72146104015780631d27050f146103fc5780631dcfeddd146103f75780631fe4a686146103f25780632150c518146103ed578063236db042146103e8578063257ae0de146103e35780632b950b66146103de578063362c28c6146103d95780633659cfe6146103d4578063367ad9e2146103cf5780633c1d5df0146103ca5780633e55f932146103c55780633f4ba83a146103c0578063441a3e70146103bb57806344b81396146103b65780634641257d146103b15780634746fb55146103ac5780634c02a21c146103a75780634f1ef286146103a257806352d1902d1461039d57806354cf2aeb146103985780635c975abb146103935780635ee167c01461038e578063609913461461038957806367a5279314610302578063696c58e514610384578063715018a61461037f5780637bb98a681461037a5780637f10e4b9146103755780638097e24914610370578063865238d41461036b578063877562b6146103665780638cfc0250146103615780638da5cb5b1461035c5780638e1454591461035757806393f1c44214610352578063953d329f1461034d57806399cd2446146103485780639bdde46b14610343578063a035b1fe1461033e578063aced166114610339578063b20feaaf14610334578063b83d26831461032f578063bc415d8a1461032a578063c45a015514610325578063c6bbd5a714610320578063c7b9d5301461031b578063c7d5413214610316578063d0e30db014610311578063d34879971461030c578063d92f3d7314610307578063e941fa7814610302578063f1a392da146102fd578063f2fde38b146102f8578063fbfa77cf146102f35763fcc25e13146102ee575f80fd5b612884565b61285c565b6127cb565b6127ae565b611db1565b61272e565b612644565b6124bb565b61235c565b6122d3565b6122aa565b612282565b612254565b61223a565b612173565b612159565b61211e565b6120fa565b6120cc565b612023565b612005565b611feb565b611fc3565b611f44565b611f1b565b611efe565b611edd565b611e4f565b611e37565b611def565b611dcb565b611ca0565b611c77565b611c55565b611ba3565b611ae5565b6119c6565b61193c565b611910565b61161d565b611605565b61152d565b61144c565b611368565b611341565b61128a565b611157565b6110bf565b611097565b61106f565b610fd1565b610fab565b610f83565b610ebe565b610d45565b610d0b565b610ce2565b610ab3565b610a83565b610a55565b61061b565b610511565b610491565b610474565b610444565b908152602081019190915260400190565b34610470575f3660031901126104705761045c6128dd565b9061046c60405192839283610433565b0390f35b5f80fd5b34610470575f366003190112610470576020609d54604051908152f35b34610470575f3660031901126104705760206104ab612a2a565b6040519060020b8152f35b9181601f84011215610470578235916001600160401b038311610470576020838186019501011161047057565b602060031982011261047057600435906001600160401b0382116104705761050d916004016104b6565b9091565b346104705761051f366104e3565b610527613cd9565b8061052e57005b61054161053c368385611975565b613d31565b61055a61054d82612b50565b516001600160a01b031690565b61056e610569610138546105fe565b6105fe565b6001600160a01b03909116036105ef5761054d8161058f6105959351612b9a565b90612b72565b6105a36105696097546105fe565b6001600160a01b03909116036105e057816105cc825f516020615e725f395f51905f5294612c19565b6105db60405192839283612db3565b0390a1005b6398f7360960e01b5f5260045ffd5b63b4fa3fb360e01b5f5260045ffd5b6001600160a01b031690565b6001600160a01b0381160361047057565b34610470576020366003190112610470576004356106388161060a565b610640614a67565b610648613e0c565b5050505061065461419f565b6101395461013a54915f905f92610669614f7e565b945f918061095e575b50806107ba575b505f516020615f325f395f51905f529161075761071c6106e6936107176106ee6106be60608c6106cc6106be5f516020615df25f395f51905f529f60400151886133aa565b670de0b6b3a7640000900490565b998a809a6106e16105696105696097546105fe565b614aa0565b0151846133aa565b958692610717846107066105696105696097546105fe565b610711609a546105fe565b90614aa0565b612bbd565b9261073a846107326105696105696097546105fe565b610711613818565b604051938493846040919493926060820195825260208201520152565b0390a1610762614525565b61076c5f61013955565b6107765f61013a55565b6107a261079d61079261079761078a6133c9565b929086613379565b609c55565b84613379565b609d55565b6107ab42609e55565b6105db60405192839283610433565b93506107d46107cd6106be8751876133aa565b8095612bbd565b935f6107e2610138546105fe565b6107ed6097546105fe565b6107f6816105fe565b6001600160a01b03831603610894575b505061071c5f516020615df25f395f51905f52976107176106ee6106be60606106e6985f516020615f325f395f51905f529a9861075798610849610138546105fe565b6108576105696097546105fe565b6001600160a01b0390911603610883575061087191613379565b945b9c50505050509350505091610679565b905061088e91613379565b94610873565b6108d1925092602091819596945f6108b36105696105696099546105fe565b9260405196879586948593630df791e560e41b8552600485016155fd565b03925af1908115610959575f516020615df25f395f51905f52976107176106ee6106be60605f516020615f325f395f51905f52996106e6996107579861071c985f9161092a575b509850989a5098505050505097610806565b61094c915060203d602011610952575b6109448183610e63565b8101906128c3565b5f610918565b503d61093a565b6128d2565b9350906109726107cd6106be8851876133aa565b935f91610981610137546105fe565b61098c6097546105fe565b610995816105fe565b6001600160a01b038316036109eb575b50506109b3610137546105fe565b6109c16105696097546105fe565b6001600160a01b03909116036109e3576109db9250613379565b905b5f610672565b5050906109dd565b610a0892945060209184915f6108b36105696105696099546105fe565b03925af1908115610959575f91610a23575b50915f806109a5565b610a3c915060203d602011610952576109448183610e63565b5f610a1a565b6001600160a01b03909116815260200190565b34610470575f366003190112610470576097546040516001600160a01b039091168152602090f35b60060b90565b34610470575f366003190112610470576020610a9d612f9f565b6040519060060b8152f35b8060020b0361047057565b3461047057602036600319011261047057600435610ad081610aa8565b610ad8613cd9565b7f69d927977053f4ff4a26e8d792564e367e844a869cda4df12630bf7b62a632de8161013f5460020b610b10604051928392836120b7565b0390a1610b1b613e0c565b50505050610b2761419f565b62ffffff1961013f54169062ffffff16178061013f55610b45614a67565b610b4d612a2a565b610b62610b58614757565b809360020b6131ed565b610b94610b70848385615bcf565b91909161013d549060181b65ffffff000000169065ffffff00000019161761013d55565b62ffffff1961013d54169062ffffff161761013d55610bb16128dd565b5f9180610caf575b5080821015610c72575050918082610be1610bdb83610bec97610be697615bcf565b506130a3565b615bcf565b5061561f565b61013d54610bfa8160020b90565b61013e5490610c12610c0c8360020b90565b60020b90565b9060020b149182610c46575b5050610c3757610c2d42609f55565b610c35614525565b005b631434ed7f60e01b5f5260045ffd5b610c66919250610c5c610c0c9160181c60020b90565b9260181c60020b90565b9060020b145f80610c1e565b93919310610c83575b505050610bec565b610ca79282610be1610c998480610ca097615bcf565b90506130a3565b905061561f565b5f8080610c7b565b610cdb919250610cc790610cc16139ba565b906133aa565b6a0c097ce7bc90715b34b9f160241b900490565b905f610bb9565b34610470575f36600319011261047057610135546040516001600160a01b039091168152602090f35b34610470575f36600319011261047057610d23614734565b610d2b613e0c565b50505050610c3561419f565b63ffffffff81160361047057565b3461047057602036600319011261047057600435610d6281610d37565b610d6a613cd9565b603c63ffffffff61013f5460501c166040519081527f86139943149914833c057d2c24f3a3967cce8e6aba2eb12e422500d8a51ffc7b604063ffffffff851692836020820152a1106105ef5761013f805463ffffffff60501b191660509290921b63ffffffff60501b16919091179055005b90600182811c92168015610e0a575b6020831014610df657565b634e487b7160e01b5f52602260045260245ffd5b91607f1691610deb565b634e487b7160e01b5f52604160045260245ffd5b606081019081106001600160401b03821117610e4357604052565b610e14565b60c081019081106001600160401b03821117610e4357604052565b601f909101601f19168101906001600160401b03821190821017610e4357604052565b805180835260209291819084018484015e5f828201840152601f01601f1916010190565b906020610ebb928181520190610e86565b90565b34610470575f366003190112610470576040515f61013b54610edf81610ddc565b8084529060018116908115610f5f5750600114610f13575b61046c83610f0781850382610e63565b60405191829182610eaa565b61013b5f9081525f516020615ef25f395f51905f52939250905b808210610f4557509091508101602001610f07610ef7565b919260018160209254838588010152019101909291610f2d565b60ff191660208086019190915291151560051b84019091019150610f079050610ef7565b34610470575f36600319011261047057609a546040516001600160a01b039091168152602090f35b34610470575f366003190112610470576040610fc56130e4565b82519182526020820152f35b3461047057610fdf366104e3565b610fe7613cd9565b80610fee57005b610ffc61053c368385611975565b61100861054d82612b50565b611017610569610137546105fe565b6001600160a01b03909116036105ef5761054d8161058f6110389351612b9a565b6110466105696097546105fe565b6001600160a01b03909116036105e057816105cc825f516020615e325f395f51905f5294612cec565b34610470575f366003190112610470576099546040516001600160a01b039091168152602090f35b34610470575f366003190112610470576020609c54604051908152f35b8060060b0361047057565b34610470576020366003190112610470576004356110dc816110b4565b6110e4613cd9565b6040517f69d3f73bfb3c2f0de63dc1de2ed486cf45d88ebfff8cb1e8f124b085d2bafb9760208360060b92838152a161112361111e614757565b6131d9565b60020b13156105ef5761013f549060181b69ffffffffffffff000000169069ffffffffffffff00000019161761013f555f80f35b34610470576020366003190112610470576004356111748161060a565b6111cb7f00000000000000000000000000000000000000000000000000000000000000006001600160a01b03166111ad30821415613204565b5f516020615e525f395f51905f52546001600160a01b031614613252565b6111d481614809565b6111dc6132a0565b5f516020615dd25f395f51905f525460ff16156111fd5750610c359061578c565b6040516352d1902d60e01b8152906020826004816001600160a01b0387165afa5f9281611269575b506112475760405162461bcd60e51b815280611243600482016148f7565b0390fd5b610c35926112645f516020615e525f395f51905f525f9414614899565b6149eb565b61128391935060203d602011610952576109448183610e63565b915f611225565b34610470575f366003190112610470576112a2613cd9565b609b546112bb90610569906001600160a01b03166105fe565b60206040518092631f1097e560e01b825281806112da600482016132d0565b03915afa801561095957610c35915f91611312575b506113046001600160a01b0382161515613314565b61130c6132a0565b90614946565b611334915060203d60201161133a575b61132c8183610e63565b8101906132bb565b5f6112ef565b503d611322565b34610470575f36600319011261047057602063ffffffff61013f5460501c16604051908152f35b34610470575f6020366003190112610470576004356033546001600160a01b031633141580611432575b611423576001600160a01b036113a661347f565b16803b15610470575f8091602460405180948193631f2afc9960e11b83528760048401525af180156109595761140c575b506040519081527f9163810ee1e29168d4ce900e48a333fb8fbd3fd070d2bef67f6d4db0846a469f9080602081015b0390a180f35b6114199192505f90610e63565b5f906114066113d7565b63607e454560e11b5f5260045ffd5b506001600160a01b036114436139d0565b16331415611392565b34610470575f366003190112610470576033546001600160a01b03163381141580611513575b611423571561150457611483614a2d565b60655460ff8116156114c85760ff19166065557f5db9ee0a495bf2e6ff9c91a7834c1ba4fdd244a5e8aa4e537bd38aeae4b073aa6020604051338152a1610c2d614402565b60405162461bcd60e51b815260206004820152601460248201527314185d5cd8589b194e881b9bdd081c185d5cd95960621b6044820152606490fd5b63ea8e4eb560e01b5f5260045ffd5b506001600160a01b036115246139d0565b16331415611472565b346104705760403660031901126104705760243560043561154c614734565b6101405442146115f8575b806115d3575b50806115ac575b50611574611570614aee565b1590565b61159f575b5f516020615e925f395f51905f5261158f6134df565b906105db60405192839283610433565b6115a7614525565b611579565b6115cd906115c2610569610569610138546105fe565b6107116098546105fe565b5f611564565b610137546115f291906115c290610569906001600160a01b03166105fe565b5f61155d565b611600614a67565b611557565b34610470575f3660031901126104705761045c6133c9565b34610470575f36600319011261047057611635614a67565b61163d613e0c565b5050505061164961419f565b6101395461013a54905f5f9161165d614f7e565b935f918061182c575b50806116c7575b5060608461075761071c5f516020615f325f395f51905f52946107176106ee6106be6116ae6106be60405f516020615df25f395f51905f529e0151866133aa565b9788976106e689326106e16105696105696097546105fe565b92506116e16116da6106be8651866133aa565b8094612bbd565b925f6116ef610138546105fe565b6116fa6097546105fe565b611703816105fe565b6001600160a01b0383160361178c575b50509461075761071c5f516020615f325f395f51905f52946060945f516020615df25f395f51905f5299611749610138546105fe565b6117576105696097546105fe565b6001600160a01b039091160361177c575061177191613379565b94505050945061166d565b905061178791613379565b611771565b6117c797925060209184915f6117a96105696105696099546105fe565b926040519b8c9586948593630df791e560e41b8552600485016155fd565b03925af180156109595761071c5f516020615f325f395f51905f5294606094610757935f516020615df25f395f51905f529a5f9161180d575b5094995094509450611713565b611826915060203d602011610952576109448183610e63565b5f611800565b9250906118406116da6106be8751866133aa565b925f9161184f610137546105fe565b61185a6097546105fe565b611863816105fe565b6001600160a01b038316036118b9575b5050611881610137546105fe565b61188f6105696097546105fe565b6001600160a01b03909116036118b1576118a99250613379565b905b5f611666565b5050906118ab565b6118d692945060209184915f6108b36105696105696099546105fe565b03925af1908115610959575f916118f1575b50915f80611873565b61190a915060203d602011610952576109448183610e63565b5f6118e8565b34610470575f36600319011261047057602061192a61347f565b6040516001600160a01b039091168152f35b34610470575f36600319011261047057602061013a54604051908152f35b6001600160401b038111610e4357601f01601f191660200190565b9291926119818261195a565b9161198f6040519384610e63565b829481845281830111610470578281602093845f960137010152565b9080601f8301121561047057816020610ebb93359101611975565b6040366003190112610470576004356119de8161060a565b6024356001600160401b038111610470576119fd9036906004016119ab565b611a367f00000000000000000000000000000000000000000000000000000000000000006001600160a01b03166111ad30821415613204565b611a3f82614809565b5f516020615dd25f395f51905f525460ff1615611a605750610c359061578c565b6040516352d1902d60e01b8152906020826004816001600160a01b0387165afa5f9281611ac4575b50611aa65760405162461bcd60e51b815280611243600482016148f7565b610c35926112645f516020615e525f395f51905f5260019414614899565b611ade91935060203d602011610952576109448183610e63565b915f611a88565b34610470575f366003190112610470577f00000000000000000000000000000000000000000000000000000000000000006001600160a01b03163003611b3d576040515f516020615e525f395f51905f528152602090f35b60405162461bcd60e51b815260206004820152603860248201527f555550535570677261646561626c653a206d757374206e6f742062652063616c6044820152771b1959081d1a1c9bdd59da0819195b1959d85d1958d85b1b60421b6064820152608490fd5b34610470575f366003190112610470576101355460405163ddca3f4360e01b815290602090829060049082906001600160a01b03165afa908115610959575f91611c15575b61046c611c05611bfc62ffffff8516613386565b620f4240900490565b6040519081529081906020820190565b90506020813d602011611c4d575b81611c3060209383610e63565b81010312610470575162ffffff8116810361047057611c05611be8565b3d9150611c23565b34610470575f36600319011261047057602060ff606554166040519015158152f35b34610470575f36600319011261047057610137546040516001600160a01b039091168152602090f35b34610470576040366003190112610470576004356024356033546001600160a01b031633141580611d97575b61142357611cd8613e0c565b50505050611ce461419f565b611cec614b5e565b60655460ff8116611d5f5760019060ff1916176065557f62e78cea01bee320cd4e420270b5ea74000d11b0c9f74754ebdbfc544b05a2586020604051338152a1611d346134df565b9211918215611d55575b5050611d4657005b63fa6ad35560e01b5f5260045ffd5b1090505f80611d3e565b60405162461bcd60e51b815260206004820152601060248201526f14185d5cd8589b194e881c185d5cd95960821b6044820152606490fd5b506001600160a01b03611da86139d0565b16331415611ccc565b34610470575f3660031901126104705760206040515f8152f35b34610470575f36600319011261047057602061013f5460181c60060b604051908152f35b34610470575f36600319011261047057611e07613cd9565b603380546001600160a01b031981169091555f906001600160a01b03165f516020615eb25f395f51905f528280a3005b34610470575f3660031901126104705761045c6134df565b346104705761012036600319011261047057600435611e6d8161060a565b602435611e798161060a565b60443590611e8682610aa8565b6064356001600160401b03811161047057611ea59036906004016104b6565b906084356001600160401b03811161047057611ec59036906004016104b6565b94909360803660a319011261047057610c35966135c3565b34610470575f36600319011261047057602061013f5460020b604051908152f35b34610470575f366003190112610470576020609f54604051908152f35b34610470575f36600319011261047057610138546040516001600160a01b039091168152602090f35b34610470575f36600319011261047057602460206001600160a01b03611f6861347f565b1660405192838092636788231160e11b82523060048301525afa80156109595761046c915f91611fa4575b506040519081529081906020820190565b611fbd915060203d602011610952576109448183610e63565b5f611f93565b34610470575f366003190112610470576033546040516001600160a01b039091168152602090f35b34610470575f36600319011261047057602061192a613818565b34610470575f36600319011261047057602061013954604051908152f35b34610470575f366003190112610470576040515f61013c5461204481610ddc565b8084529060018116908115610f5f575060011461206b5761046c83610f0781850382610e63565b61013c5f9081525f516020615f125f395f51905f52939250905b80821061209d57509091508101602001610f07610ef7565b919260018160209254838588010152019101909291612085565b600291820b815291900b602082015260400190565b34610470575f3660031901126104705761046c61013e546040519181839260181c60020b9060020b836120b7565b34610470575f36600319011261047057602061211461388e565b6040519015158152f35b34610470575f36600319011261047057602061215161214c6001600160a01b03612146613a38565b16614db1565b613928565b604051908152f35b34610470575f36600319011261047057602061192a6139d0565b34610470575f366003190112610470575f6040805161219181610e28565b612199613a07565b815282602082015201526121ab614f7e565b604051906121b882610e28565b815260208101905f825260408101915f83526040519283926020845251916060602085015282516080850152602083015160a0850152604083015160c0850152606083015160e085015260a061221f608085015160c0610100880152610140870190610e86565b93015115156101208501525160408401525160608301520390f35b34610470575f36600319011261047057602061192a613a38565b34610470575f3660031901126104705761046c61013d546040519181839260181c60020b9060020b836120b7565b34610470575f36600319011261047057609b546040516001600160a01b039091168152602090f35b34610470575f36600319011261047057610136546040516001600160a01b039091168152602090f35b34610470576020366003190112610470576004356122f08161060a565b609a54906001600160a01b038216330361234d576001600160a01b03166001600160a01b0319919091168117609a556040519081527f46d58e3fa07bf19b1d27240f0e286b27e9f7c1b0d88933333fe833b60eec541290602090a1005b633163ba6d60e11b5f5260045ffd5b34610470575f36600319011261047057612374614a67565b61237c613cd9565b612384613e0c565b5050505061239061419f565b612398614a67565b6123a0612a2a565b6123a8614757565b906123b98261013f5460020b6131ed565b6123c7610b70848385615bcf565b62ffffff1961013d54169062ffffff161761013d556123e46128dd565b5f91806124a2575b5080821015612473575050918082610be1610bdb8361240e97610be697615bcf565b61013d5461241c8160020b90565b61013e549061242e610c0c8360020b90565b9060020b149182612451575b5050610c375761244942609f55565b611579614525565b612467919250610c5c610c0c9160181c60020b90565b9060020b145f8061243a565b93919310612484575b50505061240e565b61249a9282610be1610c998480610ca097615bcf565b5f808061247c565b6124b4919250610cc790610cc16139ba565b905f6123ec565b34610470575f366003190112610470576124d3614a67565b6124db614734565b61013f5460ff8160781c1615612515575b6124f4614525565b5f516020615e925f395f51905f5261250a6134df565b906107ab4261014055565b61251d614a67565b612525612a2a565b612530610b58614757565b61253e610b70848385615bcf565b62ffffff1961013d54169062ffffff161761013d5561255b6128dd565b5f918061262b575b50808210156125fc575050918082610be1610bdb8361258597610be697615bcf565b61013d546125938160020b90565b61013e54906125a5610c0c8360020b90565b9060020b1491826125da575b5050610c37576125c042609f55565b61013f805460ff60781b1916600160781b1790555f6124ec565b6125f0919250610c5c610c0c9160181c60020b90565b9060020b145f806125b1565b9391931061260d575b505050612585565b6126239282610be1610c998480610ca097615bcf565b5f8080612605565b61263d919250610cc790610cc16139ba565b905f612563565b34610470576060366003190112610470576024356004356044356001600160401b0381116104705761267a9036906004016119ab565b50612687610135546105fe565b90612691826105fe565b330361271f5761013f546126a99060701c60ff161590565b61271057806126f3575b5050806126cb575b61013f805460ff60701b19169055005b6126ed906126e1610569610569610138546105fe565b610711610135546105fe565b5f6126bb565b612709916106e1610569610569610137546105fe565b5f806126b3565b63887efaa560e01b5f5260045ffd5b636f61f64160e01b5f5260045ffd5b34610470576020366003190112610470577f5ca6e64c4522e68e154aa9372f2c5969cd37d9640e59f66953dc472f54ee86fa602060043561276e8161060a565b612776613cd9565b61277e614b5e565b609980546001600160a01b0319166001600160a01b039290921691821790556127a5614a2d565b604051908152a1005b34610470575f366003190112610470576020609e54604051908152f35b34610470576020366003190112610470576004356127e88161060a565b6127f0613cd9565b6001600160a01b0381161561280857610c3590614b98565b60405162461bcd60e51b815260206004820152602660248201527f4f776e61626c653a206e6577206f776e657220697320746865207a65726f206160448201526564647265737360d01b6064820152608490fd5b34610470575f366003190112610470576098546040516001600160a01b039091168152602090f35b34610470575f3660031901126104705760c061289e613af5565b93604093919351958652602086015260408501526060840152608083015260a0820152f35b90816020910312610470575190565b6040513d5f823e3d90fd5b6128ef610569610569610137546105fe565b90602060405180936370a0823160e01b825281806129103060048301610a42565b03915afa918215610959575f92612986575b50612935610569610569610138546105fe565b91602060405180946370a0823160e01b825281806129563060048301610a42565b03915afa928315610959575f9361296c57509190565b610ebb91935060203d602011610952576109448183610e63565b6129a091925060203d602011610952576109448183610e63565b905f612922565b519061ffff8216820361047057565b5190811515820361047057565b908160e09103126104705780516129d98161060a565b9160208201516129e881610aa8565b916129f5604082016129a7565b91612a02606083016129a7565b91612a0f608082016129a7565b91610ebb60c060a0840151612a2381610d37565b93016129b6565b61013554604051633850c7bd60e01b81529060e090829060049082906001600160a01b03165afa908115610959575f91612a62575090565b612a84915060e03d60e011612a8e575b612a7c8183610e63565b8101906129c3565b5050505050905090565b503d612a72565b90612a9e613cd9565b80612aa7575050565b612ab561053c368385611975565b612ac161054d82612b50565b612ad0610569610138546105fe565b6001600160a01b03909116036105ef5761054d8161058f612af19351612b9a565b612aff6105696097546105fe565b6001600160a01b03909116036105e05781612b28825f516020615e725f395f51905f5294612c19565b612b3760405192839283612db3565b0390a1565b634e487b7160e01b5f52603260045260245ffd5b805115612b5d5760200190565b612b3c565b805160011015612b5d5760400190565b8051821015612b5d5760209160051b010190565b634e487b7160e01b5f52601160045260245ffd5b5f19810191908211612ba857565b612b86565b610e100390610e108211612ba857565b91908203918211612ba857565b601f8211612bd757505050565b5f5260205f20906020601f840160051c83019310612c0f575b601f0160051c01905b818110612c04575050565b5f8155600101612bf9565b9091508190612bf0565b91906001600160401b038111610e4357612c4181612c3961013c54610ddc565b61013c612bca565b5f601f8211600114612c80578190612c6f93945f92612c75575b50508160011b915f199060031b1c19161790565b61013c55565b013590505f80612c5b565b61013c5f52601f198216935f516020615f125f395f51905f52915f5b868110612cd45750836001959610612cbb575b505050811b0161013c55565b01355f19600384901b60f8161c191690555f8080612caf565b90926020600181928686013581550194019101612c9c565b91906001600160401b038111610e4357612d1481612d0c61013b54610ddc565b61013b612bca565b5f601f8211600114612d47578190612d4193945f92612c755750508160011b915f199060031b1c19161790565b61013b55565b61013b5f52601f198216935f516020615ef25f395f51905f52915f5b868110612d9b5750836001959610612d82575b505050811b0161013b55565b01355f19600384901b60f8161c191690555f8080612d76565b90926020600181928686013581550194019101612d63565b90918060409360208452816020850152848401375f828201840152601f01601f1916010190565b6001600160401b038111610e435760051b60200190565b9080601f83011215610470578151612e0881612dda565b92612e166040519485610e63565b81845260208085019260051b82010192831161047057602001905b828210612e3e5750505090565b602080918351612e4d8161060a565b815201910190612e31565b9190916040818403126104705780516001600160401b03811161047057810183601f8201121561047057805190612e8e82612dda565b91612e9c6040519384610e63565b80835260208084019160051b8301019186831161047057602001905b828210612ee25750505060208201519093906001600160401b03811161047057610ebb9201612df1565b602080918351612ef1816110b4565b815201910190612eb8565b60206040818301928281528451809452019201905f5b818110612f1f5750505090565b825163ffffffff16845260209384019390920191600101612f12565b600691820b910b0390667fffffffffffff198212667fffffffffffff831317612ba857565b634e487b7160e01b5f52601260045260245ffd5b60060b9060060b908115612f9a57667fffffffffffff1981145f19831416612ba8570590565b612f60565b604051606090612faf8282610e63565b6002815261302191601f190136602083013761013f545f9060501c63ffffffff1691612fe983612fde83612b50565b9063ffffffff169052565b81612ff382612b62565b52613006610569610569610135546105fe565b604051808096819463883bdbfd60e01b835260048301612efc565b03915afa91821561095957613074613067610ebb9461307a935f91613080575b5061306161305461305b61305484612b62565b5160060b90565b92612b50565b90612f3b565b9263ffffffff1660030b90565b60030b90565b90612f74565b61309c91503d805f833e6130948183610e63565b810190612e58565b505f613041565b62ffffff1961013e54169062ffffff161761013e55565b60609190911b6001600160601b031916815260e891821b601482015291901b6017820152601a0190565b61013d546040516131178161310960208201948060181c60020b9060020b30876130ba565b03601f198101835282610e63565b5190209061013e546040516131408161310960208201948060181c60020b9060020b30876130ba565b51902090565b9061314f613cd9565b80613158575050565b61316661053c368385611975565b61317261054d82612b50565b613181610569610137546105fe565b6001600160a01b03909116036105ef5761054d8161058f6131a29351612b9a565b6131b06105696097546105fe565b6001600160a01b03909116036105e05781612b28825f516020615e325f395f51905f5294612cec565b60020b60021b908160020b918203612ba857565b9060020b9060020b02908160020b918203612ba857565b1561320b57565b60405162461bcd60e51b815260206004820152602c60248201525f516020615e125f395f51905f5260448201526b19195b1959d85d1958d85b1b60a21b6064820152608490fd5b1561325957565b60405162461bcd60e51b815260206004820152602c60248201525f516020615e125f395f51905f5260448201526b6163746976652070726f787960a01b6064820152608490fd5b604051906132af602083610e63565b5f808352366020840137565b908160209103126104705751610ebb8161060a565b60809060208152602360208201527f416e616c6f675374726174656779506173736976654d616e61676572556e697360408201526207761760ec1b60608201520190565b1561331b57565b60405162461bcd60e51b815260206004820152601a602482015279139bc81a5b5c1b195b595b9d185d1a5bdb881cda59db985b195960321b6044820152606490fd5b9060018201809211612ba857565b90601f8201809211612ba857565b91908201809211612ba857565b90670de0b6b3a7640000820291808304670de0b6b3a76400001490151715612ba857565b81810292918115918404141715612ba857565b8015612f9a575f190490565b6133d16128dd565b91906133db613af5565b50505050908201809211612ba8578301809311612ba8576133fe609e5442612bbd565b610e108110156134765761341190612bad565b80915b609c54908181111561346157506134369161342e916133aa565b610e10900490565b925b609d5490818111156134525750610ebb9161342e916133aa565b61342e915091610ebb926133aa565b61342e915091613470926133aa565b92613438565b505f8091613414565b609b54604051634746fb5560e01b815290602090829060049082906001600160a01b03165afa908115610959575f916134c0575b506001600160a01b031690565b6134d9915060203d60201161133a5761132c8183610e63565b5f6134b3565b6134e76128dd565b91906134f1613af5565b505050506134fd6133c9565b928401809411612ba8578303928311612ba8578401809411612ba8578303928311612ba8576101395461013a5490828111613559575b848211613551575b8203918211612ba8578303928311612ba8579190565b84915061353b565b5081613533565b1561356757565b60405162461bcd60e51b815260206004820152602e60248201527f496e697469616c697a61626c653a20636f6e747261637420697320616c72656160448201526d191e481a5b9a5d1a585b1a5e995960921b6064820152608490fd5b959261360d959260a495925f54986135f360ff8b60081c16151515809b8161368b575b811561366b575b50613560565b89613604600160ff195f5416175f55565b61365457613699565b61361357565b61362161ff00195f54165f55565b604051600181527f7f26b83ff96e1f2b6a682f133852f6798a09c465da95921460cefb3847402498908060208101612b37565b61366661010061ff00195f5416175f55565b613699565b303b1591508161367d575b505f6135ed565b60ff1660011490505f613676565b600160ff82161091506135e6565b9196906136ab6136ea92959495614c2d565b61013580546001600160a01b0319166001600160a01b03851617905561013680546001600160a01b0319166001600160a01b0392909216919091179055565b604051630dfe168160e01b815292906001600160a01b0316602084600481845afa908115610959576137466020926004965f916137fb575b5061013780546001600160a01b0319166001600160a01b0392909216919091179055565b60405163d21220a760e01b815294859182905afa8015610959576137bb9661379a6137b1926137b6965f916137dc575b5061013880546001600160a01b0319166001600160a01b0392909216919091179055565b62ffffff1961013f54169062ffffff161761013f55565b613146565b612a95565b61013f805463ffffffff60501b1916600f60531b1790556137da614a2d565b565b6137f5915060203d60201161133a5761132c8183610e63565b5f613776565b6138129150843d861161133a5761132c8183610e63565b5f613722565b609b54604051638e14545960e01b815290602090829060049082906001600160a01b03165afa908115610959575f9161384f575090565b610ebb915060203d60201161133a5761132c8183610e63565b9060060b9060060b0190667fffffffffffff198212667fffffffffffff831317612ba857565b613896612a2a565b61389e612f9f565b6138eb610a7d6138e361013f54936138bc8560181c60060b82612f3b565b60060b620d89e71981131561391a576138dd9060060b5b9560181c60060b90565b90613868565b60060b614d94565b9160020b809160060b1391821561390d575b505015613908575f90565b600190565b60060b1290505f806138fd565b506138dd620d89e7196138d3565b5f81156139b45781806001146139ac576002146139a55760016101338310166001600b84101617613998575060015f1960025b6001811161397157508290048111612ba8570290565b928082048111612ba8576001841661398f575b80029260011c61395b565b80920291613984565b91906002900a91612ba857565b5050600490565b505050600190565b50505f90565b610ebb61214c6001600160a01b03612146613a38565b609b5460405163aced166160e01b815290602090829060049082906001600160a01b03165afa908115610959575f9161384f575090565b60405190613a1482610e48565b5f60a083828152826020820152826040820152826060820152606060808201520152565b61013554604051633850c7bd60e01b81529060e090829060049082906001600160a01b03165afa908115610959575f91613a70575090565b613a89915060e03d60e011612a8e57612a7c8183610e63565b50505050505090565b61013f805460ff60701b1916600160701b179055565b51906001600160801b038216820361047057565b908160a091031261047057613ad081613aa8565b91602082015191604081015191610ebb6080613aee60608501613aa8565b9301613aa8565b613afd6130e4565b613b08929192613a38565b613b3f60a0613b1f610569610569610135546105fe565b956040518093819263514ea4bf60e01b8352600483019190602083019252565b0381885afa928315610959575f955f925f95613ca2575b5060405163514ea4bf60e01b815260048101929092529092919060a09084908180602481015b03915afa958615610959575f905f945f98613c47575b5091613c0e613c1e92613bfe613bec613bcc613c2e989761013d54613bc5613bc0610c5c613bc08460020b90565b6150d0565b908a61543b565b93909761013e54613be6613bc0610c5c613bc08460020b90565b9161543b565b9690946001600160801b031690613379565b976001600160801b031690613379565b946001600160801b031690613379565b956001600160801b031690613379565b93613c398184613379565b94613c448184613379565b94565b613c2e9493919850613bec9550613c1e9250613bcc613bfe613c83613c0e9360a03d60a011613c9b575b613c7b8183610e63565b810190613abc565b9b93915094915093999c959798505050509250613b92565b503d613c71565b60a080939850613cc5929650613b7c9594503d8411613c9b57613c7b8183610e63565b949391509891509792959150919293613b56565b6033546001600160a01b03163303613ced57565b606460405162461bcd60e51b815260206004820152602060248201527f4f776e61626c653a2063616c6c6572206973206e6f7420746865206f776e65726044820152fd5b80516013198101908111612ba857601790046001810191828211612ba857613d5883612dda565b92613d666040519485610e63565b808452613d75601f1991612dda565b013660208501375f905b828210613d8c5750505090565b613dd481613dcf613dbd613da16001956154bc565b509190613dae888b612b72565b6001600160a01b039091169052565b613dae613dc98761335d565b89612b72565b615560565b910190613d7f565b9190826040910312610470576020825192015190565b919082604091031261047057610ebb6020613aee84613aa8565b613e4b613e176130e4565b60a0613e2b610569610569610135546105fe565b926040518095819263514ea4bf60e01b8352600483019190602083019252565b0381855afa90811561095957613e85935f92614179575b5060a0906040518095819263514ea4bf60e01b8352600483019190602083019252565b0381855afa928315610959575f93614154575b506001600160801b031661410f575b506001600160801b031661406f575b613f286040613ecd610569610569610135546105fe565b61013d5490613edf610c5c8360020b90565b83516309e3d67b60e31b8152306004820152600293840b6024820152920b60448301526001600160801b03606483018190526084830152909283919082905f90829060a4820190565b03925af18015610959575f915f9161404e575b5060018060801b03169060018060801b031691613f776040613f65610569610569610135546105fe565b61013e5490613edf610c5c8360020b90565b03925af18015610959575f915f9161401d575b5060018060801b03169060018060801b031691613fbc613fb684613fb18861013954613379565b613379565b61013955565b613fd6613fd083613fb18761013a54613379565b61013a55565b6040805186815260208101869052908101849052606081018390527f6fe7c663aa15def6e80578b76ddd894fcefeabf14a0106afbec24da4a6c57872908060808101612b37565b9050614041915060403d604011614047575b6140398183610e63565b810190613df2565b5f613f8a565b503d61402f565b9050614069915060403d604011614047576140398183610e63565b5f613f3b565b6140cc6040614086610569610569610135546105fe565b61013e5490614098610c5c8360020b90565b835163a34123a760e01b8152600293840b6004820152920b60248301525f6044830181905291938492839182906064820190565b03925af18015610959576140e1575b50613eb6565b6141029060403d604011614108575b6140fa8183610e63565b810190613ddc565b506140db565b503d6140f0565b60406141279161013d5490614098610c5c8360020b90565b03925af180156109595715613ea75761414e9060403d604011614108576140fa8183610e63565b50613ea7565b61416e91935060a03d60a011613c9b57613c7b8183610e63565b50505050915f613e98565b60a091925061419490823d8411613c9b57613c7b8183610e63565b505050509190613e62565b6141df6141aa6130e4565b9060a06141bf610569610569610135546105fe565b916040518095819263514ea4bf60e01b8352600483019190602083019252565b0381845afa91821561095957614218935f936143dc575060a0906040518095819263514ea4bf60e01b8352600483019190602083019252565b0381845afa928315610959575f936143b7575b506001600160801b038216614326575b50506001600160801b03811661424f575b50565b60406142b491614267610569610569610135546105fe565b61013e545f614279610c5c8360020b90565b855163a34123a760e01b8152600293840b6004820152920b60248301526001600160801b039093166044820152938492839182906064820190565b03925af1801561095957614308575b506142db6040613f65610569610569610135546105fe565b03925af18015610959576142ec5750565b6143049060403d604011614047576140398183610e63565b5050565b6143209060403d604011614108576140fa8183610e63565b506142c3565b61433f9160409161013d545f614279610c5c8360020b90565b03925af1801561095957614399575b506143666040613ecd610569610569610135546105fe565b03925af180156109595761437b575b8061423b565b6143939060403d604011614047576140398183610e63565b50614375565b6143b19060403d604011614108576140fa8183610e63565b5061434e565b6143d191935060a03d60a011613c9b57613c7b8183610e63565b50505050915f61422b565b60a09193506143f790823d8411613c9b57613c7b8183610e63565b505050509290613e62565b61440a614a67565b614412612a2a565b61441a614757565b9061442b8261013f5460020b6131ed565b614439610b70848385615bcf565b62ffffff1961013d54169062ffffff161761013d556144566128dd565b5f918061450c575b50808210156144dd575050918082610be1610bdb8361448097610be697615bcf565b61013d5461448e8160020b90565b61013e54906144a0610c0c8360020b90565b9060020b1491826144bb575b5050610c37576137da42609f55565b6144d1919250610c5c610c0c9160181c60020b90565b9060020b145f806144ac565b939193106144ee575b505050614480565b6145049282610be1610c998480610ca097615bcf565b5f80806144e6565b61451e919250610cc790610cc16139ba565b905f61445e565b61452d614a67565b614535615640565b61453d6128dd565b61458a614548613a38565b9161458361013d549161455b8360020b90565b95614572614568886150d0565b9460181c60020b90565b9361457c856150d0565b90876156bc565b9384615750565b6001600160801b038316151590816146e9575b50156146d75760406145f3926145b1613a92565b6145c3610569610569610135546105fe565b61013d545f6145d5610c5c8360020b90565b8551633c8a7d8d60e01b8152978895869485939030600486016146f1565b03925af19182156109595761462f926146b9575b505b6146116128dd565b9161013e54614629613bc0610c5c613bc08460020b90565b916156bc565b6001600160801b0381166146405750565b60406146909161464e613a92565b614660610569610569610135546105fe565b61013e545f614672610c5c8360020b90565b8551633c8a7d8d60e01b8152968795869485939030600486016146f1565b03925af18015610959576146a15750565b6143049060403d604011614108576140fa8183610e63565b6146d19060403d604011614108576140fa8183610e63565b50614607565b61462f91506146e4614a67565b614609565b90505f61459d565b6001600160a01b039091168152600291820b602082015291900b60408201526001600160801b03909116606082015260a0608082018190525f9082015260c00190565b6098546001600160a01b0316330361474857565b6362df054560e01b5f5260045ffd5b610135546040516334324e9f60e21b815290602090829060049082906001600160a01b03165afa908115610959575f9161478f575090565b90506020813d6020116147bc575b816147aa60209383610e63565b810103126104705751610ebb81610aa8565b3d915061479d565b156147cb57565b60405162461bcd60e51b815260206004820152601660248201527524b73b30b634b21034b6b83632b6b2b73a30ba34b7b760511b6044820152606490fd5b6148176105696033546105fe565b330361150457614831610569610569610569609b546105fe565b9060206040518093631f1097e560e01b82528180614851600482016132d0565b03915afa8015610959576137da925f9161487a575b506001600160a01b039182169116146147c4565b614893915060203d60201161133a5761132c8183610e63565b5f614866565b156148a057565b60405162461bcd60e51b815260206004820152602960248201527f45524331393637557067726164653a20756e737570706f727465642070726f786044820152681a58589b195555525160ba1b6064820152608490fd5b60809060208152602e60208201527f45524331393637557067726164653a206e657720696d706c656d656e7461746960408201526d6f6e206973206e6f74205555505360901b60608201520190565b906149508261578c565b6001600160a01b0382165f516020615ed25f395f51905f525f80a28051158015906149e4575b61497e575050565b61424c915f8060405193614993606086610e63565b602785527f416464726573733a206c6f772d6c6576656c2064656c65676174652063616c6c6020860152660819985a5b195960ca1b6040860152602081519101845af46149de615cf5565b91615d38565b505f614976565b916149f58361578c565b6001600160a01b0383165f516020615ed25f395f51905f525f80a281511590811591614a25575b5061497e575050565b90505f614a1c565b61013754609954614a4a916001600160a01b03918216911661581c565b610138546099546137da916001600160a01b03918216911661581c565b614a6f61388e565b15614a7657565b6313643c3b60e11b5f5260045ffd5b6001600160a01b039091168152602081019190915260400190565b614ad56137da9392614ac760405194859263a9059cbb60e01b602085015260248401614a85565b03601f198101845283610e63565b61592b565b9081602091031261047057610ebb906129b6565b60ff606554168015614afd5790565b50609b54604051631e25aa9b60e31b815290602090829060049082906001600160a01b03165afa908115610959575f91614b35575090565b610ebb915060203d602011614b57575b614b4f8183610e63565b810190614ada565b503d614b45565b61013754609954614b7b916001600160a01b039182169116615904565b610138546099546137da916001600160a01b039182169116615904565b603380546001600160a01b039283166001600160a01b0319821681179092559091165f516020615eb25f395f51905f525f80a3565b15614bd457565b60405162461bcd60e51b815260206004820152602b60248201527f496e697469616c697a61626c653a20636f6e7472616374206973206e6f74206960448201526a6e697469616c697a696e6760a81b6064820152608490fd5b614cef6105696060614d1193614c4960ff5f5460081c16614bcd565b614c51615a0d565b614c59615a2f565b614c87614c6582614d8a565b609880546001600160a01b0319166001600160a01b0392909216919091179055565b614cb8614c9660208301614d8a565b609980546001600160a01b0319166001600160a01b0392909216919091179055565b614ce9614cc760408301614d8a565b609a80546001600160a01b0319166001600160a01b0392909216919091179055565b01614d8a565b609b80546001600160a01b0319166001600160a01b0392909216919091179055565b60046020614d23610569609b546105fe565b6040516311b0b42d60e01b815292839182905afa8015610959576137da915f91614d6b575b50609780546001600160a01b0319166001600160a01b0392909216919091179055565b614d84915060203d60201161133a5761132c8183610e63565b5f614d48565b35610ebb8161060a565b620d89e8811215614da25790565b50620d89e890565b1561047057565b5f19670de0b6b3a76400008209670de0b6b3a7640000820291828083109203918083039214614e0957600160601b82101561047057600160601b90670de0b6b3a7640000900990828211900360a01b910360601c1790565b505060601c90565b5f198282099082810292838084109303928084039314614e5057600160601b83101561047057600160601b910990828211900360a01b910360601c1790565b50505060601c90565b5f19600160601b8209918160601b91828085109403938085039414614edf578190614e85858311614daa565b600160601b9009600182190182168092046002816003021880820260020302808202600203028082026002030280820260020302808202600203028091026002030293600183805f03040190848311900302920304170290565b509150614eed821515614daa565b0490565b90915f198383099280830292838086109503948086039514614f6f57908291614f1b868411614daa565b09600182190182168092046002816003021880820260020302808202600203028082026002030280820260020302808202600203028091026002030293600183805f03040190848311900302920304170290565b50509150614eed821515614daa565b614f86613a07565b5060245f6001600160a01b03614f9a61347f565b1660405192838092639af608c960e01b82523060048301525afa908115610959575f91614fc5575090565b90503d805f833e614fd68183610e63565b810190602081830312610470578051906001600160401b03821161047057019060c082820312610470576040519161500d83610e48565b8051835260208082015190840152604080820151908401526060808201519084015260808101516001600160401b0381116104705781019082601f830112156104705781519261505c8461195a565b9061506a6040519283610e63565b84825260208585010111610470575f602085615098968260a097018386015e830101526080850152016129b6565b60a082015290565b156150a757565b60405162461bcd60e51b81526020600482015260016024820152601560fa1b6044820152606490fd5b60020b5f81121561543557805f03905b6150ef620d89e88311156150a0565b600182161561542b576ffffcb933bd6fad37aa2d162d1a5940015b6001600160881b0316916002811661540f575b600481166153f3575b600881166153d7575b601081166153bb575b6020811661539f575b60408116615383575b60808116615367575b610100811661534b575b610200811661532f575b6104008116615313575b61080081166152f7575b61100081166152db575b61200081166152bf575b61400081166152a3575b6180008116615287575b62010000811661526b575b620200008116615250575b620400008116615235575b620800001661521c575b5f1261520e575b6151ec6151e28260201c90565b9163ffffffff1690565b615206575f905b60ff91909116016001600160a01b031690565b6001906151f3565b615217906133bd565b6151d5565b6b048a170391f7dc42444e8fa290910260801c906151ce565b6d2216e584f5fa1ea926041bedfe9890920260801c916151c4565b916e5d6af8dedb81196699c329225ee6040260801c916151b9565b916f09aa508b5b7a84e1c677de54f3e99bc90260801c916151ae565b916f31be135f97d08fd981231505542fcfa60260801c916151a3565b916f70d869a156d2a1b890bb3df62baf32f70260801c91615199565b916fa9f746462d870fdf8a65dc1f90e061e50260801c9161518f565b916fd097f3bdfd2022b8845ad8f792aa58250260801c91615185565b916fe7159475a2c29b7443b29c7fa6e889d90260801c9161517b565b916ff3392b0822b70005940c7a398e4b70f30260801c91615171565b916ff987a7253ac413176f2b074cf7815e540260801c91615167565b916ffcbe86c7900a88aedcffc83b479aa3a40260801c9161515d565b916ffe5dee046a99a2a811c461f1969c30530260801c91615153565b916fff2ea16466c96a3843ec78b326b528610260801c9161514a565b916fff973b41fa98c081472e6896dfb254c00260801c91615141565b916fffcb9843d60f6159c9db58835c9266440260801c91615138565b916fffe5caca7e10e4e61c3624eaa0941cd00260801c9161512f565b916ffff2e50f5f656932ef12357cf3c7fdcc0260801c91615126565b916ffff97272373d413259a46990580e213a0260801c9161511d565b600160801b61510a565b806150e0565b9093925f929091836001600160a01b03808416908816116154b4575b6001600160a01b03828116908816811161547c57505050615479929394615aab565b91565b93945090926001600160a01b03831611156154a85750906154a283610ebb949383615aab565b94615a68565b94610ebb939250615a68565b959195615457565b90601482511061552357602082015160601c9160178151106154e75761547960178083015192615b15565b60405162461bcd60e51b8152602060048201526014602482015273746f55696e7432345f6f75744f66426f756e647360601b6044820152606490fd5b60405162461bcd60e51b8152602060048201526015602482015274746f416464726573735f6f75744f66426f756e647360581b6044820152606490fd5b8051906017820391808311612ba8576017906155868461557f8161336b565b1015615b34565b61559c83516155958685613379565b1115615b71565b036155b35750506040515f81526020810160405290565b60405191601f8116916017831560051b80858701019484860193010101905b8084106155ea5750508252601f01601f191660405290565b90926020809185518152019301906155d2565b6001600160a01b03918216815291166020820152604081019190915260600190565b61013e549060181b65ffffff000000169065ffffff00000019161761013e55565b60ff606554168015615662575b61565357565b63e628b94960e01b5f5260045ffd5b50609b54604051631e25aa9b60e31b815290602090829060049082906001600160a01b03165afa908115610959575f9161569d575b5061564d565b6156b6915060203d602011614b5757614b4f8183610e63565b5f615697565b936001600160a01b0383811690831611615748575b6001600160a01b038581169590831686116156f2575050610ebb9350615ca1565b919490939192906001600160a01b038216111561573c5782916157199161571f9594615ca1565b93615c5e565b6001600160801b038181169083161015615737575090565b905090565b915050610ebb92615c5e565b9091906156d1565b9061576f92613be6615769615763613a38565b936150d0565b916150d0565b9015908115615783575b5015613908575f90565b9050155f615779565b803b156157c1575f516020615e525f395f51905f5280546001600160a01b0319166001600160a01b0392909216919091179055565b60405162461bcd60e51b815260206004820152602d60248201527f455243313936373a206e657720696d706c656d656e746174696f6e206973206e60448201526c1bdd08184818dbdb9d1c9858dd609a1b6064820152608490fd5b604051906158816020830163095ea7b360e01b8152615852846158445f198860248401614a85565b03601f198101865285610e63565b83516001600160a01b038416915f91829182855af190615870615cf5565b826158d2575b50816158cb57501590565b61588a57505050565b60405163095ea7b360e01b60208201526001600160a01b0390931660248401525f60448401526137da92614ad5906158c58160648101613109565b8261592b565b3b15919050565b805191925081159182156158ea575b5050905f615876565b6158fd9250602080918301019101614ada565b5f806158e1565b604051906158816020830163095ea7b360e01b8152615852846158445f8860248401614a85565b906159859160018060a01b03165f8060405193615949604086610e63565b602085527f5361666545524332303a206c6f772d6c6576656c2063616c6c206661696c6564602086015260208151910182855af16149de615cf5565b80519081159182156159f3575b50501561599b57565b60405162461bcd60e51b815260206004820152602a60248201527f5361666545524332303a204552433230206f7065726174696f6e20646964206e6044820152691bdd081cdd58d8d9595960b21b6064820152608490fd5b615a069250602080918301019101614ada565b5f80615992565b615a2660ff5f5460081c16615a2181614bcd565b614bcd565b6137da33614b98565b615a4360ff5f5460081c16615a2181614bcd565b60ff1960655416606555565b6001600160a01b039182169082160391908211612ba857565b610ebb9291906001600160a01b0380831690821611615aa5575b6001600160a01b0391615a959190615a4f565b16906001600160801b0316614e11565b90615a82565b91615af9916001600160a01b0380821690851611615b0f575b6001600160a01b03615ad68583615a4f565b6001600160a01b039092169291169060601b600160601b600160e01b0316614ef1565b6001600160a01b03909116908115612f9a570490565b92615ac4565b9081516014820190818311612ba8571061552357016020015160601c90565b15615b3b57565b60405162461bcd60e51b815260206004820152600e60248201526d736c6963655f6f766572666c6f7760901b6044820152606490fd5b15615b7857565b60405162461bcd60e51b8152602060048201526011602482015270736c6963655f6f75744f66426f756e647360781b6044820152606490fd5b9060020b9060020b0190627fffff198212627fffff831317612ba857565b9291909260020b8160020b908115612f9a57627fffff1981145f19831416612ba857818105915f82129182615c4f575b5050615c37575b90615c10916131ed565b918060020b8360020b0390627fffff8213627fffff19831217612ba857610ebb9193615bb1565b60020b90627fffff198214612ba857905f1901615c06565b0760020b151590505f80615bff565b610ebb92615c969290916001600160a01b0380831690821611615c9b575b6001600160a01b0391615c8f9190615a4f565b1690614e59565b615d24565b90615c7c565b610ebb92615c96929091906001600160a01b0380821690831611615cef575b615ce8615cd96001600160a01b03838116908516614e11565b926001600160a01b0392615a4f565b1691614ef1565b90615cc0565b3d15615d1f573d90615d068261195a565b91615d146040519384610e63565b82523d5f602084013e565b606090565b6001600160801b0381169190820361047057565b91929015615d9a5750815115615d4c575090565b3b15615d555790565b60405162461bcd60e51b815260206004820152601d60248201527f416464726573733a2063616c6c20746f206e6f6e2d636f6e74726163740000006044820152606490fd5b825190915015615dad5750805190602001fd5b60405162461bcd60e51b815260206004820152908190611243906024830190610e8656fe4910fdfa16fed3260ed0e7147f7cc6da11a60208b5b9406d12a635614ffd91436c8433a8e155f0af04dba058d4e4695f7da554578963d876bdf4a6d8d6399d9c46756e6374696f6e206d7573742062652063616c6c6564207468726f75676820203244158601764729526c0736d6b833b1f3da905ae0a631a059bbb9040541f0360894a13ba1a3210667c828492db98dca3e2076cc3735a920a3ca505d382bbc1b9728f4ac995937074d8e70e21a1660544fb7c16be984e1c289f262f2be9c74631c4f79c14099a717f4be2f25e6cef89e310b3944ef0e44ea2c0811ebb982a88be0079c531659141344cd1fd0a4f28419497f9722a3daafe3b4186f6b6457e0bc7cd75a20ee27fd9adebab32041f755214dbc6bffa90cc0225b39da2e5c2d3be1abe72d20e3d8bbb0a91fbb1c3cdd65253a0a0af97f17849f67ad7b3d1a6a62a55c1639d917d7b7cbf3837f1642937d4507076edbe26b1a6008234bb0c49530d255b592c7f268a73e534da5219a60ff911b4cf6daae21c7d20527dd657bd99aa26469706673582212201bef2ff4ce0933f0445fb6f7499137043c7a3562a574c05ddfa8c6b447565fd664736f6c634300081c0033","linkReferences":{}},"methodIdentifiers":{"balances()":"7bb98a68","balancesOfPool()":"fcc25e13","balancesOfThis()":"00a4b5c9","beefyFeeConfig()":"4746fb55","beefyFeeRecipient()":"8e145459","beforeAction()":"17dd7a72","currentTick()":"065e5360","deposit()":"d0e30db0","depositFee()":"67a52793","factory()":"c45a0155","fees0()":"93f1c442","fees1()":"4c02a21c","getAllFees()":"b20feaaf","getKeys()":"2150c518","getStratFeeId()":"8cfc0250","harvest()":"4641257d","harvest(address)":"0e5c011e","initialize(address,address,int24,bytes,bytes,(address,address,address,address))":"7f10e4b9","isCalm()":"9bdde46b","keeper()":"aced1661","lastHarvest()":"f1a392da","lastPositionAdjustment()":"865238d4","lockedProfit()":"44b81396","lpToken0()":"5ee167c0","lpToken0ToNativePath()":"1dcfeddd","lpToken1()":"877562b6","lpToken1ToNativePath()":"953d329f","maxTickDeviation()":"696c58e5","moveTicks()":"c7d54132","native()":"11b0b42d","owner()":"8da5cb5b","panic(uint256,uint256)":"60991346","paused()":"5c975abb","pool()":"16f0115b","positionAlt()":"99cd2446","positionMain()":"bc415d8a","positionWidth()":"8097e249","price()":"a035b1fe","proxiableUUID()":"52d1902d","quoter()":"c6bbd5a7","renounceOwnership()":"715018a6","setDeviation(int56)":"362c28c6","setLpToken0ToNativePath(bytes)":"236db042","setLpToken1ToNativePath(bytes)":"08898ea0","setPositionWidth(int24)":"12cf1381","setStratFeeId(uint256)":"3e55f932","setStrategist(address)":"c7b9d530","setTwapInterval(uint32)":"1d27050f","setUnirouter(address)":"d92f3d73","sqrtPrice()":"b83d2683","strategist()":"1fe4a686","swapFee()":"54cf2aeb","totalLocked0()":"2b950b66","totalLocked1()":"04c404b3","transferOwnership(address)":"f2fde38b","twap()":"1208aa18","twapInterval()":"3c1d5df0","unirouter()":"257ae0de","uniswapV3MintCallback(uint256,uint256,bytes)":"d3487997","unpause()":"3f4ba83a","upgradeTo(address)":"3659cfe6","upgradeToAndCall(address,bytes)":"4f1ef286","upgradeToLatest()":"367ad9e2","vault()":"fbfa77cf","withdraw(uint256,uint256)":"441a3e70","withdrawFee()":"e941fa78"},"id":42}